{
  "_format": "hh-sol-artifact-1",
  "contractName": "ActivePool",
  "sourceName": "contracts/ActivePool.sol",
  "abi": [
    {
      "anonymous": false,
      "inputs": [
        {
          "indexed": false,
          "internalType": "address",
          "name": "_newActivePoolAddress",
          "type": "address"
        }
      ],
      "name": "ActivePoolAddressChanged",
      "type": "event"
    },
    {
      "anonymous": false,
      "inputs": [
        {
          "indexed": false,
          "internalType": "uint256",
          "name": "_collateral",
          "type": "uint256"
        }
      ],
      "name": "ActivePoolCollateralBalanceUpdated",
      "type": "event"
    },
    {
      "anonymous": false,
      "inputs": [
        {
          "indexed": false,
          "internalType": "uint256",
          "name": "_THUSDDebt",
          "type": "uint256"
        }
      ],
      "name": "ActivePoolTHUSDDebtUpdated",
      "type": "event"
    },
    {
      "anonymous": false,
      "inputs": [
        {
          "indexed": false,
          "internalType": "address",
          "name": "_newBorrowerOperationsAddress",
          "type": "address"
        }
      ],
      "name": "BorrowerOperationsAddressChanged",
      "type": "event"
    },
    {
      "anonymous": false,
      "inputs": [
        {
          "indexed": false,
          "internalType": "address",
          "name": "_newCollSurplusPoolAddress",
          "type": "address"
        }
      ],
      "name": "CollSurplusPoolAddressChanged",
      "type": "event"
    },
    {
      "anonymous": false,
      "inputs": [
        {
          "indexed": false,
          "internalType": "address",
          "name": "_newCollateralAddress",
          "type": "address"
        }
      ],
      "name": "CollateralAddressChanged",
      "type": "event"
    },
    {
      "anonymous": false,
      "inputs": [
        {
          "indexed": false,
          "internalType": "uint256",
          "name": "_newBalance",
          "type": "uint256"
        }
      ],
      "name": "CollateralBalanceUpdated",
      "type": "event"
    },
    {
      "anonymous": false,
      "inputs": [
        {
          "indexed": false,
          "internalType": "address",
          "name": "_to",
          "type": "address"
        },
        {
          "indexed": false,
          "internalType": "uint256",
          "name": "_amount",
          "type": "uint256"
        }
      ],
      "name": "CollateralSent",
      "type": "event"
    },
    {
      "anonymous": false,
      "inputs": [
        {
          "indexed": false,
          "internalType": "address",
          "name": "_newDefaultPoolAddress",
          "type": "address"
        }
      ],
      "name": "DefaultPoolAddressChanged",
      "type": "event"
    },
    {
      "anonymous": false,
      "inputs": [
        {
          "indexed": true,
          "internalType": "address",
          "name": "previousOwner",
          "type": "address"
        },
        {
          "indexed": true,
          "internalType": "address",
          "name": "newOwner",
          "type": "address"
        }
      ],
      "name": "OwnershipTransferred",
      "type": "event"
    },
    {
      "anonymous": false,
      "inputs": [
        {
          "indexed": false,
          "internalType": "address",
          "name": "_newStabilityPoolAddress",
          "type": "address"
        }
      ],
      "name": "StabilityPoolAddressChanged",
      "type": "event"
    },
    {
      "anonymous": false,
      "inputs": [
        {
          "indexed": false,
          "internalType": "uint256",
          "name": "_newBalance",
          "type": "uint256"
        }
      ],
      "name": "THUSDBalanceUpdated",
      "type": "event"
    },
    {
      "anonymous": false,
      "inputs": [
        {
          "indexed": false,
          "internalType": "address",
          "name": "_newTroveManagerAddress",
          "type": "address"
        }
      ],
      "name": "TroveManagerAddressChanged",
      "type": "event"
    },
    {
      "inputs": [],
      "name": "NAME",
      "outputs": [
        {
          "internalType": "string",
          "name": "",
          "type": "string"
        }
      ],
      "stateMutability": "view",
      "type": "function"
    },
    {
      "inputs": [],
      "name": "borrowerOperationsAddress",
      "outputs": [
        {
          "internalType": "address",
          "name": "",
          "type": "address"
        }
      ],
      "stateMutability": "view",
      "type": "function"
    },
    {
      "inputs": [],
      "name": "collSurplusPoolAddress",
      "outputs": [
        {
          "internalType": "address",
          "name": "",
          "type": "address"
        }
      ],
      "stateMutability": "view",
      "type": "function"
    },
    {
      "inputs": [],
      "name": "collateralAddress",
      "outputs": [
        {
          "internalType": "address",
          "name": "",
          "type": "address"
        }
      ],
      "stateMutability": "view",
      "type": "function"
    },
    {
      "inputs": [
        {
          "internalType": "uint256",
          "name": "_amount",
          "type": "uint256"
        }
      ],
      "name": "decreaseTHUSDDebt",
      "outputs": [],
      "stateMutability": "nonpayable",
      "type": "function"
    },
    {
      "inputs": [],
      "name": "defaultPoolAddress",
      "outputs": [
        {
          "internalType": "address",
          "name": "",
          "type": "address"
        }
      ],
      "stateMutability": "view",
      "type": "function"
    },
    {
      "inputs": [],
      "name": "getCollateralBalance",
      "outputs": [
        {
          "internalType": "uint256",
          "name": "",
          "type": "uint256"
        }
      ],
      "stateMutability": "view",
      "type": "function"
    },
    {
      "inputs": [],
      "name": "getTHUSDDebt",
      "outputs": [
        {
          "internalType": "uint256",
          "name": "",
          "type": "uint256"
        }
      ],
      "stateMutability": "view",
      "type": "function"
    },
    {
      "inputs": [
        {
          "internalType": "uint256",
          "name": "_amount",
          "type": "uint256"
        }
      ],
      "name": "increaseTHUSDDebt",
      "outputs": [],
      "stateMutability": "nonpayable",
      "type": "function"
    },
    {
      "inputs": [],
      "name": "isOwner",
      "outputs": [
        {
          "internalType": "bool",
          "name": "",
          "type": "bool"
        }
      ],
      "stateMutability": "view",
      "type": "function"
    },
    {
      "inputs": [],
      "name": "owner",
      "outputs": [
        {
          "internalType": "address",
          "name": "",
          "type": "address"
        }
      ],
      "stateMutability": "view",
      "type": "function"
    },
    {
      "inputs": [
        {
          "internalType": "address",
          "name": "_account",
          "type": "address"
        },
        {
          "internalType": "uint256",
          "name": "_amount",
          "type": "uint256"
        }
      ],
      "name": "sendCollateral",
      "outputs": [],
      "stateMutability": "nonpayable",
      "type": "function"
    },
    {
      "inputs": [
        {
          "internalType": "address",
          "name": "_borrowerOperationsAddress",
          "type": "address"
        },
        {
          "internalType": "address",
          "name": "_troveManagerAddress",
          "type": "address"
        },
        {
          "internalType": "address",
          "name": "_stabilityPoolAddress",
          "type": "address"
        },
        {
          "internalType": "address",
          "name": "_defaultPoolAddress",
          "type": "address"
        },
        {
          "internalType": "address",
          "name": "_collSurplusPoolAddress",
          "type": "address"
        },
        {
          "internalType": "address",
          "name": "_collateralAddress",
          "type": "address"
        }
      ],
      "name": "setAddresses",
      "outputs": [],
      "stateMutability": "nonpayable",
      "type": "function"
    },
    {
      "inputs": [],
      "name": "stabilityPoolAddress",
      "outputs": [
        {
          "internalType": "address",
          "name": "",
          "type": "address"
        }
      ],
      "stateMutability": "view",
      "type": "function"
    },
    {
      "inputs": [
        {
          "internalType": "address",
          "name": "newOwner",
          "type": "address"
        }
      ],
      "name": "transferOwnership",
      "outputs": [],
      "stateMutability": "nonpayable",
      "type": "function"
    },
    {
      "inputs": [],
      "name": "troveManagerAddress",
      "outputs": [
        {
          "internalType": "address",
          "name": "",
          "type": "address"
        }
      ],
      "stateMutability": "view",
      "type": "function"
    },
    {
      "inputs": [
        {
          "internalType": "uint256",
          "name": "_amount",
          "type": "uint256"
        }
      ],
      "name": "updateCollateralBalance",
      "outputs": [],
      "stateMutability": "nonpayable",
      "type": "function"
    },
    {
      "stateMutability": "payable",
      "type": "receive"
    }
  ],
  "bytecode": "0x608060405234801561001057600080fd5b50600080546001600160a01b0319163390811782556040519091907f8be0079c531659141344cd1fd0a4f28419497f9722a3daafe3b4186f6b6457e0908290a36110b98061005f6000396000f3fe6080604052600436106100e25760003560e01c80638da5cb5b116100855780638da5cb5b146102b95780638f32d59b146102d757806398d99ee614610302578063a3f4df7e14610322578063aac1846f14610365578063b7f8cf9b14610385578063f07424e9146103a5578063f2fde38b146103ba578063f6ff93d6146103da57600080fd5b80630b622ab2146101a25780631529a639146101d85780632a9043ec146101f757806342c31a231461021757806348d399e7146102395780635a4d28bb1461025957806362502169146102795780636cfb6bf91461029957600080fd5b3661019d576100ef6103fa565b6003546001600160a01b0316156101605760405162461bcd60e51b815260206004820152602a60248201527f416374697665506f6f6c3a20636f6c6c61746572616c206d757374206265204560448201526929219918103a37b5b2b760b11b60648201526084015b60405180910390fd5b34600760008282546101729190610e89565b90915550506007546040519081526000805160206110648339815191529060200160405180910390a1005b600080fd5b3480156101ae57600080fd5b506005546101c2906001600160a01b031681565b6040516101cf9190610ea2565b60405180910390f35b3480156101e457600080fd5b506007545b6040519081526020016101cf565b34801561020357600080fd5b506004546101c2906001600160a01b031681565b34801561022357600080fd5b50610237610232366004610eb6565b610485565b005b34801561024557600080fd5b506003546101c2906001600160a01b031681565b34801561026557600080fd5b506006546101c2906001600160a01b031681565b34801561028557600080fd5b50610237610294366004610eeb565b6104de565b3480156102a557600080fd5b506102376102b4366004610f15565b6106e5565b3480156102c557600080fd5b506000546001600160a01b03166101c2565b3480156102e357600080fd5b506000546001600160a01b0316331460405190151581526020016101cf565b34801561030e57600080fd5b5061023761031d366004610eb6565b610909565b34801561032e57600080fd5b506103586040518060400160405280600a8152602001691058dd1a5d99541bdbdb60b21b81525081565b6040516101cf9190610f89565b34801561037157600080fd5b506001546101c2906001600160a01b031681565b34801561039157600080fd5b506002546101c2906001600160a01b031681565b3480156103b157600080fd5b506008546101e9565b3480156103c657600080fd5b506102376103d5366004610fd7565b6109ac565b3480156103e657600080fd5b506102376103f5366004610eb6565b610a47565b6002546001600160a01b031633148061041d57506001546001600160a01b031633145b6104835760405162461bcd60e51b815260206004820152603160248201527f416374697665506f6f6c3a2043616c6c6572206973206e65697468657220424f604482015270081b9bdc88111959985d5b1d08141bdbdb607a1b6064820152608401610157565b565b61048d610a61565b806008600082825461049f9190610e89565b90915550506008546040519081527f71e50c7de40c802fa2869e1059dd72c32a02b63f03dd59f5aabd4af46f0f51da906020015b60405180910390a150565b6104e6610b00565b80600760008282546104f89190610ff9565b90915550506007546040519081526000805160206110648339815191529060200160405180910390a1604080516001600160a01b0384168152602081018390527f342693d2465f6f44931e41128424a0227e0cbc69d1c3917a839e6de71696d44c910160405180910390a160035461057a906001600160a01b03168383610bc6565b6003546001600160a01b031661058e575050565b6001546001600160a01b03908116908316036105ff57604051634c6ccf7360e11b8152600481018290526001600160a01b038316906398d99ee690602401600060405180830381600087803b1580156105e657600080fd5b505af11580156105fa573d6000803e3d6000fd5b505050505b6004546001600160a01b039081169083160361067057604051634c6ccf7360e11b8152600481018290526001600160a01b038316906398d99ee690602401600060405180830381600087803b15801561065757600080fd5b505af115801561066b573d6000803e3d6000fd5b505050505b6005546001600160a01b03908116908316036106e157604051634c6ccf7360e11b8152600481018290526001600160a01b038316906398d99ee690602401600060405180830381600087803b1580156106c857600080fd5b505af11580156106dc573d6000803e3d6000fd5b505050505b5050565b6000546001600160a01b0316331461070f5760405162461bcd60e51b81526004016101579061100c565b61071886610d34565b61072185610d34565b61072a84610d34565b61073383610d34565b61073c82610d34565b6001600160a01b038116156107545761075481610d34565b600280546001600160a01b03199081166001600160a01b0389811691909117909255600680548216888416179055600580548216878416179055600180548216868416179055600380548216848416179055600480549091169184169190911790556040517f3ca631ffcd2a9b5d9ae18543fc82f58eb4ca33af9e6ab01b7a8e95331e6ed985906107e6908890610ea2565b60405180910390a17f143219c9e69b09e07e095fcc889b43d8f46ca892bba65f08dc3a0050869a56788560405161081d9190610ea2565b60405180910390a17f82966d27eea39b038ee0fa30cd16532bb24f6e65d31cb58fb227aa5766cdcc7f846040516108549190610ea2565b60405180910390a17f5ee0cae2f063ed938bb55046f6a932fb6ae792bf43624806bb90abe68a50be9b8360405161088b9190610ea2565b60405180910390a17ffba7421f3d1a98e80d72491a6e0523133444a5842cc7310951d8b82d075a7dff816040516108c29190610ea2565b60405180910390a17fe67f36a6e961157d6eff83b91f3af5a62131ceb6f04954ef74f51c1c05e7f88d826040516108f99190610ea2565b60405180910390a16106dc610dd9565b6109116103fa565b6003546001600160a01b03166109745760405162461bcd60e51b815260206004820152602260248201527f416374697665506f6f6c3a20636f6c6c61746572616c206d75737420626520456044820152610a8960f31b6064820152608401610157565b80600760008282546109869190610e89565b9091555050600754604051908152600080516020611064833981519152906020016104d3565b6000546001600160a01b031633146109d65760405162461bcd60e51b81526004016101579061100c565b6001600160a01b038116610a3b5760405162461bcd60e51b815260206004820152602660248201527f4f776e61626c653a206e6577206f776e657220697320746865207a65726f206160448201526564647265737360d01b6064820152608401610157565b610a4481610e23565b50565b610a4f610b00565b806008600082825461049f9190610ff9565b6002546001600160a01b0316331480610a8457506006546001600160a01b031633145b6104835760405162461bcd60e51b815260206004820152604160248201527f416374697665506f6f6c3a2043616c6c6572206973206e65697468657220426f60448201527f72726f7765724f7065726174696f6e73206e6f722054726f76654d616e6167656064820152603960f91b608482015260a401610157565b6002546001600160a01b0316331480610b2357506006546001600160a01b031633145b80610b3857506005546001600160a01b031633145b6104835760405162461bcd60e51b815260206004820152605360248201527f416374697665506f6f6c3a2043616c6c6572206973206e65697468657220426f60448201527f72726f7765724f7065726174696f6e73206e6f722054726f76654d616e6167656064820152721c881b9bdc8814dd18589a5b1a5d1e541bdbdb606a1b608482015260a401610157565b6001600160a01b038316610c72576000826001600160a01b03168260405160006040518083038185875af1925050503d8060008114610c21576040519150601f19603f3d011682016040523d82523d6000602084013e610c26565b606091505b5050905080610c6c5760405162461bcd60e51b815260206004820152601260248201527114d95b991a5b99c81155120819985a5b195960721b6044820152606401610157565b50505050565b60405163a9059cbb60e01b81526001600160a01b038381166004830152602482018390526000919085169063a9059cbb906044016020604051808303816000875af1158015610cc5573d6000803e3d6000fd5b505050506040513d601f19601f82011682018060405250810190610ce99190611041565b905080610c6c5760405162461bcd60e51b815260206004820152601960248201527814d95b991a5b99c818dbdb1b185d195c985b0819985a5b1959603a1b6044820152606401610157565b6001600160a01b038116610d8a5760405162461bcd60e51b815260206004820152601e60248201527f4163636f756e742063616e6e6f74206265207a65726f206164647265737300006044820152606401610157565b803b806106e15760405162461bcd60e51b815260206004820181905260248201527f4163636f756e7420636f64652073697a652063616e6e6f74206265207a65726f6044820152606401610157565b600080546040516001600160a01b03909116907f8be0079c531659141344cd1fd0a4f28419497f9722a3daafe3b4186f6b6457e0908390a3600080546001600160a01b0319169055565b600080546001600160a01b038381166001600160a01b0319831681178455604051919092169283917f8be0079c531659141344cd1fd0a4f28419497f9722a3daafe3b4186f6b6457e09190a35050565b634e487b7160e01b600052601160045260246000fd5b80820180821115610e9c57610e9c610e73565b92915050565b6001600160a01b0391909116815260200190565b600060208284031215610ec857600080fd5b5035919050565b80356001600160a01b0381168114610ee657600080fd5b919050565b60008060408385031215610efe57600080fd5b610f0783610ecf565b946020939093013593505050565b60008060008060008060c08789031215610f2e57600080fd5b610f3787610ecf565b9550610f4560208801610ecf565b9450610f5360408801610ecf565b9350610f6160608801610ecf565b9250610f6f60808801610ecf565b9150610f7d60a08801610ecf565b90509295509295509295565b600060208083528351808285015260005b81811015610fb657858101830151858201604001528201610f9a565b506000604082860101526040601f19601f8301168501019250505092915050565b600060208284031215610fe957600080fd5b610ff282610ecf565b9392505050565b81810381811115610e9c57610e9c610e73565b6020808252818101527f4f776e61626c653a2063616c6c6572206973206e6f7420746865206f776e6572604082015260600190565b60006020828403121561105357600080fd5b81518015158114610ff257600080fdfe51e7c30439c76308c020a84ca2a666735d3baa69d070e13beaf83e15bb697eb3a26469706673582212206d42eb146ab3c23388c8344cff39dca06282b35429bcacb2bb78b49cd5c806d464736f6c63430008110033",
  "linkReferences": {},
  "deployedLinkReferences": {}
}