{
  "_format": "hh-sol-artifact-1",
  "contractName": "ActivePoolTester",
  "sourceName": "contracts/TestContracts/ActivePoolTester.sol",
  "abi": [
    {
      "anonymous": false,
      "inputs": [
        {
          "indexed": false,
          "internalType": "address",
          "name": "_newActivePoolAddress",
          "type": "address"
        }
      ],
      "name": "ActivePoolAddressChanged",
      "type": "event"
    },
    {
      "anonymous": false,
      "inputs": [
        {
          "indexed": false,
          "internalType": "uint256",
          "name": "_collateral",
          "type": "uint256"
        }
      ],
      "name": "ActivePoolCollateralBalanceUpdated",
      "type": "event"
    },
    {
      "anonymous": false,
      "inputs": [
        {
          "indexed": false,
          "internalType": "uint256",
          "name": "_THUSDDebt",
          "type": "uint256"
        }
      ],
      "name": "ActivePoolTHUSDDebtUpdated",
      "type": "event"
    },
    {
      "anonymous": false,
      "inputs": [
        {
          "indexed": false,
          "internalType": "address",
          "name": "_newBorrowerOperationsAddress",
          "type": "address"
        }
      ],
      "name": "BorrowerOperationsAddressChanged",
      "type": "event"
    },
    {
      "anonymous": false,
      "inputs": [
        {
          "indexed": false,
          "internalType": "address",
          "name": "_newCollSurplusPoolAddress",
          "type": "address"
        }
      ],
      "name": "CollSurplusPoolAddressChanged",
      "type": "event"
    },
    {
      "anonymous": false,
      "inputs": [
        {
          "indexed": false,
          "internalType": "address",
          "name": "_newCollateralAddress",
          "type": "address"
        }
      ],
      "name": "CollateralAddressChanged",
      "type": "event"
    },
    {
      "anonymous": false,
      "inputs": [
        {
          "indexed": false,
          "internalType": "uint256",
          "name": "_newBalance",
          "type": "uint256"
        }
      ],
      "name": "CollateralBalanceUpdated",
      "type": "event"
    },
    {
      "anonymous": false,
      "inputs": [
        {
          "indexed": false,
          "internalType": "address",
          "name": "_to",
          "type": "address"
        },
        {
          "indexed": false,
          "internalType": "uint256",
          "name": "_amount",
          "type": "uint256"
        }
      ],
      "name": "CollateralSent",
      "type": "event"
    },
    {
      "anonymous": false,
      "inputs": [
        {
          "indexed": false,
          "internalType": "address",
          "name": "_newDefaultPoolAddress",
          "type": "address"
        }
      ],
      "name": "DefaultPoolAddressChanged",
      "type": "event"
    },
    {
      "anonymous": false,
      "inputs": [
        {
          "indexed": true,
          "internalType": "address",
          "name": "previousOwner",
          "type": "address"
        },
        {
          "indexed": true,
          "internalType": "address",
          "name": "newOwner",
          "type": "address"
        }
      ],
      "name": "OwnershipTransferred",
      "type": "event"
    },
    {
      "anonymous": false,
      "inputs": [
        {
          "indexed": false,
          "internalType": "address",
          "name": "_newStabilityPoolAddress",
          "type": "address"
        }
      ],
      "name": "StabilityPoolAddressChanged",
      "type": "event"
    },
    {
      "anonymous": false,
      "inputs": [
        {
          "indexed": false,
          "internalType": "uint256",
          "name": "_newBalance",
          "type": "uint256"
        }
      ],
      "name": "THUSDBalanceUpdated",
      "type": "event"
    },
    {
      "anonymous": false,
      "inputs": [
        {
          "indexed": false,
          "internalType": "address",
          "name": "_newTroveManagerAddress",
          "type": "address"
        }
      ],
      "name": "TroveManagerAddressChanged",
      "type": "event"
    },
    {
      "inputs": [],
      "name": "NAME",
      "outputs": [
        {
          "internalType": "string",
          "name": "",
          "type": "string"
        }
      ],
      "stateMutability": "view",
      "type": "function"
    },
    {
      "inputs": [],
      "name": "borrowerOperationsAddress",
      "outputs": [
        {
          "internalType": "address",
          "name": "",
          "type": "address"
        }
      ],
      "stateMutability": "view",
      "type": "function"
    },
    {
      "inputs": [],
      "name": "collSurplusPoolAddress",
      "outputs": [
        {
          "internalType": "address",
          "name": "",
          "type": "address"
        }
      ],
      "stateMutability": "view",
      "type": "function"
    },
    {
      "inputs": [],
      "name": "collateralAddress",
      "outputs": [
        {
          "internalType": "address",
          "name": "",
          "type": "address"
        }
      ],
      "stateMutability": "view",
      "type": "function"
    },
    {
      "inputs": [
        {
          "internalType": "uint256",
          "name": "_amount",
          "type": "uint256"
        }
      ],
      "name": "decreaseTHUSDDebt",
      "outputs": [],
      "stateMutability": "nonpayable",
      "type": "function"
    },
    {
      "inputs": [],
      "name": "defaultPoolAddress",
      "outputs": [
        {
          "internalType": "address",
          "name": "",
          "type": "address"
        }
      ],
      "stateMutability": "view",
      "type": "function"
    },
    {
      "inputs": [],
      "name": "getCollateralBalance",
      "outputs": [
        {
          "internalType": "uint256",
          "name": "",
          "type": "uint256"
        }
      ],
      "stateMutability": "view",
      "type": "function"
    },
    {
      "inputs": [],
      "name": "getTHUSDDebt",
      "outputs": [
        {
          "internalType": "uint256",
          "name": "",
          "type": "uint256"
        }
      ],
      "stateMutability": "view",
      "type": "function"
    },
    {
      "inputs": [
        {
          "internalType": "uint256",
          "name": "_amount",
          "type": "uint256"
        }
      ],
      "name": "increaseTHUSDDebt",
      "outputs": [],
      "stateMutability": "nonpayable",
      "type": "function"
    },
    {
      "inputs": [],
      "name": "isOwner",
      "outputs": [
        {
          "internalType": "bool",
          "name": "",
          "type": "bool"
        }
      ],
      "stateMutability": "view",
      "type": "function"
    },
    {
      "inputs": [],
      "name": "owner",
      "outputs": [
        {
          "internalType": "address",
          "name": "",
          "type": "address"
        }
      ],
      "stateMutability": "view",
      "type": "function"
    },
    {
      "inputs": [
        {
          "internalType": "address",
          "name": "_account",
          "type": "address"
        },
        {
          "internalType": "uint256",
          "name": "_amount",
          "type": "uint256"
        }
      ],
      "name": "sendCollateral",
      "outputs": [],
      "stateMutability": "nonpayable",
      "type": "function"
    },
    {
      "inputs": [
        {
          "internalType": "address",
          "name": "_borrowerOperationsAddress",
          "type": "address"
        },
        {
          "internalType": "address",
          "name": "_troveManagerAddress",
          "type": "address"
        },
        {
          "internalType": "address",
          "name": "_stabilityPoolAddress",
          "type": "address"
        },
        {
          "internalType": "address",
          "name": "_defaultPoolAddress",
          "type": "address"
        },
        {
          "internalType": "address",
          "name": "_collSurplusPoolAddress",
          "type": "address"
        },
        {
          "internalType": "address",
          "name": "_collateralAddress",
          "type": "address"
        }
      ],
      "name": "setAddresses",
      "outputs": [],
      "stateMutability": "nonpayable",
      "type": "function"
    },
    {
      "inputs": [],
      "name": "stabilityPoolAddress",
      "outputs": [
        {
          "internalType": "address",
          "name": "",
          "type": "address"
        }
      ],
      "stateMutability": "view",
      "type": "function"
    },
    {
      "inputs": [
        {
          "internalType": "address",
          "name": "newOwner",
          "type": "address"
        }
      ],
      "name": "transferOwnership",
      "outputs": [],
      "stateMutability": "nonpayable",
      "type": "function"
    },
    {
      "inputs": [],
      "name": "troveManagerAddress",
      "outputs": [
        {
          "internalType": "address",
          "name": "",
          "type": "address"
        }
      ],
      "stateMutability": "view",
      "type": "function"
    },
    {
      "inputs": [
        {
          "internalType": "uint256",
          "name": "_amount",
          "type": "uint256"
        }
      ],
      "name": "unprotectedIncreaseTHUSDDebt",
      "outputs": [],
      "stateMutability": "nonpayable",
      "type": "function"
    },
    {
      "inputs": [],
      "name": "unprotectedPayable",
      "outputs": [],
      "stateMutability": "payable",
      "type": "function"
    },
    {
      "inputs": [
        {
          "internalType": "uint256",
          "name": "_amount",
          "type": "uint256"
        }
      ],
      "name": "updateCollateralBalance",
      "outputs": [],
      "stateMutability": "nonpayable",
      "type": "function"
    },
    {
      "stateMutability": "payable",
      "type": "receive"
    }
  ],
  "bytecode": "0x608060405234801561001057600080fd5b50600080546001600160a01b0319163390811782556040519091907f8be0079c531659141344cd1fd0a4f28419497f9722a3daafe3b4186f6b6457e0908290a361113a8061005f6000396000f3fe6080604052600436106101085760003560e01c80638da5cb5b116100a0578063b7f8cf9b11610064578063b7f8cf9b146103cb578063f07424e9146103eb578063f2fde38b14610400578063f3af7c3b14610420578063f6ff93d61461042857600080fd5b80638da5cb5b146102ff5780638f32d59b1461031d57806398d99ee614610348578063a3f4df7e14610368578063aac1846f146103ab57600080fd5b80630b622ab2146101c85780631529a639146101fe57806326cefd461461021d5780632a9043ec1461023f57806342c31a231461025f57806348d399e71461027f5780635a4d28bb1461029f57806362502169146102bf5780636cfb6bf9146102df57600080fd5b366101c357610115610448565b6003546001600160a01b0316156101865760405162461bcd60e51b815260206004820152602a60248201527f416374697665506f6f6c3a20636f6c6c61746572616c206d757374206265204560448201526929219918103a37b5b2b760b11b60648201526084015b60405180910390fd5b34600760008282546101989190610f0a565b90915550506007546040519081526000805160206110e58339815191529060200160405180910390a1005b600080fd5b3480156101d457600080fd5b506005546101e8906001600160a01b031681565b6040516101f59190610f23565b60405180910390f35b34801561020a57600080fd5b506007545b6040519081526020016101f5565b34801561022957600080fd5b5061023d610238366004610f37565b6104d3565b005b34801561024b57600080fd5b506004546101e8906001600160a01b031681565b34801561026b57600080fd5b5061023d61027a366004610f37565b6104ed565b34801561028b57600080fd5b506003546101e8906001600160a01b031681565b3480156102ab57600080fd5b506006546101e8906001600160a01b031681565b3480156102cb57600080fd5b5061023d6102da366004610f6c565b610546565b3480156102eb57600080fd5b5061023d6102fa366004610f96565b61074d565b34801561030b57600080fd5b506000546001600160a01b03166101e8565b34801561032957600080fd5b506000546001600160a01b0316331460405190151581526020016101f5565b34801561035457600080fd5b5061023d610363366004610f37565b610971565b34801561037457600080fd5b5061039e6040518060400160405280600a8152602001691058dd1a5d99541bdbdb60b21b81525081565b6040516101f5919061100a565b3480156103b757600080fd5b506001546101e8906001600160a01b031681565b3480156103d757600080fd5b506002546101e8906001600160a01b031681565b3480156103f757600080fd5b5060085461020f565b34801561040c57600080fd5b5061023d61041b366004611058565b610a14565b61023d610aaf565b34801561043457600080fd5b5061023d610443366004610f37565b610ac8565b6002546001600160a01b031633148061046b57506001546001600160a01b031633145b6104d15760405162461bcd60e51b815260206004820152603160248201527f416374697665506f6f6c3a2043616c6c6572206973206e65697468657220424f604482015270081b9bdc88111959985d5b1d08141bdbdb607a1b606482015260840161017d565b565b80600860008282546104e59190610f0a565b909155505050565b6104f5610ae2565b80600860008282546105079190610f0a565b90915550506008546040519081527f71e50c7de40c802fa2869e1059dd72c32a02b63f03dd59f5aabd4af46f0f51da906020015b60405180910390a150565b61054e610b81565b8060076000828254610560919061107a565b90915550506007546040519081526000805160206110e58339815191529060200160405180910390a1604080516001600160a01b0384168152602081018390527f342693d2465f6f44931e41128424a0227e0cbc69d1c3917a839e6de71696d44c910160405180910390a16003546105e2906001600160a01b03168383610c47565b6003546001600160a01b03166105f6575050565b6001546001600160a01b039081169083160361066757604051634c6ccf7360e11b8152600481018290526001600160a01b038316906398d99ee690602401600060405180830381600087803b15801561064e57600080fd5b505af1158015610662573d6000803e3d6000fd5b505050505b6004546001600160a01b03908116908316036106d857604051634c6ccf7360e11b8152600481018290526001600160a01b038316906398d99ee690602401600060405180830381600087803b1580156106bf57600080fd5b505af11580156106d3573d6000803e3d6000fd5b505050505b6005546001600160a01b039081169083160361074957604051634c6ccf7360e11b8152600481018290526001600160a01b038316906398d99ee690602401600060405180830381600087803b15801561073057600080fd5b505af1158015610744573d6000803e3d6000fd5b505050505b5050565b6000546001600160a01b031633146107775760405162461bcd60e51b815260040161017d9061108d565b61078086610db5565b61078985610db5565b61079284610db5565b61079b83610db5565b6107a482610db5565b6001600160a01b038116156107bc576107bc81610db5565b600280546001600160a01b03199081166001600160a01b0389811691909117909255600680548216888416179055600580548216878416179055600180548216868416179055600380548216848416179055600480549091169184169190911790556040517f3ca631ffcd2a9b5d9ae18543fc82f58eb4ca33af9e6ab01b7a8e95331e6ed9859061084e908890610f23565b60405180910390a17f143219c9e69b09e07e095fcc889b43d8f46ca892bba65f08dc3a0050869a5678856040516108859190610f23565b60405180910390a17f82966d27eea39b038ee0fa30cd16532bb24f6e65d31cb58fb227aa5766cdcc7f846040516108bc9190610f23565b60405180910390a17f5ee0cae2f063ed938bb55046f6a932fb6ae792bf43624806bb90abe68a50be9b836040516108f39190610f23565b60405180910390a17ffba7421f3d1a98e80d72491a6e0523133444a5842cc7310951d8b82d075a7dff8160405161092a9190610f23565b60405180910390a17fe67f36a6e961157d6eff83b91f3af5a62131ceb6f04954ef74f51c1c05e7f88d826040516109619190610f23565b60405180910390a1610744610e5a565b610979610448565b6003546001600160a01b03166109dc5760405162461bcd60e51b815260206004820152602260248201527f416374697665506f6f6c3a20636f6c6c61746572616c206d75737420626520456044820152610a8960f31b606482015260840161017d565b80600760008282546109ee9190610f0a565b90915550506007546040519081526000805160206110e58339815191529060200161053b565b6000546001600160a01b03163314610a3e5760405162461bcd60e51b815260040161017d9061108d565b6001600160a01b038116610aa35760405162461bcd60e51b815260206004820152602660248201527f4f776e61626c653a206e6577206f776e657220697320746865207a65726f206160448201526564647265737360d01b606482015260840161017d565b610aac81610ea4565b50565b3460076000828254610ac19190610f0a565b9091555050565b610ad0610b81565b8060086000828254610507919061107a565b6002546001600160a01b0316331480610b0557506006546001600160a01b031633145b6104d15760405162461bcd60e51b815260206004820152604160248201527f416374697665506f6f6c3a2043616c6c6572206973206e65697468657220426f60448201527f72726f7765724f7065726174696f6e73206e6f722054726f76654d616e6167656064820152603960f91b608482015260a40161017d565b6002546001600160a01b0316331480610ba457506006546001600160a01b031633145b80610bb957506005546001600160a01b031633145b6104d15760405162461bcd60e51b815260206004820152605360248201527f416374697665506f6f6c3a2043616c6c6572206973206e65697468657220426f60448201527f72726f7765724f7065726174696f6e73206e6f722054726f76654d616e6167656064820152721c881b9bdc8814dd18589a5b1a5d1e541bdbdb606a1b608482015260a40161017d565b6001600160a01b038316610cf3576000826001600160a01b03168260405160006040518083038185875af1925050503d8060008114610ca2576040519150601f19603f3d011682016040523d82523d6000602084013e610ca7565b606091505b5050905080610ced5760405162461bcd60e51b815260206004820152601260248201527114d95b991a5b99c81155120819985a5b195960721b604482015260640161017d565b50505050565b60405163a9059cbb60e01b81526001600160a01b038381166004830152602482018390526000919085169063a9059cbb906044016020604051808303816000875af1158015610d46573d6000803e3d6000fd5b505050506040513d601f19601f82011682018060405250810190610d6a91906110c2565b905080610ced5760405162461bcd60e51b815260206004820152601960248201527814d95b991a5b99c818dbdb1b185d195c985b0819985a5b1959603a1b604482015260640161017d565b6001600160a01b038116610e0b5760405162461bcd60e51b815260206004820152601e60248201527f4163636f756e742063616e6e6f74206265207a65726f20616464726573730000604482015260640161017d565b803b806107495760405162461bcd60e51b815260206004820181905260248201527f4163636f756e7420636f64652073697a652063616e6e6f74206265207a65726f604482015260640161017d565b600080546040516001600160a01b03909116907f8be0079c531659141344cd1fd0a4f28419497f9722a3daafe3b4186f6b6457e0908390a3600080546001600160a01b0319169055565b600080546001600160a01b038381166001600160a01b0319831681178455604051919092169283917f8be0079c531659141344cd1fd0a4f28419497f9722a3daafe3b4186f6b6457e09190a35050565b634e487b7160e01b600052601160045260246000fd5b80820180821115610f1d57610f1d610ef4565b92915050565b6001600160a01b0391909116815260200190565b600060208284031215610f4957600080fd5b5035919050565b80356001600160a01b0381168114610f6757600080fd5b919050565b60008060408385031215610f7f57600080fd5b610f8883610f50565b946020939093013593505050565b60008060008060008060c08789031215610faf57600080fd5b610fb887610f50565b9550610fc660208801610f50565b9450610fd460408801610f50565b9350610fe260608801610f50565b9250610ff060808801610f50565b9150610ffe60a08801610f50565b90509295509295509295565b600060208083528351808285015260005b818110156110375785810183015185820160400152820161101b565b506000604082860101526040601f19601f8301168501019250505092915050565b60006020828403121561106a57600080fd5b61107382610f50565b9392505050565b81810381811115610f1d57610f1d610ef4565b6020808252818101527f4f776e61626c653a2063616c6c6572206973206e6f7420746865206f776e6572604082015260600190565b6000602082840312156110d457600080fd5b8151801515811461107357600080fdfe51e7c30439c76308c020a84ca2a666735d3baa69d070e13beaf83e15bb697eb3a264697066735822122097f8fae9555cde91d4a7c7a683d3d8ba5420e0a78094db90b371bb24c198fb2964736f6c63430008110033",
  "linkReferences": {},
  "deployedLinkReferences": {}
}