{
  "_format": "hh-sol-artifact-1",
  "contractName": "BAMM",
  "sourceName": "contracts/B.Protocol/BAMM.sol",
  "abi": [
    {
      "inputs": [
        {
          "internalType": "address",
          "name": "_priceAggregator",
          "type": "address"
        },
        {
          "internalType": "address payable",
          "name": "_SP",
          "type": "address"
        },
        {
          "internalType": "address",
          "name": "_thusdToken",
          "type": "address"
        },
        {
          "internalType": "address",
          "name": "_collateralERC20",
          "type": "address"
        },
        {
          "internalType": "uint256",
          "name": "_maxDiscount",
          "type": "uint256"
        },
        {
          "internalType": "address payable",
          "name": "_feePool",
          "type": "address"
        },
        {
          "internalType": "address",
          "name": "_bProtocolOwner",
          "type": "address"
        }
      ],
      "stateMutability": "nonpayable",
      "type": "constructor"
    },
    {
      "anonymous": false,
      "inputs": [
        {
          "indexed": false,
          "internalType": "uint256",
          "name": "val",
          "type": "uint256"
        }
      ],
      "name": "Exit",
      "type": "event"
    },
    {
      "anonymous": false,
      "inputs": [
        {
          "indexed": false,
          "internalType": "uint256",
          "name": "val",
          "type": "uint256"
        }
      ],
      "name": "Join",
      "type": "event"
    },
    {
      "anonymous": false,
      "inputs": [
        {
          "indexed": true,
          "internalType": "address",
          "name": "previousOwner",
          "type": "address"
        },
        {
          "indexed": true,
          "internalType": "address",
          "name": "newOwner",
          "type": "address"
        }
      ],
      "name": "OwnershipTransferred",
      "type": "event"
    },
    {
      "anonymous": false,
      "inputs": [
        {
          "indexed": false,
          "internalType": "uint256",
          "name": "A",
          "type": "uint256"
        },
        {
          "indexed": false,
          "internalType": "uint256",
          "name": "fee",
          "type": "uint256"
        }
      ],
      "name": "ParamsSet",
      "type": "event"
    },
    {
      "anonymous": false,
      "inputs": [
        {
          "indexed": true,
          "internalType": "address",
          "name": "user",
          "type": "address"
        },
        {
          "indexed": false,
          "internalType": "uint256",
          "name": "thusdAmount",
          "type": "uint256"
        },
        {
          "indexed": false,
          "internalType": "uint256",
          "name": "collateralAmount",
          "type": "uint256"
        },
        {
          "indexed": false,
          "internalType": "uint256",
          "name": "timestamp",
          "type": "uint256"
        }
      ],
      "name": "RebalanceSwap",
      "type": "event"
    },
    {
      "anonymous": false,
      "inputs": [
        {
          "indexed": true,
          "internalType": "address",
          "name": "_from",
          "type": "address"
        },
        {
          "indexed": true,
          "internalType": "address",
          "name": "_to",
          "type": "address"
        },
        {
          "indexed": false,
          "internalType": "uint256",
          "name": "_value",
          "type": "uint256"
        }
      ],
      "name": "Transfer",
      "type": "event"
    },
    {
      "anonymous": false,
      "inputs": [
        {
          "indexed": true,
          "internalType": "address",
          "name": "user",
          "type": "address"
        },
        {
          "indexed": false,
          "internalType": "uint256",
          "name": "thusdAmount",
          "type": "uint256"
        },
        {
          "indexed": false,
          "internalType": "uint256",
          "name": "numShares",
          "type": "uint256"
        }
      ],
      "name": "UserDeposit",
      "type": "event"
    },
    {
      "anonymous": false,
      "inputs": [
        {
          "indexed": true,
          "internalType": "address",
          "name": "user",
          "type": "address"
        },
        {
          "indexed": false,
          "internalType": "uint256",
          "name": "thusdAmount",
          "type": "uint256"
        },
        {
          "indexed": false,
          "internalType": "uint256",
          "name": "collateralAmount",
          "type": "uint256"
        },
        {
          "indexed": false,
          "internalType": "uint256",
          "name": "numShares",
          "type": "uint256"
        }
      ],
      "name": "UserWithdraw",
      "type": "event"
    },
    {
      "inputs": [],
      "name": "A",
      "outputs": [
        {
          "internalType": "uint256",
          "name": "",
          "type": "uint256"
        }
      ],
      "stateMutability": "view",
      "type": "function"
    },
    {
      "inputs": [],
      "name": "MAX_A",
      "outputs": [
        {
          "internalType": "uint256",
          "name": "",
          "type": "uint256"
        }
      ],
      "stateMutability": "view",
      "type": "function"
    },
    {
      "inputs": [],
      "name": "MAX_FEE",
      "outputs": [
        {
          "internalType": "uint256",
          "name": "",
          "type": "uint256"
        }
      ],
      "stateMutability": "view",
      "type": "function"
    },
    {
      "inputs": [],
      "name": "MIN_A",
      "outputs": [
        {
          "internalType": "uint256",
          "name": "",
          "type": "uint256"
        }
      ],
      "stateMutability": "view",
      "type": "function"
    },
    {
      "inputs": [],
      "name": "PRECISION",
      "outputs": [
        {
          "internalType": "uint256",
          "name": "",
          "type": "uint256"
        }
      ],
      "stateMutability": "view",
      "type": "function"
    },
    {
      "inputs": [],
      "name": "SP",
      "outputs": [
        {
          "internalType": "contract StabilityPool",
          "name": "",
          "type": "address"
        }
      ],
      "stateMutability": "view",
      "type": "function"
    },
    {
      "inputs": [],
      "name": "bProtocolOwner",
      "outputs": [
        {
          "internalType": "address",
          "name": "",
          "type": "address"
        }
      ],
      "stateMutability": "view",
      "type": "function"
    },
    {
      "inputs": [
        {
          "internalType": "address",
          "name": "owner",
          "type": "address"
        }
      ],
      "name": "balanceOf",
      "outputs": [
        {
          "internalType": "uint256",
          "name": "balance",
          "type": "uint256"
        }
      ],
      "stateMutability": "view",
      "type": "function"
    },
    {
      "inputs": [],
      "name": "collateralERC20",
      "outputs": [
        {
          "internalType": "contract IERC20",
          "name": "",
          "type": "address"
        }
      ],
      "stateMutability": "view",
      "type": "function"
    },
    {
      "inputs": [
        {
          "internalType": "uint256",
          "name": "collateralAmount",
          "type": "uint256"
        }
      ],
      "name": "compensateForTHUSDDeviation",
      "outputs": [
        {
          "internalType": "uint256",
          "name": "newCollateralAmount",
          "type": "uint256"
        }
      ],
      "stateMutability": "view",
      "type": "function"
    },
    {
      "inputs": [],
      "name": "decimals",
      "outputs": [
        {
          "internalType": "uint256",
          "name": "",
          "type": "uint256"
        }
      ],
      "stateMutability": "view",
      "type": "function"
    },
    {
      "inputs": [
        {
          "internalType": "uint256",
          "name": "thusdAmount",
          "type": "uint256"
        }
      ],
      "name": "deposit",
      "outputs": [],
      "stateMutability": "nonpayable",
      "type": "function"
    },
    {
      "inputs": [],
      "name": "fee",
      "outputs": [
        {
          "internalType": "uint256",
          "name": "",
          "type": "uint256"
        }
      ],
      "stateMutability": "view",
      "type": "function"
    },
    {
      "inputs": [],
      "name": "feePool",
      "outputs": [
        {
          "internalType": "address payable",
          "name": "",
          "type": "address"
        }
      ],
      "stateMutability": "view",
      "type": "function"
    },
    {
      "inputs": [],
      "name": "fetchPrice",
      "outputs": [
        {
          "internalType": "uint256",
          "name": "",
          "type": "uint256"
        }
      ],
      "stateMutability": "view",
      "type": "function"
    },
    {
      "inputs": [],
      "name": "getCollateralBalance",
      "outputs": [
        {
          "internalType": "uint256",
          "name": "collateralValue",
          "type": "uint256"
        }
      ],
      "stateMutability": "view",
      "type": "function"
    },
    {
      "inputs": [
        {
          "internalType": "contract IERC20",
          "name": "",
          "type": "address"
        },
        {
          "internalType": "contract IERC20",
          "name": "",
          "type": "address"
        },
        {
          "internalType": "uint256",
          "name": "srcQty",
          "type": "uint256"
        },
        {
          "internalType": "uint256",
          "name": "",
          "type": "uint256"
        }
      ],
      "name": "getConversionRate",
      "outputs": [
        {
          "internalType": "uint256",
          "name": "",
          "type": "uint256"
        }
      ],
      "stateMutability": "view",
      "type": "function"
    },
    {
      "inputs": [
        {
          "internalType": "uint256",
          "name": "xQty",
          "type": "uint256"
        },
        {
          "internalType": "uint256",
          "name": "xBalance",
          "type": "uint256"
        },
        {
          "internalType": "uint256",
          "name": "yBalance",
          "type": "uint256"
        },
        {
          "internalType": "uint256",
          "name": "A",
          "type": "uint256"
        }
      ],
      "name": "getReturn",
      "outputs": [
        {
          "internalType": "uint256",
          "name": "",
          "type": "uint256"
        }
      ],
      "stateMutability": "pure",
      "type": "function"
    },
    {
      "inputs": [
        {
          "internalType": "uint256",
          "name": "x",
          "type": "uint256"
        },
        {
          "internalType": "uint256",
          "name": "y",
          "type": "uint256"
        },
        {
          "internalType": "uint256",
          "name": "A",
          "type": "uint256"
        }
      ],
      "name": "getSumFixedPoint",
      "outputs": [
        {
          "internalType": "uint256",
          "name": "",
          "type": "uint256"
        }
      ],
      "stateMutability": "pure",
      "type": "function"
    },
    {
      "inputs": [
        {
          "internalType": "uint256",
          "name": "thusdQty",
          "type": "uint256"
        }
      ],
      "name": "getSwapCollateralAmount",
      "outputs": [
        {
          "internalType": "uint256",
          "name": "collateralAmount",
          "type": "uint256"
        },
        {
          "internalType": "uint256",
          "name": "feeTHUSDAmount",
          "type": "uint256"
        }
      ],
      "stateMutability": "view",
      "type": "function"
    },
    {
      "inputs": [],
      "name": "isOwner",
      "outputs": [
        {
          "internalType": "bool",
          "name": "",
          "type": "bool"
        }
      ],
      "stateMutability": "view",
      "type": "function"
    },
    {
      "inputs": [],
      "name": "maxDiscount",
      "outputs": [
        {
          "internalType": "uint256",
          "name": "",
          "type": "uint256"
        }
      ],
      "stateMutability": "view",
      "type": "function"
    },
    {
      "inputs": [],
      "name": "name",
      "outputs": [
        {
          "internalType": "string",
          "name": "",
          "type": "string"
        }
      ],
      "stateMutability": "view",
      "type": "function"
    },
    {
      "inputs": [],
      "name": "owner",
      "outputs": [
        {
          "internalType": "address",
          "name": "",
          "type": "address"
        }
      ],
      "stateMutability": "view",
      "type": "function"
    },
    {
      "inputs": [],
      "name": "priceAggregator",
      "outputs": [
        {
          "internalType": "contract AggregatorV3Interface",
          "name": "",
          "type": "address"
        }
      ],
      "stateMutability": "view",
      "type": "function"
    },
    {
      "inputs": [
        {
          "internalType": "uint256",
          "name": "_A",
          "type": "uint256"
        },
        {
          "internalType": "uint256",
          "name": "_fee",
          "type": "uint256"
        }
      ],
      "name": "setParams",
      "outputs": [],
      "stateMutability": "nonpayable",
      "type": "function"
    },
    {
      "inputs": [
        {
          "internalType": "address",
          "name": "_thusd2UsdPriceAggregator",
          "type": "address"
        }
      ],
      "name": "setTHUSD2UsdPriceAggregator",
      "outputs": [],
      "stateMutability": "nonpayable",
      "type": "function"
    },
    {
      "inputs": [
        {
          "internalType": "address",
          "name": "",
          "type": "address"
        }
      ],
      "name": "stake",
      "outputs": [
        {
          "internalType": "uint256",
          "name": "",
          "type": "uint256"
        }
      ],
      "stateMutability": "view",
      "type": "function"
    },
    {
      "inputs": [
        {
          "internalType": "uint256",
          "name": "thusdAmount",
          "type": "uint256"
        },
        {
          "internalType": "uint256",
          "name": "minCollateralReturn",
          "type": "uint256"
        },
        {
          "internalType": "address payable",
          "name": "dest",
          "type": "address"
        }
      ],
      "name": "swap",
      "outputs": [
        {
          "internalType": "uint256",
          "name": "",
          "type": "uint256"
        }
      ],
      "stateMutability": "nonpayable",
      "type": "function"
    },
    {
      "inputs": [],
      "name": "symbol",
      "outputs": [
        {
          "internalType": "string",
          "name": "",
          "type": "string"
        }
      ],
      "stateMutability": "view",
      "type": "function"
    },
    {
      "inputs": [],
      "name": "thusd2UsdPriceAggregator",
      "outputs": [
        {
          "internalType": "contract AggregatorV3Interface",
          "name": "",
          "type": "address"
        }
      ],
      "stateMutability": "view",
      "type": "function"
    },
    {
      "inputs": [],
      "name": "thusdToken",
      "outputs": [
        {
          "internalType": "contract IERC20",
          "name": "",
          "type": "address"
        }
      ],
      "stateMutability": "view",
      "type": "function"
    },
    {
      "inputs": [],
      "name": "total",
      "outputs": [
        {
          "internalType": "uint256",
          "name": "",
          "type": "uint256"
        }
      ],
      "stateMutability": "view",
      "type": "function"
    },
    {
      "inputs": [],
      "name": "totalSupply",
      "outputs": [
        {
          "internalType": "uint256",
          "name": "",
          "type": "uint256"
        }
      ],
      "stateMutability": "view",
      "type": "function"
    },
    {
      "inputs": [
        {
          "internalType": "contract IERC20",
          "name": "",
          "type": "address"
        },
        {
          "internalType": "uint256",
          "name": "srcAmount",
          "type": "uint256"
        },
        {
          "internalType": "contract IERC20",
          "name": "",
          "type": "address"
        },
        {
          "internalType": "address payable",
          "name": "destAddress",
          "type": "address"
        },
        {
          "internalType": "uint256",
          "name": "",
          "type": "uint256"
        },
        {
          "internalType": "bool",
          "name": "",
          "type": "bool"
        }
      ],
      "name": "trade",
      "outputs": [
        {
          "internalType": "bool",
          "name": "",
          "type": "bool"
        }
      ],
      "stateMutability": "payable",
      "type": "function"
    },
    {
      "inputs": [
        {
          "internalType": "address",
          "name": "newOwner",
          "type": "address"
        }
      ],
      "name": "transferBProtocolOwnership",
      "outputs": [],
      "stateMutability": "nonpayable",
      "type": "function"
    },
    {
      "inputs": [
        {
          "internalType": "address",
          "name": "newOwner",
          "type": "address"
        }
      ],
      "name": "transferOwnership",
      "outputs": [],
      "stateMutability": "nonpayable",
      "type": "function"
    },
    {
      "inputs": [
        {
          "internalType": "uint256",
          "name": "numShares",
          "type": "uint256"
        }
      ],
      "name": "withdraw",
      "outputs": [],
      "stateMutability": "nonpayable",
      "type": "function"
    },
    {
      "stateMutability": "payable",
      "type": "receive"
    }
  ],
  "bytecode": "0x610140604052600060045560146005553480156200001c57600080fd5b5060405162002b1038038062002b108339810160408190526200003f916200023a565b600280546001600160a01b031916339081179091556040516000907f8be0079c531659141344cd1fd0a4f28419497f9722a3daafe3b4186f6b6457e0908290a36200008a8762000174565b620000958562000174565b620000a08662000174565b6001600160a01b03841615620000bb57620000bb8462000174565b6001600160a01b0380881660805285811660a05286811660c05284811660e052828116610100526101208490528116620001475760405162461bcd60e51b815260206004820152602260248201527f422e50726f746f636f6c206f776e6572206d7573742062652073706563696669604482015261195960f21b60648201526084015b60405180910390fd5b600680546001600160a01b0319166001600160a01b039290921691909117905550620002d9945050505050565b6001600160a01b038116620001cc5760405162461bcd60e51b815260206004820152601e60248201527f4163636f756e742063616e6e6f74206265207a65726f2061646472657373000060448201526064016200013e565b803b806200021d5760405162461bcd60e51b815260206004820181905260248201527f4163636f756e7420636f64652073697a652063616e6e6f74206265207a65726f60448201526064016200013e565b5050565b6001600160a01b03811681146200023757600080fd5b50565b600080600080600080600060e0888a0312156200025657600080fd5b8751620002638162000221565b6020890151909750620002768162000221565b6040890151909650620002898162000221565b60608901519095506200029c8162000221565b608089015160a08a01519195509350620002b68162000221565b60c0890151909250620002c98162000221565b8091505092959891949750929550565b60805160a05160c05160e0516101005161012051612762620003ae6000396000818161065a0152610f1f01526000818161060601526111be0152600081816104af01528181610adb01528181610b2d01528181610deb01526112320152600081816103ed01528181610a6101528181610bc701528181610c8d01528181610e1f015281816110f20152818161145301526116c60152600081816104e301528181610d180152818161106b0152818161119101526115e801526000818161034d015281816108d9015261096601526127626000f3fe6080604052600436106102095760003560e01c80637cd4427211610113578063b8b89e1b116100ab578063e29e4fbc1161006f578063e29e4fbc146106e7578063f0e9bb5814610707578063f2fde38b14610727578063f38eb5af14610747578063f446c1d01461076757600080fd5b8063b8b89e1b14610648578063bc063e1a1461067c578063c0324c7714610691578063c62ffb16146106b1578063ddca3f43146106d157600080fd5b80637cd44272146105055780638da5cb5b146105255780638f32d59b1461054357806393ca63831461056357806395d89b41146105835780639fe1d33a146105b8578063aaf5eb68146105d8578063ae2e933b146105f4578063b6b55f251461062857600080fd5b8063313ce567116101a15780636d9a640a116101655780636d9a640a146104325780636e9fe6701461045257806370a0823114610467578063724d37451461049d57806377e16f1e146104d157600080fd5b8063313ce5671461037c57806338da42531461039157806339698415146103c65780634426ebd0146103db5780636cf698111461040f57600080fd5b8063068d59111461021557806306fdde03146102485780630fdb11cf146102975780631529a639146102ac57806318160ddd146102c157806326476204146102d65780632ddbd13a146103035780632e1a7d4d146103195780633078fff51461033b57600080fd5b3661021057005b600080fd5b34801561022157600080fd5b506102356102303660046121d7565b61077d565b6040519081526020015b60405180910390f35b34801561025457600080fd5b5061028a60405180604001604052806016815260200175108b9053534815121554d10b50d3d31310551154905360521b81525081565b60405161023f9190612209565b3480156102a357600080fd5b506102356108d1565b3480156102b857600080fd5b50610235610a47565b3480156102cd57600080fd5b50600054610235565b3480156102e257600080fd5b506102356102f136600461226c565b60016020526000908152604090205481565b34801561030f57600080fd5b5061023560005481565b34801561032557600080fd5b50610339610334366004612289565b610bad565b005b34801561034757600080fd5b5061036f7f000000000000000000000000000000000000000000000000000000000000000081565b60405161023f91906122a2565b34801561038857600080fd5b50610235601281565b34801561039d57600080fd5b506103b16103ac366004612289565b610e18565b6040805192835260208301919091520161023f565b3480156103d257600080fd5b5061023560c881565b3480156103e757600080fd5b5061036f7f000000000000000000000000000000000000000000000000000000000000000081565b61042261041d3660046122c4565b610fdf565b604051901515815260200161023f565b34801561043e57600080fd5b5061023561044d366004612334565b610ffa565b34801561045e57600080fd5b50610235601481565b34801561047357600080fd5b5061023561048236600461226c565b6001600160a01b031660009081526001602052604090205490565b3480156104a957600080fd5b5061036f7f000000000000000000000000000000000000000000000000000000000000000081565b3480156104dd57600080fd5b5061036f7f000000000000000000000000000000000000000000000000000000000000000081565b34801561051157600080fd5b5061023561052036600461236d565b6112a5565b34801561053157600080fd5b506002546001600160a01b031661036f565b34801561054f57600080fd5b506002546001600160a01b03163314610422565b34801561056f57600080fd5b5060065461036f906001600160a01b031681565b34801561058f57600080fd5b5061028a6040518060400160405280600981526020016815121554d110d3d31360ba1b81525081565b3480156105c457600080fd5b506102356105d3366004612289565b6112db565b3480156105e457600080fd5b50610235670de0b6b3a764000081565b34801561060057600080fd5b5061036f7f000000000000000000000000000000000000000000000000000000000000000081565b34801561063457600080fd5b50610339610643366004612289565b611439565b34801561065457600080fd5b506102357f000000000000000000000000000000000000000000000000000000000000000081565b34801561068857600080fd5b50610235606481565b34801561069d57600080fd5b506103396106ac3660046123b3565b611777565b3480156106bd57600080fd5b506103396106cc36600461226c565b6118c7565b3480156106dd57600080fd5b5061023560045481565b3480156106f357600080fd5b506102356107023660046123d5565b6119b3565b34801561071357600080fd5b5061033961072236600461226c565b611b1e565b34801561073357600080fd5b5061033961074236600461226c565b611bd6565b34801561075357600080fd5b5060035461036f906001600160a01b031681565b34801561077357600080fd5b5061023560055481565b60008061078b8585856119b3565b905060006107998688612417565b6107a490600261242a565b6107ae838061242a565b6107b89190612441565b90506107c584600461242a565b6107cf838361242a565b6107d99190612441565b905060006107e885600261242a565b6107f29084612441565b6107fc888a612417565b6108069190612417565b9050600083815b60ff8110156108aa578192506000858384610828919061242a565b6108329190612417565b90506000878661084386600261242a565b61084d9190612417565b6108579190612463565b90506108638183612441565b9350610870856001612417565b84111580156108895750610885846001612417565b8511155b156108955750506108aa565b505080806108a290612476565b91505061080d565b5060016108b7828a612463565b6108c19190612463565b955050505050505b949350505050565b6000806000807f00000000000000000000000000000000000000000000000000000000000000006001600160a01b031663313ce5676040518163ffffffff1660e01b8152600401602060405180830381865afa925050508015610951575060408051601f3d908101601f1916820190925261094e9181019061248f565b60015b61095f576000935050505090565b60ff1692507f00000000000000000000000000000000000000000000000000000000000000006001600160a01b031663feaf968c6040518163ffffffff1660e01b815260040160a060405180830381865afa9250505080156109de575060408051601f3d908101601f191682019092526109db918101906124d1565b60015b6109ec576000935050505090565b50919450909250505042610a0282610e10612417565b1015610a12576000935050505090565b6000610a1f84600a612605565b905080610a34670de0b6b3a76400008561242a565b610a3e9190612441565b94505050505090565b60405163183e9b0960e11b81526000906001600160a01b037f0000000000000000000000000000000000000000000000000000000000000000169063307d361290610a969030906004016122a2565b602060405180830381865afa158015610ab3573d6000803e3d6000fd5b505050506040513d601f19601f82011682018060405250810190610ad79190612611565b90507f00000000000000000000000000000000000000000000000000000000000000006001600160a01b0316610b1657610b114782612417565b905090565b6040516370a0823160e01b81526001600160a01b037f000000000000000000000000000000000000000000000000000000000000000016906370a0823190610b629030906004016122a2565b602060405180830381865afa158015610b7f573d6000803e3d6000fd5b505050506040513d601f19601f82011682018060405250810190610ba39190612611565b610b119082612417565b604051635205a47960e01b81526000906001600160a01b037f00000000000000000000000000000000000000000000000000000000000000001690635205a47990610bfc9030906004016122a2565b602060405180830381865afa158015610c19573d6000803e3d6000fd5b505050506040513d601f19601f82011682018060405250810190610c3d9190612611565b90506000610c49610a47565b6000805491925090610c5f908590856001611c71565b6000805491925090610c749086908584611c71565b604051632e54bf9560e01b8152600481018490529091507f00000000000000000000000000000000000000000000000000000000000000006001600160a01b031690632e54bf9590602401600060405180830381600087803b158015610cd957600080fd5b505af1158015610ced573d6000803e3d6000fd5b50505050610cfb3386611cd7565b8115610d945760405163a9059cbb60e01b81526001600160a01b037f0000000000000000000000000000000000000000000000000000000000000000169063a9059cbb90610d4f903390869060040161262a565b6020604051808303816000875af1158015610d6e573d6000803e3d6000fd5b505050506040513d601f19601f82011682018060405250810190610d929190612643565b505b604080518381526020810183905290810186905233907f5706e30facf103fa63b976a5142c96bb88e65a98f82412f1ddbef60ba71695579060600160405180910390a280600003610de6575050505050565b610e117f00000000000000000000000000000000000000000000000000000000000000003383611d9a565b5050505050565b60008060007f00000000000000000000000000000000000000000000000000000000000000006001600160a01b0316635205a479306040518263ffffffff1660e01b8152600401610e6991906122a2565b602060405180830381865afa158015610e86573d6000803e3d6000fd5b505050506040513d601f19601f82011682018060405250810190610eaa9190612611565b90506000610eb6610a47565b90506000610ec26108d1565b905080600003610eda57506000958695509350505050565b6000670de0b6b3a7640000610eef838561242a565b610ef99190612441565b90506000610f4383610f13670de0b6b3a76400008b61242a565b610f1d9190612441565b7f0000000000000000000000000000000000000000000000000000000000000000611f05565b905087856000610f5485600261242a565b610f5e9089612417565b90506000610f7084848460055461077d565b9050600087610f87670de0b6b3a76400008461242a565b610f919190612441565b9050610f9c816112db565b905080891015610fa95750875b80861015610fb45750845b809b508c610fc48e600454611f05565b610fce9190612463565b9a5050505050505050505050915091565b600080610fee87600087610ffa565b11979650505050505050565b600080600061100886610e18565b91509150848210156110545760405162461bcd60e51b815260206004820152601060248201526f39bbb0b81d103637bb903932ba3ab93760811b60448201526064015b60405180910390fd5b6040516323b872dd60e01b81526001600160a01b037f000000000000000000000000000000000000000000000000000000000000000016906323b872dd906110a490339030908b90600401612660565b6020604051808303816000875af11580156110c3573d6000803e3d6000fd5b505050506040513d601f19601f820116820180604052508101906110e79190612643565b506001600160a01b037f0000000000000000000000000000000000000000000000000000000000000000166378c77a246111218389612463565b6040518263ffffffff1660e01b815260040161113f91815260200190565b600060405180830381600087803b15801561115957600080fd5b505af115801561116d573d6000803e3d6000fd5b50505050600081111561122d5760405163a9059cbb60e01b81526001600160a01b037f0000000000000000000000000000000000000000000000000000000000000000169063a9059cbb906111e8907f000000000000000000000000000000000000000000000000000000000000000090859060040161262a565b6020604051808303816000875af1158015611207573d6000803e3d6000fd5b505050506040513d601f19601f8201168201806040525081019061122b9190612643565b505b6112587f00000000000000000000000000000000000000000000000000000000000000008584611d9a565b60408051878152602081018490524281830152905133917fc690f9b0d999c94570f07e58078c65fc21a4400d416daf05414dc565eb6a1342919081900360600190a25090505b9392505050565b6000806112b184610e18565b509050836112c7670de0b6b3a76400008361242a565b6112d19190612441565b9695505050505050565b6003546000906001600160a01b03166112f2575090565b600080600360009054906101000a90046001600160a01b03166001600160a01b031663313ce5676040518163ffffffff1660e01b8152600401602060405180830381865afa158015611348573d6000803e3d6000fd5b505050506040513d601f19601f8201168201806040525081019061136c919061248f565b60ff1691506000600360009054906101000a90046001600160a01b03166001600160a01b031663feaf968c6040518163ffffffff1660e01b815260040160a060405180830381865afa1580156113c6573d6000803e3d6000fd5b505050506040513d601f19601f820116820180604052508101906113ea91906124d1565b50505091505080915082600a6114009190612605565b82111561142d5761141283600a612605565b61141c838761242a565b6114269190612441565b9350611431565b8493505b505050919050565b604051635205a47960e01b81526000906001600160a01b037f00000000000000000000000000000000000000000000000000000000000000001690635205a479906114889030906004016122a2565b602060405180830381865afa1580156114a5573d6000803e3d6000fd5b505050506040513d601f19601f820116820180604052508101906114c99190612611565b905060006114d5610a47565b905060006114e16108d1565b90508115806114f05750600081115b61153c5760405162461bcd60e51b815260206004820152601a60248201527f6465706f7369743a20636861696e6c696e6b20697320646f776e000000000000604482015260640161104b565b6000670de0b6b3a7640000611551838561242a565b61155b9190612441565b6115659085612417565b905060008111806115765750600054155b6115bc5760405162461bcd60e51b815260206004820152601760248201527619195c1bdcda5d0e881cde5cdd195b481a5cc81c995add604a1b604482015260640161104b565b600080546115ce908790846001611fd6565b6040516323b872dd60e01b81529091506001600160a01b037f000000000000000000000000000000000000000000000000000000000000000016906323b872dd9061162190339030908b90600401612660565b6020604051808303816000875af1158015611640573d6000803e3d6000fd5b505050506040513d601f19601f820116820180604052508101906116649190612643565b6116b05760405162461bcd60e51b815260206004820152601c60248201527f6465706f7369743a207472616e7366657246726f6d206661696c656400000000604482015260640161104b565b604051631e31de8960e21b8152600481018790527f00000000000000000000000000000000000000000000000000000000000000006001600160a01b0316906378c77a2490602401600060405180830381600087803b15801561171257600080fd5b505af1158015611726573d6000803e3d6000fd5b505050506117343382612021565b604080518781526020810183905233917f2f1a7fda57b5fd5cb62770aebd7fc9a8a0a834c5ff558eb7562f85f2b28c4375910160405180910390a2505050505050565b6006546001600160a01b031633146117a15760405162461bcd60e51b815260040161104b90612684565b60648111156117ee5760405162461bcd60e51b8152602060048201526019602482015278736574506172616d733a2066656520697320746f6f2062696760381b604482015260640161104b565b60148210156118385760405162461bcd60e51b81526020600482015260166024820152751cd95d14185c985b5cce8810481d1bdbc81cdb585b1b60521b604482015260640161104b565b60c88211156118805760405162461bcd60e51b8152602060048201526014602482015273736574506172616d733a204120746f6f2062696760601b604482015260640161104b565b6004819055600582905560408051838152602081018390527f3d5244a9b2f415f6ebc57f5d8ca058f82b1561d1cbf0c010ab3e4a8773c1f6b5910160405180910390a15050565b6006546001600160a01b031633146118f15760405162461bcd60e51b815260040161104b90612684565b6001600160a01b0381166119615760405162461bcd60e51b815260206004820152603160248201527f4f776e61626c653a206e657720422e50726f746f636f6c206f776e657220697360448201527020746865207a65726f206164647265737360781b606482015260840161104b565b600680546001600160a01b038381166001600160a01b0319831681179093556040519116919082907f8be0079c531659141344cd1fd0a4f28419497f9722a3daafe3b4186f6b6457e090600090a35050565b6000831580156119c1575082155b156119ce5750600061129e565b60006119da8486612417565b905060005b60ff811015611b1557816119f487600261242a565b6119ff906001612417565b611a09848361242a565b611a139190612441565b9050611a2086600261242a565b611a2b906001612417565b611a35848361242a565b611a3f9190612441565b905082600081611a5084600261242a565b611a5a8a8c612417565b611a658a600261242a565b611a6f919061242a565b611a799190612417565b611a83919061242a565b90506000856001611a958a600261242a565b611a9f9190612463565b611aa9919061242a565b9050611ab684600361242a565b611ac09082612417565b611aca9083612441565b9550611ad7836001612417565b8611158015611af05750611aec866001612417565b8311155b15611afe5750505050611b15565b505050508080611b0d90612476565b9150506119df565b50949350505050565b6002546001600160a01b03163314611b485760405162461bcd60e51b815260040161104b906126cf565b6003546001600160a01b031615611bab5760405162461bcd60e51b815260206004820152602160248201527f7365743a2070726963652061676772656761746f7220616c72656164792073656044820152601d60fa1b606482015260840161104b565b611bb4816120dc565b600380546001600160a01b0319166001600160a01b0392909216919091179055565b6002546001600160a01b03163314611c005760405162461bcd60e51b815260040161104b906126cf565b6001600160a01b038116611c655760405162461bcd60e51b815260206004820152602660248201527f4f776e61626c653a206e6577206f776e657220697320746865207a65726f206160448201526564647265737360d01b606482015260840161104b565b611c6e81612185565b50565b600082611c7d81612476565b9350611c8f90506305f5e10085612417565b935083611c9c848761242a565b611ca69190612441565b9050818015611cc857508483611cbc868461242a565b611cc69190612441565b105b156108c957806112d181612476565b8015611d215780600080828254611cee9190612463565b90915550506001600160a01b03821660009081526001602052604081208054839290611d1b908490612463565b90915550505b6040518181527fb20101a10c7cc8d4a9b5accf3d34c34f89d53ec195fce51620af16429526c7559060200160405180910390a16040518181526000906001600160a01b038416907fddf252ad1be2c89b69c2b068fc378daa952ba7f163c4a11628f55a4df523b3ef906020015b60405180910390a35050565b6001600160a01b038316611e46576000826001600160a01b03168260405160006040518083038185875af1925050503d8060008114611df5576040519150601f19603f3d011682016040523d82523d6000602084013e611dfa565b606091505b5050905080611e405760405162461bcd60e51b815260206004820152601260248201527114d95b991a5b99c81155120819985a5b195960721b604482015260640161104b565b50505050565b60405163a9059cbb60e01b81526000906001600160a01b0385169063a9059cbb90611e77908690869060040161262a565b6020604051808303816000875af1158015611e96573d6000803e3d6000fd5b505050506040513d601f19601f82011682018060405250810190611eba9190612643565b905080611e405760405162461bcd60e51b815260206004820152601960248201527814d95b991a5b99c818dbdb1b185d195c985b0819985a5b1959603a1b604482015260640161104b565b6000612710821315611f595760405162461bcd60e51b815260206004820152601a60248201527f7265647563654270733a206270732065786365656473206d6178000000000000604482015260640161104b565b61270f19821215611fac5760405162461bcd60e51b815260206004820152601a60248201527f7265647563654270733a206270732065786365656473206d696e000000000000604482015260640161104b565b612710611fb98382612704565b611fc3908561242a565b611fcd9190612441565b90505b92915050565b600082611fe281612476565b9350611ff490506305f5e10085612417565b935082612001858761242a565b61200b9190612441565b9050818015611cc857508484611cbc858461242a565b801561206b57806000808282546120389190612417565b90915550506001600160a01b03821660009081526001602052604081208054839290612065908490612417565b90915550505b6040518181527f858d2e17a8121c939a8c52f6821c748d2592cc8ecd8e6afcda3fc4c84248002f9060200160405180910390a16040518181526001600160a01b038316906000907fddf252ad1be2c89b69c2b068fc378daa952ba7f163c4a11628f55a4df523b3ef90602001611d8e565b6001600160a01b0381166121325760405162461bcd60e51b815260206004820152601e60248201527f4163636f756e742063616e6e6f74206265207a65726f20616464726573730000604482015260640161104b565b803b806121815760405162461bcd60e51b815260206004820181905260248201527f4163636f756e7420636f64652073697a652063616e6e6f74206265207a65726f604482015260640161104b565b5050565b600280546001600160a01b038381166001600160a01b0319831681179093556040519116919082907f8be0079c531659141344cd1fd0a4f28419497f9722a3daafe3b4186f6b6457e090600090a35050565b600080600080608085870312156121ed57600080fd5b5050823594602084013594506040840135936060013592509050565b600060208083528351808285015260005b818110156122365785810183015185820160400152820161221a565b506000604082860101526040601f19601f8301168501019250505092915050565b6001600160a01b0381168114611c6e57600080fd5b60006020828403121561227e57600080fd5b813561129e81612257565b60006020828403121561229b57600080fd5b5035919050565b6001600160a01b0391909116815260200190565b8015158114611c6e57600080fd5b60008060008060008060c087890312156122dd57600080fd5b86356122e881612257565b95506020870135945060408701356122ff81612257565b9350606087013561230f81612257565b92506080870135915060a0870135612326816122b6565b809150509295509295509295565b60008060006060848603121561234957600080fd5b8335925060208401359150604084013561236281612257565b809150509250925092565b6000806000806080858703121561238357600080fd5b843561238e81612257565b9350602085013561239e81612257565b93969395505050506040820135916060013590565b600080604083850312156123c657600080fd5b50508035926020909101359150565b6000806000606084860312156123ea57600080fd5b505081359360208301359350604090920135919050565b634e487b7160e01b600052601160045260246000fd5b80820180821115611fd057611fd0612401565b8082028115828204841417611fd057611fd0612401565b60008261245e57634e487b7160e01b600052601260045260246000fd5b500490565b81810381811115611fd057611fd0612401565b60006001820161248857612488612401565b5060010190565b6000602082840312156124a157600080fd5b815160ff8116811461129e57600080fd5b805169ffffffffffffffffffff811681146124cc57600080fd5b919050565b600080600080600060a086880312156124e957600080fd5b6124f2866124b2565b9450602086015193506040860151925060608601519150612515608087016124b2565b90509295509295909350565b600181815b8085111561255c57816000190482111561254257612542612401565b8085161561254f57918102915b93841c9390800290612526565b509250929050565b60008261257357506001611fd0565b8161258057506000611fd0565b816001811461259657600281146125a0576125bc565b6001915050611fd0565b60ff8411156125b1576125b1612401565b50506001821b611fd0565b5060208310610133831016604e8410600b84101617156125df575081810a611fd0565b6125e98383612521565b80600019048211156125fd576125fd612401565b029392505050565b6000611fcd8383612564565b60006020828403121561262357600080fd5b5051919050565b6001600160a01b03929092168252602082015260400190565b60006020828403121561265557600080fd5b815161129e816122b6565b6001600160a01b039384168152919092166020820152604081019190915260600190565b6020808252602b908201527f4f776e61626c653a2063616c6c6572206973206e6f742074686520422e50726f60408201526a3a37b1b7b61037bbb732b960a91b606082015260800190565b6020808252818101527f4f776e61626c653a2063616c6c6572206973206e6f7420746865206f776e6572604082015260600190565b808201828112600083128015821682158216171561272457612724612401565b50509291505056fea264697066735822122072f922c068ee4729942600f0e673fe981fc31d4a8e6e53f1b935050c24341ac464736f6c63430008110033",
  "linkReferences": {},
  "deployedLinkReferences": {}
}