{
  "_format": "hh-sol-artifact-1",
  "contractName": "BaseMath",
  "sourceName": "contracts/Dependencies/BaseMath.sol",
  "abi": [
    {
      "inputs": [],
      "name": "DECIMAL_PRECISION",
      "outputs": [
        {
          "internalType": "uint256",
          "name": "",
          "type": "uint256"
        }
      ],
      "stateMutability": "view",
      "type": "function"
    }
  ],
  "bytecode": "0x6080604052348015600f57600080fd5b5060838061001e6000396000f3fe6080604052348015600f57600080fd5b506004361060285760003560e01c8063a20baee614602d575b600080fd5b603b670de0b6b3a764000081565b60405190815260200160405180910390f3fea2646970667358221220187615b494b8ad06b770800506d827bc90d9d993456e868811285121391e3ec764736f6c63430008110033",
  "linkReferences": {},
  "deployedLinkReferences": {}
}