{
  "_format": "hh-sol-artifact-1",
  "contractName": "BLens",
  "sourceName": "contracts/B.Protocol/BLens.sol",
  "abi": [
    {
      "inputs": [
        {
          "internalType": "address",
          "name": "user",
          "type": "address"
        },
        {
          "internalType": "contract BAMM",
          "name": "bamm",
          "type": "address"
        }
      ],
      "name": "getUserInfo",
      "outputs": [
        {
          "components": [
            {
              "internalType": "uint256",
              "name": "bammUserBalance",
              "type": "uint256"
            },
            {
              "internalType": "uint256",
              "name": "bammTotalSupply",
              "type": "uint256"
            },
            {
              "internalType": "uint256",
              "name": "thusdUserBalance",
              "type": "uint256"
            },
            {
              "internalType": "uint256",
              "name": "collateralUserBalance",
              "type": "uint256"
            },
            {
              "internalType": "uint256",
              "name": "thusdTotal",
              "type": "uint256"
            },
            {
              "internalType": "uint256",
              "name": "collateralTotal",
              "type": "uint256"
            }
          ],
          "internalType": "struct BLens.UserInfo",
          "name": "info",
          "type": "tuple"
        }
      ],
      "stateMutability": "view",
      "type": "function"
    }
  ],
  "bytecode": "0x608060405234801561001057600080fd5b50610453806100206000396000f3fe608060405234801561001057600080fd5b506004361061002b5760003560e01c8063f2801fe714610030575b600080fd5b61004361003e36600461035a565b610098565b60405161008f9190600060c082019050825182526020830151602083015260408301516040830152606083015160608301526080830151608083015260a083015160a083015292915050565b60405180910390f35b6100d16040518060c001604052806000815260200160008152602001600081526020016000815260200160008152602001600081525090565b6040516370a0823160e01b81526001600160a01b0384811660048301528316906370a0823190602401602060405180830381865afa158015610117573d6000803e3d6000fd5b505050506040513d601f19601f8201168201806040525081019061013b9190610393565b816000018181525050816001600160a01b03166318160ddd6040518163ffffffff1660e01b8152600401602060405180830381865afa158015610182573d6000803e3d6000fd5b505050506040513d601f19601f820116820180604052508101906101a69190610393565b8160200181815250506000826001600160a01b0316634426ebd06040518163ffffffff1660e01b8152600401602060405180830381865afa1580156101ef573d6000803e3d6000fd5b505050506040513d601f19601f8201168201806040525081019061021391906103ac565b604051635205a47960e01b81526001600160a01b03858116600483015291925090821690635205a47990602401602060405180830381865afa15801561025d573d6000803e3d6000fd5b505050506040513d601f19601f820116820180604052508101906102819190610393565b826080018181525050826001600160a01b0316631529a6396040518163ffffffff1660e01b8152600401602060405180830381865afa1580156102c8573d6000803e3d6000fd5b505050506040513d601f19601f820116820180604052508101906102ec9190610393565b60a083015260208201518251608084015161030791906103d0565b61031191906103fb565b60408301526020820151825160a084015161032c91906103d0565b61033691906103fb565b60608301525092915050565b6001600160a01b038116811461035757600080fd5b50565b6000806040838503121561036d57600080fd5b823561037881610342565b9150602083013561038881610342565b809150509250929050565b6000602082840312156103a557600080fd5b5051919050565b6000602082840312156103be57600080fd5b81516103c981610342565b9392505050565b80820281158282048414176103f557634e487b7160e01b600052601160045260246000fd5b92915050565b60008261041857634e487b7160e01b600052601260045260246000fd5b50049056fea26469706673582212204975381f5d183bf0c5d81be84e9c511a46cfa6029b34c6aae02f63519f3b620264736f6c63430008110033",
  "linkReferences": {},
  "deployedLinkReferences": {}
}