{
  "_format": "hh-sol-artifact-1",
  "contractName": "BorrowerOperations",
  "sourceName": "contracts/BorrowerOperations.sol",
  "abi": [
    {
      "anonymous": false,
      "inputs": [
        {
          "indexed": false,
          "internalType": "address",
          "name": "_activePoolAddress",
          "type": "address"
        }
      ],
      "name": "ActivePoolAddressChanged",
      "type": "event"
    },
    {
      "anonymous": false,
      "inputs": [
        {
          "indexed": false,
          "internalType": "address",
          "name": "_collSurplusPoolAddress",
          "type": "address"
        }
      ],
      "name": "CollSurplusPoolAddressChanged",
      "type": "event"
    },
    {
      "anonymous": false,
      "inputs": [
        {
          "indexed": false,
          "internalType": "address",
          "name": "_newCollateralAddress",
          "type": "address"
        }
      ],
      "name": "CollateralAddressChanged",
      "type": "event"
    },
    {
      "anonymous": false,
      "inputs": [
        {
          "indexed": false,
          "internalType": "address",
          "name": "_defaultPoolAddress",
          "type": "address"
        }
      ],
      "name": "DefaultPoolAddressChanged",
      "type": "event"
    },
    {
      "anonymous": false,
      "inputs": [
        {
          "indexed": false,
          "internalType": "address",
          "name": "_gasPoolAddress",
          "type": "address"
        }
      ],
      "name": "GasPoolAddressChanged",
      "type": "event"
    },
    {
      "anonymous": false,
      "inputs": [
        {
          "indexed": true,
          "internalType": "address",
          "name": "previousOwner",
          "type": "address"
        },
        {
          "indexed": true,
          "internalType": "address",
          "name": "newOwner",
          "type": "address"
        }
      ],
      "name": "OwnershipTransferred",
      "type": "event"
    },
    {
      "anonymous": false,
      "inputs": [
        {
          "indexed": false,
          "internalType": "address",
          "name": "_pcvAddress",
          "type": "address"
        }
      ],
      "name": "PCVAddressChanged",
      "type": "event"
    },
    {
      "anonymous": false,
      "inputs": [
        {
          "indexed": false,
          "internalType": "address",
          "name": "_newPriceFeedAddress",
          "type": "address"
        }
      ],
      "name": "PriceFeedAddressChanged",
      "type": "event"
    },
    {
      "anonymous": false,
      "inputs": [
        {
          "indexed": false,
          "internalType": "address",
          "name": "_sortedTrovesAddress",
          "type": "address"
        }
      ],
      "name": "SortedTrovesAddressChanged",
      "type": "event"
    },
    {
      "anonymous": false,
      "inputs": [
        {
          "indexed": false,
          "internalType": "address",
          "name": "_stabilityPoolAddress",
          "type": "address"
        }
      ],
      "name": "StabilityPoolAddressChanged",
      "type": "event"
    },
    {
      "anonymous": false,
      "inputs": [
        {
          "indexed": true,
          "internalType": "address",
          "name": "_borrower",
          "type": "address"
        },
        {
          "indexed": false,
          "internalType": "uint256",
          "name": "_THUSDFee",
          "type": "uint256"
        }
      ],
      "name": "THUSDBorrowingFeePaid",
      "type": "event"
    },
    {
      "anonymous": false,
      "inputs": [
        {
          "indexed": false,
          "internalType": "address",
          "name": "_thusdTokenAddress",
          "type": "address"
        }
      ],
      "name": "THUSDTokenAddressChanged",
      "type": "event"
    },
    {
      "anonymous": false,
      "inputs": [
        {
          "indexed": true,
          "internalType": "address",
          "name": "_borrower",
          "type": "address"
        },
        {
          "indexed": false,
          "internalType": "uint256",
          "name": "arrayIndex",
          "type": "uint256"
        }
      ],
      "name": "TroveCreated",
      "type": "event"
    },
    {
      "anonymous": false,
      "inputs": [
        {
          "indexed": false,
          "internalType": "address",
          "name": "_newTroveManagerAddress",
          "type": "address"
        }
      ],
      "name": "TroveManagerAddressChanged",
      "type": "event"
    },
    {
      "anonymous": false,
      "inputs": [
        {
          "indexed": true,
          "internalType": "address",
          "name": "_borrower",
          "type": "address"
        },
        {
          "indexed": false,
          "internalType": "uint256",
          "name": "_debt",
          "type": "uint256"
        },
        {
          "indexed": false,
          "internalType": "uint256",
          "name": "_coll",
          "type": "uint256"
        },
        {
          "indexed": false,
          "internalType": "uint256",
          "name": "stake",
          "type": "uint256"
        },
        {
          "indexed": false,
          "internalType": "enum BorrowerOperations.BorrowerOperation",
          "name": "operation",
          "type": "uint8"
        }
      ],
      "name": "TroveUpdated",
      "type": "event"
    },
    {
      "inputs": [],
      "name": "BORROWING_FEE_FLOOR",
      "outputs": [
        {
          "internalType": "uint256",
          "name": "",
          "type": "uint256"
        }
      ],
      "stateMutability": "view",
      "type": "function"
    },
    {
      "inputs": [],
      "name": "CCR",
      "outputs": [
        {
          "internalType": "uint256",
          "name": "",
          "type": "uint256"
        }
      ],
      "stateMutability": "view",
      "type": "function"
    },
    {
      "inputs": [],
      "name": "DECIMAL_PRECISION",
      "outputs": [
        {
          "internalType": "uint256",
          "name": "",
          "type": "uint256"
        }
      ],
      "stateMutability": "view",
      "type": "function"
    },
    {
      "inputs": [],
      "name": "MCR",
      "outputs": [
        {
          "internalType": "uint256",
          "name": "",
          "type": "uint256"
        }
      ],
      "stateMutability": "view",
      "type": "function"
    },
    {
      "inputs": [],
      "name": "MIN_NET_DEBT",
      "outputs": [
        {
          "internalType": "uint256",
          "name": "",
          "type": "uint256"
        }
      ],
      "stateMutability": "view",
      "type": "function"
    },
    {
      "inputs": [],
      "name": "NAME",
      "outputs": [
        {
          "internalType": "string",
          "name": "",
          "type": "string"
        }
      ],
      "stateMutability": "view",
      "type": "function"
    },
    {
      "inputs": [],
      "name": "PERCENT_DIVISOR",
      "outputs": [
        {
          "internalType": "uint256",
          "name": "",
          "type": "uint256"
        }
      ],
      "stateMutability": "view",
      "type": "function"
    },
    {
      "inputs": [],
      "name": "THUSD_GAS_COMPENSATION",
      "outputs": [
        {
          "internalType": "uint256",
          "name": "",
          "type": "uint256"
        }
      ],
      "stateMutability": "view",
      "type": "function"
    },
    {
      "inputs": [],
      "name": "_100pct",
      "outputs": [
        {
          "internalType": "uint256",
          "name": "",
          "type": "uint256"
        }
      ],
      "stateMutability": "view",
      "type": "function"
    },
    {
      "inputs": [],
      "name": "activePool",
      "outputs": [
        {
          "internalType": "contract IActivePool",
          "name": "",
          "type": "address"
        }
      ],
      "stateMutability": "view",
      "type": "function"
    },
    {
      "inputs": [
        {
          "internalType": "uint256",
          "name": "_assetAmount",
          "type": "uint256"
        },
        {
          "internalType": "address",
          "name": "_upperHint",
          "type": "address"
        },
        {
          "internalType": "address",
          "name": "_lowerHint",
          "type": "address"
        }
      ],
      "name": "addColl",
      "outputs": [],
      "stateMutability": "payable",
      "type": "function"
    },
    {
      "inputs": [
        {
          "internalType": "uint256",
          "name": "_maxFeePercentage",
          "type": "uint256"
        },
        {
          "internalType": "uint256",
          "name": "_collWithdrawal",
          "type": "uint256"
        },
        {
          "internalType": "uint256",
          "name": "_THUSDChange",
          "type": "uint256"
        },
        {
          "internalType": "bool",
          "name": "_isDebtIncrease",
          "type": "bool"
        },
        {
          "internalType": "uint256",
          "name": "_assetAmount",
          "type": "uint256"
        },
        {
          "internalType": "address",
          "name": "_upperHint",
          "type": "address"
        },
        {
          "internalType": "address",
          "name": "_lowerHint",
          "type": "address"
        }
      ],
      "name": "adjustTrove",
      "outputs": [],
      "stateMutability": "payable",
      "type": "function"
    },
    {
      "inputs": [
        {
          "internalType": "uint256",
          "name": "_thusdToBurn",
          "type": "uint256"
        }
      ],
      "name": "burnDebtFromPCV",
      "outputs": [],
      "stateMutability": "nonpayable",
      "type": "function"
    },
    {
      "inputs": [],
      "name": "claimCollateral",
      "outputs": [],
      "stateMutability": "nonpayable",
      "type": "function"
    },
    {
      "inputs": [],
      "name": "closeTrove",
      "outputs": [],
      "stateMutability": "nonpayable",
      "type": "function"
    },
    {
      "inputs": [],
      "name": "collateralAddress",
      "outputs": [
        {
          "internalType": "address",
          "name": "",
          "type": "address"
        }
      ],
      "stateMutability": "view",
      "type": "function"
    },
    {
      "inputs": [],
      "name": "defaultPool",
      "outputs": [
        {
          "internalType": "contract IDefaultPool",
          "name": "",
          "type": "address"
        }
      ],
      "stateMutability": "view",
      "type": "function"
    },
    {
      "inputs": [],
      "name": "gasPoolAddress",
      "outputs": [
        {
          "internalType": "address",
          "name": "",
          "type": "address"
        }
      ],
      "stateMutability": "view",
      "type": "function"
    },
    {
      "inputs": [
        {
          "internalType": "uint256",
          "name": "_debt",
          "type": "uint256"
        }
      ],
      "name": "getCompositeDebt",
      "outputs": [
        {
          "internalType": "uint256",
          "name": "",
          "type": "uint256"
        }
      ],
      "stateMutability": "pure",
      "type": "function"
    },
    {
      "inputs": [],
      "name": "getEntireSystemColl",
      "outputs": [
        {
          "internalType": "uint256",
          "name": "entireSystemColl",
          "type": "uint256"
        }
      ],
      "stateMutability": "view",
      "type": "function"
    },
    {
      "inputs": [],
      "name": "getEntireSystemDebt",
      "outputs": [
        {
          "internalType": "uint256",
          "name": "entireSystemDebt",
          "type": "uint256"
        }
      ],
      "stateMutability": "view",
      "type": "function"
    },
    {
      "inputs": [],
      "name": "isOwner",
      "outputs": [
        {
          "internalType": "bool",
          "name": "",
          "type": "bool"
        }
      ],
      "stateMutability": "view",
      "type": "function"
    },
    {
      "inputs": [
        {
          "internalType": "uint256",
          "name": "_thusdToMint",
          "type": "uint256"
        }
      ],
      "name": "mintBootstrapLoanFromPCV",
      "outputs": [],
      "stateMutability": "nonpayable",
      "type": "function"
    },
    {
      "inputs": [
        {
          "internalType": "address",
          "name": "_borrower",
          "type": "address"
        },
        {
          "internalType": "uint256",
          "name": "_assetAmount",
          "type": "uint256"
        },
        {
          "internalType": "address",
          "name": "_upperHint",
          "type": "address"
        },
        {
          "internalType": "address",
          "name": "_lowerHint",
          "type": "address"
        }
      ],
      "name": "moveCollateralGainToTrove",
      "outputs": [],
      "stateMutability": "payable",
      "type": "function"
    },
    {
      "inputs": [
        {
          "internalType": "uint256",
          "name": "_maxFeePercentage",
          "type": "uint256"
        },
        {
          "internalType": "uint256",
          "name": "_THUSDAmount",
          "type": "uint256"
        },
        {
          "internalType": "uint256",
          "name": "_assetAmount",
          "type": "uint256"
        },
        {
          "internalType": "address",
          "name": "_upperHint",
          "type": "address"
        },
        {
          "internalType": "address",
          "name": "_lowerHint",
          "type": "address"
        }
      ],
      "name": "openTrove",
      "outputs": [],
      "stateMutability": "payable",
      "type": "function"
    },
    {
      "inputs": [],
      "name": "owner",
      "outputs": [
        {
          "internalType": "address",
          "name": "",
          "type": "address"
        }
      ],
      "stateMutability": "view",
      "type": "function"
    },
    {
      "inputs": [],
      "name": "pcv",
      "outputs": [
        {
          "internalType": "contract IPCV",
          "name": "",
          "type": "address"
        }
      ],
      "stateMutability": "view",
      "type": "function"
    },
    {
      "inputs": [],
      "name": "pcvAddress",
      "outputs": [
        {
          "internalType": "address",
          "name": "",
          "type": "address"
        }
      ],
      "stateMutability": "view",
      "type": "function"
    },
    {
      "inputs": [],
      "name": "priceFeed",
      "outputs": [
        {
          "internalType": "contract IPriceFeed",
          "name": "",
          "type": "address"
        }
      ],
      "stateMutability": "view",
      "type": "function"
    },
    {
      "inputs": [
        {
          "internalType": "uint256",
          "name": "_THUSDAmount",
          "type": "uint256"
        },
        {
          "internalType": "address",
          "name": "_upperHint",
          "type": "address"
        },
        {
          "internalType": "address",
          "name": "_lowerHint",
          "type": "address"
        }
      ],
      "name": "repayTHUSD",
      "outputs": [],
      "stateMutability": "nonpayable",
      "type": "function"
    },
    {
      "inputs": [
        {
          "internalType": "address",
          "name": "_troveManagerAddress",
          "type": "address"
        },
        {
          "internalType": "address",
          "name": "_activePoolAddress",
          "type": "address"
        },
        {
          "internalType": "address",
          "name": "_defaultPoolAddress",
          "type": "address"
        },
        {
          "internalType": "address",
          "name": "_stabilityPoolAddress",
          "type": "address"
        },
        {
          "internalType": "address",
          "name": "_gasPoolAddress",
          "type": "address"
        },
        {
          "internalType": "address",
          "name": "_collSurplusPoolAddress",
          "type": "address"
        },
        {
          "internalType": "address",
          "name": "_priceFeedAddress",
          "type": "address"
        },
        {
          "internalType": "address",
          "name": "_sortedTrovesAddress",
          "type": "address"
        },
        {
          "internalType": "address",
          "name": "_thusdTokenAddress",
          "type": "address"
        },
        {
          "internalType": "address",
          "name": "_pcvAddress",
          "type": "address"
        },
        {
          "internalType": "address",
          "name": "_collateralAddress",
          "type": "address"
        }
      ],
      "name": "setAddresses",
      "outputs": [],
      "stateMutability": "nonpayable",
      "type": "function"
    },
    {
      "inputs": [],
      "name": "sortedTroves",
      "outputs": [
        {
          "internalType": "contract ISortedTroves",
          "name": "",
          "type": "address"
        }
      ],
      "stateMutability": "view",
      "type": "function"
    },
    {
      "inputs": [],
      "name": "stabilityPoolAddress",
      "outputs": [
        {
          "internalType": "address",
          "name": "",
          "type": "address"
        }
      ],
      "stateMutability": "view",
      "type": "function"
    },
    {
      "inputs": [],
      "name": "thusdToken",
      "outputs": [
        {
          "internalType": "contract ITHUSDToken",
          "name": "",
          "type": "address"
        }
      ],
      "stateMutability": "view",
      "type": "function"
    },
    {
      "inputs": [
        {
          "internalType": "address",
          "name": "newOwner",
          "type": "address"
        }
      ],
      "name": "transferOwnership",
      "outputs": [],
      "stateMutability": "nonpayable",
      "type": "function"
    },
    {
      "inputs": [],
      "name": "troveManager",
      "outputs": [
        {
          "internalType": "contract ITroveManager",
          "name": "",
          "type": "address"
        }
      ],
      "stateMutability": "view",
      "type": "function"
    },
    {
      "inputs": [
        {
          "internalType": "uint256",
          "name": "_collWithdrawal",
          "type": "uint256"
        },
        {
          "internalType": "address",
          "name": "_upperHint",
          "type": "address"
        },
        {
          "internalType": "address",
          "name": "_lowerHint",
          "type": "address"
        }
      ],
      "name": "withdrawColl",
      "outputs": [],
      "stateMutability": "nonpayable",
      "type": "function"
    },
    {
      "inputs": [
        {
          "internalType": "uint256",
          "name": "_maxFeePercentage",
          "type": "uint256"
        },
        {
          "internalType": "uint256",
          "name": "_THUSDAmount",
          "type": "uint256"
        },
        {
          "internalType": "address",
          "name": "_upperHint",
          "type": "address"
        },
        {
          "internalType": "address",
          "name": "_lowerHint",
          "type": "address"
        }
      ],
      "name": "withdrawTHUSD",
      "outputs": [],
      "stateMutability": "nonpayable",
      "type": "function"
    }
  ],
  "bytecode": "0x608060405234801561001057600080fd5b50600380546001600160a01b031916339081179091556040516000907f8be0079c531659141344cd1fd0a4f28419497f9722a3daafe3b4186f6b6457e0908290a36139fb806100606000396000f3fe6080604052600436106102055760003560e01c80637985c5e411610113578063a3f4df7e116100ab578063bd59121e1161006f578063bd59121e146105f4578063d56d6bbe14610614578063f2fde38b14610627578063f92d343314610647578063fe9d03231461065c57600080fd5b8063a3f4df7e14610536578063abfad25d14610581578063ae91875414610594578063ae9d445c146105b4578063b064b0b7146105d457600080fd5b80637985c5e4146104525780637f7dde4a14610472578063877eb17914610492578063887105d3146104b25780638da5cb5b146104c75780638e54c119146104e55780638f09162b146104f85780638f32d59b1461050b578063a20baee6146103c557600080fd5b806348d399e7116101a157806372fe25aa1161016557806372fe25aa146103c5578063741bef1a146103e157806377e16f1e14610401578063794e572414610421578063795d26c31461043d57600080fd5b806348d399e7146103345780634ff81443146103545780635530273c146103745780635733d58f146103945780636f0b0c1c146103b057600080fd5b80630b622ab21461020a5780630e704d50146102405780631bf43555146102575780631fd6a434146102825780633cc742251461029f5780633d83908a146102bf5780633db008c7146102df5780634597f6ed146102ff5780634870dd9a1461031f575b600080fd5b34801561021657600080fd5b5060085461022a906001600160a01b031681565b60405161023791906134e3565b60405180910390f35b34801561024c57600080fd5b5061025561067c565b005b34801561026357600080fd5b50610274686194049f30f720000081565b604051908152602001610237565b34801561028e57600080fd5b50610274680ad78ebc5ac620000081565b3480156102ab57600080fd5b5060015461022a906001600160a01b031681565b3480156102cb57600080fd5b5060045461022a906001600160a01b031681565b3480156102eb57600080fd5b5060075461022a906001600160a01b031681565b34801561030b57600080fd5b50600a5461022a906001600160a01b031681565b34801561032b57600080fd5b5061027460c881565b34801561034057600080fd5b5060055461022a906001600160a01b031681565b34801561036057600080fd5b5061027461036f3660046134f7565b610aaa565b34801561038057600080fd5b5061025561038f36600461352c565b610abb565b3480156103a057600080fd5b506102746714d1120d7b16000081565b3480156103bc57600080fd5b50610255610ad3565b3480156103d157600080fd5b50610274670de0b6b3a764000081565b3480156103ed57600080fd5b5060025461022a906001600160a01b031681565b34801561040d57600080fd5b50600b5461022a906001600160a01b031681565b34801561042d57600080fd5b50610274670f43fc2c04ee000081565b34801561044957600080fd5b50610274610b37565b34801561045e57600080fd5b5061025561046d366004613568565b610c33565b34801561047e57600080fd5b5060005461022a906001600160a01b031681565b34801561049e57600080fd5b506102556104ad366004613634565b610ff9565b3480156104be57600080fd5b5061027461100c565b3480156104d357600080fd5b506003546001600160a01b031661022a565b6102556104f3366004613688565b6110d1565b6102556105063660046136f4565b6110f5565b34801561051757600080fd5b506003546001600160a01b031633146040519015158152602001610237565b34801561054257600080fd5b5061057460405180604001604052806012815260200171426f72726f7765724f7065726174696f6e7360701b81525081565b6040516102379190613744565b61025561058f366004613792565b6116ea565b3480156105a057600080fd5b50600c5461022a906001600160a01b031681565b3480156105c057600080fd5b506102556105cf3660046134f7565b611710565b3480156105e057600080fd5b506102556105ef3660046134f7565b6117a5565b34801561060057600080fd5b5061025561060f36600461352c565b611805565b61025561062236600461352c565b611818565b34801561063357600080fd5b506102556106423660046137c6565b611836565b34801561065357600080fd5b506102746118d1565b34801561066857600080fd5b5060065461022a906001600160a01b031681565b6004805460008054600b54604051635f7a196360e11b81526001600160a01b0394851695928516949091169291839163bef432c6916106bd913091016134e3565b602060405180830381865afa1580156106da573d6000803e3d6000fd5b505050506040513d601f19601f820116820180604052508101906106fe91906137e1565b905061070a84336118f3565b60025460408051630fdb11cf60e01b815290516000926001600160a01b031691630fdb11cf916004808301926020929190829003018187875af1158015610755573d6000803e3d6000fd5b505050506040513d601f19601f8201168201806040525081019061077991906137fe565b9050811561078a5761078a816119cc565b604051630b07655760e01b81526001600160a01b03861690630b076557906107b69033906004016134e3565b600060405180830381600087803b1580156107d057600080fd5b505af11580156107e4573d6000803e3d6000fd5b50506040516309019aaf60e31b8152600092506001600160a01b038816915063480cd578906108179033906004016134e3565b602060405180830381865afa158015610834573d6000803e3d6000fd5b505050506040513d601f19601f8201168201806040525081019061085891906137fe565b90506000866001600160a01b031663d66a2553336040518263ffffffff1660e01b815260040161088891906134e3565b602060405180830381865afa1580156108a5573d6000803e3d6000fd5b505050506040513d601f19601f820116820180604052508101906108c991906137fe565b90506108e885336108e3680ad78ebc5ac62000008561382d565b611a44565b831561090c5760006108ff83600084600088611b27565b905061090a81611b9c565b505b604051631fc5750960e31b81526001600160a01b0388169063fe2ba848906109389033906004016134e3565b600060405180830381600087803b15801561095257600080fd5b505af1158015610966573d6000803e3d6000fd5b50506040516365e89c5760e11b81526001600160a01b038a16925063cbd138ae91506109969033906004016134e3565b600060405180830381600087803b1580156109b057600080fd5b505af11580156109c4573d6000803e3d6000fd5b50505050336001600160a01b03166000805160206139a6833981519152600080600060016040516109f89493929190613862565b60405180910390a2610a1e868633610a19680ad78ebc5ac62000008661382d565b611c2c565b600654610a4190879087906001600160a01b0316680ad78ebc5ac6200000611c2c565b604051636250216960e01b81526001600160a01b03871690636250216990610a6f9033908690600401613884565b600060405180830381600087803b158015610a8957600080fd5b505af1158015610a9d573d6000803e3d6000fd5b5050505050505050505050565b6000610ab582611cec565b92915050565b610ace3384600080600087876000611d01565b505050565b60095460405163b32beb5b60e01b81526001600160a01b039091169063b32beb5b90610b039033906004016134e3565b600060405180830381600087803b158015610b1d57600080fd5b505af1158015610b31573d6000803e3d6000fd5b50505050565b600080546040805163f07424e960e01b8152905183926001600160a01b03169163f07424e99160048083019260209291908290030181865afa158015610b81573d6000803e3d6000fd5b505050506040513d601f19601f82011682018060405250810190610ba591906137fe565b90506000600160009054906101000a90046001600160a01b03166001600160a01b031663f07424e96040518163ffffffff1660e01b8152600401602060405180830381865afa158015610bfc573d6000803e3d6000fd5b505050506040513d601f19601f82011682018060405250810190610c2091906137fe565b9050610c2c818361389d565b9250505090565b6003546001600160a01b03163314610c665760405162461bcd60e51b8152600401610c5d906138b0565b60405180910390fd5b610c6f8b6122db565b610c788a6122db565b610c81896122db565b610c8a886122db565b610c93876122db565b610c9c866122db565b610ca5856122db565b610cae846122db565b610cb7836122db565b6001600160a01b03821615610ccf57610ccf826122db565b6001600160a01b03811615610ce757610ce7816122db565b600480546001600160a01b03199081166001600160a01b038e8116919091179092556000805482168d84161790556001805482168c84161790556008805482168b84161790556006805482168a8416179055600980548216898416179055600280548216888416179055600c80548216878416179055600b80548216868416179055600780548216858416908117909155600a805483169091179055600580549091169183169190911790556040517f143219c9e69b09e07e095fcc889b43d8f46ca892bba65f08dc3a0050869a567890610dc3908d906134e3565b60405180910390a17f78f058b189175430c48dc02699e3a0031ea4ff781536dc2fab847de4babdd8828a604051610dfa91906134e3565b60405180910390a17f5ee0cae2f063ed938bb55046f6a932fb6ae792bf43624806bb90abe68a50be9b89604051610e3191906134e3565b60405180910390a17f82966d27eea39b038ee0fa30cd16532bb24f6e65d31cb58fb227aa5766cdcc7f88604051610e6891906134e3565b60405180910390a17fcfb07d791fcafc032b35837b50eb84b74df518cf4cc287e8084f47630fa70fa087604051610e9f91906134e3565b60405180910390a17fe67f36a6e961157d6eff83b91f3af5a62131ceb6f04954ef74f51c1c05e7f88d86604051610ed691906134e3565b60405180910390a17f8c537274438aa850a330284665d81a85dd38267d09e4050d416bfc94142db26485604051610f0d91906134e3565b60405180910390a17f65f4cf077bc01e4742eb5ad98326f6e95b63548ea24b17f8d5e823111fe7880084604051610f4491906134e3565b60405180910390a17fe1e858a66c0bbbcdfa22d58dde1e5d42370be20cdb176e560287f85412e546e083604051610f7b91906134e3565b60405180910390a17f38335c64466e2376ab931166337e19127650d842036ebe01da1ba3e5c1255ebb82604051610fb291906134e3565b60405180910390a17ffba7421f3d1a98e80d72491a6e0523133444a5842cc7310951d8b82d075a7dff81604051610fe991906134e3565b60405180910390a1610a9d612384565b610b31336000856001600087878b611d01565b6000805460408051631529a63960e01b8152905183926001600160a01b031691631529a6399160048083019260209291908290030181865afa158015611056573d6000803e3d6000fd5b505050506040513d601f19601f8201168201806040525081019061107a91906137fe565b90506000600160009054906101000a90046001600160a01b03166001600160a01b0316631529a6396040518163ffffffff1660e01b8152600401602060405180830381865afa158015610bfc573d6000803e3d6000fd5b6110da836123ce565b92506110ec338787878787878e611d01565b50505050505050565b6040805160608082018352600480546001600160a01b039081168452600080548216602080870191909152600b548316868801528651610100810188528281528082018390528088018390529485018290526080850182905260a0850182905260c0850182905260e085018290526002548751630fdb11cf60e01b8152975196979596931694630fdb11cf948181019492939183900301908290875af11580156111a3573d6000803e3d6000fd5b505050506040513d601f19601f820116820180604052508101906111c791906137fe565b8082526000906111d690612455565b90506111e28882612472565b82516111ee9033612586565b604082018790528061122a5761120e83600001518460400151898b612648565b6020830181905260408301805161122690839061389d565b9052505b6112378260400151612796565b6112448260400151611cec565b60608301819052611257576112576138e5565b611260866123ce565b95506112758683606001518460000151612815565b6080830152606082015161128a908790612849565b60a083015280156112a7576112a28260800151612880565b6112da565b6112b482608001516128f8565b60006112cd876001856060015160018760000151611b27565b90506112d881611b9c565b505b8251604051635d6b480f60e01b81526001600160a01b0390911690635d6b480f9061130c903390600190600401613884565b600060405180830381600087803b15801561132657600080fd5b505af115801561133a573d6000803e3d6000fd5b505084516040516372423c1760e01b81526001600160a01b0390911692506372423c17915061136f9033908a90600401613884565b6020604051808303816000875af115801561138e573d6000803e3d6000fd5b505050506040513d601f19601f820116820180604052508101906113b291906137fe565b5082516060830151604051639976cf4560e01b81526001600160a01b0390921691639976cf45916113e891339190600401613884565b6020604051808303816000875af1158015611407573d6000803e3d6000fd5b505050506040513d601f19601f8201168201806040525081019061142b91906137fe565b5082516040516382fe3eb960e01b81526001600160a01b03909116906382fe3eb99061145b9033906004016134e3565b600060405180830381600087803b15801561147557600080fd5b505af1158015611489573d6000803e3d6000fd5b50508451604051630c7940bd60e11b81526001600160a01b0390911692506318f2817a91506114bc9033906004016134e3565b6020604051808303816000875af11580156114db573d6000803e3d6000fd5b505050506040513d601f19601f820116820180604052508101906114ff91906137fe565b60c0830152600c5460a08301516040516346f7cf8760e01b81526001600160a01b03909216916346f7cf879161153e913391908a908a906004016138fb565b600060405180830381600087803b15801561155857600080fd5b505af115801561156c573d6000803e3d6000fd5b505084516040516315d549f160e01b81526001600160a01b0390911692506315d549f1915061159f9033906004016134e3565b6020604051808303816000875af11580156115be573d6000803e3d6000fd5b505050506040513d601f19601f820116820180604052508101906115e291906137fe565b60e0830181905260405190815233907f59cfd0cd754bc5748b6770e94a4ffa5f678d885cb899dcfadc5734edb97c67ab9060200160405180910390a261162c836020015187612988565b61164583602001518460400151338a8660400151612a12565b602083015160408401516006546116719291906001600160a01b0316680ad78ebc5ac620000080612a12565b606082015160c083015160405133926000805160206139a68339815191529261169f928b9190600090613862565b60405180910390a260208083015160405190815233917f65bd7154d79916d54881d83a1b22e14f736830d7a4995e5b97f4af8520718e22910160405180910390a25050505050505050565b6116f2612ad3565b6116fb836123ce565b9250610b318460008060008787876000611d01565b600a546001600160a01b0316331461173a5760405162461bcd60e51b8152600401610c5d90613926565b600b54600a54604051632770a7eb60e21b81526001600160a01b0392831692639dc29fac92611770929116908590600401613884565b600060405180830381600087803b15801561178a57600080fd5b505af115801561179e573d6000803e3d6000fd5b5050505050565b600a546001600160a01b031633146117cf5760405162461bcd60e51b8152600401610c5d90613926565b600b54600a546040516340c10f1960e01b81526001600160a01b03928316926340c10f1992611770929116908590600401613884565b610ace3360008560008087876000611d01565b611821836123ce565b9250610ace3360008060008787876000611d01565b6003546001600160a01b031633146118605760405162461bcd60e51b8152600401610c5d906138b0565b6001600160a01b0381166118c55760405162461bcd60e51b815260206004820152602660248201527f4f776e61626c653a206e6577206f776e657220697320746865207a65726f206160448201526564647265737360d01b6064820152608401610c5d565b6118ce81612b41565b50565b6118e56103e8670de0b6b3a764000061396c565b6118f090600561398e565b81565b6040516321e3780160e01b81526000906001600160a01b038416906321e37801906119229085906004016134e3565b602060405180830381865afa15801561193f573d6000803e3d6000fd5b505050506040513d601f19601f8201168201806040525081019061196391906137fe565b905080600114610ace5760405162461bcd60e51b815260206004820152602e60248201527f426f72726f7765724f70733a2054726f766520646f6573206e6f74206578697360448201526d1d081bdc881a5cc818db1bdcd95960921b6064820152608401610c5d565b6119d581612455565b156118ce5760405162461bcd60e51b815260206004820152603960248201527f426f72726f7765724f70733a204f7065726174696f6e206e6f74207065726d696044820152787474656420647572696e67205265636f76657279204d6f646560381b6064820152608401610c5d565b6040516370a0823160e01b815281906001600160a01b038516906370a0823190611a729086906004016134e3565b602060405180830381865afa158015611a8f573d6000803e3d6000fd5b505050506040513d601f19601f82011682018060405250810190611ab391906137fe565b1015610ace5760405162461bcd60e51b815260206004820152603e60248201527f426f72726f7765724f70733a2043616c6c657220646f65736e7420686176652060448201527f656e6f75676820544855534420746f206d616b652072657061796d656e7400006064820152608401610c5d565b600080611b3261100c565b90506000611b3e610b37565b905086611b5457611b4f888361382d565b611b5e565b611b5e888361389d565b915084611b7457611b6f868261382d565b611b7e565b611b7e868261389d565b90506000611b8d838387612815565b93505050505b95945050505050565b6714d1120d7b1600008110156118ce5760405162461bcd60e51b815260206004820152604960248201527f426f72726f7765724f70733a20416e206f7065726174696f6e2074686174207760448201527f6f756c6420726573756c7420696e20544352203c20434352206973206e6f74206064820152681c195c9b5a5d1d195960ba1b608482015260a401610c5d565b604051637b7fc9eb60e11b8152600481018290526001600160a01b0385169063f6ff93d690602401600060405180830381600087803b158015611c6e57600080fd5b505af1158015611c82573d6000803e3d6000fd5b5050604051632770a7eb60e21b81526001600160a01b0386169250639dc29fac9150611cb49085908590600401613884565b600060405180830381600087803b158015611cce57600080fd5b505af1158015611ce2573d6000803e3d6000fd5b5050505050505050565b6000610ab5680ad78ebc5ac62000008361389d565b6040805160608082018352600480546001600160a01b039081168452600080548216602080870191909152600b5483168688015286516101a0810188528281528082018390528088018390529485018290526080850182905260a0850182905260c0850182905260e08501829052610100850182905261012085018290526101408501829052610160850182905261018085018290526002548751630fdb11cf60e01b8152975196979596931694630fdb11cf948181019492939183900301908290875af1158015611dd7573d6000803e3d6000fd5b505050506040513d601f19601f82011682018060405250810190611dfb91906137fe565b808252600090611e0a90612455565b90508715611e2557611e1c8482612472565b611e2589612b93565b611e2f8a88612c03565b611e3a8a8a89612c73565b8251611e46908c6118f3565b336001600160a01b038c161480611e7c57506008546001600160a01b031633148015611e725750600087115b8015611e7c575088155b611e8857611e886138e5565b8251604051630b07655760e01b81526001600160a01b0390911690630b07655790611eb7908e906004016134e3565b600060405180830381600087803b158015611ed157600080fd5b505af1158015611ee5573d6000803e3d6000fd5b50505050611ef3878b612d0b565b15156060840152602083015260408201899052878015611f11575080155b15611f4757611f2a836000015184604001518b87612648565b6101208301819052604083018051611f4390839061389d565b9052505b825160405163d66a255360e01b81526001600160a01b039091169063d66a255390611f76908e906004016134e3565b602060405180830381865afa158015611f93573d6000803e3d6000fd5b505050506040513d601f19601f82011682018060405250810190611fb791906137fe565b608083015282516040516309019aaf60e31b81526001600160a01b039091169063480cd57890611feb908e906004016134e3565b602060405180830381865afa158015612008573d6000803e3d6000fd5b505050506040513d601f19601f8201168201806040525081019061202c91906137fe565b60a0830181905260808301518351612045929190612815565b8260c00181815250506120758260a0015183608001518460200151856060015186604001518d8860000151612d2a565b60e083015260a08201518a111561208e5761208e6138e5565b61209a818b8a85612d5d565b871580156120a85750600089115b156120f6576120d182604001516120c28460800151612e47565b6120cc919061382d565b612796565b6120e382608001518360400151612e5c565b6120f683604001518c8460400151611a44565b61211483600001518c8460200151856060015186604001518d612ef0565b6101408401526101608301528251604051630c7940bd60e11b81526001600160a01b03909116906318f2817a9061214f908e906004016134e3565b6020604051808303816000875af115801561216e573d6000803e3d6000fd5b505050506040513d601f19601f8201168201806040525081019061219291906137fe565b8261018001818152505060006121c08360a0015184608001518560200151866060015187604001518e6130e2565b600c5460405163015f109360e51b81529192506001600160a01b031690632be21260906121f7908f9085908c908c906004016138fb565b600060405180830381600087803b15801561221157600080fd5b505af1158015612225573d6000803e3d6000fd5b505050508b6001600160a01b03166000805160206139a683398151915284610140015185610160015186610180015160026040516122669493929190613862565b60405180910390a261012083015160405190815233907f65bd7154d79916d54881d83a1b22e14f736830d7a4995e5b97f4af8520718e229060200160405180910390a26122cd8460200151856040015133866020015187606001518f8f8a60400151613113565b505050505050505050505050565b6001600160a01b0381166123315760405162461bcd60e51b815260206004820152601e60248201527f4163636f756e742063616e6e6f74206265207a65726f206164647265737300006044820152606401610c5d565b803b806123805760405162461bcd60e51b815260206004820181905260248201527f4163636f756e7420636f64652073697a652063616e6e6f74206265207a65726f6044820152606401610c5d565b5050565b6003546040516000916001600160a01b0316907f8be0079c531659141344cd1fd0a4f28419497f9722a3daafe3b4186f6b6457e0908390a3600380546001600160a01b0319169055565b6005546000906001600160a01b03166123e8575034919050565b34156124515760405162461bcd60e51b815260206004820152603260248201527f426f72726f7765724f7065726174696f6e733a20636f6c6c61746572616c206d6044820152713ab9ba1031329022a9219918103a37b5b2b760711b6064820152608401610c5d565b5090565b600080612461836131a8565b6714d1120d7b160000119392505050565b80156124eb57670de0b6b3a76400008211156123805760405162461bcd60e51b815260206004820152603260248201527f4d6178206665652070657263656e74616765206d757374206c657373207468616044820152716e206f7220657175616c20746f203130302560701b6064820152608401610c5d565b6124ff6103e8670de0b6b3a764000061396c565b61250a90600561398e565b82101580156125215750670de0b6b3a76400008211155b6123805760405162461bcd60e51b815260206004820152603060248201527f4d6178206665652070657263656e74616765206d75737420626520626574776560448201526f656e20302e352520616e64203130302560801b6064820152608401610c5d565b6040516321e3780160e01b81526000906001600160a01b038416906321e37801906125b59085906004016134e3565b602060405180830381865afa1580156125d2573d6000803e3d6000fd5b505050506040513d601f19601f820116820180604052508101906125f691906137fe565b905080600103610ace5760405162461bcd60e51b815260206004820152601c60248201527f426f72726f7765724f70733a2054726f766520697320616374697665000000006044820152606401610c5d565b6000846001600160a01b0316635dba4c4a6040518163ffffffff1660e01b8152600401600060405180830381600087803b15801561268557600080fd5b505af1158015612699573d6000803e3d6000fd5b5050604051630631203b60e41b815260048101869052600092506001600160a01b038816915063631203b090602401602060405180830381865afa1580156126e5573d6000803e3d6000fd5b505050506040513d601f19601f8201168201806040525081019061270991906137fe565b90506127168185856131d4565b6007546001600160a01b031615611b93576007546040516340c10f1960e01b81526001600160a01b03878116926340c10f199261275b92909116908590600401613884565b600060405180830381600087803b15801561277557600080fd5b505af1158015612789573d6000803e3d6000fd5b5050505095945050505050565b686194049f30f72000008110156118ce5760405162461bcd60e51b815260206004820152603a60248201527f426f72726f7765724f70733a2054726f76652773206e65742064656274206d7560448201527f73742062652067726561746572207468616e206d696e696d756d0000000000006064820152608401610c5d565b6000821561283d5760008361282a848761398e565b612834919061396c565b91506128429050565b506000195b9392505050565b60008115612876578161286568056bc75e2d631000008561398e565b61286f919061396c565b9050610ab5565b5060001992915050565b6714d1120d7b1600008110156118ce5760405162461bcd60e51b815260206004820152603760248201527f426f72726f7765724f70733a204f7065726174696f6e206d757374206c65617660448201527632903a3937bb32903bb4ba341024a1a9101f1e9021a1a960491b6064820152608401610c5d565b670f43fc2c04ee00008110156118ce5760405162461bcd60e51b815260206004820152604960248201527f426f72726f7765724f70733a20416e206f7065726174696f6e2074686174207760448201527f6f756c6420726573756c7420696e20494352203c204d4352206973206e6f74206064820152681c195c9b5a5d1d195960ba1b608482015260a401610c5d565b6005546129a0906001600160a01b0316338484613245565b6005546001600160a01b03166129b4575050565b604051634c6ccf7360e11b8152600481018290526001600160a01b038316906398d99ee690602401600060405180830381600087803b1580156129f657600080fd5b505af1158015612a0a573d6000803e3d6000fd5b505050505050565b6040516342c31a2360e01b8152600481018290526001600160a01b038616906342c31a2390602401600060405180830381600087803b158015612a5457600080fd5b505af1158015612a68573d6000803e3d6000fd5b50506040516340c10f1960e01b81526001600160a01b03871692506340c10f199150612a9a9086908690600401613884565b600060405180830381600087803b158015612ab457600080fd5b505af1158015612ac8573d6000803e3d6000fd5b505050505050505050565b6008546001600160a01b03163314612b3f5760405162461bcd60e51b815260206004820152602960248201527f426f72726f7765724f70733a2043616c6c6572206973206e6f742053746162696044820152681b1a5d1e48141bdbdb60ba1b6064820152608401610c5d565b565b600380546001600160a01b038381166001600160a01b0319831681179093556040519116919082907f8be0079c531659141344cd1fd0a4f28419497f9722a3daafe3b4186f6b6457e090600090a35050565b600081116118ce5760405162461bcd60e51b815260206004820152603760248201527f426f72726f7765724f70733a204465627420696e637265617365207265717569604482015276726573206e6f6e2d7a65726f20646562744368616e676560481b6064820152608401610c5d565b801580612c0e575081155b6123805760405162461bcd60e51b815260206004820152603060248201527f426f72726f7765724f7065726174696f6e733a2043616e6e6f7420776974686460448201526f1c985dc8185b99081859190818dbdb1b60821b6064820152608401610c5d565b80151580612c8057508215155b80612c8a57508115155b610ace5760405162461bcd60e51b815260206004820152604660248201527f426f72726f7765724f70733a205468657265206d75737420626520656974686560448201527f72206120636f6c6c61746572616c206368616e6765206f7220612064656274206064820152656368616e676560d01b608482015260a401610c5d565b6000808315612d1f57508290506001612d23565b8291505b9250929050565b6000806000612d3d8a8a8a8a8a8a6133bb565b915091506000612d4e838387612815565b9b9a5050505050505050505050565b600b54604051635f7a196360e11b81526001600160a01b039091169063bef432c690612d8d9030906004016134e3565b602060405180830381865afa158015612daa573d6000803e3d6000fd5b505050506040513d601f19601f82011682018060405250810190612dce91906137e1565b15610b31578315612e0c57612de2836133f9565b8115612e0757612df58160e00151612880565b612e078160e001518260c0015161346d565b610b31565b612e198160e001516128f8565b612e36816020015182606001518360400151858560000151611b27565b6101008201819052610b3190611b9c565b6000610ab5680ad78ebc5ac62000008361382d565b612e6f680ad78ebc5ac62000008361382d565b8111156123805760405162461bcd60e51b815260206004820152604360248201527f426f72726f7765724f70733a20416d6f756e7420726570616964206d7573742060448201527f6e6f74206265206c6172676572207468616e207468652054726f76652773206460648201526219589d60ea1b608482015260a401610c5d565b600080600085612f705760405163d3d6f84360e01b81526001600160a01b038a169063d3d6f84390612f28908b908b90600401613884565b6020604051808303816000875af1158015612f47573d6000803e3d6000fd5b505050506040513d601f19601f82011682018060405250810190612f6b91906137fe565b612fe1565b6040516372423c1760e01b81526001600160a01b038a16906372423c1790612f9e908b908b90600401613884565b6020604051808303816000875af1158015612fbd573d6000803e3d6000fd5b505050506040513d601f19601f82011682018060405250810190612fe191906137fe565b905060008461306057604051630930874960e11b81526001600160a01b038b16906312610e9290613018908c908a90600401613884565b6020604051808303816000875af1158015613037573d6000803e3d6000fd5b505050506040513d601f19601f8201168201806040525081019061305b91906137fe565b6130d1565b604051639976cf4560e01b81526001600160a01b038b1690639976cf459061308e908c908a90600401613884565b6020604051808303816000875af11580156130ad573d6000803e3d6000fd5b505050506040513d601f19601f820116820180604052508101906130d191906137fe565b919a91995090975050505050505050565b60008060006130f58989898989896133bb565b9150915060006131058383612849565b9a9950505050505050505050565b811561312b576131268888888685612a12565b613137565b61313788888886611c2c565b831561314c576131478886612988565b611ce2565b604051636250216960e01b81526001600160a01b0389169063625021699061317a9089908990600401613884565b600060405180830381600087803b15801561319457600080fd5b505af11580156122cd573d6000803e3d6000fd5b6000806131b361100c565b905060006131bf610b37565b90506131cc828286612815565b949350505050565b6000826131e9670de0b6b3a76400008661398e565b6131f3919061396c565b905081811115610b315760405162461bcd60e51b815260206004820152601d60248201527f4665652065786365656465642070726f7669646564206d6178696d756d0000006044820152606401610c5d565b6001600160a01b0384166132f1576000826001600160a01b03168260405160006040518083038185875af1925050503d80600081146132a0576040519150601f19603f3d011682016040523d82523d6000602084013e6132a5565b606091505b50509050806132eb5760405162461bcd60e51b815260206004820152601260248201527114d95b991a5b99c81155120819985a5b195960721b6044820152606401610c5d565b50610b31565b6040516323b872dd60e01b81526001600160a01b038481166004830152838116602483015260448201839052600091908616906323b872dd906064016020604051808303816000875af115801561334c573d6000803e3d6000fd5b505050506040513d601f19601f8201168201806040525081019061337091906137e1565b90508061179e5760405162461bcd60e51b815260206004820152601960248201527814d95b991a5b99c818dbdb1b185d195c985b0819985a5b1959603a1b6044820152606401610c5d565b6000808787866133d4576133cf888b61382d565b6133de565b6133de888b61389d565b9150846133ef5761305b868a61382d565b6130d1868a61389d565b80156118ce5760405162461bcd60e51b815260206004820152603e60248201527f426f72726f7765724f70733a20436f6c6c61746572616c20776974686472617760448201527f616c206e6f74207065726d6974746564205265636f76657279204d6f646500006064820152608401610c5d565b808210156123805760405162461bcd60e51b815260206004820152603e60248201527f426f72726f7765724f70733a2043616e6e6f7420646563726561736520796f7560448201527f722054726f766527732049435220696e205265636f76657279204d6f646500006064820152608401610c5d565b6001600160a01b0391909116815260200190565b60006020828403121561350957600080fd5b5035919050565b80356001600160a01b038116811461352757600080fd5b919050565b60008060006060848603121561354157600080fd5b8335925061355160208501613510565b915061355f60408501613510565b90509250925092565b60008060008060008060008060008060006101608c8e03121561358a57600080fd5b6135938c613510565b9a506135a160208d01613510565b99506135af60408d01613510565b98506135bd60608d01613510565b97506135cb60808d01613510565b96506135d960a08d01613510565b95506135e760c08d01613510565b94506135f560e08d01613510565b93506136046101008d01613510565b92506136136101208d01613510565b91506136226101408d01613510565b90509295989b509295989b9093969950565b6000806000806080858703121561364a57600080fd5b843593506020850135925061366160408601613510565b915061366f60608601613510565b905092959194509250565b80151581146118ce57600080fd5b600080600080600080600060e0888a0312156136a357600080fd5b87359650602088013595506040880135945060608801356136c38161367a565b9350608088013592506136d860a08901613510565b91506136e660c08901613510565b905092959891949750929550565b600080600080600060a0868803121561370c57600080fd5b85359450602086013593506040860135925061372a60608701613510565b915061373860808701613510565b90509295509295909350565b600060208083528351808285015260005b8181101561377157858101830151858201604001528201613755565b506000604082860101526040601f19601f8301168501019250505092915050565b600080600080608085870312156137a857600080fd5b6137b185613510565b93506020850135925061366160408601613510565b6000602082840312156137d857600080fd5b61284282613510565b6000602082840312156137f357600080fd5b81516128428161367a565b60006020828403121561381057600080fd5b5051919050565b634e487b7160e01b600052601160045260246000fd5b81810381811115610ab557610ab5613817565b6003811061385e57634e487b7160e01b600052602160045260246000fd5b9052565b848152602081018490526040810183905260808101611b936060830184613840565b6001600160a01b03929092168252602082015260400190565b80820180821115610ab557610ab5613817565b6020808252818101527f4f776e61626c653a2063616c6c6572206973206e6f7420746865206f776e6572604082015260600190565b634e487b7160e01b600052600160045260246000fd5b6001600160a01b03948516815260208101939093529083166040830152909116606082015260800190565b60208082526026908201527f426f72726f7765724f7065726174696f6e733a2063616c6c6572206d757374206040820152653132902821ab60d11b606082015260800190565b60008261398957634e487b7160e01b600052601260045260246000fd5b500490565b8082028115828204841417610ab557610ab561381756fec3770d654ed33aeea6bf11ac8ef05d02a6a04ed4686dd2f624d853bbec43cc8ba2646970667358221220b1d4af4ece0342152d45b44c34bff514d1327cb52b53638edbb7998b20f1f8ec64736f6c63430008110033",
  "linkReferences": {},
  "deployedLinkReferences": {}
}