{
  "_format": "hh-sol-artifact-1",
  "contractName": "BorrowerOperationsTester",
  "sourceName": "contracts/TestContracts/BorrowerOperationsTester.sol",
  "abi": [
    {
      "anonymous": false,
      "inputs": [
        {
          "indexed": false,
          "internalType": "address",
          "name": "_activePoolAddress",
          "type": "address"
        }
      ],
      "name": "ActivePoolAddressChanged",
      "type": "event"
    },
    {
      "anonymous": false,
      "inputs": [
        {
          "indexed": false,
          "internalType": "address",
          "name": "_collSurplusPoolAddress",
          "type": "address"
        }
      ],
      "name": "CollSurplusPoolAddressChanged",
      "type": "event"
    },
    {
      "anonymous": false,
      "inputs": [
        {
          "indexed": false,
          "internalType": "address",
          "name": "_newCollateralAddress",
          "type": "address"
        }
      ],
      "name": "CollateralAddressChanged",
      "type": "event"
    },
    {
      "anonymous": false,
      "inputs": [
        {
          "indexed": false,
          "internalType": "address",
          "name": "_defaultPoolAddress",
          "type": "address"
        }
      ],
      "name": "DefaultPoolAddressChanged",
      "type": "event"
    },
    {
      "anonymous": false,
      "inputs": [
        {
          "indexed": false,
          "internalType": "address",
          "name": "_gasPoolAddress",
          "type": "address"
        }
      ],
      "name": "GasPoolAddressChanged",
      "type": "event"
    },
    {
      "anonymous": false,
      "inputs": [
        {
          "indexed": true,
          "internalType": "address",
          "name": "previousOwner",
          "type": "address"
        },
        {
          "indexed": true,
          "internalType": "address",
          "name": "newOwner",
          "type": "address"
        }
      ],
      "name": "OwnershipTransferred",
      "type": "event"
    },
    {
      "anonymous": false,
      "inputs": [
        {
          "indexed": false,
          "internalType": "address",
          "name": "_pcvAddress",
          "type": "address"
        }
      ],
      "name": "PCVAddressChanged",
      "type": "event"
    },
    {
      "anonymous": false,
      "inputs": [
        {
          "indexed": false,
          "internalType": "address",
          "name": "_newPriceFeedAddress",
          "type": "address"
        }
      ],
      "name": "PriceFeedAddressChanged",
      "type": "event"
    },
    {
      "anonymous": false,
      "inputs": [
        {
          "indexed": false,
          "internalType": "address",
          "name": "_sortedTrovesAddress",
          "type": "address"
        }
      ],
      "name": "SortedTrovesAddressChanged",
      "type": "event"
    },
    {
      "anonymous": false,
      "inputs": [
        {
          "indexed": false,
          "internalType": "address",
          "name": "_stabilityPoolAddress",
          "type": "address"
        }
      ],
      "name": "StabilityPoolAddressChanged",
      "type": "event"
    },
    {
      "anonymous": false,
      "inputs": [
        {
          "indexed": true,
          "internalType": "address",
          "name": "_borrower",
          "type": "address"
        },
        {
          "indexed": false,
          "internalType": "uint256",
          "name": "_THUSDFee",
          "type": "uint256"
        }
      ],
      "name": "THUSDBorrowingFeePaid",
      "type": "event"
    },
    {
      "anonymous": false,
      "inputs": [
        {
          "indexed": false,
          "internalType": "address",
          "name": "_thusdTokenAddress",
          "type": "address"
        }
      ],
      "name": "THUSDTokenAddressChanged",
      "type": "event"
    },
    {
      "anonymous": false,
      "inputs": [
        {
          "indexed": true,
          "internalType": "address",
          "name": "_borrower",
          "type": "address"
        },
        {
          "indexed": false,
          "internalType": "uint256",
          "name": "arrayIndex",
          "type": "uint256"
        }
      ],
      "name": "TroveCreated",
      "type": "event"
    },
    {
      "anonymous": false,
      "inputs": [
        {
          "indexed": false,
          "internalType": "address",
          "name": "_newTroveManagerAddress",
          "type": "address"
        }
      ],
      "name": "TroveManagerAddressChanged",
      "type": "event"
    },
    {
      "anonymous": false,
      "inputs": [
        {
          "indexed": true,
          "internalType": "address",
          "name": "_borrower",
          "type": "address"
        },
        {
          "indexed": false,
          "internalType": "uint256",
          "name": "_debt",
          "type": "uint256"
        },
        {
          "indexed": false,
          "internalType": "uint256",
          "name": "_coll",
          "type": "uint256"
        },
        {
          "indexed": false,
          "internalType": "uint256",
          "name": "stake",
          "type": "uint256"
        },
        {
          "indexed": false,
          "internalType": "enum BorrowerOperations.BorrowerOperation",
          "name": "operation",
          "type": "uint8"
        }
      ],
      "name": "TroveUpdated",
      "type": "event"
    },
    {
      "inputs": [],
      "name": "BORROWING_FEE_FLOOR",
      "outputs": [
        {
          "internalType": "uint256",
          "name": "",
          "type": "uint256"
        }
      ],
      "stateMutability": "view",
      "type": "function"
    },
    {
      "inputs": [],
      "name": "CCR",
      "outputs": [
        {
          "internalType": "uint256",
          "name": "",
          "type": "uint256"
        }
      ],
      "stateMutability": "view",
      "type": "function"
    },
    {
      "inputs": [],
      "name": "DECIMAL_PRECISION",
      "outputs": [
        {
          "internalType": "uint256",
          "name": "",
          "type": "uint256"
        }
      ],
      "stateMutability": "view",
      "type": "function"
    },
    {
      "inputs": [],
      "name": "MCR",
      "outputs": [
        {
          "internalType": "uint256",
          "name": "",
          "type": "uint256"
        }
      ],
      "stateMutability": "view",
      "type": "function"
    },
    {
      "inputs": [],
      "name": "MIN_NET_DEBT",
      "outputs": [
        {
          "internalType": "uint256",
          "name": "",
          "type": "uint256"
        }
      ],
      "stateMutability": "view",
      "type": "function"
    },
    {
      "inputs": [],
      "name": "NAME",
      "outputs": [
        {
          "internalType": "string",
          "name": "",
          "type": "string"
        }
      ],
      "stateMutability": "view",
      "type": "function"
    },
    {
      "inputs": [],
      "name": "PERCENT_DIVISOR",
      "outputs": [
        {
          "internalType": "uint256",
          "name": "",
          "type": "uint256"
        }
      ],
      "stateMutability": "view",
      "type": "function"
    },
    {
      "inputs": [],
      "name": "THUSD_GAS_COMPENSATION",
      "outputs": [
        {
          "internalType": "uint256",
          "name": "",
          "type": "uint256"
        }
      ],
      "stateMutability": "view",
      "type": "function"
    },
    {
      "inputs": [],
      "name": "_100pct",
      "outputs": [
        {
          "internalType": "uint256",
          "name": "",
          "type": "uint256"
        }
      ],
      "stateMutability": "view",
      "type": "function"
    },
    {
      "inputs": [],
      "name": "activePool",
      "outputs": [
        {
          "internalType": "contract IActivePool",
          "name": "",
          "type": "address"
        }
      ],
      "stateMutability": "view",
      "type": "function"
    },
    {
      "inputs": [
        {
          "internalType": "uint256",
          "name": "_assetAmount",
          "type": "uint256"
        },
        {
          "internalType": "address",
          "name": "_upperHint",
          "type": "address"
        },
        {
          "internalType": "address",
          "name": "_lowerHint",
          "type": "address"
        }
      ],
      "name": "addColl",
      "outputs": [],
      "stateMutability": "payable",
      "type": "function"
    },
    {
      "inputs": [
        {
          "internalType": "uint256",
          "name": "_maxFeePercentage",
          "type": "uint256"
        },
        {
          "internalType": "uint256",
          "name": "_collWithdrawal",
          "type": "uint256"
        },
        {
          "internalType": "uint256",
          "name": "_THUSDChange",
          "type": "uint256"
        },
        {
          "internalType": "bool",
          "name": "_isDebtIncrease",
          "type": "bool"
        },
        {
          "internalType": "uint256",
          "name": "_assetAmount",
          "type": "uint256"
        },
        {
          "internalType": "address",
          "name": "_upperHint",
          "type": "address"
        },
        {
          "internalType": "address",
          "name": "_lowerHint",
          "type": "address"
        }
      ],
      "name": "adjustTrove",
      "outputs": [],
      "stateMutability": "payable",
      "type": "function"
    },
    {
      "inputs": [
        {
          "internalType": "uint256",
          "name": "_thusdToBurn",
          "type": "uint256"
        }
      ],
      "name": "burnDebtFromPCV",
      "outputs": [],
      "stateMutability": "nonpayable",
      "type": "function"
    },
    {
      "inputs": [
        {
          "internalType": "address",
          "name": "_borrower",
          "type": "address"
        },
        {
          "internalType": "uint256",
          "name": "_collWithdrawal",
          "type": "uint256"
        },
        {
          "internalType": "uint256",
          "name": "_debtChange",
          "type": "uint256"
        },
        {
          "internalType": "bool",
          "name": "_isDebtIncrease",
          "type": "bool"
        },
        {
          "internalType": "uint256",
          "name": "_assetAmount",
          "type": "uint256"
        },
        {
          "internalType": "address",
          "name": "_upperHint",
          "type": "address"
        },
        {
          "internalType": "address",
          "name": "_lowerHint",
          "type": "address"
        }
      ],
      "name": "callInternalAdjustLoan",
      "outputs": [],
      "stateMutability": "nonpayable",
      "type": "function"
    },
    {
      "inputs": [],
      "name": "claimCollateral",
      "outputs": [],
      "stateMutability": "nonpayable",
      "type": "function"
    },
    {
      "inputs": [],
      "name": "closeTrove",
      "outputs": [],
      "stateMutability": "nonpayable",
      "type": "function"
    },
    {
      "inputs": [],
      "name": "collateralAddress",
      "outputs": [
        {
          "internalType": "address",
          "name": "",
          "type": "address"
        }
      ],
      "stateMutability": "view",
      "type": "function"
    },
    {
      "inputs": [],
      "name": "defaultPool",
      "outputs": [
        {
          "internalType": "contract IDefaultPool",
          "name": "",
          "type": "address"
        }
      ],
      "stateMutability": "view",
      "type": "function"
    },
    {
      "inputs": [],
      "name": "gasPoolAddress",
      "outputs": [
        {
          "internalType": "address",
          "name": "",
          "type": "address"
        }
      ],
      "stateMutability": "view",
      "type": "function"
    },
    {
      "inputs": [
        {
          "internalType": "uint256",
          "name": "_debt",
          "type": "uint256"
        }
      ],
      "name": "getCompositeDebt",
      "outputs": [
        {
          "internalType": "uint256",
          "name": "",
          "type": "uint256"
        }
      ],
      "stateMutability": "pure",
      "type": "function"
    },
    {
      "inputs": [],
      "name": "getEntireSystemColl",
      "outputs": [
        {
          "internalType": "uint256",
          "name": "entireSystemColl",
          "type": "uint256"
        }
      ],
      "stateMutability": "view",
      "type": "function"
    },
    {
      "inputs": [],
      "name": "getEntireSystemDebt",
      "outputs": [
        {
          "internalType": "uint256",
          "name": "entireSystemDebt",
          "type": "uint256"
        }
      ],
      "stateMutability": "view",
      "type": "function"
    },
    {
      "inputs": [
        {
          "internalType": "uint256",
          "name": "_coll",
          "type": "uint256"
        },
        {
          "internalType": "uint256",
          "name": "_debt",
          "type": "uint256"
        },
        {
          "internalType": "uint256",
          "name": "_collChange",
          "type": "uint256"
        },
        {
          "internalType": "bool",
          "name": "isCollIncrease",
          "type": "bool"
        },
        {
          "internalType": "uint256",
          "name": "_debtChange",
          "type": "uint256"
        },
        {
          "internalType": "bool",
          "name": "isDebtIncrease",
          "type": "bool"
        },
        {
          "internalType": "uint256",
          "name": "_price",
          "type": "uint256"
        }
      ],
      "name": "getNewICRFromTroveChange",
      "outputs": [
        {
          "internalType": "uint256",
          "name": "",
          "type": "uint256"
        }
      ],
      "stateMutability": "pure",
      "type": "function"
    },
    {
      "inputs": [
        {
          "internalType": "uint256",
          "name": "_collChange",
          "type": "uint256"
        },
        {
          "internalType": "bool",
          "name": "isCollIncrease",
          "type": "bool"
        },
        {
          "internalType": "uint256",
          "name": "_debtChange",
          "type": "uint256"
        },
        {
          "internalType": "bool",
          "name": "isDebtIncrease",
          "type": "bool"
        },
        {
          "internalType": "uint256",
          "name": "_price",
          "type": "uint256"
        }
      ],
      "name": "getNewTCRFromTroveChange",
      "outputs": [
        {
          "internalType": "uint256",
          "name": "",
          "type": "uint256"
        }
      ],
      "stateMutability": "view",
      "type": "function"
    },
    {
      "inputs": [
        {
          "internalType": "uint256",
          "name": "_coll",
          "type": "uint256"
        },
        {
          "internalType": "uint256",
          "name": "_price",
          "type": "uint256"
        }
      ],
      "name": "getUSDValue",
      "outputs": [
        {
          "internalType": "uint256",
          "name": "",
          "type": "uint256"
        }
      ],
      "stateMutability": "pure",
      "type": "function"
    },
    {
      "inputs": [],
      "name": "isOwner",
      "outputs": [
        {
          "internalType": "bool",
          "name": "",
          "type": "bool"
        }
      ],
      "stateMutability": "view",
      "type": "function"
    },
    {
      "inputs": [
        {
          "internalType": "uint256",
          "name": "_thusdToMint",
          "type": "uint256"
        }
      ],
      "name": "mintBootstrapLoanFromPCV",
      "outputs": [],
      "stateMutability": "nonpayable",
      "type": "function"
    },
    {
      "inputs": [
        {
          "internalType": "address",
          "name": "_borrower",
          "type": "address"
        },
        {
          "internalType": "uint256",
          "name": "_assetAmount",
          "type": "uint256"
        },
        {
          "internalType": "address",
          "name": "_upperHint",
          "type": "address"
        },
        {
          "internalType": "address",
          "name": "_lowerHint",
          "type": "address"
        }
      ],
      "name": "moveCollateralGainToTrove",
      "outputs": [],
      "stateMutability": "payable",
      "type": "function"
    },
    {
      "inputs": [
        {
          "internalType": "uint256",
          "name": "_maxFeePercentage",
          "type": "uint256"
        },
        {
          "internalType": "uint256",
          "name": "_THUSDAmount",
          "type": "uint256"
        },
        {
          "internalType": "uint256",
          "name": "_assetAmount",
          "type": "uint256"
        },
        {
          "internalType": "address",
          "name": "_upperHint",
          "type": "address"
        },
        {
          "internalType": "address",
          "name": "_lowerHint",
          "type": "address"
        }
      ],
      "name": "openTrove",
      "outputs": [],
      "stateMutability": "payable",
      "type": "function"
    },
    {
      "inputs": [],
      "name": "owner",
      "outputs": [
        {
          "internalType": "address",
          "name": "",
          "type": "address"
        }
      ],
      "stateMutability": "view",
      "type": "function"
    },
    {
      "inputs": [],
      "name": "pcv",
      "outputs": [
        {
          "internalType": "contract IPCV",
          "name": "",
          "type": "address"
        }
      ],
      "stateMutability": "view",
      "type": "function"
    },
    {
      "inputs": [],
      "name": "pcvAddress",
      "outputs": [
        {
          "internalType": "address",
          "name": "",
          "type": "address"
        }
      ],
      "stateMutability": "view",
      "type": "function"
    },
    {
      "inputs": [],
      "name": "priceFeed",
      "outputs": [
        {
          "internalType": "contract IPriceFeed",
          "name": "",
          "type": "address"
        }
      ],
      "stateMutability": "view",
      "type": "function"
    },
    {
      "inputs": [
        {
          "internalType": "uint256",
          "name": "_THUSDAmount",
          "type": "uint256"
        },
        {
          "internalType": "address",
          "name": "_upperHint",
          "type": "address"
        },
        {
          "internalType": "address",
          "name": "_lowerHint",
          "type": "address"
        }
      ],
      "name": "repayTHUSD",
      "outputs": [],
      "stateMutability": "nonpayable",
      "type": "function"
    },
    {
      "inputs": [
        {
          "internalType": "address",
          "name": "_troveManagerAddress",
          "type": "address"
        },
        {
          "internalType": "address",
          "name": "_activePoolAddress",
          "type": "address"
        },
        {
          "internalType": "address",
          "name": "_defaultPoolAddress",
          "type": "address"
        },
        {
          "internalType": "address",
          "name": "_stabilityPoolAddress",
          "type": "address"
        },
        {
          "internalType": "address",
          "name": "_gasPoolAddress",
          "type": "address"
        },
        {
          "internalType": "address",
          "name": "_collSurplusPoolAddress",
          "type": "address"
        },
        {
          "internalType": "address",
          "name": "_priceFeedAddress",
          "type": "address"
        },
        {
          "internalType": "address",
          "name": "_sortedTrovesAddress",
          "type": "address"
        },
        {
          "internalType": "address",
          "name": "_thusdTokenAddress",
          "type": "address"
        },
        {
          "internalType": "address",
          "name": "_pcvAddress",
          "type": "address"
        },
        {
          "internalType": "address",
          "name": "_collateralAddress",
          "type": "address"
        }
      ],
      "name": "setAddresses",
      "outputs": [],
      "stateMutability": "nonpayable",
      "type": "function"
    },
    {
      "inputs": [],
      "name": "sortedTroves",
      "outputs": [
        {
          "internalType": "contract ISortedTroves",
          "name": "",
          "type": "address"
        }
      ],
      "stateMutability": "view",
      "type": "function"
    },
    {
      "inputs": [],
      "name": "stabilityPoolAddress",
      "outputs": [
        {
          "internalType": "address",
          "name": "",
          "type": "address"
        }
      ],
      "stateMutability": "view",
      "type": "function"
    },
    {
      "inputs": [],
      "name": "thusdToken",
      "outputs": [
        {
          "internalType": "contract ITHUSDToken",
          "name": "",
          "type": "address"
        }
      ],
      "stateMutability": "view",
      "type": "function"
    },
    {
      "inputs": [
        {
          "internalType": "address",
          "name": "newOwner",
          "type": "address"
        }
      ],
      "name": "transferOwnership",
      "outputs": [],
      "stateMutability": "nonpayable",
      "type": "function"
    },
    {
      "inputs": [],
      "name": "troveManager",
      "outputs": [
        {
          "internalType": "contract ITroveManager",
          "name": "",
          "type": "address"
        }
      ],
      "stateMutability": "view",
      "type": "function"
    },
    {
      "inputs": [
        {
          "internalType": "uint256",
          "name": "_collWithdrawal",
          "type": "uint256"
        },
        {
          "internalType": "address",
          "name": "_upperHint",
          "type": "address"
        },
        {
          "internalType": "address",
          "name": "_lowerHint",
          "type": "address"
        }
      ],
      "name": "withdrawColl",
      "outputs": [],
      "stateMutability": "nonpayable",
      "type": "function"
    },
    {
      "inputs": [
        {
          "internalType": "uint256",
          "name": "_maxFeePercentage",
          "type": "uint256"
        },
        {
          "internalType": "uint256",
          "name": "_THUSDAmount",
          "type": "uint256"
        },
        {
          "internalType": "address",
          "name": "_upperHint",
          "type": "address"
        },
        {
          "internalType": "address",
          "name": "_lowerHint",
          "type": "address"
        }
      ],
      "name": "withdrawTHUSD",
      "outputs": [],
      "stateMutability": "nonpayable",
      "type": "function"
    },
    {
      "stateMutability": "payable",
      "type": "receive"
    }
  ],
  "bytecode": "0x608060405234801561001057600080fd5b50600380546001600160a01b031916339081179091556040516000907f8be0079c531659141344cd1fd0a4f28419497f9722a3daafe3b4186f6b6457e0908290a3613c69806100606000396000f3fe6080604052600436106102555760003560e01c80637985c5e411610139578063a20baee6116100b6578063b064b0b71161007a578063b064b0b7146106ab578063bd59121e146106cb578063d56d6bbe146106eb578063f2fde38b146106fe578063f92d34331461071e578063fe9d03231461073357600080fd5b8063a20baee61461045c578063a3f4df7e1461060d578063abfad25d14610658578063ae9187541461066b578063ae9d445c1461068b57600080fd5b80638da5cb5b116100fd5780638da5cb5b1461057e5780638e54c1191461059c5780638f09162b146105af5780638f32d59b146105c2578063a1a3e41c146105ed57600080fd5b80637985c5e4146104e95780637f7dde4a14610509578063877eb1791461052957806387eb305d14610549578063887105d31461056957600080fd5b80634ff81443116101d25780636f30d212116101965780636f30d2121461043c57806372fe25aa1461045c578063741bef1a1461047857806377e16f1e14610498578063794e5724146104b8578063795d26c3146104d457600080fd5b80634ff81443146103ab57806351584ca4146103cb5780635530273c146103eb5780635733d58f1461040b5780636f0b0c1c1461042757600080fd5b80633d83908a116102195780633d83908a146103165780633db008c7146103365780634597f6ed146103565780634870dd9a1461037657806348d399e71461038b57600080fd5b80630b622ab2146102615780630e704d50146102975780631bf43555146102ae5780631fd6a434146102d95780633cc74225146102f657600080fd5b3661025c57005b600080fd5b34801561026d57600080fd5b50600854610281906001600160a01b031681565b60405161028e9190613632565b60405180910390f35b3480156102a357600080fd5b506102ac610753565b005b3480156102ba57600080fd5b506102cb686194049f30f720000081565b60405190815260200161028e565b3480156102e557600080fd5b506102cb680ad78ebc5ac620000081565b34801561030257600080fd5b50600154610281906001600160a01b031681565b34801561032257600080fd5b50600454610281906001600160a01b031681565b34801561034257600080fd5b50600754610281906001600160a01b031681565b34801561036257600080fd5b50600a54610281906001600160a01b031681565b34801561038257600080fd5b506102cb60c881565b34801561039757600080fd5b50600554610281906001600160a01b031681565b3480156103b757600080fd5b506102cb6103c6366004613646565b610b81565b3480156103d757600080fd5b506102cb6103e636600461366d565b610b92565b3480156103f757600080fd5b506102ac6104063660046136f2565b610baf565b34801561041757600080fd5b506102cb6714d1120d7b16000081565b34801561043357600080fd5b506102ac610bc7565b34801561044857600080fd5b506102cb61045736600461372e565b610c2b565b34801561046857600080fd5b506102cb670de0b6b3a764000081565b34801561048457600080fd5b50600254610281906001600160a01b031681565b3480156104a457600080fd5b50600b54610281906001600160a01b031681565b3480156104c457600080fd5b506102cb670f43fc2c04ee000081565b3480156104e057600080fd5b506102cb610c3e565b3480156104f557600080fd5b506102ac610504366004613750565b610d3a565b34801561051557600080fd5b50600054610281906001600160a01b031681565b34801561053557600080fd5b506102ac61054436600461381c565b611100565b34801561055557600080fd5b506102cb610564366004613862565b611113565b34801561057557600080fd5b506102cb61112e565b34801561058a57600080fd5b506003546001600160a01b0316610281565b6102ac6105aa3660046138b4565b6111f3565b6102ac6105bd366004613920565b611217565b3480156105ce57600080fd5b506003546001600160a01b03163314604051901515815260200161028e565b3480156105f957600080fd5b506102ac610608366004613970565b61180c565b34801561061957600080fd5b5061064b60405180604001604052806012815260200171426f72726f7765724f7065726174696f6e7360701b81525081565b60405161028e91906139b2565b6102ac610666366004613a00565b61181d565b34801561067757600080fd5b50600c54610281906001600160a01b031681565b34801561069757600080fd5b506102ac6106a6366004613646565b611843565b3480156106b757600080fd5b506102ac6106c6366004613646565b6118d8565b3480156106d757600080fd5b506102ac6106e63660046136f2565b611938565b6102ac6106f93660046136f2565b61194b565b34801561070a57600080fd5b506102ac610719366004613a34565b611969565b34801561072a57600080fd5b506102cb611a04565b34801561073f57600080fd5b50600654610281906001600160a01b031681565b6004805460008054600b54604051635f7a196360e11b81526001600160a01b0394851695928516949091169291839163bef432c69161079491309101613632565b602060405180830381865afa1580156107b1573d6000803e3d6000fd5b505050506040513d601f19601f820116820180604052508101906107d59190613a4f565b90506107e18433611a26565b60025460408051630fdb11cf60e01b815290516000926001600160a01b031691630fdb11cf916004808301926020929190829003018187875af115801561082c573d6000803e3d6000fd5b505050506040513d601f19601f820116820180604052508101906108509190613a6c565b905081156108615761086181611aff565b604051630b07655760e01b81526001600160a01b03861690630b0765579061088d903390600401613632565b600060405180830381600087803b1580156108a757600080fd5b505af11580156108bb573d6000803e3d6000fd5b50506040516309019aaf60e31b8152600092506001600160a01b038816915063480cd578906108ee903390600401613632565b602060405180830381865afa15801561090b573d6000803e3d6000fd5b505050506040513d601f19601f8201168201806040525081019061092f9190613a6c565b90506000866001600160a01b031663d66a2553336040518263ffffffff1660e01b815260040161095f9190613632565b602060405180830381865afa15801561097c573d6000803e3d6000fd5b505050506040513d601f19601f820116820180604052508101906109a09190613a6c565b90506109bf85336109ba680ad78ebc5ac620000085613a9b565b611b77565b83156109e35760006109d683600084600088611c5a565b90506109e181611ccd565b505b604051631fc5750960e31b81526001600160a01b0388169063fe2ba84890610a0f903390600401613632565b600060405180830381600087803b158015610a2957600080fd5b505af1158015610a3d573d6000803e3d6000fd5b50506040516365e89c5760e11b81526001600160a01b038a16925063cbd138ae9150610a6d903390600401613632565b600060405180830381600087803b158015610a8757600080fd5b505af1158015610a9b573d6000803e3d6000fd5b50505050336001600160a01b0316600080516020613c1483398151915260008060006001604051610acf9493929190613ad0565b60405180910390a2610af5868633610af0680ad78ebc5ac620000086613a9b565b611d5d565b600654610b1890879087906001600160a01b0316680ad78ebc5ac6200000611d5d565b604051636250216960e01b81526001600160a01b03871690636250216990610b469033908690600401613af2565b600060405180830381600087803b158015610b6057600080fd5b505af1158015610b74573d6000803e3d6000fd5b5050505050505050505050565b6000610b8c82611e1d565b92915050565b6000610ba388888888888888611e32565b98975050505050505050565b610bc23384600080600087876000611e65565b505050565b60095460405163b32beb5b60e01b81526001600160a01b039091169063b32beb5b90610bf7903390600401613632565b600060405180830381600087803b158015610c1157600080fd5b505af1158015610c25573d6000803e3d6000fd5b50505050565b6000610c37838361243f565b9392505050565b600080546040805163f07424e960e01b8152905183926001600160a01b03169163f07424e99160048083019260209291908290030181865afa158015610c88573d6000803e3d6000fd5b505050506040513d601f19601f82011682018060405250810190610cac9190613a6c565b90506000600160009054906101000a90046001600160a01b03166001600160a01b031663f07424e96040518163ffffffff1660e01b8152600401602060405180830381865afa158015610d03573d6000803e3d6000fd5b505050506040513d601f19601f82011682018060405250810190610d279190613a6c565b9050610d338183613b0b565b9250505090565b6003546001600160a01b03163314610d6d5760405162461bcd60e51b8152600401610d6490613b1e565b60405180910390fd5b610d768b612467565b610d7f8a612467565b610d8889612467565b610d9188612467565b610d9a87612467565b610da386612467565b610dac85612467565b610db584612467565b610dbe83612467565b6001600160a01b03821615610dd657610dd682612467565b6001600160a01b03811615610dee57610dee81612467565b600480546001600160a01b03199081166001600160a01b038e8116919091179092556000805482168d84161790556001805482168c84161790556008805482168b84161790556006805482168a8416179055600980548216898416179055600280548216888416179055600c80548216878416179055600b80548216868416179055600780548216858416908117909155600a805483169091179055600580549091169183169190911790556040517f143219c9e69b09e07e095fcc889b43d8f46ca892bba65f08dc3a0050869a567890610eca908d90613632565b60405180910390a17f78f058b189175430c48dc02699e3a0031ea4ff781536dc2fab847de4babdd8828a604051610f019190613632565b60405180910390a17f5ee0cae2f063ed938bb55046f6a932fb6ae792bf43624806bb90abe68a50be9b89604051610f389190613632565b60405180910390a17f82966d27eea39b038ee0fa30cd16532bb24f6e65d31cb58fb227aa5766cdcc7f88604051610f6f9190613632565b60405180910390a17fcfb07d791fcafc032b35837b50eb84b74df518cf4cc287e8084f47630fa70fa087604051610fa69190613632565b60405180910390a17fe67f36a6e961157d6eff83b91f3af5a62131ceb6f04954ef74f51c1c05e7f88d86604051610fdd9190613632565b60405180910390a17f8c537274438aa850a330284665d81a85dd38267d09e4050d416bfc94142db264856040516110149190613632565b60405180910390a17f65f4cf077bc01e4742eb5ad98326f6e95b63548ea24b17f8d5e823111fe788008460405161104b9190613632565b60405180910390a17fe1e858a66c0bbbcdfa22d58dde1e5d42370be20cdb176e560287f85412e546e0836040516110829190613632565b60405180910390a17f38335c64466e2376ab931166337e19127650d842036ebe01da1ba3e5c1255ebb826040516110b99190613632565b60405180910390a17ffba7421f3d1a98e80d72491a6e0523133444a5842cc7310951d8b82d075a7dff816040516110f09190613632565b60405180910390a1610b74612510565b610c25336000856001600087878b611e65565b60006111228686868686611c5a565b90505b95945050505050565b6000805460408051631529a63960e01b8152905183926001600160a01b031691631529a6399160048083019260209291908290030181865afa158015611178573d6000803e3d6000fd5b505050506040513d601f19601f8201168201806040525081019061119c9190613a6c565b90506000600160009054906101000a90046001600160a01b03166001600160a01b0316631529a6396040518163ffffffff1660e01b8152600401602060405180830381865afa158015610d03573d6000803e3d6000fd5b6111fc8361255a565b925061120e338787878787878e611e65565b50505050505050565b6040805160608082018352600480546001600160a01b039081168452600080548216602080870191909152600b548316868801528651610100810188528281528082018390528088018390529485018290526080850182905260a0850182905260c0850182905260e085018290526002548751630fdb11cf60e01b8152975196979596931694630fdb11cf948181019492939183900301908290875af11580156112c5573d6000803e3d6000fd5b505050506040513d601f19601f820116820180604052508101906112e99190613a6c565b8082526000906112f8906125e1565b905061130488826125fe565b82516113109033612712565b604082018790528061134c5761133083600001518460400151898b6127d4565b60208301819052604083018051611348908390613b0b565b9052505b6113598260400151612922565b6113668260400151611e1d565b6060830181905261137957611379613b53565b6113828661255a565b955061139786836060015184600001516129a1565b608083015260608201516113ac9087906129d4565b60a083015280156113c9576113c48260800151612a0a565b6113fc565b6113d68260800151612a82565b60006113ef876001856060015160018760000151611c5a565b90506113fa81611ccd565b505b8251604051635d6b480f60e01b81526001600160a01b0390911690635d6b480f9061142e903390600190600401613af2565b600060405180830381600087803b15801561144857600080fd5b505af115801561145c573d6000803e3d6000fd5b505084516040516372423c1760e01b81526001600160a01b0390911692506372423c1791506114919033908a90600401613af2565b6020604051808303816000875af11580156114b0573d6000803e3d6000fd5b505050506040513d601f19601f820116820180604052508101906114d49190613a6c565b5082516060830151604051639976cf4560e01b81526001600160a01b0390921691639976cf459161150a91339190600401613af2565b6020604051808303816000875af1158015611529573d6000803e3d6000fd5b505050506040513d601f19601f8201168201806040525081019061154d9190613a6c565b5082516040516382fe3eb960e01b81526001600160a01b03909116906382fe3eb99061157d903390600401613632565b600060405180830381600087803b15801561159757600080fd5b505af11580156115ab573d6000803e3d6000fd5b50508451604051630c7940bd60e11b81526001600160a01b0390911692506318f2817a91506115de903390600401613632565b6020604051808303816000875af11580156115fd573d6000803e3d6000fd5b505050506040513d601f19601f820116820180604052508101906116219190613a6c565b60c0830152600c5460a08301516040516346f7cf8760e01b81526001600160a01b03909216916346f7cf8791611660913391908a908a90600401613b69565b600060405180830381600087803b15801561167a57600080fd5b505af115801561168e573d6000803e3d6000fd5b505084516040516315d549f160e01b81526001600160a01b0390911692506315d549f191506116c1903390600401613632565b6020604051808303816000875af11580156116e0573d6000803e3d6000fd5b505050506040513d601f19601f820116820180604052508101906117049190613a6c565b60e0830181905260405190815233907f59cfd0cd754bc5748b6770e94a4ffa5f678d885cb899dcfadc5734edb97c67ab9060200160405180910390a261174e836020015187612b12565b61176783602001518460400151338a8660400151612b9c565b602083015160408401516006546117939291906001600160a01b0316680ad78ebc5ac620000080612b9c565b606082015160c08301516040513392600080516020613c14833981519152926117c1928b9190600090613ad0565b60405180910390a260208083015160405190815233917f65bd7154d79916d54881d83a1b22e14f736830d7a4995e5b97f4af8520718e22910160405180910390a25050505050505050565b61120e878787878787876000611e65565b611825612c5d565b61182e8361255a565b9250610c258460008060008787876000611e65565b600a546001600160a01b0316331461186d5760405162461bcd60e51b8152600401610d6490613b94565b600b54600a54604051632770a7eb60e21b81526001600160a01b0392831692639dc29fac926118a3929116908590600401613af2565b600060405180830381600087803b1580156118bd57600080fd5b505af11580156118d1573d6000803e3d6000fd5b5050505050565b600a546001600160a01b031633146119025760405162461bcd60e51b8152600401610d6490613b94565b600b54600a546040516340c10f1960e01b81526001600160a01b03928316926340c10f19926118a3929116908590600401613af2565b610bc23360008560008087876000611e65565b6119548361255a565b9250610bc23360008060008787876000611e65565b6003546001600160a01b031633146119935760405162461bcd60e51b8152600401610d6490613b1e565b6001600160a01b0381166119f85760405162461bcd60e51b815260206004820152602660248201527f4f776e61626c653a206e6577206f776e657220697320746865207a65726f206160448201526564647265737360d01b6064820152608401610d64565b611a0181612ccb565b50565b611a186103e8670de0b6b3a7640000613bda565b611a23906005613bfc565b81565b6040516321e3780160e01b81526000906001600160a01b038416906321e3780190611a55908590600401613632565b602060405180830381865afa158015611a72573d6000803e3d6000fd5b505050506040513d601f19601f82011682018060405250810190611a969190613a6c565b905080600114610bc25760405162461bcd60e51b815260206004820152602e60248201527f426f72726f7765724f70733a2054726f766520646f6573206e6f74206578697360448201526d1d081bdc881a5cc818db1bdcd95960921b6064820152608401610d64565b611b08816125e1565b15611a015760405162461bcd60e51b815260206004820152603960248201527f426f72726f7765724f70733a204f7065726174696f6e206e6f74207065726d696044820152787474656420647572696e67205265636f76657279204d6f646560381b6064820152608401610d64565b6040516370a0823160e01b815281906001600160a01b038516906370a0823190611ba5908690600401613632565b602060405180830381865afa158015611bc2573d6000803e3d6000fd5b505050506040513d601f19601f82011682018060405250810190611be69190613a6c565b1015610bc25760405162461bcd60e51b815260206004820152603e60248201527f426f72726f7765724f70733a2043616c6c657220646f65736e7420686176652060448201527f656e6f75676820544855534420746f206d616b652072657061796d656e7400006064820152608401610d64565b600080611c6561112e565b90506000611c71610c3e565b905086611c8757611c828883613a9b565b611c91565b611c918883613b0b565b915084611ca757611ca28682613a9b565b611cb1565b611cb18682613b0b565b90506000611cc08383876129a1565b9998505050505050505050565b6714d1120d7b160000811015611a015760405162461bcd60e51b815260206004820152604960248201527f426f72726f7765724f70733a20416e206f7065726174696f6e2074686174207760448201527f6f756c6420726573756c7420696e20544352203c20434352206973206e6f74206064820152681c195c9b5a5d1d195960ba1b608482015260a401610d64565b604051637b7fc9eb60e11b8152600481018290526001600160a01b0385169063f6ff93d690602401600060405180830381600087803b158015611d9f57600080fd5b505af1158015611db3573d6000803e3d6000fd5b5050604051632770a7eb60e21b81526001600160a01b0386169250639dc29fac9150611de59085908590600401613af2565b600060405180830381600087803b158015611dff57600080fd5b505af1158015611e13573d6000803e3d6000fd5b5050505050505050565b6000610b8c680ad78ebc5ac620000083613b0b565b6000806000611e458a8a8a8a8a8a612d1d565b915091506000611e568383876129a1565b9b9a5050505050505050505050565b6040805160608082018352600480546001600160a01b039081168452600080548216602080870191909152600b5483168688015286516101a0810188528281528082018390528088018390529485018290526080850182905260a0850182905260c0850182905260e08501829052610100850182905261012085018290526101408501829052610160850182905261018085018290526002548751630fdb11cf60e01b8152975196979596931694630fdb11cf948181019492939183900301908290875af1158015611f3b573d6000803e3d6000fd5b505050506040513d601f19601f82011682018060405250810190611f5f9190613a6c565b808252600090611f6e906125e1565b90508715611f8957611f8084826125fe565b611f8989612d71565b611f938a88612de1565b611f9e8a8a89612e51565b8251611faa908c611a26565b336001600160a01b038c161480611fe057506008546001600160a01b031633148015611fd65750600087115b8015611fe0575088155b611fec57611fec613b53565b8251604051630b07655760e01b81526001600160a01b0390911690630b0765579061201b908e90600401613632565b600060405180830381600087803b15801561203557600080fd5b505af1158015612049573d6000803e3d6000fd5b50505050612057878b612ee9565b15156060840152602083015260408201899052878015612075575080155b156120ab5761208e836000015184604001518b876127d4565b61012083018190526040830180516120a7908390613b0b565b9052505b825160405163d66a255360e01b81526001600160a01b039091169063d66a2553906120da908e90600401613632565b602060405180830381865afa1580156120f7573d6000803e3d6000fd5b505050506040513d601f19601f8201168201806040525081019061211b9190613a6c565b608083015282516040516309019aaf60e31b81526001600160a01b039091169063480cd5789061214f908e90600401613632565b602060405180830381865afa15801561216c573d6000803e3d6000fd5b505050506040513d601f19601f820116820180604052508101906121909190613a6c565b60a08301819052608083015183516121a99291906129a1565b8260c00181815250506121d98260a0015183608001518460200151856060015186604001518d8860000151611e32565b60e083015260a08201518a11156121f2576121f2613b53565b6121fe818b8a85612f08565b8715801561220c5750600089115b1561225a5761223582604001516122268460800151612ff2565b6122309190613a9b565b612922565b61224782608001518360400151613007565b61225a83604001518c8460400151611b77565b61227883600001518c8460200151856060015186604001518d61309b565b6101408401526101608301528251604051630c7940bd60e11b81526001600160a01b03909116906318f2817a906122b3908e90600401613632565b6020604051808303816000875af11580156122d2573d6000803e3d6000fd5b505050506040513d601f19601f820116820180604052508101906122f69190613a6c565b8261018001818152505060006123248360a0015184608001518560200151866060015187604001518e613277565b600c5460405163015f109360e51b81529192506001600160a01b031690632be212609061235b908f9085908c908c90600401613b69565b600060405180830381600087803b15801561237557600080fd5b505af1158015612389573d6000803e3d6000fd5b505050508b6001600160a01b0316600080516020613c1483398151915284610140015185610160015186610180015160026040516123ca9493929190613ad0565b60405180910390a261012083015160405190815233907f65bd7154d79916d54881d83a1b22e14f736830d7a4995e5b97f4af8520718e229060200160405180910390a26124318460200151856040015133866020015187606001518f8f8a604001516132a8565b505050505050505050505050565b600080670de0b6b3a76400006124558585613bfc565b61245f9190613bda565b949350505050565b6001600160a01b0381166124bd5760405162461bcd60e51b815260206004820152601e60248201527f4163636f756e742063616e6e6f74206265207a65726f206164647265737300006044820152606401610d64565b803b8061250c5760405162461bcd60e51b815260206004820181905260248201527f4163636f756e7420636f64652073697a652063616e6e6f74206265207a65726f6044820152606401610d64565b5050565b6003546040516000916001600160a01b0316907f8be0079c531659141344cd1fd0a4f28419497f9722a3daafe3b4186f6b6457e0908390a3600380546001600160a01b0319169055565b6005546000906001600160a01b0316612574575034919050565b34156125dd5760405162461bcd60e51b815260206004820152603260248201527f426f72726f7765724f7065726174696f6e733a20636f6c6c61746572616c206d6044820152713ab9ba1031329022a9219918103a37b5b2b760711b6064820152608401610d64565b5090565b6000806125ed8361333d565b6714d1120d7b160000119392505050565b801561267757670de0b6b3a764000082111561250c5760405162461bcd60e51b815260206004820152603260248201527f4d6178206665652070657263656e74616765206d757374206c657373207468616044820152716e206f7220657175616c20746f203130302560701b6064820152608401610d64565b61268b6103e8670de0b6b3a7640000613bda565b612696906005613bfc565b82101580156126ad5750670de0b6b3a76400008211155b61250c5760405162461bcd60e51b815260206004820152603060248201527f4d6178206665652070657263656e74616765206d75737420626520626574776560448201526f656e20302e352520616e64203130302560801b6064820152608401610d64565b6040516321e3780160e01b81526000906001600160a01b038416906321e3780190612741908590600401613632565b602060405180830381865afa15801561275e573d6000803e3d6000fd5b505050506040513d601f19601f820116820180604052508101906127829190613a6c565b905080600103610bc25760405162461bcd60e51b815260206004820152601c60248201527f426f72726f7765724f70733a2054726f766520697320616374697665000000006044820152606401610d64565b6000846001600160a01b0316635dba4c4a6040518163ffffffff1660e01b8152600401600060405180830381600087803b15801561281157600080fd5b505af1158015612825573d6000803e3d6000fd5b5050604051630631203b60e41b815260048101869052600092506001600160a01b038816915063631203b090602401602060405180830381865afa158015612871573d6000803e3d6000fd5b505050506040513d601f19601f820116820180604052508101906128959190613a6c565b90506128a2818585613361565b6007546001600160a01b031615611125576007546040516340c10f1960e01b81526001600160a01b03878116926340c10f19926128e792909116908590600401613af2565b600060405180830381600087803b15801561290157600080fd5b505af1158015612915573d6000803e3d6000fd5b5050505095945050505050565b686194049f30f7200000811015611a015760405162461bcd60e51b815260206004820152603a60248201527f426f72726f7765724f70733a2054726f76652773206e65742064656274206d7560448201527f73742062652067726561746572207468616e206d696e696d756d0000000000006064820152608401610d64565b600082156129c9576000836129b68487613bfc565b6129c09190613bda565b9150610c379050565b506000199392505050565b60008115612a0157816129f068056bc75e2d6310000085613bfc565b6129fa9190613bda565b9050610b8c565b50600019610b8c565b6714d1120d7b160000811015611a015760405162461bcd60e51b815260206004820152603760248201527f426f72726f7765724f70733a204f7065726174696f6e206d757374206c65617660448201527632903a3937bb32903bb4ba341024a1a9101f1e9021a1a960491b6064820152608401610d64565b670f43fc2c04ee0000811015611a015760405162461bcd60e51b815260206004820152604960248201527f426f72726f7765724f70733a20416e206f7065726174696f6e2074686174207760448201527f6f756c6420726573756c7420696e20494352203c204d4352206973206e6f74206064820152681c195c9b5a5d1d195960ba1b608482015260a401610d64565b600554612b2a906001600160a01b03163384846133d2565b6005546001600160a01b0316612b3e575050565b604051634c6ccf7360e11b8152600481018290526001600160a01b038316906398d99ee690602401600060405180830381600087803b158015612b8057600080fd5b505af1158015612b94573d6000803e3d6000fd5b505050505050565b6040516342c31a2360e01b8152600481018290526001600160a01b038616906342c31a2390602401600060405180830381600087803b158015612bde57600080fd5b505af1158015612bf2573d6000803e3d6000fd5b50506040516340c10f1960e01b81526001600160a01b03871692506340c10f199150612c249086908690600401613af2565b600060405180830381600087803b158015612c3e57600080fd5b505af1158015612c52573d6000803e3d6000fd5b505050505050505050565b6008546001600160a01b03163314612cc95760405162461bcd60e51b815260206004820152602960248201527f426f72726f7765724f70733a2043616c6c6572206973206e6f742053746162696044820152681b1a5d1e48141bdbdb60ba1b6064820152608401610d64565b565b600380546001600160a01b038381166001600160a01b0319831681179093556040519116919082907f8be0079c531659141344cd1fd0a4f28419497f9722a3daafe3b4186f6b6457e090600090a35050565b600080878786612d3657612d31888b613a9b565b612d40565b612d40888b613b0b565b915084612d5657612d51868a613a9b565b612d60565b612d60868a613b0b565b919a91995090975050505050505050565b60008111611a015760405162461bcd60e51b815260206004820152603760248201527f426f72726f7765724f70733a204465627420696e637265617365207265717569604482015276726573206e6f6e2d7a65726f20646562744368616e676560481b6064820152608401610d64565b801580612dec575081155b61250c5760405162461bcd60e51b815260206004820152603060248201527f426f72726f7765724f7065726174696f6e733a2043616e6e6f7420776974686460448201526f1c985dc8185b99081859190818dbdb1b60821b6064820152608401610d64565b80151580612e5e57508215155b80612e6857508115155b610bc25760405162461bcd60e51b815260206004820152604660248201527f426f72726f7765724f70733a205468657265206d75737420626520656974686560448201527f72206120636f6c6c61746572616c206368616e6765206f7220612064656274206064820152656368616e676560d01b608482015260a401610d64565b6000808315612efd57508290506001612f01565b8291505b9250929050565b600b54604051635f7a196360e11b81526001600160a01b039091169063bef432c690612f38903090600401613632565b602060405180830381865afa158015612f55573d6000803e3d6000fd5b505050506040513d601f19601f82011682018060405250810190612f799190613a4f565b15610c25578315612fb757612f8d83613548565b8115612fb257612fa08160e00151612a0a565b612fb28160e001518260c001516135bc565b610c25565b612fc48160e00151612a82565b612fe1816020015182606001518360400151858560000151611c5a565b6101008201819052610c2590611ccd565b6000610b8c680ad78ebc5ac620000083613a9b565b61301a680ad78ebc5ac620000083613a9b565b81111561250c5760405162461bcd60e51b815260206004820152604360248201527f426f72726f7765724f70733a20416d6f756e7420726570616964206d7573742060448201527f6e6f74206265206c6172676572207468616e207468652054726f76652773206460648201526219589d60ea1b608482015260a401610d64565b60008060008561311b5760405163d3d6f84360e01b81526001600160a01b038a169063d3d6f843906130d3908b908b90600401613af2565b6020604051808303816000875af11580156130f2573d6000803e3d6000fd5b505050506040513d601f19601f820116820180604052508101906131169190613a6c565b61318c565b6040516372423c1760e01b81526001600160a01b038a16906372423c1790613149908b908b90600401613af2565b6020604051808303816000875af1158015613168573d6000803e3d6000fd5b505050506040513d601f19601f8201168201806040525081019061318c9190613a6c565b905060008461320657604051630930874960e11b81526001600160a01b038b16906312610e92906131c3908c908a90600401613af2565b6020604051808303816000875af11580156131e2573d6000803e3d6000fd5b505050506040513d601f19601f82011682018060405250810190612d519190613a6c565b604051639976cf4560e01b81526001600160a01b038b1690639976cf4590613234908c908a90600401613af2565b6020604051808303816000875af1158015613253573d6000803e3d6000fd5b505050506040513d601f19601f82011682018060405250810190612d609190613a6c565b600080600061328a898989898989612d1d565b91509150600061329a83836129d4565b9a9950505050505050505050565b81156132c0576132bb8888888685612b9c565b6132cc565b6132cc88888886611d5d565b83156132e1576132dc8886612b12565b611e13565b604051636250216960e01b81526001600160a01b0389169063625021699061330f9089908990600401613af2565b600060405180830381600087803b15801561332957600080fd5b505af1158015612431573d6000803e3d6000fd5b60008061334861112e565b90506000613354610c3e565b905061245f8282866129a1565b600082613376670de0b6b3a764000086613bfc565b6133809190613bda565b905081811115610c255760405162461bcd60e51b815260206004820152601d60248201527f4665652065786365656465642070726f7669646564206d6178696d756d0000006044820152606401610d64565b6001600160a01b03841661347e576000826001600160a01b03168260405160006040518083038185875af1925050503d806000811461342d576040519150601f19603f3d011682016040523d82523d6000602084013e613432565b606091505b50509050806134785760405162461bcd60e51b815260206004820152601260248201527114d95b991a5b99c81155120819985a5b195960721b6044820152606401610d64565b50610c25565b6040516323b872dd60e01b81526001600160a01b038481166004830152838116602483015260448201839052600091908616906323b872dd906064016020604051808303816000875af11580156134d9573d6000803e3d6000fd5b505050506040513d601f19601f820116820180604052508101906134fd9190613a4f565b9050806118d15760405162461bcd60e51b815260206004820152601960248201527814d95b991a5b99c818dbdb1b185d195c985b0819985a5b1959603a1b6044820152606401610d64565b8015611a015760405162461bcd60e51b815260206004820152603e60248201527f426f72726f7765724f70733a20436f6c6c61746572616c20776974686472617760448201527f616c206e6f74207065726d6974746564205265636f76657279204d6f646500006064820152608401610d64565b8082101561250c5760405162461bcd60e51b815260206004820152603e60248201527f426f72726f7765724f70733a2043616e6e6f7420646563726561736520796f7560448201527f722054726f766527732049435220696e205265636f76657279204d6f646500006064820152608401610d64565b6001600160a01b0391909116815260200190565b60006020828403121561365857600080fd5b5035919050565b8015158114611a0157600080fd5b600080600080600080600060e0888a03121561368857600080fd5b87359650602088013595506040880135945060608801356136a88161365f565b93506080880135925060a08801356136bf8161365f565b8092505060c0880135905092959891949750929550565b80356001600160a01b03811681146136ed57600080fd5b919050565b60008060006060848603121561370757600080fd5b83359250613717602085016136d6565b9150613725604085016136d6565b90509250925092565b6000806040838503121561374157600080fd5b50508035926020909101359150565b60008060008060008060008060008060006101608c8e03121561377257600080fd5b61377b8c6136d6565b9a5061378960208d016136d6565b995061379760408d016136d6565b98506137a560608d016136d6565b97506137b360808d016136d6565b96506137c160a08d016136d6565b95506137cf60c08d016136d6565b94506137dd60e08d016136d6565b93506137ec6101008d016136d6565b92506137fb6101208d016136d6565b915061380a6101408d016136d6565b90509295989b509295989b9093969950565b6000806000806080858703121561383257600080fd5b8435935060208501359250613849604086016136d6565b9150613857606086016136d6565b905092959194509250565b600080600080600060a0868803121561387a57600080fd5b85359450602086013561388c8161365f565b93506040860135925060608601356138a38161365f565b949793965091946080013592915050565b600080600080600080600060e0888a0312156138cf57600080fd5b87359650602088013595506040880135945060608801356138ef8161365f565b93506080880135925061390460a089016136d6565b915061391260c089016136d6565b905092959891949750929550565b600080600080600060a0868803121561393857600080fd5b853594506020860135935060408601359250613956606087016136d6565b9150613964608087016136d6565b90509295509295909350565b600080600080600080600060e0888a03121561398b57600080fd5b613994886136d6565b9650602088013595506040880135945060608801356138ef8161365f565b600060208083528351808285015260005b818110156139df578581018301518582016040015282016139c3565b506000604082860101526040601f19601f8301168501019250505092915050565b60008060008060808587031215613a1657600080fd5b613a1f856136d6565b935060208501359250613849604086016136d6565b600060208284031215613a4657600080fd5b610c37826136d6565b600060208284031215613a6157600080fd5b8151610c378161365f565b600060208284031215613a7e57600080fd5b5051919050565b634e487b7160e01b600052601160045260246000fd5b81810381811115610b8c57610b8c613a85565b60038110613acc57634e487b7160e01b600052602160045260246000fd5b9052565b8481526020810184905260408101839052608081016111256060830184613aae565b6001600160a01b03929092168252602082015260400190565b80820180821115610b8c57610b8c613a85565b6020808252818101527f4f776e61626c653a2063616c6c6572206973206e6f7420746865206f776e6572604082015260600190565b634e487b7160e01b600052600160045260246000fd5b6001600160a01b03948516815260208101939093529083166040830152909116606082015260800190565b60208082526026908201527f426f72726f7765724f7065726174696f6e733a2063616c6c6572206d757374206040820152653132902821ab60d11b606082015260800190565b600082613bf757634e487b7160e01b600052601260045260246000fd5b500490565b8082028115828204841417610b8c57610b8c613a8556fec3770d654ed33aeea6bf11ac8ef05d02a6a04ed4686dd2f624d853bbec43cc8ba2646970667358221220229097678eb910ddf69c096ae2cb46a8a148d00532fd6137328c1f0de198b8ff64736f6c63430008110033",
  "linkReferences": {},
  "deployedLinkReferences": {}
}