{
  "_format": "hh-sol-artifact-1",
  "contractName": "BorrowerWrappersScript",
  "sourceName": "contracts/Proxy/BorrowerWrappersScript.sol",
  "abi": [
    {
      "inputs": [
        {
          "internalType": "address",
          "name": "_borrowerOperationsAddress",
          "type": "address"
        },
        {
          "internalType": "address",
          "name": "_troveManagerAddress",
          "type": "address"
        },
        {
          "internalType": "address",
          "name": "_pcvAddress",
          "type": "address"
        }
      ],
      "stateMutability": "nonpayable",
      "type": "constructor"
    },
    {
      "inputs": [],
      "name": "NAME",
      "outputs": [
        {
          "internalType": "string",
          "name": "",
          "type": "string"
        }
      ],
      "stateMutability": "view",
      "type": "function"
    },
    {
      "inputs": [
        {
          "internalType": "uint256",
          "name": "_assetAmount",
          "type": "uint256"
        },
        {
          "internalType": "address",
          "name": "_upperHint",
          "type": "address"
        },
        {
          "internalType": "address",
          "name": "_lowerHint",
          "type": "address"
        }
      ],
      "name": "addColl",
      "outputs": [],
      "stateMutability": "payable",
      "type": "function"
    },
    {
      "inputs": [
        {
          "internalType": "uint256",
          "name": "_maxFee",
          "type": "uint256"
        },
        {
          "internalType": "uint256",
          "name": "_collWithdrawal",
          "type": "uint256"
        },
        {
          "internalType": "uint256",
          "name": "_debtChange",
          "type": "uint256"
        },
        {
          "internalType": "bool",
          "name": "isDebtIncrease",
          "type": "bool"
        },
        {
          "internalType": "uint256",
          "name": "_assetAmount",
          "type": "uint256"
        },
        {
          "internalType": "address",
          "name": "_upperHint",
          "type": "address"
        },
        {
          "internalType": "address",
          "name": "_lowerHint",
          "type": "address"
        }
      ],
      "name": "adjustTrove",
      "outputs": [],
      "stateMutability": "payable",
      "type": "function"
    },
    {
      "inputs": [],
      "name": "claimCollateral",
      "outputs": [],
      "stateMutability": "nonpayable",
      "type": "function"
    },
    {
      "inputs": [
        {
          "internalType": "uint256",
          "name": "_maxFee",
          "type": "uint256"
        },
        {
          "internalType": "uint256",
          "name": "_THUSDAmount",
          "type": "uint256"
        },
        {
          "internalType": "address",
          "name": "_upperHint",
          "type": "address"
        },
        {
          "internalType": "address",
          "name": "_lowerHint",
          "type": "address"
        }
      ],
      "name": "claimCollateralAndOpenTrove",
      "outputs": [],
      "stateMutability": "payable",
      "type": "function"
    },
    {
      "inputs": [
        {
          "internalType": "uint256",
          "name": "_maxFee",
          "type": "uint256"
        },
        {
          "internalType": "address",
          "name": "_upperHint",
          "type": "address"
        },
        {
          "internalType": "address",
          "name": "_lowerHint",
          "type": "address"
        }
      ],
      "name": "claimSPRewardsAndRecycle",
      "outputs": [],
      "stateMutability": "nonpayable",
      "type": "function"
    },
    {
      "inputs": [
        {
          "internalType": "uint256",
          "name": "_maxFee",
          "type": "uint256"
        },
        {
          "internalType": "address",
          "name": "_upperHint",
          "type": "address"
        },
        {
          "internalType": "address",
          "name": "_lowerHint",
          "type": "address"
        }
      ],
      "name": "claimStakingGainsAndRecycle",
      "outputs": [],
      "stateMutability": "nonpayable",
      "type": "function"
    },
    {
      "inputs": [],
      "name": "closeTrove",
      "outputs": [],
      "stateMutability": "nonpayable",
      "type": "function"
    },
    {
      "inputs": [
        {
          "internalType": "uint256",
          "name": "_maxFee",
          "type": "uint256"
        },
        {
          "internalType": "uint256",
          "name": "_THUSDAmount",
          "type": "uint256"
        },
        {
          "internalType": "uint256",
          "name": "_assetAmount",
          "type": "uint256"
        },
        {
          "internalType": "address",
          "name": "_upperHint",
          "type": "address"
        },
        {
          "internalType": "address",
          "name": "_lowerHint",
          "type": "address"
        }
      ],
      "name": "openTrove",
      "outputs": [],
      "stateMutability": "payable",
      "type": "function"
    },
    {
      "inputs": [
        {
          "internalType": "uint256",
          "name": "_amount",
          "type": "uint256"
        },
        {
          "internalType": "address",
          "name": "_upperHint",
          "type": "address"
        },
        {
          "internalType": "address",
          "name": "_lowerHint",
          "type": "address"
        }
      ],
      "name": "repayTHUSD",
      "outputs": [],
      "stateMutability": "nonpayable",
      "type": "function"
    },
    {
      "inputs": [
        {
          "internalType": "address",
          "name": "_recipient",
          "type": "address"
        },
        {
          "internalType": "uint256",
          "name": "_amount",
          "type": "uint256"
        }
      ],
      "name": "transferETH",
      "outputs": [
        {
          "internalType": "bool",
          "name": "",
          "type": "bool"
        }
      ],
      "stateMutability": "nonpayable",
      "type": "function"
    },
    {
      "inputs": [
        {
          "internalType": "address",
          "name": "token",
          "type": "address"
        },
        {
          "internalType": "address",
          "name": "_recipient",
          "type": "address"
        },
        {
          "internalType": "uint256",
          "name": "_amount",
          "type": "uint256"
        }
      ],
      "name": "transferTokens",
      "outputs": [
        {
          "internalType": "bool",
          "name": "",
          "type": "bool"
        }
      ],
      "stateMutability": "nonpayable",
      "type": "function"
    },
    {
      "inputs": [
        {
          "internalType": "uint256",
          "name": "_amount",
          "type": "uint256"
        },
        {
          "internalType": "address",
          "name": "_upperHint",
          "type": "address"
        },
        {
          "internalType": "address",
          "name": "_lowerHint",
          "type": "address"
        }
      ],
      "name": "withdrawColl",
      "outputs": [],
      "stateMutability": "nonpayable",
      "type": "function"
    },
    {
      "inputs": [
        {
          "internalType": "uint256",
          "name": "_maxFee",
          "type": "uint256"
        },
        {
          "internalType": "uint256",
          "name": "_amount",
          "type": "uint256"
        },
        {
          "internalType": "address",
          "name": "_upperHint",
          "type": "address"
        },
        {
          "internalType": "address",
          "name": "_lowerHint",
          "type": "address"
        }
      ],
      "name": "withdrawTHUSD",
      "outputs": [],
      "stateMutability": "nonpayable",
      "type": "function"
    }
  ],
  "bytecode": "0x6101606040523480156200001257600080fd5b506040516200183f3803806200183f8339810160408190526200003591620003fe565b8083620000428162000338565b6001600160a01b0316608052620000598162000338565b6001600160a01b031660a052620000708262000338565b6000829050806001600160a01b031660c0816001600160a01b0316815250506000816001600160a01b031663048c661d6040518163ffffffff1660e01b8152600401602060405180830381865afa158015620000d0573d6000803e3d6000fd5b505050506040513d601f19601f82011682018060405250810190620000f6919062000452565b9050620001038162000338565b806001600160a01b031660e0816001600160a01b0316815250506000826001600160a01b031663741bef1a6040518163ffffffff1660e01b8152600401602060405180830381865afa1580156200015e573d6000803e3d6000fd5b505050506040513d601f19601f8201168201806040525081019062000184919062000452565b9050620001918162000338565b806001600160a01b0316610100816001600160a01b0316815250506000836001600160a01b03166377e16f1e6040518163ffffffff1660e01b8152600401602060405180830381865afa158015620001ed573d6000803e3d6000fd5b505050506040513d601f19601f8201168201806040525081019062000213919062000452565b9050620002208162000338565b806001600160a01b0316610120816001600160a01b0316815250506000846001600160a01b0316634597f6ed6040518163ffffffff1660e01b8152600401602060405180830381865afa1580156200027c573d6000803e3d6000fd5b505050506040513d601f19601f82011682018060405250810190620002a2919062000452565b9050806001600160a01b0316866001600160a01b0316146200031d5760405162461bcd60e51b815260206004820152602960248201527f426f72726f77657257726170706572735363726970743a2057726f6e6720504360448201526856206164647265737360b81b60648201526084015b60405180910390fd5b6001600160a01b031661014052506200047995505050505050565b6001600160a01b038116620003905760405162461bcd60e51b815260206004820152601e60248201527f4163636f756e742063616e6e6f74206265207a65726f20616464726573730000604482015260640162000314565b803b80620003e15760405162461bcd60e51b815260206004820181905260248201527f4163636f756e7420636f64652073697a652063616e6e6f74206265207a65726f604482015260640162000314565b5050565b6001600160a01b0381168114620003fb57600080fd5b50565b6000806000606084860312156200041457600080fd5b83516200042181620003e5565b60208501519093506200043481620003e5565b60408501519092506200044781620003e5565b809150509250925092565b6000602082840312156200046557600080fd5b81516200047281620003e5565b9392505050565b60805160a05160c05160e0516101005161012051610140516113016200053e60003960005050600081816109970152610a2201526000610d560152600081816104c5015281816106040152610b8e015260008181610c6401528181610e020152610e8c01526000505060008181610280015281816102fa015281816103970152818161043d015281816105590152818161067501528181610763015281816107dc015281816108340152818161094201528181610ad70152610c1401526113016000f3fe6080604052600436106100bd5760003560e01c80638e54c1191161006f5780638e54c119146101965780638f09162b146101a9578063a3f4df7e146101bc578063a64b6e5f1461020b578063bd59121e1461022b578063d08eb01b1461024b578063d56d6bbe1461026b57600080fd5b80630e704d50146100c2578063233a2e39146100d95780635530273c146100ec57806358c9d9771461010c5780636f0b0c1c1461012c5780637b1a490914610141578063877eb17914610176575b600080fd5b3480156100ce57600080fd5b506100d761027e565b005b6100d76100e7366004610f65565b6102f3565b3480156100f857600080fd5b506100d7610107366004610fab565b610426565b34801561011857600080fd5b506100d7610127366004610fab565b6104ad565b34801561013857600080fd5b506100d7610673565b34801561014d57600080fd5b5061016161015c366004610fe7565b6106ce565b60405190151581526020015b60405180910390f35b34801561018257600080fd5b506100d7610191366004610f65565b61072e565b6100d76101a436600461101f565b6107c5565b6100d76101b736600461108b565b61081d565b3480156101c857600080fd5b506101fe60405180604001604052806016815260200175109bdc9c9bddd95c95dc985c1c195c9cd4d8dc9a5c1d60521b81525081565b60405161016d91906110db565b34801561021757600080fd5b50610161610226366004611129565b6108aa565b34801561023757600080fd5b506100d7610246366004610fab565b61092b565b34801561025757600080fd5b506100d7610266366004610fab565b61097b565b6100d7610279366004610fab565b610bfd565b7f00000000000000000000000000000000000000000000000000000000000000006001600160a01b0316630e704d506040518163ffffffff1660e01b8152600401600060405180830381600087803b1580156102d957600080fd5b505af11580156102ed573d6000803e3d6000fd5b50505050565b60004790507f00000000000000000000000000000000000000000000000000000000000000006001600160a01b0316636f0b0c1c6040518163ffffffff1660e01b8152600401600060405180830381600087803b15801561035357600080fd5b505af1158015610367573d6000803e3d6000fd5b50479250505081811161037c5761037c611165565b6000346103898484611191565b61039391906111a4565b90507f00000000000000000000000000000000000000000000000000000000000000006001600160a01b0316638f09162b60008989858a8a6040518763ffffffff1660e01b81526004016103eb9594939291906111b7565b6000604051808303818588803b15801561040457600080fd5b505af1158015610418573d6000803e3d6000fd5b505050505050505050505050565b60405163154c09cf60e21b81526001600160a01b037f00000000000000000000000000000000000000000000000000000000000000001690635530273c90610476908690869086906004016111e6565b600060405180830381600087803b15801561049057600080fd5b505af11580156104a4573d6000803e3d6000fd5b50505050505050565b604051632e54bf9560e01b81526000600482015247907f00000000000000000000000000000000000000000000000000000000000000006001600160a01b031690632e54bf9590602401600060405180830381600087803b15801561051157600080fd5b505af1158015610525573d6000803e3d6000fd5b504792506000915061053990508383611191565b9050801561066b5761054a30610c4d565b600061055582610d51565b90507f00000000000000000000000000000000000000000000000000000000000000006001600160a01b0316638e54c1196000896000856001888d8d6040518963ffffffff1660e01b81526004016105b39796959493929190611205565b6000604051808303818588803b1580156105cc57600080fd5b505af11580156105e0573d6000803e3d6000fd5b505050505060008111156104a457604051631e31de8960e21b8152600481018290527f00000000000000000000000000000000000000000000000000000000000000006001600160a01b0316906378c77a24906024015b600060405180830381600087803b15801561065157600080fd5b505af1158015610665573d6000803e3d6000fd5b50505050505b505050505050565b7f00000000000000000000000000000000000000000000000000000000000000006001600160a01b0316636f0b0c1c6040518163ffffffff1660e01b8152600401600060405180830381600087803b1580156102d957600080fd5b600080836001600160a01b03168360405160006040518083038185875af1925050503d806000811461071c576040519150601f19603f3d011682016040523d82523d6000602084013e610721565b606091505b5090925050505b92915050565b60405163877eb17960e01b815260048101859052602481018490526001600160a01b03838116604483015282811660648301527f0000000000000000000000000000000000000000000000000000000000000000169063877eb17990608401600060405180830381600087803b1580156107a757600080fd5b505af11580156107bb573d6000803e3d6000fd5b5050505050505050565b604051638e54c11960e01b81526001600160a01b037f00000000000000000000000000000000000000000000000000000000000000001690638e54c11990610637908a908a908a908a908a908a908a90600401611205565b604051638f09162b60e01b81526001600160a01b037f00000000000000000000000000000000000000000000000000000000000000001690638f09162b9061087190889088908890889088906004016111b7565b600060405180830381600087803b15801561088b57600080fd5b505af115801561089f573d6000803e3d6000fd5b505050505050505050565b60405163a9059cbb60e01b81526001600160a01b03838116600483015260248201839052600091829186169063a9059cbb906044016020604051808303816000875af11580156108fe573d6000803e3d6000fd5b505050506040513d601f19601f820116820180604052508101906109229190611241565b95945050505050565b604051635eac890f60e11b81526001600160a01b037f0000000000000000000000000000000000000000000000000000000000000000169063bd59121e90610476908690869086906004016111e6565b6040516370a0823160e01b815247906000906001600160a01b037f000000000000000000000000000000000000000000000000000000000000000016906370a08231906109cc903090600401611265565b602060405180830381865afa1580156109e9573d6000803e3d6000fd5b505050506040513d601f19601f82011682018060405250810190610a0d9190611279565b90506000610a1b8347611191565b90506000827f00000000000000000000000000000000000000000000000000000000000000006001600160a01b03166370a08231306040518263ffffffff1660e01b8152600401610a6c9190611265565b602060405180830381865afa158015610a89573d6000803e3d6000fd5b505050506040513d601f19601f82011682018060405250810190610aad9190611279565b610ab79190611191565b905060008215610b6457610aca30610c4d565b610ad383610d51565b90507f00000000000000000000000000000000000000000000000000000000000000006001600160a01b0316638e54c11960008a6000856001898e8e6040518963ffffffff1660e01b8152600401610b319796959493929190611205565b6000604051808303818588803b158015610b4a57600080fd5b505af1158015610b5e573d6000803e3d6000fd5b50505050505b6000610b7082846111a4565b9050801561089f57604051631e31de8960e21b8152600481018290527f00000000000000000000000000000000000000000000000000000000000000006001600160a01b0316906378c77a2490602401600060405180830381600087803b158015610bda57600080fd5b505af1158015610bee573d6000803e3d6000fd5b50505050505050505050505050565b604051636ab6b5df60e11b81526001600160a01b037f0000000000000000000000000000000000000000000000000000000000000000169063d56d6bbe90610476908690869086906004016111e6565b6040516321e3780160e01b81526001600160a01b037f000000000000000000000000000000000000000000000000000000000000000016906321e3780190610c99908490600401611265565b602060405180830381865afa158015610cb6573d6000803e3d6000fd5b505050506040513d601f19601f82011682018060405250810190610cda9190611279565b600114610d4e5760405162461bcd60e51b815260206004820152603860248201527f426f72726f77657257726170706572735363726970743a2063616c6c6572206d604482015277757374206861766520616e206163746976652074726f766560401b606482015260840160405180910390fd5b50565b6000807f00000000000000000000000000000000000000000000000000000000000000006001600160a01b0316630fdb11cf6040518163ffffffff1660e01b81526004016020604051808303816000875af1158015610db4573d6000803e3d6000fd5b505050506040513d601f19601f82011682018060405250810190610dd89190611279565b604051630d293c7160e41b8152306004820152602481018290529091506000906001600160a01b037f0000000000000000000000000000000000000000000000000000000000000000169063d293c71090604401602060405180830381865afa158015610e49573d6000803e3d6000fd5b505050506040513d601f19601f82011682018060405250810190610e6d9190611279565b9050600081610e7c8487611292565b610e8691906112a9565b905060007f00000000000000000000000000000000000000000000000000000000000000006001600160a01b03166366ca4a216040518163ffffffff1660e01b8152600401602060405180830381865afa158015610ee8573d6000803e3d6000fd5b505050506040513d601f19601f82011682018060405250810190610f0c9190611279565b90506000610f2282670de0b6b3a76400006111a4565b610f34670de0b6b3a764000085611292565b610f3e91906112a9565b979650505050505050565b80356001600160a01b0381168114610f6057600080fd5b919050565b60008060008060808587031215610f7b57600080fd5b8435935060208501359250610f9260408601610f49565b9150610fa060608601610f49565b905092959194509250565b600080600060608486031215610fc057600080fd5b83359250610fd060208501610f49565b9150610fde60408501610f49565b90509250925092565b60008060408385031215610ffa57600080fd5b61100383610f49565b946020939093013593505050565b8015158114610d4e57600080fd5b600080600080600080600060e0888a03121561103a57600080fd5b873596506020880135955060408801359450606088013561105a81611011565b93506080880135925061106f60a08901610f49565b915061107d60c08901610f49565b905092959891949750929550565b600080600080600060a086880312156110a357600080fd5b8535945060208601359350604086013592506110c160608701610f49565b91506110cf60808701610f49565b90509295509295909350565b600060208083528351808285015260005b81811015611108578581018301518582016040015282016110ec565b506000604082860101526040601f19601f8301168501019250505092915050565b60008060006060848603121561113e57600080fd5b61114784610f49565b925061115560208501610f49565b9150604084013590509250925092565b634e487b7160e01b600052600160045260246000fd5b634e487b7160e01b600052601160045260246000fd5b818103818111156107285761072861117b565b808201808211156107285761072861117b565b948552602085019390935260408401919091526001600160a01b03908116606084015216608082015260a00190565b9283526001600160a01b03918216602084015216604082015260600190565b96875260208701959095526040860193909352901515606085015260808401526001600160a01b0390811660a08401521660c082015260e00190565b60006020828403121561125357600080fd5b815161125e81611011565b9392505050565b6001600160a01b0391909116815260200190565b60006020828403121561128b57600080fd5b5051919050565b80820281158282048414176107285761072861117b565b6000826112c657634e487b7160e01b600052601260045260246000fd5b50049056fea264697066735822122096eb438e1ff8880df089bbbd8d7914ea69093f81dc3f14958ba745fe42a1553564736f6c63430008110033",
  "linkReferences": {},
  "deployedLinkReferences": {}
}