{
  "_format": "hh-sol-artifact-1",
  "contractName": "BorrowerOperationsScript",
  "sourceName": "contracts/Proxy/BorrowerOperationsScript.sol",
  "abi": [
    {
      "inputs": [
        {
          "internalType": "contract IBorrowerOperations",
          "name": "_borrowerOperations",
          "type": "address"
        }
      ],
      "stateMutability": "nonpayable",
      "type": "constructor"
    },
    {
      "inputs": [
        {
          "internalType": "uint256",
          "name": "_assetAmount",
          "type": "uint256"
        },
        {
          "internalType": "address",
          "name": "_upperHint",
          "type": "address"
        },
        {
          "internalType": "address",
          "name": "_lowerHint",
          "type": "address"
        }
      ],
      "name": "addColl",
      "outputs": [],
      "stateMutability": "payable",
      "type": "function"
    },
    {
      "inputs": [
        {
          "internalType": "uint256",
          "name": "_maxFee",
          "type": "uint256"
        },
        {
          "internalType": "uint256",
          "name": "_collWithdrawal",
          "type": "uint256"
        },
        {
          "internalType": "uint256",
          "name": "_debtChange",
          "type": "uint256"
        },
        {
          "internalType": "bool",
          "name": "isDebtIncrease",
          "type": "bool"
        },
        {
          "internalType": "uint256",
          "name": "_assetAmount",
          "type": "uint256"
        },
        {
          "internalType": "address",
          "name": "_upperHint",
          "type": "address"
        },
        {
          "internalType": "address",
          "name": "_lowerHint",
          "type": "address"
        }
      ],
      "name": "adjustTrove",
      "outputs": [],
      "stateMutability": "payable",
      "type": "function"
    },
    {
      "inputs": [],
      "name": "claimCollateral",
      "outputs": [],
      "stateMutability": "nonpayable",
      "type": "function"
    },
    {
      "inputs": [],
      "name": "closeTrove",
      "outputs": [],
      "stateMutability": "nonpayable",
      "type": "function"
    },
    {
      "inputs": [
        {
          "internalType": "uint256",
          "name": "_maxFee",
          "type": "uint256"
        },
        {
          "internalType": "uint256",
          "name": "_THUSDAmount",
          "type": "uint256"
        },
        {
          "internalType": "uint256",
          "name": "_assetAmount",
          "type": "uint256"
        },
        {
          "internalType": "address",
          "name": "_upperHint",
          "type": "address"
        },
        {
          "internalType": "address",
          "name": "_lowerHint",
          "type": "address"
        }
      ],
      "name": "openTrove",
      "outputs": [],
      "stateMutability": "payable",
      "type": "function"
    },
    {
      "inputs": [
        {
          "internalType": "uint256",
          "name": "_amount",
          "type": "uint256"
        },
        {
          "internalType": "address",
          "name": "_upperHint",
          "type": "address"
        },
        {
          "internalType": "address",
          "name": "_lowerHint",
          "type": "address"
        }
      ],
      "name": "repayTHUSD",
      "outputs": [],
      "stateMutability": "nonpayable",
      "type": "function"
    },
    {
      "inputs": [
        {
          "internalType": "uint256",
          "name": "_amount",
          "type": "uint256"
        },
        {
          "internalType": "address",
          "name": "_upperHint",
          "type": "address"
        },
        {
          "internalType": "address",
          "name": "_lowerHint",
          "type": "address"
        }
      ],
      "name": "withdrawColl",
      "outputs": [],
      "stateMutability": "nonpayable",
      "type": "function"
    },
    {
      "inputs": [
        {
          "internalType": "uint256",
          "name": "_maxFee",
          "type": "uint256"
        },
        {
          "internalType": "uint256",
          "name": "_amount",
          "type": "uint256"
        },
        {
          "internalType": "address",
          "name": "_upperHint",
          "type": "address"
        },
        {
          "internalType": "address",
          "name": "_lowerHint",
          "type": "address"
        }
      ],
      "name": "withdrawTHUSD",
      "outputs": [],
      "stateMutability": "nonpayable",
      "type": "function"
    }
  ],
  "bytecode": "0x60a060405234801561001057600080fd5b5060405161083938038061083983398101604081905261002f916100f7565b61003881610049565b6001600160a01b0316608052610127565b6001600160a01b0381166100a45760405162461bcd60e51b815260206004820152601e60248201527f4163636f756e742063616e6e6f74206265207a65726f2061646472657373000060448201526064015b60405180910390fd5b803b806100f35760405162461bcd60e51b815260206004820181905260248201527f4163636f756e7420636f64652073697a652063616e6e6f74206265207a65726f604482015260640161009b565b5050565b60006020828403121561010957600080fd5b81516001600160a01b038116811461012057600080fd5b9392505050565b6080516106c661017360003960008181610137015281816101c101528181610233015281816102c10152818161036e0152818161040f0152818161048901526104d901526106c66000f3fe60806040526004361061006b5760003560e01c80630e704d50146100705780635530273c146100875780636f0b0c1c146100a7578063877eb179146100bc5780638e54c119146100dc5780638f09162b146100ef578063bd59121e14610102578063d56d6bbe14610122575b600080fd5b34801561007c57600080fd5b50610085610135565b005b34801561009357600080fd5b506100856100a236600461052e565b6101aa565b3480156100b357600080fd5b50610085610231565b3480156100c857600080fd5b506100856100d736600461056a565b61028c565b6100856100ea3660046105b0565b610323565b6100856100fd366004610621565b6103d3565b34801561010e57600080fd5b5061008561011d36600461052e565b610472565b61008561013036600461052e565b6104c2565b7f00000000000000000000000000000000000000000000000000000000000000006001600160a01b0316630e704d506040518163ffffffff1660e01b8152600401600060405180830381600087803b15801561019057600080fd5b505af11580156101a4573d6000803e3d6000fd5b50505050565b60405163154c09cf60e21b81526001600160a01b037f00000000000000000000000000000000000000000000000000000000000000001690635530273c906101fa90869086908690600401610671565b600060405180830381600087803b15801561021457600080fd5b505af1158015610228573d6000803e3d6000fd5b50505050505050565b7f00000000000000000000000000000000000000000000000000000000000000006001600160a01b0316636f0b0c1c6040518163ffffffff1660e01b8152600401600060405180830381600087803b15801561019057600080fd5b60405163877eb17960e01b815260048101859052602481018490526001600160a01b03838116604483015282811660648301527f0000000000000000000000000000000000000000000000000000000000000000169063877eb17990608401600060405180830381600087803b15801561030557600080fd5b505af1158015610319573d6000803e3d6000fd5b5050505050505050565b604051638e54c11960e01b81526004810188905260248101879052604481018690528415156064820152608481018490526001600160a01b0383811660a483015282811660c48301527f00000000000000000000000000000000000000000000000000000000000000001690638e54c1199060e401600060405180830381600087803b1580156103b257600080fd5b505af11580156103c6573d6000803e3d6000fd5b5050505050505050505050565b604051638f09162b60e01b81526004810186905260248101859052604481018490526001600160a01b03838116606483015282811660848301527f00000000000000000000000000000000000000000000000000000000000000001690638f09162b9060a401600060405180830381600087803b15801561045357600080fd5b505af1158015610467573d6000803e3d6000fd5b505050505050505050565b604051635eac890f60e11b81526001600160a01b037f0000000000000000000000000000000000000000000000000000000000000000169063bd59121e906101fa90869086908690600401610671565b604051636ab6b5df60e11b81526001600160a01b037f0000000000000000000000000000000000000000000000000000000000000000169063d56d6bbe906101fa90869086908690600401610671565b80356001600160a01b038116811461052957600080fd5b919050565b60008060006060848603121561054357600080fd5b8335925061055360208501610512565b915061056160408501610512565b90509250925092565b6000806000806080858703121561058057600080fd5b843593506020850135925061059760408601610512565b91506105a560608601610512565b905092959194509250565b600080600080600080600060e0888a0312156105cb57600080fd5b873596506020880135955060408801359450606088013580151581146105f057600080fd5b93506080880135925061060560a08901610512565b915061061360c08901610512565b905092959891949750929550565b600080600080600060a0868803121561063957600080fd5b85359450602086013593506040860135925061065760608701610512565b915061066560808701610512565b90509295509295909350565b9283526001600160a01b0391821660208401521660408201526060019056fea26469706673582212205b4c5e48cbdba27f1f48b34e5add8de8f903d02694479d95797e1f414ee984bb64736f6c63430008110033",
  "linkReferences": {},
  "deployedLinkReferences": {}
}