{
  "_format": "hh-sol-artifact-1",
  "contractName": "ChainlinkTestnet",
  "sourceName": "contracts/B.Protocol/ChainlinkTestnet.sol",
  "abi": [
    {
      "inputs": [
        {
          "internalType": "contract PriceFeedTestnet",
          "name": "_feed",
          "type": "address"
        }
      ],
      "stateMutability": "nonpayable",
      "type": "constructor"
    },
    {
      "inputs": [],
      "name": "decimals",
      "outputs": [
        {
          "internalType": "uint256",
          "name": "",
          "type": "uint256"
        }
      ],
      "stateMutability": "pure",
      "type": "function"
    },
    {
      "inputs": [],
      "name": "latestRoundData",
      "outputs": [
        {
          "internalType": "uint80",
          "name": "roundId",
          "type": "uint80"
        },
        {
          "internalType": "int256",
          "name": "answer",
          "type": "int256"
        },
        {
          "internalType": "uint256",
          "name": "startedAt",
          "type": "uint256"
        },
        {
          "internalType": "uint256",
          "name": "timestamp",
          "type": "uint256"
        },
        {
          "internalType": "uint80",
          "name": "answeredInRound",
          "type": "uint80"
        }
      ],
      "stateMutability": "view",
      "type": "function"
    },
    {
      "inputs": [
        {
          "internalType": "uint256",
          "name": "_price",
          "type": "uint256"
        }
      ],
      "name": "setPrice",
      "outputs": [],
      "stateMutability": "nonpayable",
      "type": "function"
    },
    {
      "inputs": [
        {
          "internalType": "uint256",
          "name": "_time",
          "type": "uint256"
        }
      ],
      "name": "setTimestamp",
      "outputs": [],
      "stateMutability": "nonpayable",
      "type": "function"
    }
  ],
  "bytecode": "0x60806040526000600155600060025534801561001a57600080fd5b506040516102853803806102858339810160408190526100399161005e565b600080546001600160a01b0319166001600160a01b039290921691909117905561008e565b60006020828403121561007057600080fd5b81516001600160a01b038116811461008757600080fd5b9392505050565b6101e88061009d6000396000f3fe608060405234801561001057600080fd5b506004361061004c5760003560e01c8063313ce5671461005157806391b7f5ed14610065578063a0a2b5731461007a578063feaf968c1461008d575b600080fd5b604051601281526020015b60405180910390f35b610078610073366004610180565b600155565b005b610078610088366004610180565b600255565b6100956100cc565b6040805169ffffffffffffffffffff968716815260208101959095528401929092526060830152909116608082015260a00161005c565b6001546000908190819081908190156100e9576001549350610161565b60008054906101000a90046001600160a01b03166001600160a01b03166398d5fdca6040518163ffffffff1660e01b8152600401602060405180830381865afa15801561013a573d6000803e3d6000fd5b505050506040513d601f19601f8201168201806040525081019061015e9190610199565b93505b60025460000361017357429150610179565b60025491505b9091929394565b60006020828403121561019257600080fd5b5035919050565b6000602082840312156101ab57600080fd5b505191905056fea2646970667358221220045a2d928b27be0dc18919d63151d5d052d93972f01fbbb51610328b6e5230d464736f6c63430008110033",
  "linkReferences": {},
  "deployedLinkReferences": {}
}