{
  "_format": "hh-sol-artifact-1",
  "contractName": "CollSurplusPool",
  "sourceName": "contracts/CollSurplusPool.sol",
  "abi": [
    {
      "anonymous": false,
      "inputs": [
        {
          "indexed": false,
          "internalType": "address",
          "name": "_newActivePoolAddress",
          "type": "address"
        }
      ],
      "name": "ActivePoolAddressChanged",
      "type": "event"
    },
    {
      "anonymous": false,
      "inputs": [
        {
          "indexed": false,
          "internalType": "address",
          "name": "_newBorrowerOperationsAddress",
          "type": "address"
        }
      ],
      "name": "BorrowerOperationsAddressChanged",
      "type": "event"
    },
    {
      "anonymous": false,
      "inputs": [
        {
          "indexed": true,
          "internalType": "address",
          "name": "_account",
          "type": "address"
        },
        {
          "indexed": false,
          "internalType": "uint256",
          "name": "_newBalance",
          "type": "uint256"
        }
      ],
      "name": "CollBalanceUpdated",
      "type": "event"
    },
    {
      "anonymous": false,
      "inputs": [
        {
          "indexed": false,
          "internalType": "address",
          "name": "_newCollateralAddress",
          "type": "address"
        }
      ],
      "name": "CollateralAddressChanged",
      "type": "event"
    },
    {
      "anonymous": false,
      "inputs": [
        {
          "indexed": false,
          "internalType": "address",
          "name": "_to",
          "type": "address"
        },
        {
          "indexed": false,
          "internalType": "uint256",
          "name": "_amount",
          "type": "uint256"
        }
      ],
      "name": "CollateralSent",
      "type": "event"
    },
    {
      "anonymous": false,
      "inputs": [
        {
          "indexed": true,
          "internalType": "address",
          "name": "previousOwner",
          "type": "address"
        },
        {
          "indexed": true,
          "internalType": "address",
          "name": "newOwner",
          "type": "address"
        }
      ],
      "name": "OwnershipTransferred",
      "type": "event"
    },
    {
      "anonymous": false,
      "inputs": [
        {
          "indexed": false,
          "internalType": "address",
          "name": "_newTroveManagerAddress",
          "type": "address"
        }
      ],
      "name": "TroveManagerAddressChanged",
      "type": "event"
    },
    {
      "inputs": [],
      "name": "NAME",
      "outputs": [
        {
          "internalType": "string",
          "name": "",
          "type": "string"
        }
      ],
      "stateMutability": "view",
      "type": "function"
    },
    {
      "inputs": [
        {
          "internalType": "address",
          "name": "_account",
          "type": "address"
        },
        {
          "internalType": "uint256",
          "name": "_amount",
          "type": "uint256"
        }
      ],
      "name": "accountSurplus",
      "outputs": [],
      "stateMutability": "nonpayable",
      "type": "function"
    },
    {
      "inputs": [],
      "name": "activePoolAddress",
      "outputs": [
        {
          "internalType": "address",
          "name": "",
          "type": "address"
        }
      ],
      "stateMutability": "view",
      "type": "function"
    },
    {
      "inputs": [],
      "name": "borrowerOperationsAddress",
      "outputs": [
        {
          "internalType": "address",
          "name": "",
          "type": "address"
        }
      ],
      "stateMutability": "view",
      "type": "function"
    },
    {
      "inputs": [
        {
          "internalType": "address",
          "name": "_account",
          "type": "address"
        }
      ],
      "name": "claimColl",
      "outputs": [],
      "stateMutability": "nonpayable",
      "type": "function"
    },
    {
      "inputs": [],
      "name": "collateralAddress",
      "outputs": [
        {
          "internalType": "address",
          "name": "",
          "type": "address"
        }
      ],
      "stateMutability": "view",
      "type": "function"
    },
    {
      "inputs": [
        {
          "internalType": "address",
          "name": "_account",
          "type": "address"
        }
      ],
      "name": "getCollateral",
      "outputs": [
        {
          "internalType": "uint256",
          "name": "",
          "type": "uint256"
        }
      ],
      "stateMutability": "view",
      "type": "function"
    },
    {
      "inputs": [],
      "name": "getCollateralBalance",
      "outputs": [
        {
          "internalType": "uint256",
          "name": "",
          "type": "uint256"
        }
      ],
      "stateMutability": "view",
      "type": "function"
    },
    {
      "inputs": [],
      "name": "isOwner",
      "outputs": [
        {
          "internalType": "bool",
          "name": "",
          "type": "bool"
        }
      ],
      "stateMutability": "view",
      "type": "function"
    },
    {
      "inputs": [],
      "name": "owner",
      "outputs": [
        {
          "internalType": "address",
          "name": "",
          "type": "address"
        }
      ],
      "stateMutability": "view",
      "type": "function"
    },
    {
      "inputs": [
        {
          "internalType": "address",
          "name": "_borrowerOperationsAddress",
          "type": "address"
        },
        {
          "internalType": "address",
          "name": "_troveManagerAddress",
          "type": "address"
        },
        {
          "internalType": "address",
          "name": "_activePoolAddress",
          "type": "address"
        },
        {
          "internalType": "address",
          "name": "_collateralAddress",
          "type": "address"
        }
      ],
      "name": "setAddresses",
      "outputs": [],
      "stateMutability": "nonpayable",
      "type": "function"
    },
    {
      "inputs": [
        {
          "internalType": "address",
          "name": "newOwner",
          "type": "address"
        }
      ],
      "name": "transferOwnership",
      "outputs": [],
      "stateMutability": "nonpayable",
      "type": "function"
    },
    {
      "inputs": [],
      "name": "troveManagerAddress",
      "outputs": [
        {
          "internalType": "address",
          "name": "",
          "type": "address"
        }
      ],
      "stateMutability": "view",
      "type": "function"
    },
    {
      "inputs": [
        {
          "internalType": "uint256",
          "name": "_amount",
          "type": "uint256"
        }
      ],
      "name": "updateCollateralBalance",
      "outputs": [],
      "stateMutability": "nonpayable",
      "type": "function"
    },
    {
      "stateMutability": "payable",
      "type": "receive"
    }
  ],
  "bytecode": "0x608060405234801561001057600080fd5b50600080546001600160a01b0319163390811782556040519091907f8be0079c531659141344cd1fd0a4f28419497f9722a3daafe3b4186f6b6457e0908290a3610e068061005f6000396000f3fe6080604052600436106100c15760003560e01c806398d99ee61161006f57806398d99ee61461025f5780639b56d6c91461027f578063a3f4df7e146102b5578063b08bc722146102fd578063b32beb5b1461031d578063b7f8cf9b1461033d578063f2fde38b1461035d57600080fd5b80631529a639146101635780633f10abab1461018757806348d399e7146101a95780634a945f8d146101d65780635a4d28bb146101f65780638da5cb5b146102165780638f32d59b1461023457600080fd5b3661015e576100ce61037d565b6003546001600160a01b0316156101445760405162461bcd60e51b815260206004820152602f60248201527f436f6c6c537572706c7573506f6f6c3a20636f6c6c61746572616c206d75737460448201526e1031329022a9219918103a37b5b2b760891b60648201526084015b60405180910390fd5b34600560008282546101569190610c16565b925050819055005b600080fd5b34801561016f57600080fd5b506005545b6040519081526020015b60405180910390f35b34801561019357600080fd5b506101a76101a2366004610c4b565b6103ec565b005b3480156101b557600080fd5b506003546101c9906001600160a01b031681565b60405161017e9190610c75565b3480156101e257600080fd5b506101a76101f1366004610c89565b610476565b34801561020257600080fd5b506004546101c9906001600160a01b031681565b34801561022257600080fd5b506000546001600160a01b03166101c9565b34801561024057600080fd5b506000546001600160a01b03163314604051901515815260200161017e565b34801561026b57600080fd5b506101a761027a366004610cdd565b610608565b34801561028b57600080fd5b5061017461029a366004610cf6565b6001600160a01b031660009081526006602052604090205490565b3480156102c157600080fd5b506102f06040518060400160405280600f81526020016e10dbdb1b14dd5c9c1b1d5cd41bdbdb608a1b81525081565b60405161017e9190610d18565b34801561030957600080fd5b506001546101c9906001600160a01b031681565b34801561032957600080fd5b506101a7610338366004610cf6565b610692565b34801561034957600080fd5b506002546101c9906001600160a01b031681565b34801561036957600080fd5b506101a7610378366004610cf6565b6107db565b6001546001600160a01b031633146103ea5760405162461bcd60e51b815260206004820152602a60248201527f436f6c6c537572706c7573506f6f6c3a2043616c6c6572206973206e6f74204160448201526918dd1a5d9948141bdbdb60b21b606482015260840161013b565b565b6103f4610876565b6001600160a01b038216600090815260066020526040812054610418908390610c16565b6001600160a01b0384166000818152600660205260409081902083905551919250907ff0393a34d05e6567686ad4e097f9d9d2781565957394f1f0d984e5d8e6378f20906104699084815260200190565b60405180910390a2505050565b6000546001600160a01b031633146104a05760405162461bcd60e51b815260040161013b90610d66565b6104a9846108e4565b6104b2836108e4565b6104bb826108e4565b6001600160a01b038116156104d3576104d3816108e4565b600280546001600160a01b038087166001600160a01b031992831617909255600480548684169083161790556001805485841690831617905560038054928416929091169190911790556040517f3ca631ffcd2a9b5d9ae18543fc82f58eb4ca33af9e6ab01b7a8e95331e6ed9859061054d908690610c75565b60405180910390a17f143219c9e69b09e07e095fcc889b43d8f46ca892bba65f08dc3a0050869a5678836040516105849190610c75565b60405180910390a17f78f058b189175430c48dc02699e3a0031ea4ff781536dc2fab847de4babdd882826040516105bb9190610c75565b60405180910390a17ffba7421f3d1a98e80d72491a6e0523133444a5842cc7310951d8b82d075a7dff816040516105f29190610c75565b60405180910390a1610602610989565b50505050565b61061061037d565b6003546001600160a01b03166106785760405162461bcd60e51b815260206004820152602760248201527f436f6c6c537572706c7573506f6f6c3a20636f6c6c61746572616c206d757374604482015266040c4ca408aa8960cb1b606482015260840161013b565b806005600082825461068a9190610c16565b909155505050565b61069a6109d3565b6001600160a01b0381166000908152600660205260409020548061071a5760405162461bcd60e51b815260206004820152603160248201527f436f6c6c537572706c7573506f6f6c3a204e6f20636f6c6c61746572616c20616044820152707661696c61626c6520746f20636c61696d60781b606482015260840161013b565b6001600160a01b0382166000818152600660209081526040808320839055519182527ff0393a34d05e6567686ad4e097f9d9d2781565957394f1f0d984e5d8e6378f20910160405180910390a280600560008282546107799190610d9b565b9091555050604080516001600160a01b0384168152602081018390527f342693d2465f6f44931e41128424a0227e0cbc69d1c3917a839e6de71696d44c910160405180910390a16003546107d7906001600160a01b03168383610a48565b5050565b6000546001600160a01b031633146108055760405162461bcd60e51b815260040161013b90610d66565b6001600160a01b03811661086a5760405162461bcd60e51b815260206004820152602660248201527f4f776e61626c653a206e6577206f776e657220697320746865207a65726f206160448201526564647265737360d01b606482015260840161013b565b61087381610bb0565b50565b6004546001600160a01b031633146103ea5760405162461bcd60e51b815260206004820152602b60248201527f436f6c6c537572706c7573506f6f6c3a2043616c6c6572206973206e6f74205460448201526a3937bb32a6b0b730b3b2b960a91b606482015260840161013b565b6001600160a01b03811661093a5760405162461bcd60e51b815260206004820152601e60248201527f4163636f756e742063616e6e6f74206265207a65726f20616464726573730000604482015260640161013b565b803b806107d75760405162461bcd60e51b815260206004820181905260248201527f4163636f756e7420636f64652073697a652063616e6e6f74206265207a65726f604482015260640161013b565b600080546040516001600160a01b03909116907f8be0079c531659141344cd1fd0a4f28419497f9722a3daafe3b4186f6b6457e0908390a3600080546001600160a01b0319169055565b6002546001600160a01b031633146103ea5760405162461bcd60e51b815260206004820152603260248201527f436f6c6c537572706c7573506f6f6c3a2043616c6c6572206973206e6f7420426044820152716f72726f776572204f7065726174696f6e7360701b606482015260840161013b565b6001600160a01b038316610aee576000826001600160a01b03168260405160006040518083038185875af1925050503d8060008114610aa3576040519150601f19603f3d011682016040523d82523d6000602084013e610aa8565b606091505b50509050806106025760405162461bcd60e51b815260206004820152601260248201527114d95b991a5b99c81155120819985a5b195960721b604482015260640161013b565b60405163a9059cbb60e01b81526001600160a01b038381166004830152602482018390526000919085169063a9059cbb906044016020604051808303816000875af1158015610b41573d6000803e3d6000fd5b505050506040513d601f19601f82011682018060405250810190610b659190610dae565b9050806106025760405162461bcd60e51b815260206004820152601960248201527814d95b991a5b99c818dbdb1b185d195c985b0819985a5b1959603a1b604482015260640161013b565b600080546001600160a01b038381166001600160a01b0319831681178455604051919092169283917f8be0079c531659141344cd1fd0a4f28419497f9722a3daafe3b4186f6b6457e09190a35050565b634e487b7160e01b600052601160045260246000fd5b80820180821115610c2957610c29610c00565b92915050565b80356001600160a01b0381168114610c4657600080fd5b919050565b60008060408385031215610c5e57600080fd5b610c6783610c2f565b946020939093013593505050565b6001600160a01b0391909116815260200190565b60008060008060808587031215610c9f57600080fd5b610ca885610c2f565b9350610cb660208601610c2f565b9250610cc460408601610c2f565b9150610cd260608601610c2f565b905092959194509250565b600060208284031215610cef57600080fd5b5035919050565b600060208284031215610d0857600080fd5b610d1182610c2f565b9392505050565b600060208083528351808285015260005b81811015610d4557858101830151858201604001528201610d29565b506000604082860101526040601f19601f8301168501019250505092915050565b6020808252818101527f4f776e61626c653a2063616c6c6572206973206e6f7420746865206f776e6572604082015260600190565b81810381811115610c2957610c29610c00565b600060208284031215610dc057600080fd5b81518015158114610d1157600080fdfea2646970667358221220c8b33bdd170eb89cc03ae7cf6503b931c74bc10a6baf4d2021350bf3127e68ea64736f6c63430008110033",
  "linkReferences": {},
  "deployedLinkReferences": {}
}