{
  "_format": "hh-sol-artifact-1",
  "contractName": "CropJoinAdapter",
  "sourceName": "contracts/B.Protocol/CropJoinAdapter.sol",
  "abi": [
    {
      "anonymous": false,
      "inputs": [
        {
          "indexed": false,
          "internalType": "uint256",
          "name": "val",
          "type": "uint256"
        }
      ],
      "name": "Exit",
      "type": "event"
    },
    {
      "anonymous": false,
      "inputs": [
        {
          "indexed": false,
          "internalType": "uint256",
          "name": "val",
          "type": "uint256"
        }
      ],
      "name": "Join",
      "type": "event"
    },
    {
      "anonymous": false,
      "inputs": [
        {
          "indexed": true,
          "internalType": "address",
          "name": "_from",
          "type": "address"
        },
        {
          "indexed": true,
          "internalType": "address",
          "name": "_to",
          "type": "address"
        },
        {
          "indexed": false,
          "internalType": "uint256",
          "name": "_value",
          "type": "uint256"
        }
      ],
      "name": "Transfer",
      "type": "event"
    },
    {
      "inputs": [
        {
          "internalType": "address",
          "name": "owner",
          "type": "address"
        }
      ],
      "name": "balanceOf",
      "outputs": [
        {
          "internalType": "uint256",
          "name": "balance",
          "type": "uint256"
        }
      ],
      "stateMutability": "view",
      "type": "function"
    },
    {
      "inputs": [],
      "name": "decimals",
      "outputs": [
        {
          "internalType": "uint256",
          "name": "",
          "type": "uint256"
        }
      ],
      "stateMutability": "view",
      "type": "function"
    },
    {
      "inputs": [],
      "name": "name",
      "outputs": [
        {
          "internalType": "string",
          "name": "",
          "type": "string"
        }
      ],
      "stateMutability": "view",
      "type": "function"
    },
    {
      "inputs": [
        {
          "internalType": "address",
          "name": "",
          "type": "address"
        }
      ],
      "name": "stake",
      "outputs": [
        {
          "internalType": "uint256",
          "name": "",
          "type": "uint256"
        }
      ],
      "stateMutability": "view",
      "type": "function"
    },
    {
      "inputs": [],
      "name": "symbol",
      "outputs": [
        {
          "internalType": "string",
          "name": "",
          "type": "string"
        }
      ],
      "stateMutability": "view",
      "type": "function"
    },
    {
      "inputs": [],
      "name": "total",
      "outputs": [
        {
          "internalType": "uint256",
          "name": "",
          "type": "uint256"
        }
      ],
      "stateMutability": "view",
      "type": "function"
    },
    {
      "inputs": [],
      "name": "totalSupply",
      "outputs": [
        {
          "internalType": "uint256",
          "name": "",
          "type": "uint256"
        }
      ],
      "stateMutability": "view",
      "type": "function"
    }
  ],
  "bytecode": "0x608060405234801561001057600080fd5b50610205806100206000396000f3fe608060405234801561001057600080fd5b506004361061006d5760003560e01c806306fdde031461007257806318160ddd146100bd57806326476204146100cf5780632ddbd13a146100ef578063313ce567146100f857806370a082311461010057806395d89b4114610129575b600080fd5b6100a760405180604001604052806016815260200175108b9053534815121554d10b50d3d31310551154905360521b81525081565b6040516100b49190610151565b60405180910390f35b6000545b6040519081526020016100b4565b6100c16100dd36600461019f565b60016020526000908152604090205481565b6100c160005481565b6100c1601281565b6100c161010e36600461019f565b6001600160a01b031660009081526001602052604090205490565b6100a76040518060400160405280600981526020016815121554d110d3d31360ba1b81525081565b600060208083528351808285015260005b8181101561017e57858101830151858201604001528201610162565b506000604082860101526040601f19601f8301168501019250505092915050565b6000602082840312156101b157600080fd5b81356001600160a01b03811681146101c857600080fd5b939250505056fea2646970667358221220f903050f31ab094452ad8e71c5d4d8325703e4151da770c06f346b5512ee5b2d64736f6c63430008110033",
  "linkReferences": {},
  "deployedLinkReferences": {}
}