{
  "_format": "hh-sol-artifact-1",
  "contractName": "DefaultPoolTester",
  "sourceName": "contracts/TestContracts/DefaultPoolTester.sol",
  "abi": [
    {
      "anonymous": false,
      "inputs": [
        {
          "indexed": false,
          "internalType": "address",
          "name": "_newActivePoolAddress",
          "type": "address"
        }
      ],
      "name": "ActivePoolAddressChanged",
      "type": "event"
    },
    {
      "anonymous": false,
      "inputs": [
        {
          "indexed": false,
          "internalType": "address",
          "name": "_newCollateralAddress",
          "type": "address"
        }
      ],
      "name": "CollateralAddressChanged",
      "type": "event"
    },
    {
      "anonymous": false,
      "inputs": [
        {
          "indexed": false,
          "internalType": "uint256",
          "name": "_newBalance",
          "type": "uint256"
        }
      ],
      "name": "CollateralBalanceUpdated",
      "type": "event"
    },
    {
      "anonymous": false,
      "inputs": [
        {
          "indexed": false,
          "internalType": "address",
          "name": "_to",
          "type": "address"
        },
        {
          "indexed": false,
          "internalType": "uint256",
          "name": "_amount",
          "type": "uint256"
        }
      ],
      "name": "CollateralSent",
      "type": "event"
    },
    {
      "anonymous": false,
      "inputs": [
        {
          "indexed": false,
          "internalType": "address",
          "name": "_newDefaultPoolAddress",
          "type": "address"
        }
      ],
      "name": "DefaultPoolAddressChanged",
      "type": "event"
    },
    {
      "anonymous": false,
      "inputs": [
        {
          "indexed": false,
          "internalType": "uint256",
          "name": "_collateral",
          "type": "uint256"
        }
      ],
      "name": "DefaultPoolCollateralBalanceUpdated",
      "type": "event"
    },
    {
      "anonymous": false,
      "inputs": [
        {
          "indexed": false,
          "internalType": "uint256",
          "name": "_THUSDDebt",
          "type": "uint256"
        }
      ],
      "name": "DefaultPoolTHUSDDebtUpdated",
      "type": "event"
    },
    {
      "anonymous": false,
      "inputs": [
        {
          "indexed": true,
          "internalType": "address",
          "name": "previousOwner",
          "type": "address"
        },
        {
          "indexed": true,
          "internalType": "address",
          "name": "newOwner",
          "type": "address"
        }
      ],
      "name": "OwnershipTransferred",
      "type": "event"
    },
    {
      "anonymous": false,
      "inputs": [
        {
          "indexed": false,
          "internalType": "address",
          "name": "_newStabilityPoolAddress",
          "type": "address"
        }
      ],
      "name": "StabilityPoolAddressChanged",
      "type": "event"
    },
    {
      "anonymous": false,
      "inputs": [
        {
          "indexed": false,
          "internalType": "uint256",
          "name": "_newBalance",
          "type": "uint256"
        }
      ],
      "name": "THUSDBalanceUpdated",
      "type": "event"
    },
    {
      "anonymous": false,
      "inputs": [
        {
          "indexed": false,
          "internalType": "address",
          "name": "_newTroveManagerAddress",
          "type": "address"
        }
      ],
      "name": "TroveManagerAddressChanged",
      "type": "event"
    },
    {
      "inputs": [],
      "name": "NAME",
      "outputs": [
        {
          "internalType": "string",
          "name": "",
          "type": "string"
        }
      ],
      "stateMutability": "view",
      "type": "function"
    },
    {
      "inputs": [],
      "name": "activePoolAddress",
      "outputs": [
        {
          "internalType": "address",
          "name": "",
          "type": "address"
        }
      ],
      "stateMutability": "view",
      "type": "function"
    },
    {
      "inputs": [],
      "name": "collateralAddress",
      "outputs": [
        {
          "internalType": "address",
          "name": "",
          "type": "address"
        }
      ],
      "stateMutability": "view",
      "type": "function"
    },
    {
      "inputs": [
        {
          "internalType": "uint256",
          "name": "_amount",
          "type": "uint256"
        }
      ],
      "name": "decreaseTHUSDDebt",
      "outputs": [],
      "stateMutability": "nonpayable",
      "type": "function"
    },
    {
      "inputs": [],
      "name": "getCollateralBalance",
      "outputs": [
        {
          "internalType": "uint256",
          "name": "",
          "type": "uint256"
        }
      ],
      "stateMutability": "view",
      "type": "function"
    },
    {
      "inputs": [],
      "name": "getTHUSDDebt",
      "outputs": [
        {
          "internalType": "uint256",
          "name": "",
          "type": "uint256"
        }
      ],
      "stateMutability": "view",
      "type": "function"
    },
    {
      "inputs": [
        {
          "internalType": "uint256",
          "name": "_amount",
          "type": "uint256"
        }
      ],
      "name": "increaseTHUSDDebt",
      "outputs": [],
      "stateMutability": "nonpayable",
      "type": "function"
    },
    {
      "inputs": [],
      "name": "isOwner",
      "outputs": [
        {
          "internalType": "bool",
          "name": "",
          "type": "bool"
        }
      ],
      "stateMutability": "view",
      "type": "function"
    },
    {
      "inputs": [],
      "name": "owner",
      "outputs": [
        {
          "internalType": "address",
          "name": "",
          "type": "address"
        }
      ],
      "stateMutability": "view",
      "type": "function"
    },
    {
      "inputs": [
        {
          "internalType": "uint256",
          "name": "_amount",
          "type": "uint256"
        }
      ],
      "name": "sendCollateralToActivePool",
      "outputs": [],
      "stateMutability": "nonpayable",
      "type": "function"
    },
    {
      "inputs": [
        {
          "internalType": "address",
          "name": "_troveManagerAddress",
          "type": "address"
        },
        {
          "internalType": "address",
          "name": "_activePoolAddress",
          "type": "address"
        },
        {
          "internalType": "address",
          "name": "_collateralAddress",
          "type": "address"
        }
      ],
      "name": "setAddresses",
      "outputs": [],
      "stateMutability": "nonpayable",
      "type": "function"
    },
    {
      "inputs": [
        {
          "internalType": "address",
          "name": "newOwner",
          "type": "address"
        }
      ],
      "name": "transferOwnership",
      "outputs": [],
      "stateMutability": "nonpayable",
      "type": "function"
    },
    {
      "inputs": [],
      "name": "troveManagerAddress",
      "outputs": [
        {
          "internalType": "address",
          "name": "",
          "type": "address"
        }
      ],
      "stateMutability": "view",
      "type": "function"
    },
    {
      "inputs": [
        {
          "internalType": "uint256",
          "name": "_amount",
          "type": "uint256"
        }
      ],
      "name": "unprotectedIncreaseTHUSDDebt",
      "outputs": [],
      "stateMutability": "nonpayable",
      "type": "function"
    },
    {
      "inputs": [],
      "name": "unprotectedPayable",
      "outputs": [],
      "stateMutability": "payable",
      "type": "function"
    },
    {
      "inputs": [
        {
          "internalType": "uint256",
          "name": "_amount",
          "type": "uint256"
        }
      ],
      "name": "updateCollateralBalance",
      "outputs": [],
      "stateMutability": "nonpayable",
      "type": "function"
    },
    {
      "stateMutability": "payable",
      "type": "receive"
    }
  ],
  "bytecode": "0x608060405234801561001057600080fd5b50600080546001600160a01b0319163390811782556040519091907f8be0079c531659141344cd1fd0a4f28419497f9722a3daafe3b4186f6b6457e0908290a3610d768061005f6000396000f3fe6080604052600436106100d75760003560e01c80638f32d59b1161007a5780638f32d59b146102a957806398d99ee6146102d4578063a3f4df7e146102f4578063b08bc72214610338578063f07424e914610358578063f2fde38b1461036d578063f3af7c3b1461038d578063f6ff93d61461039557600080fd5b80631529a6391461019857806326cefd46146101bc578063363bf964146101de57806342c31a23146101fe57806348d399e71461021e5780635a4d28bb1461024b5780637df175021461026b5780638da5cb5b1461028b57600080fd5b36610193576100e46103b5565b6002546001600160a01b0316156101565760405162461bcd60e51b815260206004820152602b60248201527f44656661756c74506f6f6c3a20636f6c6c61746572616c206d7573742062652060448201526a22a9219918103a37b5b2b760a91b60648201526084015b60405180910390fd5b34600460008282546101689190610ba1565b9091555050600454604051908152600080516020610d218339815191529060200160405180910390a1005b600080fd5b3480156101a457600080fd5b506004545b6040519081526020015b60405180910390f35b3480156101c857600080fd5b506101dc6101d7366004610bba565b610423565b005b3480156101ea57600080fd5b506101dc6101f9366004610bef565b61043d565b34801561020a57600080fd5b506101dc610219366004610bba565b610581565b34801561022a57600080fd5b5060025461023e906001600160a01b031681565b6040516101b39190610c32565b34801561025757600080fd5b5060035461023e906001600160a01b031681565b34801561027757600080fd5b506101dc610286366004610bba565b6105da565b34801561029757600080fd5b506000546001600160a01b031661023e565b3480156102b557600080fd5b506000546001600160a01b0316331460405190151581526020016101b3565b3480156102e057600080fd5b506101dc6102ef366004610bba565b6106fa565b34801561030057600080fd5b5061032b6040518060400160405280600b81526020016a111959985d5b1d141bdbdb60aa1b81525081565b6040516101b39190610c46565b34801561034457600080fd5b5060015461023e906001600160a01b031681565b34801561036457600080fd5b506005546101a9565b34801561037957600080fd5b506101dc610388366004610c94565b61079e565b6101dc610839565b3480156103a157600080fd5b506101dc6103b0366004610bba565b610852565b6001546001600160a01b031633146104215760405162461bcd60e51b815260206004820152602960248201527f44656661756c74506f6f6c3a2043616c6c6572206973206e6f7420746865204160448201526818dd1a5d99541bdbdb60ba1b606482015260840161014d565b565b80600560008282546104359190610ba1565b909155505050565b6000546001600160a01b031633146104675760405162461bcd60e51b815260040161014d90610cb6565b6104708361086c565b6104798261086c565b6001600160a01b03811615610491576104918161086c565b600380546001600160a01b038086166001600160a01b0319928316179092556001805485841690831617905560028054928416929091169190911790556040517f143219c9e69b09e07e095fcc889b43d8f46ca892bba65f08dc3a0050869a5678906104fe908590610c32565b60405180910390a17f78f058b189175430c48dc02699e3a0031ea4ff781536dc2fab847de4babdd882826040516105359190610c32565b60405180910390a17ffba7421f3d1a98e80d72491a6e0523133444a5842cc7310951d8b82d075a7dff8160405161056c9190610c32565b60405180910390a161057c610915565b505050565b61058961095f565b806005600082825461059b9190610ba1565b90915550506005546040519081527f3a96b36323b4ca65a873cb860720d87a4132b3b3165ba19bec799dc388dc32fd906020015b60405180910390a150565b6105e261095f565b600154600480546001600160a01b0390921691839190600090610606908490610ceb565b9091555050600454604051908152600080516020610d218339815191529060200160405180910390a1604080516001600160a01b0383168152602081018490527f342693d2465f6f44931e41128424a0227e0cbc69d1c3917a839e6de71696d44c910160405180910390a1600254610688906001600160a01b031682846109cd565b6002546001600160a01b031661069c575050565b604051634c6ccf7360e11b8152600481018390526001600160a01b038216906398d99ee690602401600060405180830381600087803b1580156106de57600080fd5b505af11580156106f2573d6000803e3d6000fd5b505050505050565b6107026103b5565b6002546001600160a01b03166107665760405162461bcd60e51b815260206004820152602360248201527f44656661756c74506f6f6c3a20636f6c6c61746572616c206d7573742062652060448201526208aa8960eb1b606482015260840161014d565b80600460008282546107789190610ba1565b9091555050600454604051908152600080516020610d21833981519152906020016105cf565b6000546001600160a01b031633146107c85760405162461bcd60e51b815260040161014d90610cb6565b6001600160a01b03811661082d5760405162461bcd60e51b815260206004820152602660248201527f4f776e61626c653a206e6577206f776e657220697320746865207a65726f206160448201526564647265737360d01b606482015260840161014d565b61083681610b3b565b50565b346004600082825461084b9190610ba1565b9091555050565b61085a61095f565b806005600082825461059b9190610ceb565b6001600160a01b0381166108c25760405162461bcd60e51b815260206004820152601e60248201527f4163636f756e742063616e6e6f74206265207a65726f20616464726573730000604482015260640161014d565b803b806109115760405162461bcd60e51b815260206004820181905260248201527f4163636f756e7420636f64652073697a652063616e6e6f74206265207a65726f604482015260640161014d565b5050565b600080546040516001600160a01b03909116907f8be0079c531659141344cd1fd0a4f28419497f9722a3daafe3b4186f6b6457e0908390a3600080546001600160a01b0319169055565b6003546001600160a01b031633146104215760405162461bcd60e51b815260206004820152602b60248201527f44656661756c74506f6f6c3a2043616c6c6572206973206e6f7420746865205460448201526a3937bb32a6b0b730b3b2b960a91b606482015260840161014d565b6001600160a01b038316610a79576000826001600160a01b03168260405160006040518083038185875af1925050503d8060008114610a28576040519150601f19603f3d011682016040523d82523d6000602084013e610a2d565b606091505b5050905080610a735760405162461bcd60e51b815260206004820152601260248201527114d95b991a5b99c81155120819985a5b195960721b604482015260640161014d565b50505050565b60405163a9059cbb60e01b81526001600160a01b038381166004830152602482018390526000919085169063a9059cbb906044016020604051808303816000875af1158015610acc573d6000803e3d6000fd5b505050506040513d601f19601f82011682018060405250810190610af09190610cfe565b905080610a735760405162461bcd60e51b815260206004820152601960248201527814d95b991a5b99c818dbdb1b185d195c985b0819985a5b1959603a1b604482015260640161014d565b600080546001600160a01b038381166001600160a01b0319831681178455604051919092169283917f8be0079c531659141344cd1fd0a4f28419497f9722a3daafe3b4186f6b6457e09190a35050565b634e487b7160e01b600052601160045260246000fd5b80820180821115610bb457610bb4610b8b565b92915050565b600060208284031215610bcc57600080fd5b5035919050565b80356001600160a01b0381168114610bea57600080fd5b919050565b600080600060608486031215610c0457600080fd5b610c0d84610bd3565b9250610c1b60208501610bd3565b9150610c2960408501610bd3565b90509250925092565b6001600160a01b0391909116815260200190565b600060208083528351808285015260005b81811015610c7357858101830151858201604001528201610c57565b506000604082860101526040601f19601f8301168501019250505092915050565b600060208284031215610ca657600080fd5b610caf82610bd3565b9392505050565b6020808252818101527f4f776e61626c653a2063616c6c6572206973206e6f7420746865206f776e6572604082015260600190565b81810381811115610bb457610bb4610b8b565b600060208284031215610d1057600080fd5b81518015158114610caf57600080fdfea7a66beb44646a3c65a43d8f42c1a68514ad28ce06bf8777e6209712ea56d807a26469706673582212206b8a6d95fce317d389a9838b50f8cfc09fac21a49d3878ad649e638019e1bbc464736f6c63430008110033",
  "linkReferences": {},
  "deployedLinkReferences": {}
}