{
  "_format": "hh-sol-artifact-1",
  "contractName": "DefaultPool",
  "sourceName": "contracts/DefaultPool.sol",
  "abi": [
    {
      "anonymous": false,
      "inputs": [
        {
          "indexed": false,
          "internalType": "address",
          "name": "_newActivePoolAddress",
          "type": "address"
        }
      ],
      "name": "ActivePoolAddressChanged",
      "type": "event"
    },
    {
      "anonymous": false,
      "inputs": [
        {
          "indexed": false,
          "internalType": "address",
          "name": "_newCollateralAddress",
          "type": "address"
        }
      ],
      "name": "CollateralAddressChanged",
      "type": "event"
    },
    {
      "anonymous": false,
      "inputs": [
        {
          "indexed": false,
          "internalType": "uint256",
          "name": "_newBalance",
          "type": "uint256"
        }
      ],
      "name": "CollateralBalanceUpdated",
      "type": "event"
    },
    {
      "anonymous": false,
      "inputs": [
        {
          "indexed": false,
          "internalType": "address",
          "name": "_to",
          "type": "address"
        },
        {
          "indexed": false,
          "internalType": "uint256",
          "name": "_amount",
          "type": "uint256"
        }
      ],
      "name": "CollateralSent",
      "type": "event"
    },
    {
      "anonymous": false,
      "inputs": [
        {
          "indexed": false,
          "internalType": "address",
          "name": "_newDefaultPoolAddress",
          "type": "address"
        }
      ],
      "name": "DefaultPoolAddressChanged",
      "type": "event"
    },
    {
      "anonymous": false,
      "inputs": [
        {
          "indexed": false,
          "internalType": "uint256",
          "name": "_collateral",
          "type": "uint256"
        }
      ],
      "name": "DefaultPoolCollateralBalanceUpdated",
      "type": "event"
    },
    {
      "anonymous": false,
      "inputs": [
        {
          "indexed": false,
          "internalType": "uint256",
          "name": "_THUSDDebt",
          "type": "uint256"
        }
      ],
      "name": "DefaultPoolTHUSDDebtUpdated",
      "type": "event"
    },
    {
      "anonymous": false,
      "inputs": [
        {
          "indexed": true,
          "internalType": "address",
          "name": "previousOwner",
          "type": "address"
        },
        {
          "indexed": true,
          "internalType": "address",
          "name": "newOwner",
          "type": "address"
        }
      ],
      "name": "OwnershipTransferred",
      "type": "event"
    },
    {
      "anonymous": false,
      "inputs": [
        {
          "indexed": false,
          "internalType": "address",
          "name": "_newStabilityPoolAddress",
          "type": "address"
        }
      ],
      "name": "StabilityPoolAddressChanged",
      "type": "event"
    },
    {
      "anonymous": false,
      "inputs": [
        {
          "indexed": false,
          "internalType": "uint256",
          "name": "_newBalance",
          "type": "uint256"
        }
      ],
      "name": "THUSDBalanceUpdated",
      "type": "event"
    },
    {
      "anonymous": false,
      "inputs": [
        {
          "indexed": false,
          "internalType": "address",
          "name": "_newTroveManagerAddress",
          "type": "address"
        }
      ],
      "name": "TroveManagerAddressChanged",
      "type": "event"
    },
    {
      "inputs": [],
      "name": "NAME",
      "outputs": [
        {
          "internalType": "string",
          "name": "",
          "type": "string"
        }
      ],
      "stateMutability": "view",
      "type": "function"
    },
    {
      "inputs": [],
      "name": "activePoolAddress",
      "outputs": [
        {
          "internalType": "address",
          "name": "",
          "type": "address"
        }
      ],
      "stateMutability": "view",
      "type": "function"
    },
    {
      "inputs": [],
      "name": "collateralAddress",
      "outputs": [
        {
          "internalType": "address",
          "name": "",
          "type": "address"
        }
      ],
      "stateMutability": "view",
      "type": "function"
    },
    {
      "inputs": [
        {
          "internalType": "uint256",
          "name": "_amount",
          "type": "uint256"
        }
      ],
      "name": "decreaseTHUSDDebt",
      "outputs": [],
      "stateMutability": "nonpayable",
      "type": "function"
    },
    {
      "inputs": [],
      "name": "getCollateralBalance",
      "outputs": [
        {
          "internalType": "uint256",
          "name": "",
          "type": "uint256"
        }
      ],
      "stateMutability": "view",
      "type": "function"
    },
    {
      "inputs": [],
      "name": "getTHUSDDebt",
      "outputs": [
        {
          "internalType": "uint256",
          "name": "",
          "type": "uint256"
        }
      ],
      "stateMutability": "view",
      "type": "function"
    },
    {
      "inputs": [
        {
          "internalType": "uint256",
          "name": "_amount",
          "type": "uint256"
        }
      ],
      "name": "increaseTHUSDDebt",
      "outputs": [],
      "stateMutability": "nonpayable",
      "type": "function"
    },
    {
      "inputs": [],
      "name": "isOwner",
      "outputs": [
        {
          "internalType": "bool",
          "name": "",
          "type": "bool"
        }
      ],
      "stateMutability": "view",
      "type": "function"
    },
    {
      "inputs": [],
      "name": "owner",
      "outputs": [
        {
          "internalType": "address",
          "name": "",
          "type": "address"
        }
      ],
      "stateMutability": "view",
      "type": "function"
    },
    {
      "inputs": [
        {
          "internalType": "uint256",
          "name": "_amount",
          "type": "uint256"
        }
      ],
      "name": "sendCollateralToActivePool",
      "outputs": [],
      "stateMutability": "nonpayable",
      "type": "function"
    },
    {
      "inputs": [
        {
          "internalType": "address",
          "name": "_troveManagerAddress",
          "type": "address"
        },
        {
          "internalType": "address",
          "name": "_activePoolAddress",
          "type": "address"
        },
        {
          "internalType": "address",
          "name": "_collateralAddress",
          "type": "address"
        }
      ],
      "name": "setAddresses",
      "outputs": [],
      "stateMutability": "nonpayable",
      "type": "function"
    },
    {
      "inputs": [
        {
          "internalType": "address",
          "name": "newOwner",
          "type": "address"
        }
      ],
      "name": "transferOwnership",
      "outputs": [],
      "stateMutability": "nonpayable",
      "type": "function"
    },
    {
      "inputs": [],
      "name": "troveManagerAddress",
      "outputs": [
        {
          "internalType": "address",
          "name": "",
          "type": "address"
        }
      ],
      "stateMutability": "view",
      "type": "function"
    },
    {
      "inputs": [
        {
          "internalType": "uint256",
          "name": "_amount",
          "type": "uint256"
        }
      ],
      "name": "updateCollateralBalance",
      "outputs": [],
      "stateMutability": "nonpayable",
      "type": "function"
    },
    {
      "stateMutability": "payable",
      "type": "receive"
    }
  ],
  "bytecode": "0x608060405234801561001057600080fd5b50600080546001600160a01b0319163390811782556040519091907f8be0079c531659141344cd1fd0a4f28419497f9722a3daafe3b4186f6b6457e0908290a3610d058061005f6000396000f3fe6080604052600436106100c15760003560e01c80638f32d59b1161006f5780638f32d59b1461027357806398d99ee61461029e578063a3f4df7e146102be578063b08bc72214610302578063f07424e914610322578063f2fde38b14610337578063f6ff93d61461035757600080fd5b80631529a63914610182578063363bf964146101a657806342c31a23146101c857806348d399e7146101e85780635a4d28bb146102155780637df17502146102355780638da5cb5b1461025557600080fd5b3661017d576100ce610377565b6002546001600160a01b0316156101405760405162461bcd60e51b815260206004820152602b60248201527f44656661756c74506f6f6c3a20636f6c6c61746572616c206d7573742062652060448201526a22a9219918103a37b5b2b760a91b60648201526084015b60405180910390fd5b34600460008282546101529190610b30565b9091555050600454604051908152600080516020610cb08339815191529060200160405180910390a1005b600080fd5b34801561018e57600080fd5b506004545b6040519081526020015b60405180910390f35b3480156101b257600080fd5b506101c66101c1366004610b65565b6103e5565b005b3480156101d457600080fd5b506101c66101e3366004610ba8565b610529565b3480156101f457600080fd5b50600254610208906001600160a01b031681565b60405161019d9190610bc1565b34801561022157600080fd5b50600354610208906001600160a01b031681565b34801561024157600080fd5b506101c6610250366004610ba8565b610582565b34801561026157600080fd5b506000546001600160a01b0316610208565b34801561027f57600080fd5b506000546001600160a01b03163314604051901515815260200161019d565b3480156102aa57600080fd5b506101c66102b9366004610ba8565b6106a2565b3480156102ca57600080fd5b506102f56040518060400160405280600b81526020016a111959985d5b1d141bdbdb60aa1b81525081565b60405161019d9190610bd5565b34801561030e57600080fd5b50600154610208906001600160a01b031681565b34801561032e57600080fd5b50600554610193565b34801561034357600080fd5b506101c6610352366004610c23565b610746565b34801561036357600080fd5b506101c6610372366004610ba8565b6107e1565b6001546001600160a01b031633146103e35760405162461bcd60e51b815260206004820152602960248201527f44656661756c74506f6f6c3a2043616c6c6572206973206e6f7420746865204160448201526818dd1a5d99541bdbdb60ba1b6064820152608401610137565b565b6000546001600160a01b0316331461040f5760405162461bcd60e51b815260040161013790610c45565b610418836107fb565b610421826107fb565b6001600160a01b0381161561043957610439816107fb565b600380546001600160a01b038086166001600160a01b0319928316179092556001805485841690831617905560028054928416929091169190911790556040517f143219c9e69b09e07e095fcc889b43d8f46ca892bba65f08dc3a0050869a5678906104a6908590610bc1565b60405180910390a17f78f058b189175430c48dc02699e3a0031ea4ff781536dc2fab847de4babdd882826040516104dd9190610bc1565b60405180910390a17ffba7421f3d1a98e80d72491a6e0523133444a5842cc7310951d8b82d075a7dff816040516105149190610bc1565b60405180910390a16105246108a4565b505050565b6105316108ee565b80600560008282546105439190610b30565b90915550506005546040519081527f3a96b36323b4ca65a873cb860720d87a4132b3b3165ba19bec799dc388dc32fd906020015b60405180910390a150565b61058a6108ee565b600154600480546001600160a01b03909216918391906000906105ae908490610c7a565b9091555050600454604051908152600080516020610cb08339815191529060200160405180910390a1604080516001600160a01b0383168152602081018490527f342693d2465f6f44931e41128424a0227e0cbc69d1c3917a839e6de71696d44c910160405180910390a1600254610630906001600160a01b0316828461095c565b6002546001600160a01b0316610644575050565b604051634c6ccf7360e11b8152600481018390526001600160a01b038216906398d99ee690602401600060405180830381600087803b15801561068657600080fd5b505af115801561069a573d6000803e3d6000fd5b505050505050565b6106aa610377565b6002546001600160a01b031661070e5760405162461bcd60e51b815260206004820152602360248201527f44656661756c74506f6f6c3a20636f6c6c61746572616c206d7573742062652060448201526208aa8960eb1b6064820152608401610137565b80600460008282546107209190610b30565b9091555050600454604051908152600080516020610cb083398151915290602001610577565b6000546001600160a01b031633146107705760405162461bcd60e51b815260040161013790610c45565b6001600160a01b0381166107d55760405162461bcd60e51b815260206004820152602660248201527f4f776e61626c653a206e6577206f776e657220697320746865207a65726f206160448201526564647265737360d01b6064820152608401610137565b6107de81610aca565b50565b6107e96108ee565b80600560008282546105439190610c7a565b6001600160a01b0381166108515760405162461bcd60e51b815260206004820152601e60248201527f4163636f756e742063616e6e6f74206265207a65726f206164647265737300006044820152606401610137565b803b806108a05760405162461bcd60e51b815260206004820181905260248201527f4163636f756e7420636f64652073697a652063616e6e6f74206265207a65726f6044820152606401610137565b5050565b600080546040516001600160a01b03909116907f8be0079c531659141344cd1fd0a4f28419497f9722a3daafe3b4186f6b6457e0908390a3600080546001600160a01b0319169055565b6003546001600160a01b031633146103e35760405162461bcd60e51b815260206004820152602b60248201527f44656661756c74506f6f6c3a2043616c6c6572206973206e6f7420746865205460448201526a3937bb32a6b0b730b3b2b960a91b6064820152608401610137565b6001600160a01b038316610a08576000826001600160a01b03168260405160006040518083038185875af1925050503d80600081146109b7576040519150601f19603f3d011682016040523d82523d6000602084013e6109bc565b606091505b5050905080610a025760405162461bcd60e51b815260206004820152601260248201527114d95b991a5b99c81155120819985a5b195960721b6044820152606401610137565b50505050565b60405163a9059cbb60e01b81526001600160a01b038381166004830152602482018390526000919085169063a9059cbb906044016020604051808303816000875af1158015610a5b573d6000803e3d6000fd5b505050506040513d601f19601f82011682018060405250810190610a7f9190610c8d565b905080610a025760405162461bcd60e51b815260206004820152601960248201527814d95b991a5b99c818dbdb1b185d195c985b0819985a5b1959603a1b6044820152606401610137565b600080546001600160a01b038381166001600160a01b0319831681178455604051919092169283917f8be0079c531659141344cd1fd0a4f28419497f9722a3daafe3b4186f6b6457e09190a35050565b634e487b7160e01b600052601160045260246000fd5b80820180821115610b4357610b43610b1a565b92915050565b80356001600160a01b0381168114610b6057600080fd5b919050565b600080600060608486031215610b7a57600080fd5b610b8384610b49565b9250610b9160208501610b49565b9150610b9f60408501610b49565b90509250925092565b600060208284031215610bba57600080fd5b5035919050565b6001600160a01b0391909116815260200190565b600060208083528351808285015260005b81811015610c0257858101830151858201604001528201610be6565b506000604082860101526040601f19601f8301168501019250505092915050565b600060208284031215610c3557600080fd5b610c3e82610b49565b9392505050565b6020808252818101527f4f776e61626c653a2063616c6c6572206973206e6f7420746865206f776e6572604082015260600190565b81810381811115610b4357610b43610b1a565b600060208284031215610c9f57600080fd5b81518015158114610c3e57600080fdfea7a66beb44646a3c65a43d8f42c1a68514ad28ce06bf8777e6209712ea56d807a26469706673582212205be6263b785ae0beb60d1976f34c164f00d3c140ce72876e684b64270153f7e464736f6c63430008110033",
  "linkReferences": {},
  "deployedLinkReferences": {}
}