{
  "_format": "hh-sol-artifact-1",
  "contractName": "Destructible",
  "sourceName": "contracts/TestContracts/Destructible.sol",
  "abi": [
    {
      "inputs": [
        {
          "internalType": "address payable",
          "name": "_receiver",
          "type": "address"
        }
      ],
      "name": "destruct",
      "outputs": [],
      "stateMutability": "nonpayable",
      "type": "function"
    },
    {
      "stateMutability": "payable",
      "type": "receive"
    }
  ],
  "bytecode": "0x608060405234801561001057600080fd5b5060b88061001f6000396000f3fe60806040526004361060205760003560e01c80631beb261514602b57600080fd5b36602657005b600080fd5b348015603657600080fd5b50604660423660046054565b6048565b005b806001600160a01b0316ff5b600060208284031215606557600080fd5b81356001600160a01b0381168114607b57600080fd5b939250505056fea26469706673582212206ea5a2e8d22df18d3c60e40ae23ef5428098de2ceac2bf98ff2ee77f261f3e5264736f6c63430008110033",
  "linkReferences": {},
  "deployedLinkReferences": {}
}