{
  "_format": "hh-sol-artifact-1",
  "contractName": "DSAuth",
  "sourceName": "contracts/TestContracts/DappSys/proxy.sol",
  "abi": [
    {
      "inputs": [],
      "stateMutability": "nonpayable",
      "type": "constructor"
    },
    {
      "anonymous": false,
      "inputs": [
        {
          "indexed": true,
          "internalType": "address",
          "name": "authority",
          "type": "address"
        }
      ],
      "name": "LogSetAuthority",
      "type": "event"
    },
    {
      "anonymous": false,
      "inputs": [
        {
          "indexed": true,
          "internalType": "address",
          "name": "owner",
          "type": "address"
        }
      ],
      "name": "LogSetOwner",
      "type": "event"
    },
    {
      "inputs": [],
      "name": "authority",
      "outputs": [
        {
          "internalType": "contract DSAuthority",
          "name": "",
          "type": "address"
        }
      ],
      "stateMutability": "view",
      "type": "function"
    },
    {
      "inputs": [],
      "name": "owner",
      "outputs": [
        {
          "internalType": "address",
          "name": "",
          "type": "address"
        }
      ],
      "stateMutability": "view",
      "type": "function"
    },
    {
      "inputs": [
        {
          "internalType": "contract DSAuthority",
          "name": "authority_",
          "type": "address"
        }
      ],
      "name": "setAuthority",
      "outputs": [],
      "stateMutability": "nonpayable",
      "type": "function"
    },
    {
      "inputs": [
        {
          "internalType": "address",
          "name": "owner_",
          "type": "address"
        }
      ],
      "name": "setOwner",
      "outputs": [],
      "stateMutability": "nonpayable",
      "type": "function"
    }
  ],
  "bytecode": "0x608060405234801561001057600080fd5b50600180546001600160a01b031916339081179091556040517fce241d7ca1f669fee44b6fc00b8eba2df3bb514eed0f6f668f8f89096e81ed9490600090a26102fc8061005e6000396000f3fe608060405234801561001057600080fd5b506004361061004c5760003560e01c806313af4035146100515780637a9e5e4b146100665780638da5cb5b14610079578063bf7e214f146100a8575b600080fd5b61006461005f366004610280565b6100bb565b005b610064610074366004610280565b610124565b60015461008c906001600160a01b031681565b6040516001600160a01b03909116815260200160405180910390f35b60005461008c906001600160a01b031681565b6100d1336000356001600160e01b03191661018b565b6100da57600080fd5b600180546001600160a01b0319166001600160a01b0383169081179091556040517fce241d7ca1f669fee44b6fc00b8eba2df3bb514eed0f6f668f8f89096e81ed9490600090a250565b61013a336000356001600160e01b03191661018b565b61014357600080fd5b600080546001600160a01b0319166001600160a01b038316908117825560405190917f1abebea81bfa2637f28358c371278fb15ede7ea8dd28d2e03b112ff6d936ada491a250565b6000306001600160a01b038416036101a557506001610262565b6001546001600160a01b03908116908416036101c357506001610262565b6000546001600160a01b03166101db57506000610262565b60005460405163b700961360e01b81526001600160a01b0385811660048301523060248301526001600160e01b0319851660448301529091169063b700961390606401602060405180830381865afa15801561023b573d6000803e3d6000fd5b505050506040513d601f19601f8201168201806040525081019061025f91906102a4565b90505b92915050565b6001600160a01b038116811461027d57600080fd5b50565b60006020828403121561029257600080fd5b813561029d81610268565b9392505050565b6000602082840312156102b657600080fd5b8151801515811461029d57600080fdfea26469706673582212206f55272e19edb71dce67b54df6c240c8cdcabb95e93570aa50dfce720576a58464736f6c63430008110033",
  "linkReferences": {},
  "deployedLinkReferences": {}
}