{
  "_format": "hh-sol-artifact-1",
  "contractName": "DSProxyFactory",
  "sourceName": "contracts/TestContracts/DappSys/proxy.sol",
  "abi": [
    {
      "anonymous": false,
      "inputs": [
        {
          "indexed": true,
          "internalType": "address",
          "name": "sender",
          "type": "address"
        },
        {
          "indexed": true,
          "internalType": "address",
          "name": "owner",
          "type": "address"
        },
        {
          "indexed": false,
          "internalType": "address",
          "name": "proxy",
          "type": "address"
        },
        {
          "indexed": false,
          "internalType": "address",
          "name": "cache",
          "type": "address"
        }
      ],
      "name": "Created",
      "type": "event"
    },
    {
      "inputs": [],
      "name": "build",
      "outputs": [
        {
          "internalType": "contract DSProxy",
          "name": "proxy",
          "type": "address"
        }
      ],
      "stateMutability": "nonpayable",
      "type": "function"
    },
    {
      "inputs": [
        {
          "internalType": "address",
          "name": "owner",
          "type": "address"
        }
      ],
      "name": "build",
      "outputs": [
        {
          "internalType": "contract DSProxy",
          "name": "proxy",
          "type": "address"
        }
      ],
      "stateMutability": "nonpayable",
      "type": "function"
    },
    {
      "inputs": [],
      "name": "cache",
      "outputs": [
        {
          "internalType": "contract DSProxyCache",
          "name": "",
          "type": "address"
        }
      ],
      "stateMutability": "view",
      "type": "function"
    },
    {
      "inputs": [
        {
          "internalType": "address",
          "name": "",
          "type": "address"
        }
      ],
      "name": "isProxy",
      "outputs": [
        {
          "internalType": "bool",
          "name": "",
          "type": "bool"
        }
      ],
      "stateMutability": "view",
      "type": "function"
    }
  ],
  "bytecode": "0x60806040526040516100109061005f565b604051809103906000f08015801561002c573d6000803e3d6000fd5b50600180546001600160a01b0319166001600160a01b039290921691909117905534801561005957600080fd5b5061006c565b61020780610cf683390190565b610c7b8061007b6000396000f3fe608060405234801561001057600080fd5b506004361061004c5760003560e01c8063297103881461005157806360c7d295146100895780638e1a55fc146100a9578063f3701da2146100b1575b600080fd5b61007461005f3660046101fa565b60006020819052908152604090205460ff1681565b60405190151581526020015b60405180910390f35b60015461009c906001600160a01b031681565b604051610080919061022a565b61009c6100c4565b61009c6100bf3660046101fa565b6100d4565b60006100cf336100d4565b905090565b6001546040516000916001600160a01b0316906100f0906101ed565b6100fa919061022a565b604051809103906000f080158015610116573d6000803e3d6000fd5b50600154604080516001600160a01b03808516825292831660208201529293509084169133917f259b30ca39885c6d801a0b5dbc988640f3c25e2f37531fe138c5c5af8955d41b910160405180910390a36040516313af403560e01b81526001600160a01b038216906313af40359061019390859060040161022a565b600060405180830381600087803b1580156101ad57600080fd5b505af11580156101c1573d6000803e3d6000fd5b5050506001600160a01b0382166000908152602081905260409020805460ff1916600117905550919050565b610a078061023f83390190565b60006020828403121561020c57600080fd5b81356001600160a01b038116811461022357600080fd5b9392505050565b6001600160a01b039190911681526020019056fe608060405234801561001057600080fd5b50604051610a07380380610a0783398101604081905261002f916101ba565b600180546001600160a01b031916339081179091556040517fce241d7ca1f669fee44b6fc00b8eba2df3bb514eed0f6f668f8f89096e81ed9490600090a261007681610085565b61007f57600080fd5b5061020c565b600061009c336001600160e01b03198335166100dd565b6100a557600080fd5b6001600160a01b0382166100b857600080fd5b50600280546001600160a01b0383166001600160a01b03199091161790556001919050565b6000306001600160a01b038416036100f7575060016101b4565b6001546001600160a01b0390811690841603610115575060016101b4565b6000546001600160a01b031661012d575060006101b4565b60005460405163b700961360e01b81526001600160a01b0385811660048301523060248301526001600160e01b0319851660448301529091169063b700961390606401602060405180830381865afa15801561018d573d6000803e3d6000fd5b505050506040513d601f19601f820116820180604052508101906101b191906101ea565b90505b92915050565b6000602082840312156101cc57600080fd5b81516001600160a01b03811681146101e357600080fd5b9392505050565b6000602082840312156101fc57600080fd5b815180151581146101e357600080fd5b6107ec8061021b6000396000f3fe60806040526004361061006f5760003560e01c806313af40351461007b5780631cff79cd1461009d5780631f6a1eb9146100c357806360c7d295146100f55780637a9e5e4b1461012d5780638da5cb5b1461014d578063948f50761461016d578063bf7e214f1461019d57600080fd5b3661007657005b600080fd5b34801561008757600080fd5b5061009b610096366004610582565b6101bd565b005b6100b06100ab366004610649565b610226565b6040519081526020015b60405180910390f35b6100d66100d1366004610699565b6102be565b604080516001600160a01b0390931683526020830191909152016100ba565b34801561010157600080fd5b50600254610115906001600160a01b031681565b6040516001600160a01b0390911681526020016100ba565b34801561013957600080fd5b5061009b610148366004610582565b6103cd565b34801561015957600080fd5b50600154610115906001600160a01b031681565b34801561017957600080fd5b5061018d610188366004610582565b610434565b60405190151581526020016100ba565b3480156101a957600080fd5b50600054610115906001600160a01b031681565b6101d3336000356001600160e01b03191661048d565b6101dc57600080fd5b600180546001600160a01b0319166001600160a01b0383169081179091556040517fce241d7ca1f669fee44b6fc00b8eba2df3bb514eed0f6f668f8f89096e81ed9490600090a250565b600061023e336000356001600160e01b03191661048d565b61024757600080fd5b6040516004359060243590819083903390600080356001600160e01b0319169161027491349136906106f3565b60405180910390a46001600160a01b03851661028f57600080fd5b60206000855160208701886113885a03f460005193508015600181036102b457600080fd5b5050505092915050565b6002546040516322fd145760e21b815260009182916001600160a01b0390911690638bf4515c906102f3908790600401610729565b602060405180830381865afa158015610310573d6000803e3d6000fd5b505050506040513d601f19601f820116820180604052508101906103349190610777565b91506001600160a01b0382166103ba57600254604051633f6861d960e11b81526001600160a01b0390911690637ed0c3b290610374908790600401610729565b6020604051808303816000875af1158015610393573d6000803e3d6000fd5b505050506040513d601f19601f820116820180604052508101906103b79190610777565b91505b6103c48284610226565b90509250929050565b6103e3336000356001600160e01b03191661048d565b6103ec57600080fd5b600080546001600160a01b0319166001600160a01b038316908117825560405190917f1abebea81bfa2637f28358c371278fb15ede7ea8dd28d2e03b112ff6d936ada491a250565b600061044c336000356001600160e01b03191661048d565b61045557600080fd5b6001600160a01b03821661046857600080fd5b50600280546001600160a01b0383166001600160a01b03199091161790556001919050565b6000306001600160a01b038416036104a757506001610564565b6001546001600160a01b03908116908416036104c557506001610564565b6000546001600160a01b03166104dd57506000610564565b60005460405163b700961360e01b81526001600160a01b0385811660048301523060248301526001600160e01b0319851660448301529091169063b700961390606401602060405180830381865afa15801561053d573d6000803e3d6000fd5b505050506040513d601f19601f820116820180604052508101906105619190610794565b90505b92915050565b6001600160a01b038116811461057f57600080fd5b50565b60006020828403121561059457600080fd5b813561059f8161056a565b9392505050565b634e487b7160e01b600052604160045260246000fd5b600082601f8301126105cd57600080fd5b813567ffffffffffffffff808211156105e8576105e86105a6565b604051601f8301601f19908116603f01168101908282118183101715610610576106106105a6565b8160405283815286602085880101111561062957600080fd5b836020870160208301376000602085830101528094505050505092915050565b6000806040838503121561065c57600080fd5b82356106678161056a565b9150602083013567ffffffffffffffff81111561068357600080fd5b61068f858286016105bc565b9150509250929050565b600080604083850312156106ac57600080fd5b823567ffffffffffffffff808211156106c457600080fd5b6106d0868387016105bc565b935060208501359150808211156106e657600080fd5b5061068f858286016105bc565b83815260406020820152816040820152818360608301376000818301606090810191909152601f909201601f1916010192915050565b600060208083528351808285015260005b818110156107565785810183015185820160400152820161073a565b506000604082860101526040601f19601f8301168501019250505092915050565b60006020828403121561078957600080fd5b815161059f8161056a565b6000602082840312156107a657600080fd5b8151801515811461059f57600080fdfea26469706673582212202c14d96da4dc0a447a45ea23236da804f919ed2be0b8461673c6fd00e1b380b164736f6c63430008110033a2646970667358221220786dd3e345d28a484df880bfd456f120afc5f38219197c33c848181a01794fbd64736f6c63430008110033608060405234801561001057600080fd5b506101e7806100206000396000f3fe608060405234801561001057600080fd5b50600436106100365760003560e01c80637ed0c3b21461003b5780638bf4515c1461006a575b600080fd5b61004e610049366004610100565b61009a565b6040516001600160a01b03909116815260200160405180910390f35b61004e610078366004610100565b805160209182012060009081529081905260409020546001600160a01b031690565b60008151602083016000f09050803b15600181036100b757600080fd5b508151602092830120600090815291829052604090912080546001600160a01b0319166001600160a01b03831617905590565b634e487b7160e01b600052604160045260246000fd5b60006020828403121561011257600080fd5b813567ffffffffffffffff8082111561012a57600080fd5b818401915084601f83011261013e57600080fd5b813581811115610150576101506100ea565b604051601f8201601f19908116603f01168101908382118183101715610178576101786100ea565b8160405282815287602084870101111561019157600080fd5b82602086016020830137600092810160200192909252509594505050505056fea2646970667358221220e2ca6f120fd89b4e54bd5e5135987afce98fdd7bdd0b9223075c83fc0449cc0f64736f6c63430008110033",
  "linkReferences": {},
  "deployedLinkReferences": {}
}