{
  "_format": "hh-sol-artifact-1",
  "contractName": "DSProxyCache",
  "sourceName": "contracts/TestContracts/DappSys/proxy.sol",
  "abi": [
    {
      "inputs": [
        {
          "internalType": "bytes",
          "name": "_code",
          "type": "bytes"
        }
      ],
      "name": "read",
      "outputs": [
        {
          "internalType": "address",
          "name": "",
          "type": "address"
        }
      ],
      "stateMutability": "view",
      "type": "function"
    },
    {
      "inputs": [
        {
          "internalType": "bytes",
          "name": "_code",
          "type": "bytes"
        }
      ],
      "name": "write",
      "outputs": [
        {
          "internalType": "address",
          "name": "target",
          "type": "address"
        }
      ],
      "stateMutability": "nonpayable",
      "type": "function"
    }
  ],
  "bytecode": "0x608060405234801561001057600080fd5b506101e7806100206000396000f3fe608060405234801561001057600080fd5b50600436106100365760003560e01c80637ed0c3b21461003b5780638bf4515c1461006a575b600080fd5b61004e610049366004610100565b61009a565b6040516001600160a01b03909116815260200160405180910390f35b61004e610078366004610100565b805160209182012060009081529081905260409020546001600160a01b031690565b60008151602083016000f09050803b15600181036100b757600080fd5b508151602092830120600090815291829052604090912080546001600160a01b0319166001600160a01b03831617905590565b634e487b7160e01b600052604160045260246000fd5b60006020828403121561011257600080fd5b813567ffffffffffffffff8082111561012a57600080fd5b818401915084601f83011261013e57600080fd5b813581811115610150576101506100ea565b604051601f8201601f19908116603f01168101908382118183101715610178576101786100ea565b8160405282815287602084870101111561019157600080fd5b82602086016020830137600092810160200192909252509594505050505056fea2646970667358221220e2ca6f120fd89b4e54bd5e5135987afce98fdd7bdd0b9223075c83fc0449cc0f64736f6c63430008110033",
  "linkReferences": {},
  "deployedLinkReferences": {}
}