{
  "_format": "hh-sol-artifact-1",
  "contractName": "EchidnaTester",
  "sourceName": "contracts/TestContracts/EchidnaTester.sol",
  "abi": [
    {
      "inputs": [],
      "stateMutability": "payable",
      "type": "constructor"
    },
    {
      "inputs": [],
      "name": "activePool",
      "outputs": [
        {
          "internalType": "contract ActivePool",
          "name": "",
          "type": "address"
        }
      ],
      "stateMutability": "view",
      "type": "function"
    },
    {
      "inputs": [
        {
          "internalType": "uint256",
          "name": "_i",
          "type": "uint256"
        },
        {
          "internalType": "uint256",
          "name": "_collateral",
          "type": "uint256"
        }
      ],
      "name": "addCollExt",
      "outputs": [],
      "stateMutability": "payable",
      "type": "function"
    },
    {
      "inputs": [
        {
          "internalType": "uint256",
          "name": "_i",
          "type": "uint256"
        },
        {
          "internalType": "uint256",
          "name": "_collateral",
          "type": "uint256"
        },
        {
          "internalType": "address",
          "name": "_upperHint",
          "type": "address"
        },
        {
          "internalType": "address",
          "name": "_lowerHint",
          "type": "address"
        }
      ],
      "name": "addCollRawExt",
      "outputs": [],
      "stateMutability": "payable",
      "type": "function"
    },
    {
      "inputs": [
        {
          "internalType": "uint256",
          "name": "_i",
          "type": "uint256"
        },
        {
          "internalType": "uint256",
          "name": "_collateral",
          "type": "uint256"
        },
        {
          "internalType": "uint256",
          "name": "_collWithdrawal",
          "type": "uint256"
        },
        {
          "internalType": "uint256",
          "name": "_debtChange",
          "type": "uint256"
        },
        {
          "internalType": "bool",
          "name": "_isDebtIncrease",
          "type": "bool"
        }
      ],
      "name": "adjustTroveExt",
      "outputs": [],
      "stateMutability": "payable",
      "type": "function"
    },
    {
      "inputs": [
        {
          "internalType": "uint256",
          "name": "_i",
          "type": "uint256"
        },
        {
          "internalType": "uint256",
          "name": "_collateral",
          "type": "uint256"
        },
        {
          "internalType": "uint256",
          "name": "_collWithdrawal",
          "type": "uint256"
        },
        {
          "internalType": "uint256",
          "name": "_debtChange",
          "type": "uint256"
        },
        {
          "internalType": "bool",
          "name": "_isDebtIncrease",
          "type": "bool"
        },
        {
          "internalType": "address",
          "name": "_upperHint",
          "type": "address"
        },
        {
          "internalType": "address",
          "name": "_lowerHint",
          "type": "address"
        },
        {
          "internalType": "uint256",
          "name": "_maxFee",
          "type": "uint256"
        }
      ],
      "name": "adjustTroveRawExt",
      "outputs": [],
      "stateMutability": "payable",
      "type": "function"
    },
    {
      "inputs": [
        {
          "internalType": "uint256",
          "name": "_i",
          "type": "uint256"
        },
        {
          "internalType": "address",
          "name": "spender",
          "type": "address"
        },
        {
          "internalType": "uint256",
          "name": "amount",
          "type": "uint256"
        }
      ],
      "name": "approveExt",
      "outputs": [
        {
          "internalType": "bool",
          "name": "",
          "type": "bool"
        }
      ],
      "stateMutability": "nonpayable",
      "type": "function"
    },
    {
      "inputs": [
        {
          "internalType": "uint256",
          "name": "_i",
          "type": "uint256"
        },
        {
          "internalType": "address[]",
          "name": "_troveArray",
          "type": "address[]"
        }
      ],
      "name": "batchLiquidateTrovesExt",
      "outputs": [],
      "stateMutability": "nonpayable",
      "type": "function"
    },
    {
      "inputs": [],
      "name": "borrowerOperations",
      "outputs": [
        {
          "internalType": "contract BorrowerOperations",
          "name": "",
          "type": "address"
        }
      ],
      "stateMutability": "view",
      "type": "function"
    },
    {
      "inputs": [
        {
          "internalType": "uint256",
          "name": "_i",
          "type": "uint256"
        }
      ],
      "name": "closeTroveExt",
      "outputs": [],
      "stateMutability": "nonpayable",
      "type": "function"
    },
    {
      "inputs": [],
      "name": "collSurplusPool",
      "outputs": [
        {
          "internalType": "contract CollSurplusPool",
          "name": "",
          "type": "address"
        }
      ],
      "stateMutability": "view",
      "type": "function"
    },
    {
      "inputs": [
        {
          "internalType": "uint256",
          "name": "_i",
          "type": "uint256"
        },
        {
          "internalType": "address",
          "name": "spender",
          "type": "address"
        },
        {
          "internalType": "uint256",
          "name": "subtractedValue",
          "type": "uint256"
        }
      ],
      "name": "decreaseAllowanceExt",
      "outputs": [
        {
          "internalType": "bool",
          "name": "",
          "type": "bool"
        }
      ],
      "stateMutability": "nonpayable",
      "type": "function"
    },
    {
      "inputs": [],
      "name": "defaultPool",
      "outputs": [
        {
          "internalType": "contract DefaultPool",
          "name": "",
          "type": "address"
        }
      ],
      "stateMutability": "view",
      "type": "function"
    },
    {
      "inputs": [
        {
          "internalType": "uint256",
          "name": "",
          "type": "uint256"
        }
      ],
      "name": "echidnaProxies",
      "outputs": [
        {
          "internalType": "contract EchidnaProxy",
          "name": "",
          "type": "address"
        }
      ],
      "stateMutability": "view",
      "type": "function"
    },
    {
      "inputs": [],
      "name": "echidna_THUSD_global_balances",
      "outputs": [
        {
          "internalType": "bool",
          "name": "",
          "type": "bool"
        }
      ],
      "stateMutability": "view",
      "type": "function"
    },
    {
      "inputs": [],
      "name": "echidna_canary_active_pool_balance",
      "outputs": [
        {
          "internalType": "bool",
          "name": "",
          "type": "bool"
        }
      ],
      "stateMutability": "view",
      "type": "function"
    },
    {
      "inputs": [],
      "name": "echidna_canary_number_of_troves",
      "outputs": [
        {
          "internalType": "bool",
          "name": "",
          "type": "bool"
        }
      ],
      "stateMutability": "view",
      "type": "function"
    },
    {
      "inputs": [],
      "name": "echidna_collateral_balances",
      "outputs": [
        {
          "internalType": "bool",
          "name": "",
          "type": "bool"
        }
      ],
      "stateMutability": "view",
      "type": "function"
    },
    {
      "inputs": [],
      "name": "echidna_price",
      "outputs": [
        {
          "internalType": "bool",
          "name": "",
          "type": "bool"
        }
      ],
      "stateMutability": "view",
      "type": "function"
    },
    {
      "inputs": [],
      "name": "echidna_trove_properties",
      "outputs": [
        {
          "internalType": "bool",
          "name": "",
          "type": "bool"
        }
      ],
      "stateMutability": "view",
      "type": "function"
    },
    {
      "inputs": [],
      "name": "echidna_troves_order",
      "outputs": [
        {
          "internalType": "bool",
          "name": "",
          "type": "bool"
        }
      ],
      "stateMutability": "view",
      "type": "function"
    },
    {
      "inputs": [],
      "name": "gasPool",
      "outputs": [
        {
          "internalType": "contract GasPool",
          "name": "",
          "type": "address"
        }
      ],
      "stateMutability": "view",
      "type": "function"
    },
    {
      "inputs": [
        {
          "internalType": "uint256",
          "name": "_i",
          "type": "uint256"
        },
        {
          "internalType": "address",
          "name": "spender",
          "type": "address"
        },
        {
          "internalType": "uint256",
          "name": "addedValue",
          "type": "uint256"
        }
      ],
      "name": "increaseAllowanceExt",
      "outputs": [
        {
          "internalType": "bool",
          "name": "",
          "type": "bool"
        }
      ],
      "stateMutability": "nonpayable",
      "type": "function"
    },
    {
      "inputs": [
        {
          "internalType": "uint256",
          "name": "_i",
          "type": "uint256"
        },
        {
          "internalType": "address",
          "name": "_user",
          "type": "address"
        }
      ],
      "name": "liquidateExt",
      "outputs": [],
      "stateMutability": "nonpayable",
      "type": "function"
    },
    {
      "inputs": [
        {
          "internalType": "uint256",
          "name": "_i",
          "type": "uint256"
        },
        {
          "internalType": "uint256",
          "name": "_n",
          "type": "uint256"
        }
      ],
      "name": "liquidateTrovesExt",
      "outputs": [],
      "stateMutability": "nonpayable",
      "type": "function"
    },
    {
      "inputs": [
        {
          "internalType": "uint256",
          "name": "_i",
          "type": "uint256"
        },
        {
          "internalType": "uint256",
          "name": "_collateral",
          "type": "uint256"
        },
        {
          "internalType": "uint256",
          "name": "_THUSDAmount",
          "type": "uint256"
        }
      ],
      "name": "openTroveExt",
      "outputs": [],
      "stateMutability": "payable",
      "type": "function"
    },
    {
      "inputs": [
        {
          "internalType": "uint256",
          "name": "_i",
          "type": "uint256"
        },
        {
          "internalType": "uint256",
          "name": "_collateral",
          "type": "uint256"
        },
        {
          "internalType": "uint256",
          "name": "_THUSDAmount",
          "type": "uint256"
        },
        {
          "internalType": "address",
          "name": "_upperHint",
          "type": "address"
        },
        {
          "internalType": "address",
          "name": "_lowerHint",
          "type": "address"
        },
        {
          "internalType": "uint256",
          "name": "_maxFee",
          "type": "uint256"
        }
      ],
      "name": "openTroveRawExt",
      "outputs": [],
      "stateMutability": "payable",
      "type": "function"
    },
    {
      "inputs": [
        {
          "internalType": "uint256",
          "name": "_i",
          "type": "uint256"
        },
        {
          "internalType": "uint256",
          "name": "_amount",
          "type": "uint256"
        }
      ],
      "name": "provideToSPExt",
      "outputs": [],
      "stateMutability": "nonpayable",
      "type": "function"
    },
    {
      "inputs": [
        {
          "internalType": "uint256",
          "name": "_i",
          "type": "uint256"
        },
        {
          "internalType": "uint256",
          "name": "_THUSDAmount",
          "type": "uint256"
        },
        {
          "internalType": "address",
          "name": "_firstRedemptionHint",
          "type": "address"
        },
        {
          "internalType": "address",
          "name": "_upperPartialRedemptionHint",
          "type": "address"
        },
        {
          "internalType": "address",
          "name": "_lowerPartialRedemptionHint",
          "type": "address"
        },
        {
          "internalType": "uint256",
          "name": "_partialRedemptionHintNICR",
          "type": "uint256"
        }
      ],
      "name": "redeemCollateralExt",
      "outputs": [],
      "stateMutability": "nonpayable",
      "type": "function"
    },
    {
      "inputs": [
        {
          "internalType": "uint256",
          "name": "_i",
          "type": "uint256"
        },
        {
          "internalType": "uint256",
          "name": "_amount",
          "type": "uint256"
        },
        {
          "internalType": "address",
          "name": "_upperHint",
          "type": "address"
        },
        {
          "internalType": "address",
          "name": "_lowerHint",
          "type": "address"
        }
      ],
      "name": "repayTHUSDExt",
      "outputs": [],
      "stateMutability": "nonpayable",
      "type": "function"
    },
    {
      "inputs": [
        {
          "internalType": "uint256",
          "name": "_price",
          "type": "uint256"
        }
      ],
      "name": "setPriceExt",
      "outputs": [],
      "stateMutability": "nonpayable",
      "type": "function"
    },
    {
      "inputs": [],
      "name": "stabilityPool",
      "outputs": [
        {
          "internalType": "contract StabilityPool",
          "name": "",
          "type": "address"
        }
      ],
      "stateMutability": "view",
      "type": "function"
    },
    {
      "inputs": [],
      "name": "thusdToken",
      "outputs": [
        {
          "internalType": "contract THUSDToken",
          "name": "",
          "type": "address"
        }
      ],
      "stateMutability": "view",
      "type": "function"
    },
    {
      "inputs": [
        {
          "internalType": "uint256",
          "name": "_i",
          "type": "uint256"
        },
        {
          "internalType": "address",
          "name": "recipient",
          "type": "address"
        },
        {
          "internalType": "uint256",
          "name": "amount",
          "type": "uint256"
        }
      ],
      "name": "transferExt",
      "outputs": [
        {
          "internalType": "bool",
          "name": "",
          "type": "bool"
        }
      ],
      "stateMutability": "nonpayable",
      "type": "function"
    },
    {
      "inputs": [
        {
          "internalType": "uint256",
          "name": "_i",
          "type": "uint256"
        },
        {
          "internalType": "address",
          "name": "sender",
          "type": "address"
        },
        {
          "internalType": "address",
          "name": "recipient",
          "type": "address"
        },
        {
          "internalType": "uint256",
          "name": "amount",
          "type": "uint256"
        }
      ],
      "name": "transferFromExt",
      "outputs": [
        {
          "internalType": "bool",
          "name": "",
          "type": "bool"
        }
      ],
      "stateMutability": "nonpayable",
      "type": "function"
    },
    {
      "inputs": [],
      "name": "troveManager",
      "outputs": [
        {
          "internalType": "contract TroveManager",
          "name": "",
          "type": "address"
        }
      ],
      "stateMutability": "view",
      "type": "function"
    },
    {
      "inputs": [
        {
          "internalType": "uint256",
          "name": "_i",
          "type": "uint256"
        },
        {
          "internalType": "uint256",
          "name": "_amount",
          "type": "uint256"
        },
        {
          "internalType": "address",
          "name": "_upperHint",
          "type": "address"
        },
        {
          "internalType": "address",
          "name": "_lowerHint",
          "type": "address"
        }
      ],
      "name": "withdrawCollExt",
      "outputs": [],
      "stateMutability": "nonpayable",
      "type": "function"
    },
    {
      "inputs": [
        {
          "internalType": "uint256",
          "name": "_i",
          "type": "uint256"
        },
        {
          "internalType": "uint256",
          "name": "_amount",
          "type": "uint256"
        }
      ],
      "name": "withdrawFromSPExt",
      "outputs": [],
      "stateMutability": "nonpayable",
      "type": "function"
    },
    {
      "inputs": [
        {
          "internalType": "uint256",
          "name": "_i",
          "type": "uint256"
        },
        {
          "internalType": "uint256",
          "name": "_amount",
          "type": "uint256"
        },
        {
          "internalType": "address",
          "name": "_upperHint",
          "type": "address"
        },
        {
          "internalType": "address",
          "name": "_lowerHint",
          "type": "address"
        },
        {
          "internalType": "uint256",
          "name": "_maxFee",
          "type": "uint256"
        }
      ],
      "name": "withdrawTHUSDExt",
      "outputs": [],
      "stateMutability": "nonpayable",
      "type": "function"
    }
  ],
  "bytecode": "0x6080604052604051620000129062000ab4565b604051809103906000f0801580156200002f573d6000803e3d6000fd5b50600380546001600160a01b0319166001600160a01b03929092169190911790556040516200005e9062000ac2565b604051809103906000f0801580156200007b573d6000803e3d6000fd5b50600480546001600160a01b0319166001600160a01b0392909216919091179055604051620000aa9062000ad0565b604051809103906000f080158015620000c7573d6000803e3d6000fd5b50600580546001600160a01b0319166001600160a01b0392909216919091179055604051620000f69062000ade565b604051809103906000f08015801562000113573d6000803e3d6000fd5b50600680546001600160a01b0319166001600160a01b0392909216919091179055604051620001429062000aec565b604051809103906000f0801580156200015f573d6000803e3d6000fd5b50600780546001600160a01b0319166001600160a01b03929092169190911790556040516200018e9062000afa565b604051809103906000f080158015620001ab573d6000803e3d6000fd5b50600880546001600160a01b0319166001600160a01b0392831617905560035460075460045460405192841693918216929116906276a70090620001ef9062000b07565b6001600160a01b0394851681529284166020840152921660408201526060810191909152608001604051809103906000f08015801562000233573d6000803e3d6000fd5b50600a80546001600160a01b0319166001600160a01b0392909216919091179055604051620002629062000b15565b604051809103906000f0801580156200027f573d6000803e3d6000fd5b50600980546001600160a01b0319166001600160a01b0392909216919091179055604051620002ae9062000b23565b604051809103906000f080158015620002cb573d6000803e3d6000fd5b50600b80546001600160a01b0319166001600160a01b0392909216919091179055604051620002fa9062000b31565b604051809103906000f08015801562000317573d6000803e3d6000fd5b50600c80546001600160a01b0319166001600160a01b0392831690811790915560035460048054600554600654600754600854600954600b54600a54604051636c37a4af60e01b8152978c1698880198909852948a1660248701529289166044860152908816606485015287166084840152861660a4830152851660c482015290841660e4820152610104810192909252600061012483015290911690636c37a4af9061014401600060405180830381600087803b158015620003d957600080fd5b505af1158015620003ee573d6000803e3d6000fd5b505060048054600354600554600654600754600854600954600b54600c54600a54604051631e61717960e21b81526001600160a01b03998a169b81019b909b5296881660248b015294871660448a015292861660648901529085166084880152841660a4870152831660c4860152821660e4850152811661010484015260006101248401819052610144840152169250637985c5e4915061016401600060405180830381600087803b158015620004a457600080fd5b505af1158015620004b9573d6000803e3d6000fd5b505060055460048054600354600754600654600954604051636cfb6bf960e01b81526001600160a01b0395861696810196909652928416602486015290831660448501528216606484015281166084830152600060a48301529091169250636cfb6bf9915060c401600060405180830381600087803b1580156200053c57600080fd5b505af115801562000551573d6000803e3d6000fd5b5050600654600354600554604051630d8efe5960e21b81526001600160a01b0392831660048201529082166024820152600060448201529116925063363bf9649150606401600060405180830381600087803b158015620005b157600080fd5b505af1158015620005c6573d6000803e3d6000fd5b505060075460048054600354600554600a54600c54600b5460405163eaa8ba7f60e01b81526001600160a01b0396871697810197909752938516602487015291841660448601528316606485015282166084840152811660a4830152600060c4830152909116925063eaa8ba7f915060e401600060405180830381600087803b1580156200065357600080fd5b505af115801562000668573d6000803e3d6000fd5b505060095460048054600354600554604051634a945f8d60e01b81526001600160a01b0393841694810194909452908216602484015281166044830152600060648301529091169250634a945f8d9150608401600060405180830381600087803b158015620006d657600080fd5b505af1158015620006eb573d6000803e3d6000fd5b5050600c5460035460048054604051631e6edaf360e31b8152670de0b6b3a7640000928101929092526001600160a01b039283166024830152821660448201529116925063f376d7989150606401600060405180830381600087803b1580156200075457600080fd5b505af115801562000769573d6000803e3d6000fd5b5050505060005b6064811015620008c157600354600454600754600a546040516001600160a01b0394851694938416939283169290911690620007ac9062000b3f565b6001600160a01b039485168152928416602084015290831660408301529091166060820152608001604051809103906000f080158015620007f1573d6000803e3d6000fd5b50600d826064811062000808576200080862000b4d565b0180546001600160a01b0319166001600160a01b03929092169190911790556000600d82606481106200083f576200083f62000b4d565b01546040516001600160a01b039091169069d3c21bcecceda100000090600081818185875af1925050503d806000811462000897576040519150601f19603f3d011682016040523d82523d6000602084013e6200089c565b606091505b5050905080620008ab57600080fd5b5080620008b88162000b63565b91505062000770565b506004805460408051631e5395c960e21b815290516001600160a01b039092169263794e57249282820192602092908290030181865afa1580156200090a573d6000803e3d6000fd5b505050506040513d601f19601f8201168201806040525081019062000930919062000b8b565b6000556004805460408051635733d58f60e01b815290516001600160a01b0390921692635733d58f9282820192602092908290030181865afa1580156200097b573d6000803e3d6000fd5b505050506040513d601f19601f82011682018060405250810190620009a1919062000b8b565b60015560048054604080516307f5a90d60e21b815290516001600160a01b0390921692631fd6a4349282820192602092908290030181865afa158015620009ec573d6000803e3d6000fd5b505050506040513d601f19601f8201168201806040525081019062000a12919062000b8b565b60025560005462000a2257600080fd5b60006001541162000a3257600080fd5b600b546040516391b7f5ed60e01b815269021e19e0c9bab240000060048201526001600160a01b03909116906391b7f5ed906024016020604051808303816000875af115801562000a87573d6000803e3d6000fd5b505050506040513d601f19601f8201168201806040525081019062000aad919062000ba5565b5062000bd0565b61555b806200323c83390190565b613a5b806200879783390190565b611118806200c1f283390190565b610d64806200d30a83390190565b6128e6806200e06e83390190565b605c806201095483390190565b61223e80620109b083390190565b610e658062012bee83390190565b6103788062013a5383390190565b61177d8062013dcb83390190565b611160806201554883390190565b634e487b7160e01b600052603260045260246000fd5b60006001820162000b8457634e487b7160e01b600052601160045260246000fd5b5060010190565b60006020828403121562000b9e57600080fd5b5051919050565b60006020828403121562000bb857600080fd5b8151801515811462000bc957600080fd5b9392505050565b61265c8062000be06000396000f3fe6080604052600436106102055760003560e01c80637c22900e11610113578063a34245d3116100ab578063d21af9681161006f578063d21af968146105dc578063d339e894146105ef578063e448912714610604578063efa83cf914610624578063fa08b0381461063757600080fd5b8063a34245d31461053c578063a3d368341461055c578063baf5d65f1461057c578063c325347f1461059c578063cda775f9146105bc57600080fd5b80637c22900e1461043d5780637ca8b0281461045d5780637f7dde4a1461047d5780638e4707d31461049d57806391a4a426146104bd578063980c55d7146104dd5780639cdd0978146104f25780639f56ac1814610512578063a2f5cbdd1461052757600080fd5b80635438770a116101a15780635aee59aa116101655780635aee59aa146103b5578063629e411a146103d557806369690936146103ea57806377553ad4146103fd57806377e16f1e1461041d57600080fd5b80635438770a1461034557806357285cc5146103655780635895ac4e14610378578063597ec7991461038d57806359bed84b146103a057600080fd5b8063048c661d1461020a57806304bbf59c14610240578063119be5d0146102705780631c6fbd23146102905780633cc74225146102a55780633d83908a146102c557806340ba2e27146102e55780634557559f146103055780634e792a3014610325575b600080fd5b34801561021657600080fd5b5060075461022a906001600160a01b031681565b6040516102379190612037565b60405180910390f35b34801561024c57600080fd5b5061026061025b366004612063565b610657565b6040519015158152602001610237565b34801561027c57600080fd5b5061026061028b366004612063565b6106f9565b6102a361029e3660046120a9565b61074d565b005b3480156102b157600080fd5b5060065461022a906001600160a01b031681565b3480156102d157600080fd5b5060035461022a906001600160a01b031681565b3480156102f157600080fd5b506102a36103003660046120f6565b610824565b34801561031157600080fd5b506102a36103203660046120f6565b6108b1565b34801561033157600080fd5b506102a361034036600461210f565b610934565b34801561035157600080fd5b506102a361036036600461213f565b6109bc565b6102a3610373366004612191565b610a5b565b34801561038457600080fd5b50610260610ad6565b6102a361039b3660046121b3565b610b6a565b3480156103ac57600080fd5b50610260610c04565b3480156103c157600080fd5b506102a36103d0366004612191565b610e94565b3480156103e157600080fd5b50610260610ee6565b6102a36103f836600461222f565b611315565b34801561040957600080fd5b5060045461022a906001600160a01b031681565b34801561042957600080fd5b50600a5461022a906001600160a01b031681565b34801561044957600080fd5b50610260610458366004612279565b6113a3565b34801561046957600080fd5b506102a36104783660046122c1565b61144e565b34801561048957600080fd5b5060055461022a906001600160a01b031681565b3480156104a957600080fd5b506102606104b8366004612063565b611504565b3480156104c957600080fd5b5061022a6104d83660046120f6565b611558565b3480156104e957600080fd5b50610260611578565b3480156104fe57600080fd5b5061026061050d366004612063565b61181f565b34801561051e57600080fd5b50610260611873565b34801561053357600080fd5b50610260611894565b34801561054857600080fd5b506102a361055736600461222f565b6118a7565b34801561056857600080fd5b506102a361057736600461222f565b6118fc565b34801561058857600080fd5b506102a3610597366004612191565b611951565b3480156105a857600080fd5b506102a36105b7366004612328565b6119a3565b3480156105c857600080fd5b5060095461022a906001600160a01b031681565b6102a36105ea3660046123a7565b611a2e565b3480156105fb57600080fd5b50610260611b7a565b34801561061057600080fd5b506102a361061f366004612191565b611da2565b6102a36106323660046123d3565b611df4565b34801561064357600080fd5b5060085461022a906001600160a01b031681565b600080610665606486612422565b9050600d816064811061067a5761067a612436565b015460405163d466e4eb60e01b81526001600160a01b039091169063d466e4eb906106ab908790879060040161244c565b6020604051808303816000875af11580156106ca573d6000803e3d6000fd5b505050506040513d601f19601f820116820180604052508101906106ee9190612465565b9150505b9392505050565b600080610707606486612422565b9050600d816064811061071c5761071c612436565b015460405163cf83544f60e01b81526001600160a01b039091169063cf83544f906106ab908790879060040161244c565b600061075a606487612422565b90506000600d826064811061077157610771612436565b0154600080546001600160a01b0390921692508231916107949083908a90611e4d565b90508585156107ad576107aa8288600054611f2a565b90505b604051631942d56760e21b81526001600160a01b0385169063650b559c906107e69085908c9086908c9060009081908190600401612482565b600060405180830381600087803b15801561080057600080fd5b505af1158015610814573d6000803e3d6000fd5b5050505050505050505050505050565b6000610831606483612422565b9050600d816064811061084657610846612436565b0160009054906101000a90046001600160a01b03166001600160a01b0316634903a3dd6040518163ffffffff1660e01b8152600401600060405180830381600087803b15801561089557600080fd5b505af11580156108a9573d6000803e3d6000fd5b505050505050565b600b546040516391b7f5ed60e01b8152600481018390526000916001600160a01b0316906391b7f5ed906024016020604051808303816000875af11580156108fd573d6000803e3d6000fd5b505050506040513d601f19601f820116820180604052508101906109219190612465565b905080610930576109306124be565b5050565b6000610941606484612422565b9050600d816064811061095657610956612436565b0154604051634d37261f60e01b81526001600160a01b0390911690634d37261f90610985908590600401612037565b600060405180830381600087803b15801561099f57600080fd5b505af11580156109b3573d6000803e3d6000fd5b50505050505050565b60006109c9606487612422565b9050600d81606481106109de576109de612436565b0154604051634657654160e01b8152600481018790526001600160a01b038681166024830152858116604483015260648201859052909116906346576541906084015b600060405180830381600087803b158015610a3b57600080fd5b505af1158015610a4f573d6000803e3d6000fd5b50505050505050505050565b6000610a68606484612422565b90506000600d8260648110610a7f57610a7f612436565b0154600080546001600160a01b039092169250823191610aa29083908790611e4d565b6040516332e859b960e01b81529091506001600160a01b038416906332e859b990610a2190849060009081906004016124d4565b600080600b60009054906101000a90046001600160a01b03166001600160a01b03166398d5fdca6040518163ffffffff1660e01b8152600401602060405180830381865afa158015610b2c573d6000803e3d6000fd5b505050506040513d601f19601f82011682018060405250810190610b5091906124f3565b905080600003610b6257600091505090565b600191505090565b6000610b7760648a612422565b9050600d8160648110610b8c57610b8c612436565b0154604051631942d56760e21b81526001600160a01b039091169063650b559c90610bc7908b908b908b908b908b908b908b90600401612482565b600060405180830381600087803b158015610be157600080fd5b505af1158015610bf5573d6000803e3d6000fd5b50505050505050505050505050565b600080600c60009054906101000a90046001600160a01b03166001600160a01b0316631e2231436040518163ffffffff1660e01b8152600401602060405180830381865afa158015610c5a573d6000803e3d6000fd5b505050506040513d601f19601f82011682018060405250810190610c7e919061250c565b600c5460405163765e015960e01b81529192506000916001600160a01b039091169063765e015990610cb4908590600401612037565b602060405180830381865afa158015610cd1573d6000803e3d6000fd5b505050506040513d601f19601f82011682018060405250810190610cf5919061250c565b90505b6001600160a01b03821615801590610d1857506001600160a01b03811615155b15610e8b5760035460405163b0d8e18160e01b81526001600160a01b039091169063b0d8e18190610d4d908590600401612037565b602060405180830381865afa158015610d6a573d6000803e3d6000fd5b505050506040513d601f19601f82011682018060405250810190610d8e91906124f3565b60035460405163b0d8e18160e01b81526001600160a01b039091169063b0d8e18190610dbe908590600401612037565b602060405180830381865afa158015610ddb573d6000803e3d6000fd5b505050506040513d601f19601f82011682018060405250810190610dff91906124f3565b1115610e0e5760009250505090565b600c5460405163765e015960e01b815291925082916001600160a01b039091169063765e015990610e43908490600401612037565b602060405180830381865afa158015610e60573d6000803e3d6000fd5b505050506040513d601f19601f82011682018060405250810190610e84919061250c565b9050610cf8565b60019250505090565b6000610ea1606484612422565b9050600d8160648110610eb657610eb6612436565b0154604051630186373f60e61b8152600481018490526001600160a01b039091169063618dcfc090602401610985565b600080600a60009054906101000a90046001600160a01b03166001600160a01b03166318160ddd6040518163ffffffff1660e01b8152600401602060405180830381865afa158015610f3c573d6000803e3d6000fd5b505050506040513d601f19601f82011682018060405250810190610f6091906124f3565b600a546008546040516370a0823160e01b81529293506000926001600160a01b03928316926370a0823192610f9a92911690600401612037565b602060405180830381865afa158015610fb7573d6000803e3d6000fd5b505050506040513d601f19601f82011682018060405250810190610fdb91906124f3565b90506000600560009054906101000a90046001600160a01b03166001600160a01b031663f07424e96040518163ffffffff1660e01b8152600401602060405180830381865afa158015611032573d6000803e3d6000fd5b505050506040513d601f19601f8201168201806040525081019061105691906124f3565b90506000600660009054906101000a90046001600160a01b03166001600160a01b031663f07424e96040518163ffffffff1660e01b8152600401602060405180830381865afa1580156110ad573d6000803e3d6000fd5b505050506040513d601f19601f820116820180604052508101906110d191906124f3565b90506110dd818361253f565b84146110ee57600094505050505090565b6007546040805162840fed60e11b815290516000926001600160a01b0316916301081fda9160048083019260209291908290030181865afa158015611137573d6000803e3d6000fd5b505050506040513d601f19601f8201168201806040525081019061115b91906124f3565b90506000600c60009054906101000a90046001600160a01b03166001600160a01b0316631e2231436040518163ffffffff1660e01b8152600401602060405180830381865afa1580156111b2573d6000803e3d6000fd5b505050506040513d601f19601f820116820180604052508101906111d6919061250c565b905060005b6001600160a01b038216156112de57600a546040516370a0823160e01b81526001600160a01b03909116906370a082319061121a908590600401612037565b602060405180830381865afa158015611237573d6000803e3d6000fd5b505050506040513d601f19601f8201168201806040525081019061125b91906124f3565b611265908261253f565b600c5460405163765e015960e01b81529192506001600160a01b03169063765e015990611296908590600401612037565b602060405180830381865afa1580156112b3573d6000803e3d6000fd5b505050506040513d601f19601f820116820180604052508101906112d7919061250c565b91506111db565b856112e9828561253f565b6112f3919061253f565b871161130757600097505050505050505090565b600197505050505050505090565b6000611322606486612422565b9050600d816064811061133757611337612436565b01546040516332e859b960e01b81526001600160a01b03909116906332e859b99061136a908790879087906004016124d4565b600060405180830381600087803b15801561138457600080fd5b505af1158015611398573d6000803e3d6000fd5b505050505050505050565b6000806113b1606487612422565b9050600d81606481106113c6576113c6612436565b0154604051636ca5e76160e11b81526001600160a01b0387811660048301528681166024830152604482018690529091169063d94bcec2906064016020604051808303816000875af1158015611420573d6000803e3d6000fd5b505050506040513d601f19601f820116820180604052508101906114449190612465565b9695505050505050565b600061145b606488612422565b9050600d816064811061147057611470612436565b01546040516335b1017960e01b8152600481018890526001600160a01b0387811660248301528681166044830152858116606483015260848201859052600060a4830181905260c4830152909116906335b101799060e4015b600060405180830381600087803b1580156114e357600080fd5b505af11580156114f7573d6000803e3d6000fd5b5050505050505050505050565b600080611512606486612422565b9050600d816064811061152757611527612436565b0154604051636628d36160e11b81526001600160a01b039091169063cc51a6c2906106ab908790879060040161244c565b600d816064811061156857600080fd5b01546001600160a01b0316905081565b600080600c60009054906101000a90046001600160a01b03166001600160a01b0316631e2231436040518163ffffffff1660e01b8152600401602060405180830381865afa1580156115ce573d6000803e3d6000fd5b505050506040513d601f19601f820116820180604052508101906115f2919061250c565b90505b6001600160a01b03811615610b62576003546040516321e3780160e01b81526001916001600160a01b0316906321e3780190611635908590600401612037565b602060405180830381865afa158015611652573d6000803e3d6000fd5b505050506040513d601f19601f8201168201806040525081019061167691906124f3565b600481111561168757611687612558565b600481111561169857611698612558565b146116a557600091505090565b60025460035460405163d66a255360e01b81526001600160a01b039091169063d66a2553906116d8908590600401612037565b602060405180830381865afa1580156116f5573d6000803e3d6000fd5b505050506040513d601f19601f8201168201806040525081019061171991906124f3565b101561172757600091505090565b600354604051630326771360e51b81526001600160a01b03909116906364cee26090611757908490600401612037565b602060405180830381865afa158015611774573d6000803e3d6000fd5b505050506040513d601f19601f8201168201806040525081019061179891906124f3565b6000036117a757600091505090565b600c5460405163765e015960e01b81526001600160a01b039091169063765e0159906117d7908490600401612037565b602060405180830381865afa1580156117f4573d6000803e3d6000fd5b505050506040513d601f19601f82011682018060405250810190611818919061250c565b90506115f5565b60008061182d606486612422565b9050600d816064811061184257611842612436565b015460405163390b5f2760e01b81526001600160a01b039091169063390b5f27906106ab908790879060040161244c565b6005546000906001600160a01b0316311561188e5750600090565b50600190565b60006014607154111561188e5750600090565b60006118b4606486612422565b9050600d81606481106118c9576118c9612436565b01546040516308fed4ab60e41b81526001600160a01b0390911690638fed4ab09061136a908790879087906004016124d4565b6000611909606486612422565b9050600d816064811061191e5761191e612436565b0154604051633ddd87af60e11b81526001600160a01b0390911690637bbb0f5e9061136a908790879087906004016124d4565b600061195e606484612422565b9050600d816064811061197357611973612436565b015460405163f47a1ea760e01b8152600481018490526001600160a01b039091169063f47a1ea790602401610985565b60006119b0606485612422565b9050600d81606481106119c5576119c5612436565b0154604051634afbac5160e01b81526001600160a01b0390911690634afbac51906119f6908690869060040161256e565b600060405180830381600087803b158015611a1057600080fd5b505af1158015611a24573d6000803e3d6000fd5b5050505050505050565b6000611a3b606485612422565b90506000600d8260648110611a5257611a52612436565b01546001546001600160a01b039091169150813190600090611a779083908890611e4d565b90506000611a888287600154611f2a565b604051639113473160e01b81529091506001600160a01b03851690639113473190611ac09085908590600090819081906004016125bc565b600060405180830381600087803b158015611ada57600080fd5b505af1158015611aee573d6000803e3d6000fd5b50505050600360009054906101000a90046001600160a01b03166001600160a01b03166349eefeee6040518163ffffffff1660e01b8152600401602060405180830381865afa158015611b45573d6000803e3d6000fd5b505050506040513d601f19601f82011682018060405250810190611b6991906124f3565b6071819055611a2457611a246124be565b6003546000906001600160a01b03163115611b955750600090565b6004546001600160a01b03163115611bad5750600090565b600560009054906101000a90046001600160a01b03166001600160a01b0316631529a6396040518163ffffffff1660e01b8152600401602060405180830381865afa158015611c00573d6000803e3d6000fd5b505050506040513d601f19601f82011682018060405250810190611c2491906124f3565b6005546001600160a01b03163114611c3c5750600090565b600660009054906101000a90046001600160a01b03166001600160a01b0316631529a6396040518163ffffffff1660e01b8152600401602060405180830381865afa158015611c8f573d6000803e3d6000fd5b505050506040513d601f19601f82011682018060405250810190611cb391906124f3565b6006546001600160a01b03163114611ccb5750600090565b600760009054906101000a90046001600160a01b03166001600160a01b0316631529a6396040518163ffffffff1660e01b8152600401602060405180830381865afa158015611d1e573d6000803e3d6000fd5b505050506040513d601f19601f82011682018060405250810190611d4291906124f3565b6007546001600160a01b03163114611d5a5750600090565b600a546001600160a01b03163115611d725750600090565b600b546001600160a01b03163115611d8a5750600090565b600c546001600160a01b0316311561188e5750600090565b6000611daf606484612422565b9050600d8160648110611dc457611dc4612436565b015460405163320d84db60e11b8152600481018490526001600160a01b039091169063641b09b690602401610985565b6000611e01606488612422565b9050600d8160648110611e1657611e16612436565b0154604051639113473160e01b81526001600160a01b03909116906391134731906114c990899089908990899089906004016125bc565b600080600b60009054906101000a90046001600160a01b03166001600160a01b03166398d5fdca6040518163ffffffff1660e01b8152600401602060405180830381865afa158015611ea3573d6000803e3d6000fd5b505050506040513d601f19601f82011682018060405250810190611ec791906124f3565b905060008111611ed657600080fd5b60008160025485611ee791906125e8565b611ef191906125ff565b9050808611611eff57600080fd5b6000611f0b8288612613565b611f159087612422565b611f1f908361253f565b979650505050505050565b600080600b60009054906101000a90046001600160a01b03166001600160a01b03166398d5fdca6040518163ffffffff1660e01b8152600401602060405180830381865afa158015611f80573d6000803e3d6000fd5b505050506040513d601f19601f82011682018060405250810190611fa491906124f3565b6002549091508490600090611fb9908361253f565b90506000611fc8888386612006565b905085811015611ffa5785611fdd858a6125e8565b611fe791906125ff565b915060025482611ff79190612613565b92505b50909695505050505050565b6000821561202e5760008361201b84876125e8565b61202591906125ff565b91506106f29050565b506000196106f2565b6001600160a01b0391909116815260200190565b6001600160a01b038116811461206057600080fd5b50565b60008060006060848603121561207857600080fd5b83359250602084013561208a8161204b565b929592945050506040919091013590565b801515811461206057600080fd5b600080600080600060a086880312156120c157600080fd5b8535945060208601359350604086013592506060860135915060808601356120e88161209b565b809150509295509295909350565b60006020828403121561210857600080fd5b5035919050565b6000806040838503121561212257600080fd5b8235915060208301356121348161204b565b809150509250929050565b600080600080600060a0868803121561215757600080fd5b853594506020860135935060408601356121708161204b565b925060608601356121808161204b565b949793965091946080013592915050565b600080604083850312156121a457600080fd5b50508035926020909101359150565b600080600080600080600080610100898b0312156121d057600080fd5b8835975060208901359650604089013595506060890135945060808901356121f78161209b565b935060a08901356122078161204b565b925060c08901356122178161204b565b8092505060e089013590509295985092959890939650565b6000806000806080858703121561224557600080fd5b8435935060208501359250604085013561225e8161204b565b9150606085013561226e8161204b565b939692955090935050565b6000806000806080858703121561228f57600080fd5b8435935060208501356122a18161204b565b925060408501356122b18161204b565b9396929550929360600135925050565b60008060008060008060c087890312156122da57600080fd5b863595506020870135945060408701356122f38161204b565b935060608701356123038161204b565b925060808701356123138161204b565b8092505060a087013590509295509295509295565b60008060006040848603121561233d57600080fd5b83359250602084013567ffffffffffffffff8082111561235c57600080fd5b818601915086601f83011261237057600080fd5b81358181111561237f57600080fd5b8760208260051b850101111561239457600080fd5b6020830194508093505050509250925092565b6000806000606084860312156123bc57600080fd5b505081359360208301359350604090920135919050565b60008060008060008060c087890312156123ec57600080fd5b86359550602087013594506040870135935060608701356123038161204b565b634e487b7160e01b600052601260045260246000fd5b6000826124315761243161240c565b500690565b634e487b7160e01b600052603260045260246000fd5b6001600160a01b03929092168252602082015260400190565b60006020828403121561247757600080fd5b81516106f28161209b565b9687526020870195909552604086019390935290151560608501526001600160a01b0390811660808501521660a083015260c082015260e00190565b634e487b7160e01b600052600160045260246000fd5b9283526001600160a01b03918216602084015216604082015260600190565b60006020828403121561250557600080fd5b5051919050565b60006020828403121561251e57600080fd5b81516106f28161204b565b634e487b7160e01b600052601160045260246000fd5b8082018082111561255257612552612529565b92915050565b634e487b7160e01b600052602160045260246000fd5b60208082528181018390526000908460408401835b868110156125b15782356125968161204b565b6001600160a01b031682529183019190830190600101612583565b509695505050505050565b94855260208501939093526001600160a01b039182166040850152166060830152608082015260a00190565b808202811582820484141761255257612552612529565b60008261260e5761260e61240c565b500490565b818103818111156125525761255261252956fea26469706673582212209a44e18ba69f2aa5e6d01b25c08e72fdc8ae06021a91490596be4a735f35214764736f6c63430008110033608060405234801561001057600080fd5b50600380546001600160a01b031916339081179091556040516000907f8be0079c531659141344cd1fd0a4f28419497f9722a3daafe3b4186f6b6457e0908290a36154fb806100606000396000f3fe608060405234801561001057600080fd5b506004361061042f5760003560e01c806377e16f1e1161023c578063b91af97c11610146578063d5b35635116100c3578063ee266b8711610087578063ee266b87146109bf578063f2fde38b146109c8578063f36b2425146109db578063f92d343314610554578063fe2ba848146109e357600080fd5b8063d5b3563514610954578063d66a255314610967578063d9a7244414610990578063e2ac77b0146109a3578063e6a91f16146109b657600080fd5b8063cbd138ae1161010a578063cbd138ae14610909578063d293c7101461091c578063d380a37c1461092f578063d38b055814610938578063d3d6f8431461094157600080fd5b8063b91af97c146108a3578063bcd37526146108d6578063bf9befb1146108e9578063c52861f2146108f2578063c7b55481146108fa57600080fd5b806396d711ff116101d4578063a68b663e11610198578063a68b663e1461084e578063ae91875414610857578063b0d8e1811461086a578063b7f8cf9b1461087d578063b82f263d1461089057600080fd5b806396d711ff146107e75780639976cf45146107f05780639ba7a40814610803578063a20baee61461072d578063a3f4df7e1461081657600080fd5b806377e16f1e14610762578063794e572414610775578063795d26c3146107845780637f7dde4a1461078c578063807d138d1461079f57806382fe3eb9146107a8578063887105d3146107bb5780638da5cb5b146107c35780638f32d59b146107d457600080fd5b8063480cd5781161033d578063631203b0116102d55780636ef64338116102995780636ef64338146106c157806372423c171461071a57806372fe25aa1461072d578063741bef1a1461073c578063756b253e1461074f57600080fd5b8063631203b01461065457806364cee26014610667578063653d46e71461069357806366ca4a21146106a65780636c37a4af146106ae57600080fd5b8063480cd578146105b05780634870dd9a146105dc57806349eefeee146105e45780634a3c95c4146105ec5780634e443d9e146105ff5780635733d58f146106225780635d6b480f146106315780635dba4c4a1461064457806361ec893d1461064c57600080fd5b80631f68f20a116103cb5780632b11551a1161038f5780632b11551a1461055c5780632f865568146105645780633cc74225146105775780634597f6ed1461058a578063477d66cf1461059d57600080fd5b80631f68f20a146105205780631fd6a4341461052957806321e3780114610539578063240926691461054c57806328d28b5b1461055457600080fd5b8063048c661d14610434578063071a75411461045d5780630b0765571461047357806312610e921461048857806315d549f11461049b5780631673c79a146104ae57806318f2817a146104ea5780631bf43555146104fd5780631e8b1c2b1461050d575b600080fd5b600554610447906001600160a01b031681565b6040516104549190614eef565b60405180910390f35b610465600281565b604051908152602001610454565b610486610481366004614f28565b6109f6565b005b610465610496366004614f45565b610a1e565b6104656104a9366004614f28565b610a71565b6104d56104bc366004614f28565b6013602052600090815260409020805460019091015482565b60408051928352602083019190915201610454565b6104656104f8366004614f28565b610a93565b610465686194049f30f720000081565b61048661051b366004614f87565b610aa6565b610465600b5481565b610465680ad78ebc5ac620000081565b610465610547366004614f28565b610e47565b610465610e77565b610465610e98565b610465610eac565b610486610572366004614f28565b610ebe565b600154610447906001600160a01b031681565b600954610447906001600160a01b031681565b6104656105ab36600461504c565b610f2a565b6104656105be366004614f28565b6001600160a01b03166000908152600d602052604090206001015490565b61046560c881565b601454610465565b6104656105fa366004614f28565b610f3d565b61061261060d36600461504c565b610ff8565b6040519015158152602001610454565b6104656714d1120d7b16000081565b61048661063f366004614f45565b611003565b61048661105b565b610465603c81565b61046561066236600461504c565b6110c7565b610465610675366004614f28565b6001600160a01b03166000908152600d602052604090206002015490565b6104866106a136600461504c565b6110d4565b61046561144a565b6104866106bc366004615065565b61145c565b6107096106cf366004614f28565b600d6020526000908152604090208054600182015460028301546003909301549192909160ff81169061010090046001600160801b031685565b604051610454959493929190615147565b610465610728366004614f45565b6117bc565b610465670de0b6b3a764000081565b600254610447906001600160a01b031681565b61044761075d36600461504c565b611814565b600854610447906001600160a01b031681565b610465670f43fc2c04ee000081565b61046561183e565b600054610447906001600160a01b031681565b610465600f5481565b6104866107b6366004614f28565b61193a565b61046561194b565b6003546001600160a01b0316610447565b6003546001600160a01b03163314610612565b61046560105481565b6104656107fe366004614f45565b611a10565b610465610811366004614f28565b611a3e565b6108416040518060400160405280600c81526020016b2a3937bb32a6b0b730b3b2b960a11b81525081565b604051610454919061518d565b61046560125481565b600a54610447906001600160a01b031681565b610465610878366004614f28565b611a6a565b600454610447906001600160a01b031681565b61046561089e36600461504c565b611a91565b6108b66108b1366004614f28565b611a9c565b604080519485526020850193909352918301526060820152608001610454565b6104866108e43660046151db565b611af4565b610465600e5481565b610465612228565b610465670ddd4b8c6c7d70d881565b610486610917366004614f28565b61223a565b61046561092a366004614f45565b61224d565b610465600c5481565b61046560155481565b61046561094f366004614f45565b61226c565b61046561096236600461504c565b61229d565b610465610975366004614f28565b6001600160a01b03166000908152600d602052604090205490565b61044761099e36600461504c565b6122b0565b6106126109b1366004614f28565b6122e0565b61046560165481565b61046560115481565b6104866109d6366004614f28565b612343565b6104656123db565b6104866109f1366004614f28565b6123e8565b6109fe6123f9565b600054600154610a1b916001600160a01b0390811691168361247b565b50565b6000610a286123f9565b6001600160a01b0383166000908152600d6020526040812054610a4c90849061525f565b6001600160a01b0385166000908152600d602052604090208190559150505b92915050565b6000610a7b6123f9565b610a8482612577565b6001600160801b031692915050565b6000610a9d6123f9565b610a6b82612610565b8051600003610b1b5760405162461bcd60e51b815260206004820152603660248201527f54726f76654d616e616765723a2043616c6c646174612061646472657373206160448201527572726179206d757374206e6f7420626520656d70747960501b60648201526084015b60405180910390fd5b6000546001546005546001600160a01b03928316929182169116610b3d614e2a565b610b45614e5b565b600260009054906101000a90046001600160a01b03166001600160a01b0316630fdb11cf6040518163ffffffff1660e01b81526004016020604051808303816000875af1158015610b9a573d6000803e3d6000fd5b505050506040513d601f19601f82011682018060405250810190610bbe9190615272565b826000018181525050826001600160a01b03166301081fda6040518163ffffffff1660e01b8152600401602060405180830381865afa158015610c05573d6000803e3d6000fd5b505050506040513d601f19601f82011682018060405250810190610c299190615272565b60208301528151610c39906126b5565b1580156040840152610c6157610c5a8585846000015185602001518a6126d2565b9050610c79565b610c768585846000015185602001518a612907565b90505b6000816020015111610c9d5760405162461bcd60e51b8152600401610b129061528b565b608081015160a082015160405163335525ad60e01b81526001600160a01b0386169263335525ad92610cda92600401918252602082015260400190565b600060405180830381600087803b158015610cf457600080fd5b505af1158015610d08573d6000803e3d6000fd5b50505050610d2085858360c001518460e001516129dc565b61010081015115610d9757600754610100820151604051636250216960e01b81526001600160a01b0388811693636250216993610d649392909116916004016152cd565b600060405180830381600087803b158015610d7e57600080fd5b505af1158015610d92573d6000803e3d6000fd5b505050505b610da5858260400151612c1b565b6020810151606083015261010081015160408201518251610dc6919061525f565b610dd0919061525f565b6080838101829052606080850151604085810151868401518251938452602084019690965290820152908101929092527f4152c73dd2614c4f9fc35e8c9cf16013cd588c75b49a4c1673ecffdcbcda9403910160405180910390a1610e3f853383606001518460400151612d66565b505050505050565b6001600160a01b0381166000908152600d602052604081206003015460ff166004811115610a6b57610a6b615131565b610e8a6064670de0b6b3a76400006152fc565b610e95906005615310565b81565b610e8a6103e8670de0b6b3a76400006152fc565b6000610eb9600b54612e49565b905090565b610ec781612e86565b604080516001808252818301909252600091602080830190803683370190505090508181600081518110610efd57610efd615327565b60200260200101906001600160a01b031690816001600160a01b031681525050610f2681610aa6565b5050565b6000610a6b610f3761144a565b83612f1d565b6001600160a01b0381166000908152601360205260408120546011548290610f6690839061525f565b9050801580610fa5575060016001600160a01b0385166000908152600d602052604090206003015460ff166004811115610fa257610fa2615131565b14155b15610fb4575060009392505050565b6001600160a01b0384166000908152600d602052604081206002015490670de0b6b3a7640000610fe48484615310565b610fee91906152fc565b9695505050505050565b6000610a6b826126b5565b61100b6123f9565b80600481111561101d5761101d615131565b6001600160a01b0383166000908152600d60205260409020600301805460ff1916600183600481111561105257611052615131565b02179055505050565b6110636123f9565b600061106d612f43565b9050670de0b6b3a76400008111156110875761108761533d565b600b8190556040518181527fc454ee9b76c52f782a256af821b857ca6e125d1e3333bcede402fec2bed9600c9060200160405180910390a1610a1b612f87565b6000610a6b610f376123db565b6040805160e081018252600080546001600160a01b0390811683526001548116602084015292820181905260608201819052600a548316608083015260a0820181905260c082015260055490911661112a614e2a565b611132614e5b565b600260009054906101000a90046001600160a01b03166001600160a01b0316630fdb11cf6040518163ffffffff1660e01b81526004016020604051808303816000875af1158015611187573d6000803e3d6000fd5b505050506040513d601f19601f820116820180604052508101906111ab9190615272565b826000018181525050826001600160a01b03166301081fda6040518163ffffffff1660e01b8152600401602060405180830381865afa1580156111f2573d6000803e3d6000fd5b505050506040513d601f19601f820116820180604052508101906112169190615272565b60208301528151611226906126b5565b158015604084015261124d57611246848360000151846020015188612fde565b905061126d565b61126a84600001518560200151846000015185602001518961336a565b90505b60008160200151116112915760405162461bcd60e51b8152600401610b129061528b565b608081015160a082015160405163335525ad60e01b81526001600160a01b0386169263335525ad926112ce92600401918252602082015260400190565b600060405180830381600087803b1580156112e857600080fd5b505af11580156112fc573d6000803e3d6000fd5b5050505061131c846000015185602001518360c001518460e001516129dc565b61010081015115611393578351600754610100830151604051636250216960e01b81526001600160a01b0393841693636250216993611360939116916004016152cd565b600060405180830381600087803b15801561137a57600080fd5b505af115801561138e573d6000803e3d6000fd5b505050505b6113a584600001518260400151612c1b565b60208101516060830152610100810151604082015182516113c6919061525f565b6113d0919061525f565b6080838101829052606080850151604085810151868401518251938452602084019690965290820152908101929092527f4152c73dd2614c4f9fc35e8c9cf16013cd588c75b49a4c1673ecffdcbcda9403910160405180910390a161144384600001513383606001518460400151612d66565b5050505050565b6000610eb9611457612f43565b6134a0565b6003546001600160a01b031633146114865760405162461bcd60e51b8152600401610b1290615353565b61148f8a6134f2565b611498896134f2565b6114a1886134f2565b6114aa876134f2565b6114b3866134f2565b6114bc856134f2565b6114c5846134f2565b6114ce836134f2565b6114d7826134f2565b6001600160a01b038116156114ef576114ef816134f2565b600480546001600160a01b03199081166001600160a01b038d8116919091179092556000805482168c84161790556001805482168b84161790556005805482168a8416179055600680548216898416179055600780548216888416179055600280548216878416179055600880548216868416179055600a80548216858416179055600980549091169183169190911790556040517f3ca631ffcd2a9b5d9ae18543fc82f58eb4ca33af9e6ab01b7a8e95331e6ed985906115b1908c90614eef565b60405180910390a17f78f058b189175430c48dc02699e3a0031ea4ff781536dc2fab847de4babdd882896040516115e89190614eef565b60405180910390a17f5ee0cae2f063ed938bb55046f6a932fb6ae792bf43624806bb90abe68a50be9b8860405161161f9190614eef565b60405180910390a17f82966d27eea39b038ee0fa30cd16532bb24f6e65d31cb58fb227aa5766cdcc7f876040516116569190614eef565b60405180910390a17fcfb07d791fcafc032b35837b50eb84b74df518cf4cc287e8084f47630fa70fa08660405161168d9190614eef565b60405180910390a17fe67f36a6e961157d6eff83b91f3af5a62131ceb6f04954ef74f51c1c05e7f88d856040516116c49190614eef565b60405180910390a17f8c537274438aa850a330284665d81a85dd38267d09e4050d416bfc94142db264846040516116fb9190614eef565b60405180910390a17fe1e858a66c0bbbcdfa22d58dde1e5d42370be20cdb176e560287f85412e546e0836040516117329190614eef565b60405180910390a17f65f4cf077bc01e4742eb5ad98326f6e95b63548ea24b17f8d5e823111fe78800826040516117699190614eef565b60405180910390a17f38335c64466e2376ab931166337e19127650d842036ebe01da1ba3e5c1255ebb816040516117a09190614eef565b60405180910390a16117b0613597565b50505050505050505050565b60006117c66123f9565b6001600160a01b0383166000908152600d60205260408120600101546117ed908490615388565b6001600160a01b0385166000908152600d6020526040902060010181905591505092915050565b6014818154811061182457600080fd5b6000918252602090912001546001600160a01b0316905081565b600080546040805163f07424e960e01b8152905183926001600160a01b03169163f07424e99160048083019260209291908290030181865afa158015611888573d6000803e3d6000fd5b505050506040513d601f19601f820116820180604052508101906118ac9190615272565b90506000600160009054906101000a90046001600160a01b03166001600160a01b031663f07424e96040518163ffffffff1660e01b8152600401602060405180830381865afa158015611903573d6000803e3d6000fd5b505050506040513d601f19601f820116820180604052508101906119279190615272565b90506119338183615388565b9250505090565b6119426123f9565b610a1b816135e1565b6000805460408051631529a63960e01b8152905183926001600160a01b031691631529a6399160048083019260209291908290030181865afa158015611995573d6000803e3d6000fd5b505050506040513d601f19601f820116820180604052508101906119b99190615272565b90506000600160009054906101000a90046001600160a01b03166001600160a01b0316631529a6396040518163ffffffff1660e01b8152600401602060405180830381865afa158015611903573d6000803e3d6000fd5b6000611a1a6123f9565b6001600160a01b0383166000908152600d6020526040812054610a4c908490615388565b6001600160a01b0381166000908152601360205260408120600101546012548290610f6690839061525f565b6000806000611a7884613645565b915091506000611a8883836136c1565b95945050505050565b6000610a6b826136f7565b6001600160a01b0381166000908152600d602052604081208054600190910154909180611ac885611a3e565b9150611ad385610f3d565b9050611adf8285615388565b9350611aeb8184615388565b92509193509193565b6040805160e08082018352600080546001600160a01b03908116845260015481166020808601919091526008548216858701526009548216606080870191909152600a548316608080880191909152600754841660a08089019190915260065490941660c080890191909152885161010081018a5286815293840186905297830185905290820184905281018390529081018290529384018190529083015290611b9d83613723565b600260009054906101000a90046001600160a01b03166001600160a01b0316630fdb11cf6040518163ffffffff1660e01b81526004016020604051808303816000875af1158015611bf2573d6000803e3d6000fd5b505050506040513d601f19601f82011682018060405250810190611c169190615272565b60c08201819052611c26906137be565b611c2f89613831565b611c3e8260400151338b613898565b611c4661183e565b60e0820181905260408084015190516370a0823160e01b81526001600160a01b03909116906370a0823190611c7f903390600401614eef565b602060405180830381865afa158015611c9c573d6000803e3d6000fd5b505050506040513d601f19601f82011682018060405250810190611cc09190615272565b1115611cce57611cce61533d565b888152608082015160c0820151600091611ce9918b90613993565b15611cf5575087611e07565b82608001516001600160a01b0316634d6228316040518163ffffffff1660e01b8152600401602060405180830381865afa158015611d37573d6000803e3d6000fd5b505050506040513d601f19601f82011682018060405250810190611d5b919061539b565b90505b6001600160a01b03811615801590611d8a5750670f43fc2c04ee0000611d88828460c0015161224d565b105b15611e075782608001516001600160a01b031663b72703ac826040518263ffffffff1660e01b8152600401611dbf9190614eef565b602060405180830381865afa158015611ddc573d6000803e3d6000fd5b505050506040513d601f19601f82011682018060405250810190611e00919061539b565b9050611d5e565b84600003611e155760001994505b6001600160a01b03811615801590611e2d5750815115155b8015611e395750600085115b15611f4c5784611e48816153b8565b955050600083608001516001600160a01b031663b72703ac836040518263ffffffff1660e01b8152600401611e7d9190614eef565b602060405180830381865afa158015611e9a573d6000803e3d6000fd5b505050506040513d601f19601f82011682018060405250810190611ebe919061539b565b9050611ed3846000015185602001518461247b565b6000611eec858486600001518760c001518e8e8e613add565b9050806040015115611eff575050611f4c565b8051602085018051611f12908390615388565b9052506020810151604085018051611f2b908390615388565b905250805184518590611f3f90839061525f565b905250909150611e159050565b6000826040015111611fb25760405162461bcd60e51b815260206004820152602960248201527f54726f76654d616e616765723a20556e61626c6520746f2072656465656d20616044820152681b9e48185b5bdd5b9d60ba1b6064820152608401610b12565b611fc982604001518360c001518460e00151613d6b565b50611fd78260400151613e0e565b606083018190526040830151611fee919086613e1b565b60608301516001600160a01b03161561206d57825160608085015190840151604051636250216960e01b81526001600160a01b039093169263625021699261203a9290916004016152cd565b600060405180830381600087803b15801561205457600080fd5b505af1158015612068573d6000803e3d6000fd5b505050505b81606001518260400151612081919061525f565b60808301526020820151604080840151606085015191517f43a3f4082a4dbc33d78e317d2497d3a730bc7fc3574159dcea1056e62e5d9ad8936120dd938f93919293845260208401929092526040830152606082015260800190565b60405180910390a182604001516001600160a01b0316639dc29fac3384602001516040518363ffffffff1660e01b815260040161211b9291906152cd565b600060405180830381600087803b15801561213557600080fd5b505af1158015612149573d6000803e3d6000fd5b505084516020850151604051637b7fc9eb60e11b81526001600160a01b03909216935063f6ff93d692506121839160040190815260200190565b600060405180830381600087803b15801561219d57600080fd5b505af11580156121b1573d6000803e3d6000fd5b505084516080850151604051636250216960e01b81526001600160a01b039092169350636250216992506121ea913391906004016152cd565b600060405180830381600087803b15801561220457600080fd5b505af1158015612218573d6000803e3d6000fd5b5050505050505050505050505050565b6000610eb9612235612f43565b612e49565b6122426123f9565b610a1b816002613e8c565b600080600061225b85613645565b915091506000610fee838387614033565b60006122766123f9565b6001600160a01b0383166000908152600d60205260408120600101546117ed90849061525f565b6000610a6b6122aa612228565b83614064565b6000601482815481106122c5576122c5615327565b6000918252602090912001546001600160a01b031692915050565b600060016001600160a01b0383166000908152600d602052604090206003015460ff16600481111561231457612314615131565b1461232157506000919050565b506011546001600160a01b039091166000908152601360205260409020541090565b6003546001600160a01b0316331461236d5760405162461bcd60e51b8152600401610b1290615353565b6001600160a01b0381166123d25760405162461bcd60e51b815260206004820152602660248201527f4f776e61626c653a206e6577206f776e657220697320746865207a65726f206160448201526564647265737360d01b6064820152608401610b12565b610a1b816140f4565b6000610eb9600b546134a0565b6123f06123f9565b610a1b81614146565b6004546001600160a01b031633146124795760405162461bcd60e51b815260206004820152603b60248201527f54726f76654d616e616765723a2043616c6c6572206973206e6f74207468652060448201527f426f72726f7765724f7065726174696f6e7320636f6e747261637400000000006064820152608401610b12565b565b612484816122e0565b156125725761249281612e86565b600061249d82610f3d565b905060006124aa83611a3e565b6001600160a01b0384166000908152600d60205260408120600101805492935084929091906124da908490615388565b90915550506001600160a01b0383166000908152600d602052604081208054839290612507908490615388565b909155506125169050836135e1565b61252285858385614198565b6001600160a01b0383166000818152600d60205260408082208054600182015460029092015492516000805160206154a68339815191529461256794929392916153e3565b60405180910390a250505b505050565b601480546001808201835560008381527fce6d7b5282bd9a3661ae061feed1dbda4e52ab073b1f9285be6e155d9c38d4ec90920180546001600160a01b0319166001600160a01b038616179055915490916125d19161525f565b6001600160a01b03929092166000908152600d602052604090206003018054610100600160881b0319166101006001600160801b038516021790555090565b6001600160a01b0381166000908152600d6020526040812060010154819061263790614279565b6001600160a01b0384166000908152600d60205260409020600201805490829055600e5491925090829061266c90839061525f565b6126769190615388565b600e8190556040519081527f6bac5e0eb3c44eb03a60ab11ec3a2c051771616aecadbcfff2630aabae5203829060200160405180910390a15092915050565b6000806126c1836136f7565b6714d1120d7b160000119392505050565b6126da614e5b565b6126e2614ea7565b6126ea614e5b565b848252600060808301526126fc61183e565b60a083015261270961194b565b60c0830152600060208301525b8351826020015110156128fc578382602001518151811061273957612739615327565b6020908102919091018101516001600160a01b0316606084018190526000908152600d909152604090206003015460019060ff16600481111561277e5761277e615131565b036128e45761279182606001518761224d565b6040830152608082015161288757670f43fc2c04ee00008260400151101580156127ba57508151155b6128e45760006127d38360c001518460a0015189614033565b90506127f08989856060015186604001518760000151868d6142af565b9150816080015183600001818151612808919061525f565b905250608082015160a08401805161282190839061525f565b905250610100820151604083015160a084015161283e9190615388565b6128489190615388565b8360c001818151612859919061525f565b90525061286684836145aa565b935061287b8360c001518460a0015189614694565b156080840152506128e4565b816080015180156128a35750670f43fc2c04ee00008260400151105b156128e4576128bc8888846060015185600001516146b5565b90508060800151826000018181516128d4919061525f565b9052506128e183826145aa565b92505b602082018051906128f482615405565b905250612716565b505095945050505050565b61290f614e5b565b612917614ea7565b61291f614e5b565b848252600060208301525b8351826020015110156128fc578382602001518151811061294d5761294d615327565b60209081029190910101516001600160a01b031660608301819052612972908761224d565b60408301819052670f43fc2c04ee000011156129c45761299c8888846060015185600001516146b5565b90508060800151826000018181516129b4919061525f565b9052506129c183826145aa565b92505b602082018051906129d482615405565b90525061292a565b8115612c15576015546000906129fa670de0b6b3a764000084615310565b612a049190615388565b90506000601654670de0b6b3a764000085612a1f9190615310565b612a299190615388565b90506000600e5483612a3b91906152fc565b90506000600e5483612a4d91906152fc565b9050600e5482612a5d9190615310565b612a67908561525f565b601555600e54612a779082615310565b612a81908461525f565b6016819055508160116000828254612a999190615388565b925050819055508060126000828254612ab29190615388565b90915550506011546012546040517f9f8bc8ab0daf5bceef75ecfd2085d1fcc6548c657ea970d9a23a60610d0737e392612af492908252602082015260400190565b60405180910390a1604051637b7fc9eb60e11b8152600481018790526001600160a01b0389169063f6ff93d690602401600060405180830381600087803b158015612b3e57600080fd5b505af1158015612b52573d6000803e3d6000fd5b50506040516342c31a2360e01b8152600481018990526001600160a01b038a1692506342c31a239150602401600060405180830381600087803b158015612b9857600080fd5b505af1158015612bac573d6000803e3d6000fd5b5050604051636250216960e01b81526001600160a01b038b16925063625021699150612bde908a9089906004016152cd565b600060405180830381600087803b158015612bf857600080fd5b505af1158015612c0c573d6000803e3d6000fd5b50505050505050505b50505050565b600e54600f819055506000826001600160a01b0316631529a6396040518163ffffffff1660e01b8152600401602060405180830381865afa158015612c64573d6000803e3d6000fd5b505050506040513d601f19601f82011682018060405250810190612c889190615272565b90506000600160009054906101000a90046001600160a01b03166001600160a01b0316631529a6396040518163ffffffff1660e01b8152600401602060405180830381865afa158015612cdf573d6000803e3d6000fd5b505050506040513d601f19601f82011682018060405250810190612d039190615272565b905080612d10848461525f565b612d1a9190615388565b6010819055600f546040517f51bf4c63ec3cba9d03d43238abbdd979dd91bd16d9895c74ceea9118c7baaf6092612d58928252602082015260400190565b60405180910390a150505050565b8115612ddd57600854600654604051631062c15f60e11b81526001600160a01b0391821660048201528582166024820152604481018590529116906320c582be90606401600060405180830381600087803b158015612dc457600080fd5b505af1158015612dd8573d6000803e3d6000fd5b505050505b8015612c1557604051636250216960e01b81526001600160a01b03851690636250216990612e1190869085906004016152cd565b600060405180830381600087803b158015612e2b57600080fd5b505af1158015612e3f573d6000803e3d6000fd5b5050505050505050565b6000610a6b82612e636103e8670de0b6b3a76400006152fc565b612e6e906005615310565b612e789190615388565b670de0b6b3a76400006147fc565b60016001600160a01b0382166000908152600d602052604090206003015460ff166004811115612eb857612eb8615131565b14610a1b5760405162461bcd60e51b815260206004820152602f60248201527f54726f76654d616e616765723a2054726f766520646f6573206e6f742065786960448201526e1cdd081bdc881a5cc818db1bdcd959608a1b6064820152608401610b12565b6000670de0b6b3a7640000612f328385615310565b612f3c91906152fc565b9392505050565b600080612f4e614812565b90506000612f64670ddd4b8c6c7d70d88361482e565b9050670de0b6b3a764000081600b54612f7d9190615310565b61193391906152fc565b6000600c5442612f97919061525f565b9050603c8110610a1b5742600c8190556040519081527f860f8d2f0c74dd487e89e2883e3b25b8159ce1e1b3433a291cba7b82c508f3bc906020015b60405180910390a150565b612fe6614e5b565b612fee614ea7565b612ff6614e5b565b8482526000608083015261300861183e565b60a083015261301561194b565b8260c001818152505086608001516001600160a01b0316634d6228316040518163ffffffff1660e01b8152600401602060405180830381865afa158015613060573d6000803e3d6000fd5b505050506040513d601f19601f82011682018060405250810190613084919061539b565b82606001906001600160a01b031690816001600160a01b031681525050600087608001516001600160a01b0316631e2231436040518163ffffffff1660e01b8152600401602060405180830381865afa1580156130e5573d6000803e3d6000fd5b505050506040513d601f19601f82011682018060405250810190613109919061539b565b6000602085015290505b84836020015110801561313c5750806001600160a01b031683606001516001600160a01b031614155b1561335f5760808801516060840151604051632dc9c0eb60e21b81526000926001600160a01b03169163b72703ac916131789190600401614eef565b602060405180830381865afa158015613195573d6000803e3d6000fd5b505050506040513d601f19601f820116820180604052508101906131b9919061539b565b90506131c984606001518961224d565b604085015260808401516132ca57670f43fc2c04ee00008460400151101580156131f257508351155b156131fd575061335f565b60006132128560c001518660a001518b614033565b8a5160208c015160608801516040890151895194955061323394868f6142af565b935083608001518560000181815161324b919061525f565b905250608084015160a08601805161326490839061525f565b905250610100840151604085015160a08601516132819190615388565b61328b9190615388565b8560c00181815161329c919061525f565b9052506132a986856145aa565b95506132be8560c001518660a001518b614694565b15608086015250613339565b836080015180156132e65750670f43fc2c04ee00008460400151105b156133335761330789600001518a60200151866060015187600001516146b5565b925082608001518460000181815161331f919061525f565b90525061332c85846145aa565b9450613339565b5061335f565b6001600160a01b031660608401526020830180519061335782615405565b905250613113565b505050949350505050565b613372614e5b565b61337a614ea7565b613382614e5b565b600a54858352600060208401526001600160a01b03165b848360200151101561349457806001600160a01b0316634d6228316040518163ffffffff1660e01b8152600401602060405180830381865afa1580156133e3573d6000803e3d6000fd5b505050506040513d601f19601f82011682018060405250810190613407919061539b565b6001600160a01b031660608401819052613421908861224d565b60408401819052670f43fc2c04ee000011156134775761344b8989856060015186600001516146b5565b9150816080015183600001818151613463919061525f565b90525061347084836145aa565b935061347c565b613494565b6020830180519061348c82615405565b905250613399565b50505095945050505050565b6000610a6b826134ba6103e8670de0b6b3a76400006152fc565b6134c5906005615310565b6134cf9190615388565b6134e26064670de0b6b3a76400006152fc565b6134ed906005615310565b6147fc565b6001600160a01b0381166135485760405162461bcd60e51b815260206004820152601e60248201527f4163636f756e742063616e6e6f74206265207a65726f206164647265737300006044820152606401610b12565b803b80610f265760405162461bcd60e51b815260206004820181905260248201527f4163636f756e7420636f64652073697a652063616e6e6f74206265207a65726f6044820152606401610b12565b6003546040516000916001600160a01b0316907f8be0079c531659141344cd1fd0a4f28419497f9722a3daafe3b4186f6b6457e0908390a3600380546001600160a01b0319169055565b601180546001600160a01b038316600090815260136020526040908190209182556012546001909201829055915491517fc437f324d85e369394148dd9d62f98f534b382e01ed3dd2eb98138fb6d3ab49a92612fd392908252602082015260400190565b600080600061365384610f3d565b9050600061366085611a3e565b6001600160a01b0386166000908152600d60205260408120600101549192509061368b908490615388565b6001600160a01b0387166000908152600d6020526040812054919250906136b3908490615388565b919791965090945050505050565b600081156136ee57816136dd68056bc75e2d6310000085615310565b6136e791906152fc565b9050610a6b565b50600019610a6b565b60008061370261194b565b9050600061370e61183e565b905061371b828286614033565b949350505050565b6137376103e8670de0b6b3a76400006152fc565b613742906005615310565b81101580156137595750670de0b6b3a76400008111155b610a1b5760405162461bcd60e51b815260206004820152603060248201527f4d6178206665652070657263656e74616765206d75737420626520626574776560448201526f656e20302e352520616e64203130302560801b6064820152608401610b12565b670f43fc2c04ee00006137d0826136f7565b1015610a1b5760405162461bcd60e51b815260206004820152602a60248201527f54726f76654d616e616765723a2043616e6e6f742072656465656d207768656e604482015269102a21a9101e1026a1a960b11b6064820152608401610b12565b60008111610a1b5760405162461bcd60e51b815260206004820152602e60248201527f54726f76654d616e616765723a20416d6f756e74206d7573742062652067726560448201526d61746572207468616e207a65726f60901b6064820152608401610b12565b6040516370a0823160e01b815281906001600160a01b038516906370a08231906138c6908690600401614eef565b602060405180830381865afa1580156138e3573d6000803e3d6000fd5b505050506040513d601f19601f820116820180604052508101906139079190615272565b10156125725760405162461bcd60e51b815260206004820152604f60248201527f54726f76654d616e616765723a2052657175657374656420726564656d70746960448201527f6f6e20616d6f756e74206d757374206265203c3d20757365722773205448555360648201526e4420746f6b656e2062616c616e636560881b608482015260a401610b12565b60006001600160a01b0383161580613a155750604051630bb7c8fd60e31b81526001600160a01b03851690635dbe47e8906139d2908690600401614eef565b602060405180830381865afa1580156139ef573d6000803e3d6000fd5b505050506040513d601f19601f82011682018060405250810190613a13919061541e565b155b80613a305750670f43fc2c04ee0000613a2e848461224d565b105b15613a3d57506000612f3c565b60405163765e015960e01b81526000906001600160a01b0386169063765e015990613a6c908790600401614eef565b602060405180830381865afa158015613a89573d6000803e3d6000fd5b505050506040513d601f19601f82011682018060405250810190613aad919061539b565b90506001600160a01b0381161580611a885750670f43fc2c04ee0000613ad3828561224d565b1095945050505050565b613b03604051806060016040528060008152602001600081526020016000151581525090565b6001600160a01b0387166000908152600d6020526040902054613b369087906134ed90680ad78ebc5ac62000009061525f565b8082528590613b4e90670de0b6b3a764000090615310565b613b5891906152fc565b60208083019190915281516001600160a01b0389166000908152600d9092526040822054613b86919061525f565b6020808401516001600160a01b038b166000908152600d90925260408220600101549293509091613bb7919061525f565b9050680ad78ebc5ac62000008203613c2f57613bd289614146565b613bdd896004613e8c565b613bf28a8a680ad78ebc5ac6200000846148d9565b886001600160a01b03166000805160206154a683398151915260008060006003604051613c2294939291906153e3565b60405180910390a2613d5d565b6000613c3b82846136c1565b90508481141580613c5c5750686194049f30f7200000613c5a84614a38565b105b15613c705750506001604083015250613d60565b60808b015160405163015f109360e51b81526001600160a01b038c81166004830152602482018490528981166044830152888116606483015290911690632be2126090608401600060405180830381600087803b158015613cd057600080fd5b505af1158015613ce4573d6000803e3d6000fd5b5050506001600160a01b038b166000908152600d6020526040902084815560010183905550613d128a612610565b506001600160a01b038a166000818152600d6020526040908190206002015490516000805160206154a683398151915291613d5391879187916003906153e3565b60405180910390a2505b50505b979650505050505050565b600080613d76612f43565b9050600083613d858688615310565b613d8f91906152fc565b90506000613d9e6002836152fc565b613da89084615388565b9050613dbc81670de0b6b3a76400006147fc565b905060008111613dce57613dce61533d565b600b8190556040518181527fc454ee9b76c52f782a256af821b857ca6e125d1e3333bcede402fec2bed9600c9060200160405180910390a1610fee612f87565b6000610a6b6122aa610eac565b600082613e30670de0b6b3a764000086615310565b613e3a91906152fc565b905081811115612c155760405162461bcd60e51b815260206004820152601d60248201527f4665652065786365656465642070726f7669646564206d6178696d756d0000006044820152606401610b12565b6000816004811115613ea057613ea0615131565b14158015613ec057506001816004811115613ebd57613ebd615131565b14155b613ecc57613ecc61533d565b60145460085460048054604051635f7a196360e11b81526001600160a01b039384169363bef432c693613f03939091169101614eef565b602060405180830381865afa158015613f20573d6000803e3d6000fd5b505050506040513d601f19601f82011682018060405250810190613f44919061541e565b15613f5257613f5281614a4d565b6001600160a01b0383166000908152600d60205260409020600301805483919060ff19166001836004811115613f8a57613f8a615131565b02179055506001600160a01b0383166000908152600d60209081526040808320600180820185905590849055601390925282208281550155613fcc8382614b27565b600a54604051631484968760e11b81526001600160a01b03909116906329092d0e90613ffc908690600401614eef565b600060405180830381600087803b15801561401657600080fd5b505af115801561402a573d6000803e3d6000fd5b50505050505050565b6000821561405b576000836140488487615310565b61405291906152fc565b9150612f3c9050565b50600019612f3c565b600080670de0b6b3a764000061407a8486615310565b61408491906152fc565b9050828110612f3c5760405162461bcd60e51b815260206004820152603660248201527f54726f76654d616e616765723a2046656520776f756c642065617420757020616044820152751b1b081c995d1d5c9b99590818dbdb1b185d195c985b60521b6064820152608401610b12565b600380546001600160a01b038381166001600160a01b0319831681179093556040519116919082907f8be0079c531659141344cd1fd0a4f28419497f9722a3daafe3b4186f6b6457e090600090a35050565b6001600160a01b0381166000908152600d6020526040812060020154600e80549192839261417590849061525f565b9091555050506001600160a01b03166000908152600d6020526040812060020155565b604051637b7fc9eb60e11b8152600481018390526001600160a01b0384169063f6ff93d690602401600060405180830381600087803b1580156141da57600080fd5b505af11580156141ee573d6000803e3d6000fd5b50506040516342c31a2360e01b8152600481018590526001600160a01b03871692506342c31a239150602401600060405180830381600087803b15801561423457600080fd5b505af1158015614248573d6000803e3d6000fd5b5050604051633ef8ba8160e11b8152600481018490526001600160a01b0386169250637df175029150602401612e11565b60008060105460000361428d575081610a6b565b6000600f541161429f5761429f61533d565b601054600f54612f329085615310565b6142b7614e5b565b6142db60405180606001604052806000815260200160008152602001600081525090565b6014546001106142eb5750613d60565b6142f487611a9c565b6040850152602084810191909152840181905290835261431390614cf7565b60408301819052680ad78ebc5ac620000060608401526020830151614338919061525f565b8152670de0b6b3a764000086116144035761435d898983602001518460400151614198565b61436687614146565b60006080830181905260a0830152815160c0830152805160e083015261438d876003613e8c565b815160208301516040516001600160a01b038a1692600080516020615486833981519152926143be92600290615440565b60405180910390a2866001600160a01b03166000805160206154a6833981519152600080600060026040516143f694939291906153e3565b60405180910390a261459e565b670de0b6b3a7640000861180156144215750670f43fc2c04ee000086105b156144715761443a898983602001518460400151614198565b61444387614146565b81518151614452919087614d04565b60e086015260c085015260a0840152608083015261438d876003613e8c565b670f43fc2c04ee0000861015801561448857508386105b8015614495575081518510155b1561458d576144ae898983602001518460400151614198565b846000036144be576144be61533d565b6144c787614146565b6144da8260000151836020015185614d65565b91506144e7876003613e8c565b6101008201511561455c57600754610100830151604051633f10abab60e01b81526001600160a01b0390921691633f10abab91614529918b91906004016152cd565b600060405180830381600087803b15801561454357600080fd5b505af1158015614557573d6000803e3d6000fd5b505050505b815160a08301516040516001600160a01b038a1692600080516020615486833981519152926143be92600290615440565b614595614e5b565b9150613d609050565b50979650505050505050565b6145b2614e5b565b816040015183604001516145c69190615388565b6040820152606080830151908401516145df9190615388565b6060820152815160208401516145f59190615388565b602080830191909152820151835161460d9190615388565b8152608080830151908401516146239190615388565b608082015260a0808301519084015161463c9190615388565b60a082015260c080830151908401516146559190615388565b60c082015260e0808301519084015161466e9190615388565b60e082015261010080830151908401516146889190615388565b61010082015292915050565b6000806146a2858585614033565b6714d1120d7b1600001195945050505050565b6146bd614e5b565b6146e160405180606001604052806000815260200160008152602001600081525090565b6146ea84611a9c565b60408501908152602085810192835286019290925291845290519051614714918891889190614198565b61471d84614146565b61472a8260200151614cf7565b60408301819052680ad78ebc5ac6200000606084015260208301516000916147519161525f565b905061476283600001518286614d04565b60e087015260c086015260a08501526080840152614781856003613e8c565b825160208401516040516001600160a01b03881692600080516020615486833981519152926147b292600190615440565b60405180910390a2846001600160a01b03166000805160206154a6833981519152600080600060016040516147ea94939291906153e3565b60405180910390a25050949350505050565b600081831061480b5781612f3c565b5090919050565b6000603c600c5442614824919061525f565b610eb991906152fc565b6000631f54050082111561484457631f54050091505b8160000361485b5750670de0b6b3a7640000610a6b565b670de0b6b3a764000083835b60018111156148cf5761487b60028261545b565b6000036148a05761488c8283614df3565b91506148996002826152fc565b9050614867565b6148aa8284614df3565b92506148b68283614df3565b915060026148c560018361525f565b61489991906152fc565b610fee8284614df3565b6040808501516006549151632770a7eb60e21b81526001600160a01b0391821692639dc29fac926149119291169086906004016152cd565b600060405180830381600087803b15801561492b57600080fd5b505af115801561493f573d6000803e3d6000fd5b50508551604051637b7fc9eb60e11b8152600481018690526001600160a01b03909116925063f6ff93d69150602401600060405180830381600087803b15801561498857600080fd5b505af115801561499c573d6000803e3d6000fd5b505050508360a001516001600160a01b0316633f10abab84836040518363ffffffff1660e01b81526004016149d29291906152cd565b600060405180830381600087803b1580156149ec57600080fd5b505af1158015614a00573d6000803e3d6000fd5b5050855160a0870151604051636250216960e01b81526001600160a01b03909216935063625021699250612e119185906004016152cd565b6000610a6b680ad78ebc5ac62000008361525f565b600181118015614ac85750600a546040805163de8fa43160e01b815290516001926001600160a01b03169163de8fa4319160048083019260209291908290030181865afa158015614aa2573d6000803e3d6000fd5b505050506040513d601f19601f82011682018060405250810190614ac69190615272565b115b610a1b5760405162461bcd60e51b815260206004820152602a60248201527f54726f76654d616e616765723a204f6e6c79206f6e652074726f766520696e206044820152697468652073797374656d60b01b6064820152608401610b12565b6001600160a01b0382166000908152600d602052604081206003015460ff1690816004811115614b5957614b59615131565b14158015614b7957506001816004811115614b7657614b76615131565b14155b614b8557614b8561533d565b6001600160a01b0383166000908152600d602052604081206003015461010090046001600160801b0316908390614bbd60018361525f565b905080836001600160801b03161115614bd857614bd861533d565b600060148281548110614bed57614bed615327565b600091825260209091200154601480546001600160a01b03909216925082916001600160801b038716908110614c2557614c25615327565b600091825260208083209190910180546001600160a01b0319166001600160a01b03948516179055918316808252600d83526040918290206003018054610100600160881b0319166101006001600160801b038a16908102919091179091558251918252928101929092527f02b04ae5f7be9ca7c103293a2aa15f3c339d15d6eda53b721fef7b0e609c831a910160405180910390a16014805480614ccc57614ccc61546f565b600082815260209020810160001990810180546001600160a01b031916905501905550505050505050565b6000610a6b60c8836152fc565b60008080808415614d4f57614d1987866147fc565b935086614d268588615310565b614d3091906152fc565b9250614d3c848861525f565b9150614d48838761525f565b9050614d5c565b5060009250829150859050845b93509350935093565b614d6d614e5b565b83815260208101839052600082614d8c670f43fc2c04ee000087615310565b614d9691906152fc565b9050614da181614cf7565b60408301819052680ad78ebc5ac6200000606084015260808301869052614dc8908261525f565b60a0830152614dd7818561525f565b61010083015250600060c0820181905260e08201529392505050565b600080614e008385615310565b9050670de0b6b3a7640000614e166002826152fc565b614e209083615388565b61371b91906152fc565b6040518060a00160405280600081526020016000815260200160001515815260200160008152602001600081525090565b6040518061012001604052806000815260200160008152602001600081526020016000815260200160008152602001600081526020016000815260200160008152602001600081525090565b6040518060e0016040528060008152602001600081526020016000815260200160006001600160a01b0316815260200160001515815260200160008152602001600081525090565b6001600160a01b0391909116815260200190565b6001600160a01b0381168114610a1b57600080fd5b8035614f2381614f03565b919050565b600060208284031215614f3a57600080fd5b8135612f3c81614f03565b60008060408385031215614f5857600080fd5b8235614f6381614f03565b946020939093013593505050565b634e487b7160e01b600052604160045260246000fd5b60006020808385031215614f9a57600080fd5b823567ffffffffffffffff80821115614fb257600080fd5b818501915085601f830112614fc657600080fd5b813581811115614fd857614fd8614f71565b8060051b604051601f19603f83011681018181108582111715614ffd57614ffd614f71565b60405291825284820192508381018501918883111561501b57600080fd5b938501935b828510156150405761503185614f18565b84529385019392850192615020565b98975050505050505050565b60006020828403121561505e57600080fd5b5035919050565b6000806000806000806000806000806101408b8d03121561508557600080fd5b8a3561509081614f03565b995060208b01356150a081614f03565b985060408b01356150b081614f03565b975060608b01356150c081614f03565b965060808b01356150d081614f03565b955060a08b01356150e081614f03565b945060c08b01356150f081614f03565b935060e08b013561510081614f03565b92506101008b013561511181614f03565b91506151206101208c01614f18565b90509295989b9194979a5092959850565b634e487b7160e01b600052602160045260246000fd5b858152602081018590526040810184905260a081016005841061516c5761516c615131565b60608201939093526001600160801b03919091166080909101529392505050565b600060208083528351808285015260005b818110156151ba5785810183015185820160400152820161519e565b506000604082860101526040601f19601f8301168501019250505092915050565b600080600080600080600060e0888a0312156151f657600080fd5b87359650602088013561520881614f03565b9550604088013561521881614f03565b9450606088013561522881614f03565b9699959850939660808101359560a0820135955060c0909101359350915050565b634e487b7160e01b600052601160045260246000fd5b81810381811115610a6b57610a6b615249565b60006020828403121561528457600080fd5b5051919050565b60208082526022908201527f54726f76654d616e616765723a206e6f7468696e6720746f206c697175696461604082015261746560f01b606082015260800190565b6001600160a01b03929092168252602082015260400190565b634e487b7160e01b600052601260045260246000fd5b60008261530b5761530b6152e6565b500490565b8082028115828204841417610a6b57610a6b615249565b634e487b7160e01b600052603260045260246000fd5b634e487b7160e01b600052600160045260246000fd5b6020808252818101527f4f776e61626c653a2063616c6c6572206973206e6f7420746865206f776e6572604082015260600190565b80820180821115610a6b57610a6b615249565b6000602082840312156153ad57600080fd5b8151612f3c81614f03565b6000816153c7576153c7615249565b506000190190565b600481106153df576153df615131565b9052565b848152602081018490526040810183905260808101611a8860608301846153cf565b60006001820161541757615417615249565b5060010190565b60006020828403121561543057600080fd5b81518015158114612f3c57600080fd5b838152602081018390526060810161371b60408301846153cf565b60008261546a5761546a6152e6565b500690565b634e487b7160e01b600052603160045260246000fdfeea67486ed7ebe3eea8ab3390efd4a3c8aae48be5bea27df104a8af786c408434c3770d654ed33aeea6bf11ac8ef05d02a6a04ed4686dd2f624d853bbec43cc8ba26469706673582212207a22d0716d904ff05896d80b8161f0abbc236d77ab022397a76f942f6d61894d64736f6c63430008110033608060405234801561001057600080fd5b50600380546001600160a01b031916339081179091556040516000907f8be0079c531659141344cd1fd0a4f28419497f9722a3daafe3b4186f6b6457e0908290a36139fb806100606000396000f3fe6080604052600436106102055760003560e01c80637985c5e411610113578063a3f4df7e116100ab578063bd59121e1161006f578063bd59121e146105f4578063d56d6bbe14610614578063f2fde38b14610627578063f92d343314610647578063fe9d03231461065c57600080fd5b8063a3f4df7e14610536578063abfad25d14610581578063ae91875414610594578063ae9d445c146105b4578063b064b0b7146105d457600080fd5b80637985c5e4146104525780637f7dde4a14610472578063877eb17914610492578063887105d3146104b25780638da5cb5b146104c75780638e54c119146104e55780638f09162b146104f85780638f32d59b1461050b578063a20baee6146103c557600080fd5b806348d399e7116101a157806372fe25aa1161016557806372fe25aa146103c5578063741bef1a146103e157806377e16f1e14610401578063794e572414610421578063795d26c31461043d57600080fd5b806348d399e7146103345780634ff81443146103545780635530273c146103745780635733d58f146103945780636f0b0c1c146103b057600080fd5b80630b622ab21461020a5780630e704d50146102405780631bf43555146102575780631fd6a434146102825780633cc742251461029f5780633d83908a146102bf5780633db008c7146102df5780634597f6ed146102ff5780634870dd9a1461031f575b600080fd5b34801561021657600080fd5b5060085461022a906001600160a01b031681565b60405161023791906134e3565b60405180910390f35b34801561024c57600080fd5b5061025561067c565b005b34801561026357600080fd5b50610274686194049f30f720000081565b604051908152602001610237565b34801561028e57600080fd5b50610274680ad78ebc5ac620000081565b3480156102ab57600080fd5b5060015461022a906001600160a01b031681565b3480156102cb57600080fd5b5060045461022a906001600160a01b031681565b3480156102eb57600080fd5b5060075461022a906001600160a01b031681565b34801561030b57600080fd5b50600a5461022a906001600160a01b031681565b34801561032b57600080fd5b5061027460c881565b34801561034057600080fd5b5060055461022a906001600160a01b031681565b34801561036057600080fd5b5061027461036f3660046134f7565b610aaa565b34801561038057600080fd5b5061025561038f36600461352c565b610abb565b3480156103a057600080fd5b506102746714d1120d7b16000081565b3480156103bc57600080fd5b50610255610ad3565b3480156103d157600080fd5b50610274670de0b6b3a764000081565b3480156103ed57600080fd5b5060025461022a906001600160a01b031681565b34801561040d57600080fd5b50600b5461022a906001600160a01b031681565b34801561042d57600080fd5b50610274670f43fc2c04ee000081565b34801561044957600080fd5b50610274610b37565b34801561045e57600080fd5b5061025561046d366004613568565b610c33565b34801561047e57600080fd5b5060005461022a906001600160a01b031681565b34801561049e57600080fd5b506102556104ad366004613634565b610ff9565b3480156104be57600080fd5b5061027461100c565b3480156104d357600080fd5b506003546001600160a01b031661022a565b6102556104f3366004613688565b6110d1565b6102556105063660046136f4565b6110f5565b34801561051757600080fd5b506003546001600160a01b031633146040519015158152602001610237565b34801561054257600080fd5b5061057460405180604001604052806012815260200171426f72726f7765724f7065726174696f6e7360701b81525081565b6040516102379190613744565b61025561058f366004613792565b6116ea565b3480156105a057600080fd5b50600c5461022a906001600160a01b031681565b3480156105c057600080fd5b506102556105cf3660046134f7565b611710565b3480156105e057600080fd5b506102556105ef3660046134f7565b6117a5565b34801561060057600080fd5b5061025561060f36600461352c565b611805565b61025561062236600461352c565b611818565b34801561063357600080fd5b506102556106423660046137c6565b611836565b34801561065357600080fd5b506102746118d1565b34801561066857600080fd5b5060065461022a906001600160a01b031681565b6004805460008054600b54604051635f7a196360e11b81526001600160a01b0394851695928516949091169291839163bef432c6916106bd913091016134e3565b602060405180830381865afa1580156106da573d6000803e3d6000fd5b505050506040513d601f19601f820116820180604052508101906106fe91906137e1565b905061070a84336118f3565b60025460408051630fdb11cf60e01b815290516000926001600160a01b031691630fdb11cf916004808301926020929190829003018187875af1158015610755573d6000803e3d6000fd5b505050506040513d601f19601f8201168201806040525081019061077991906137fe565b9050811561078a5761078a816119cc565b604051630b07655760e01b81526001600160a01b03861690630b076557906107b69033906004016134e3565b600060405180830381600087803b1580156107d057600080fd5b505af11580156107e4573d6000803e3d6000fd5b50506040516309019aaf60e31b8152600092506001600160a01b038816915063480cd578906108179033906004016134e3565b602060405180830381865afa158015610834573d6000803e3d6000fd5b505050506040513d601f19601f8201168201806040525081019061085891906137fe565b90506000866001600160a01b031663d66a2553336040518263ffffffff1660e01b815260040161088891906134e3565b602060405180830381865afa1580156108a5573d6000803e3d6000fd5b505050506040513d601f19601f820116820180604052508101906108c991906137fe565b90506108e885336108e3680ad78ebc5ac62000008561382d565b611a44565b831561090c5760006108ff83600084600088611b27565b905061090a81611b9c565b505b604051631fc5750960e31b81526001600160a01b0388169063fe2ba848906109389033906004016134e3565b600060405180830381600087803b15801561095257600080fd5b505af1158015610966573d6000803e3d6000fd5b50506040516365e89c5760e11b81526001600160a01b038a16925063cbd138ae91506109969033906004016134e3565b600060405180830381600087803b1580156109b057600080fd5b505af11580156109c4573d6000803e3d6000fd5b50505050336001600160a01b03166000805160206139a6833981519152600080600060016040516109f89493929190613862565b60405180910390a2610a1e868633610a19680ad78ebc5ac62000008661382d565b611c2c565b600654610a4190879087906001600160a01b0316680ad78ebc5ac6200000611c2c565b604051636250216960e01b81526001600160a01b03871690636250216990610a6f9033908690600401613884565b600060405180830381600087803b158015610a8957600080fd5b505af1158015610a9d573d6000803e3d6000fd5b5050505050505050505050565b6000610ab582611cec565b92915050565b610ace3384600080600087876000611d01565b505050565b60095460405163b32beb5b60e01b81526001600160a01b039091169063b32beb5b90610b039033906004016134e3565b600060405180830381600087803b158015610b1d57600080fd5b505af1158015610b31573d6000803e3d6000fd5b50505050565b600080546040805163f07424e960e01b8152905183926001600160a01b03169163f07424e99160048083019260209291908290030181865afa158015610b81573d6000803e3d6000fd5b505050506040513d601f19601f82011682018060405250810190610ba591906137fe565b90506000600160009054906101000a90046001600160a01b03166001600160a01b031663f07424e96040518163ffffffff1660e01b8152600401602060405180830381865afa158015610bfc573d6000803e3d6000fd5b505050506040513d601f19601f82011682018060405250810190610c2091906137fe565b9050610c2c818361389d565b9250505090565b6003546001600160a01b03163314610c665760405162461bcd60e51b8152600401610c5d906138b0565b60405180910390fd5b610c6f8b6122db565b610c788a6122db565b610c81896122db565b610c8a886122db565b610c93876122db565b610c9c866122db565b610ca5856122db565b610cae846122db565b610cb7836122db565b6001600160a01b03821615610ccf57610ccf826122db565b6001600160a01b03811615610ce757610ce7816122db565b600480546001600160a01b03199081166001600160a01b038e8116919091179092556000805482168d84161790556001805482168c84161790556008805482168b84161790556006805482168a8416179055600980548216898416179055600280548216888416179055600c80548216878416179055600b80548216868416179055600780548216858416908117909155600a805483169091179055600580549091169183169190911790556040517f143219c9e69b09e07e095fcc889b43d8f46ca892bba65f08dc3a0050869a567890610dc3908d906134e3565b60405180910390a17f78f058b189175430c48dc02699e3a0031ea4ff781536dc2fab847de4babdd8828a604051610dfa91906134e3565b60405180910390a17f5ee0cae2f063ed938bb55046f6a932fb6ae792bf43624806bb90abe68a50be9b89604051610e3191906134e3565b60405180910390a17f82966d27eea39b038ee0fa30cd16532bb24f6e65d31cb58fb227aa5766cdcc7f88604051610e6891906134e3565b60405180910390a17fcfb07d791fcafc032b35837b50eb84b74df518cf4cc287e8084f47630fa70fa087604051610e9f91906134e3565b60405180910390a17fe67f36a6e961157d6eff83b91f3af5a62131ceb6f04954ef74f51c1c05e7f88d86604051610ed691906134e3565b60405180910390a17f8c537274438aa850a330284665d81a85dd38267d09e4050d416bfc94142db26485604051610f0d91906134e3565b60405180910390a17f65f4cf077bc01e4742eb5ad98326f6e95b63548ea24b17f8d5e823111fe7880084604051610f4491906134e3565b60405180910390a17fe1e858a66c0bbbcdfa22d58dde1e5d42370be20cdb176e560287f85412e546e083604051610f7b91906134e3565b60405180910390a17f38335c64466e2376ab931166337e19127650d842036ebe01da1ba3e5c1255ebb82604051610fb291906134e3565b60405180910390a17ffba7421f3d1a98e80d72491a6e0523133444a5842cc7310951d8b82d075a7dff81604051610fe991906134e3565b60405180910390a1610a9d612384565b610b31336000856001600087878b611d01565b6000805460408051631529a63960e01b8152905183926001600160a01b031691631529a6399160048083019260209291908290030181865afa158015611056573d6000803e3d6000fd5b505050506040513d601f19601f8201168201806040525081019061107a91906137fe565b90506000600160009054906101000a90046001600160a01b03166001600160a01b0316631529a6396040518163ffffffff1660e01b8152600401602060405180830381865afa158015610bfc573d6000803e3d6000fd5b6110da836123ce565b92506110ec338787878787878e611d01565b50505050505050565b6040805160608082018352600480546001600160a01b039081168452600080548216602080870191909152600b548316868801528651610100810188528281528082018390528088018390529485018290526080850182905260a0850182905260c0850182905260e085018290526002548751630fdb11cf60e01b8152975196979596931694630fdb11cf948181019492939183900301908290875af11580156111a3573d6000803e3d6000fd5b505050506040513d601f19601f820116820180604052508101906111c791906137fe565b8082526000906111d690612455565b90506111e28882612472565b82516111ee9033612586565b604082018790528061122a5761120e83600001518460400151898b612648565b6020830181905260408301805161122690839061389d565b9052505b6112378260400151612796565b6112448260400151611cec565b60608301819052611257576112576138e5565b611260866123ce565b95506112758683606001518460000151612815565b6080830152606082015161128a908790612849565b60a083015280156112a7576112a28260800151612880565b6112da565b6112b482608001516128f8565b60006112cd876001856060015160018760000151611b27565b90506112d881611b9c565b505b8251604051635d6b480f60e01b81526001600160a01b0390911690635d6b480f9061130c903390600190600401613884565b600060405180830381600087803b15801561132657600080fd5b505af115801561133a573d6000803e3d6000fd5b505084516040516372423c1760e01b81526001600160a01b0390911692506372423c17915061136f9033908a90600401613884565b6020604051808303816000875af115801561138e573d6000803e3d6000fd5b505050506040513d601f19601f820116820180604052508101906113b291906137fe565b5082516060830151604051639976cf4560e01b81526001600160a01b0390921691639976cf45916113e891339190600401613884565b6020604051808303816000875af1158015611407573d6000803e3d6000fd5b505050506040513d601f19601f8201168201806040525081019061142b91906137fe565b5082516040516382fe3eb960e01b81526001600160a01b03909116906382fe3eb99061145b9033906004016134e3565b600060405180830381600087803b15801561147557600080fd5b505af1158015611489573d6000803e3d6000fd5b50508451604051630c7940bd60e11b81526001600160a01b0390911692506318f2817a91506114bc9033906004016134e3565b6020604051808303816000875af11580156114db573d6000803e3d6000fd5b505050506040513d601f19601f820116820180604052508101906114ff91906137fe565b60c0830152600c5460a08301516040516346f7cf8760e01b81526001600160a01b03909216916346f7cf879161153e913391908a908a906004016138fb565b600060405180830381600087803b15801561155857600080fd5b505af115801561156c573d6000803e3d6000fd5b505084516040516315d549f160e01b81526001600160a01b0390911692506315d549f1915061159f9033906004016134e3565b6020604051808303816000875af11580156115be573d6000803e3d6000fd5b505050506040513d601f19601f820116820180604052508101906115e291906137fe565b60e0830181905260405190815233907f59cfd0cd754bc5748b6770e94a4ffa5f678d885cb899dcfadc5734edb97c67ab9060200160405180910390a261162c836020015187612988565b61164583602001518460400151338a8660400151612a12565b602083015160408401516006546116719291906001600160a01b0316680ad78ebc5ac620000080612a12565b606082015160c083015160405133926000805160206139a68339815191529261169f928b9190600090613862565b60405180910390a260208083015160405190815233917f65bd7154d79916d54881d83a1b22e14f736830d7a4995e5b97f4af8520718e22910160405180910390a25050505050505050565b6116f2612ad3565b6116fb836123ce565b9250610b318460008060008787876000611d01565b600a546001600160a01b0316331461173a5760405162461bcd60e51b8152600401610c5d90613926565b600b54600a54604051632770a7eb60e21b81526001600160a01b0392831692639dc29fac92611770929116908590600401613884565b600060405180830381600087803b15801561178a57600080fd5b505af115801561179e573d6000803e3d6000fd5b5050505050565b600a546001600160a01b031633146117cf5760405162461bcd60e51b8152600401610c5d90613926565b600b54600a546040516340c10f1960e01b81526001600160a01b03928316926340c10f1992611770929116908590600401613884565b610ace3360008560008087876000611d01565b611821836123ce565b9250610ace3360008060008787876000611d01565b6003546001600160a01b031633146118605760405162461bcd60e51b8152600401610c5d906138b0565b6001600160a01b0381166118c55760405162461bcd60e51b815260206004820152602660248201527f4f776e61626c653a206e6577206f776e657220697320746865207a65726f206160448201526564647265737360d01b6064820152608401610c5d565b6118ce81612b41565b50565b6118e56103e8670de0b6b3a764000061396c565b6118f090600561398e565b81565b6040516321e3780160e01b81526000906001600160a01b038416906321e37801906119229085906004016134e3565b602060405180830381865afa15801561193f573d6000803e3d6000fd5b505050506040513d601f19601f8201168201806040525081019061196391906137fe565b905080600114610ace5760405162461bcd60e51b815260206004820152602e60248201527f426f72726f7765724f70733a2054726f766520646f6573206e6f74206578697360448201526d1d081bdc881a5cc818db1bdcd95960921b6064820152608401610c5d565b6119d581612455565b156118ce5760405162461bcd60e51b815260206004820152603960248201527f426f72726f7765724f70733a204f7065726174696f6e206e6f74207065726d696044820152787474656420647572696e67205265636f76657279204d6f646560381b6064820152608401610c5d565b6040516370a0823160e01b815281906001600160a01b038516906370a0823190611a729086906004016134e3565b602060405180830381865afa158015611a8f573d6000803e3d6000fd5b505050506040513d601f19601f82011682018060405250810190611ab391906137fe565b1015610ace5760405162461bcd60e51b815260206004820152603e60248201527f426f72726f7765724f70733a2043616c6c657220646f65736e7420686176652060448201527f656e6f75676820544855534420746f206d616b652072657061796d656e7400006064820152608401610c5d565b600080611b3261100c565b90506000611b3e610b37565b905086611b5457611b4f888361382d565b611b5e565b611b5e888361389d565b915084611b7457611b6f868261382d565b611b7e565b611b7e868261389d565b90506000611b8d838387612815565b93505050505b95945050505050565b6714d1120d7b1600008110156118ce5760405162461bcd60e51b815260206004820152604960248201527f426f72726f7765724f70733a20416e206f7065726174696f6e2074686174207760448201527f6f756c6420726573756c7420696e20544352203c20434352206973206e6f74206064820152681c195c9b5a5d1d195960ba1b608482015260a401610c5d565b604051637b7fc9eb60e11b8152600481018290526001600160a01b0385169063f6ff93d690602401600060405180830381600087803b158015611c6e57600080fd5b505af1158015611c82573d6000803e3d6000fd5b5050604051632770a7eb60e21b81526001600160a01b0386169250639dc29fac9150611cb49085908590600401613884565b600060405180830381600087803b158015611cce57600080fd5b505af1158015611ce2573d6000803e3d6000fd5b5050505050505050565b6000610ab5680ad78ebc5ac62000008361389d565b6040805160608082018352600480546001600160a01b039081168452600080548216602080870191909152600b5483168688015286516101a0810188528281528082018390528088018390529485018290526080850182905260a0850182905260c0850182905260e08501829052610100850182905261012085018290526101408501829052610160850182905261018085018290526002548751630fdb11cf60e01b8152975196979596931694630fdb11cf948181019492939183900301908290875af1158015611dd7573d6000803e3d6000fd5b505050506040513d601f19601f82011682018060405250810190611dfb91906137fe565b808252600090611e0a90612455565b90508715611e2557611e1c8482612472565b611e2589612b93565b611e2f8a88612c03565b611e3a8a8a89612c73565b8251611e46908c6118f3565b336001600160a01b038c161480611e7c57506008546001600160a01b031633148015611e725750600087115b8015611e7c575088155b611e8857611e886138e5565b8251604051630b07655760e01b81526001600160a01b0390911690630b07655790611eb7908e906004016134e3565b600060405180830381600087803b158015611ed157600080fd5b505af1158015611ee5573d6000803e3d6000fd5b50505050611ef3878b612d0b565b15156060840152602083015260408201899052878015611f11575080155b15611f4757611f2a836000015184604001518b87612648565b6101208301819052604083018051611f4390839061389d565b9052505b825160405163d66a255360e01b81526001600160a01b039091169063d66a255390611f76908e906004016134e3565b602060405180830381865afa158015611f93573d6000803e3d6000fd5b505050506040513d601f19601f82011682018060405250810190611fb791906137fe565b608083015282516040516309019aaf60e31b81526001600160a01b039091169063480cd57890611feb908e906004016134e3565b602060405180830381865afa158015612008573d6000803e3d6000fd5b505050506040513d601f19601f8201168201806040525081019061202c91906137fe565b60a0830181905260808301518351612045929190612815565b8260c00181815250506120758260a0015183608001518460200151856060015186604001518d8860000151612d2a565b60e083015260a08201518a111561208e5761208e6138e5565b61209a818b8a85612d5d565b871580156120a85750600089115b156120f6576120d182604001516120c28460800151612e47565b6120cc919061382d565b612796565b6120e382608001518360400151612e5c565b6120f683604001518c8460400151611a44565b61211483600001518c8460200151856060015186604001518d612ef0565b6101408401526101608301528251604051630c7940bd60e11b81526001600160a01b03909116906318f2817a9061214f908e906004016134e3565b6020604051808303816000875af115801561216e573d6000803e3d6000fd5b505050506040513d601f19601f8201168201806040525081019061219291906137fe565b8261018001818152505060006121c08360a0015184608001518560200151866060015187604001518e6130e2565b600c5460405163015f109360e51b81529192506001600160a01b031690632be21260906121f7908f9085908c908c906004016138fb565b600060405180830381600087803b15801561221157600080fd5b505af1158015612225573d6000803e3d6000fd5b505050508b6001600160a01b03166000805160206139a683398151915284610140015185610160015186610180015160026040516122669493929190613862565b60405180910390a261012083015160405190815233907f65bd7154d79916d54881d83a1b22e14f736830d7a4995e5b97f4af8520718e229060200160405180910390a26122cd8460200151856040015133866020015187606001518f8f8a60400151613113565b505050505050505050505050565b6001600160a01b0381166123315760405162461bcd60e51b815260206004820152601e60248201527f4163636f756e742063616e6e6f74206265207a65726f206164647265737300006044820152606401610c5d565b803b806123805760405162461bcd60e51b815260206004820181905260248201527f4163636f756e7420636f64652073697a652063616e6e6f74206265207a65726f6044820152606401610c5d565b5050565b6003546040516000916001600160a01b0316907f8be0079c531659141344cd1fd0a4f28419497f9722a3daafe3b4186f6b6457e0908390a3600380546001600160a01b0319169055565b6005546000906001600160a01b03166123e8575034919050565b34156124515760405162461bcd60e51b815260206004820152603260248201527f426f72726f7765724f7065726174696f6e733a20636f6c6c61746572616c206d6044820152713ab9ba1031329022a9219918103a37b5b2b760711b6064820152608401610c5d565b5090565b600080612461836131a8565b6714d1120d7b160000119392505050565b80156124eb57670de0b6b3a76400008211156123805760405162461bcd60e51b815260206004820152603260248201527f4d6178206665652070657263656e74616765206d757374206c657373207468616044820152716e206f7220657175616c20746f203130302560701b6064820152608401610c5d565b6124ff6103e8670de0b6b3a764000061396c565b61250a90600561398e565b82101580156125215750670de0b6b3a76400008211155b6123805760405162461bcd60e51b815260206004820152603060248201527f4d6178206665652070657263656e74616765206d75737420626520626574776560448201526f656e20302e352520616e64203130302560801b6064820152608401610c5d565b6040516321e3780160e01b81526000906001600160a01b038416906321e37801906125b59085906004016134e3565b602060405180830381865afa1580156125d2573d6000803e3d6000fd5b505050506040513d601f19601f820116820180604052508101906125f691906137fe565b905080600103610ace5760405162461bcd60e51b815260206004820152601c60248201527f426f72726f7765724f70733a2054726f766520697320616374697665000000006044820152606401610c5d565b6000846001600160a01b0316635dba4c4a6040518163ffffffff1660e01b8152600401600060405180830381600087803b15801561268557600080fd5b505af1158015612699573d6000803e3d6000fd5b5050604051630631203b60e41b815260048101869052600092506001600160a01b038816915063631203b090602401602060405180830381865afa1580156126e5573d6000803e3d6000fd5b505050506040513d601f19601f8201168201806040525081019061270991906137fe565b90506127168185856131d4565b6007546001600160a01b031615611b93576007546040516340c10f1960e01b81526001600160a01b03878116926340c10f199261275b92909116908590600401613884565b600060405180830381600087803b15801561277557600080fd5b505af1158015612789573d6000803e3d6000fd5b5050505095945050505050565b686194049f30f72000008110156118ce5760405162461bcd60e51b815260206004820152603a60248201527f426f72726f7765724f70733a2054726f76652773206e65742064656274206d7560448201527f73742062652067726561746572207468616e206d696e696d756d0000000000006064820152608401610c5d565b6000821561283d5760008361282a848761398e565b612834919061396c565b91506128429050565b506000195b9392505050565b60008115612876578161286568056bc75e2d631000008561398e565b61286f919061396c565b9050610ab5565b5060001992915050565b6714d1120d7b1600008110156118ce5760405162461bcd60e51b815260206004820152603760248201527f426f72726f7765724f70733a204f7065726174696f6e206d757374206c65617660448201527632903a3937bb32903bb4ba341024a1a9101f1e9021a1a960491b6064820152608401610c5d565b670f43fc2c04ee00008110156118ce5760405162461bcd60e51b815260206004820152604960248201527f426f72726f7765724f70733a20416e206f7065726174696f6e2074686174207760448201527f6f756c6420726573756c7420696e20494352203c204d4352206973206e6f74206064820152681c195c9b5a5d1d195960ba1b608482015260a401610c5d565b6005546129a0906001600160a01b0316338484613245565b6005546001600160a01b03166129b4575050565b604051634c6ccf7360e11b8152600481018290526001600160a01b038316906398d99ee690602401600060405180830381600087803b1580156129f657600080fd5b505af1158015612a0a573d6000803e3d6000fd5b505050505050565b6040516342c31a2360e01b8152600481018290526001600160a01b038616906342c31a2390602401600060405180830381600087803b158015612a5457600080fd5b505af1158015612a68573d6000803e3d6000fd5b50506040516340c10f1960e01b81526001600160a01b03871692506340c10f199150612a9a9086908690600401613884565b600060405180830381600087803b158015612ab457600080fd5b505af1158015612ac8573d6000803e3d6000fd5b505050505050505050565b6008546001600160a01b03163314612b3f5760405162461bcd60e51b815260206004820152602960248201527f426f72726f7765724f70733a2043616c6c6572206973206e6f742053746162696044820152681b1a5d1e48141bdbdb60ba1b6064820152608401610c5d565b565b600380546001600160a01b038381166001600160a01b0319831681179093556040519116919082907f8be0079c531659141344cd1fd0a4f28419497f9722a3daafe3b4186f6b6457e090600090a35050565b600081116118ce5760405162461bcd60e51b815260206004820152603760248201527f426f72726f7765724f70733a204465627420696e637265617365207265717569604482015276726573206e6f6e2d7a65726f20646562744368616e676560481b6064820152608401610c5d565b801580612c0e575081155b6123805760405162461bcd60e51b815260206004820152603060248201527f426f72726f7765724f7065726174696f6e733a2043616e6e6f7420776974686460448201526f1c985dc8185b99081859190818dbdb1b60821b6064820152608401610c5d565b80151580612c8057508215155b80612c8a57508115155b610ace5760405162461bcd60e51b815260206004820152604660248201527f426f72726f7765724f70733a205468657265206d75737420626520656974686560448201527f72206120636f6c6c61746572616c206368616e6765206f7220612064656274206064820152656368616e676560d01b608482015260a401610c5d565b6000808315612d1f57508290506001612d23565b8291505b9250929050565b6000806000612d3d8a8a8a8a8a8a6133bb565b915091506000612d4e838387612815565b9b9a5050505050505050505050565b600b54604051635f7a196360e11b81526001600160a01b039091169063bef432c690612d8d9030906004016134e3565b602060405180830381865afa158015612daa573d6000803e3d6000fd5b505050506040513d601f19601f82011682018060405250810190612dce91906137e1565b15610b31578315612e0c57612de2836133f9565b8115612e0757612df58160e00151612880565b612e078160e001518260c0015161346d565b610b31565b612e198160e001516128f8565b612e36816020015182606001518360400151858560000151611b27565b6101008201819052610b3190611b9c565b6000610ab5680ad78ebc5ac62000008361382d565b612e6f680ad78ebc5ac62000008361382d565b8111156123805760405162461bcd60e51b815260206004820152604360248201527f426f72726f7765724f70733a20416d6f756e7420726570616964206d7573742060448201527f6e6f74206265206c6172676572207468616e207468652054726f76652773206460648201526219589d60ea1b608482015260a401610c5d565b600080600085612f705760405163d3d6f84360e01b81526001600160a01b038a169063d3d6f84390612f28908b908b90600401613884565b6020604051808303816000875af1158015612f47573d6000803e3d6000fd5b505050506040513d601f19601f82011682018060405250810190612f6b91906137fe565b612fe1565b6040516372423c1760e01b81526001600160a01b038a16906372423c1790612f9e908b908b90600401613884565b6020604051808303816000875af1158015612fbd573d6000803e3d6000fd5b505050506040513d601f19601f82011682018060405250810190612fe191906137fe565b905060008461306057604051630930874960e11b81526001600160a01b038b16906312610e9290613018908c908a90600401613884565b6020604051808303816000875af1158015613037573d6000803e3d6000fd5b505050506040513d601f19601f8201168201806040525081019061305b91906137fe565b6130d1565b604051639976cf4560e01b81526001600160a01b038b1690639976cf459061308e908c908a90600401613884565b6020604051808303816000875af11580156130ad573d6000803e3d6000fd5b505050506040513d601f19601f820116820180604052508101906130d191906137fe565b919a91995090975050505050505050565b60008060006130f58989898989896133bb565b9150915060006131058383612849565b9a9950505050505050505050565b811561312b576131268888888685612a12565b613137565b61313788888886611c2c565b831561314c576131478886612988565b611ce2565b604051636250216960e01b81526001600160a01b0389169063625021699061317a9089908990600401613884565b600060405180830381600087803b15801561319457600080fd5b505af11580156122cd573d6000803e3d6000fd5b6000806131b361100c565b905060006131bf610b37565b90506131cc828286612815565b949350505050565b6000826131e9670de0b6b3a76400008661398e565b6131f3919061396c565b905081811115610b315760405162461bcd60e51b815260206004820152601d60248201527f4665652065786365656465642070726f7669646564206d6178696d756d0000006044820152606401610c5d565b6001600160a01b0384166132f1576000826001600160a01b03168260405160006040518083038185875af1925050503d80600081146132a0576040519150601f19603f3d011682016040523d82523d6000602084013e6132a5565b606091505b50509050806132eb5760405162461bcd60e51b815260206004820152601260248201527114d95b991a5b99c81155120819985a5b195960721b6044820152606401610c5d565b50610b31565b6040516323b872dd60e01b81526001600160a01b038481166004830152838116602483015260448201839052600091908616906323b872dd906064016020604051808303816000875af115801561334c573d6000803e3d6000fd5b505050506040513d601f19601f8201168201806040525081019061337091906137e1565b90508061179e5760405162461bcd60e51b815260206004820152601960248201527814d95b991a5b99c818dbdb1b185d195c985b0819985a5b1959603a1b6044820152606401610c5d565b6000808787866133d4576133cf888b61382d565b6133de565b6133de888b61389d565b9150846133ef5761305b868a61382d565b6130d1868a61389d565b80156118ce5760405162461bcd60e51b815260206004820152603e60248201527f426f72726f7765724f70733a20436f6c6c61746572616c20776974686472617760448201527f616c206e6f74207065726d6974746564205265636f76657279204d6f646500006064820152608401610c5d565b808210156123805760405162461bcd60e51b815260206004820152603e60248201527f426f72726f7765724f70733a2043616e6e6f7420646563726561736520796f7560448201527f722054726f766527732049435220696e205265636f76657279204d6f646500006064820152608401610c5d565b6001600160a01b0391909116815260200190565b60006020828403121561350957600080fd5b5035919050565b80356001600160a01b038116811461352757600080fd5b919050565b60008060006060848603121561354157600080fd5b8335925061355160208501613510565b915061355f60408501613510565b90509250925092565b60008060008060008060008060008060006101608c8e03121561358a57600080fd5b6135938c613510565b9a506135a160208d01613510565b99506135af60408d01613510565b98506135bd60608d01613510565b97506135cb60808d01613510565b96506135d960a08d01613510565b95506135e760c08d01613510565b94506135f560e08d01613510565b93506136046101008d01613510565b92506136136101208d01613510565b91506136226101408d01613510565b90509295989b509295989b9093969950565b6000806000806080858703121561364a57600080fd5b843593506020850135925061366160408601613510565b915061366f60608601613510565b905092959194509250565b80151581146118ce57600080fd5b600080600080600080600060e0888a0312156136a357600080fd5b87359650602088013595506040880135945060608801356136c38161367a565b9350608088013592506136d860a08901613510565b91506136e660c08901613510565b905092959891949750929550565b600080600080600060a0868803121561370c57600080fd5b85359450602086013593506040860135925061372a60608701613510565b915061373860808701613510565b90509295509295909350565b600060208083528351808285015260005b8181101561377157858101830151858201604001528201613755565b506000604082860101526040601f19601f8301168501019250505092915050565b600080600080608085870312156137a857600080fd5b6137b185613510565b93506020850135925061366160408601613510565b6000602082840312156137d857600080fd5b61284282613510565b6000602082840312156137f357600080fd5b81516128428161367a565b60006020828403121561381057600080fd5b5051919050565b634e487b7160e01b600052601160045260246000fd5b81810381811115610ab557610ab5613817565b6003811061385e57634e487b7160e01b600052602160045260246000fd5b9052565b848152602081018490526040810183905260808101611b936060830184613840565b6001600160a01b03929092168252602082015260400190565b80820180821115610ab557610ab5613817565b6020808252818101527f4f776e61626c653a2063616c6c6572206973206e6f7420746865206f776e6572604082015260600190565b634e487b7160e01b600052600160045260246000fd5b6001600160a01b03948516815260208101939093529083166040830152909116606082015260800190565b60208082526026908201527f426f72726f7765724f7065726174696f6e733a2063616c6c6572206d757374206040820152653132902821ab60d11b606082015260800190565b60008261398957634e487b7160e01b600052601260045260246000fd5b500490565b8082028115828204841417610ab557610ab561381756fec3770d654ed33aeea6bf11ac8ef05d02a6a04ed4686dd2f624d853bbec43cc8ba2646970667358221220b1d4af4ece0342152d45b44c34bff514d1327cb52b53638edbb7998b20f1f8ec64736f6c63430008110033608060405234801561001057600080fd5b50600080546001600160a01b0319163390811782556040519091907f8be0079c531659141344cd1fd0a4f28419497f9722a3daafe3b4186f6b6457e0908290a36110b98061005f6000396000f3fe6080604052600436106100e25760003560e01c80638da5cb5b116100855780638da5cb5b146102b95780638f32d59b146102d757806398d99ee614610302578063a3f4df7e14610322578063aac1846f14610365578063b7f8cf9b14610385578063f07424e9146103a5578063f2fde38b146103ba578063f6ff93d6146103da57600080fd5b80630b622ab2146101a25780631529a639146101d85780632a9043ec146101f757806342c31a231461021757806348d399e7146102395780635a4d28bb1461025957806362502169146102795780636cfb6bf91461029957600080fd5b3661019d576100ef6103fa565b6003546001600160a01b0316156101605760405162461bcd60e51b815260206004820152602a60248201527f416374697665506f6f6c3a20636f6c6c61746572616c206d757374206265204560448201526929219918103a37b5b2b760b11b60648201526084015b60405180910390fd5b34600760008282546101729190610e89565b90915550506007546040519081526000805160206110648339815191529060200160405180910390a1005b600080fd5b3480156101ae57600080fd5b506005546101c2906001600160a01b031681565b6040516101cf9190610ea2565b60405180910390f35b3480156101e457600080fd5b506007545b6040519081526020016101cf565b34801561020357600080fd5b506004546101c2906001600160a01b031681565b34801561022357600080fd5b50610237610232366004610eb6565b610485565b005b34801561024557600080fd5b506003546101c2906001600160a01b031681565b34801561026557600080fd5b506006546101c2906001600160a01b031681565b34801561028557600080fd5b50610237610294366004610eeb565b6104de565b3480156102a557600080fd5b506102376102b4366004610f15565b6106e5565b3480156102c557600080fd5b506000546001600160a01b03166101c2565b3480156102e357600080fd5b506000546001600160a01b0316331460405190151581526020016101cf565b34801561030e57600080fd5b5061023761031d366004610eb6565b610909565b34801561032e57600080fd5b506103586040518060400160405280600a8152602001691058dd1a5d99541bdbdb60b21b81525081565b6040516101cf9190610f89565b34801561037157600080fd5b506001546101c2906001600160a01b031681565b34801561039157600080fd5b506002546101c2906001600160a01b031681565b3480156103b157600080fd5b506008546101e9565b3480156103c657600080fd5b506102376103d5366004610fd7565b6109ac565b3480156103e657600080fd5b506102376103f5366004610eb6565b610a47565b6002546001600160a01b031633148061041d57506001546001600160a01b031633145b6104835760405162461bcd60e51b815260206004820152603160248201527f416374697665506f6f6c3a2043616c6c6572206973206e65697468657220424f604482015270081b9bdc88111959985d5b1d08141bdbdb607a1b6064820152608401610157565b565b61048d610a61565b806008600082825461049f9190610e89565b90915550506008546040519081527f71e50c7de40c802fa2869e1059dd72c32a02b63f03dd59f5aabd4af46f0f51da906020015b60405180910390a150565b6104e6610b00565b80600760008282546104f89190610ff9565b90915550506007546040519081526000805160206110648339815191529060200160405180910390a1604080516001600160a01b0384168152602081018390527f342693d2465f6f44931e41128424a0227e0cbc69d1c3917a839e6de71696d44c910160405180910390a160035461057a906001600160a01b03168383610bc6565b6003546001600160a01b031661058e575050565b6001546001600160a01b03908116908316036105ff57604051634c6ccf7360e11b8152600481018290526001600160a01b038316906398d99ee690602401600060405180830381600087803b1580156105e657600080fd5b505af11580156105fa573d6000803e3d6000fd5b505050505b6004546001600160a01b039081169083160361067057604051634c6ccf7360e11b8152600481018290526001600160a01b038316906398d99ee690602401600060405180830381600087803b15801561065757600080fd5b505af115801561066b573d6000803e3d6000fd5b505050505b6005546001600160a01b03908116908316036106e157604051634c6ccf7360e11b8152600481018290526001600160a01b038316906398d99ee690602401600060405180830381600087803b1580156106c857600080fd5b505af11580156106dc573d6000803e3d6000fd5b505050505b5050565b6000546001600160a01b0316331461070f5760405162461bcd60e51b81526004016101579061100c565b61071886610d34565b61072185610d34565b61072a84610d34565b61073383610d34565b61073c82610d34565b6001600160a01b038116156107545761075481610d34565b600280546001600160a01b03199081166001600160a01b0389811691909117909255600680548216888416179055600580548216878416179055600180548216868416179055600380548216848416179055600480549091169184169190911790556040517f3ca631ffcd2a9b5d9ae18543fc82f58eb4ca33af9e6ab01b7a8e95331e6ed985906107e6908890610ea2565b60405180910390a17f143219c9e69b09e07e095fcc889b43d8f46ca892bba65f08dc3a0050869a56788560405161081d9190610ea2565b60405180910390a17f82966d27eea39b038ee0fa30cd16532bb24f6e65d31cb58fb227aa5766cdcc7f846040516108549190610ea2565b60405180910390a17f5ee0cae2f063ed938bb55046f6a932fb6ae792bf43624806bb90abe68a50be9b8360405161088b9190610ea2565b60405180910390a17ffba7421f3d1a98e80d72491a6e0523133444a5842cc7310951d8b82d075a7dff816040516108c29190610ea2565b60405180910390a17fe67f36a6e961157d6eff83b91f3af5a62131ceb6f04954ef74f51c1c05e7f88d826040516108f99190610ea2565b60405180910390a16106dc610dd9565b6109116103fa565b6003546001600160a01b03166109745760405162461bcd60e51b815260206004820152602260248201527f416374697665506f6f6c3a20636f6c6c61746572616c206d75737420626520456044820152610a8960f31b6064820152608401610157565b80600760008282546109869190610e89565b9091555050600754604051908152600080516020611064833981519152906020016104d3565b6000546001600160a01b031633146109d65760405162461bcd60e51b81526004016101579061100c565b6001600160a01b038116610a3b5760405162461bcd60e51b815260206004820152602660248201527f4f776e61626c653a206e6577206f776e657220697320746865207a65726f206160448201526564647265737360d01b6064820152608401610157565b610a4481610e23565b50565b610a4f610b00565b806008600082825461049f9190610ff9565b6002546001600160a01b0316331480610a8457506006546001600160a01b031633145b6104835760405162461bcd60e51b815260206004820152604160248201527f416374697665506f6f6c3a2043616c6c6572206973206e65697468657220426f60448201527f72726f7765724f7065726174696f6e73206e6f722054726f76654d616e6167656064820152603960f91b608482015260a401610157565b6002546001600160a01b0316331480610b2357506006546001600160a01b031633145b80610b3857506005546001600160a01b031633145b6104835760405162461bcd60e51b815260206004820152605360248201527f416374697665506f6f6c3a2043616c6c6572206973206e65697468657220426f60448201527f72726f7765724f7065726174696f6e73206e6f722054726f76654d616e6167656064820152721c881b9bdc8814dd18589a5b1a5d1e541bdbdb606a1b608482015260a401610157565b6001600160a01b038316610c72576000826001600160a01b03168260405160006040518083038185875af1925050503d8060008114610c21576040519150601f19603f3d011682016040523d82523d6000602084013e610c26565b606091505b5050905080610c6c5760405162461bcd60e51b815260206004820152601260248201527114d95b991a5b99c81155120819985a5b195960721b6044820152606401610157565b50505050565b60405163a9059cbb60e01b81526001600160a01b038381166004830152602482018390526000919085169063a9059cbb906044016020604051808303816000875af1158015610cc5573d6000803e3d6000fd5b505050506040513d601f19601f82011682018060405250810190610ce99190611041565b905080610c6c5760405162461bcd60e51b815260206004820152601960248201527814d95b991a5b99c818dbdb1b185d195c985b0819985a5b1959603a1b6044820152606401610157565b6001600160a01b038116610d8a5760405162461bcd60e51b815260206004820152601e60248201527f4163636f756e742063616e6e6f74206265207a65726f206164647265737300006044820152606401610157565b803b806106e15760405162461bcd60e51b815260206004820181905260248201527f4163636f756e7420636f64652073697a652063616e6e6f74206265207a65726f6044820152606401610157565b600080546040516001600160a01b03909116907f8be0079c531659141344cd1fd0a4f28419497f9722a3daafe3b4186f6b6457e0908390a3600080546001600160a01b0319169055565b600080546001600160a01b038381166001600160a01b0319831681178455604051919092169283917f8be0079c531659141344cd1fd0a4f28419497f9722a3daafe3b4186f6b6457e09190a35050565b634e487b7160e01b600052601160045260246000fd5b80820180821115610e9c57610e9c610e73565b92915050565b6001600160a01b0391909116815260200190565b600060208284031215610ec857600080fd5b5035919050565b80356001600160a01b0381168114610ee657600080fd5b919050565b60008060408385031215610efe57600080fd5b610f0783610ecf565b946020939093013593505050565b60008060008060008060c08789031215610f2e57600080fd5b610f3787610ecf565b9550610f4560208801610ecf565b9450610f5360408801610ecf565b9350610f6160608801610ecf565b9250610f6f60808801610ecf565b9150610f7d60a08801610ecf565b90509295509295509295565b600060208083528351808285015260005b81811015610fb657858101830151858201604001528201610f9a565b506000604082860101526040601f19601f8301168501019250505092915050565b600060208284031215610fe957600080fd5b610ff282610ecf565b9392505050565b81810381811115610e9c57610e9c610e73565b6020808252818101527f4f776e61626c653a2063616c6c6572206973206e6f7420746865206f776e6572604082015260600190565b60006020828403121561105357600080fd5b81518015158114610ff257600080fdfe51e7c30439c76308c020a84ca2a666735d3baa69d070e13beaf83e15bb697eb3a26469706673582212206d42eb146ab3c23388c8344cff39dca06282b35429bcacb2bb78b49cd5c806d464736f6c63430008110033608060405234801561001057600080fd5b50600080546001600160a01b0319163390811782556040519091907f8be0079c531659141344cd1fd0a4f28419497f9722a3daafe3b4186f6b6457e0908290a3610d058061005f6000396000f3fe6080604052600436106100c15760003560e01c80638f32d59b1161006f5780638f32d59b1461027357806398d99ee61461029e578063a3f4df7e146102be578063b08bc72214610302578063f07424e914610322578063f2fde38b14610337578063f6ff93d61461035757600080fd5b80631529a63914610182578063363bf964146101a657806342c31a23146101c857806348d399e7146101e85780635a4d28bb146102155780637df17502146102355780638da5cb5b1461025557600080fd5b3661017d576100ce610377565b6002546001600160a01b0316156101405760405162461bcd60e51b815260206004820152602b60248201527f44656661756c74506f6f6c3a20636f6c6c61746572616c206d7573742062652060448201526a22a9219918103a37b5b2b760a91b60648201526084015b60405180910390fd5b34600460008282546101529190610b30565b9091555050600454604051908152600080516020610cb08339815191529060200160405180910390a1005b600080fd5b34801561018e57600080fd5b506004545b6040519081526020015b60405180910390f35b3480156101b257600080fd5b506101c66101c1366004610b65565b6103e5565b005b3480156101d457600080fd5b506101c66101e3366004610ba8565b610529565b3480156101f457600080fd5b50600254610208906001600160a01b031681565b60405161019d9190610bc1565b34801561022157600080fd5b50600354610208906001600160a01b031681565b34801561024157600080fd5b506101c6610250366004610ba8565b610582565b34801561026157600080fd5b506000546001600160a01b0316610208565b34801561027f57600080fd5b506000546001600160a01b03163314604051901515815260200161019d565b3480156102aa57600080fd5b506101c66102b9366004610ba8565b6106a2565b3480156102ca57600080fd5b506102f56040518060400160405280600b81526020016a111959985d5b1d141bdbdb60aa1b81525081565b60405161019d9190610bd5565b34801561030e57600080fd5b50600154610208906001600160a01b031681565b34801561032e57600080fd5b50600554610193565b34801561034357600080fd5b506101c6610352366004610c23565b610746565b34801561036357600080fd5b506101c6610372366004610ba8565b6107e1565b6001546001600160a01b031633146103e35760405162461bcd60e51b815260206004820152602960248201527f44656661756c74506f6f6c3a2043616c6c6572206973206e6f7420746865204160448201526818dd1a5d99541bdbdb60ba1b6064820152608401610137565b565b6000546001600160a01b0316331461040f5760405162461bcd60e51b815260040161013790610c45565b610418836107fb565b610421826107fb565b6001600160a01b0381161561043957610439816107fb565b600380546001600160a01b038086166001600160a01b0319928316179092556001805485841690831617905560028054928416929091169190911790556040517f143219c9e69b09e07e095fcc889b43d8f46ca892bba65f08dc3a0050869a5678906104a6908590610bc1565b60405180910390a17f78f058b189175430c48dc02699e3a0031ea4ff781536dc2fab847de4babdd882826040516104dd9190610bc1565b60405180910390a17ffba7421f3d1a98e80d72491a6e0523133444a5842cc7310951d8b82d075a7dff816040516105149190610bc1565b60405180910390a16105246108a4565b505050565b6105316108ee565b80600560008282546105439190610b30565b90915550506005546040519081527f3a96b36323b4ca65a873cb860720d87a4132b3b3165ba19bec799dc388dc32fd906020015b60405180910390a150565b61058a6108ee565b600154600480546001600160a01b03909216918391906000906105ae908490610c7a565b9091555050600454604051908152600080516020610cb08339815191529060200160405180910390a1604080516001600160a01b0383168152602081018490527f342693d2465f6f44931e41128424a0227e0cbc69d1c3917a839e6de71696d44c910160405180910390a1600254610630906001600160a01b0316828461095c565b6002546001600160a01b0316610644575050565b604051634c6ccf7360e11b8152600481018390526001600160a01b038216906398d99ee690602401600060405180830381600087803b15801561068657600080fd5b505af115801561069a573d6000803e3d6000fd5b505050505050565b6106aa610377565b6002546001600160a01b031661070e5760405162461bcd60e51b815260206004820152602360248201527f44656661756c74506f6f6c3a20636f6c6c61746572616c206d7573742062652060448201526208aa8960eb1b6064820152608401610137565b80600460008282546107209190610b30565b9091555050600454604051908152600080516020610cb083398151915290602001610577565b6000546001600160a01b031633146107705760405162461bcd60e51b815260040161013790610c45565b6001600160a01b0381166107d55760405162461bcd60e51b815260206004820152602660248201527f4f776e61626c653a206e6577206f776e657220697320746865207a65726f206160448201526564647265737360d01b6064820152608401610137565b6107de81610aca565b50565b6107e96108ee565b80600560008282546105439190610c7a565b6001600160a01b0381166108515760405162461bcd60e51b815260206004820152601e60248201527f4163636f756e742063616e6e6f74206265207a65726f206164647265737300006044820152606401610137565b803b806108a05760405162461bcd60e51b815260206004820181905260248201527f4163636f756e7420636f64652073697a652063616e6e6f74206265207a65726f6044820152606401610137565b5050565b600080546040516001600160a01b03909116907f8be0079c531659141344cd1fd0a4f28419497f9722a3daafe3b4186f6b6457e0908390a3600080546001600160a01b0319169055565b6003546001600160a01b031633146103e35760405162461bcd60e51b815260206004820152602b60248201527f44656661756c74506f6f6c3a2043616c6c6572206973206e6f7420746865205460448201526a3937bb32a6b0b730b3b2b960a91b6064820152608401610137565b6001600160a01b038316610a08576000826001600160a01b03168260405160006040518083038185875af1925050503d80600081146109b7576040519150601f19603f3d011682016040523d82523d6000602084013e6109bc565b606091505b5050905080610a025760405162461bcd60e51b815260206004820152601260248201527114d95b991a5b99c81155120819985a5b195960721b6044820152606401610137565b50505050565b60405163a9059cbb60e01b81526001600160a01b038381166004830152602482018390526000919085169063a9059cbb906044016020604051808303816000875af1158015610a5b573d6000803e3d6000fd5b505050506040513d601f19601f82011682018060405250810190610a7f9190610c8d565b905080610a025760405162461bcd60e51b815260206004820152601960248201527814d95b991a5b99c818dbdb1b185d195c985b0819985a5b1959603a1b6044820152606401610137565b600080546001600160a01b038381166001600160a01b0319831681178455604051919092169283917f8be0079c531659141344cd1fd0a4f28419497f9722a3daafe3b4186f6b6457e09190a35050565b634e487b7160e01b600052601160045260246000fd5b80820180821115610b4357610b43610b1a565b92915050565b80356001600160a01b0381168114610b6057600080fd5b919050565b600080600060608486031215610b7a57600080fd5b610b8384610b49565b9250610b9160208501610b49565b9150610b9f60408501610b49565b90509250925092565b600060208284031215610bba57600080fd5b5035919050565b6001600160a01b0391909116815260200190565b600060208083528351808285015260005b81811015610c0257858101830151858201604001528201610be6565b506000604082860101526040601f19601f8301168501019250505092915050565b600060208284031215610c3557600080fd5b610c3e82610b49565b9392505050565b6020808252818101527f4f776e61626c653a2063616c6c6572206973206e6f7420746865206f776e6572604082015260600190565b81810381811115610b4357610b43610b1a565b600060208284031215610c9f57600080fd5b81518015158114610c3e57600080fdfea7a66beb44646a3c65a43d8f42c1a68514ad28ce06bf8777e6209712ea56d807a26469706673582212205be6263b785ae0beb60d1976f34c164f00d3c140ce72876e684b64270153f7e464736f6c634300081100336080604052670de0b6b3a7640000600d5534801561001c57600080fd5b50600380546001600160a01b031916339081179091556040516000907f8be0079c531659141344cd1fd0a4f28419497f9722a3daafe3b4186f6b6457e0908290a361287a8061006c6000396000f3fe6080604052600436106102495760003560e01c806377553ad4116101395780638f32d59b116100b6578063ae9187541161007a578063ae91875414610758578063ce4b5bbe14610778578063eaa8ba7f14610790578063f2fde38b146107b0578063f92d3433146107d0578063fc7e286d146107e557600080fd5b80638f32d59b146106a757806398d99ee6146106d2578063a20baee6146104b3578063a3f4df7e146106f2578063a4e59ac81461073857600080fd5b80637f7dde4a116100fd5780637f7dde4a146105bf57806386da0824146105df578063887105d31461065e5780638b8fbd92146106735780638da5cb5b1461068957600080fd5b806377553ad41461052e57806377e16f1e1461054e57806378c77a241461056e578063794e57241461058e578063795d26c3146105aa57600080fd5b80633d83908a116101c75780635914d0c81161018b5780635914d0c81461047d5780635af658b61461049d57806372fe25aa146104b3578063741bef1a146104cf57806376671808146104ef57600080fd5b80633d83908a146103ec5780634870dd9a1461040c57806348d399e7146104215780635205a479146104415780635733d58f1461046157600080fd5b806328a0a04d1161020e57806328a0a04d146103255780632e54bf951461035d578063307d36121461037f578063335525ad1461039f5780633cc74225146103bf57600080fd5b8062ba85b51461029857806301081fda146102c15780631529a639146102d65780631bf43555146102eb5780631fd6a4341461030857600080fd5b3661029357610256610812565b3460096000828254610268919061243f565b90915550506009546040519081526000805160206128258339815191529060200160405180910390a1005b600080fd5b3480156102a457600080fd5b506102ae60105481565b6040519081526020015b60405180910390f35b3480156102cd57600080fd5b50600a546102ae565b3480156102e257600080fd5b506009546102ae565b3480156102f757600080fd5b506102ae686194049f30f720000081565b34801561031457600080fd5b506102ae680ad78ebc5ac620000081565b34801561033157600080fd5b506102ae61034036600461246e565b600f60209081526000928352604080842090915290825290205481565b34801561036957600080fd5b5061037d6103783660046124a1565b610883565b005b34801561038b57600080fd5b506102ae61039a3660046124cf565b610960565b3480156103ab57600080fd5b5061037d6103ba3660046124f3565b6109f3565b3480156103cb57600080fd5b506001546103df906001600160a01b031681565b6040516102b89190612515565b3480156103f857600080fd5b506006546103df906001600160a01b031681565b34801561041857600080fd5b506102ae60c881565b34801561042d57600080fd5b506004546103df906001600160a01b031681565b34801561044d57600080fd5b506102ae61045c3660046124cf565b610a40565b34801561046d57600080fd5b506102ae6714d1120d7b16000081565b34801561048957600080fd5b5061037d610498366004612529565b610aca565b3480156104a957600080fd5b506102ae60115481565b3480156104bf57600080fd5b506102ae670de0b6b3a764000081565b3480156104db57600080fd5b506002546103df906001600160a01b031681565b3480156104fb57600080fd5b50600e5461051690600160801b90046001600160801b031681565b6040516001600160801b0390911681526020016102b8565b34801561053a57600080fd5b506005546103df906001600160a01b031681565b34801561055a57600080fd5b506007546103df906001600160a01b031681565b34801561057a57600080fd5b5061037d6105893660046124a1565b610cdb565b34801561059a57600080fd5b506102ae670f43fc2c04ee000081565b3480156105b657600080fd5b506102ae610d92565b3480156105cb57600080fd5b506000546103df906001600160a01b031681565b3480156105eb57600080fd5b5061062f6105fa3660046124cf565b600c602052600090815260409020805460018201546002909201549091906001600160801b0380821691600160801b90041684565b6040805194855260208501939093526001600160801b03918216928401929092521660608201526080016102b8565b34801561066a57600080fd5b506102ae610e8e565b34801561067f57600080fd5b506102ae600d5481565b34801561069557600080fd5b506003546001600160a01b03166103df565b3480156106b357600080fd5b506003546001600160a01b0316331460405190151581526020016102b8565b3480156106de57600080fd5b5061037d6106ed3660046124a1565b610f53565b3480156106fe57600080fd5b5061072b6040518060400160405280600d81526020016c14dd18589a5b1a5d1e541bdbdb609a1b81525081565b6040516102b89190612562565b34801561074457600080fd5b50600e54610516906001600160801b031681565b34801561076457600080fd5b506008546103df906001600160a01b031681565b34801561078457600080fd5b506102ae633b9aca0081565b34801561079c57600080fd5b5061037d6107ab3660046125b0565b610f99565b3480156107bc57600080fd5b5061037d6107cb3660046124cf565b611209565b3480156107dc57600080fd5b506102ae6112a4565b3480156107f157600080fd5b506102ae6108003660046124cf565b600b6020526000908152604090205481565b6000546001600160a01b031633146108815760405162461bcd60e51b815260206004820152602760248201527f53746162696c697479506f6f6c3a2043616c6c6572206973206e6f74204163746044820152661a5d99541bdbdb60ca1b60648201526084015b60405180910390fd5b565b8015610891576108916112c6565b336000908152600b60205260409020546108aa816114bc565b60006108b533610960565b905060006108c233610a40565b905060006108d08583611525565b905060006108de8386612646565b90506108ea338361153f565b60006108f68385612646565b905061090233826115be565b60405181815233906000805160206128058339815191529060200160405180910390a2604080518681526020810184905233916000805160206127e5833981519152910160405180910390a2610957856116f5565b50505050505050565b6001600160a01b0381166000908152600b60205260408120548082036109895750600092915050565b6001600160a01b0383166000908152600c60209081526040808320815160808101835281548152600182015493810193909352600201546001600160801b0380821692840192909252600160801b9004166060820152906109ea8383611789565b95945050505050565b6109fb61186c565b600a54801580610a09575082155b15610a1357505050565b600080610a218486856118d8565b91509150610a2f82826119ad565b610a398486611c86565b5050505050565b6001600160a01b0381166000908152600b6020526040812054808203610a695750600092915050565b6001600160a01b0383166000908152600c60209081526040808320815160808101835281548152600182015493810193909352600201546001600160801b0380821692840192909252600160801b9004166060820152906109ea8383611daf565b336000908152600b6020526040902054610ae3816114bc565b610aec33611e9f565b610af533611f9b565b6000610b0033610960565b90506000610b0d33610a40565b90506000610b1b8285612646565b9050610b2733836115be565b604080518481526020810183905233916000805160206127e5833981519152910160405180910390a260405182815233906000805160206128058339815191529060200160405180910390a28260096000828254610b859190612646565b90915550506009546040519081526000805160206128258339815191529060200160405180910390a17f342693d2465f6f44931e41128424a0227e0cbc69d1c3917a839e6de71696d44c3384604051610bdf929190612659565b60405180910390a16004546001600160a01b0316610c675760055460405163abfad25d60e01b81526001600160a01b039091169063abfad25d908590610c309033906000908c908c90600401612672565b6000604051808303818588803b158015610c4957600080fd5b505af1158015610c5d573d6000803e3d6000fd5b5050505050610cd3565b60055460405163abfad25d60e01b81526001600160a01b039091169063abfad25d90600090610ca090339088908c908c90600401612672565b6000604051808303818588803b158015610cb957600080fd5b505af1158015610ccd573d6000803e3d6000fd5b50505050505b505050505050565b610ce481612019565b336000818152600b602052604081205491610cfe90610960565b90506000610d0b33610a40565b90506000610d198285612646565b9050610d253386612078565b6000610d31868461243f565b9050610d3d33826115be565b60405181815233906000805160206128058339815191529060200160405180910390a2604080518581526020810184905233916000805160206127e5833981519152910160405180910390a2610cd3846116f5565b600080546040805163f07424e960e01b8152905183926001600160a01b03169163f07424e99160048083019260209291908290030181865afa158015610ddc573d6000803e3d6000fd5b505050506040513d601f19601f82011682018060405250810190610e00919061269d565b90506000600160009054906101000a90046001600160a01b03166001600160a01b031663f07424e96040518163ffffffff1660e01b8152600401602060405180830381865afa158015610e57573d6000803e3d6000fd5b505050506040513d601f19601f82011682018060405250810190610e7b919061269d565b9050610e87818361243f565b9250505090565b6000805460408051631529a63960e01b8152905183926001600160a01b031691631529a6399160048083019260209291908290030181865afa158015610ed8573d6000803e3d6000fd5b505050506040513d601f19601f82011682018060405250810190610efc919061269d565b90506000600160009054906101000a90046001600160a01b03166001600160a01b0316631529a6396040518163ffffffff1660e01b8152600401602060405180830381865afa158015610e57573d6000803e3d6000fd5b610f5b610812565b8060096000828254610f6d919061243f565b90915550506009546040519081526000805160206128258339815191529060200160405180910390a150565b6003546001600160a01b03163314610fc35760405162461bcd60e51b8152600401610878906126b6565b610fcc8761212e565b610fd58661212e565b610fde8561212e565b610fe78461212e565b610ff08361212e565b610ff98261212e565b6001600160a01b03811615611011576110118161212e565b600580546001600160a01b03199081166001600160a01b038a811691909117909255600680548216898416179055600080548216888416179055600780548216878416179055600880548216868416179055600280548216858416179055600480549091169183169190911790556040517f3ca631ffcd2a9b5d9ae18543fc82f58eb4ca33af9e6ab01b7a8e95331e6ed985906110af908990612515565b60405180910390a17f143219c9e69b09e07e095fcc889b43d8f46ca892bba65f08dc3a0050869a5678866040516110e69190612515565b60405180910390a17f78f058b189175430c48dc02699e3a0031ea4ff781536dc2fab847de4babdd8828560405161111d9190612515565b60405180910390a17fe1e858a66c0bbbcdfa22d58dde1e5d42370be20cdb176e560287f85412e546e0846040516111549190612515565b60405180910390a17f65f4cf077bc01e4742eb5ad98326f6e95b63548ea24b17f8d5e823111fe788008360405161118b9190612515565b60405180910390a17f8c537274438aa850a330284665d81a85dd38267d09e4050d416bfc94142db264826040516111c29190612515565b60405180910390a17ffba7421f3d1a98e80d72491a6e0523133444a5842cc7310951d8b82d075a7dff816040516111f99190612515565b60405180910390a16109576121d3565b6003546001600160a01b031633146112335760405162461bcd60e51b8152600401610878906126b6565b6001600160a01b0381166112985760405162461bcd60e51b815260206004820152602660248201527f4f776e61626c653a206e6577206f776e657220697320746865207a65726f206160448201526564647265737360d01b6064820152608401610878565b6112a18161221d565b50565b6112b86103e8670de0b6b3a76400006126eb565b6112c390600561270d565b81565b60025460408051630fdb11cf60e01b815290516000926001600160a01b031691630fdb11cf916004808301926020929190829003018187875af1158015611311573d6000803e3d6000fd5b505050506040513d601f19601f82011682018060405250810190611335919061269d565b90506000600860009054906101000a90046001600160a01b03166001600160a01b0316634d6228316040518163ffffffff1660e01b8152600401602060405180830381865afa15801561138c573d6000803e3d6000fd5b505050506040513d601f19601f820116820180604052508101906113b09190612724565b600654604051630d293c7160e41b81529192506000916001600160a01b039091169063d293c710906113e89085908790600401612659565b602060405180830381865afa158015611405573d6000803e3d6000fd5b505050506040513d601f19601f82011682018060405250810190611429919061269d565b9050670f43fc2c04ee00008110156114b75760405162461bcd60e51b8152602060048201526044602482018190527f53746162696c697479506f6f6c3a2043616e6e6f742077697468647261772077908201527f68696c65207468657265206172652074726f766573207769746820494352203c6064820152631026a1a960e11b608482015260a401610878565b505050565b600081116112a15760405162461bcd60e51b815260206004820152603060248201527f53746162696c697479506f6f6c3a2055736572206d757374206861766520612060448201526f1b9bdb8b5e995c9bc819195c1bdcda5d60821b6064820152608401610878565b60008183106115345781611536565b825b90505b92915050565b8060000361154b575050565b600754604051631062c15f60e11b81526001600160a01b03909116906320c582be9061157f90309086908690600401612741565b600060405180830381600087803b15801561159957600080fd5b505af11580156115ad573d6000803e3d6000fd5b505050506115ba8161226f565b5050565b6001600160a01b0382166000908152600b6020526040812082905581900361164c576001600160a01b0382166000818152600c602052604080822082815560018101839055600201829055517fc48943df4095f4f20d171fd2872eafdc0eed4d9014ac3672f3bde7fd425449d591611640918190918252602082015260400190565b60405180910390a25050565b600e54600d546001600160801b03600160801b80840482166000818152600f6020908152604080832095909716808352948152868220546001600160a01b038a16808452600c8352928890206001810188905581815594840286176002909501949094558651868152908101849052939591949390917fc48943df4095f4f20d171fd2872eafdc0eed4d9014ac3672f3bde7fd425449d5910160405180910390a2505050505050565b806000036117005750565b6000816009546117109190612646565b60098190556040518181529091506000805160206128258339815191529060200160405180910390a17f342693d2465f6f44931e41128424a0227e0cbc69d1c3917a839e6de71696d44c338360405161176a929190612659565b60405180910390a16004546115ba906001600160a01b031633846122be565b606081015160408083015183516020808601516001600160801b038087166000908152600f845286812091861681529252938120549094939085906117cf908490612646565b6001600160801b0386166000908152600f6020526040812091925090633b9aca0090826117fd886001612765565b6001600160801b03166001600160801b031681526020019081526020016000205461182891906126eb565b90506000670de0b6b3a764000084611840848661243f565b61184a908d61270d565b61185491906126eb565b61185e91906126eb565b9a9950505050505050505050565b6006546001600160a01b031633146108815760405162461bcd60e51b815260206004820152602960248201527f53746162696c697479506f6f6c3a2043616c6c6572206973206e6f742054726f6044820152683b32a6b0b730b3b2b960b91b6064820152608401610878565b6000806000601054670de0b6b3a7640000876118f4919061270d565b6118fe919061243f565b9050838511156119105761191061278c565b83850361192c576000601155670de0b6b3a76400009150611981565b601154600090611944670de0b6b3a76400008861270d565b61194e9190612646565b905061195a85826126eb565b61196590600161243f565b925080611972868561270d565b61197c9190612646565b601155505b61198b84826126eb565b9250611997848461270d565b6119a19082612646565b60105550935093915050565b600d546000670de0b6b3a76400008311156119ca576119ca61278c565b60006119de84670de0b6b3a7640000612646565b600e546001600160801b03600160801b820481166000818152600f60209081526040808320949095168083529390529283205493945090929091611a22878a61270d565b90506000611a30828461243f565b6001600160801b038581166000818152600f60209081526040808320948b16808452948252918290208590558151858152908101929092528101919091529091507fe12e2cd2c9afa8069203ca07e7eff1edce4a075686d0736a8e7e0d593597b2079060600160405180910390a185600003611b5a57611ab1846001612765565b600e80546001600160801b03908116600160801b93821684021791829055604051929091041681527fb50f0f59e7cb5b421dc77581c3a9919e3806e076e5fa78a874c3f120cb7d874d9060200160405180910390a1600e80546001600160801b0319169055604051600081527f1f9dfc70cd666adb18a39d60a797518f7b4febf4b6e24ef37d44f6e1e7219fbe9060200160405180910390a1670de0b6b3a76400009650611c32565b633b9aca00670de0b6b3a7640000611b72888b61270d565b611b7c91906126eb565b1015611c1257670de0b6b3a7640000633b9aca00611b9a888b61270d565b611ba4919061270d565b611bae91906126eb565b9650611bbb856001612765565b600e80546001600160801b0319166001600160801b039290921691821790556040519081527f1f9dfc70cd666adb18a39d60a797518f7b4febf4b6e24ef37d44f6e1e7219fbe9060200160405180910390a1611c32565b670de0b6b3a7640000611c25878a61270d565b611c2f91906126eb565b96505b60008711611c4257611c4261278c565b600d8790556040518781527fc1a9618cb59ebca77cbdbc2949f126823c407ff13edb285fd0262519a9c18e8c9060200160405180910390a150505050505050505050565b600054604051637b7fc9eb60e11b8152600481018390526001600160a01b0390911690819063f6ff93d690602401600060405180830381600087803b158015611cce57600080fd5b505af1158015611ce2573d6000803e3d6000fd5b50505050611cef8261226f565b600754604051632770a7eb60e21b81526001600160a01b0390911690639dc29fac90611d219030908690600401612659565b600060405180830381600087803b158015611d3b57600080fd5b505af1158015611d4f573d6000803e3d6000fd5b5050604051636250216960e01b81526001600160a01b038416925063625021699150611d819030908790600401612659565b600060405180830381600087803b158015611d9b57600080fd5b505af1158015610957573d6000803e3d6000fd5b602081015160408201516060830151600e546000939291906001600160801b03600160801b90910481169082161015611dee5760009350505050611539565b600e546000908190611e0a9085906001600160801b03166127a2565b9050806001600160801b0316600003611e3d5784600d5489611e2c919061270d565b611e3691906126eb565b9150611e71565b806001600160801b0316600103611e6c57633b9aca0085600d548a611e62919061270d565b611e2c91906126eb565b600091505b611e7f633b9aca00896126eb565b821015611e9457600095505050505050611539565b509695505050505050565b6006546040516321e3780160e01b81526001600160a01b03909116906321e3780190611ecf908490600401612515565b602060405180830381865afa158015611eec573d6000803e3d6000fd5b505050506040513d601f19601f82011682018060405250810190611f10919061269d565b6001146112a15760405162461bcd60e51b815260206004820152604d60248201527f53746162696c697479506f6f6c3a2063616c6c6572206d75737420686176652060448201527f616e206163746976652074726f766520746f20776974686472617720636f6c6160648201526c6c746572616c4761696e20746f60981b608482015260a401610878565b6000611fa682610960565b9050600081116115ba5760405162461bcd60e51b815260206004820152603860248201527f53746162696c697479506f6f6c3a2063616c6c6572206d7573742068617665206044820152773737b716bd32b9379031b7b63630ba32b930b61023b0b4b760411b6064820152608401610878565b600081116112a15760405162461bcd60e51b815260206004820152602660248201527f53746162696c697479506f6f6c3a20416d6f756e74206d757374206265206e6f6044820152656e2d7a65726f60d01b6064820152608401610878565b600754604051632ee65eeb60e21b81526001600160a01b039091169063bb997bac906120ac90859030908690600401612741565b600060405180830381600087803b1580156120c657600080fd5b505af11580156120da573d6000803e3d6000fd5b50505050600081600a546120ee919061243f565b600a8190556040518181529091507fcacce180ae93727cdc9bb9c98e40c99de5dd6690f7b1fc58abfd51dc7d16469d9060200160405180910390a1505050565b6001600160a01b0381166121845760405162461bcd60e51b815260206004820152601e60248201527f4163636f756e742063616e6e6f74206265207a65726f206164647265737300006044820152606401610878565b803b806115ba5760405162461bcd60e51b815260206004820181905260248201527f4163636f756e7420636f64652073697a652063616e6e6f74206265207a65726f6044820152606401610878565b6003546040516000916001600160a01b0316907f8be0079c531659141344cd1fd0a4f28419497f9722a3daafe3b4186f6b6457e0908390a3600380546001600160a01b0319169055565b600380546001600160a01b038381166001600160a01b0319831681179093556040519116919082907f8be0079c531659141344cd1fd0a4f28419497f9722a3daafe3b4186f6b6457e090600090a35050565b600081600a5461227f9190612646565b600a8190556040518181529091507fcacce180ae93727cdc9bb9c98e40c99de5dd6690f7b1fc58abfd51dc7d16469d9060200160405180910390a15050565b6001600160a01b03831661236a576000826001600160a01b03168260405160006040518083038185875af1925050503d8060008114612319576040519150601f19603f3d011682016040523d82523d6000602084013e61231e565b606091505b50509050806123645760405162461bcd60e51b815260206004820152601260248201527114d95b991a5b99c81155120819985a5b195960721b6044820152606401610878565b50505050565b60405163a9059cbb60e01b81526000906001600160a01b0385169063a9059cbb9061239b9086908690600401612659565b6020604051808303816000875af11580156123ba573d6000803e3d6000fd5b505050506040513d601f19601f820116820180604052508101906123de91906127c2565b9050806123645760405162461bcd60e51b815260206004820152601960248201527814d95b991a5b99c818dbdb1b185d195c985b0819985a5b1959603a1b6044820152606401610878565b634e487b7160e01b600052601160045260246000fd5b8082018082111561153957611539612429565b80356001600160801b038116811461246957600080fd5b919050565b6000806040838503121561248157600080fd5b61248a83612452565b915061249860208401612452565b90509250929050565b6000602082840312156124b357600080fd5b5035919050565b6001600160a01b03811681146112a157600080fd5b6000602082840312156124e157600080fd5b81356124ec816124ba565b9392505050565b6000806040838503121561250657600080fd5b50508035926020909101359150565b6001600160a01b0391909116815260200190565b6000806040838503121561253c57600080fd5b8235612547816124ba565b91506020830135612557816124ba565b809150509250929050565b600060208083528351808285015260005b8181101561258f57858101830151858201604001528201612573565b506000604082860101526040601f19601f8301168501019250505092915050565b600080600080600080600060e0888a0312156125cb57600080fd5b87356125d6816124ba565b965060208801356125e6816124ba565b955060408801356125f6816124ba565b94506060880135612606816124ba565b93506080880135612616816124ba565b925060a0880135612626816124ba565b915060c0880135612636816124ba565b8091505092959891949750929550565b8181038181111561153957611539612429565b6001600160a01b03929092168252602082015260400190565b6001600160a01b03948516815260208101939093529083166040830152909116606082015260800190565b6000602082840312156126af57600080fd5b5051919050565b6020808252818101527f4f776e61626c653a2063616c6c6572206973206e6f7420746865206f776e6572604082015260600190565b60008261270857634e487b7160e01b600052601260045260246000fd5b500490565b808202811582820484141761153957611539612429565b60006020828403121561273657600080fd5b81516124ec816124ba565b6001600160a01b039384168152919092166020820152604081019190915260600190565b6001600160801b0381811683821601908082111561278557612785612429565b5092915050565b634e487b7160e01b600052600160045260246000fd5b6001600160801b0382811682821603908082111561278557612785612429565b6000602082840312156127d457600080fd5b815180151581146124ec57600080fdfe47647c495a7db9471a1b024b3c6f7555a502a0de4b130d83a4d3c8f9cff25939bce78369dccab09eec1986f4d409ab09ffbb47d65423e5148fcf98411c5111c95745610f99463e502f9c3333585fe329b498e36b00b8c1bdfd8dc87dfe35b5eaa26469706673582212205d843b2a32429a72bc3bffc2602a46cf038091c4ef89555fe015a07f9f3a3ea464736f6c634300081100336080604052348015600f57600080fd5b50603f80601d6000396000f3fe6080604052600080fdfea26469706673582212204e75016efd152d8e9856513ecadb74449ac71e2531bf7d3a5e206b8e5b1b7d8b64736f6c634300081100336101206040523480156200001257600080fd5b506040516200223e3803806200223e833981016040819052620000359162000396565b600080546001600160a01b0319163390811782556040519091907f8be0079c531659141344cd1fd0a4f28419497f9722a3daafe3b4186f6b6457e0908290a3620000818484846200017c565b604080518082018252601081526f3a342aa9a21029ba30b13632b1b7b4b760811b6020918201528151808301835260018152603160f81b908201527fb420e63a52018fe4b3b72ffe648949904454feec27ee6f33df1275269fdce54460c08181527fc89efdaa54c0f20c7adf612882df0950f5a951637e0307cdcb4c672f298b8bc660e08190524660a081815286517f8b73c3c69bb8fe3d512ecc4cf759cc79239f7b179b0ffacaa9a75d522b39400f818801528088018690526060810184905260808101929092523082820152865180830390910181529201909452805192019190912090919060805250506101005250620003e8915050565b6200018783620002c8565b6200019282620002c8565b6200019d81620002c8565b6001600160a01b038316600081815260056020908152604091829020805460ff1916600117905590519182527f552e6c3035c33f04f1890bc312cbff2a7785b2e14ba719e635c5a8a754705647910160405180910390a16001600160a01b038216600081815260066020908152604091829020805460ff1916600117905590519182527fd5aac92b48f52fdc22e5b14b07e3cbbd61e939d86cec15efe7db4fd82a8d1911910160405180910390a16001600160a01b038116600081815260076020908152604091829020805460ff1916600117905590519182527f5f1db3103369b41aebc8a140eb5553e5a21d3df288ff446278b59eb15d59e2a4910160405180910390a16001600160a01b03166000908152600860205260409020805460ff191660011790555050565b6001600160a01b038116620003245760405162461bcd60e51b815260206004820152601e60248201527f4163636f756e742063616e6e6f74206265207a65726f2061646472657373000060448201526064015b60405180910390fd5b803b80620003755760405162461bcd60e51b815260206004820181905260248201527f4163636f756e7420636f64652073697a652063616e6e6f74206265207a65726f60448201526064016200031b565b5050565b80516001600160a01b03811681146200039157600080fd5b919050565b60008060008060808587031215620003ad57600080fd5b620003b88562000379565b9350620003c86020860162000379565b9250620003d86040860162000379565b6060959095015193969295505050565b60805160a05160c05160e05161010051611dfc6200044260003960008181610507015281816106ce01528181610a7301526111e60152600061141c015260006113f70152600061137c015260006113a40152611dfc6000f3fe608060405234801561001057600080fd5b506004361061027f5760003560e01c806395d89b411161015c578063bb997bac116100ce578063dd62ed3e11610087578063dd62ed3e146105e7578063e228406e14610620578063eecb7cc114610628578063f0e5370b1461063b578063f2fde38b1461065e578063f698da251461067157600080fd5b8063bb997bac1461055f578063bef432c614610572578063c441b24514610595578063cd33973a146105b8578063d505accf146105c1578063d5414ba2146105d457600080fd5b8063a866eaf711610120578063a866eaf7146104d4578063a9059cbb146104dc578063af301923146104ef578063afe5bf9314610502578063b3406ce314610529578063b427cd4e1461054c57600080fd5b806395d89b411461047c5780639ce922ff1461049d5780639dc29fac146104a6578063a457c2d7146104b9578063a7936437146104cc57600080fd5b806348581f39116101f55780636d3aa16a116101b95780636d3aa16a146103f657806370a08231146103fe5780637ecebe00146104275780638961cb24146104505780638da5cb5b146104635780638f32d59b1461047457600080fd5b806348581f391461039557806354fd4d501461039e57806358f2f1cf146103bb578063660edfd8146103db5780636720c945146103e357600080fd5b806320c582be1161024757806320c582be1461032757806323b872dd1461033a578063313ce5671461034d578063395093511461035c57806340c10f191461036f578063441633f21461038257600080fd5b8063011104791461028457806306fdde031461028e578063095ea7b3146102cc57806310ce43bd146102ef57806318160ddd1461031f575b600080fd5b61028c610679565b005b60408051808201909152601081526f3a342aa9a21029ba30b13632b1b7b4b760811b60208201525b6040516102c39190611ab4565b60405180910390f35b6102df6102da366004611b1e565b61074c565b60405190151581526020016102c3565b7f6e71edae12b1b97f4d1f60370fef10105fa2faae0126114a169c64845d6126c95b6040519081526020016102c3565b600154610311565b61028c610335366004611b48565b610763565b6102df610348366004611b48565b61080c565b604051601281526020016102c3565b6102df61036a366004611b1e565b6108c6565b61028c61037d366004611b1e565b6108fd565b61028c610390366004611b84565b610979565b610311600e5481565b6040805180820190915260018152603160f81b60208201526102b6565b600c546103ce906001600160a01b031681565b6040516102c39190611ba6565b61028c610a27565b600b546103ce906001600160a01b031681565b61028c610b05565b61031161040c366004611b84565b6001600160a01b031660009081526003602052604090205490565b610311610435366004611b84565b6001600160a01b031660009081526002602052604090205490565b61028c61045e366004611b84565b610ba6565b6000546001600160a01b03166103ce565b6102df610c58565b6040805180820190915260058152641d1a1554d160da1b60208201526102b6565b610311600f5481565b61028c6104b4366004611b1e565b610c69565b6102df6104c7366004611b1e565b610d43565b61028c610dde565b61028c610e7a565b6102df6104ea366004611b1e565b610f12565b600a546103ce906001600160a01b031681565b6103117f000000000000000000000000000000000000000000000000000000000000000081565b6102df610537366004611b84565b60076020526000908152604090205460ff1681565b6009546103ce906001600160a01b031681565b61028c61056d366004611b48565b610f28565b6102df610580366004611b84565b60086020526000908152604090205460ff1681565b6102df6105a3366004611b84565b60066020526000908152604090205460ff1681565b61031160105481565b61028c6105cf366004611bba565b610f96565b600d546103ce906001600160a01b031681565b6103116105f5366004611c2d565b6001600160a01b03918216600090815260046020908152604080832093909416825291909152205490565b61028c61119a565b61028c610636366004611c60565b611261565b6102df610649366004611b84565b60056020526000908152604090205460ff1681565b61028c61066c366004611b84565b6112e3565b610311611378565b610681610c58565b6106a65760405162461bcd60e51b815260040161069d90611ca3565b60405180910390fd5b601054600081116106c95760405162461bcd60e51b815260040161069d90611cd8565b6106f37f000000000000000000000000000000000000000000000000000000000000000082611d1c565b4210156107125760405162461bcd60e51b815260040161069d90611d2f565b50600d80546001600160a01b03166000908152600860205260408120805460ff1916600117905560105580546001600160a01b0319169055565b600061075933848461146a565b5060015b92915050565b3360009081526005602052604090205460ff168061079057503360009081526006602052604090205460ff165b6107fc5760405162461bcd60e51b815260206004820152603760248201527f54485553443a2043616c6c6572206973206e6569746865722054726f76654d616044820152761b9859d95c881b9bdc8814dd18589a5b1a5d1e541bdbdb604a1b606482015260840161069d565b6108078383836114f8565b505050565b60006108178361162a565b6108228484846114f8565b6001600160a01b0384166000908152600460209081526040808320338452909152902054828110156108a75760405162461bcd60e51b815260206004820152602860248201527f45524332303a207472616e7366657220616d6f756e74206578636565647320616044820152676c6c6f77616e636560c01b606482015260840161069d565b6108bb85336108b68685611d64565b61146a565b506001949350505050565b3360008181526004602090815260408083206001600160a01b038716845290915281205490916107599185906108b6908690611d1c565b3360009081526008602052604090205460ff1661096b5760405162461bcd60e51b815260206004820152602660248201527f5448555344546f6b656e3a2043616c6c6572206e6f7420616c6c6f77656420746044820152651bc81b5a5b9d60d21b606482015260840161069d565b61097582826116dc565b5050565b610981610c58565b61099d5760405162461bcd60e51b815260040161069d90611ca3565b6001600160a01b03811660009081526008602052604090205460ff1615610a015760405162461bcd60e51b8152602060048201526018602482015277125b98dbdc9c9958dd081859191c995cdcc81d1bc818591960421b604482015260640161069d565b42601055600d80546001600160a01b0319166001600160a01b0392909216919091179055565b610a2f610c58565b610a4b5760405162461bcd60e51b815260040161069d90611ca3565b600f5460008111610a6e5760405162461bcd60e51b815260040161069d90611cd8565b610a987f000000000000000000000000000000000000000000000000000000000000000082611d1c565b421015610ab75760405162461bcd60e51b815260040161069d90611d2f565b600954600a54600b54610ad9926001600160a01b039081169281169116611772565b506000600f55600980546001600160a01b0319908116909155600a805482169055600b80549091169055565b610b0d610c58565b610b295760405162461bcd60e51b815260040161069d90611ca3565b600f54600003610b7b5760405162461bcd60e51b815260206004820152601f60248201527f416464696e6720636f6e747261637473206973206e6f74207374617274656400604482015260640161069d565b6000600f55600980546001600160a01b0319908116909155600a805482169055600b80549091169055565b610bae610c58565b610bca5760405162461bcd60e51b815260040161069d90611ca3565b6001600160a01b03811660009081526008602052604090205460ff16610c325760405162461bcd60e51b815260206004820152601b60248201527f496e636f7272656374206164647265737320746f207265766f6b650000000000604482015260640161069d565b42600e55600c80546001600160a01b0319166001600160a01b0392909216919091179055565b6000546001600160a01b0316331490565b3360009081526007602052604090205460ff1680610c9657503360009081526005602052604090205460ff165b80610cb057503360009081526006602052604090205460ff165b610d395760405162461bcd60e51b815260206004820152604e60248201527f54485553443a2043616c6c6572206973206e65697468657220426f72726f776560448201527f724f7065726174696f6e73206e6f722054726f76654d616e61676572206e6f7260648201526d0814dd18589a5b1a5d1e541bdbdb60921b608482015260a40161069d565b61097582826118c4565b3360009081526004602090815260408083206001600160a01b038616845290915281205482811015610dc55760405162461bcd60e51b815260206004820152602560248201527f45524332303a2064656372656173656420616c6c6f77616e63652062656c6f77604482015264207a65726f60d81b606482015260840161069d565b610dd433856108b68685611d64565b5060019392505050565b610de6610c58565b610e025760405162461bcd60e51b815260040161069d90611ca3565b600e54600003610e635760405162461bcd60e51b815260206004820152602660248201527f5265766f6b696e672066726f6d206d696e74206c697374206973206e6f7420736044820152651d185c9d195960d21b606482015260840161069d565b6000600e55600c80546001600160a01b0319169055565b610e82610c58565b610e9e5760405162461bcd60e51b815260040161069d90611ca3565b601054600003610efb5760405162461bcd60e51b815260206004820152602260248201527f416464696e6720746f206d696e74206c697374206973206e6f74207374617274604482015261195960f21b606482015260840161069d565b6000601055600d80546001600160a01b0319169055565b6000610f1d8361162a565b6107593384846114f8565b3360009081526006602052604090205460ff166107fc5760405162461bcd60e51b815260206004820152602660248201527f54485553443a2043616c6c6572206973206e6f74207468652053746162696c696044820152651d1e541bdbdb60d21b606482015260840161069d565b42841015610fe05760405162461bcd60e51b815260206004820152601760248201527654485553443a206578706972656420646561646c696e6560481b604482015260640161069d565b6000610fea611378565b6001600160a01b038916600090815260026020526040812080547f6e71edae12b1b97f4d1f60370fef10105fa2faae0126114a169c64845d6126c9928c928c928c9290919061103883611d77565b909155506040805160208101969096526001600160a01b0394851690860152929091166060840152608083015260a082015260c0810187905260e001604051602081830303815290604052805190602001206040516020016110b192919061190160f01b81526002810192909252602282015260420190565b60408051601f198184030181528282528051602091820120600080855291840180845281905260ff88169284019290925260608301869052608083018590529092509060019060a0016020604051602081039080840390855afa15801561111c573d6000803e3d6000fd5b505050602060405103519050886001600160a01b0316816001600160a01b0316146111845760405162461bcd60e51b815260206004820152601860248201527754485553443a20696e76616c6964207369676e617475726560401b604482015260640161069d565b61118f89898961146a565b505050505050505050565b6111a2610c58565b6111be5760405162461bcd60e51b815260040161069d90611ca3565b600e54600081116111e15760405162461bcd60e51b815260040161069d90611cd8565b61120b7f000000000000000000000000000000000000000000000000000000000000000082611d1c565b42101561122a5760405162461bcd60e51b815260040161069d90611d2f565b50600c80546001600160a01b03166000908152600860205260408120805460ff19169055600e5580546001600160a01b0319169055565b611269610c58565b6112855760405162461bcd60e51b815260040161069d90611ca3565b61128e836119bf565b611297826119bf565b6112a0816119bf565b600980546001600160a01b039485166001600160a01b031991821617909155600a805493851693821693909317909255600b805491909316911617905542600f55565b6112eb610c58565b6113075760405162461bcd60e51b815260040161069d90611ca3565b6001600160a01b03811661136c5760405162461bcd60e51b815260206004820152602660248201527f4f776e61626c653a206e6577206f776e657220697320746865207a65726f206160448201526564647265737360d01b606482015260840161069d565b61137581611a64565b50565b60007f000000000000000000000000000000000000000000000000000000000000000046036113c657507f000000000000000000000000000000000000000000000000000000000000000090565b50604080517f8b73c3c69bb8fe3d512ecc4cf759cc79239f7b179b0ffacaa9a75d522b39400f6020808301919091527f0000000000000000000000000000000000000000000000000000000000000000828401527f000000000000000000000000000000000000000000000000000000000000000060608301524660808301523060a0808401919091528351808403909101815260c0909201909252805191012090565b6001600160a01b03831661148057611480611d90565b6001600160a01b03821661149657611496611d90565b6001600160a01b0383811660008181526004602090815260408083209487168084529482529182902085905590518481527f8c5be1e5ebec7d5bd14f71427d1e84f3dd0314c0f7b2291e5b200ac8c7c3b92591015b60405180910390a3505050565b6001600160a01b03831661150e5761150e611d90565b6001600160a01b03821661152457611524611d90565b6001600160a01b03831660009081526003602052604090205481111561159b5760405162461bcd60e51b815260206004820152602660248201527f45524332303a207472616e7366657220616d6f756e7420657863656564732062604482015265616c616e636560d01b606482015260840161069d565b6001600160a01b038316600090815260036020526040812080548392906115c3908490611d64565b90915550506001600160a01b038216600090815260036020526040812080548392906115f0908490611d1c565b92505081905550816001600160a01b0316836001600160a01b0316600080516020611da7833981519152836040516114eb91815260200190565b6001600160a01b0381161580159061164b57506001600160a01b0381163014155b6113755760405162461bcd60e51b815260206004820152605660248201527f54485553443a2043616e6e6f74207472616e7366657220746f6b656e7320646960448201527f726563746c7920746f2074686520544855534420746f6b656e20636f6e7472616064820152756374206f7220746865207a65726f206164647265737360501b608482015260a40161069d565b6001600160a01b0382166116f2576116f2611d90565b806001546117009190611d1c565b6001556001600160a01b038216600090815260036020526040902054611727908290611d1c565b6001600160a01b038316600081815260036020526040808220939093559151909190600080516020611da7833981519152906117669085815260200190565b60405180910390a35050565b61177b836119bf565b611784826119bf565b61178d816119bf565b6001600160a01b03831660009081526005602052604090819020805460ff19166001179055517f552e6c3035c33f04f1890bc312cbff2a7785b2e14ba719e635c5a8a754705647906117e0908590611ba6565b60405180910390a16001600160a01b03821660009081526006602052604090819020805460ff19166001179055517fd5aac92b48f52fdc22e5b14b07e3cbbd61e939d86cec15efe7db4fd82a8d19119061183b908490611ba6565b60405180910390a16001600160a01b03811660009081526007602052604090819020805460ff19166001179055517f5f1db3103369b41aebc8a140eb5553e5a21d3df288ff446278b59eb15d59e2a490611896908390611ba6565b60405180910390a16001600160a01b03166000908152600860205260409020805460ff191660011790555050565b6001600160a01b0382166118da576118da611d90565b6001600160a01b03821660009081526003602052604090205481111561194d5760405162461bcd60e51b815260206004820152602260248201527f45524332303a206275726e20616d6f756e7420657863656564732062616c616e604482015261636560f01b606482015260840161069d565b6001600160a01b03821660009081526003602052604081208054839290611975908490611d64565b92505081905550806001600082825461198e9190611d64565b90915550506040518181526000906001600160a01b03841690600080516020611da783398151915290602001611766565b6001600160a01b038116611a155760405162461bcd60e51b815260206004820152601e60248201527f4163636f756e742063616e6e6f74206265207a65726f20616464726573730000604482015260640161069d565b803b806109755760405162461bcd60e51b815260206004820181905260248201527f4163636f756e7420636f64652073697a652063616e6e6f74206265207a65726f604482015260640161069d565b600080546001600160a01b038381166001600160a01b0319831681178455604051919092169283917f8be0079c531659141344cd1fd0a4f28419497f9722a3daafe3b4186f6b6457e09190a35050565b600060208083528351808285015260005b81811015611ae157858101830151858201604001528201611ac5565b506000604082860101526040601f19601f8301168501019250505092915050565b80356001600160a01b0381168114611b1957600080fd5b919050565b60008060408385031215611b3157600080fd5b611b3a83611b02565b946020939093013593505050565b600080600060608486031215611b5d57600080fd5b611b6684611b02565b9250611b7460208501611b02565b9150604084013590509250925092565b600060208284031215611b9657600080fd5b611b9f82611b02565b9392505050565b6001600160a01b0391909116815260200190565b600080600080600080600060e0888a031215611bd557600080fd5b611bde88611b02565b9650611bec60208901611b02565b95506040880135945060608801359350608088013560ff81168114611c1057600080fd5b9699959850939692959460a0840135945060c09093013592915050565b60008060408385031215611c4057600080fd5b611c4983611b02565b9150611c5760208401611b02565b90509250929050565b600080600060608486031215611c7557600080fd5b611c7e84611b02565b9250611c8c60208501611b02565b9150611c9a60408501611b02565b90509250925092565b6020808252818101527f4f776e61626c653a2063616c6c6572206973206e6f7420746865206f776e6572604082015260600190565b60208082526014908201527310da185b99d9481b9bdd081a5b9a5d1a585d195960621b604082015260600190565b634e487b7160e01b600052601160045260246000fd5b8082018082111561075d5761075d611d06565b6020808252818101527f476f7665726e616e63652064656c617920686173206e6f7420656c6170736564604082015260600190565b8181038181111561075d5761075d611d06565b600060018201611d8957611d89611d06565b5060010190565b634e487b7160e01b600052600160045260246000fdfeddf252ad1be2c89b69c2b068fc378daa952ba7f163c4a11628f55a4df523b3efa26469706673582212207e7794aa3a6f485cb8df891c12ba17f4414d5cc7880472d3e70f422559aaed4964736f6c63430008110033608060405234801561001057600080fd5b50600080546001600160a01b0319163390811782556040519091907f8be0079c531659141344cd1fd0a4f28419497f9722a3daafe3b4186f6b6457e0908290a3610e068061005f6000396000f3fe6080604052600436106100c15760003560e01c806398d99ee61161006f57806398d99ee61461025f5780639b56d6c91461027f578063a3f4df7e146102b5578063b08bc722146102fd578063b32beb5b1461031d578063b7f8cf9b1461033d578063f2fde38b1461035d57600080fd5b80631529a639146101635780633f10abab1461018757806348d399e7146101a95780634a945f8d146101d65780635a4d28bb146101f65780638da5cb5b146102165780638f32d59b1461023457600080fd5b3661015e576100ce61037d565b6003546001600160a01b0316156101445760405162461bcd60e51b815260206004820152602f60248201527f436f6c6c537572706c7573506f6f6c3a20636f6c6c61746572616c206d75737460448201526e1031329022a9219918103a37b5b2b760891b60648201526084015b60405180910390fd5b34600560008282546101569190610c16565b925050819055005b600080fd5b34801561016f57600080fd5b506005545b6040519081526020015b60405180910390f35b34801561019357600080fd5b506101a76101a2366004610c4b565b6103ec565b005b3480156101b557600080fd5b506003546101c9906001600160a01b031681565b60405161017e9190610c75565b3480156101e257600080fd5b506101a76101f1366004610c89565b610476565b34801561020257600080fd5b506004546101c9906001600160a01b031681565b34801561022257600080fd5b506000546001600160a01b03166101c9565b34801561024057600080fd5b506000546001600160a01b03163314604051901515815260200161017e565b34801561026b57600080fd5b506101a761027a366004610cdd565b610608565b34801561028b57600080fd5b5061017461029a366004610cf6565b6001600160a01b031660009081526006602052604090205490565b3480156102c157600080fd5b506102f06040518060400160405280600f81526020016e10dbdb1b14dd5c9c1b1d5cd41bdbdb608a1b81525081565b60405161017e9190610d18565b34801561030957600080fd5b506001546101c9906001600160a01b031681565b34801561032957600080fd5b506101a7610338366004610cf6565b610692565b34801561034957600080fd5b506002546101c9906001600160a01b031681565b34801561036957600080fd5b506101a7610378366004610cf6565b6107db565b6001546001600160a01b031633146103ea5760405162461bcd60e51b815260206004820152602a60248201527f436f6c6c537572706c7573506f6f6c3a2043616c6c6572206973206e6f74204160448201526918dd1a5d9948141bdbdb60b21b606482015260840161013b565b565b6103f4610876565b6001600160a01b038216600090815260066020526040812054610418908390610c16565b6001600160a01b0384166000818152600660205260409081902083905551919250907ff0393a34d05e6567686ad4e097f9d9d2781565957394f1f0d984e5d8e6378f20906104699084815260200190565b60405180910390a2505050565b6000546001600160a01b031633146104a05760405162461bcd60e51b815260040161013b90610d66565b6104a9846108e4565b6104b2836108e4565b6104bb826108e4565b6001600160a01b038116156104d3576104d3816108e4565b600280546001600160a01b038087166001600160a01b031992831617909255600480548684169083161790556001805485841690831617905560038054928416929091169190911790556040517f3ca631ffcd2a9b5d9ae18543fc82f58eb4ca33af9e6ab01b7a8e95331e6ed9859061054d908690610c75565b60405180910390a17f143219c9e69b09e07e095fcc889b43d8f46ca892bba65f08dc3a0050869a5678836040516105849190610c75565b60405180910390a17f78f058b189175430c48dc02699e3a0031ea4ff781536dc2fab847de4babdd882826040516105bb9190610c75565b60405180910390a17ffba7421f3d1a98e80d72491a6e0523133444a5842cc7310951d8b82d075a7dff816040516105f29190610c75565b60405180910390a1610602610989565b50505050565b61061061037d565b6003546001600160a01b03166106785760405162461bcd60e51b815260206004820152602760248201527f436f6c6c537572706c7573506f6f6c3a20636f6c6c61746572616c206d757374604482015266040c4ca408aa8960cb1b606482015260840161013b565b806005600082825461068a9190610c16565b909155505050565b61069a6109d3565b6001600160a01b0381166000908152600660205260409020548061071a5760405162461bcd60e51b815260206004820152603160248201527f436f6c6c537572706c7573506f6f6c3a204e6f20636f6c6c61746572616c20616044820152707661696c61626c6520746f20636c61696d60781b606482015260840161013b565b6001600160a01b0382166000818152600660209081526040808320839055519182527ff0393a34d05e6567686ad4e097f9d9d2781565957394f1f0d984e5d8e6378f20910160405180910390a280600560008282546107799190610d9b565b9091555050604080516001600160a01b0384168152602081018390527f342693d2465f6f44931e41128424a0227e0cbc69d1c3917a839e6de71696d44c910160405180910390a16003546107d7906001600160a01b03168383610a48565b5050565b6000546001600160a01b031633146108055760405162461bcd60e51b815260040161013b90610d66565b6001600160a01b03811661086a5760405162461bcd60e51b815260206004820152602660248201527f4f776e61626c653a206e6577206f776e657220697320746865207a65726f206160448201526564647265737360d01b606482015260840161013b565b61087381610bb0565b50565b6004546001600160a01b031633146103ea5760405162461bcd60e51b815260206004820152602b60248201527f436f6c6c537572706c7573506f6f6c3a2043616c6c6572206973206e6f74205460448201526a3937bb32a6b0b730b3b2b960a91b606482015260840161013b565b6001600160a01b03811661093a5760405162461bcd60e51b815260206004820152601e60248201527f4163636f756e742063616e6e6f74206265207a65726f20616464726573730000604482015260640161013b565b803b806107d75760405162461bcd60e51b815260206004820181905260248201527f4163636f756e7420636f64652073697a652063616e6e6f74206265207a65726f604482015260640161013b565b600080546040516001600160a01b03909116907f8be0079c531659141344cd1fd0a4f28419497f9722a3daafe3b4186f6b6457e0908390a3600080546001600160a01b0319169055565b6002546001600160a01b031633146103ea5760405162461bcd60e51b815260206004820152603260248201527f436f6c6c537572706c7573506f6f6c3a2043616c6c6572206973206e6f7420426044820152716f72726f776572204f7065726174696f6e7360701b606482015260840161013b565b6001600160a01b038316610aee576000826001600160a01b03168260405160006040518083038185875af1925050503d8060008114610aa3576040519150601f19603f3d011682016040523d82523d6000602084013e610aa8565b606091505b50509050806106025760405162461bcd60e51b815260206004820152601260248201527114d95b991a5b99c81155120819985a5b195960721b604482015260640161013b565b60405163a9059cbb60e01b81526001600160a01b038381166004830152602482018390526000919085169063a9059cbb906044016020604051808303816000875af1158015610b41573d6000803e3d6000fd5b505050506040513d601f19601f82011682018060405250810190610b659190610dae565b9050806106025760405162461bcd60e51b815260206004820152601960248201527814d95b991a5b99c818dbdb1b185d195c985b0819985a5b1959603a1b604482015260640161013b565b600080546001600160a01b038381166001600160a01b0319831681178455604051919092169283917f8be0079c531659141344cd1fd0a4f28419497f9722a3daafe3b4186f6b6457e09190a35050565b634e487b7160e01b600052601160045260246000fd5b80820180821115610c2957610c29610c00565b92915050565b80356001600160a01b0381168114610c4657600080fd5b919050565b60008060408385031215610c5e57600080fd5b610c6783610c2f565b946020939093013593505050565b6001600160a01b0391909116815260200190565b60008060008060808587031215610c9f57600080fd5b610ca885610c2f565b9350610cb660208601610c2f565b9250610cc460408601610c2f565b9150610cd260608601610c2f565b905092959194509250565b600060208284031215610cef57600080fd5b5035919050565b600060208284031215610d0857600080fd5b610d1182610c2f565b9392505050565b600060208083528351808285015260005b81811015610d4557858101830151858201604001528201610d29565b506000604082860101526040601f19601f8301168501019250505092915050565b6020808252818101527f4f776e61626c653a2063616c6c6572206973206e6f7420746865206f776e6572604082015260600190565b81810381811115610c2957610c29610c00565b600060208284031215610dc057600080fd5b81518015158114610d1157600080fdfea2646970667358221220c8b33bdd170eb89cc03ae7cf6503b931c74bc10a6baf4d2021350bf3127e68ea64736f6c634300081100336080604052680ad78ebc5ac620000060015534801561001d57600080fd5b50600080546001600160a01b0319163390811782556040519091907f8be0079c531659141344cd1fd0a4f28419497f9722a3daafe3b4186f6b6457e0908290a361030c8061006c6000396000f3fe608060405234801561001057600080fd5b50600436106100625760003560e01c80630fdb11cf146100675780638da5cb5b146100825780638f32d59b1461009d57806391b7f5ed146100bc57806398d5fdca146100cf578063f2fde38b146100d7575b600080fd5b61006f6100ec565b6040519081526020015b60405180910390f35b6000546040516001600160a01b039091168152602001610079565b6000546001600160a01b031633145b6040519015158152602001610079565b6100ac6100ca366004610258565b610130565b60015461006f565b6100ea6100e5366004610271565b61016d565b005b60007f4d29de21de555af78a62fc82dd4bc05e9ae5b0660a37f04729527e0f22780cd360015460405161012191815260200190565b60405180910390a15060015490565b600080546001600160a01b031633146101645760405162461bcd60e51b815260040161015b906102a1565b60405180910390fd5b50600190815590565b6000546001600160a01b031633146101975760405162461bcd60e51b815260040161015b906102a1565b6001600160a01b0381166101fc5760405162461bcd60e51b815260206004820152602660248201527f4f776e61626c653a206e6577206f776e657220697320746865207a65726f206160448201526564647265737360d01b606482015260840161015b565b61020581610208565b50565b600080546001600160a01b038381166001600160a01b0319831681178455604051919092169283917f8be0079c531659141344cd1fd0a4f28419497f9722a3daafe3b4186f6b6457e09190a35050565b60006020828403121561026a57600080fd5b5035919050565b60006020828403121561028357600080fd5b81356001600160a01b038116811461029a57600080fd5b9392505050565b6020808252818101527f4f776e61626c653a2063616c6c6572206973206e6f7420746865206f776e657260408201526060019056fea2646970667358221220072b4f68146a4df8098507bea9b90ba9e0b477edb3d0c9017074f7f4fc39878764736f6c63430008110033608060405234801561001057600080fd5b50600080546001600160a01b0319163390811782556040519091907f8be0079c531659141344cd1fd0a4f28419497f9722a3daafe3b4186f6b6457e0908290a361171e8061005f6000396000f3fe608060405234801561001057600080fd5b50600436106101425760003560e01c806373d4a13a116100b8578063b72703ac1161007c578063b72703ac14610327578063b7f8cf9b14610356578063babd3d9a14610369578063de8fa43114610375578063f2fde38b1461037d578063f376d7981461039057600080fd5b806373d4a13a1461024d578063765e01591461029a5780638da5cb5b146102cb5780638f32d59b146102dc578063a3f4df7e146102ef57600080fd5b8063416980dc1161010a578063416980dc146101c857806346f7cf87146101fb5780634d6228311461020e5780635dbe47e81461021f57806363e1d57c14610232578063681fe70c1461024457600080fd5b80631e2231431461014757806329092d0e1461016a5780632be212601461017f5780633d83908a146101925780633fce12d5146101a5575b600080fd5b6003546001600160a01b03165b60405161016191906114a2565b60405180910390f35b61017d6101783660046114d2565b6103a3565b005b61017d61018d3660046114f4565b6103b7565b600254610154906001600160a01b031681565b6101b86101b3366004611541565b610437565b6040519015158152602001610161565b6101db6101d6366004611541565b61045a565b604080516001600160a01b03938416815292909116602083015201610161565b61017d6102093660046114f4565b610484565b6004546001600160a01b0316610154565b6101b861022d3660046114d2565b610499565b6005545b604051908152602001610161565b600654156101b8565b60035460045460055460065461026f936001600160a01b039081169316919084565b604080516001600160a01b039586168152949093166020850152918301526060820152608001610161565b6101546102a83660046114d2565b6001600160a01b0390811660009081526007602052604090205461010090041690565b6000546001600160a01b0316610154565b6000546001600160a01b031633146101b8565b61031a6040518060400160405280600c81526020016b536f7274656454726f76657360a01b81525081565b604051610161919061157d565b6101546103353660046114d2565b6001600160a01b039081166000908152600760205260409020600101541690565b600154610154906001600160a01b031681565b600554600654146101b8565b600654610236565b61017d61038b3660046114d2565b6104b7565b61017d61039e366004611541565b61054f565b6103ab61068c565b6103b4816106fd565b50565b6002546001600160a01b03166103cc8161090b565b6103d585610499565b6103fa5760405162461bcd60e51b81526004016103f1906115cb565b60405180910390fd5b6000841161041a5760405162461bcd60e51b81526004016103f190611615565b610423856106fd565b610430818686868661098e565b5050505050565b600254600090610452906001600160a01b0316858585610d0e565b949350505050565b6002546000908190610477906001600160a01b0316868686610f4a565b915091505b935093915050565b6002546001600160a01b03166104238161090b565b6001600160a01b031660009081526007602052604090205460ff1690565b6000546001600160a01b031633146104e15760405162461bcd60e51b81526004016103f190611658565b6001600160a01b0381166105465760405162461bcd60e51b815260206004820152602660248201527f4f776e61626c653a206e6577206f776e657220697320746865207a65726f206160448201526564647265737360d01b60648201526084016103f1565b6103b48161110d565b6000546001600160a01b031633146105795760405162461bcd60e51b81526004016103f190611658565b600083116105c95760405162461bcd60e51b815260206004820152601f60248201527f536f7274656454726f7665733a2053697a652063616e74206265207a65726f0060448201526064016103f1565b6105d28261115d565b6105db8161115d565b6005839055600280546001600160a01b038085166001600160a01b03199283161790925560018054928416929091169190911790556040517f143219c9e69b09e07e095fcc889b43d8f46ca892bba65f08dc3a0050869a5678906106409084906114a2565b60405180910390a17f3ca631ffcd2a9b5d9ae18543fc82f58eb4ca33af9e6ab01b7a8e95331e6ed9858160405161067791906114a2565b60405180910390a1610687611206565b505050565b6002546001600160a01b031633146106fb5760405162461bcd60e51b815260206004820152602c60248201527f536f7274656454726f7665733a2043616c6c6572206973206e6f74207468652060448201526b2a3937bb32a6b0b730b3b2b960a11b60648201526084016103f1565b565b61070681610499565b6107225760405162461bcd60e51b81526004016103f1906115cb565b60065460011015610862576003546001600160a01b039081169082160361078f576001600160a01b0380821660009081526007602052604080822054600380546001600160a01b03199081166101009093049095169182179055825290206001018054909116905561087f565b6004546001600160a01b03908116908216036107f3576001600160a01b0380821660009081526007602052604080822060010154600480546001600160a01b03191691909416908117909355918152208054610100600160a81b031916905561087f565b6001600160a01b038082166000908152600760205260408082208054600180830180548716865284862080546101009485900489168502610100600160a81b03199091161790555492549190910485168452919092200180546001600160a01b0319169190921617905561087f565b600380546001600160a01b03199081169091556004805490911690555b6001600160a01b038116600090815260076020526040812080546001600160a81b0319168155600190810180546001600160a01b031916905560068054919290916108cb9084906116a3565b90915550506040517fcfc24166db4bb677e857cacabd1541fb2b30645021b27c5130419589b84db52b906109009083906114a2565b60405180910390a150565b6001546001600160a01b031633148061092c5750336001600160a01b038216145b6103b45760405162461bcd60e51b815260206004820152602d60248201527f536f7274656454726f7665733a2043616c6c6572206973206e6569746865722060448201526c424f206e6f722054726f76654d60981b60648201526084016103f1565b600554600654036109e15760405162461bcd60e51b815260206004820152601a60248201527f536f7274656454726f7665733a204c6973742069732066756c6c00000000000060448201526064016103f1565b6109ea84610499565b15610a4c5760405162461bcd60e51b815260206004820152602c60248201527f536f7274656454726f7665733a204c69737420616c726561647920636f6e746160448201526b696e7320746865206e6f646560a01b60648201526084016103f1565b6001600160a01b038416610aa25760405162461bcd60e51b815260206004820152601f60248201527f536f7274656454726f7665733a2049642063616e6e6f74206265207a65726f0060448201526064016103f1565b60008311610ac25760405162461bcd60e51b81526004016103f190611615565b8181610ad087868484610d0e565b610ae657610ae087868484610f4a565b90925090505b6001600160a01b038087166000908152600760205260409020805460ff191660011790558216158015610b2057506001600160a01b038116155b15610b5557600380546001600160a01b0388166001600160a01b03199182168117909255600480549091169091179055610ca9565b6001600160a01b038216610bc957600380546001600160a01b03888116600081815260076020526040808220805495851661010002610100600160a81b0319909616959095179094558454909216825291902060010180546001600160a01b03199081168317909155825416179055610ca9565b6001600160a01b038116610c3957600480546001600160a01b0388811660008181526007602052604080822060010180549585166001600160a01b031996871617905585549093168152919091208054610100600160a81b03191661010083021790558254909116179055610ca9565b6001600160a01b038087166000818152600760205260408082208054858716610100818102610100600160a81b031993841617845560019384018054988b166001600160a01b0319998a168117909155865284862080549188029190931617909155835291200180549092161790555b6001600380016000828254610cbe91906116bc565b9091555050604080516001600160a01b0388168152602081018790527fe02b43adbee0c123de070a04554a71877a0007e2fc161466299cae3c094fe82f910160405180910390a150505050505050565b60006001600160a01b038316158015610d2e57506001600160a01b038216155b15610d3f57600654155b9050610452565b6001600160a01b038316610ddc576003546001600160a01b038381169116148015610d38575060405163b0d8e18160e01b81526001600160a01b0386169063b0d8e18190610d919085906004016114a2565b602060405180830381865afa158015610dae573d6000803e3d6000fd5b505050506040513d601f19601f82011682018060405250810190610dd291906116cf565b8410159050610452565b6001600160a01b038216610e79576004546001600160a01b038481169116148015610d38575060405163b0d8e18160e01b81526001600160a01b0386169063b0d8e18190610e2e9086906004016114a2565b602060405180830381865afa158015610e4b573d6000803e3d6000fd5b505050506040513d601f19601f82011682018060405250810190610e6f91906116cf565b8411159050610452565b6001600160a01b0383811660009081526007602052604090205461010090048116908316148015610f17575060405163b0d8e18160e01b815284906001600160a01b0387169063b0d8e18190610ed39087906004016114a2565b602060405180830381865afa158015610ef0573d6000803e3d6000fd5b505050506040513d601f19601f82011682018060405250810190610f1491906116cf565b10155b8015610d38575060405163b0d8e18160e01b81526001600160a01b0386169063b0d8e18190610d919085906004016114a2565b60008083836001600160a01b03821615610fe857610f6782610499565b1580610fde575060405163b0d8e18160e01b81526001600160a01b0389169063b0d8e18190610f9a9085906004016114a2565b602060405180830381865afa158015610fb7573d6000803e3d6000fd5b505050506040513d601f19601f82011682018060405250810190610fdb91906116cf565b87115b15610fe857600091505b6001600160a01b038116156110805761100081610499565b1580611077575060405163b0d8e18160e01b81526001600160a01b0389169063b0d8e181906110339084906004016114a2565b602060405180830381865afa158015611050573d6000803e3d6000fd5b505050506040513d601f19601f8201168201806040525081019061107491906116cf565b87105b15611080575060005b6001600160a01b03821615801561109e57506001600160a01b038116155b156110c7576003546110bc90899089906001600160a01b0316611250565b935093505050611104565b6001600160a01b0382166110e0576110bc88888361137c565b6001600160a01b0381166110f9576110bc888884611250565b6110bc888884611250565b94509492505050565b600080546001600160a01b038381166001600160a01b0319831681178455604051919092169283917f8be0079c531659141344cd1fd0a4f28419497f9722a3daafe3b4186f6b6457e09190a35050565b6001600160a01b0381166111b35760405162461bcd60e51b815260206004820152601e60248201527f4163636f756e742063616e6e6f74206265207a65726f2061646472657373000060448201526064016103f1565b803b806112025760405162461bcd60e51b815260206004820181905260248201527f4163636f756e7420636f64652073697a652063616e6e6f74206265207a65726f60448201526064016103f1565b5050565b600080546040516001600160a01b03909116907f8be0079c531659141344cd1fd0a4f28419497f9722a3daafe3b4186f6b6457e0908390a3600080546001600160a01b0319169055565b60035460009081906001600160a01b0384811691161480156112de575060405163b0d8e18160e01b81526001600160a01b0386169063b0d8e181906112999086906004016114a2565b602060405180830381865afa1580156112b6573d6000803e3d6000fd5b505050506040513d601f19601f820116820180604052508101906112da91906116cf565b8410155b156112ee5750600090508161047c565b6001600160a01b038084166000908152600760205260409020548491610100909104165b6001600160a01b03821615801590611333575061133187878484610d0e565b155b1561137057506001600160a01b03908116600090815260076020526040808220546101009081900484168084529190922054909291900416611312565b90969095509350505050565b60045460009081906001600160a01b03848116911614801561140a575060405163b0d8e18160e01b81526001600160a01b0386169063b0d8e181906113c59086906004016114a2565b602060405180830381865afa1580156113e2573d6000803e3d6000fd5b505050506040513d601f19601f8201168201806040525081019061140691906116cf565b8411155b1561141a5750819050600061047c565b6001600160a01b038084166000908152600760205260409020600101548491165b6001600160a01b0382161580159061145c575061145a87878385610d0e565b155b1561149757506001600160a01b039081166000908152600760205260408082206001908101548416808452919092209091015490911661143b565b969095509350505050565b6001600160a01b0391909116815260200190565b80356001600160a01b03811681146114cd57600080fd5b919050565b6000602082840312156114e457600080fd5b6114ed826114b6565b9392505050565b6000806000806080858703121561150a57600080fd5b611513856114b6565b935060208501359250611528604086016114b6565b9150611536606086016114b6565b905092959194509250565b60008060006060848603121561155657600080fd5b83359250611566602085016114b6565b9150611574604085016114b6565b90509250925092565b600060208083528351808285015260005b818110156115aa5785810183015185820160400152820161158e565b506000604082860101526040601f19601f8301168501019250505092915050565b6020808252602a908201527f536f7274656454726f7665733a204c69737420646f6573206e6f7420636f6e74604082015269185a5b881d1a19481a5960b21b606082015260800190565b60208082526023908201527f536f7274656454726f7665733a204e494352206d75737420626520706f73697460408201526269766560e81b606082015260800190565b6020808252818101527f4f776e61626c653a2063616c6c6572206973206e6f7420746865206f776e6572604082015260600190565b634e487b7160e01b600052601160045260246000fd5b818103818111156116b6576116b661168d565b92915050565b808201808211156116b6576116b661168d565b6000602082840312156116e157600080fd5b505191905056fea2646970667358221220089ed9253349bd1def787598a8f7acb4d9954a707c11bf8b45b01314e20299e764736f6c63430008110033608060405234801561001057600080fd5b5060405162001160380380620011608339810160408190526100319161009c565b600080546001600160a01b039586166001600160a01b03199182161790915560018054948616948216949094179093556002805492851692841692909217909155600380549190931691161790556100fb565b6001600160a01b038116811461009957600080fd5b50565b600080600080608085870312156100b257600080fd5b84516100bd81610084565b60208601519094506100ce81610084565b60408601519093506100df81610084565b60608601519092506100f081610084565b939692955090935050565b611055806200010b6000396000f3fe6080604052600436106100ed5760003560e01c8063650b559c11610085578063650b559c146102175780637bbb0f5e1461022a5780638fed4ab01461024a578063911347311461026a578063cc51a6c21461027d578063cf83544f1461029d578063d466e4eb146102bd578063d94bcec2146102dd578063f47a1ea7146102fd57600080fd5b806332e859b9146100f957806335b101791461010e578063390b5f271461012e57806346576541146101625780634903a3dd146101825780634afbac51146101975780634d37261f146101b7578063618dcfc0146101d7578063641b09b6146101f757600080fd5b366100f457005b600080fd5b61010c610107366004610c12565b61031d565b005b34801561011a57600080fd5b5061010c610129366004610c54565b61043e565b34801561013a57600080fd5b5061014e610149366004610cc2565b6104d2565b604051901515815260200160405180910390f35b34801561016e57600080fd5b5061010c61017d366004610cee565b61054f565b34801561018e57600080fd5b5061010c6105ac565b3480156101a357600080fd5b5061010c6101b2366004610d36565b610616565b3480156101c357600080fd5b5061010c6101d2366004610dab565b61067e565b3480156101e357600080fd5b5061010c6101f2366004610dc8565b6106e1565b34801561020357600080fd5b5061010c610212366004610dc8565b610712565b61010c610225366004610def565b610743565b34801561023657600080fd5b5061010c610245366004610c12565b6108b0565b34801561025657600080fd5b5061010c610265366004610c12565b610912565b61010c610278366004610e61565b610946565b34801561028957600080fd5b5061014e610298366004610cc2565b610aa8565b3480156102a957600080fd5b5061014e6102b8366004610cc2565b610adb565b3480156102c957600080fd5b5061014e6102d8366004610cc2565b610b0e565b3480156102e957600080fd5b5061014e6102f8366004610eb3565b610b41565b34801561030957600080fd5b5061010c610318366004610dc8565b610bc9565b600154604080516348d399e760e01b815290516000926001600160a01b0316916348d399e79160048083019260209291908290030181865afa158015610367573d6000803e3d6000fd5b505050506040513d601f19601f8201168201806040525081019061038b9190610ef4565b6001600160a01b03160361040757600154604051636ab6b5df60e11b81526001600160a01b039091169063d56d6bbe9085906103d09060009087908790600401610f11565b6000604051808303818588803b1580156103e957600080fd5b505af11580156103fd573d6000803e3d6000fd5b5050505050505050565b600154604051636ab6b5df60e11b81526001600160a01b039091169063d56d6bbe906000906103d090879087908790600401610f11565b600054604051635e69ba9360e11b8152600481018990526001600160a01b038881166024830152878116604483015286811660648301526084820186905260a4820185905260c482018490529091169063bcd375269060e401600060405180830381600087803b1580156104b157600080fd5b505af11580156104c5573d6000803e3d6000fd5b5050505050505050505050565b60035460405163a9059cbb60e01b81526000916001600160a01b03169063a9059cbb906105059086908690600401610f30565b6020604051808303816000875af1158015610524573d6000803e3d6000fd5b505050506040513d601f19601f820116820180604052508101906105489190610f49565b9392505050565b60015460405163877eb17960e01b815260048101839052602481018690526001600160a01b03858116604483015284811660648301529091169063877eb17990608401600060405180830381600087803b1580156103e957600080fd5b600160009054906101000a90046001600160a01b03166001600160a01b0316630e704d506040518163ffffffff1660e01b8152600401600060405180830381600087803b1580156105fc57600080fd5b505af1158015610610573d6000803e3d6000fd5b50505050565b600054604051631e8b1c2b60e01b81526001600160a01b0390911690631e8b1c2b906106489085908590600401610f66565b600060405180830381600087803b15801561066257600080fd5b505af1158015610676573d6000803e3d6000fd5b505050505050565b6000546040516305f0caad60e31b81526001600160a01b03838116600483015290911690632f865568906024015b600060405180830381600087803b1580156106c657600080fd5b505af11580156106da573d6000803e3d6000fd5b5050505050565b600254604051631e31de8960e21b8152600481018390526001600160a01b03909116906378c77a24906024016106ac565b600254604051632e54bf9560e01b8152600481018390526001600160a01b0390911690632e54bf95906024016106ac565b600154604080516348d399e760e01b815290516000926001600160a01b0316916348d399e79160048083019260209291908290030181865afa15801561078d573d6000803e3d6000fd5b505050506040513d601f19601f820116820180604052508101906107b19190610ef4565b6001600160a01b03160361083557600154604051638e54c11960e01b81526001600160a01b0390911690638e54c1199089906107fe9085908b908b908b906000908c908c90600401610fb4565b6000604051808303818588803b15801561081757600080fd5b505af115801561082b573d6000803e3d6000fd5b50505050506108a7565b600154604051638e54c11960e01b81526001600160a01b0390911690638e54c119906000906108749085908b908b908b908f908c908c90600401610fb4565b6000604051808303818588803b15801561088d57600080fd5b505af11580156108a1573d6000803e3d6000fd5b50505050505b50505050505050565b60015460405163154c09cf60e21b81526001600160a01b0390911690635530273c906108e490869086908690600401610f11565b600060405180830381600087803b1580156108fe57600080fd5b505af11580156108a7573d6000803e3d6000fd5b600154604051635eac890f60e11b81526001600160a01b039091169063bd59121e906108e490869086908690600401610f11565b600154604080516348d399e760e01b815290516000926001600160a01b0316916348d399e79160048083019260209291908290030181865afa158015610990573d6000803e3d6000fd5b505050506040513d601f19601f820116820180604052508101906109b49190610ef4565b6001600160a01b031603610a3457600154604051638f09162b60e01b81526001600160a01b0390911690638f09162b9087906109fd90859089906000908a908a90600401610ff0565b6000604051808303818588803b158015610a1657600080fd5b505af1158015610a2a573d6000803e3d6000fd5b50505050506106da565b600154604051638f09162b60e01b81526001600160a01b0390911690638f09162b90600090610a6f90859089908b908a908a90600401610ff0565b6000604051808303818588803b158015610a8857600080fd5b505af1158015610a9c573d6000803e3d6000fd5b50505050505050505050565b600354604051633950935160e01b81526000916001600160a01b0316906339509351906105059086908690600401610f30565b60035460405163095ea7b360e01b81526000916001600160a01b03169063095ea7b3906105059086908690600401610f30565b60035460405163a457c2d760e01b81526000916001600160a01b03169063a457c2d7906105059086908690600401610f30565b6003546040516323b872dd60e01b81526001600160a01b03858116600483015284811660248301526044820184905260009216906323b872dd906064016020604051808303816000875af1158015610b9d573d6000803e3d6000fd5b505050506040513d601f19601f82011682018060405250810190610bc19190610f49565b949350505050565b60005460405163653d46e760e01b8152600481018390526001600160a01b039091169063653d46e7906024016106ac565b6001600160a01b0381168114610c0f57600080fd5b50565b600080600060608486031215610c2757600080fd5b833592506020840135610c3981610bfa565b91506040840135610c4981610bfa565b809150509250925092565b600080600080600080600060e0888a031215610c6f57600080fd5b873596506020880135610c8181610bfa565b95506040880135610c9181610bfa565b94506060880135610ca181610bfa565b9699959850939660808101359560a0820135955060c0909101359350915050565b60008060408385031215610cd557600080fd5b8235610ce081610bfa565b946020939093013593505050565b60008060008060808587031215610d0457600080fd5b843593506020850135610d1681610bfa565b92506040850135610d2681610bfa565b9396929550929360600135925050565b60008060208385031215610d4957600080fd5b823567ffffffffffffffff80821115610d6157600080fd5b818501915085601f830112610d7557600080fd5b813581811115610d8457600080fd5b8660208260051b8501011115610d9957600080fd5b60209290920196919550909350505050565b600060208284031215610dbd57600080fd5b813561054881610bfa565b600060208284031215610dda57600080fd5b5035919050565b8015158114610c0f57600080fd5b600080600080600080600060e0888a031215610e0a57600080fd5b8735965060208801359550604088013594506060880135610e2a81610de1565b93506080880135610e3a81610bfa565b925060a0880135610e4a81610bfa565b8092505060c0880135905092959891949750929550565b600080600080600060a08688031215610e7957600080fd5b85359450602086013593506040860135610e9281610bfa565b92506060860135610ea281610bfa565b949793965091946080013592915050565b600080600060608486031215610ec857600080fd5b8335610ed381610bfa565b92506020840135610ee381610bfa565b929592945050506040919091013590565b600060208284031215610f0657600080fd5b815161054881610bfa565b9283526001600160a01b03918216602084015216604082015260600190565b6001600160a01b03929092168252602082015260400190565b600060208284031215610f5b57600080fd5b815161054881610de1565b60208082528181018390526000908460408401835b86811015610fa9578235610f8e81610bfa565b6001600160a01b031682529183019190830190600101610f7b565b509695505050505050565b96875260208701959095526040860193909352901515606085015260808401526001600160a01b0390811660a08401521660c082015260e00190565b948552602085019390935260408401919091526001600160a01b03908116606084015216608082015260a0019056fea2646970667358221220a6732ea4932d990d468e19e51db302770599fe6016a0a5e675a33b923dc162f164736f6c63430008110033",
  "linkReferences": {},
  "deployedLinkReferences": {}
}