{
  "_format": "hh-sol-artifact-1",
  "contractName": "EchidnaProxy",
  "sourceName": "contracts/TestContracts/EchidnaProxy.sol",
  "abi": [
    {
      "inputs": [
        {
          "internalType": "contract TroveManager",
          "name": "_troveManager",
          "type": "address"
        },
        {
          "internalType": "contract BorrowerOperations",
          "name": "_borrowerOperations",
          "type": "address"
        },
        {
          "internalType": "contract StabilityPool",
          "name": "_stabilityPool",
          "type": "address"
        },
        {
          "internalType": "contract THUSDToken",
          "name": "_thusdToken",
          "type": "address"
        }
      ],
      "stateMutability": "nonpayable",
      "type": "constructor"
    },
    {
      "inputs": [
        {
          "internalType": "uint256",
          "name": "_collateral",
          "type": "uint256"
        },
        {
          "internalType": "address",
          "name": "_upperHint",
          "type": "address"
        },
        {
          "internalType": "address",
          "name": "_lowerHint",
          "type": "address"
        }
      ],
      "name": "addCollPrx",
      "outputs": [],
      "stateMutability": "payable",
      "type": "function"
    },
    {
      "inputs": [
        {
          "internalType": "uint256",
          "name": "_collateral",
          "type": "uint256"
        },
        {
          "internalType": "uint256",
          "name": "_collWithdrawal",
          "type": "uint256"
        },
        {
          "internalType": "uint256",
          "name": "_debtChange",
          "type": "uint256"
        },
        {
          "internalType": "bool",
          "name": "_isDebtIncrease",
          "type": "bool"
        },
        {
          "internalType": "address",
          "name": "_upperHint",
          "type": "address"
        },
        {
          "internalType": "address",
          "name": "_lowerHint",
          "type": "address"
        },
        {
          "internalType": "uint256",
          "name": "_maxFee",
          "type": "uint256"
        }
      ],
      "name": "adjustTrovePrx",
      "outputs": [],
      "stateMutability": "payable",
      "type": "function"
    },
    {
      "inputs": [
        {
          "internalType": "address",
          "name": "spender",
          "type": "address"
        },
        {
          "internalType": "uint256",
          "name": "amount",
          "type": "uint256"
        }
      ],
      "name": "approvePrx",
      "outputs": [
        {
          "internalType": "bool",
          "name": "",
          "type": "bool"
        }
      ],
      "stateMutability": "nonpayable",
      "type": "function"
    },
    {
      "inputs": [
        {
          "internalType": "address[]",
          "name": "_troveArray",
          "type": "address[]"
        }
      ],
      "name": "batchLiquidateTrovesPrx",
      "outputs": [],
      "stateMutability": "nonpayable",
      "type": "function"
    },
    {
      "inputs": [],
      "name": "closeTrovePrx",
      "outputs": [],
      "stateMutability": "nonpayable",
      "type": "function"
    },
    {
      "inputs": [
        {
          "internalType": "address",
          "name": "spender",
          "type": "address"
        },
        {
          "internalType": "uint256",
          "name": "subtractedValue",
          "type": "uint256"
        }
      ],
      "name": "decreaseAllowancePrx",
      "outputs": [
        {
          "internalType": "bool",
          "name": "",
          "type": "bool"
        }
      ],
      "stateMutability": "nonpayable",
      "type": "function"
    },
    {
      "inputs": [
        {
          "internalType": "address",
          "name": "spender",
          "type": "address"
        },
        {
          "internalType": "uint256",
          "name": "addedValue",
          "type": "uint256"
        }
      ],
      "name": "increaseAllowancePrx",
      "outputs": [
        {
          "internalType": "bool",
          "name": "",
          "type": "bool"
        }
      ],
      "stateMutability": "nonpayable",
      "type": "function"
    },
    {
      "inputs": [
        {
          "internalType": "address",
          "name": "_user",
          "type": "address"
        }
      ],
      "name": "liquidatePrx",
      "outputs": [],
      "stateMutability": "nonpayable",
      "type": "function"
    },
    {
      "inputs": [
        {
          "internalType": "uint256",
          "name": "_n",
          "type": "uint256"
        }
      ],
      "name": "liquidateTrovesPrx",
      "outputs": [],
      "stateMutability": "nonpayable",
      "type": "function"
    },
    {
      "inputs": [
        {
          "internalType": "uint256",
          "name": "_collateral",
          "type": "uint256"
        },
        {
          "internalType": "uint256",
          "name": "_THUSDAmount",
          "type": "uint256"
        },
        {
          "internalType": "address",
          "name": "_upperHint",
          "type": "address"
        },
        {
          "internalType": "address",
          "name": "_lowerHint",
          "type": "address"
        },
        {
          "internalType": "uint256",
          "name": "_maxFee",
          "type": "uint256"
        }
      ],
      "name": "openTrovePrx",
      "outputs": [],
      "stateMutability": "payable",
      "type": "function"
    },
    {
      "inputs": [
        {
          "internalType": "uint256",
          "name": "_amount",
          "type": "uint256"
        }
      ],
      "name": "provideToSPPrx",
      "outputs": [],
      "stateMutability": "nonpayable",
      "type": "function"
    },
    {
      "inputs": [
        {
          "internalType": "uint256",
          "name": "_THUSDAmount",
          "type": "uint256"
        },
        {
          "internalType": "address",
          "name": "_firstRedemptionHint",
          "type": "address"
        },
        {
          "internalType": "address",
          "name": "_upperPartialRedemptionHint",
          "type": "address"
        },
        {
          "internalType": "address",
          "name": "_lowerPartialRedemptionHint",
          "type": "address"
        },
        {
          "internalType": "uint256",
          "name": "_partialRedemptionHintNICR",
          "type": "uint256"
        },
        {
          "internalType": "uint256",
          "name": "_maxIterations",
          "type": "uint256"
        },
        {
          "internalType": "uint256",
          "name": "_maxFee",
          "type": "uint256"
        }
      ],
      "name": "redeemCollateralPrx",
      "outputs": [],
      "stateMutability": "nonpayable",
      "type": "function"
    },
    {
      "inputs": [
        {
          "internalType": "uint256",
          "name": "_amount",
          "type": "uint256"
        },
        {
          "internalType": "address",
          "name": "_upperHint",
          "type": "address"
        },
        {
          "internalType": "address",
          "name": "_lowerHint",
          "type": "address"
        }
      ],
      "name": "repayTHUSDPrx",
      "outputs": [],
      "stateMutability": "nonpayable",
      "type": "function"
    },
    {
      "inputs": [
        {
          "internalType": "address",
          "name": "sender",
          "type": "address"
        },
        {
          "internalType": "address",
          "name": "recipient",
          "type": "address"
        },
        {
          "internalType": "uint256",
          "name": "amount",
          "type": "uint256"
        }
      ],
      "name": "transferFromPrx",
      "outputs": [
        {
          "internalType": "bool",
          "name": "",
          "type": "bool"
        }
      ],
      "stateMutability": "nonpayable",
      "type": "function"
    },
    {
      "inputs": [
        {
          "internalType": "address",
          "name": "recipient",
          "type": "address"
        },
        {
          "internalType": "uint256",
          "name": "amount",
          "type": "uint256"
        }
      ],
      "name": "transferPrx",
      "outputs": [
        {
          "internalType": "bool",
          "name": "",
          "type": "bool"
        }
      ],
      "stateMutability": "nonpayable",
      "type": "function"
    },
    {
      "inputs": [
        {
          "internalType": "uint256",
          "name": "_amount",
          "type": "uint256"
        },
        {
          "internalType": "address",
          "name": "_upperHint",
          "type": "address"
        },
        {
          "internalType": "address",
          "name": "_lowerHint",
          "type": "address"
        }
      ],
      "name": "withdrawCollPrx",
      "outputs": [],
      "stateMutability": "nonpayable",
      "type": "function"
    },
    {
      "inputs": [
        {
          "internalType": "uint256",
          "name": "_amount",
          "type": "uint256"
        }
      ],
      "name": "withdrawFromSPPrx",
      "outputs": [],
      "stateMutability": "nonpayable",
      "type": "function"
    },
    {
      "inputs": [
        {
          "internalType": "uint256",
          "name": "_amount",
          "type": "uint256"
        },
        {
          "internalType": "address",
          "name": "_upperHint",
          "type": "address"
        },
        {
          "internalType": "address",
          "name": "_lowerHint",
          "type": "address"
        },
        {
          "internalType": "uint256",
          "name": "_maxFee",
          "type": "uint256"
        }
      ],
      "name": "withdrawTHUSDPrx",
      "outputs": [],
      "stateMutability": "nonpayable",
      "type": "function"
    },
    {
      "stateMutability": "payable",
      "type": "receive"
    }
  ],
  "bytecode": "0x608060405234801561001057600080fd5b5060405162001160380380620011608339810160408190526100319161009c565b600080546001600160a01b039586166001600160a01b03199182161790915560018054948616948216949094179093556002805492851692841692909217909155600380549190931691161790556100fb565b6001600160a01b038116811461009957600080fd5b50565b600080600080608085870312156100b257600080fd5b84516100bd81610084565b60208601519094506100ce81610084565b60408601519093506100df81610084565b60608601519092506100f081610084565b939692955090935050565b611055806200010b6000396000f3fe6080604052600436106100ed5760003560e01c8063650b559c11610085578063650b559c146102175780637bbb0f5e1461022a5780638fed4ab01461024a578063911347311461026a578063cc51a6c21461027d578063cf83544f1461029d578063d466e4eb146102bd578063d94bcec2146102dd578063f47a1ea7146102fd57600080fd5b806332e859b9146100f957806335b101791461010e578063390b5f271461012e57806346576541146101625780634903a3dd146101825780634afbac51146101975780634d37261f146101b7578063618dcfc0146101d7578063641b09b6146101f757600080fd5b366100f457005b600080fd5b61010c610107366004610c12565b61031d565b005b34801561011a57600080fd5b5061010c610129366004610c54565b61043e565b34801561013a57600080fd5b5061014e610149366004610cc2565b6104d2565b604051901515815260200160405180910390f35b34801561016e57600080fd5b5061010c61017d366004610cee565b61054f565b34801561018e57600080fd5b5061010c6105ac565b3480156101a357600080fd5b5061010c6101b2366004610d36565b610616565b3480156101c357600080fd5b5061010c6101d2366004610dab565b61067e565b3480156101e357600080fd5b5061010c6101f2366004610dc8565b6106e1565b34801561020357600080fd5b5061010c610212366004610dc8565b610712565b61010c610225366004610def565b610743565b34801561023657600080fd5b5061010c610245366004610c12565b6108b0565b34801561025657600080fd5b5061010c610265366004610c12565b610912565b61010c610278366004610e61565b610946565b34801561028957600080fd5b5061014e610298366004610cc2565b610aa8565b3480156102a957600080fd5b5061014e6102b8366004610cc2565b610adb565b3480156102c957600080fd5b5061014e6102d8366004610cc2565b610b0e565b3480156102e957600080fd5b5061014e6102f8366004610eb3565b610b41565b34801561030957600080fd5b5061010c610318366004610dc8565b610bc9565b600154604080516348d399e760e01b815290516000926001600160a01b0316916348d399e79160048083019260209291908290030181865afa158015610367573d6000803e3d6000fd5b505050506040513d601f19601f8201168201806040525081019061038b9190610ef4565b6001600160a01b03160361040757600154604051636ab6b5df60e11b81526001600160a01b039091169063d56d6bbe9085906103d09060009087908790600401610f11565b6000604051808303818588803b1580156103e957600080fd5b505af11580156103fd573d6000803e3d6000fd5b5050505050505050565b600154604051636ab6b5df60e11b81526001600160a01b039091169063d56d6bbe906000906103d090879087908790600401610f11565b600054604051635e69ba9360e11b8152600481018990526001600160a01b038881166024830152878116604483015286811660648301526084820186905260a4820185905260c482018490529091169063bcd375269060e401600060405180830381600087803b1580156104b157600080fd5b505af11580156104c5573d6000803e3d6000fd5b5050505050505050505050565b60035460405163a9059cbb60e01b81526000916001600160a01b03169063a9059cbb906105059086908690600401610f30565b6020604051808303816000875af1158015610524573d6000803e3d6000fd5b505050506040513d601f19601f820116820180604052508101906105489190610f49565b9392505050565b60015460405163877eb17960e01b815260048101839052602481018690526001600160a01b03858116604483015284811660648301529091169063877eb17990608401600060405180830381600087803b1580156103e957600080fd5b600160009054906101000a90046001600160a01b03166001600160a01b0316630e704d506040518163ffffffff1660e01b8152600401600060405180830381600087803b1580156105fc57600080fd5b505af1158015610610573d6000803e3d6000fd5b50505050565b600054604051631e8b1c2b60e01b81526001600160a01b0390911690631e8b1c2b906106489085908590600401610f66565b600060405180830381600087803b15801561066257600080fd5b505af1158015610676573d6000803e3d6000fd5b505050505050565b6000546040516305f0caad60e31b81526001600160a01b03838116600483015290911690632f865568906024015b600060405180830381600087803b1580156106c657600080fd5b505af11580156106da573d6000803e3d6000fd5b5050505050565b600254604051631e31de8960e21b8152600481018390526001600160a01b03909116906378c77a24906024016106ac565b600254604051632e54bf9560e01b8152600481018390526001600160a01b0390911690632e54bf95906024016106ac565b600154604080516348d399e760e01b815290516000926001600160a01b0316916348d399e79160048083019260209291908290030181865afa15801561078d573d6000803e3d6000fd5b505050506040513d601f19601f820116820180604052508101906107b19190610ef4565b6001600160a01b03160361083557600154604051638e54c11960e01b81526001600160a01b0390911690638e54c1199089906107fe9085908b908b908b906000908c908c90600401610fb4565b6000604051808303818588803b15801561081757600080fd5b505af115801561082b573d6000803e3d6000fd5b50505050506108a7565b600154604051638e54c11960e01b81526001600160a01b0390911690638e54c119906000906108749085908b908b908b908f908c908c90600401610fb4565b6000604051808303818588803b15801561088d57600080fd5b505af11580156108a1573d6000803e3d6000fd5b50505050505b50505050505050565b60015460405163154c09cf60e21b81526001600160a01b0390911690635530273c906108e490869086908690600401610f11565b600060405180830381600087803b1580156108fe57600080fd5b505af11580156108a7573d6000803e3d6000fd5b600154604051635eac890f60e11b81526001600160a01b039091169063bd59121e906108e490869086908690600401610f11565b600154604080516348d399e760e01b815290516000926001600160a01b0316916348d399e79160048083019260209291908290030181865afa158015610990573d6000803e3d6000fd5b505050506040513d601f19601f820116820180604052508101906109b49190610ef4565b6001600160a01b031603610a3457600154604051638f09162b60e01b81526001600160a01b0390911690638f09162b9087906109fd90859089906000908a908a90600401610ff0565b6000604051808303818588803b158015610a1657600080fd5b505af1158015610a2a573d6000803e3d6000fd5b50505050506106da565b600154604051638f09162b60e01b81526001600160a01b0390911690638f09162b90600090610a6f90859089908b908a908a90600401610ff0565b6000604051808303818588803b158015610a8857600080fd5b505af1158015610a9c573d6000803e3d6000fd5b50505050505050505050565b600354604051633950935160e01b81526000916001600160a01b0316906339509351906105059086908690600401610f30565b60035460405163095ea7b360e01b81526000916001600160a01b03169063095ea7b3906105059086908690600401610f30565b60035460405163a457c2d760e01b81526000916001600160a01b03169063a457c2d7906105059086908690600401610f30565b6003546040516323b872dd60e01b81526001600160a01b03858116600483015284811660248301526044820184905260009216906323b872dd906064016020604051808303816000875af1158015610b9d573d6000803e3d6000fd5b505050506040513d601f19601f82011682018060405250810190610bc19190610f49565b949350505050565b60005460405163653d46e760e01b8152600481018390526001600160a01b039091169063653d46e7906024016106ac565b6001600160a01b0381168114610c0f57600080fd5b50565b600080600060608486031215610c2757600080fd5b833592506020840135610c3981610bfa565b91506040840135610c4981610bfa565b809150509250925092565b600080600080600080600060e0888a031215610c6f57600080fd5b873596506020880135610c8181610bfa565b95506040880135610c9181610bfa565b94506060880135610ca181610bfa565b9699959850939660808101359560a0820135955060c0909101359350915050565b60008060408385031215610cd557600080fd5b8235610ce081610bfa565b946020939093013593505050565b60008060008060808587031215610d0457600080fd5b843593506020850135610d1681610bfa565b92506040850135610d2681610bfa565b9396929550929360600135925050565b60008060208385031215610d4957600080fd5b823567ffffffffffffffff80821115610d6157600080fd5b818501915085601f830112610d7557600080fd5b813581811115610d8457600080fd5b8660208260051b8501011115610d9957600080fd5b60209290920196919550909350505050565b600060208284031215610dbd57600080fd5b813561054881610bfa565b600060208284031215610dda57600080fd5b5035919050565b8015158114610c0f57600080fd5b600080600080600080600060e0888a031215610e0a57600080fd5b8735965060208801359550604088013594506060880135610e2a81610de1565b93506080880135610e3a81610bfa565b925060a0880135610e4a81610bfa565b8092505060c0880135905092959891949750929550565b600080600080600060a08688031215610e7957600080fd5b85359450602086013593506040860135610e9281610bfa565b92506060860135610ea281610bfa565b949793965091946080013592915050565b600080600060608486031215610ec857600080fd5b8335610ed381610bfa565b92506020840135610ee381610bfa565b929592945050506040919091013590565b600060208284031215610f0657600080fd5b815161054881610bfa565b9283526001600160a01b03918216602084015216604082015260600190565b6001600160a01b03929092168252602082015260400190565b600060208284031215610f5b57600080fd5b815161054881610de1565b60208082528181018390526000908460408401835b86811015610fa9578235610f8e81610bfa565b6001600160a01b031682529183019190830190600101610f7b565b509695505050505050565b96875260208701959095526040860193909352901515606085015260808401526001600160a01b0390811660a08401521660c082015260e00190565b948552602085019390935260408401919091526001600160a01b03908116606084015216608082015260a0019056fea2646970667358221220a6732ea4932d990d468e19e51db302770599fe6016a0a5e675a33b923dc162f164736f6c63430008110033",
  "linkReferences": {},
  "deployedLinkReferences": {}
}