{
  "_format": "hh-sol-artifact-1",
  "contractName": "ERC20TransferScript",
  "sourceName": "contracts/Proxy/ERC20TransferScript.sol",
  "abi": [
    {
      "inputs": [
        {
          "internalType": "address",
          "name": "token",
          "type": "address"
        },
        {
          "internalType": "address",
          "name": "_recipient",
          "type": "address"
        },
        {
          "internalType": "uint256",
          "name": "_amount",
          "type": "uint256"
        }
      ],
      "name": "transferTokens",
      "outputs": [
        {
          "internalType": "bool",
          "name": "",
          "type": "bool"
        }
      ],
      "stateMutability": "nonpayable",
      "type": "function"
    }
  ],
  "bytecode": "0x608060405234801561001057600080fd5b5061018f806100206000396000f3fe608060405234801561001057600080fd5b506004361061002b5760003560e01c8063a64b6e5f14610030575b600080fd5b61004361003e3660046100f4565b610057565b604051901515815260200160405180910390f35b60405163a9059cbb60e01b81526001600160a01b03838116600483015260248201839052600091829186169063a9059cbb906044016020604051808303816000875af11580156100ab573d6000803e3d6000fd5b505050506040513d601f19601f820116820180604052508101906100cf9190610130565b95945050505050565b80356001600160a01b03811681146100ef57600080fd5b919050565b60008060006060848603121561010957600080fd5b610112846100d8565b9250610120602085016100d8565b9150604084013590509250925092565b60006020828403121561014257600080fd5b8151801515811461015257600080fd5b939250505056fea26469706673582212206f627ceb55ef123ad10f6adb690266d65caab4ea0d327e96e6da9f6a2f2d9d3364736f6c63430008110033",
  "linkReferences": {},
  "deployedLinkReferences": {}
}