{
  "_format": "hh-sol-artifact-1",
  "contractName": "ETHTransferScript",
  "sourceName": "contracts/Proxy/ETHTransferScript.sol",
  "abi": [
    {
      "inputs": [
        {
          "internalType": "address",
          "name": "_recipient",
          "type": "address"
        },
        {
          "internalType": "uint256",
          "name": "_amount",
          "type": "uint256"
        }
      ],
      "name": "transferETH",
      "outputs": [
        {
          "internalType": "bool",
          "name": "",
          "type": "bool"
        }
      ],
      "stateMutability": "nonpayable",
      "type": "function"
    }
  ],
  "bytecode": "0x608060405234801561001057600080fd5b50610118806100206000396000f3fe6080604052348015600f57600080fd5b506004361060285760003560e01c80637b1a490914602d575b600080fd5b603c603836600460ac565b6050565b604051901515815260200160405180910390f35b600080836001600160a01b03168360405160006040518083038185875af1925050503d8060008114609c576040519150601f19603f3d011682016040523d82523d6000602084013e60a1565b606091505b509095945050505050565b6000806040838503121560be57600080fd5b82356001600160a01b038116811460d457600080fd5b94602093909301359350505056fea2646970667358221220117533b55b927deb441d180f89efde2638aab82c036ce7f2fef25327a4d7e54564736f6c63430008110033",
  "linkReferences": {},
  "deployedLinkReferences": {}
}