{
  "_format": "hh-sol-artifact-1",
  "contractName": "FunctionCaller",
  "sourceName": "contracts/TestContracts/FunctionCaller.sol",
  "abi": [
    {
      "inputs": [],
      "name": "priceFeedAddress",
      "outputs": [
        {
          "internalType": "address",
          "name": "",
          "type": "address"
        }
      ],
      "stateMutability": "view",
      "type": "function"
    },
    {
      "inputs": [
        {
          "internalType": "address",
          "name": "_priceFeedAddress",
          "type": "address"
        }
      ],
      "name": "setPriceFeedAddress",
      "outputs": [],
      "stateMutability": "nonpayable",
      "type": "function"
    },
    {
      "inputs": [
        {
          "internalType": "address",
          "name": "_sortedTrovesAddress",
          "type": "address"
        }
      ],
      "name": "setSortedTrovesAddress",
      "outputs": [],
      "stateMutability": "nonpayable",
      "type": "function"
    },
    {
      "inputs": [
        {
          "internalType": "address",
          "name": "_troveManagerAddress",
          "type": "address"
        }
      ],
      "name": "setTroveManagerAddress",
      "outputs": [],
      "stateMutability": "nonpayable",
      "type": "function"
    },
    {
      "inputs": [],
      "name": "sortedTrovesAddress",
      "outputs": [
        {
          "internalType": "address",
          "name": "",
          "type": "address"
        }
      ],
      "stateMutability": "view",
      "type": "function"
    },
    {
      "inputs": [
        {
          "internalType": "uint256",
          "name": "_NICR",
          "type": "uint256"
        },
        {
          "internalType": "address",
          "name": "_prevId",
          "type": "address"
        },
        {
          "internalType": "address",
          "name": "_nextId",
          "type": "address"
        }
      ],
      "name": "sortedTroves_findInsertPosition",
      "outputs": [
        {
          "internalType": "address",
          "name": "",
          "type": "address"
        },
        {
          "internalType": "address",
          "name": "",
          "type": "address"
        }
      ],
      "stateMutability": "view",
      "type": "function"
    },
    {
      "inputs": [],
      "name": "troveManagerAddress",
      "outputs": [
        {
          "internalType": "address",
          "name": "",
          "type": "address"
        }
      ],
      "stateMutability": "view",
      "type": "function"
    },
    {
      "inputs": [
        {
          "internalType": "address",
          "name": "_address",
          "type": "address"
        },
        {
          "internalType": "uint256",
          "name": "_price",
          "type": "uint256"
        }
      ],
      "name": "troveManager_getCurrentICR",
      "outputs": [
        {
          "internalType": "uint256",
          "name": "",
          "type": "uint256"
        }
      ],
      "stateMutability": "view",
      "type": "function"
    }
  ],
  "bytecode": "0x608060405234801561001057600080fd5b5061040b806100206000396000f3fe608060405234801561001057600080fd5b50600436106100775760003560e01c8062cf5db41461007c5780632caffa81146100b85780635a4d28bb146100e8578063a06dec71146100fb578063ced2027c14610135578063dcc6710f1461016f578063e0abca0b146101a2578063f4f9e546146101b5575b600080fd5b6100b661008a3660046102f7565b600580546001600160a01b039092166001600160a01b0319928316811790915560048054909216179055565b005b6003546100cb906001600160a01b031681565b6040516001600160a01b0390911681526020015b60405180910390f35b6001546100cb906001600160a01b031681565b6100b66101093660046102f7565b600180546001600160a01b039092166001600160a01b0319928316811790915560028054909216179055565b6100b66101433660046102f7565b600180546001600160a01b039092166001600160a01b0319928316811790915560008054909216179055565b61018261017d366004610314565b6101d6565b604080516001600160a01b039384168152929091166020830152016100df565b6005546100cb906001600160a01b031681565b6101c86101c3366004610356565b610262565b6040519081526020016100df565b60025460405163105a603760e21b8152600481018590526001600160a01b0384811660248301528381166044830152600092839291169063416980dc906064016040805180830381865afa158015610232573d6000803e3d6000fd5b505050506040513d601f19601f820116820180604052508101906102569190610382565b91509150935093915050565b60008054604051630d293c7160e41b81526001600160a01b038581166004830152602482018590529091169063d293c71090604401602060405180830381865afa1580156102b4573d6000803e3d6000fd5b505050506040513d601f19601f820116820180604052508101906102d891906103bc565b9392505050565b6001600160a01b03811681146102f457600080fd5b50565b60006020828403121561030957600080fd5b81356102d8816102df565b60008060006060848603121561032957600080fd5b83359250602084013561033b816102df565b9150604084013561034b816102df565b809150509250925092565b6000806040838503121561036957600080fd5b8235610374816102df565b946020939093013593505050565b6000806040838503121561039557600080fd5b82516103a0816102df565b60208401519092506103b1816102df565b809150509250929050565b6000602082840312156103ce57600080fd5b505191905056fea264697066735822122087423b3fe67f42f8ee45434d20426ceefce0c5180f1172b4e9a8995de4c4110264736f6c63430008110033",
  "linkReferences": {},
  "deployedLinkReferences": {}
}