{
  "_format": "hh-sol-artifact-1",
  "contractName": "HintHelpers",
  "sourceName": "contracts/HintHelpers.sol",
  "abi": [
    {
      "anonymous": false,
      "inputs": [
        {
          "indexed": true,
          "internalType": "address",
          "name": "previousOwner",
          "type": "address"
        },
        {
          "indexed": true,
          "internalType": "address",
          "name": "newOwner",
          "type": "address"
        }
      ],
      "name": "OwnershipTransferred",
      "type": "event"
    },
    {
      "anonymous": false,
      "inputs": [
        {
          "indexed": false,
          "internalType": "address",
          "name": "_sortedTrovesAddress",
          "type": "address"
        }
      ],
      "name": "SortedTrovesAddressChanged",
      "type": "event"
    },
    {
      "anonymous": false,
      "inputs": [
        {
          "indexed": false,
          "internalType": "address",
          "name": "_troveManagerAddress",
          "type": "address"
        }
      ],
      "name": "TroveManagerAddressChanged",
      "type": "event"
    },
    {
      "inputs": [],
      "name": "BORROWING_FEE_FLOOR",
      "outputs": [
        {
          "internalType": "uint256",
          "name": "",
          "type": "uint256"
        }
      ],
      "stateMutability": "view",
      "type": "function"
    },
    {
      "inputs": [],
      "name": "CCR",
      "outputs": [
        {
          "internalType": "uint256",
          "name": "",
          "type": "uint256"
        }
      ],
      "stateMutability": "view",
      "type": "function"
    },
    {
      "inputs": [],
      "name": "DECIMAL_PRECISION",
      "outputs": [
        {
          "internalType": "uint256",
          "name": "",
          "type": "uint256"
        }
      ],
      "stateMutability": "view",
      "type": "function"
    },
    {
      "inputs": [],
      "name": "MCR",
      "outputs": [
        {
          "internalType": "uint256",
          "name": "",
          "type": "uint256"
        }
      ],
      "stateMutability": "view",
      "type": "function"
    },
    {
      "inputs": [],
      "name": "MIN_NET_DEBT",
      "outputs": [
        {
          "internalType": "uint256",
          "name": "",
          "type": "uint256"
        }
      ],
      "stateMutability": "view",
      "type": "function"
    },
    {
      "inputs": [],
      "name": "NAME",
      "outputs": [
        {
          "internalType": "string",
          "name": "",
          "type": "string"
        }
      ],
      "stateMutability": "view",
      "type": "function"
    },
    {
      "inputs": [],
      "name": "PERCENT_DIVISOR",
      "outputs": [
        {
          "internalType": "uint256",
          "name": "",
          "type": "uint256"
        }
      ],
      "stateMutability": "view",
      "type": "function"
    },
    {
      "inputs": [],
      "name": "THUSD_GAS_COMPENSATION",
      "outputs": [
        {
          "internalType": "uint256",
          "name": "",
          "type": "uint256"
        }
      ],
      "stateMutability": "view",
      "type": "function"
    },
    {
      "inputs": [],
      "name": "_100pct",
      "outputs": [
        {
          "internalType": "uint256",
          "name": "",
          "type": "uint256"
        }
      ],
      "stateMutability": "view",
      "type": "function"
    },
    {
      "inputs": [],
      "name": "activePool",
      "outputs": [
        {
          "internalType": "contract IActivePool",
          "name": "",
          "type": "address"
        }
      ],
      "stateMutability": "view",
      "type": "function"
    },
    {
      "inputs": [
        {
          "internalType": "uint256",
          "name": "_coll",
          "type": "uint256"
        },
        {
          "internalType": "uint256",
          "name": "_debt",
          "type": "uint256"
        },
        {
          "internalType": "uint256",
          "name": "_price",
          "type": "uint256"
        }
      ],
      "name": "computeCR",
      "outputs": [
        {
          "internalType": "uint256",
          "name": "",
          "type": "uint256"
        }
      ],
      "stateMutability": "pure",
      "type": "function"
    },
    {
      "inputs": [
        {
          "internalType": "uint256",
          "name": "_coll",
          "type": "uint256"
        },
        {
          "internalType": "uint256",
          "name": "_debt",
          "type": "uint256"
        }
      ],
      "name": "computeNominalCR",
      "outputs": [
        {
          "internalType": "uint256",
          "name": "",
          "type": "uint256"
        }
      ],
      "stateMutability": "pure",
      "type": "function"
    },
    {
      "inputs": [],
      "name": "defaultPool",
      "outputs": [
        {
          "internalType": "contract IDefaultPool",
          "name": "",
          "type": "address"
        }
      ],
      "stateMutability": "view",
      "type": "function"
    },
    {
      "inputs": [
        {
          "internalType": "uint256",
          "name": "_CR",
          "type": "uint256"
        },
        {
          "internalType": "uint256",
          "name": "_numTrials",
          "type": "uint256"
        },
        {
          "internalType": "uint256",
          "name": "_inputRandomSeed",
          "type": "uint256"
        }
      ],
      "name": "getApproxHint",
      "outputs": [
        {
          "internalType": "address",
          "name": "hintAddress",
          "type": "address"
        },
        {
          "internalType": "uint256",
          "name": "diff",
          "type": "uint256"
        },
        {
          "internalType": "uint256",
          "name": "latestRandomSeed",
          "type": "uint256"
        }
      ],
      "stateMutability": "view",
      "type": "function"
    },
    {
      "inputs": [],
      "name": "getEntireSystemColl",
      "outputs": [
        {
          "internalType": "uint256",
          "name": "entireSystemColl",
          "type": "uint256"
        }
      ],
      "stateMutability": "view",
      "type": "function"
    },
    {
      "inputs": [],
      "name": "getEntireSystemDebt",
      "outputs": [
        {
          "internalType": "uint256",
          "name": "entireSystemDebt",
          "type": "uint256"
        }
      ],
      "stateMutability": "view",
      "type": "function"
    },
    {
      "inputs": [
        {
          "internalType": "uint256",
          "name": "_THUSDamount",
          "type": "uint256"
        },
        {
          "internalType": "uint256",
          "name": "_price",
          "type": "uint256"
        },
        {
          "internalType": "uint256",
          "name": "_maxIterations",
          "type": "uint256"
        }
      ],
      "name": "getRedemptionHints",
      "outputs": [
        {
          "internalType": "address",
          "name": "firstRedemptionHint",
          "type": "address"
        },
        {
          "internalType": "uint256",
          "name": "partialRedemptionHintNICR",
          "type": "uint256"
        },
        {
          "internalType": "uint256",
          "name": "truncatedTHUSDamount",
          "type": "uint256"
        }
      ],
      "stateMutability": "view",
      "type": "function"
    },
    {
      "inputs": [],
      "name": "isOwner",
      "outputs": [
        {
          "internalType": "bool",
          "name": "",
          "type": "bool"
        }
      ],
      "stateMutability": "view",
      "type": "function"
    },
    {
      "inputs": [],
      "name": "owner",
      "outputs": [
        {
          "internalType": "address",
          "name": "",
          "type": "address"
        }
      ],
      "stateMutability": "view",
      "type": "function"
    },
    {
      "inputs": [],
      "name": "priceFeed",
      "outputs": [
        {
          "internalType": "contract IPriceFeed",
          "name": "",
          "type": "address"
        }
      ],
      "stateMutability": "view",
      "type": "function"
    },
    {
      "inputs": [
        {
          "internalType": "address",
          "name": "_sortedTrovesAddress",
          "type": "address"
        },
        {
          "internalType": "address",
          "name": "_troveManagerAddress",
          "type": "address"
        }
      ],
      "name": "setAddresses",
      "outputs": [],
      "stateMutability": "nonpayable",
      "type": "function"
    },
    {
      "inputs": [],
      "name": "sortedTroves",
      "outputs": [
        {
          "internalType": "contract ISortedTroves",
          "name": "",
          "type": "address"
        }
      ],
      "stateMutability": "view",
      "type": "function"
    },
    {
      "inputs": [
        {
          "internalType": "address",
          "name": "newOwner",
          "type": "address"
        }
      ],
      "name": "transferOwnership",
      "outputs": [],
      "stateMutability": "nonpayable",
      "type": "function"
    },
    {
      "inputs": [],
      "name": "troveManager",
      "outputs": [
        {
          "internalType": "contract ITroveManager",
          "name": "",
          "type": "address"
        }
      ],
      "stateMutability": "view",
      "type": "function"
    }
  ],
  "bytecode": "0x608060405234801561001057600080fd5b50600380546001600160a01b031916339081179091556040516000907f8be0079c531659141344cd1fd0a4f28419497f9722a3daafe3b4186f6b6457e0908290a3611346806100606000396000f3fe608060405234801561001057600080fd5b50600436106101585760003560e01c80637b41bdbe116100c3578063a20baee61161007c578063a20baee614610225578063a3f4df7e146102d0578063ae91875414610307578063c394a7fa1461031a578063f2fde38b1461032d578063f92d34331461034057600080fd5b80637b41bdbe1461025e5780637f7dde4a14610271578063887105d3146102845780638da5cb5b1461028c5780638f32d59b1461029d57806390107afe146102bb57600080fd5b8063525acdbb11610115578063525acdbb146102035780635733d58f1461021657806372fe25aa14610225578063741bef1a14610234578063794e572414610247578063795d26c31461025657600080fd5b806313144dba1461015d5780631bf435551461019a5780631fd6a434146101b85780633cc74225146101c85780633d83908a146101e85780634870dd9a146101fb575b600080fd5b61017061016b3660046110c9565b610348565b604080516001600160a01b0390941684526020840192909252908201526060015b60405180910390f35b6101aa686194049f30f720000081565b604051908152602001610191565b6101aa680ad78ebc5ac620000081565b6001546101db906001600160a01b031681565b60405161019191906110f5565b6005546101db906001600160a01b031681565b6101aa60c881565b6101aa6102113660046110c9565b610838565b6101aa6714d1120d7b16000081565b6101aa670de0b6b3a764000081565b6002546101db906001600160a01b031681565b6101aa670f43fc2c04ee000081565b6101aa61084f565b61017061026c3660046110c9565b61094b565b6000546101db906001600160a01b031681565b6101aa610c37565b6003546001600160a01b03166101db565b6003546001600160a01b031633146040519015158152602001610191565b6102ce6102c936600461111e565b610cfc565b005b6102fa6040518060400160405280600b81526020016a48696e7448656c7065727360a81b81525081565b6040516101919190611157565b6004546101db906001600160a01b031681565b6101aa6103283660046111a5565b610dec565b6102ce61033b3660046111c7565b610e01565b6101aa610e9c565b6004805460408051634d62283160e01b81529051600093849384936001600160a01b0390911692899285928592634d622831928281019260209291908290030181865afa15801561039d573d6000803e3d6000fd5b505050506040513d601f19601f820116820180604052508101906103c191906111e4565b90505b6001600160a01b038116158015906104565750600554604051630d293c7160e41b81526001600160a01b038381166004830152602482018b9052670f43fc2c04ee000092169063d293c71090604401602060405180830381865afa158015610430573d6000803e3d6000fd5b505050506040513d601f19601f820116820180604052508101906104549190611201565b105b156104cf57604051632dc9c0eb60e21b81526001600160a01b0384169063b72703ac906104879084906004016110f5565b602060405180830381865afa1580156104a4573d6000803e3d6000fd5b505050506040513d601f19601f820116820180604052508101906104c891906111e4565b90506103c4565b809550866000036104e05760001996505b6001600160a01b038116158015906104f85750600082115b801561050f575060008761050b81611230565b9850115b1561082057600554604051631374f48160e31b81526000916001600160a01b031690639ba7a408906105459085906004016110f5565b602060405180830381865afa158015610562573d6000803e3d6000fd5b505050506040513d601f19601f820116820180604052508101906105869190611201565b60055460405163d66a255360e01b81526105fe916001600160a01b03169063d66a2553906105b89087906004016110f5565b602060405180830381865afa1580156105d5573d6000803e3d6000fd5b505050506040513d601f19601f820116820180604052508101906105f99190611201565b610ebe565b6106089190611247565b90508281111561079f57686194049f30f72000008111156107995760006106418461063c686194049f30f72000008561125a565b610ed3565b60055460405163128f257160e21b81529192506000916001600160a01b0390911690634a3c95c4906106779087906004016110f5565b602060405180830381865afa158015610694573d6000803e3d6000fd5b505050506040513d601f19601f820116820180604052508101906106b89190611201565b6005546040516309019aaf60e31b81526001600160a01b039091169063480cd578906106e89088906004016110f5565b602060405180830381865afa158015610705573d6000803e3d6000fd5b505050506040513d601f19601f820116820180604052508101906107299190611201565b6107339190611247565b905060008b61074a670de0b6b3a76400008561126d565b610754919061129a565b61075e908361125a565b9050600061076c848661125a565b9050600061077982610ee9565b90506107858382610efe565b9a50610791858961125a565b975050505050505b50610820565b6107a9818461125a565b9250604051632dc9c0eb60e21b81526001600160a01b0385169063b72703ac906107d79085906004016110f5565b602060405180830381865afa1580156107f4573d6000803e3d6000fd5b505050506040513d601f19601f8201168201806040525081019061081891906111e4565b9150506104e0565b61082a828a61125a565b935050505093509350939050565b6000610845848484610f34565b90505b9392505050565b600080546040805163f07424e960e01b8152905183926001600160a01b03169163f07424e99160048083019260209291908290030181865afa158015610899573d6000803e3d6000fd5b505050506040513d601f19601f820116820180604052508101906108bd9190611201565b90506000600160009054906101000a90046001600160a01b03166001600160a01b031663f07424e96040518163ffffffff1660e01b8152600401602060405180830381865afa158015610914573d6000803e3d6000fd5b505050506040513d601f19601f820116820180604052508101906109389190611201565b90506109448183611247565b9250505090565b600080600080600560009054906101000a90046001600160a01b03166001600160a01b03166349eefeee6040518163ffffffff1660e01b8152600401602060405180830381865afa1580156109a4573d6000803e3d6000fd5b505050506040513d601f19601f820116820180604052508101906109c89190611201565b9050806000036109e2576000808693509350935050610c2e565b6004805460408051634d62283160e01b815290516001600160a01b0390921692634d6228319282820192602092908290030181865afa158015610a29573d6000803e3d6000fd5b505050506040513d601f19601f82011682018060405250810190610a4d91906111e4565b60055460405163b0d8e18160e01b8152919550610aca9189916001600160a01b03169063b0d8e18190610a849089906004016110f5565b602060405180830381865afa158015610aa1573d6000803e3d6000fd5b505050506040513d601f19601f82011682018060405250810190610ac59190611201565b610f65565b925084915060015b86811015610c2b5760408051602081018590520160408051601f19818403018152919052805160209091012092506000610b0c83856112ae565b600554604051633669c91160e21b8152600481018390529192506000916001600160a01b039091169063d9a7244490602401602060405180830381865afa158015610b5b573d6000803e3d6000fd5b505050506040513d601f19601f82011682018060405250810190610b7f91906111e4565b60055460405163b0d8e18160e01b81529192506000916001600160a01b039091169063b0d8e18190610bb59085906004016110f5565b602060405180830381865afa158015610bd2573d6000803e3d6000fd5b505050506040513d601f19601f82011682018060405250810190610bf69190611201565b90506000610c04828d610f65565b905087811015610c15578097508298505b84610c1f816112c2565b95505050505050610ad2565b50505b93509350939050565b6000805460408051631529a63960e01b8152905183926001600160a01b031691631529a6399160048083019260209291908290030181865afa158015610c81573d6000803e3d6000fd5b505050506040513d601f19601f82011682018060405250810190610ca59190611201565b90506000600160009054906101000a90046001600160a01b03166001600160a01b0316631529a6396040518163ffffffff1660e01b8152600401602060405180830381865afa158015610914573d6000803e3d6000fd5b6003546001600160a01b03163314610d2f5760405162461bcd60e51b8152600401610d26906112db565b60405180910390fd5b610d3882610f88565b610d4181610f88565b600480546001600160a01b038085166001600160a01b03199283161790925560058054928416929091169190911790556040517f65f4cf077bc01e4742eb5ad98326f6e95b63548ea24b17f8d5e823111fe7880090610da19084906110f5565b60405180910390a17f143219c9e69b09e07e095fcc889b43d8f46ca892bba65f08dc3a0050869a567881604051610dd891906110f5565b60405180910390a1610de861102d565b5050565b6000610df88383610efe565b90505b92915050565b6003546001600160a01b03163314610e2b5760405162461bcd60e51b8152600401610d26906112db565b6001600160a01b038116610e905760405162461bcd60e51b815260206004820152602660248201527f4f776e61626c653a206e6577206f776e657220697320746865207a65726f206160448201526564647265737360d01b6064820152608401610d26565b610e9981611077565b50565b610eb06103e8670de0b6b3a764000061129a565b610ebb90600561126d565b81565b6000610dfb680ad78ebc5ac62000008361125a565b6000818310610ee25781610df8565b5090919050565b6000610dfb680ad78ebc5ac620000083611247565b60008115610f2b5781610f1a68056bc75e2d631000008561126d565b610f24919061129a565b9050610dfb565b50600019610dfb565b60008215610f5c57600083610f49848761126d565b610f53919061129a565b91506108489050565b50600019610848565b600081831015610f7e57610f79838361125a565b610df8565b610df8828461125a565b6001600160a01b038116610fde5760405162461bcd60e51b815260206004820152601e60248201527f4163636f756e742063616e6e6f74206265207a65726f206164647265737300006044820152606401610d26565b803b80610de85760405162461bcd60e51b815260206004820181905260248201527f4163636f756e7420636f64652073697a652063616e6e6f74206265207a65726f6044820152606401610d26565b6003546040516000916001600160a01b0316907f8be0079c531659141344cd1fd0a4f28419497f9722a3daafe3b4186f6b6457e0908390a3600380546001600160a01b0319169055565b600380546001600160a01b038381166001600160a01b0319831681179093556040519116919082907f8be0079c531659141344cd1fd0a4f28419497f9722a3daafe3b4186f6b6457e090600090a35050565b6000806000606084860312156110de57600080fd5b505081359360208301359350604090920135919050565b6001600160a01b0391909116815260200190565b6001600160a01b0381168114610e9957600080fd5b6000806040838503121561113157600080fd5b823561113c81611109565b9150602083013561114c81611109565b809150509250929050565b600060208083528351808285015260005b8181101561118457858101830151858201604001528201611168565b506000604082860101526040601f19601f8301168501019250505092915050565b600080604083850312156111b857600080fd5b50508035926020909101359150565b6000602082840312156111d957600080fd5b813561084881611109565b6000602082840312156111f657600080fd5b815161084881611109565b60006020828403121561121357600080fd5b5051919050565b634e487b7160e01b600052601160045260246000fd5b60008161123f5761123f61121a565b506000190190565b80820180821115610dfb57610dfb61121a565b81810381811115610dfb57610dfb61121a565b8082028115828204841417610dfb57610dfb61121a565b634e487b7160e01b600052601260045260246000fd5b6000826112a9576112a9611284565b500490565b6000826112bd576112bd611284565b500690565b6000600182016112d4576112d461121a565b5060010190565b6020808252818101527f4f776e61626c653a2063616c6c6572206973206e6f7420746865206f776e657260408201526060019056fea2646970667358221220a2d609063a5876f6bb6c2a62390dc48094192c5b6efd965f4292a10a20f2c4d464736f6c63430008110033",
  "linkReferences": {},
  "deployedLinkReferences": {}
}