{
  "_format": "hh-sol-artifact-1",
  "contractName": "LiquityBase",
  "sourceName": "contracts/Dependencies/LiquityBase.sol",
  "abi": [
    {
      "inputs": [],
      "name": "BORROWING_FEE_FLOOR",
      "outputs": [
        {
          "internalType": "uint256",
          "name": "",
          "type": "uint256"
        }
      ],
      "stateMutability": "view",
      "type": "function"
    },
    {
      "inputs": [],
      "name": "CCR",
      "outputs": [
        {
          "internalType": "uint256",
          "name": "",
          "type": "uint256"
        }
      ],
      "stateMutability": "view",
      "type": "function"
    },
    {
      "inputs": [],
      "name": "DECIMAL_PRECISION",
      "outputs": [
        {
          "internalType": "uint256",
          "name": "",
          "type": "uint256"
        }
      ],
      "stateMutability": "view",
      "type": "function"
    },
    {
      "inputs": [],
      "name": "MCR",
      "outputs": [
        {
          "internalType": "uint256",
          "name": "",
          "type": "uint256"
        }
      ],
      "stateMutability": "view",
      "type": "function"
    },
    {
      "inputs": [],
      "name": "MIN_NET_DEBT",
      "outputs": [
        {
          "internalType": "uint256",
          "name": "",
          "type": "uint256"
        }
      ],
      "stateMutability": "view",
      "type": "function"
    },
    {
      "inputs": [],
      "name": "PERCENT_DIVISOR",
      "outputs": [
        {
          "internalType": "uint256",
          "name": "",
          "type": "uint256"
        }
      ],
      "stateMutability": "view",
      "type": "function"
    },
    {
      "inputs": [],
      "name": "THUSD_GAS_COMPENSATION",
      "outputs": [
        {
          "internalType": "uint256",
          "name": "",
          "type": "uint256"
        }
      ],
      "stateMutability": "view",
      "type": "function"
    },
    {
      "inputs": [],
      "name": "_100pct",
      "outputs": [
        {
          "internalType": "uint256",
          "name": "",
          "type": "uint256"
        }
      ],
      "stateMutability": "view",
      "type": "function"
    },
    {
      "inputs": [],
      "name": "activePool",
      "outputs": [
        {
          "internalType": "contract IActivePool",
          "name": "",
          "type": "address"
        }
      ],
      "stateMutability": "view",
      "type": "function"
    },
    {
      "inputs": [],
      "name": "defaultPool",
      "outputs": [
        {
          "internalType": "contract IDefaultPool",
          "name": "",
          "type": "address"
        }
      ],
      "stateMutability": "view",
      "type": "function"
    },
    {
      "inputs": [],
      "name": "getEntireSystemColl",
      "outputs": [
        {
          "internalType": "uint256",
          "name": "entireSystemColl",
          "type": "uint256"
        }
      ],
      "stateMutability": "view",
      "type": "function"
    },
    {
      "inputs": [],
      "name": "getEntireSystemDebt",
      "outputs": [
        {
          "internalType": "uint256",
          "name": "entireSystemDebt",
          "type": "uint256"
        }
      ],
      "stateMutability": "view",
      "type": "function"
    },
    {
      "inputs": [],
      "name": "priceFeed",
      "outputs": [
        {
          "internalType": "contract IPriceFeed",
          "name": "",
          "type": "address"
        }
      ],
      "stateMutability": "view",
      "type": "function"
    }
  ],
  "bytecode": "0x608060405234801561001057600080fd5b5061042f806100206000396000f3fe608060405234801561001057600080fd5b50600436106100bf5760003560e01c8063741bef1a1161007c578063741bef1a14610148578063794e57241461015b578063795d26c31461016a5780637f7dde4a14610172578063887105d314610185578063a20baee614610139578063f92d34331461018d57600080fd5b80631bf43555146100c45780631fd6a434146100e75780633cc74225146100f75780634870dd9a146101225780635733d58f1461012a57806372fe25aa14610139575b600080fd5b6100d4686194049f30f720000081565b6040519081526020015b60405180910390f35b6100d4680ad78ebc5ac620000081565b60015461010a906001600160a01b031681565b6040516001600160a01b0390911681526020016100de565b6100d460c881565b6100d46714d1120d7b16000081565b6100d4670de0b6b3a764000081565b60025461010a906001600160a01b031681565b6100d4670f43fc2c04ee000081565b6100d4610195565b60005461010a906001600160a01b031681565b6100d4610291565b6100d4610356565b600080546040805163f07424e960e01b8152905183926001600160a01b03169163f07424e99160048083019260209291908290030181865afa1580156101df573d6000803e3d6000fd5b505050506040513d601f19601f820116820180604052508101906102039190610378565b90506000600160009054906101000a90046001600160a01b03166001600160a01b031663f07424e96040518163ffffffff1660e01b8152600401602060405180830381865afa15801561025a573d6000803e3d6000fd5b505050506040513d601f19601f8201168201806040525081019061027e9190610378565b905061028a81836103a7565b9250505090565b6000805460408051631529a63960e01b8152905183926001600160a01b031691631529a6399160048083019260209291908290030181865afa1580156102db573d6000803e3d6000fd5b505050506040513d601f19601f820116820180604052508101906102ff9190610378565b90506000600160009054906101000a90046001600160a01b03166001600160a01b0316631529a6396040518163ffffffff1660e01b8152600401602060405180830381865afa15801561025a573d6000803e3d6000fd5b61036a6103e8670de0b6b3a76400006103c0565b6103759060056103e2565b81565b60006020828403121561038a57600080fd5b5051919050565b634e487b7160e01b600052601160045260246000fd5b808201808211156103ba576103ba610391565b92915050565b6000826103dd57634e487b7160e01b600052601260045260246000fd5b500490565b80820281158282048414176103ba576103ba61039156fea2646970667358221220140374e8e05d797a629e2f2a2ee9e4965c34d11601fb81de5fed3f774b3f3bef64736f6c63430008110033",
  "linkReferences": {},
  "deployedLinkReferences": {}
}