{
  "_format": "hh-sol-artifact-1",
  "contractName": "LiquityMathTester",
  "sourceName": "contracts/TestContracts/LiquityMathTester.sol",
  "abi": [
    {
      "inputs": [
        {
          "internalType": "uint256",
          "name": "_base",
          "type": "uint256"
        },
        {
          "internalType": "uint256",
          "name": "_n",
          "type": "uint256"
        }
      ],
      "name": "callDecPow",
      "outputs": [
        {
          "internalType": "uint256",
          "name": "",
          "type": "uint256"
        }
      ],
      "stateMutability": "pure",
      "type": "function"
    },
    {
      "inputs": [
        {
          "internalType": "uint256",
          "name": "_base",
          "type": "uint256"
        },
        {
          "internalType": "uint256",
          "name": "_n",
          "type": "uint256"
        }
      ],
      "name": "callDecPowTx",
      "outputs": [
        {
          "internalType": "uint256",
          "name": "",
          "type": "uint256"
        }
      ],
      "stateMutability": "pure",
      "type": "function"
    },
    {
      "inputs": [
        {
          "internalType": "uint256",
          "name": "_a",
          "type": "uint256"
        },
        {
          "internalType": "uint256",
          "name": "_b",
          "type": "uint256"
        }
      ],
      "name": "callMax",
      "outputs": [
        {
          "internalType": "uint256",
          "name": "",
          "type": "uint256"
        }
      ],
      "stateMutability": "pure",
      "type": "function"
    }
  ],
  "bytecode": "0x608060405234801561001057600080fd5b50610292806100206000396000f3fe608060405234801561001057600080fd5b50600436106100405760003560e01c8062fa72ff1461004557806336090b011461006a578063d407725214610045575b600080fd5b6100586100533660046101a9565b61007d565b60405190815260200160405180910390f35b6100586100783660046101a9565b610092565b6000610089838361009e565b90505b92915050565b60006100898383610153565b6000631f5405008211156100b457631f54050091505b816000036100cb5750670de0b6b3a764000061008c565b670de0b6b3a764000083835b600181111561013f576100eb6002826101e1565b600003610110576100fc828361016a565b915061010960028261020b565b90506100d7565b61011a828461016a565b9250610126828361016a565b9150600261013560018361021f565b610109919061020b565b610149828461016a565b9695505050505050565b6000818310156101635781610089565b5090919050565b6000806101778385610232565b9050670de0b6b3a764000061018d60028261020b565b6101979083610249565b6101a1919061020b565b949350505050565b600080604083850312156101bc57600080fd5b50508035926020909101359150565b634e487b7160e01b600052601260045260246000fd5b6000826101f0576101f06101cb565b500690565b634e487b7160e01b600052601160045260246000fd5b60008261021a5761021a6101cb565b500490565b8181038181111561008c5761008c6101f5565b808202811582820484141761008c5761008c6101f5565b8082018082111561008c5761008c6101f556fea2646970667358221220d61eebe8568f7f0c0c57c04e746ba8955f78d517f5e59761031c5413f092abcb64736f6c63430008110033",
  "linkReferences": {},
  "deployedLinkReferences": {}
}