{
  "_format": "hh-sol-artifact-1",
  "contractName": "MockTellor",
  "sourceName": "contracts/TestContracts/MockTellor.sol",
  "abi": [
    {
      "inputs": [
        {
          "internalType": "bytes",
          "name": "_queryData",
          "type": "bytes"
        }
      ],
      "stateMutability": "nonpayable",
      "type": "constructor"
    },
    {
      "anonymous": false,
      "inputs": [
        {
          "indexed": true,
          "internalType": "address",
          "name": "owner",
          "type": "address"
        },
        {
          "indexed": true,
          "internalType": "address",
          "name": "spender",
          "type": "address"
        },
        {
          "indexed": false,
          "internalType": "uint256",
          "name": "value",
          "type": "uint256"
        }
      ],
      "name": "Approval",
      "type": "event"
    },
    {
      "anonymous": false,
      "inputs": [
        {
          "indexed": false,
          "internalType": "bytes32",
          "name": "_queryId",
          "type": "bytes32"
        },
        {
          "indexed": false,
          "internalType": "uint256",
          "name": "_time",
          "type": "uint256"
        },
        {
          "indexed": false,
          "internalType": "bytes",
          "name": "_value",
          "type": "bytes"
        },
        {
          "indexed": false,
          "internalType": "uint256",
          "name": "_nonce",
          "type": "uint256"
        },
        {
          "indexed": false,
          "internalType": "bytes",
          "name": "_queryData",
          "type": "bytes"
        },
        {
          "indexed": false,
          "internalType": "address",
          "name": "_reporter",
          "type": "address"
        }
      ],
      "name": "NewReport",
      "type": "event"
    },
    {
      "anonymous": false,
      "inputs": [
        {
          "indexed": false,
          "internalType": "address",
          "name": "_staker",
          "type": "address"
        },
        {
          "indexed": false,
          "internalType": "uint256",
          "name": "_amount",
          "type": "uint256"
        }
      ],
      "name": "NewStaker",
      "type": "event"
    },
    {
      "anonymous": false,
      "inputs": [
        {
          "indexed": false,
          "internalType": "address",
          "name": "_staker",
          "type": "address"
        },
        {
          "indexed": false,
          "internalType": "uint256",
          "name": "_amount",
          "type": "uint256"
        }
      ],
      "name": "StakeWithdrawRequested",
      "type": "event"
    },
    {
      "anonymous": false,
      "inputs": [
        {
          "indexed": false,
          "internalType": "address",
          "name": "_staker",
          "type": "address"
        }
      ],
      "name": "StakeWithdrawn",
      "type": "event"
    },
    {
      "anonymous": false,
      "inputs": [
        {
          "indexed": true,
          "internalType": "address",
          "name": "from",
          "type": "address"
        },
        {
          "indexed": true,
          "internalType": "address",
          "name": "to",
          "type": "address"
        },
        {
          "indexed": false,
          "internalType": "uint256",
          "name": "value",
          "type": "uint256"
        }
      ],
      "name": "Transfer",
      "type": "event"
    },
    {
      "inputs": [
        {
          "internalType": "uint256",
          "name": "_amount",
          "type": "uint256"
        }
      ],
      "name": "addStakingRewards",
      "outputs": [],
      "stateMutability": "nonpayable",
      "type": "function"
    },
    {
      "inputs": [
        {
          "internalType": "address",
          "name": "_owner",
          "type": "address"
        },
        {
          "internalType": "address",
          "name": "_spender",
          "type": "address"
        }
      ],
      "name": "allowance",
      "outputs": [
        {
          "internalType": "uint256",
          "name": "",
          "type": "uint256"
        }
      ],
      "stateMutability": "view",
      "type": "function"
    },
    {
      "inputs": [
        {
          "internalType": "address",
          "name": "_spender",
          "type": "address"
        },
        {
          "internalType": "uint256",
          "name": "_amount",
          "type": "uint256"
        }
      ],
      "name": "approve",
      "outputs": [
        {
          "internalType": "bool",
          "name": "",
          "type": "bool"
        }
      ],
      "stateMutability": "nonpayable",
      "type": "function"
    },
    {
      "inputs": [
        {
          "internalType": "address",
          "name": "_account",
          "type": "address"
        }
      ],
      "name": "balanceOf",
      "outputs": [
        {
          "internalType": "uint256",
          "name": "",
          "type": "uint256"
        }
      ],
      "stateMutability": "view",
      "type": "function"
    },
    {
      "inputs": [
        {
          "internalType": "bytes32",
          "name": "_queryId",
          "type": "bytes32"
        },
        {
          "internalType": "uint256",
          "name": "_timestamp",
          "type": "uint256"
        }
      ],
      "name": "beginDispute",
      "outputs": [],
      "stateMutability": "nonpayable",
      "type": "function"
    },
    {
      "inputs": [],
      "name": "decimals",
      "outputs": [
        {
          "internalType": "uint8",
          "name": "",
          "type": "uint8"
        }
      ],
      "stateMutability": "view",
      "type": "function"
    },
    {
      "inputs": [
        {
          "internalType": "uint256",
          "name": "_amount",
          "type": "uint256"
        }
      ],
      "name": "depositStake",
      "outputs": [],
      "stateMutability": "nonpayable",
      "type": "function"
    },
    {
      "inputs": [
        {
          "internalType": "address",
          "name": "_user",
          "type": "address"
        }
      ],
      "name": "faucet",
      "outputs": [],
      "stateMutability": "nonpayable",
      "type": "function"
    },
    {
      "inputs": [
        {
          "internalType": "bytes32",
          "name": "_queryId",
          "type": "bytes32"
        },
        {
          "internalType": "uint256",
          "name": "_timestamp",
          "type": "uint256"
        }
      ],
      "name": "getDataBefore",
      "outputs": [
        {
          "internalType": "bool",
          "name": "_ifRetrieve",
          "type": "bool"
        },
        {
          "internalType": "bytes",
          "name": "_value",
          "type": "bytes"
        },
        {
          "internalType": "uint256",
          "name": "_timestampRetrieved",
          "type": "uint256"
        }
      ],
      "stateMutability": "view",
      "type": "function"
    },
    {
      "inputs": [
        {
          "internalType": "bytes32",
          "name": "_queryId",
          "type": "bytes32"
        },
        {
          "internalType": "uint256",
          "name": "_timestamp",
          "type": "uint256"
        }
      ],
      "name": "getIndexForDataBefore",
      "outputs": [
        {
          "internalType": "bool",
          "name": "_found",
          "type": "bool"
        },
        {
          "internalType": "uint256",
          "name": "_index",
          "type": "uint256"
        }
      ],
      "stateMutability": "view",
      "type": "function"
    },
    {
      "inputs": [
        {
          "internalType": "bytes32",
          "name": "_queryId",
          "type": "bytes32"
        }
      ],
      "name": "getNewValueCountbyQueryId",
      "outputs": [
        {
          "internalType": "uint256",
          "name": "",
          "type": "uint256"
        }
      ],
      "stateMutability": "view",
      "type": "function"
    },
    {
      "inputs": [
        {
          "internalType": "bytes32",
          "name": "_queryId",
          "type": "bytes32"
        },
        {
          "internalType": "uint256",
          "name": "_timestamp",
          "type": "uint256"
        }
      ],
      "name": "getReporterByTimestamp",
      "outputs": [
        {
          "internalType": "address",
          "name": "",
          "type": "address"
        }
      ],
      "stateMutability": "view",
      "type": "function"
    },
    {
      "inputs": [],
      "name": "getStakeAmount",
      "outputs": [
        {
          "internalType": "uint256",
          "name": "",
          "type": "uint256"
        }
      ],
      "stateMutability": "view",
      "type": "function"
    },
    {
      "inputs": [
        {
          "internalType": "address",
          "name": "_stakerAddress",
          "type": "address"
        }
      ],
      "name": "getStakerInfo",
      "outputs": [
        {
          "internalType": "uint256",
          "name": "",
          "type": "uint256"
        },
        {
          "internalType": "uint256",
          "name": "",
          "type": "uint256"
        },
        {
          "internalType": "uint256",
          "name": "",
          "type": "uint256"
        },
        {
          "internalType": "uint256",
          "name": "",
          "type": "uint256"
        },
        {
          "internalType": "uint256",
          "name": "",
          "type": "uint256"
        },
        {
          "internalType": "uint256",
          "name": "",
          "type": "uint256"
        },
        {
          "internalType": "uint256",
          "name": "",
          "type": "uint256"
        },
        {
          "internalType": "uint256",
          "name": "",
          "type": "uint256"
        },
        {
          "internalType": "bool",
          "name": "",
          "type": "bool"
        }
      ],
      "stateMutability": "view",
      "type": "function"
    },
    {
      "inputs": [
        {
          "internalType": "bytes32",
          "name": "_queryId",
          "type": "bytes32"
        },
        {
          "internalType": "uint256",
          "name": "_index",
          "type": "uint256"
        }
      ],
      "name": "getTimestampbyQueryIdandIndex",
      "outputs": [
        {
          "internalType": "uint256",
          "name": "",
          "type": "uint256"
        }
      ],
      "stateMutability": "view",
      "type": "function"
    },
    {
      "inputs": [
        {
          "internalType": "bytes32",
          "name": "_hash",
          "type": "bytes32"
        }
      ],
      "name": "getVoteRounds",
      "outputs": [
        {
          "internalType": "uint256[]",
          "name": "",
          "type": "uint256[]"
        }
      ],
      "stateMutability": "view",
      "type": "function"
    },
    {
      "inputs": [],
      "name": "governance",
      "outputs": [
        {
          "internalType": "address",
          "name": "",
          "type": "address"
        }
      ],
      "stateMutability": "view",
      "type": "function"
    },
    {
      "inputs": [
        {
          "internalType": "bytes32",
          "name": "",
          "type": "bytes32"
        },
        {
          "internalType": "uint256",
          "name": "",
          "type": "uint256"
        }
      ],
      "name": "isDisputed",
      "outputs": [
        {
          "internalType": "bool",
          "name": "",
          "type": "bool"
        }
      ],
      "stateMutability": "view",
      "type": "function"
    },
    {
      "inputs": [
        {
          "internalType": "bytes32",
          "name": "_queryId",
          "type": "bytes32"
        },
        {
          "internalType": "uint256",
          "name": "_timestamp",
          "type": "uint256"
        }
      ],
      "name": "isInDispute",
      "outputs": [
        {
          "internalType": "bool",
          "name": "",
          "type": "bool"
        }
      ],
      "stateMutability": "view",
      "type": "function"
    },
    {
      "inputs": [],
      "name": "name",
      "outputs": [
        {
          "internalType": "string",
          "name": "",
          "type": "string"
        }
      ],
      "stateMutability": "view",
      "type": "function"
    },
    {
      "inputs": [],
      "name": "queryId",
      "outputs": [
        {
          "internalType": "bytes32",
          "name": "",
          "type": "bytes32"
        }
      ],
      "stateMutability": "view",
      "type": "function"
    },
    {
      "inputs": [
        {
          "internalType": "bytes32",
          "name": "",
          "type": "bytes32"
        },
        {
          "internalType": "uint256",
          "name": "",
          "type": "uint256"
        }
      ],
      "name": "reporterByTimestamp",
      "outputs": [
        {
          "internalType": "address",
          "name": "",
          "type": "address"
        }
      ],
      "stateMutability": "view",
      "type": "function"
    },
    {
      "inputs": [
        {
          "internalType": "uint256",
          "name": "_amount",
          "type": "uint256"
        }
      ],
      "name": "requestStakingWithdraw",
      "outputs": [],
      "stateMutability": "nonpayable",
      "type": "function"
    },
    {
      "inputs": [
        {
          "internalType": "bytes32",
          "name": "_queryId",
          "type": "bytes32"
        },
        {
          "internalType": "uint256",
          "name": "_timestamp",
          "type": "uint256"
        }
      ],
      "name": "retrieveData",
      "outputs": [
        {
          "internalType": "bytes",
          "name": "",
          "type": "bytes"
        }
      ],
      "stateMutability": "view",
      "type": "function"
    },
    {
      "inputs": [
        {
          "internalType": "uint256",
          "name": "_updateTime",
          "type": "uint256"
        }
      ],
      "name": "setUpdateTime",
      "outputs": [],
      "stateMutability": "nonpayable",
      "type": "function"
    },
    {
      "inputs": [],
      "name": "stakeAmount",
      "outputs": [
        {
          "internalType": "uint256",
          "name": "",
          "type": "uint256"
        }
      ],
      "stateMutability": "view",
      "type": "function"
    },
    {
      "inputs": [
        {
          "internalType": "bytes32",
          "name": "_queryId",
          "type": "bytes32"
        },
        {
          "internalType": "bytes",
          "name": "_value",
          "type": "bytes"
        },
        {
          "internalType": "uint256",
          "name": "_nonce",
          "type": "uint256"
        },
        {
          "internalType": "bytes",
          "name": "_queryData",
          "type": "bytes"
        }
      ],
      "name": "submitValue",
      "outputs": [],
      "stateMutability": "nonpayable",
      "type": "function"
    },
    {
      "inputs": [],
      "name": "symbol",
      "outputs": [
        {
          "internalType": "string",
          "name": "",
          "type": "string"
        }
      ],
      "stateMutability": "view",
      "type": "function"
    },
    {
      "inputs": [],
      "name": "timeBasedReward",
      "outputs": [
        {
          "internalType": "uint256",
          "name": "",
          "type": "uint256"
        }
      ],
      "stateMutability": "view",
      "type": "function"
    },
    {
      "inputs": [
        {
          "internalType": "bytes32",
          "name": "",
          "type": "bytes32"
        },
        {
          "internalType": "uint256",
          "name": "",
          "type": "uint256"
        }
      ],
      "name": "timestamps",
      "outputs": [
        {
          "internalType": "uint256",
          "name": "",
          "type": "uint256"
        }
      ],
      "stateMutability": "view",
      "type": "function"
    },
    {
      "inputs": [
        {
          "internalType": "bytes32",
          "name": "",
          "type": "bytes32"
        }
      ],
      "name": "tips",
      "outputs": [
        {
          "internalType": "uint256",
          "name": "",
          "type": "uint256"
        }
      ],
      "stateMutability": "view",
      "type": "function"
    },
    {
      "inputs": [],
      "name": "tipsInContract",
      "outputs": [
        {
          "internalType": "uint256",
          "name": "",
          "type": "uint256"
        }
      ],
      "stateMutability": "view",
      "type": "function"
    },
    {
      "inputs": [],
      "name": "token",
      "outputs": [
        {
          "internalType": "address",
          "name": "",
          "type": "address"
        }
      ],
      "stateMutability": "view",
      "type": "function"
    },
    {
      "inputs": [],
      "name": "totalSupply",
      "outputs": [
        {
          "internalType": "uint256",
          "name": "",
          "type": "uint256"
        }
      ],
      "stateMutability": "view",
      "type": "function"
    },
    {
      "inputs": [
        {
          "internalType": "address",
          "name": "_recipient",
          "type": "address"
        },
        {
          "internalType": "uint256",
          "name": "_amount",
          "type": "uint256"
        }
      ],
      "name": "transfer",
      "outputs": [
        {
          "internalType": "bool",
          "name": "",
          "type": "bool"
        }
      ],
      "stateMutability": "nonpayable",
      "type": "function"
    },
    {
      "inputs": [
        {
          "internalType": "address",
          "name": "_sender",
          "type": "address"
        },
        {
          "internalType": "address",
          "name": "_recipient",
          "type": "address"
        },
        {
          "internalType": "uint256",
          "name": "_amount",
          "type": "uint256"
        }
      ],
      "name": "transferFrom",
      "outputs": [
        {
          "internalType": "bool",
          "name": "",
          "type": "bool"
        }
      ],
      "stateMutability": "nonpayable",
      "type": "function"
    },
    {
      "inputs": [
        {
          "internalType": "bytes32",
          "name": "",
          "type": "bytes32"
        },
        {
          "internalType": "uint256",
          "name": "",
          "type": "uint256"
        }
      ],
      "name": "values",
      "outputs": [
        {
          "internalType": "bytes",
          "name": "",
          "type": "bytes"
        }
      ],
      "stateMutability": "view",
      "type": "function"
    },
    {
      "inputs": [],
      "name": "voteCount",
      "outputs": [
        {
          "internalType": "uint256",
          "name": "",
          "type": "uint256"
        }
      ],
      "stateMutability": "view",
      "type": "function"
    },
    {
      "inputs": [
        {
          "internalType": "bytes32",
          "name": "",
          "type": "bytes32"
        },
        {
          "internalType": "uint256",
          "name": "",
          "type": "uint256"
        }
      ],
      "name": "voteRounds",
      "outputs": [
        {
          "internalType": "uint256",
          "name": "",
          "type": "uint256"
        }
      ],
      "stateMutability": "view",
      "type": "function"
    },
    {
      "inputs": [],
      "name": "withdrawStake",
      "outputs": [],
      "stateMutability": "nonpayable",
      "type": "function"
    }
  ],
  "bytecode": "0x60a06040523480156200001157600080fd5b5060405162002159380380620021598339810160408190526200003491620000dc565b60408051808201909152601081526f15195b1b1bdc941b185e59dc9bdd5b9960821b6020820152600e906200006a908262000240565b506040805180820190915260048152630545242560e41b6020820152600f9062000095908262000240565b506010805460ff19166012179055600c80546001600160a01b0319163017905580516020909101206080526200030c565b634e487b7160e01b600052604160045260246000fd5b60006020808385031215620000f057600080fd5b82516001600160401b03808211156200010857600080fd5b818501915085601f8301126200011d57600080fd5b815181811115620001325762000132620000c6565b604051601f8201601f19908116603f011681019083821181831017156200015d576200015d620000c6565b8160405282815288868487010111156200017657600080fd5b600093505b828410156200019a57848401860151818501870152928501926200017b565b600086848301015280965050505050505092915050565b600181811c90821680620001c657607f821691505b602082108103620001e757634e487b7160e01b600052602260045260246000fd5b50919050565b601f8211156200023b57600081815260208120601f850160051c81016020861015620002165750805b601f850160051c820191505b81811015620002375782815560010162000222565b5050505b505050565b81516001600160401b038111156200025c576200025c620000c6565b62000274816200026d8454620001b1565b84620001ed565b602080601f831160018114620002ac5760008415620002935750858301515b600019600386901b1c1916600185901b17855562000237565b600085815260208120601f198616915b82811015620002dd57888601518255948401946001909101908401620002bc565b5085821015620002fc5787850151600019600388901b60f8161c191681555b5050505050600190811b01905550565b608051611e2a6200032f6000396000818161038b01526105a60152611e2a6000f3fe608060405234801561001057600080fd5b50600436106102485760003560e01c8063733bdef01161013b578063c5958af9116100b8578063d9c51cd41161007c578063d9c51cd41461063b578063dd62ed3e1461064e578063e07c548614610687578063f25133f3146106bb578063fc0c546a146106ce57600080fd5b8063c5958af9146105e6578063c6384071146105f9578063c979fe9f14610602578063cb82cc8f14610615578063ce5e11bf1461062857600080fd5b8063a792765f116100ff578063a792765f14610546578063a9059cbb14610568578063b86d1d631461057b578063bed9d8611461058e578063bf73eea61461059657600080fd5b8063733bdef01461046757806377b03e0d146104fc5780638929f4c61461051c57806395d89b411461052f57806396426d971461053757600080fd5b80633f1be4d4116101c957806360c7dc471161018d57806360c7dc47146103f957806364473df21461040257806369d43bd31461042d57806370a0823114610436578063722580b61461045f57600080fd5b80633f1be4d41461038657806344e87f91146103ad5780635aa6e675146103c05780635eaa9ced146103c6578063602bf227146103d957600080fd5b8063217053c011610210578063217053c0146102c857806323b872dd14610314578063248638e5146103275780632944908514610347578063313ce5671461037157600080fd5b806306fdde031461024d578063091b50ff1461026b578063095ea7b31461027e57806318160ddd146102a15780631f379acc146102b3575b600080fd5b6102556106e1565b60405161026291906117de565b60405180910390f35b6102556102793660046117f8565b610773565b61029161028c366004611836565b610818565b6040519015158152602001610262565b600d545b604051908152602001610262565b6102c66102c13660046117f8565b61082f565b005b6102fc6102d63660046117f8565b60016020908152600092835260408084209091529082529020546001600160a01b031681565b6040516001600160a01b039091168152602001610262565b610291610322366004611860565b6108f4565b61033a61033536600461189c565b610946565b60405161026291906118b5565b61035a6103553660046117f8565b6109a8565b604080519215158352602083019190915201610262565b60105460405160ff9091168152602001610262565b6102a57f000000000000000000000000000000000000000000000000000000000000000081565b6102916103bb3660046117f8565b610c42565b306102fc565b6102c66103d436600461199c565b610c60565b6102a56103e736600461189c565b60046020526000908152604090205481565b6102a560095481565b6102916104103660046117f8565b600060208181529281526040808220909352908152205460ff1681565b6102a5600a5481565b6102a5610444366004611a47565b6001600160a01b031660009081526008602052604090205490565b6009546102a5565b6104b6610475366004611a47565b6001600160a01b0316600090815260026020819052604082208054600182015492820154600383015460049093015491959394909390929190839081908190565b60408051998a5260208a0198909852968801959095526060870193909352608086019190915260a085015260c084015260e0830152151561010082015261012001610262565b6102a561050a36600461189c565b60009081526003602052604090205490565b6102c661052a36600461189c565b610e86565b610255610f61565b6102a56706f05b59d3b2000081565b6105596105543660046117f8565b610f70565b60405161026293929190611a62565b610291610576366004611836565b61106d565b6102c6610589366004611a47565b61107a565b6102c6611090565b6102c66105a436600461189c565b7f000000000000000000000000000000000000000000000000000000000000000060009081526003602090815260408220805460018101825590835291200155565b6102556105f43660046117f8565b61119e565b6102a5600b5481565b6102a56106103660046117f8565b61124c565b6102c661062336600461189c565b61127d565b6102a56106363660046117f8565b61135a565b6102c661064936600461189c565b6113b9565b6102a561065c366004611a8d565b6001600160a01b03918216600090815260076020908152604080832093909416825291909152205490565b6102fc6106953660046117f8565b60009182526001602090815260408084209284529190529020546001600160a01b031690565b6102a56106c93660046117f8565b6113cd565b600c546102fc906001600160a01b031681565b6060600e80546106f090611ac0565b80601f016020809104026020016040519081016040528092919081815260200182805461071c90611ac0565b80156107695780601f1061073e57610100808354040283529160200191610769565b820191906000526020600020905b81548152906001019060200180831161074c57829003601f168201915b5050505050905090565b60056020908152600092835260408084209091529082529020805461079790611ac0565b80601f01602080910402602001604051908101604052809291908181526020018280546107c390611ac0565b80156108105780601f106107e557610100808354040283529160200191610810565b820191906000526020600020905b8154815290600101906020018083116107f357829003601f168201915b505050505081565b60006108253384846113e9565b5060015b92915050565b6040805160208082018352600080835285815260058252838120858252909152919091209061085e9082611b5e565b506000828152602081815260408083208484529091528120805460ff19166001179055600b80549161088f83611c2e565b91905055506006600083836040516020016108b4929190918252602082015260400190565b60408051601f19818403018152918152815160209283012083528282019390935291016000908120600b5481546001810183559183529290912001555050565b600061090184848461150e565b6001600160a01b03841660009081526007602090815260408083203380855292529091205461093c918691610937908690611c47565b6113e9565b5060019392505050565b60008181526006602090815260409182902080548351818402810184019094528084526060939283018282801561099c57602002820191906000526020600020905b815481526020019060010190808311610988575b50505050509050919050565b60008281526003602052604081205481908015610c3257600080806109ce600185611c47565b905060006109dc898461135a565b90508781106109f657600080965096505050505050610c3b565b610a00898361135a565b905087811015610a7d575b610a158982610c42565b8015610a215750600082115b15610a445781610a3081611c5a565b925050610a3d898361135a565b9050610a0b565b81158015610a575750610a578982610c42565b15610a6d57600080965096505050505050610c3b565b50600195509350610c3b92505050565b826002610a8a8285611c47565b610a949190611c71565b610a9f906001611c93565b610aa99190611c93565b9350610ab5898561135a565b905087811015610b81576000610ad08a610636876001611c93565b9050888110610b6e57610ae38a83610c42565b610af95760018597509750505050505050610c3b565b610b038a83610c42565b8015610b0f5750600085115b15610b325784610b1e81611c5a565b955050610b2b8a8661135a565b9150610af9565b84158015610b455750610b458a83610c42565b15610b5c5760008097509750505050505050610c3b565b60018597509750505050505050610c3b565b610b79856001611c93565b935050610a7d565b6000610b928a610636600188611c47565b905088811015610c1f57610ba68a82610c42565b610bc5576001610bb68187611c47565b97509750505050505050610c3b565b84610bcf81611c5a565b9550505b610bdd8a82610c42565b8015610be95750600085115b15610c0c5784610bf881611c5a565b955050610c058a8661135a565b9050610bd3565b84158015610b455750610b458a82610c42565b610c2a600186611c47565b925050610a7d565b60008092509250505b9250929050565b60009182526020828152604080842092845291905290205460ff1690565b7fc5d2460186f7233c927e7db2dcc703c0e500b653ca82273b7bfad8045d85a4708484604051610c91929190611ca6565b604051809103902003610ce55760405162461bcd60e51b81526020600482015260176024820152761d985b1d59481b5d5cdd081899481cdd589b5a5d1d1959604a1b60448201526064015b60405180910390fd5b600085815260036020526040902054821480610cff575081155b610d4b5760405162461bcd60e51b815260206004820181905260248201527f6e6f6e6365206d757374206d617463682074696d657374616d7020696e6465786044820152606401610cdc565b80516020820120851480610d60575060648511155b610dac5760405162461bcd60e51b815260206004820152601d60248201527f6964206d7573742062652068617368206f6620627974657320646174610000006044820152606401610cdc565b60008581526005602090815260408083204284529091529020610dd0848683611cb6565b5060008581526003602081815260408084208054600181810183559186528386204291018190558a8652908352818520818652835281852080546001600160a01b0319163390811790915585526002909252832091820155600401805491610e3783611c2e565b91905055507f48e9e2c732ba278de6ac88a3a57a5c5ba13d3d8370e709b3b98333a57876ca9585428686868633604051610e779796959493929190611d71565b60405180910390a15050505050565b3360009081526002602052604090206001810154821115610ee95760405162461bcd60e51b815260206004820152601b60248201527f696e73756666696369656e74207374616b65642062616c616e636500000000006044820152606401610cdc565b428155600281018054839190600090610f03908490611c93565b9250508190555081816001016000828254610f1e9190611c47565b909155505060408051338152602081018490527f3d8d9df4bd0172df32e557fa48e96435cd7f2cac06aaffacfaee608e6f7898ef91015b60405180910390a15050565b6060600f80546106f090611ac0565b600060606000806000610f8387876109a8565b9150915081610fad5760006040518060200160405280600081525060009450945094505050611066565b610fb7878261135a565b60008881526005602090815260408083208484529091529020805491945090610fdf90611ac0565b80601f016020809104026020016040519081016040528092919081815260200182805461100b90611ac0565b80156110585780601f1061102d57610100808354040283529160200191611058565b820191906000526020600020905b81548152906001019060200180831161103b57829003601f168201915b505050505093506001945050505b9250925092565b600061082533848461150e565b61108d81683635c9adc5dea00000611675565b50565b336000908152600260205260409020805462093a80906110b09042611c47565b10156110f35760405162461bcd60e51b8152602060048201526012602482015271372064617973206469646e2774207061737360701b6044820152606401610cdc565b60008160020154116111525760405162461bcd60e51b815260206004820152602260248201527f7265706f72746572206e6f74206c6f636b656420666f72207769746864726177604482015261185b60f21b6064820152608401610cdc565b6111613033836002015461150e565b600060028201556040513381527f4a7934670bd8304e7da22378be1368f7c4fef17c5aee81804beda8638fe428ec9060200160405180910390a150565b600082815260056020908152604080832084845290915290208054606091906111c690611ac0565b80601f01602080910402602001604051908101604052809291908181526020018280546111f290611ac0565b801561123f5780601f106112145761010080835404028352916020019161123f565b820191906000526020600020905b81548152906001019060200180831161122257829003601f168201915b5050505050905092915050565b6006602052816000526040600020818154811061126857600080fd5b90600052602060002001600091509150505481565b33600090815260026020819052604090912090810154156112f157818160020154106112c257818160020160008282546112b79190611c47565b909155506113059050565b6112dc33308360020154856112d79190611c47565b611754565b6112e557600080fd5b60006002820155611305565b6112fc333084611754565b61130557600080fd5b42815560018101805483919060009061131f908490611c93565b909155505060408051338152602081018490527fa96c2cce65119a2170d1711a6e82f18f2006448828483ba7545e5954765436479101610f55565b6000828152600360205260408120548015806113765750828111155b15611385576000915050610829565b60008481526003602052604090208054849081106113a5576113a5611dde565b906000526020600020015491505092915050565b6113c4333083611754565b61108d57600080fd5b6003602052816000526040600020818154811061126857600080fd5b6001600160a01b03831661144b5760405162461bcd60e51b8152602060048201526024808201527f45524332303a20617070726f76652066726f6d20746865207a65726f206164646044820152637265737360e01b6064820152608401610cdc565b6001600160a01b0382166114ac5760405162461bcd60e51b815260206004820152602260248201527f45524332303a20617070726f766520746f20746865207a65726f206164647265604482015261737360f01b6064820152608401610cdc565b6001600160a01b0383811660008181526007602090815260408083209487168084529482529182902085905590518481527f8c5be1e5ebec7d5bd14f71427d1e84f3dd0314c0f7b2291e5b200ac8c7c3b92591015b60405180910390a3505050565b6001600160a01b0383166115725760405162461bcd60e51b815260206004820152602560248201527f45524332303a207472616e736665722066726f6d20746865207a65726f206164604482015264647265737360d81b6064820152608401610cdc565b6001600160a01b0382166115d45760405162461bcd60e51b815260206004820152602360248201527f45524332303a207472616e7366657220746f20746865207a65726f206164647260448201526265737360e81b6064820152608401610cdc565b6001600160a01b038316600090815260086020526040812080548392906115fc908490611c47565b90915550506001600160a01b03821660009081526008602052604081208054839290611629908490611c93565b92505081905550816001600160a01b0316836001600160a01b03167fddf252ad1be2c89b69c2b068fc378daa952ba7f163c4a11628f55a4df523b3ef8360405161150191815260200190565b6001600160a01b0382166116cb5760405162461bcd60e51b815260206004820152601f60248201527f45524332303a206d696e7420746f20746865207a65726f2061646472657373006044820152606401610cdc565b80600d60008282546116dd9190611c93565b90915550506001600160a01b0382166000908152600860205260408120805483929061170a908490611c93565b90915550506040518181526001600160a01b038316906000907fddf252ad1be2c89b69c2b068fc378daa952ba7f163c4a11628f55a4df523b3ef9060200160405180910390a35050565b600061176184848461150e565b6001600160a01b038416600090815260076020908152604080832030845290915290205461093c9085903390610937908690611c47565b6000815180845260005b818110156117be576020818501810151868301820152016117a2565b506000602082860101526020601f19601f83011685010191505092915050565b6020815260006117f16020830184611798565b9392505050565b6000806040838503121561180b57600080fd5b50508035926020909101359150565b80356001600160a01b038116811461183157600080fd5b919050565b6000806040838503121561184957600080fd5b6118528361181a565b946020939093013593505050565b60008060006060848603121561187557600080fd5b61187e8461181a565b925061188c6020850161181a565b9150604084013590509250925092565b6000602082840312156118ae57600080fd5b5035919050565b6020808252825182820181905260009190848201906040850190845b818110156118ed578351835292840192918401916001016118d1565b50909695505050505050565b634e487b7160e01b600052604160045260246000fd5b600082601f83011261192057600080fd5b813567ffffffffffffffff8082111561193b5761193b6118f9565b604051601f8301601f19908116603f01168101908282118183101715611963576119636118f9565b8160405283815286602085880101111561197c57600080fd5b836020870160208301376000602085830101528094505050505092915050565b6000806000806000608086880312156119b457600080fd5b85359450602086013567ffffffffffffffff808211156119d357600080fd5b818801915088601f8301126119e757600080fd5b8135818111156119f657600080fd5b896020828501011115611a0857600080fd5b60208301965080955050604088013593506060880135915080821115611a2d57600080fd5b50611a3a8882890161190f565b9150509295509295909350565b600060208284031215611a5957600080fd5b6117f18261181a565b8315158152606060208201526000611a7d6060830185611798565b9050826040830152949350505050565b60008060408385031215611aa057600080fd5b611aa98361181a565b9150611ab76020840161181a565b90509250929050565b600181811c90821680611ad457607f821691505b602082108103611af457634e487b7160e01b600052602260045260246000fd5b50919050565b601f821115611b4457600081815260208120601f850160051c81016020861015611b215750805b601f850160051c820191505b81811015611b4057828155600101611b2d565b5050505b505050565b600019600383901b1c191660019190911b1790565b815167ffffffffffffffff811115611b7857611b786118f9565b611b8c81611b868454611ac0565b84611afa565b602080601f831160018114611bbb5760008415611ba95750858301515b611bb38582611b49565b865550611b40565b600085815260208120601f198616915b82811015611bea57888601518255948401946001909101908401611bcb565b5085821015611c085787850151600019600388901b60f8161c191681555b5050505050600190811b01905550565b634e487b7160e01b600052601160045260246000fd5b600060018201611c4057611c40611c18565b5060010190565b8181038181111561082957610829611c18565b600081611c6957611c69611c18565b506000190190565b600082611c8e57634e487b7160e01b600052601260045260246000fd5b500490565b8082018082111561082957610829611c18565b8183823760009101908152919050565b67ffffffffffffffff831115611cce57611cce6118f9565b611ce283611cdc8354611ac0565b83611afa565b6000601f841160018114611d105760008515611cfe5750838201355b611d088682611b49565b845550611d6a565b600083815260209020601f19861690835b82811015611d415786850135825560209485019460019092019101611d21565b5086821015611d5e5760001960f88860031b161c19848701351681555b505060018560011b0183555b5050505050565b87815286602082015260c060408201528460c0820152848660e0830137600060e086830101526000601f19601f870116820185606084015260e0838203016080840152611dc160e0820186611798565b91505060018060a01b03831660a083015298975050505050505050565b634e487b7160e01b600052603260045260246000fdfea264697066735822122066aa1ac65e1294928384dd0af290b4841d895556e1710b9f48358dc9bae19b5a64736f6c63430008110033",
  "linkReferences": {},
  "deployedLinkReferences": {}
}