{
  "_format": "hh-sol-artifact-1",
  "contractName": "MockAggregator",
  "sourceName": "contracts/TestContracts/MockAggregator.sol",
  "abi": [
    {
      "inputs": [],
      "name": "decimals",
      "outputs": [
        {
          "internalType": "uint8",
          "name": "",
          "type": "uint8"
        }
      ],
      "stateMutability": "view",
      "type": "function"
    },
    {
      "inputs": [],
      "name": "description",
      "outputs": [
        {
          "internalType": "string",
          "name": "",
          "type": "string"
        }
      ],
      "stateMutability": "pure",
      "type": "function"
    },
    {
      "inputs": [
        {
          "internalType": "uint80",
          "name": "",
          "type": "uint80"
        }
      ],
      "name": "getRoundData",
      "outputs": [
        {
          "internalType": "uint80",
          "name": "roundId",
          "type": "uint80"
        },
        {
          "internalType": "int256",
          "name": "answer",
          "type": "int256"
        },
        {
          "internalType": "uint256",
          "name": "startedAt",
          "type": "uint256"
        },
        {
          "internalType": "uint256",
          "name": "updatedAt",
          "type": "uint256"
        },
        {
          "internalType": "uint80",
          "name": "answeredInRound",
          "type": "uint80"
        }
      ],
      "stateMutability": "view",
      "type": "function"
    },
    {
      "inputs": [],
      "name": "latestRoundData",
      "outputs": [
        {
          "internalType": "uint80",
          "name": "roundId",
          "type": "uint80"
        },
        {
          "internalType": "int256",
          "name": "answer",
          "type": "int256"
        },
        {
          "internalType": "uint256",
          "name": "startedAt",
          "type": "uint256"
        },
        {
          "internalType": "uint256",
          "name": "updatedAt",
          "type": "uint256"
        },
        {
          "internalType": "uint80",
          "name": "answeredInRound",
          "type": "uint80"
        }
      ],
      "stateMutability": "view",
      "type": "function"
    },
    {
      "inputs": [
        {
          "internalType": "uint8",
          "name": "_decimals",
          "type": "uint8"
        }
      ],
      "name": "setDecimals",
      "outputs": [],
      "stateMutability": "nonpayable",
      "type": "function"
    },
    {
      "inputs": [],
      "name": "setDecimalsRevert",
      "outputs": [],
      "stateMutability": "nonpayable",
      "type": "function"
    },
    {
      "inputs": [],
      "name": "setLatestRevert",
      "outputs": [],
      "stateMutability": "nonpayable",
      "type": "function"
    },
    {
      "inputs": [
        {
          "internalType": "uint80",
          "name": "_latestRoundId",
          "type": "uint80"
        }
      ],
      "name": "setLatestRoundId",
      "outputs": [],
      "stateMutability": "nonpayable",
      "type": "function"
    },
    {
      "inputs": [
        {
          "internalType": "int256",
          "name": "_prevPrice",
          "type": "int256"
        }
      ],
      "name": "setPrevPrice",
      "outputs": [],
      "stateMutability": "nonpayable",
      "type": "function"
    },
    {
      "inputs": [],
      "name": "setPrevRevert",
      "outputs": [],
      "stateMutability": "nonpayable",
      "type": "function"
    },
    {
      "inputs": [
        {
          "internalType": "uint80",
          "name": "_prevRoundId",
          "type": "uint80"
        }
      ],
      "name": "setPrevRoundId",
      "outputs": [],
      "stateMutability": "nonpayable",
      "type": "function"
    },
    {
      "inputs": [
        {
          "internalType": "uint256",
          "name": "_prevUpdateTime",
          "type": "uint256"
        }
      ],
      "name": "setPrevUpdateTime",
      "outputs": [],
      "stateMutability": "nonpayable",
      "type": "function"
    },
    {
      "inputs": [
        {
          "internalType": "int256",
          "name": "_price",
          "type": "int256"
        }
      ],
      "name": "setPrice",
      "outputs": [],
      "stateMutability": "nonpayable",
      "type": "function"
    },
    {
      "inputs": [
        {
          "internalType": "uint256",
          "name": "_updateTime",
          "type": "uint256"
        }
      ],
      "name": "setUpdateTime",
      "outputs": [],
      "stateMutability": "nonpayable",
      "type": "function"
    },
    {
      "inputs": [],
      "name": "version",
      "outputs": [
        {
          "internalType": "uint256",
          "name": "",
          "type": "uint256"
        }
      ],
      "stateMutability": "pure",
      "type": "function"
    }
  ],
  "bytecode": "0x60806040526000805460ff1916600817905534801561001d57600080fd5b506105148061002d6000396000f3fe608060405234801561001057600080fd5b50600436106100d55760003560e01c80637394e789116100875780637394e789146101ac57806375354ffa146101bf5780637a1395aa146101fc5780639a6fc8f514610220578063a68e594514610267578063bf73eea614610288578063f7a308061461029b578063feaf968c146102ae57600080fd5b806313886538146100da57806329ccf0cf146100ef578063313ce5671461011057806354fd4d501461012f57806366543a6c1461013e5780637134b9901461015f5780637284e41614610192575b600080fd5b6100ed6100e8366004610424565b600255565b005b6005805460ff60b01b198116600160b01b9182900460ff1615909102179055005b6101186102b6565b60405160ff90911681526020015b60405180910390f35b60405160018152602001610126565b6005805460ff60a01b198116600160a01b9182900460ff1615909102179055005b6100ed61016d36600461043d565b6005805469ffffffffffffffffffff19166001600160501b0392909216919091179055565b60408051602081018252600081529051610126919061046d565b6100ed6101ba366004610424565b600455565b6100ed6101cd36600461043d565b600580546001600160501b03909216600160501b0269ffffffffffffffffffff60501b19909216919091179055565b6100ed61020a3660046104bb565b6000805460ff191660ff92909216919091179055565b61023361022e36600461043d565b610316565b604080516001600160501b03968716815260208101959095528401929092526060830152909116608082015260a001610126565b6005805460ff60a81b198116600160a81b9182900460ff1615909102179055005b6100ed610296366004610424565b600355565b6100ed6102a9366004610424565b600155565b61023361039f565b600554600090600160b01b900460ff161561030c5760405162461bcd60e51b8152602060048201526011602482015270191958da5b585b1cc81c995d995c9d1959607a1b60448201526064015b60405180910390fd5b5060005460ff1690565b6000806000806000600560159054906101000a900460ff16156103735760405162461bcd60e51b815260206004820152601560248201527419d95d149bdd5b9911185d18481c995d995c9d1959605a1b6044820152606401610303565b5050600554600254600354600160501b9092046001600160501b03169690955060009450909250839150565b6000806000806000600560149054906101000a900460ff16156103ff5760405162461bcd60e51b81526020600482015260186024820152771b185d195cdd149bdd5b9911185d18481c995d995c9d195960421b6044820152606401610303565b50506005546001546003546001600160501b0390921695909450600093509091508290565b60006020828403121561043657600080fd5b5035919050565b60006020828403121561044f57600080fd5b81356001600160501b038116811461046657600080fd5b9392505050565b600060208083528351808285015260005b8181101561049a5785810183015185820160400152820161047e565b506000604082860101526040601f19601f8301168501019250505092915050565b6000602082840312156104cd57600080fd5b813560ff8116811461046657600080fdfea2646970667358221220a6fc5a1fe74b51c7706f230c429ed0d0ef9a48fe4a565898610752acb4e0a02564736f6c63430008110033",
  "linkReferences": {},
  "deployedLinkReferences": {}
}