{
  "_format": "hh-sol-artifact-1",
  "contractName": "PCV",
  "sourceName": "contracts/PCV.sol",
  "abi": [
    {
      "inputs": [
        {
          "internalType": "uint256",
          "name": "_governanceTimeDelay",
          "type": "uint256"
        }
      ],
      "stateMutability": "nonpayable",
      "type": "constructor"
    },
    {
      "anonymous": false,
      "inputs": [
        {
          "indexed": false,
          "internalType": "address",
          "name": "_bammAddress",
          "type": "address"
        }
      ],
      "name": "BAMMAddressSet",
      "type": "event"
    },
    {
      "anonymous": false,
      "inputs": [
        {
          "indexed": false,
          "internalType": "uint256",
          "name": "_thusdAmount",
          "type": "uint256"
        }
      ],
      "name": "BAMMDeposit",
      "type": "event"
    },
    {
      "anonymous": false,
      "inputs": [
        {
          "indexed": false,
          "internalType": "uint256",
          "name": "_numShares",
          "type": "uint256"
        }
      ],
      "name": "BAMMWithdraw",
      "type": "event"
    },
    {
      "anonymous": false,
      "inputs": [
        {
          "indexed": false,
          "internalType": "address",
          "name": "_borrowerOperationsAddress",
          "type": "address"
        }
      ],
      "name": "BorrowerOperationsAddressSet",
      "type": "event"
    },
    {
      "anonymous": false,
      "inputs": [
        {
          "indexed": false,
          "internalType": "address",
          "name": "_collateralAddress",
          "type": "address"
        }
      ],
      "name": "CollateralAddressSet",
      "type": "event"
    },
    {
      "anonymous": false,
      "inputs": [
        {
          "indexed": false,
          "internalType": "address",
          "name": "_recipient",
          "type": "address"
        },
        {
          "indexed": false,
          "internalType": "uint256",
          "name": "_collateralAmount",
          "type": "uint256"
        }
      ],
      "name": "CollateralWithdraw",
      "type": "event"
    },
    {
      "anonymous": false,
      "inputs": [
        {
          "indexed": true,
          "internalType": "address",
          "name": "previousOwner",
          "type": "address"
        },
        {
          "indexed": true,
          "internalType": "address",
          "name": "newOwner",
          "type": "address"
        }
      ],
      "name": "OwnershipTransferred",
      "type": "event"
    },
    {
      "anonymous": false,
      "inputs": [
        {
          "indexed": false,
          "internalType": "uint256",
          "name": "_paidDebt",
          "type": "uint256"
        }
      ],
      "name": "PCVDebtPaid",
      "type": "event"
    },
    {
      "anonymous": false,
      "inputs": [
        {
          "indexed": false,
          "internalType": "address",
          "name": "_recipient",
          "type": "address"
        }
      ],
      "name": "RecipientAdded",
      "type": "event"
    },
    {
      "anonymous": false,
      "inputs": [
        {
          "indexed": false,
          "internalType": "address",
          "name": "_recipient",
          "type": "address"
        }
      ],
      "name": "RecipientRemoved",
      "type": "event"
    },
    {
      "anonymous": false,
      "inputs": [
        {
          "indexed": false,
          "internalType": "address",
          "name": "_council",
          "type": "address"
        },
        {
          "indexed": false,
          "internalType": "address",
          "name": "_treasury",
          "type": "address"
        }
      ],
      "name": "RolesSet",
      "type": "event"
    },
    {
      "anonymous": false,
      "inputs": [
        {
          "indexed": false,
          "internalType": "address",
          "name": "_thusdTokenAddress",
          "type": "address"
        }
      ],
      "name": "THUSDTokenAddressSet",
      "type": "event"
    },
    {
      "anonymous": false,
      "inputs": [
        {
          "indexed": false,
          "internalType": "address",
          "name": "_recipient",
          "type": "address"
        },
        {
          "indexed": false,
          "internalType": "uint256",
          "name": "_thusdAmount",
          "type": "uint256"
        }
      ],
      "name": "THUSDWithdraw",
      "type": "event"
    },
    {
      "inputs": [],
      "name": "BOOTSTRAP_LOAN",
      "outputs": [
        {
          "internalType": "uint256",
          "name": "",
          "type": "uint256"
        }
      ],
      "stateMutability": "view",
      "type": "function"
    },
    {
      "inputs": [],
      "name": "NAME",
      "outputs": [
        {
          "internalType": "string",
          "name": "",
          "type": "string"
        }
      ],
      "stateMutability": "view",
      "type": "function"
    },
    {
      "inputs": [
        {
          "internalType": "address",
          "name": "_recipient",
          "type": "address"
        }
      ],
      "name": "addRecipientToWhitelist",
      "outputs": [],
      "stateMutability": "nonpayable",
      "type": "function"
    },
    {
      "inputs": [
        {
          "internalType": "address[]",
          "name": "_recipients",
          "type": "address[]"
        }
      ],
      "name": "addRecipientsToWhitelist",
      "outputs": [],
      "stateMutability": "nonpayable",
      "type": "function"
    },
    {
      "inputs": [],
      "name": "bamm",
      "outputs": [
        {
          "internalType": "contract BAMM",
          "name": "",
          "type": "address"
        }
      ],
      "stateMutability": "view",
      "type": "function"
    },
    {
      "inputs": [],
      "name": "borrowerOperations",
      "outputs": [
        {
          "internalType": "contract BorrowerOperations",
          "name": "",
          "type": "address"
        }
      ],
      "stateMutability": "view",
      "type": "function"
    },
    {
      "inputs": [],
      "name": "cancelChangingRoles",
      "outputs": [],
      "stateMutability": "nonpayable",
      "type": "function"
    },
    {
      "inputs": [],
      "name": "changingRolesInitiated",
      "outputs": [
        {
          "internalType": "uint256",
          "name": "",
          "type": "uint256"
        }
      ],
      "stateMutability": "view",
      "type": "function"
    },
    {
      "inputs": [],
      "name": "collateralERC20",
      "outputs": [
        {
          "internalType": "contract IERC20",
          "name": "",
          "type": "address"
        }
      ],
      "stateMutability": "view",
      "type": "function"
    },
    {
      "inputs": [],
      "name": "council",
      "outputs": [
        {
          "internalType": "address",
          "name": "",
          "type": "address"
        }
      ],
      "stateMutability": "view",
      "type": "function"
    },
    {
      "inputs": [],
      "name": "debtToPay",
      "outputs": [
        {
          "internalType": "uint256",
          "name": "",
          "type": "uint256"
        }
      ],
      "stateMutability": "view",
      "type": "function"
    },
    {
      "inputs": [
        {
          "internalType": "uint256",
          "name": "_thusdAmount",
          "type": "uint256"
        }
      ],
      "name": "depositToBAMM",
      "outputs": [],
      "stateMutability": "nonpayable",
      "type": "function"
    },
    {
      "inputs": [],
      "name": "finalizeChangingRoles",
      "outputs": [],
      "stateMutability": "nonpayable",
      "type": "function"
    },
    {
      "inputs": [],
      "name": "governanceTimeDelay",
      "outputs": [
        {
          "internalType": "uint256",
          "name": "",
          "type": "uint256"
        }
      ],
      "stateMutability": "view",
      "type": "function"
    },
    {
      "inputs": [],
      "name": "initialize",
      "outputs": [],
      "stateMutability": "nonpayable",
      "type": "function"
    },
    {
      "inputs": [],
      "name": "isInitialized",
      "outputs": [
        {
          "internalType": "bool",
          "name": "",
          "type": "bool"
        }
      ],
      "stateMutability": "view",
      "type": "function"
    },
    {
      "inputs": [],
      "name": "isOwner",
      "outputs": [
        {
          "internalType": "bool",
          "name": "",
          "type": "bool"
        }
      ],
      "stateMutability": "view",
      "type": "function"
    },
    {
      "inputs": [],
      "name": "owner",
      "outputs": [
        {
          "internalType": "address",
          "name": "",
          "type": "address"
        }
      ],
      "stateMutability": "view",
      "type": "function"
    },
    {
      "inputs": [
        {
          "internalType": "uint256",
          "name": "_thusdToBurn",
          "type": "uint256"
        }
      ],
      "name": "payDebt",
      "outputs": [],
      "stateMutability": "nonpayable",
      "type": "function"
    },
    {
      "inputs": [],
      "name": "pendingCouncilAddress",
      "outputs": [
        {
          "internalType": "address",
          "name": "",
          "type": "address"
        }
      ],
      "stateMutability": "view",
      "type": "function"
    },
    {
      "inputs": [],
      "name": "pendingTreasuryAddress",
      "outputs": [
        {
          "internalType": "address",
          "name": "",
          "type": "address"
        }
      ],
      "stateMutability": "view",
      "type": "function"
    },
    {
      "inputs": [
        {
          "internalType": "address",
          "name": "",
          "type": "address"
        }
      ],
      "name": "recipientsWhitelist",
      "outputs": [
        {
          "internalType": "bool",
          "name": "",
          "type": "bool"
        }
      ],
      "stateMutability": "view",
      "type": "function"
    },
    {
      "inputs": [
        {
          "internalType": "address",
          "name": "_recipient",
          "type": "address"
        }
      ],
      "name": "removeRecipientFromWhitelist",
      "outputs": [],
      "stateMutability": "nonpayable",
      "type": "function"
    },
    {
      "inputs": [
        {
          "internalType": "address[]",
          "name": "_recipients",
          "type": "address[]"
        }
      ],
      "name": "removeRecipientsFromWhitelist",
      "outputs": [],
      "stateMutability": "nonpayable",
      "type": "function"
    },
    {
      "inputs": [
        {
          "internalType": "address",
          "name": "_thusdTokenAddress",
          "type": "address"
        },
        {
          "internalType": "address",
          "name": "_borrowerOperations",
          "type": "address"
        },
        {
          "internalType": "address payable",
          "name": "_bammAddress",
          "type": "address"
        },
        {
          "internalType": "address",
          "name": "_collateralERC20",
          "type": "address"
        }
      ],
      "name": "setAddresses",
      "outputs": [],
      "stateMutability": "nonpayable",
      "type": "function"
    },
    {
      "inputs": [
        {
          "internalType": "address",
          "name": "_council",
          "type": "address"
        },
        {
          "internalType": "address",
          "name": "_treasury",
          "type": "address"
        }
      ],
      "name": "startChangingRoles",
      "outputs": [],
      "stateMutability": "nonpayable",
      "type": "function"
    },
    {
      "inputs": [],
      "name": "thusdToken",
      "outputs": [
        {
          "internalType": "contract ITHUSDToken",
          "name": "",
          "type": "address"
        }
      ],
      "stateMutability": "view",
      "type": "function"
    },
    {
      "inputs": [
        {
          "internalType": "address",
          "name": "newOwner",
          "type": "address"
        }
      ],
      "name": "transferOwnership",
      "outputs": [],
      "stateMutability": "nonpayable",
      "type": "function"
    },
    {
      "inputs": [],
      "name": "treasury",
      "outputs": [
        {
          "internalType": "address",
          "name": "",
          "type": "address"
        }
      ],
      "stateMutability": "view",
      "type": "function"
    },
    {
      "inputs": [
        {
          "internalType": "address",
          "name": "_recipient",
          "type": "address"
        },
        {
          "internalType": "uint256",
          "name": "_collateralAmount",
          "type": "uint256"
        }
      ],
      "name": "withdrawCollateral",
      "outputs": [],
      "stateMutability": "nonpayable",
      "type": "function"
    },
    {
      "inputs": [
        {
          "internalType": "uint256",
          "name": "_numShares",
          "type": "uint256"
        }
      ],
      "name": "withdrawFromBAMM",
      "outputs": [],
      "stateMutability": "nonpayable",
      "type": "function"
    },
    {
      "inputs": [
        {
          "internalType": "address",
          "name": "_recipient",
          "type": "address"
        },
        {
          "internalType": "uint256",
          "name": "_thusdAmount",
          "type": "uint256"
        }
      ],
      "name": "withdrawTHUSD",
      "outputs": [],
      "stateMutability": "nonpayable",
      "type": "function"
    },
    {
      "stateMutability": "payable",
      "type": "receive"
    }
  ],
  "bytecode": "0x60a060405234801561001057600080fd5b5060405161209c38038061209c83398101604081905261002f91610076565b600080546001600160a01b0319163390811782556040519091907f8be0079c531659141344cd1fd0a4f28419497f9722a3daafe3b4186f6b6457e0908290a360805261008f565b60006020828403121561008857600080fd5b5051919050565b608051611fe46100b860003960008181610497015281816112f2015261144b0152611fe46000f3fe6080604052600436106101a75760003560e01c80637fbd0c22116100e2578063c544406111610085578063c5444061146104cf578063ceba3caf146104ff578063d549e6181461051f578063e2c6d41c14610534578063e41d59b014610559578063e46a3a4f14610579578063e7c88cda14610599578063f2fde38b146105b957600080fd5b80637fbd0c22146103ca5780638129fc1c146103ea5780638a74de29146103ff5780638da5cb5b1461041f5780638f32d59b14610434578063a3f4df7e14610449578063afe5bf9314610485578063b3ae0af6146104b957600080fd5b8063392e53cd1161014a578063392e53cd146102c05780633a150ed2146102ea5780634a945f8d1461030a57806361d027b31461032a57806369cee7581461034a578063724d37451461036a57806377553ad41461038a57806377e16f1e146103aa57600080fd5b80630aa7c21e146101b35780631456d23a146101d5578063160fd6fc1461020b57806316fc32971461022b5780631bf1758b1461024b5780631ecc497514610275578063350c35e91461028a578063369931fa146102aa57600080fd5b366101ae57005b600080fd5b3480156101bf57600080fd5b506101d36101ce366004611b78565b6105d9565b005b3480156101e157600080fd5b506004546101f5906001600160a01b031681565b6040516102029190611b9c565b60405180910390f35b34801561021757600080fd5b506101d3610226366004611bb0565b6106e3565b34801561023757600080fd5b506101d3610246366004611bb0565b61088f565b34801561025757600080fd5b50610267678ac7230489e8000081565b604051908152602001610202565b34801561028157600080fd5b506101d3610a9a565b34801561029657600080fd5b506101d36102a5366004611bc9565b610b03565b3480156102b657600080fd5b5061026760055481565b3480156102cc57600080fd5b506006546102da9060ff1681565b6040519015158152602001610202565b3480156102f657600080fd5b506009546101f5906001600160a01b031681565b34801561031657600080fd5b506101d3610325366004611bf5565b610c27565b34801561033657600080fd5b506007546101f5906001600160a01b031681565b34801561035657600080fd5b506101d3610365366004611b78565b610e00565b34801561037657600080fd5b506003546101f5906001600160a01b031681565b34801561039657600080fd5b506002546101f5906001600160a01b031681565b3480156103b657600080fd5b506001546101f5906001600160a01b031681565b3480156103d657600080fd5b506101d36103e5366004611bb0565b610ee7565b3480156103f657600080fd5b506101d36110e5565b34801561040b57600080fd5b506101d361041a366004611c51565b611220565b34801561042b57600080fd5b506101f5611356565b34801561044057600080fd5b506102da611365565b34801561045557600080fd5b50610478604051806040016040528060038152602001622821ab60e91b81525081565b6040516102029190611c8a565b34801561049157600080fd5b506102677f000000000000000000000000000000000000000000000000000000000000000081565b3480156104c557600080fd5b50610267600b5481565b3480156104db57600080fd5b506102da6104ea366004611b78565b60086020526000908152604090205460ff1681565b34801561050b57600080fd5b506101d361051a366004611cd8565b611376565b34801561052b57600080fd5b506101d3611403565b34801561054057600080fd5b506006546101f59061010090046001600160a01b031681565b34801561056557600080fd5b506101d3610574366004611bc9565b61157b565b34801561058557600080fd5b50600a546101f5906001600160a01b031681565b3480156105a557600080fd5b506101d36105b4366004611cd8565b6117c8565b3480156105c557600080fd5b506101d36105d4366004611b78565b611850565b6105e1611365565b6106065760405162461bcd60e51b81526004016105fd90611d4d565b60405180910390fd5b6001600160a01b03811660009081526008602052604090205460ff16156106855760405162461bcd60e51b815260206004820152602d60248201527f5043563a20526563697069656e742068617320616c726561647920616464656460448201526c081d1bc81dda1a5d195b1a5cdd609a1b60648201526084016105fd565b6001600160a01b03811660009081526008602052604090819020805460ff19166001179055517f4205b1cf2b33c8147cc02b8fb0c9d3ff098218a686b0dd94b1e35d3c3968ad8c906106d8908390611b9c565b60405180910390a150565b6106eb611356565b6001600160a01b0316336001600160a01b03161480610719575060065461010090046001600160a01b031633145b8061072e57506007546001600160a01b031633145b61074a5760405162461bcd60e51b81526004016105fd90611d82565b600480546040516370a0823160e01b81526001600160a01b03909116916370a082319161077991309101611b9c565b602060405180830381865afa158015610796573d6000803e3d6000fd5b505050506040513d601f19601f820116820180604052508101906107ba9190611dd2565b8111156108025760405162461bcd60e51b81526020600482015260166024820152755043563a206e6f7420656e6f7567682073686172657360501b60448201526064016105fd565b60048054604051632e1a7d4d60e01b81529182018390526001600160a01b031690632e1a7d4d90602401600060405180830381600087803b15801561084657600080fd5b505af115801561085a573d6000803e3d6000fd5b505050507faec6616cbb6996db3b816b6e115fe6bc308870adbb7f1577544dff56796e6d08816040516106d891815260200190565b610897611356565b6001600160a01b0316336001600160a01b031614806108c5575060065461010090046001600160a01b031633145b806108da57506007546001600160a01b031633145b6108f65760405162461bcd60e51b81526004016105fd90611d82565b6000600554116109485760405162461bcd60e51b815260206004820152601a60248201527f5043563a20646562742068617320616c7265616479207061696400000000000060448201526064016105fd565b6001546040516370a0823160e01b81526001600160a01b03909116906370a0823190610978903090600401611b9c565b602060405180830381865afa158015610995573d6000803e3d6000fd5b505050506040513d601f19601f820116820180604052508101906109b99190611dd2565b8111156109d85760405162461bcd60e51b81526004016105fd90611deb565b60006109e6826005546118e5565b905080600560008282546109fa9190611e31565b9091555050600254604051632ba7511760e21b8152600481018390526001600160a01b039091169063ae9d445c90602401600060405180830381600087803b158015610a4557600080fd5b505af1158015610a59573d6000803e3d6000fd5b505050507f3707046ba5d439e45ec51fb4596b88edce7802ede659f36e89931cd34c1cc05681604051610a8e91815260200190565b60405180910390a15050565b610aa2611365565b610abe5760405162461bcd60e51b81526004016105fd90611d4d565b600b54600003610ae05760405162461bcd60e51b81526004016105fd90611e44565b6000600b55600980546001600160a01b0319908116909155600a80549091169055565b60065460ff168015610b155750600554155b610b315760405162461bcd60e51b81526004016105fd90611e77565b610b39611356565b6001600160a01b0316336001600160a01b03161480610b67575060065461010090046001600160a01b031633145b80610b7c57506007546001600160a01b031633145b610b985760405162461bcd60e51b81526004016105fd90611d82565b6001600160a01b038216600090815260086020526040902054829060ff16610bd25760405162461bcd60e51b81526004016105fd90611ea7565b600354610be9906001600160a01b031684846118ff565b7f92682d28e4c16f4a2ddb833ecdd2bab2f2da69e2f325cda58d421e7d634b8e278383604051610c1a929190611eea565b60405180910390a1505050565b610c2f611365565b610c4b5760405162461bcd60e51b81526004016105fd90611d4d565b6001546001600160a01b031615610ca05760405162461bcd60e51b81526020600482015260196024820152781410d58e8818dbdb9d1858dd1cc8185b1c9958591e481cd95d603a1b60448201526064016105fd565b610ca984611a6a565b610cb283611a6a565b610cbb82611a6a565b6001600160a01b03811615610cd357610cd381611a6a565b600180546001600160a01b038087166001600160a01b031992831617909255600380548484169083161790556002805486841690831617905560048054928516929091169190911790556040517f1be693335a285d5e7f75132dacd69444d073df37a3ed7ce5dd7ac0ff9e63bc5b90610d4d908690611b9c565b60405180910390a17f5962f8af633c4df1ab230096f773a514ee5adf7785c621ecdcdb764cb7f6e39183604051610d849190611b9c565b60405180910390a17f355910d9025fedfb0c92482ab13962c2817c933700f665b15343c394533e4fc881604051610dbb9190611b9c565b60405180910390a17f1d533561cde5cc0510cb4e87ceb078b35ac20e4488d1bb750c6bdadfd16e7fb082604051610df29190611b9c565b60405180910390a150505050565b610e08611365565b610e245760405162461bcd60e51b81526004016105fd90611d4d565b6001600160a01b03811660009081526008602052604090205460ff16610e975760405162461bcd60e51b815260206004820152602260248201527f5043563a20526563697069656e74206973206e6f7420696e2077686974656c696044820152611cdd60f21b60648201526084016105fd565b6001600160a01b03811660009081526008602052604090819020805460ff19169055517f8176fc5412eb5076fee7f1a264915b808c24d495c2698c189030e5200e707d25906106d8908390611b9c565b610eef611356565b6001600160a01b0316336001600160a01b03161480610f1d575060065461010090046001600160a01b031633145b80610f3257506007546001600160a01b031633145b610f4e5760405162461bcd60e51b81526004016105fd90611d82565b6001546040516370a0823160e01b81526001600160a01b03909116906370a0823190610f7e903090600401611b9c565b602060405180830381865afa158015610f9b573d6000803e3d6000fd5b505050506040513d601f19601f82011682018060405250810190610fbf9190611dd2565b811115610fde5760405162461bcd60e51b81526004016105fd90611deb565b6001546004805460405163095ea7b360e01b81526001600160a01b039384169363095ea7b3936110149390911691869101611eea565b6020604051808303816000875af1158015611033573d6000803e3d6000fd5b505050506040513d601f19601f820116820180604052508101906110579190611f03565b506004805460405163b6b55f2560e01b81529182018390526001600160a01b03169063b6b55f2590602401600060405180830381600087803b15801561109c57600080fd5b505af11580156110b0573d6000803e3d6000fd5b505050507fc1fb7b8ca5b1731a72782232f7fb01b950c2f697bb06150a064d3cff31858626816040516106d891815260200190565b6110ed611356565b6001600160a01b0316336001600160a01b0316148061111b575060065461010090046001600160a01b031633145b8061113057506007546001600160a01b031633145b61114c5760405162461bcd60e51b81526004016105fd90611d82565b60065460ff161561119a5760405162461bcd60e51b81526020600482015260186024820152771410d58e88185b1c9958591e481a5b9a5d1a585b1a5e995960421b60448201526064016105fd565b678ac7230489e80000600581905560025460405163b064b0b760e01b815260048101929092526001600160a01b03169063b064b0b790602401600060405180830381600087803b1580156111ed57600080fd5b505af1158015611201573d6000803e3d6000fd5b50506006805460ff19166001179055505060055461121e90610ee7565b565b611228611365565b6112445760405162461bcd60e51b81526004016105fd90611d4d565b6006546001600160a01b038381166101009092041614158061127457506007546001600160a01b03828116911614155b6112c05760405162461bcd60e51b815260206004820152601c60248201527f5043563a20746865736520726f6c657320616c7265616479207365740000000060448201526064016105fd565b42600b5560065461010090046001600160a01b03161580156112eb57506007546001600160a01b0316155b15611328577f0000000000000000000000000000000000000000000000000000000000000000600b60008282546113229190611e31565b90915550505b600980546001600160a01b039384166001600160a01b031991821617909155600a8054929093169116179055565b6000546001600160a01b031690565b6000546001600160a01b0316331490565b61137e611365565b61139a5760405162461bcd60e51b81526004016105fd90611d4d565b806113b75760405162461bcd60e51b81526004016105fd90611f25565b60005b818110156113fe576113ec8383838181106113d7576113d7611f6c565b90506020020160208101906103659190611b78565b806113f681611f82565b9150506113ba565b505050565b61140b611365565b6114275760405162461bcd60e51b81526004016105fd90611d4d565b6000600b54116114495760405162461bcd60e51b81526004016105fd90611e44565b7f0000000000000000000000000000000000000000000000000000000000000000600b546114779190611f9b565b4210156114d45760405162461bcd60e51b815260206004820152602560248201527f5043563a20476f7665726e616e63652064656c617920686173206e6f7420656c604482015264185c1cd95960da1b60648201526084016105fd565b60095460068054610100600160a81b0319166101006001600160a01b0393841681029190911791829055600a54600780549185166001600160a01b0319909216821790556040805192909304909316815260208101929092527f59c75b5339bba5e93a172203f9379bc69e8a051519504a7e71c467e818a41ced910160405180910390a16000600b55600980546001600160a01b0319908116909155600a80549091169055565b60065460ff16801561158d5750600554155b6115a95760405162461bcd60e51b81526004016105fd90611e77565b6115b1611356565b6001600160a01b0316336001600160a01b031614806115df575060065461010090046001600160a01b031633145b806115f457506007546001600160a01b031633145b6116105760405162461bcd60e51b81526004016105fd90611d82565b6001600160a01b038216600090815260086020526040902054829060ff1661164a5760405162461bcd60e51b81526004016105fd90611ea7565b6001546040516370a0823160e01b81526001600160a01b03909116906370a082319061167a903090600401611b9c565b602060405180830381865afa158015611697573d6000803e3d6000fd5b505050506040513d601f19601f820116820180604052508101906116bb9190611dd2565b8211156116da5760405162461bcd60e51b81526004016105fd90611deb565b60015460405163a9059cbb60e01b81526001600160a01b039091169063a9059cbb9061170c9086908690600401611eea565b6020604051808303816000875af115801561172b573d6000803e3d6000fd5b505050506040513d601f19601f8201168201806040525081019061174f9190611f03565b6117975760405162461bcd60e51b81526020600482015260196024820152781410d58e881cd95b991a5b99c81d1a1554d10819985a5b1959603a1b60448201526064016105fd565b7f0702b05e466c8c7a36d90c0dbc6dcf1cfb3755514c6fa49a84f2f6f9b7c53e8f8383604051610c1a929190611eea565b6117d0611365565b6117ec5760405162461bcd60e51b81526004016105fd90611d4d565b806118095760405162461bcd60e51b81526004016105fd90611f25565b60005b818110156113fe5761183e83838381811061182957611829611f6c565b90506020020160208101906101ce9190611b78565b8061184881611f82565b91505061180c565b611858611365565b6118745760405162461bcd60e51b81526004016105fd90611d4d565b6001600160a01b0381166118d95760405162461bcd60e51b815260206004820152602660248201527f4f776e61626c653a206e6577206f776e657220697320746865207a65726f206160448201526564647265737360d01b60648201526084016105fd565b6118e281611b13565b50565b60008183106118f457816118f6565b825b90505b92915050565b6001600160a01b0383166119ab576000826001600160a01b03168260405160006040518083038185875af1925050503d806000811461195a576040519150601f19603f3d011682016040523d82523d6000602084013e61195f565b606091505b50509050806119a55760405162461bcd60e51b815260206004820152601260248201527114d95b991a5b99c81155120819985a5b195960721b60448201526064016105fd565b50505050565b60405163a9059cbb60e01b81526000906001600160a01b0385169063a9059cbb906119dc9086908690600401611eea565b6020604051808303816000875af11580156119fb573d6000803e3d6000fd5b505050506040513d601f19601f82011682018060405250810190611a1f9190611f03565b9050806119a55760405162461bcd60e51b815260206004820152601960248201527814d95b991a5b99c818dbdb1b185d195c985b0819985a5b1959603a1b60448201526064016105fd565b6001600160a01b038116611ac05760405162461bcd60e51b815260206004820152601e60248201527f4163636f756e742063616e6e6f74206265207a65726f2061646472657373000060448201526064016105fd565b803b80611b0f5760405162461bcd60e51b815260206004820181905260248201527f4163636f756e7420636f64652073697a652063616e6e6f74206265207a65726f60448201526064016105fd565b5050565b600080546001600160a01b038381166001600160a01b0319831681178455604051919092169283917f8be0079c531659141344cd1fd0a4f28419497f9722a3daafe3b4186f6b6457e09190a35050565b6001600160a01b03811681146118e257600080fd5b600060208284031215611b8a57600080fd5b8135611b9581611b63565b9392505050565b6001600160a01b0391909116815260200190565b600060208284031215611bc257600080fd5b5035919050565b60008060408385031215611bdc57600080fd5b8235611be781611b63565b946020939093013593505050565b60008060008060808587031215611c0b57600080fd5b8435611c1681611b63565b93506020850135611c2681611b63565b92506040850135611c3681611b63565b91506060850135611c4681611b63565b939692955090935050565b60008060408385031215611c6457600080fd5b8235611c6f81611b63565b91506020830135611c7f81611b63565b809150509250929050565b600060208083528351808285015260005b81811015611cb757858101830151858201604001528201611c9b565b506000604082860101526040601f19601f8301168501019250505092915050565b60008060208385031215611ceb57600080fd5b823567ffffffffffffffff80821115611d0357600080fd5b818501915085601f830112611d1757600080fd5b813581811115611d2657600080fd5b8660208260051b8501011115611d3b57600080fd5b60209290920196919550909350505050565b6020808252818101527f4f776e61626c653a2063616c6c6572206973206e6f7420746865206f776e6572604082015260600190565b60208082526030908201527f5043563a2063616c6c6572206d757374206265206f776e6572206f7220636f7560408201526f6e63696c206f7220747265617375727960801b606082015260800190565b600060208284031215611de457600080fd5b5051919050565b6020808252601690820152755043563a206e6f7420656e6f75676820746f6b656e7360501b604082015260600190565b634e487b7160e01b600052601160045260246000fd5b818103818111156118f9576118f9611e1b565b6020808252601990820152781410d58e8810da185b99d9481b9bdd081a5b9a5d1a585d1959603a1b604082015260600190565b6020808252601690820152751410d58e881919589d081b5d5cdd081899481c185a5960521b604082015260600190565b60208082526023908201527f5043563a20726563697069656e74206d75737420626520696e2077686974656c6040820152621a5cdd60ea1b606082015260800190565b6001600160a01b03929092168252602082015260400190565b600060208284031215611f1557600080fd5b81518015158114611b9557600080fd5b60208082526027908201527f5043563a20526563697069656e7473206172726179206d757374206e6f7420626040820152666520656d70747960c81b606082015260800190565b634e487b7160e01b600052603260045260246000fd5b600060018201611f9457611f94611e1b565b5060010190565b808201808211156118f9576118f9611e1b56fea2646970667358221220dee6706a668b112222d7a29e397c15deac6b6afdc11ff32c184f48508abe0e8364736f6c63430008110033",
  "linkReferences": {},
  "deployedLinkReferences": {}
}