{
  "_format": "hh-sol-artifact-1",
  "contractName": "PriceFeedTestnet",
  "sourceName": "contracts/TestContracts/PriceFeedTestnet.sol",
  "abi": [
    {
      "anonymous": false,
      "inputs": [
        {
          "indexed": false,
          "internalType": "uint256",
          "name": "_lastGoodPrice",
          "type": "uint256"
        }
      ],
      "name": "LastGoodPriceUpdated",
      "type": "event"
    },
    {
      "anonymous": false,
      "inputs": [
        {
          "indexed": true,
          "internalType": "address",
          "name": "previousOwner",
          "type": "address"
        },
        {
          "indexed": true,
          "internalType": "address",
          "name": "newOwner",
          "type": "address"
        }
      ],
      "name": "OwnershipTransferred",
      "type": "event"
    },
    {
      "inputs": [],
      "name": "fetchPrice",
      "outputs": [
        {
          "internalType": "uint256",
          "name": "",
          "type": "uint256"
        }
      ],
      "stateMutability": "nonpayable",
      "type": "function"
    },
    {
      "inputs": [],
      "name": "getPrice",
      "outputs": [
        {
          "internalType": "uint256",
          "name": "",
          "type": "uint256"
        }
      ],
      "stateMutability": "view",
      "type": "function"
    },
    {
      "inputs": [],
      "name": "isOwner",
      "outputs": [
        {
          "internalType": "bool",
          "name": "",
          "type": "bool"
        }
      ],
      "stateMutability": "view",
      "type": "function"
    },
    {
      "inputs": [],
      "name": "owner",
      "outputs": [
        {
          "internalType": "address",
          "name": "",
          "type": "address"
        }
      ],
      "stateMutability": "view",
      "type": "function"
    },
    {
      "inputs": [
        {
          "internalType": "uint256",
          "name": "price",
          "type": "uint256"
        }
      ],
      "name": "setPrice",
      "outputs": [
        {
          "internalType": "bool",
          "name": "",
          "type": "bool"
        }
      ],
      "stateMutability": "nonpayable",
      "type": "function"
    },
    {
      "inputs": [
        {
          "internalType": "address",
          "name": "newOwner",
          "type": "address"
        }
      ],
      "name": "transferOwnership",
      "outputs": [],
      "stateMutability": "nonpayable",
      "type": "function"
    }
  ],
  "bytecode": "0x6080604052680ad78ebc5ac620000060015534801561001d57600080fd5b50600080546001600160a01b0319163390811782556040519091907f8be0079c531659141344cd1fd0a4f28419497f9722a3daafe3b4186f6b6457e0908290a361030c8061006c6000396000f3fe608060405234801561001057600080fd5b50600436106100625760003560e01c80630fdb11cf146100675780638da5cb5b146100825780638f32d59b1461009d57806391b7f5ed146100bc57806398d5fdca146100cf578063f2fde38b146100d7575b600080fd5b61006f6100ec565b6040519081526020015b60405180910390f35b6000546040516001600160a01b039091168152602001610079565b6000546001600160a01b031633145b6040519015158152602001610079565b6100ac6100ca366004610258565b610130565b60015461006f565b6100ea6100e5366004610271565b61016d565b005b60007f4d29de21de555af78a62fc82dd4bc05e9ae5b0660a37f04729527e0f22780cd360015460405161012191815260200190565b60405180910390a15060015490565b600080546001600160a01b031633146101645760405162461bcd60e51b815260040161015b906102a1565b60405180910390fd5b50600190815590565b6000546001600160a01b031633146101975760405162461bcd60e51b815260040161015b906102a1565b6001600160a01b0381166101fc5760405162461bcd60e51b815260206004820152602660248201527f4f776e61626c653a206e6577206f776e657220697320746865207a65726f206160448201526564647265737360d01b606482015260840161015b565b61020581610208565b50565b600080546001600160a01b038381166001600160a01b0319831681178455604051919092169283917f8be0079c531659141344cd1fd0a4f28419497f9722a3daafe3b4186f6b6457e09190a35050565b60006020828403121561026a57600080fd5b5035919050565b60006020828403121561028357600080fd5b81356001600160a01b038116811461029a57600080fd5b9392505050565b6020808252818101527f4f776e61626c653a2063616c6c6572206973206e6f7420746865206f776e657260408201526060019056fea2646970667358221220072b4f68146a4df8098507bea9b90ba9e0b477edb3d0c9017074f7f4fc39878764736f6c63430008110033",
  "linkReferences": {},
  "deployedLinkReferences": {}
}