{
  "_format": "hh-sol-artifact-1",
  "contractName": "PriceFeed",
  "sourceName": "contracts/PriceFeed.sol",
  "abi": [
    {
      "anonymous": false,
      "inputs": [
        {
          "indexed": false,
          "internalType": "uint256",
          "name": "_lastGoodPrice",
          "type": "uint256"
        }
      ],
      "name": "LastGoodPriceUpdated",
      "type": "event"
    },
    {
      "anonymous": false,
      "inputs": [
        {
          "indexed": true,
          "internalType": "address",
          "name": "previousOwner",
          "type": "address"
        },
        {
          "indexed": true,
          "internalType": "address",
          "name": "newOwner",
          "type": "address"
        }
      ],
      "name": "OwnershipTransferred",
      "type": "event"
    },
    {
      "anonymous": false,
      "inputs": [
        {
          "indexed": false,
          "internalType": "enum PriceFeed.Status",
          "name": "newStatus",
          "type": "uint8"
        }
      ],
      "name": "PriceFeedStatusChanged",
      "type": "event"
    },
    {
      "inputs": [],
      "name": "DECIMAL_PRECISION",
      "outputs": [
        {
          "internalType": "uint256",
          "name": "",
          "type": "uint256"
        }
      ],
      "stateMutability": "view",
      "type": "function"
    },
    {
      "inputs": [],
      "name": "MAX_PRICE_DEVIATION_FROM_PREVIOUS_ROUND",
      "outputs": [
        {
          "internalType": "uint256",
          "name": "",
          "type": "uint256"
        }
      ],
      "stateMutability": "view",
      "type": "function"
    },
    {
      "inputs": [],
      "name": "MAX_PRICE_DIFFERENCE_BETWEEN_ORACLES",
      "outputs": [
        {
          "internalType": "uint256",
          "name": "",
          "type": "uint256"
        }
      ],
      "stateMutability": "view",
      "type": "function"
    },
    {
      "inputs": [],
      "name": "NAME",
      "outputs": [
        {
          "internalType": "string",
          "name": "",
          "type": "string"
        }
      ],
      "stateMutability": "view",
      "type": "function"
    },
    {
      "inputs": [],
      "name": "TARGET_DIGITS",
      "outputs": [
        {
          "internalType": "uint256",
          "name": "",
          "type": "uint256"
        }
      ],
      "stateMutability": "view",
      "type": "function"
    },
    {
      "inputs": [],
      "name": "TELLOR_DIGITS",
      "outputs": [
        {
          "internalType": "uint256",
          "name": "",
          "type": "uint256"
        }
      ],
      "stateMutability": "view",
      "type": "function"
    },
    {
      "inputs": [],
      "name": "TIMEOUT",
      "outputs": [
        {
          "internalType": "uint256",
          "name": "",
          "type": "uint256"
        }
      ],
      "stateMutability": "view",
      "type": "function"
    },
    {
      "inputs": [],
      "name": "fetchPrice",
      "outputs": [
        {
          "internalType": "uint256",
          "name": "",
          "type": "uint256"
        }
      ],
      "stateMutability": "nonpayable",
      "type": "function"
    },
    {
      "inputs": [],
      "name": "isOwner",
      "outputs": [
        {
          "internalType": "bool",
          "name": "",
          "type": "bool"
        }
      ],
      "stateMutability": "view",
      "type": "function"
    },
    {
      "inputs": [],
      "name": "lastGoodPrice",
      "outputs": [
        {
          "internalType": "uint256",
          "name": "",
          "type": "uint256"
        }
      ],
      "stateMutability": "view",
      "type": "function"
    },
    {
      "inputs": [],
      "name": "owner",
      "outputs": [
        {
          "internalType": "address",
          "name": "",
          "type": "address"
        }
      ],
      "stateMutability": "view",
      "type": "function"
    },
    {
      "inputs": [],
      "name": "priceAggregator",
      "outputs": [
        {
          "internalType": "contract AggregatorV3Interface",
          "name": "",
          "type": "address"
        }
      ],
      "stateMutability": "view",
      "type": "function"
    },
    {
      "inputs": [
        {
          "internalType": "address",
          "name": "_priceAggregatorAddress",
          "type": "address"
        },
        {
          "internalType": "address",
          "name": "_tellorCallerAddress",
          "type": "address"
        }
      ],
      "name": "setAddresses",
      "outputs": [],
      "stateMutability": "nonpayable",
      "type": "function"
    },
    {
      "inputs": [],
      "name": "status",
      "outputs": [
        {
          "internalType": "enum PriceFeed.Status",
          "name": "",
          "type": "uint8"
        }
      ],
      "stateMutability": "view",
      "type": "function"
    },
    {
      "inputs": [],
      "name": "tellorCaller",
      "outputs": [
        {
          "internalType": "contract ITellorCaller",
          "name": "",
          "type": "address"
        }
      ],
      "stateMutability": "view",
      "type": "function"
    },
    {
      "inputs": [
        {
          "internalType": "address",
          "name": "newOwner",
          "type": "address"
        }
      ],
      "name": "transferOwnership",
      "outputs": [],
      "stateMutability": "nonpayable",
      "type": "function"
    }
  ],
  "bytecode": "0x608060405234801561001057600080fd5b50600080546001600160a01b0319163390811782556040519091907f8be0079c531659141344cd1fd0a4f28419497f9722a3daafe3b4186f6b6457e0908290a36112b98061005f6000396000f3fe608060405234801561001057600080fd5b50600436106100e05760003560e01c80638da5cb5b116100875780638da5cb5b146101865780638f32d59b1461019757806390107afe146101b5578063a20baee6146101ca578063a3f4df7e146101d9578063ebf8e6c61461020e578063f2fde38b14610216578063f56f48f21461022957600080fd5b80630490be83146100e55780630fdb11cf146101015780631be5c92f14610109578063200d2ed2146101115780633078fff51461012b57806345079cb41461015657806358a6aa88146101645780637c61e3bf14610173575b600080fd5b6100ee60055481565b6040519081526020015b60405180910390f35b6100ee610232565b6100ee601281565b60065461011e9060ff1681565b6040516100f89190610f2f565b60015461013e906001600160a01b031681565b6040516001600160a01b0390911681526020016100f8565b6100ee66b1a2bc2ec5000081565b6100ee6706f05b59d3b2000081565b60025461013e906001600160a01b031681565b6000546001600160a01b031661013e565b6000546001600160a01b0316331460405190151581526020016100f8565b6101c86101c3366004610f73565b61056f565b005b6100ee670de0b6b3a764000081565b61020160405180604001604052806009815260200168141c9a58d95199595960ba1b81525081565b6040516100f89190610fa6565b6100ee600681565b6101c8610224366004610ff4565b6106aa565b6100ee61384081565b60008061023d610745565b9050600061025382600001518360800151610864565b9050600061025f61092e565b9050600060065460ff16600481111561027a5761027a610f19565b036103a55761028983836109e1565b156102e45761029781610a02565b156102b1576102a66002610a52565b600554935050505090565b6102ba81610ab0565b156102c9576102a66001610a52565b6102d36001610a52565b6102dc81610acc565b935050505090565b6102ed83610ab0565b1561032d576102fb81610a02565b1561030a576102a66004610a52565b6103146003610a52565b61031d81610ab0565b156102d357600554935050505090565b6103378383610ae7565b156103845761034581610a02565b15610354576102a66002610a52565b61035d81610ab0565b1561036c576102a66001610a52565b6103768382610b76565b156102c9576102dc83610bfd565b61038d81610a02565b1561039c5761039c6004610a52565b6102dc83610bfd565b600160065460ff1660048111156103be576103be610f19565b036103f5576103ce838383610c15565b156103dd5761039c6000610a52565b6103e681610a02565b15610314576102a66002610a52565b600260065460ff16600481111561040e5761040e610f19565b0361042d5761041e838383610c15565b156102a65761039c6000610a52565b600360065460ff16600481111561044657610446610f19565b036104ec5761045583836109e1565b1561047c5761046381610a02565b15610472576102a66002610a52565b6103146001610a52565b61048583610ab0565b156104a25761049381610a02565b15610314576102a66004610a52565b6104ab81610a02565b156104ba5761039c6004610a52565b6104c381610ab0565b156104d357600554935050505090565b6104dd8382610b76565b156102c95761039c6000610a52565b600460065460ff16600481111561050557610505610f19565b036102a65761051483836109e1565b15610523576102a66002610a52565b61052c83610ab0565b1561053c57600554935050505090565b610547838383610c15565b156105565761039c6000610a52565b6105608383610ae7565b1561039c576102a66002610a52565b6000546001600160a01b031633146105a25760405162461bcd60e51b81526004016105999061100f565b60405180910390fd5b6105ab82610c6d565b6105b481610c6d565b600180546001600160a01b038481166001600160a01b03199283161790925560028054928416929091169190911790556006805460ff1916905560006105f8610745565b9050600061060e82600001518360800151610864565b905061061a82826109e1565b15801561062d575061062b82610ab0565b155b6106925760405162461bcd60e51b815260206004820152603060248201527f5072696365466565643a20436861696e6c696e6b206d75737420626520776f7260448201526f1ada5b99c8185b990818dd5c9c995b9d60821b6064820152608401610599565b61069b82610bfd565b506106a4610d16565b50505050565b6000546001600160a01b031633146106d45760405162461bcd60e51b81526004016105999061100f565b6001600160a01b0381166107395760405162461bcd60e51b815260206004820152602660248201527f4f776e61626c653a206e6577206f776e657220697320746865207a65726f206160448201526564647265737360d01b6064820152608401610599565b61074281610d60565b50565b61074d610eeb565b600160009054906101000a90046001600160a01b03166001600160a01b031663313ce5676040518163ffffffff1660e01b8152600401602060405180830381865afa9250505080156107bc575060408051601f3d908101601f191682019092526107b991810190611044565b60015b6107c35790565b60ff166080820152600160009054906101000a90046001600160a01b03166001600160a01b031663feaf968c6040518163ffffffff1660e01b815260040160a060405180830381865afa92505050801561083a575060408051601f3d908101601f191682019092526108379181019061107e565b60015b6108415790565b506001600160501b03909316845250602083015260408201526001606082015290565b61086c610eeb565b6001600160501b0383161561092857600180546001600160a01b031690639a6fc8f59061089990866110e4565b6040516001600160e01b031960e084901b1681526001600160501b03909116600482015260240160a060405180830381865afa9250505080156108f9575060408051601f3d908101601f191682019092526108f69181019061107e565b60015b1561092857506001600160501b039093168452506020830152604082015260ff82166080820152600160608201525b92915050565b604080516080810182526000808252602082018190529181018290526060810191909152600260009054906101000a90046001600160a01b03166001600160a01b031663994338286040518163ffffffff1660e01b8152600401606060405180830381865afa9250505080156109c1575060408051601f3d908101601f191682019092526109be9181019061110b565b60015b6109c85790565b9115158352602083015260408201526001606082015290565b60006109ec83610db0565b806109fb57506109fb82610db0565b9392505050565b60008160600151610a1557506001919050565b60408201511580610a295750428260400151115b15610a3657506001919050565b8160200151600003610a4a57506001919050565b506000919050565b6006805482919060ff19166001836004811115610a7157610a71610f19565b02179055507f5c57579a8214fe4f710c1c56fa829f045b9fa6d225a744225a30c32188064d4e81604051610aa59190610f2f565b60405180910390a150565b6000613840826040015142610ac59190611147565b1192915050565b600080610adc8360200151610e12565b905061092881610e35565b600080610aff8460200151856080015160ff16610e6a565b90506000610b188460200151856080015160ff16610e6a565b90506000610b268383610ec5565b90506000610b348484610edb565b9050600081670de0b6b3a7640000610b4c8583611147565b610b56919061115a565b610b609190611171565b6706f05b59d3b200001098975050505050505050565b600080610b8e8460200151856080015160ff16610e6a565b90506000610b9f8460200151610e12565b90506000610bad8284610ec5565b90506000610bbb8385610edb565b9050600082670de0b6b3a7640000610bd38285611147565b610bdd919061115a565b610be79190611171565b66b1a2bc2ec50000101598975050505050505050565b600080610adc8360200151846080015160ff16610e6a565b6000610c2082610a02565b80610c2f5750610c2f82610ab0565b80610c3f5750610c3f84846109e1565b80610c4e5750610c4e84610ab0565b15610c5b575060006109fb565b610c658483610b76565b949350505050565b6001600160a01b038116610cc35760405162461bcd60e51b815260206004820152601e60248201527f4163636f756e742063616e6e6f74206265207a65726f206164647265737300006044820152606401610599565b803b80610d125760405162461bcd60e51b815260206004820181905260248201527f4163636f756e7420636f64652073697a652063616e6e6f74206265207a65726f6044820152606401610599565b5050565b600080546040516001600160a01b03909116907f8be0079c531659141344cd1fd0a4f28419497f9722a3daafe3b4186f6b6457e0908390a3600080546001600160a01b0319169055565b600080546001600160a01b038381166001600160a01b0319831681178455604051919092169283917f8be0079c531659141344cd1fd0a4f28419497f9722a3daafe3b4186f6b6457e09190a35050565b60008160600151610dc357506001919050565b81516001600160501b0316600003610ddd57506001919050565b60408201511580610df15750428260400151115b15610dfe57506001919050565b6000826020015113610a4a57506001919050565b6000610e2060066012611147565b610e2b90600a611277565b610928908361115a565b60058190556040518181527f4d29de21de555af78a62fc82dd4bc05e9ae5b0660a37f04729527e0f22780cd390602001610aa5565b60008060128310610e9c57610e80601284611147565b610e8b90600a611277565b610e959085611171565b90506109fb565b60128310156109fb57610eb0836012611147565b610ebb90600a611277565b610c65908561115a565b6000818310610ed457816109fb565b5090919050565b600081831015610ed457816109fb565b6040805160a08101825260008082526020820181905291810182905260608101829052608081019190915290565b634e487b7160e01b600052602160045260246000fd5b6020810160058310610f5157634e487b7160e01b600052602160045260246000fd5b91905290565b80356001600160a01b0381168114610f6e57600080fd5b919050565b60008060408385031215610f8657600080fd5b610f8f83610f57565b9150610f9d60208401610f57565b90509250929050565b600060208083528351808285015260005b81811015610fd357858101830151858201604001528201610fb7565b506000604082860101526040601f19601f8301168501019250505092915050565b60006020828403121561100657600080fd5b6109fb82610f57565b6020808252818101527f4f776e61626c653a2063616c6c6572206973206e6f7420746865206f776e6572604082015260600190565b60006020828403121561105657600080fd5b815160ff811681146109fb57600080fd5b80516001600160501b0381168114610f6e57600080fd5b600080600080600060a0868803121561109657600080fd5b61109f86611067565b94506020860151935060408601519250606086015191506110c260808701611067565b90509295509295909350565b634e487b7160e01b600052601160045260246000fd5b6001600160501b03828116828216039080821115611104576111046110ce565b5092915050565b60008060006060848603121561112057600080fd5b8351801515811461113057600080fd5b602085015160409095015190969495509392505050565b81810381811115610928576109286110ce565b8082028115828204841417610928576109286110ce565b60008261118e57634e487b7160e01b600052601260045260246000fd5b500490565b600181815b808511156111ce5781600019048211156111b4576111b46110ce565b808516156111c157918102915b93841c9390800290611198565b509250929050565b6000826111e557506001610928565b816111f257506000610928565b816001811461120857600281146112125761122e565b6001915050610928565b60ff841115611223576112236110ce565b50506001821b610928565b5060208310610133831016604e8410600b8410161715611251575081810a610928565b61125b8383611193565b806000190482111561126f5761126f6110ce565b029392505050565b60006109fb83836111d656fea2646970667358221220dabcb9704a4aa7ef3b02cc82833f684a974effeb715b06f6095dbb230e27a93a64736f6c63430008110033",
  "linkReferences": {},
  "deployedLinkReferences": {}
}