{
  "_format": "hh-sol-artifact-1",
  "contractName": "PriceFormula",
  "sourceName": "contracts/B.Protocol/PriceFormula.sol",
  "abi": [
    {
      "inputs": [
        {
          "internalType": "uint256",
          "name": "xQty",
          "type": "uint256"
        },
        {
          "internalType": "uint256",
          "name": "xBalance",
          "type": "uint256"
        },
        {
          "internalType": "uint256",
          "name": "yBalance",
          "type": "uint256"
        },
        {
          "internalType": "uint256",
          "name": "A",
          "type": "uint256"
        }
      ],
      "name": "getReturn",
      "outputs": [
        {
          "internalType": "uint256",
          "name": "",
          "type": "uint256"
        }
      ],
      "stateMutability": "pure",
      "type": "function"
    },
    {
      "inputs": [
        {
          "internalType": "uint256",
          "name": "x",
          "type": "uint256"
        },
        {
          "internalType": "uint256",
          "name": "y",
          "type": "uint256"
        },
        {
          "internalType": "uint256",
          "name": "A",
          "type": "uint256"
        }
      ],
      "name": "getSumFixedPoint",
      "outputs": [
        {
          "internalType": "uint256",
          "name": "",
          "type": "uint256"
        }
      ],
      "stateMutability": "pure",
      "type": "function"
    }
  ],
  "bytecode": "0x608060405234801561001057600080fd5b5061045a806100206000396000f3fe608060405234801561001057600080fd5b50600436106100365760003560e01c8063068d59111461003b578063e29e4fbc14610060575b600080fd5b61004e610049366004610332565b610073565b60405190815260200160405180910390f35b61004e61006e366004610364565b6101c5565b6000806100818585856101c5565b9050600061008f86886103a6565b61009a9060026103bf565b6100a483806103bf565b6100ae91906103d6565b90506100bb8460046103bf565b6100c583836103bf565b6100cf91906103d6565b905060006100de8560026103bf565b6100e890846103d6565b6100f2888a6103a6565b6100fc91906103a6565b9050600083815b60ff8110156101a057819250600085838461011e91906103bf565b61012891906103a6565b9050600087866101398660026103bf565b61014391906103a6565b61014d91906103f8565b905061015981836103d6565b93506101668560016103a6565b841115801561017f575061017b8460016103a6565b8511155b1561018b5750506101a0565b505080806101989061040b565b915050610103565b5060016101ad828a6103f8565b6101b791906103f8565b9a9950505050505050505050565b6000831580156101d3575082155b156101e05750600061032b565b60006101ec84866103a6565b905060005b60ff81101561032757816102068760026103bf565b6102119060016103a6565b61021b84836103bf565b61022591906103d6565b90506102328660026103bf565b61023d9060016103a6565b61024784836103bf565b61025191906103d6565b9050826000816102628460026103bf565b61026c8a8c6103a6565b6102778a60026103bf565b61028191906103bf565b61028b91906103a6565b61029591906103bf565b905060008560016102a78a60026103bf565b6102b191906103f8565b6102bb91906103bf565b90506102c88460036103bf565b6102d290826103a6565b6102dc90836103d6565b95506102e98360016103a6565b861115801561030257506102fe8660016103a6565b8311155b156103105750505050610327565b50505050808061031f9061040b565b9150506101f1565b5090505b9392505050565b6000806000806080858703121561034857600080fd5b5050823594602084013594506040840135936060013592509050565b60008060006060848603121561037957600080fd5b505081359360208301359350604090920135919050565b634e487b7160e01b600052601160045260246000fd5b808201808211156103b9576103b9610390565b92915050565b80820281158282048414176103b9576103b9610390565b6000826103f357634e487b7160e01b600052601260045260246000fd5b500490565b818103818111156103b9576103b9610390565b60006001820161041d5761041d610390565b506001019056fea2646970667358221220e273dec405108352ea264f78f239aa3f0c2132259f0ff6188a619c503ef1f17964736f6c63430008110033",
  "linkReferences": {},
  "deployedLinkReferences": {}
}