{
  "_format": "hh-sol-artifact-1",
  "contractName": "PriceFeedTester",
  "sourceName": "contracts/TestContracts/PriceFeedTester.sol",
  "abi": [
    {
      "anonymous": false,
      "inputs": [
        {
          "indexed": false,
          "internalType": "uint256",
          "name": "_lastGoodPrice",
          "type": "uint256"
        }
      ],
      "name": "LastGoodPriceUpdated",
      "type": "event"
    },
    {
      "anonymous": false,
      "inputs": [
        {
          "indexed": true,
          "internalType": "address",
          "name": "previousOwner",
          "type": "address"
        },
        {
          "indexed": true,
          "internalType": "address",
          "name": "newOwner",
          "type": "address"
        }
      ],
      "name": "OwnershipTransferred",
      "type": "event"
    },
    {
      "anonymous": false,
      "inputs": [
        {
          "indexed": false,
          "internalType": "enum PriceFeed.Status",
          "name": "newStatus",
          "type": "uint8"
        }
      ],
      "name": "PriceFeedStatusChanged",
      "type": "event"
    },
    {
      "inputs": [],
      "name": "DECIMAL_PRECISION",
      "outputs": [
        {
          "internalType": "uint256",
          "name": "",
          "type": "uint256"
        }
      ],
      "stateMutability": "view",
      "type": "function"
    },
    {
      "inputs": [],
      "name": "MAX_PRICE_DEVIATION_FROM_PREVIOUS_ROUND",
      "outputs": [
        {
          "internalType": "uint256",
          "name": "",
          "type": "uint256"
        }
      ],
      "stateMutability": "view",
      "type": "function"
    },
    {
      "inputs": [],
      "name": "MAX_PRICE_DIFFERENCE_BETWEEN_ORACLES",
      "outputs": [
        {
          "internalType": "uint256",
          "name": "",
          "type": "uint256"
        }
      ],
      "stateMutability": "view",
      "type": "function"
    },
    {
      "inputs": [],
      "name": "NAME",
      "outputs": [
        {
          "internalType": "string",
          "name": "",
          "type": "string"
        }
      ],
      "stateMutability": "view",
      "type": "function"
    },
    {
      "inputs": [],
      "name": "TARGET_DIGITS",
      "outputs": [
        {
          "internalType": "uint256",
          "name": "",
          "type": "uint256"
        }
      ],
      "stateMutability": "view",
      "type": "function"
    },
    {
      "inputs": [],
      "name": "TELLOR_DIGITS",
      "outputs": [
        {
          "internalType": "uint256",
          "name": "",
          "type": "uint256"
        }
      ],
      "stateMutability": "view",
      "type": "function"
    },
    {
      "inputs": [],
      "name": "TIMEOUT",
      "outputs": [
        {
          "internalType": "uint256",
          "name": "",
          "type": "uint256"
        }
      ],
      "stateMutability": "view",
      "type": "function"
    },
    {
      "inputs": [],
      "name": "fetchPrice",
      "outputs": [
        {
          "internalType": "uint256",
          "name": "",
          "type": "uint256"
        }
      ],
      "stateMutability": "nonpayable",
      "type": "function"
    },
    {
      "inputs": [],
      "name": "isOwner",
      "outputs": [
        {
          "internalType": "bool",
          "name": "",
          "type": "bool"
        }
      ],
      "stateMutability": "view",
      "type": "function"
    },
    {
      "inputs": [],
      "name": "lastGoodPrice",
      "outputs": [
        {
          "internalType": "uint256",
          "name": "",
          "type": "uint256"
        }
      ],
      "stateMutability": "view",
      "type": "function"
    },
    {
      "inputs": [],
      "name": "owner",
      "outputs": [
        {
          "internalType": "address",
          "name": "",
          "type": "address"
        }
      ],
      "stateMutability": "view",
      "type": "function"
    },
    {
      "inputs": [],
      "name": "priceAggregator",
      "outputs": [
        {
          "internalType": "contract AggregatorV3Interface",
          "name": "",
          "type": "address"
        }
      ],
      "stateMutability": "view",
      "type": "function"
    },
    {
      "inputs": [
        {
          "internalType": "address",
          "name": "_priceAggregatorAddress",
          "type": "address"
        },
        {
          "internalType": "address",
          "name": "_tellorCallerAddress",
          "type": "address"
        }
      ],
      "name": "setAddresses",
      "outputs": [],
      "stateMutability": "nonpayable",
      "type": "function"
    },
    {
      "inputs": [
        {
          "internalType": "uint256",
          "name": "_lastGoodPrice",
          "type": "uint256"
        }
      ],
      "name": "setLastGoodPrice",
      "outputs": [],
      "stateMutability": "nonpayable",
      "type": "function"
    },
    {
      "inputs": [
        {
          "internalType": "enum PriceFeed.Status",
          "name": "_status",
          "type": "uint8"
        }
      ],
      "name": "setStatus",
      "outputs": [],
      "stateMutability": "nonpayable",
      "type": "function"
    },
    {
      "inputs": [],
      "name": "status",
      "outputs": [
        {
          "internalType": "enum PriceFeed.Status",
          "name": "",
          "type": "uint8"
        }
      ],
      "stateMutability": "view",
      "type": "function"
    },
    {
      "inputs": [],
      "name": "tellorCaller",
      "outputs": [
        {
          "internalType": "contract ITellorCaller",
          "name": "",
          "type": "address"
        }
      ],
      "stateMutability": "view",
      "type": "function"
    },
    {
      "inputs": [
        {
          "internalType": "address",
          "name": "newOwner",
          "type": "address"
        }
      ],
      "name": "transferOwnership",
      "outputs": [],
      "stateMutability": "nonpayable",
      "type": "function"
    }
  ],
  "bytecode": "0x608060405234801561001057600080fd5b50600080546001600160a01b0319163390811782556040519091907f8be0079c531659141344cd1fd0a4f28419497f9722a3daafe3b4186f6b6457e0908290a36113568061005f6000396000f3fe608060405234801561001057600080fd5b50600436106100f65760003560e01c80638da5cb5b116100925780638da5cb5b146101b15780638f32d59b146101c257806390107afe146101e0578063a20baee6146101f3578063a3f4df7e14610202578063c521b3f514610237578063ebf8e6c61461024a578063f2fde38b14610252578063f56f48f21461026557600080fd5b80630490be83146100fb5780630fdb11cf146101175780631be5c92f1461011f578063200d2ed2146101275780632e49d78b146101415780633078fff51461015657806345079cb41461018157806358a6aa881461018f5780637c61e3bf1461019e575b600080fd5b61010460055481565b6040519081526020015b60405180910390f35b61010461026e565b610104601281565b6006546101349060ff1681565b60405161010e9190610f92565b61015461014f366004610fba565b6105ab565b005b600154610169906001600160a01b031681565b6040516001600160a01b03909116815260200161010e565b61010466b1a2bc2ec5000081565b6101046706f05b59d3b2000081565b600254610169906001600160a01b031681565b6000546001600160a01b0316610169565b6000546001600160a01b03163314604051901515815260200161010e565b6101546101ee366004610ff7565b6105d2565b610104670de0b6b3a764000081565b61022a60405180604001604052806009815260200168141c9a58d95199595960ba1b81525081565b60405161010e919061102a565b610154610245366004611078565b600555565b610104600681565b610154610260366004611091565b61070d565b61010461384081565b6000806102796107a8565b9050600061028f826000015183608001516108c7565b9050600061029b610991565b9050600060065460ff1660048111156102b6576102b6610f7c565b036103e1576102c58383610a44565b15610320576102d381610a65565b156102ed576102e26002610ab5565b600554935050505090565b6102f681610b13565b15610305576102e26001610ab5565b61030f6001610ab5565b61031881610b2f565b935050505090565b61032983610b13565b156103695761033781610a65565b15610346576102e26004610ab5565b6103506003610ab5565b61035981610b13565b1561030f57600554935050505090565b6103738383610b4a565b156103c05761038181610a65565b15610390576102e26002610ab5565b61039981610b13565b156103a8576102e26001610ab5565b6103b28382610bd9565b156103055761031883610c60565b6103c981610a65565b156103d8576103d86004610ab5565b61031883610c60565b600160065460ff1660048111156103fa576103fa610f7c565b036104315761040a838383610c78565b15610419576103d86000610ab5565b61042281610a65565b15610350576102e26002610ab5565b600260065460ff16600481111561044a5761044a610f7c565b036104695761045a838383610c78565b156102e2576103d86000610ab5565b600360065460ff16600481111561048257610482610f7c565b03610528576104918383610a44565b156104b85761049f81610a65565b156104ae576102e26002610ab5565b6103506001610ab5565b6104c183610b13565b156104de576104cf81610a65565b15610350576102e26004610ab5565b6104e781610a65565b156104f6576103d86004610ab5565b6104ff81610b13565b1561050f57600554935050505090565b6105198382610bd9565b15610305576103d86000610ab5565b600460065460ff16600481111561054157610541610f7c565b036102e2576105508383610a44565b1561055f576102e26002610ab5565b61056883610b13565b1561057857600554935050505090565b610583838383610c78565b15610592576103d86000610ab5565b61059c8383610b4a565b156103d8576102e26002610ab5565b6006805482919060ff191660018360048111156105ca576105ca610f7c565b021790555050565b6000546001600160a01b031633146106055760405162461bcd60e51b81526004016105fc906110ac565b60405180910390fd5b61060e82610cd0565b61061781610cd0565b600180546001600160a01b038481166001600160a01b03199283161790925560028054928416929091169190911790556006805460ff19169055600061065b6107a8565b90506000610671826000015183608001516108c7565b905061067d8282610a44565b158015610690575061068e82610b13565b155b6106f55760405162461bcd60e51b815260206004820152603060248201527f5072696365466565643a20436861696e6c696e6b206d75737420626520776f7260448201526f1ada5b99c8185b990818dd5c9c995b9d60821b60648201526084016105fc565b6106fe82610c60565b50610707610d79565b50505050565b6000546001600160a01b031633146107375760405162461bcd60e51b81526004016105fc906110ac565b6001600160a01b03811661079c5760405162461bcd60e51b815260206004820152602660248201527f4f776e61626c653a206e6577206f776e657220697320746865207a65726f206160448201526564647265737360d01b60648201526084016105fc565b6107a581610dc3565b50565b6107b0610f4e565b600160009054906101000a90046001600160a01b03166001600160a01b031663313ce5676040518163ffffffff1660e01b8152600401602060405180830381865afa92505050801561081f575060408051601f3d908101601f1916820190925261081c918101906110e1565b60015b6108265790565b60ff166080820152600160009054906101000a90046001600160a01b03166001600160a01b031663feaf968c6040518163ffffffff1660e01b815260040160a060405180830381865afa92505050801561089d575060408051601f3d908101601f1916820190925261089a9181019061111b565b60015b6108a45790565b506001600160501b03909316845250602083015260408201526001606082015290565b6108cf610f4e565b6001600160501b0383161561098b57600180546001600160a01b031690639a6fc8f5906108fc9086611181565b6040516001600160e01b031960e084901b1681526001600160501b03909116600482015260240160a060405180830381865afa92505050801561095c575060408051601f3d908101601f191682019092526109599181019061111b565b60015b1561098b57506001600160501b039093168452506020830152604082015260ff82166080820152600160608201525b92915050565b604080516080810182526000808252602082018190529181018290526060810191909152600260009054906101000a90046001600160a01b03166001600160a01b031663994338286040518163ffffffff1660e01b8152600401606060405180830381865afa925050508015610a24575060408051601f3d908101601f19168201909252610a21918101906111a8565b60015b610a2b5790565b9115158352602083015260408201526001606082015290565b6000610a4f83610e13565b80610a5e5750610a5e82610e13565b9392505050565b60008160600151610a7857506001919050565b60408201511580610a8c5750428260400151115b15610a9957506001919050565b8160200151600003610aad57506001919050565b506000919050565b6006805482919060ff19166001836004811115610ad457610ad4610f7c565b02179055507f5c57579a8214fe4f710c1c56fa829f045b9fa6d225a744225a30c32188064d4e81604051610b089190610f92565b60405180910390a150565b6000613840826040015142610b2891906111e4565b1192915050565b600080610b3f8360200151610e75565b905061098b81610e98565b600080610b628460200151856080015160ff16610ecd565b90506000610b7b8460200151856080015160ff16610ecd565b90506000610b898383610f28565b90506000610b978484610f3e565b9050600081670de0b6b3a7640000610baf85836111e4565b610bb991906111f7565b610bc3919061120e565b6706f05b59d3b200001098975050505050505050565b600080610bf18460200151856080015160ff16610ecd565b90506000610c028460200151610e75565b90506000610c108284610f28565b90506000610c1e8385610f3e565b9050600082670de0b6b3a7640000610c3682856111e4565b610c4091906111f7565b610c4a919061120e565b66b1a2bc2ec50000101598975050505050505050565b600080610b3f8360200151846080015160ff16610ecd565b6000610c8382610a65565b80610c925750610c9282610b13565b80610ca25750610ca28484610a44565b80610cb15750610cb184610b13565b15610cbe57506000610a5e565b610cc88483610bd9565b949350505050565b6001600160a01b038116610d265760405162461bcd60e51b815260206004820152601e60248201527f4163636f756e742063616e6e6f74206265207a65726f2061646472657373000060448201526064016105fc565b803b80610d755760405162461bcd60e51b815260206004820181905260248201527f4163636f756e7420636f64652073697a652063616e6e6f74206265207a65726f60448201526064016105fc565b5050565b600080546040516001600160a01b03909116907f8be0079c531659141344cd1fd0a4f28419497f9722a3daafe3b4186f6b6457e0908390a3600080546001600160a01b0319169055565b600080546001600160a01b038381166001600160a01b0319831681178455604051919092169283917f8be0079c531659141344cd1fd0a4f28419497f9722a3daafe3b4186f6b6457e09190a35050565b60008160600151610e2657506001919050565b81516001600160501b0316600003610e4057506001919050565b60408201511580610e545750428260400151115b15610e6157506001919050565b6000826020015113610aad57506001919050565b6000610e83600660126111e4565b610e8e90600a611314565b61098b90836111f7565b60058190556040518181527f4d29de21de555af78a62fc82dd4bc05e9ae5b0660a37f04729527e0f22780cd390602001610b08565b60008060128310610eff57610ee36012846111e4565b610eee90600a611314565b610ef8908561120e565b9050610a5e565b6012831015610a5e57610f138360126111e4565b610f1e90600a611314565b610cc890856111f7565b6000818310610f375781610a5e565b5090919050565b600081831015610f375781610a5e565b6040805160a08101825260008082526020820181905291810182905260608101829052608081019190915290565b634e487b7160e01b600052602160045260246000fd5b6020810160058310610fb457634e487b7160e01b600052602160045260246000fd5b91905290565b600060208284031215610fcc57600080fd5b813560058110610a5e57600080fd5b80356001600160a01b0381168114610ff257600080fd5b919050565b6000806040838503121561100a57600080fd5b61101383610fdb565b915061102160208401610fdb565b90509250929050565b600060208083528351808285015260005b818110156110575785810183015185820160400152820161103b565b506000604082860101526040601f19601f8301168501019250505092915050565b60006020828403121561108a57600080fd5b5035919050565b6000602082840312156110a357600080fd5b610a5e82610fdb565b6020808252818101527f4f776e61626c653a2063616c6c6572206973206e6f7420746865206f776e6572604082015260600190565b6000602082840312156110f357600080fd5b815160ff81168114610a5e57600080fd5b80516001600160501b0381168114610ff257600080fd5b600080600080600060a0868803121561113357600080fd5b61113c86611104565b945060208601519350604086015192506060860151915061115f60808701611104565b90509295509295909350565b634e487b7160e01b600052601160045260246000fd5b6001600160501b038281168282160390808211156111a1576111a161116b565b5092915050565b6000806000606084860312156111bd57600080fd5b835180151581146111cd57600080fd5b602085015160409095015190969495509392505050565b8181038181111561098b5761098b61116b565b808202811582820484141761098b5761098b61116b565b60008261122b57634e487b7160e01b600052601260045260246000fd5b500490565b600181815b8085111561126b5781600019048211156112515761125161116b565b8085161561125e57918102915b93841c9390800290611235565b509250929050565b6000826112825750600161098b565b8161128f5750600061098b565b81600181146112a557600281146112af576112cb565b600191505061098b565b60ff8411156112c0576112c061116b565b50506001821b61098b565b5060208310610133831016604e8410600b84101617156112ee575081810a61098b565b6112f88383611230565b806000190482111561130c5761130c61116b565b029392505050565b6000610a5e838361127356fea2646970667358221220b06f39b6a1a9c6d2e5c5e5bd9815417f09ddd5ee95b193a8a685ea740877a6f064736f6c63430008110033",
  "linkReferences": {},
  "deployedLinkReferences": {}
}