{
  "_format": "hh-sol-artifact-1",
  "contractName": "SortedTroves",
  "sourceName": "contracts/SortedTroves.sol",
  "abi": [
    {
      "anonymous": false,
      "inputs": [
        {
          "indexed": false,
          "internalType": "address",
          "name": "_borrowerOperationsAddress",
          "type": "address"
        }
      ],
      "name": "BorrowerOperationsAddressChanged",
      "type": "event"
    },
    {
      "anonymous": false,
      "inputs": [
        {
          "indexed": false,
          "internalType": "address",
          "name": "_id",
          "type": "address"
        },
        {
          "indexed": false,
          "internalType": "uint256",
          "name": "_NICR",
          "type": "uint256"
        }
      ],
      "name": "NodeAdded",
      "type": "event"
    },
    {
      "anonymous": false,
      "inputs": [
        {
          "indexed": false,
          "internalType": "address",
          "name": "_id",
          "type": "address"
        }
      ],
      "name": "NodeRemoved",
      "type": "event"
    },
    {
      "anonymous": false,
      "inputs": [
        {
          "indexed": true,
          "internalType": "address",
          "name": "previousOwner",
          "type": "address"
        },
        {
          "indexed": true,
          "internalType": "address",
          "name": "newOwner",
          "type": "address"
        }
      ],
      "name": "OwnershipTransferred",
      "type": "event"
    },
    {
      "anonymous": false,
      "inputs": [
        {
          "indexed": false,
          "internalType": "address",
          "name": "_sortedDoublyLLAddress",
          "type": "address"
        }
      ],
      "name": "SortedTrovesAddressChanged",
      "type": "event"
    },
    {
      "anonymous": false,
      "inputs": [
        {
          "indexed": false,
          "internalType": "address",
          "name": "_troveManagerAddress",
          "type": "address"
        }
      ],
      "name": "TroveManagerAddressChanged",
      "type": "event"
    },
    {
      "inputs": [],
      "name": "NAME",
      "outputs": [
        {
          "internalType": "string",
          "name": "",
          "type": "string"
        }
      ],
      "stateMutability": "view",
      "type": "function"
    },
    {
      "inputs": [],
      "name": "borrowerOperationsAddress",
      "outputs": [
        {
          "internalType": "address",
          "name": "",
          "type": "address"
        }
      ],
      "stateMutability": "view",
      "type": "function"
    },
    {
      "inputs": [
        {
          "internalType": "address",
          "name": "_id",
          "type": "address"
        }
      ],
      "name": "contains",
      "outputs": [
        {
          "internalType": "bool",
          "name": "",
          "type": "bool"
        }
      ],
      "stateMutability": "view",
      "type": "function"
    },
    {
      "inputs": [],
      "name": "data",
      "outputs": [
        {
          "internalType": "address",
          "name": "head",
          "type": "address"
        },
        {
          "internalType": "address",
          "name": "tail",
          "type": "address"
        },
        {
          "internalType": "uint256",
          "name": "maxSize",
          "type": "uint256"
        },
        {
          "internalType": "uint256",
          "name": "size",
          "type": "uint256"
        }
      ],
      "stateMutability": "view",
      "type": "function"
    },
    {
      "inputs": [
        {
          "internalType": "uint256",
          "name": "_NICR",
          "type": "uint256"
        },
        {
          "internalType": "address",
          "name": "_prevId",
          "type": "address"
        },
        {
          "internalType": "address",
          "name": "_nextId",
          "type": "address"
        }
      ],
      "name": "findInsertPosition",
      "outputs": [
        {
          "internalType": "address",
          "name": "",
          "type": "address"
        },
        {
          "internalType": "address",
          "name": "",
          "type": "address"
        }
      ],
      "stateMutability": "view",
      "type": "function"
    },
    {
      "inputs": [],
      "name": "getFirst",
      "outputs": [
        {
          "internalType": "address",
          "name": "",
          "type": "address"
        }
      ],
      "stateMutability": "view",
      "type": "function"
    },
    {
      "inputs": [],
      "name": "getLast",
      "outputs": [
        {
          "internalType": "address",
          "name": "",
          "type": "address"
        }
      ],
      "stateMutability": "view",
      "type": "function"
    },
    {
      "inputs": [],
      "name": "getMaxSize",
      "outputs": [
        {
          "internalType": "uint256",
          "name": "",
          "type": "uint256"
        }
      ],
      "stateMutability": "view",
      "type": "function"
    },
    {
      "inputs": [
        {
          "internalType": "address",
          "name": "_id",
          "type": "address"
        }
      ],
      "name": "getNext",
      "outputs": [
        {
          "internalType": "address",
          "name": "",
          "type": "address"
        }
      ],
      "stateMutability": "view",
      "type": "function"
    },
    {
      "inputs": [
        {
          "internalType": "address",
          "name": "_id",
          "type": "address"
        }
      ],
      "name": "getPrev",
      "outputs": [
        {
          "internalType": "address",
          "name": "",
          "type": "address"
        }
      ],
      "stateMutability": "view",
      "type": "function"
    },
    {
      "inputs": [],
      "name": "getSize",
      "outputs": [
        {
          "internalType": "uint256",
          "name": "",
          "type": "uint256"
        }
      ],
      "stateMutability": "view",
      "type": "function"
    },
    {
      "inputs": [
        {
          "internalType": "address",
          "name": "_id",
          "type": "address"
        },
        {
          "internalType": "uint256",
          "name": "_NICR",
          "type": "uint256"
        },
        {
          "internalType": "address",
          "name": "_prevId",
          "type": "address"
        },
        {
          "internalType": "address",
          "name": "_nextId",
          "type": "address"
        }
      ],
      "name": "insert",
      "outputs": [],
      "stateMutability": "nonpayable",
      "type": "function"
    },
    {
      "inputs": [],
      "name": "isEmpty",
      "outputs": [
        {
          "internalType": "bool",
          "name": "",
          "type": "bool"
        }
      ],
      "stateMutability": "view",
      "type": "function"
    },
    {
      "inputs": [],
      "name": "isFull",
      "outputs": [
        {
          "internalType": "bool",
          "name": "",
          "type": "bool"
        }
      ],
      "stateMutability": "view",
      "type": "function"
    },
    {
      "inputs": [],
      "name": "isOwner",
      "outputs": [
        {
          "internalType": "bool",
          "name": "",
          "type": "bool"
        }
      ],
      "stateMutability": "view",
      "type": "function"
    },
    {
      "inputs": [],
      "name": "owner",
      "outputs": [
        {
          "internalType": "address",
          "name": "",
          "type": "address"
        }
      ],
      "stateMutability": "view",
      "type": "function"
    },
    {
      "inputs": [
        {
          "internalType": "address",
          "name": "_id",
          "type": "address"
        },
        {
          "internalType": "uint256",
          "name": "_newNICR",
          "type": "uint256"
        },
        {
          "internalType": "address",
          "name": "_prevId",
          "type": "address"
        },
        {
          "internalType": "address",
          "name": "_nextId",
          "type": "address"
        }
      ],
      "name": "reInsert",
      "outputs": [],
      "stateMutability": "nonpayable",
      "type": "function"
    },
    {
      "inputs": [
        {
          "internalType": "address",
          "name": "_id",
          "type": "address"
        }
      ],
      "name": "remove",
      "outputs": [],
      "stateMutability": "nonpayable",
      "type": "function"
    },
    {
      "inputs": [
        {
          "internalType": "uint256",
          "name": "_size",
          "type": "uint256"
        },
        {
          "internalType": "address",
          "name": "_troveManagerAddress",
          "type": "address"
        },
        {
          "internalType": "address",
          "name": "_borrowerOperationsAddress",
          "type": "address"
        }
      ],
      "name": "setParams",
      "outputs": [],
      "stateMutability": "nonpayable",
      "type": "function"
    },
    {
      "inputs": [
        {
          "internalType": "address",
          "name": "newOwner",
          "type": "address"
        }
      ],
      "name": "transferOwnership",
      "outputs": [],
      "stateMutability": "nonpayable",
      "type": "function"
    },
    {
      "inputs": [],
      "name": "troveManager",
      "outputs": [
        {
          "internalType": "contract ITroveManager",
          "name": "",
          "type": "address"
        }
      ],
      "stateMutability": "view",
      "type": "function"
    },
    {
      "inputs": [
        {
          "internalType": "uint256",
          "name": "_NICR",
          "type": "uint256"
        },
        {
          "internalType": "address",
          "name": "_prevId",
          "type": "address"
        },
        {
          "internalType": "address",
          "name": "_nextId",
          "type": "address"
        }
      ],
      "name": "validInsertPosition",
      "outputs": [
        {
          "internalType": "bool",
          "name": "",
          "type": "bool"
        }
      ],
      "stateMutability": "view",
      "type": "function"
    }
  ],
  "bytecode": "0x608060405234801561001057600080fd5b50600080546001600160a01b0319163390811782556040519091907f8be0079c531659141344cd1fd0a4f28419497f9722a3daafe3b4186f6b6457e0908290a361171e8061005f6000396000f3fe608060405234801561001057600080fd5b50600436106101425760003560e01c806373d4a13a116100b8578063b72703ac1161007c578063b72703ac14610327578063b7f8cf9b14610356578063babd3d9a14610369578063de8fa43114610375578063f2fde38b1461037d578063f376d7981461039057600080fd5b806373d4a13a1461024d578063765e01591461029a5780638da5cb5b146102cb5780638f32d59b146102dc578063a3f4df7e146102ef57600080fd5b8063416980dc1161010a578063416980dc146101c857806346f7cf87146101fb5780634d6228311461020e5780635dbe47e81461021f57806363e1d57c14610232578063681fe70c1461024457600080fd5b80631e2231431461014757806329092d0e1461016a5780632be212601461017f5780633d83908a146101925780633fce12d5146101a5575b600080fd5b6003546001600160a01b03165b60405161016191906114a2565b60405180910390f35b61017d6101783660046114d2565b6103a3565b005b61017d61018d3660046114f4565b6103b7565b600254610154906001600160a01b031681565b6101b86101b3366004611541565b610437565b6040519015158152602001610161565b6101db6101d6366004611541565b61045a565b604080516001600160a01b03938416815292909116602083015201610161565b61017d6102093660046114f4565b610484565b6004546001600160a01b0316610154565b6101b861022d3660046114d2565b610499565b6005545b604051908152602001610161565b600654156101b8565b60035460045460055460065461026f936001600160a01b039081169316919084565b604080516001600160a01b039586168152949093166020850152918301526060820152608001610161565b6101546102a83660046114d2565b6001600160a01b0390811660009081526007602052604090205461010090041690565b6000546001600160a01b0316610154565b6000546001600160a01b031633146101b8565b61031a6040518060400160405280600c81526020016b536f7274656454726f76657360a01b81525081565b604051610161919061157d565b6101546103353660046114d2565b6001600160a01b039081166000908152600760205260409020600101541690565b600154610154906001600160a01b031681565b600554600654146101b8565b600654610236565b61017d61038b3660046114d2565b6104b7565b61017d61039e366004611541565b61054f565b6103ab61068c565b6103b4816106fd565b50565b6002546001600160a01b03166103cc8161090b565b6103d585610499565b6103fa5760405162461bcd60e51b81526004016103f1906115cb565b60405180910390fd5b6000841161041a5760405162461bcd60e51b81526004016103f190611615565b610423856106fd565b610430818686868661098e565b5050505050565b600254600090610452906001600160a01b0316858585610d0e565b949350505050565b6002546000908190610477906001600160a01b0316868686610f4a565b915091505b935093915050565b6002546001600160a01b03166104238161090b565b6001600160a01b031660009081526007602052604090205460ff1690565b6000546001600160a01b031633146104e15760405162461bcd60e51b81526004016103f190611658565b6001600160a01b0381166105465760405162461bcd60e51b815260206004820152602660248201527f4f776e61626c653a206e6577206f776e657220697320746865207a65726f206160448201526564647265737360d01b60648201526084016103f1565b6103b48161110d565b6000546001600160a01b031633146105795760405162461bcd60e51b81526004016103f190611658565b600083116105c95760405162461bcd60e51b815260206004820152601f60248201527f536f7274656454726f7665733a2053697a652063616e74206265207a65726f0060448201526064016103f1565b6105d28261115d565b6105db8161115d565b6005839055600280546001600160a01b038085166001600160a01b03199283161790925560018054928416929091169190911790556040517f143219c9e69b09e07e095fcc889b43d8f46ca892bba65f08dc3a0050869a5678906106409084906114a2565b60405180910390a17f3ca631ffcd2a9b5d9ae18543fc82f58eb4ca33af9e6ab01b7a8e95331e6ed9858160405161067791906114a2565b60405180910390a1610687611206565b505050565b6002546001600160a01b031633146106fb5760405162461bcd60e51b815260206004820152602c60248201527f536f7274656454726f7665733a2043616c6c6572206973206e6f74207468652060448201526b2a3937bb32a6b0b730b3b2b960a11b60648201526084016103f1565b565b61070681610499565b6107225760405162461bcd60e51b81526004016103f1906115cb565b60065460011015610862576003546001600160a01b039081169082160361078f576001600160a01b0380821660009081526007602052604080822054600380546001600160a01b03199081166101009093049095169182179055825290206001018054909116905561087f565b6004546001600160a01b03908116908216036107f3576001600160a01b0380821660009081526007602052604080822060010154600480546001600160a01b03191691909416908117909355918152208054610100600160a81b031916905561087f565b6001600160a01b038082166000908152600760205260408082208054600180830180548716865284862080546101009485900489168502610100600160a81b03199091161790555492549190910485168452919092200180546001600160a01b0319169190921617905561087f565b600380546001600160a01b03199081169091556004805490911690555b6001600160a01b038116600090815260076020526040812080546001600160a81b0319168155600190810180546001600160a01b031916905560068054919290916108cb9084906116a3565b90915550506040517fcfc24166db4bb677e857cacabd1541fb2b30645021b27c5130419589b84db52b906109009083906114a2565b60405180910390a150565b6001546001600160a01b031633148061092c5750336001600160a01b038216145b6103b45760405162461bcd60e51b815260206004820152602d60248201527f536f7274656454726f7665733a2043616c6c6572206973206e6569746865722060448201526c424f206e6f722054726f76654d60981b60648201526084016103f1565b600554600654036109e15760405162461bcd60e51b815260206004820152601a60248201527f536f7274656454726f7665733a204c6973742069732066756c6c00000000000060448201526064016103f1565b6109ea84610499565b15610a4c5760405162461bcd60e51b815260206004820152602c60248201527f536f7274656454726f7665733a204c69737420616c726561647920636f6e746160448201526b696e7320746865206e6f646560a01b60648201526084016103f1565b6001600160a01b038416610aa25760405162461bcd60e51b815260206004820152601f60248201527f536f7274656454726f7665733a2049642063616e6e6f74206265207a65726f0060448201526064016103f1565b60008311610ac25760405162461bcd60e51b81526004016103f190611615565b8181610ad087868484610d0e565b610ae657610ae087868484610f4a565b90925090505b6001600160a01b038087166000908152600760205260409020805460ff191660011790558216158015610b2057506001600160a01b038116155b15610b5557600380546001600160a01b0388166001600160a01b03199182168117909255600480549091169091179055610ca9565b6001600160a01b038216610bc957600380546001600160a01b03888116600081815260076020526040808220805495851661010002610100600160a81b0319909616959095179094558454909216825291902060010180546001600160a01b03199081168317909155825416179055610ca9565b6001600160a01b038116610c3957600480546001600160a01b0388811660008181526007602052604080822060010180549585166001600160a01b031996871617905585549093168152919091208054610100600160a81b03191661010083021790558254909116179055610ca9565b6001600160a01b038087166000818152600760205260408082208054858716610100818102610100600160a81b031993841617845560019384018054988b166001600160a01b0319998a168117909155865284862080549188029190931617909155835291200180549092161790555b6001600380016000828254610cbe91906116bc565b9091555050604080516001600160a01b0388168152602081018790527fe02b43adbee0c123de070a04554a71877a0007e2fc161466299cae3c094fe82f910160405180910390a150505050505050565b60006001600160a01b038316158015610d2e57506001600160a01b038216155b15610d3f57600654155b9050610452565b6001600160a01b038316610ddc576003546001600160a01b038381169116148015610d38575060405163b0d8e18160e01b81526001600160a01b0386169063b0d8e18190610d919085906004016114a2565b602060405180830381865afa158015610dae573d6000803e3d6000fd5b505050506040513d601f19601f82011682018060405250810190610dd291906116cf565b8410159050610452565b6001600160a01b038216610e79576004546001600160a01b038481169116148015610d38575060405163b0d8e18160e01b81526001600160a01b0386169063b0d8e18190610e2e9086906004016114a2565b602060405180830381865afa158015610e4b573d6000803e3d6000fd5b505050506040513d601f19601f82011682018060405250810190610e6f91906116cf565b8411159050610452565b6001600160a01b0383811660009081526007602052604090205461010090048116908316148015610f17575060405163b0d8e18160e01b815284906001600160a01b0387169063b0d8e18190610ed39087906004016114a2565b602060405180830381865afa158015610ef0573d6000803e3d6000fd5b505050506040513d601f19601f82011682018060405250810190610f1491906116cf565b10155b8015610d38575060405163b0d8e18160e01b81526001600160a01b0386169063b0d8e18190610d919085906004016114a2565b60008083836001600160a01b03821615610fe857610f6782610499565b1580610fde575060405163b0d8e18160e01b81526001600160a01b0389169063b0d8e18190610f9a9085906004016114a2565b602060405180830381865afa158015610fb7573d6000803e3d6000fd5b505050506040513d601f19601f82011682018060405250810190610fdb91906116cf565b87115b15610fe857600091505b6001600160a01b038116156110805761100081610499565b1580611077575060405163b0d8e18160e01b81526001600160a01b0389169063b0d8e181906110339084906004016114a2565b602060405180830381865afa158015611050573d6000803e3d6000fd5b505050506040513d601f19601f8201168201806040525081019061107491906116cf565b87105b15611080575060005b6001600160a01b03821615801561109e57506001600160a01b038116155b156110c7576003546110bc90899089906001600160a01b0316611250565b935093505050611104565b6001600160a01b0382166110e0576110bc88888361137c565b6001600160a01b0381166110f9576110bc888884611250565b6110bc888884611250565b94509492505050565b600080546001600160a01b038381166001600160a01b0319831681178455604051919092169283917f8be0079c531659141344cd1fd0a4f28419497f9722a3daafe3b4186f6b6457e09190a35050565b6001600160a01b0381166111b35760405162461bcd60e51b815260206004820152601e60248201527f4163636f756e742063616e6e6f74206265207a65726f2061646472657373000060448201526064016103f1565b803b806112025760405162461bcd60e51b815260206004820181905260248201527f4163636f756e7420636f64652073697a652063616e6e6f74206265207a65726f60448201526064016103f1565b5050565b600080546040516001600160a01b03909116907f8be0079c531659141344cd1fd0a4f28419497f9722a3daafe3b4186f6b6457e0908390a3600080546001600160a01b0319169055565b60035460009081906001600160a01b0384811691161480156112de575060405163b0d8e18160e01b81526001600160a01b0386169063b0d8e181906112999086906004016114a2565b602060405180830381865afa1580156112b6573d6000803e3d6000fd5b505050506040513d601f19601f820116820180604052508101906112da91906116cf565b8410155b156112ee5750600090508161047c565b6001600160a01b038084166000908152600760205260409020548491610100909104165b6001600160a01b03821615801590611333575061133187878484610d0e565b155b1561137057506001600160a01b03908116600090815260076020526040808220546101009081900484168084529190922054909291900416611312565b90969095509350505050565b60045460009081906001600160a01b03848116911614801561140a575060405163b0d8e18160e01b81526001600160a01b0386169063b0d8e181906113c59086906004016114a2565b602060405180830381865afa1580156113e2573d6000803e3d6000fd5b505050506040513d601f19601f8201168201806040525081019061140691906116cf565b8411155b1561141a5750819050600061047c565b6001600160a01b038084166000908152600760205260409020600101548491165b6001600160a01b0382161580159061145c575061145a87878385610d0e565b155b1561149757506001600160a01b039081166000908152600760205260408082206001908101548416808452919092209091015490911661143b565b969095509350505050565b6001600160a01b0391909116815260200190565b80356001600160a01b03811681146114cd57600080fd5b919050565b6000602082840312156114e457600080fd5b6114ed826114b6565b9392505050565b6000806000806080858703121561150a57600080fd5b611513856114b6565b935060208501359250611528604086016114b6565b9150611536606086016114b6565b905092959194509250565b60008060006060848603121561155657600080fd5b83359250611566602085016114b6565b9150611574604085016114b6565b90509250925092565b600060208083528351808285015260005b818110156115aa5785810183015185820160400152820161158e565b506000604082860101526040601f19601f8301168501019250505092915050565b6020808252602a908201527f536f7274656454726f7665733a204c69737420646f6573206e6f7420636f6e74604082015269185a5b881d1a19481a5960b21b606082015260800190565b60208082526023908201527f536f7274656454726f7665733a204e494352206d75737420626520706f73697460408201526269766560e81b606082015260800190565b6020808252818101527f4f776e61626c653a2063616c6c6572206973206e6f7420746865206f776e6572604082015260600190565b634e487b7160e01b600052601160045260246000fd5b818103818111156116b6576116b661168d565b92915050565b808201808211156116b6576116b661168d565b6000602082840312156116e157600080fd5b505191905056fea2646970667358221220089ed9253349bd1def787598a8f7acb4d9954a707c11bf8b45b01314e20299e764736f6c63430008110033",
  "linkReferences": {},
  "deployedLinkReferences": {}
}