{
  "_format": "hh-sol-artifact-1",
  "contractName": "SortedTrovesTester",
  "sourceName": "contracts/TestContracts/SortedTrovesTester.sol",
  "abi": [
    {
      "inputs": [
        {
          "internalType": "address",
          "name": "",
          "type": "address"
        },
        {
          "internalType": "uint256",
          "name": "",
          "type": "uint256"
        }
      ],
      "name": "getCurrentICR",
      "outputs": [
        {
          "internalType": "uint256",
          "name": "",
          "type": "uint256"
        }
      ],
      "stateMutability": "pure",
      "type": "function"
    },
    {
      "inputs": [
        {
          "internalType": "address",
          "name": "",
          "type": "address"
        }
      ],
      "name": "getNominalICR",
      "outputs": [
        {
          "internalType": "uint256",
          "name": "",
          "type": "uint256"
        }
      ],
      "stateMutability": "pure",
      "type": "function"
    },
    {
      "inputs": [
        {
          "internalType": "address",
          "name": "_id",
          "type": "address"
        },
        {
          "internalType": "uint256",
          "name": "_NICR",
          "type": "uint256"
        },
        {
          "internalType": "address",
          "name": "_prevId",
          "type": "address"
        },
        {
          "internalType": "address",
          "name": "_nextId",
          "type": "address"
        }
      ],
      "name": "insert",
      "outputs": [],
      "stateMutability": "nonpayable",
      "type": "function"
    },
    {
      "inputs": [
        {
          "internalType": "address",
          "name": "_id",
          "type": "address"
        },
        {
          "internalType": "uint256",
          "name": "_newNICR",
          "type": "uint256"
        },
        {
          "internalType": "address",
          "name": "_prevId",
          "type": "address"
        },
        {
          "internalType": "address",
          "name": "_nextId",
          "type": "address"
        }
      ],
      "name": "reInsert",
      "outputs": [],
      "stateMutability": "nonpayable",
      "type": "function"
    },
    {
      "inputs": [
        {
          "internalType": "address",
          "name": "_id",
          "type": "address"
        }
      ],
      "name": "remove",
      "outputs": [],
      "stateMutability": "nonpayable",
      "type": "function"
    },
    {
      "inputs": [
        {
          "internalType": "address",
          "name": "_sortedTrovesAddress",
          "type": "address"
        }
      ],
      "name": "setSortedTroves",
      "outputs": [],
      "stateMutability": "nonpayable",
      "type": "function"
    }
  ],
  "bytecode": "0x608060405234801561001057600080fd5b5061032a806100206000396000f3fe608060405234801561001057600080fd5b50600436106100625760003560e01c806329092d0e146100675780632be212601461007c57806346f7cf871461008f578063b0d8e181146100a2578063d293c710146100c8578063e24b40d2146100de575b600080fd5b61007a610075366004610230565b61010e565b005b61007a61008a366004610252565b610170565b61007a61009d366004610252565b6101de565b6100b66100b0366004610230565b50600190565b60405190815260200160405180910390f35b6100b66100d636600461029f565b600192915050565b61007a6100ec366004610230565b600080546001600160a01b0319166001600160a01b0392909216919091179055565b600054604051631484968760e11b81526001600160a01b038381166004830152909116906329092d0e90602401600060405180830381600087803b15801561015557600080fd5b505af1158015610169573d6000803e3d6000fd5b5050505050565b60005460405163015f109360e51b81526001600160a01b0390911690632be21260906101a69087908790879087906004016102c9565b600060405180830381600087803b1580156101c057600080fd5b505af11580156101d4573d6000803e3d6000fd5b5050505050505050565b6000546040516346f7cf8760e01b81526001600160a01b03909116906346f7cf87906101a69087908790879087906004016102c9565b80356001600160a01b038116811461022b57600080fd5b919050565b60006020828403121561024257600080fd5b61024b82610214565b9392505050565b6000806000806080858703121561026857600080fd5b61027185610214565b93506020850135925061028660408601610214565b915061029460608601610214565b905092959194509250565b600080604083850312156102b257600080fd5b6102bb83610214565b946020939093013593505050565b6001600160a01b0394851681526020810193909352908316604083015290911660608201526080019056fea264697066735822122005975cf4d1e622f084ef0a06195b1e11333a371b73a817d7f081addeee2699d164736f6c63430008110033",
  "linkReferences": {},
  "deployedLinkReferences": {}
}