{
  "_format": "hh-sol-artifact-1",
  "contractName": "StabilityPoolTester",
  "sourceName": "contracts/TestContracts/StabilityPoolTester.sol",
  "abi": [
    {
      "anonymous": false,
      "inputs": [
        {
          "indexed": false,
          "internalType": "address",
          "name": "_newActivePoolAddress",
          "type": "address"
        }
      ],
      "name": "ActivePoolAddressChanged",
      "type": "event"
    },
    {
      "anonymous": false,
      "inputs": [
        {
          "indexed": false,
          "internalType": "address",
          "name": "_newBorrowerOperationsAddress",
          "type": "address"
        }
      ],
      "name": "BorrowerOperationsAddressChanged",
      "type": "event"
    },
    {
      "anonymous": false,
      "inputs": [
        {
          "indexed": false,
          "internalType": "address",
          "name": "_newCollateralAddress",
          "type": "address"
        }
      ],
      "name": "CollateralAddressChanged",
      "type": "event"
    },
    {
      "anonymous": false,
      "inputs": [
        {
          "indexed": true,
          "internalType": "address",
          "name": "_depositor",
          "type": "address"
        },
        {
          "indexed": false,
          "internalType": "uint256",
          "name": "_collateral",
          "type": "uint256"
        },
        {
          "indexed": false,
          "internalType": "uint256",
          "name": "_THUSDLoss",
          "type": "uint256"
        }
      ],
      "name": "CollateralGainWithdrawn",
      "type": "event"
    },
    {
      "anonymous": false,
      "inputs": [
        {
          "indexed": false,
          "internalType": "address",
          "name": "_to",
          "type": "address"
        },
        {
          "indexed": false,
          "internalType": "uint256",
          "name": "_amount",
          "type": "uint256"
        }
      ],
      "name": "CollateralSent",
      "type": "event"
    },
    {
      "anonymous": false,
      "inputs": [
        {
          "indexed": false,
          "internalType": "address",
          "name": "_newDefaultPoolAddress",
          "type": "address"
        }
      ],
      "name": "DefaultPoolAddressChanged",
      "type": "event"
    },
    {
      "anonymous": false,
      "inputs": [
        {
          "indexed": true,
          "internalType": "address",
          "name": "_depositor",
          "type": "address"
        },
        {
          "indexed": false,
          "internalType": "uint256",
          "name": "_P",
          "type": "uint256"
        },
        {
          "indexed": false,
          "internalType": "uint256",
          "name": "_S",
          "type": "uint256"
        }
      ],
      "name": "DepositSnapshotUpdated",
      "type": "event"
    },
    {
      "anonymous": false,
      "inputs": [
        {
          "indexed": false,
          "internalType": "uint128",
          "name": "_currentEpoch",
          "type": "uint128"
        }
      ],
      "name": "EpochUpdated",
      "type": "event"
    },
    {
      "anonymous": false,
      "inputs": [
        {
          "indexed": true,
          "internalType": "address",
          "name": "previousOwner",
          "type": "address"
        },
        {
          "indexed": true,
          "internalType": "address",
          "name": "newOwner",
          "type": "address"
        }
      ],
      "name": "OwnershipTransferred",
      "type": "event"
    },
    {
      "anonymous": false,
      "inputs": [
        {
          "indexed": false,
          "internalType": "uint256",
          "name": "_P",
          "type": "uint256"
        }
      ],
      "name": "P_Updated",
      "type": "event"
    },
    {
      "anonymous": false,
      "inputs": [
        {
          "indexed": false,
          "internalType": "address",
          "name": "_newPriceFeedAddress",
          "type": "address"
        }
      ],
      "name": "PriceFeedAddressChanged",
      "type": "event"
    },
    {
      "anonymous": false,
      "inputs": [
        {
          "indexed": false,
          "internalType": "uint256",
          "name": "_S",
          "type": "uint256"
        },
        {
          "indexed": false,
          "internalType": "uint128",
          "name": "_epoch",
          "type": "uint128"
        },
        {
          "indexed": false,
          "internalType": "uint128",
          "name": "_scale",
          "type": "uint128"
        }
      ],
      "name": "S_Updated",
      "type": "event"
    },
    {
      "anonymous": false,
      "inputs": [
        {
          "indexed": false,
          "internalType": "uint128",
          "name": "_currentScale",
          "type": "uint128"
        }
      ],
      "name": "ScaleUpdated",
      "type": "event"
    },
    {
      "anonymous": false,
      "inputs": [
        {
          "indexed": false,
          "internalType": "address",
          "name": "_newSortedTrovesAddress",
          "type": "address"
        }
      ],
      "name": "SortedTrovesAddressChanged",
      "type": "event"
    },
    {
      "anonymous": false,
      "inputs": [
        {
          "indexed": false,
          "internalType": "uint256",
          "name": "_newBalance",
          "type": "uint256"
        }
      ],
      "name": "StabilityPoolCollateralBalanceUpdated",
      "type": "event"
    },
    {
      "anonymous": false,
      "inputs": [
        {
          "indexed": false,
          "internalType": "uint256",
          "name": "_newBalance",
          "type": "uint256"
        }
      ],
      "name": "StabilityPoolTHUSDBalanceUpdated",
      "type": "event"
    },
    {
      "anonymous": false,
      "inputs": [
        {
          "indexed": false,
          "internalType": "address",
          "name": "_newTHUSDTokenAddress",
          "type": "address"
        }
      ],
      "name": "THUSDTokenAddressChanged",
      "type": "event"
    },
    {
      "anonymous": false,
      "inputs": [
        {
          "indexed": false,
          "internalType": "address",
          "name": "_newTroveManagerAddress",
          "type": "address"
        }
      ],
      "name": "TroveManagerAddressChanged",
      "type": "event"
    },
    {
      "anonymous": false,
      "inputs": [
        {
          "indexed": true,
          "internalType": "address",
          "name": "_depositor",
          "type": "address"
        },
        {
          "indexed": false,
          "internalType": "uint256",
          "name": "_newDeposit",
          "type": "uint256"
        }
      ],
      "name": "UserDepositChanged",
      "type": "event"
    },
    {
      "inputs": [],
      "name": "BORROWING_FEE_FLOOR",
      "outputs": [
        {
          "internalType": "uint256",
          "name": "",
          "type": "uint256"
        }
      ],
      "stateMutability": "view",
      "type": "function"
    },
    {
      "inputs": [],
      "name": "CCR",
      "outputs": [
        {
          "internalType": "uint256",
          "name": "",
          "type": "uint256"
        }
      ],
      "stateMutability": "view",
      "type": "function"
    },
    {
      "inputs": [],
      "name": "DECIMAL_PRECISION",
      "outputs": [
        {
          "internalType": "uint256",
          "name": "",
          "type": "uint256"
        }
      ],
      "stateMutability": "view",
      "type": "function"
    },
    {
      "inputs": [],
      "name": "MCR",
      "outputs": [
        {
          "internalType": "uint256",
          "name": "",
          "type": "uint256"
        }
      ],
      "stateMutability": "view",
      "type": "function"
    },
    {
      "inputs": [],
      "name": "MIN_NET_DEBT",
      "outputs": [
        {
          "internalType": "uint256",
          "name": "",
          "type": "uint256"
        }
      ],
      "stateMutability": "view",
      "type": "function"
    },
    {
      "inputs": [],
      "name": "NAME",
      "outputs": [
        {
          "internalType": "string",
          "name": "",
          "type": "string"
        }
      ],
      "stateMutability": "view",
      "type": "function"
    },
    {
      "inputs": [],
      "name": "P",
      "outputs": [
        {
          "internalType": "uint256",
          "name": "",
          "type": "uint256"
        }
      ],
      "stateMutability": "view",
      "type": "function"
    },
    {
      "inputs": [],
      "name": "PERCENT_DIVISOR",
      "outputs": [
        {
          "internalType": "uint256",
          "name": "",
          "type": "uint256"
        }
      ],
      "stateMutability": "view",
      "type": "function"
    },
    {
      "inputs": [],
      "name": "SCALE_FACTOR",
      "outputs": [
        {
          "internalType": "uint256",
          "name": "",
          "type": "uint256"
        }
      ],
      "stateMutability": "view",
      "type": "function"
    },
    {
      "inputs": [],
      "name": "THUSD_GAS_COMPENSATION",
      "outputs": [
        {
          "internalType": "uint256",
          "name": "",
          "type": "uint256"
        }
      ],
      "stateMutability": "view",
      "type": "function"
    },
    {
      "inputs": [],
      "name": "_100pct",
      "outputs": [
        {
          "internalType": "uint256",
          "name": "",
          "type": "uint256"
        }
      ],
      "stateMutability": "view",
      "type": "function"
    },
    {
      "inputs": [],
      "name": "activePool",
      "outputs": [
        {
          "internalType": "contract IActivePool",
          "name": "",
          "type": "address"
        }
      ],
      "stateMutability": "view",
      "type": "function"
    },
    {
      "inputs": [],
      "name": "borrowerOperations",
      "outputs": [
        {
          "internalType": "contract IBorrowerOperations",
          "name": "",
          "type": "address"
        }
      ],
      "stateMutability": "view",
      "type": "function"
    },
    {
      "inputs": [],
      "name": "collateralAddress",
      "outputs": [
        {
          "internalType": "address",
          "name": "",
          "type": "address"
        }
      ],
      "stateMutability": "view",
      "type": "function"
    },
    {
      "inputs": [],
      "name": "currentEpoch",
      "outputs": [
        {
          "internalType": "uint128",
          "name": "",
          "type": "uint128"
        }
      ],
      "stateMutability": "view",
      "type": "function"
    },
    {
      "inputs": [],
      "name": "currentScale",
      "outputs": [
        {
          "internalType": "uint128",
          "name": "",
          "type": "uint128"
        }
      ],
      "stateMutability": "view",
      "type": "function"
    },
    {
      "inputs": [],
      "name": "defaultPool",
      "outputs": [
        {
          "internalType": "contract IDefaultPool",
          "name": "",
          "type": "address"
        }
      ],
      "stateMutability": "view",
      "type": "function"
    },
    {
      "inputs": [
        {
          "internalType": "address",
          "name": "",
          "type": "address"
        }
      ],
      "name": "depositSnapshots",
      "outputs": [
        {
          "internalType": "uint256",
          "name": "S",
          "type": "uint256"
        },
        {
          "internalType": "uint256",
          "name": "P",
          "type": "uint256"
        },
        {
          "internalType": "uint128",
          "name": "scale",
          "type": "uint128"
        },
        {
          "internalType": "uint128",
          "name": "epoch",
          "type": "uint128"
        }
      ],
      "stateMutability": "view",
      "type": "function"
    },
    {
      "inputs": [
        {
          "internalType": "address",
          "name": "",
          "type": "address"
        }
      ],
      "name": "deposits",
      "outputs": [
        {
          "internalType": "uint256",
          "name": "initialValue",
          "type": "uint256"
        }
      ],
      "stateMutability": "view",
      "type": "function"
    },
    {
      "inputs": [
        {
          "internalType": "uint128",
          "name": "",
          "type": "uint128"
        },
        {
          "internalType": "uint128",
          "name": "",
          "type": "uint128"
        }
      ],
      "name": "epochToScaleToSum",
      "outputs": [
        {
          "internalType": "uint256",
          "name": "",
          "type": "uint256"
        }
      ],
      "stateMutability": "view",
      "type": "function"
    },
    {
      "inputs": [],
      "name": "getCollateralBalance",
      "outputs": [
        {
          "internalType": "uint256",
          "name": "",
          "type": "uint256"
        }
      ],
      "stateMutability": "view",
      "type": "function"
    },
    {
      "inputs": [
        {
          "internalType": "address",
          "name": "_depositor",
          "type": "address"
        }
      ],
      "name": "getCompoundedTHUSDDeposit",
      "outputs": [
        {
          "internalType": "uint256",
          "name": "",
          "type": "uint256"
        }
      ],
      "stateMutability": "view",
      "type": "function"
    },
    {
      "inputs": [
        {
          "internalType": "address",
          "name": "_depositor",
          "type": "address"
        }
      ],
      "name": "getDepositorCollateralGain",
      "outputs": [
        {
          "internalType": "uint256",
          "name": "",
          "type": "uint256"
        }
      ],
      "stateMutability": "view",
      "type": "function"
    },
    {
      "inputs": [],
      "name": "getEntireSystemColl",
      "outputs": [
        {
          "internalType": "uint256",
          "name": "entireSystemColl",
          "type": "uint256"
        }
      ],
      "stateMutability": "view",
      "type": "function"
    },
    {
      "inputs": [],
      "name": "getEntireSystemDebt",
      "outputs": [
        {
          "internalType": "uint256",
          "name": "entireSystemDebt",
          "type": "uint256"
        }
      ],
      "stateMutability": "view",
      "type": "function"
    },
    {
      "inputs": [],
      "name": "getTotalTHUSDDeposits",
      "outputs": [
        {
          "internalType": "uint256",
          "name": "",
          "type": "uint256"
        }
      ],
      "stateMutability": "view",
      "type": "function"
    },
    {
      "inputs": [],
      "name": "isOwner",
      "outputs": [
        {
          "internalType": "bool",
          "name": "",
          "type": "bool"
        }
      ],
      "stateMutability": "view",
      "type": "function"
    },
    {
      "inputs": [],
      "name": "lastCollateralError_Offset",
      "outputs": [
        {
          "internalType": "uint256",
          "name": "",
          "type": "uint256"
        }
      ],
      "stateMutability": "view",
      "type": "function"
    },
    {
      "inputs": [],
      "name": "lastTHUSDLossError_Offset",
      "outputs": [
        {
          "internalType": "uint256",
          "name": "",
          "type": "uint256"
        }
      ],
      "stateMutability": "view",
      "type": "function"
    },
    {
      "inputs": [
        {
          "internalType": "uint256",
          "name": "_debtToOffset",
          "type": "uint256"
        },
        {
          "internalType": "uint256",
          "name": "_collToAdd",
          "type": "uint256"
        }
      ],
      "name": "offset",
      "outputs": [],
      "stateMutability": "nonpayable",
      "type": "function"
    },
    {
      "inputs": [],
      "name": "owner",
      "outputs": [
        {
          "internalType": "address",
          "name": "",
          "type": "address"
        }
      ],
      "stateMutability": "view",
      "type": "function"
    },
    {
      "inputs": [],
      "name": "priceFeed",
      "outputs": [
        {
          "internalType": "contract IPriceFeed",
          "name": "",
          "type": "address"
        }
      ],
      "stateMutability": "view",
      "type": "function"
    },
    {
      "inputs": [
        {
          "internalType": "uint256",
          "name": "_amount",
          "type": "uint256"
        }
      ],
      "name": "provideToSP",
      "outputs": [],
      "stateMutability": "nonpayable",
      "type": "function"
    },
    {
      "inputs": [
        {
          "internalType": "address",
          "name": "_borrowerOperationsAddress",
          "type": "address"
        },
        {
          "internalType": "address",
          "name": "_troveManagerAddress",
          "type": "address"
        },
        {
          "internalType": "address",
          "name": "_activePoolAddress",
          "type": "address"
        },
        {
          "internalType": "address",
          "name": "_thusdTokenAddress",
          "type": "address"
        },
        {
          "internalType": "address",
          "name": "_sortedTrovesAddress",
          "type": "address"
        },
        {
          "internalType": "address",
          "name": "_priceFeedAddress",
          "type": "address"
        },
        {
          "internalType": "address",
          "name": "_collateralAddress",
          "type": "address"
        }
      ],
      "name": "setAddresses",
      "outputs": [],
      "stateMutability": "nonpayable",
      "type": "function"
    },
    {
      "inputs": [
        {
          "internalType": "uint128",
          "name": "_currentScale",
          "type": "uint128"
        }
      ],
      "name": "setCurrentScale",
      "outputs": [],
      "stateMutability": "nonpayable",
      "type": "function"
    },
    {
      "inputs": [
        {
          "internalType": "uint256",
          "name": "_totalTHUSDDeposits",
          "type": "uint256"
        }
      ],
      "name": "setTotalDeposits",
      "outputs": [],
      "stateMutability": "nonpayable",
      "type": "function"
    },
    {
      "inputs": [],
      "name": "sortedTroves",
      "outputs": [
        {
          "internalType": "contract ISortedTroves",
          "name": "",
          "type": "address"
        }
      ],
      "stateMutability": "view",
      "type": "function"
    },
    {
      "inputs": [],
      "name": "thusdToken",
      "outputs": [
        {
          "internalType": "contract ITHUSDToken",
          "name": "",
          "type": "address"
        }
      ],
      "stateMutability": "view",
      "type": "function"
    },
    {
      "inputs": [
        {
          "internalType": "address",
          "name": "newOwner",
          "type": "address"
        }
      ],
      "name": "transferOwnership",
      "outputs": [],
      "stateMutability": "nonpayable",
      "type": "function"
    },
    {
      "inputs": [],
      "name": "troveManager",
      "outputs": [
        {
          "internalType": "contract ITroveManager",
          "name": "",
          "type": "address"
        }
      ],
      "stateMutability": "view",
      "type": "function"
    },
    {
      "inputs": [],
      "name": "unprotectedPayable",
      "outputs": [],
      "stateMutability": "payable",
      "type": "function"
    },
    {
      "inputs": [
        {
          "internalType": "uint256",
          "name": "_amount",
          "type": "uint256"
        }
      ],
      "name": "updateCollateralBalance",
      "outputs": [],
      "stateMutability": "nonpayable",
      "type": "function"
    },
    {
      "inputs": [
        {
          "internalType": "address",
          "name": "_upperHint",
          "type": "address"
        },
        {
          "internalType": "address",
          "name": "_lowerHint",
          "type": "address"
        }
      ],
      "name": "withdrawCollateralGainToTrove",
      "outputs": [],
      "stateMutability": "nonpayable",
      "type": "function"
    },
    {
      "inputs": [
        {
          "internalType": "uint256",
          "name": "_amount",
          "type": "uint256"
        }
      ],
      "name": "withdrawFromSP",
      "outputs": [],
      "stateMutability": "nonpayable",
      "type": "function"
    },
    {
      "stateMutability": "payable",
      "type": "receive"
    }
  ],
  "bytecode": "0x6080604052670de0b6b3a7640000600d5534801561001c57600080fd5b50600380546001600160a01b031916339081179091556040516000907f8be0079c531659141344cd1fd0a4f28419497f9722a3daafe3b4186f6b6457e0908290a36129348061006c6000396000f3fe60806040526004361061026a5760003560e01c806377e16f1e11610144578063a20baee6116100b6578063ce4b5bbe1161007a578063ce4b5bbe146107f6578063eaa8ba7f1461080e578063f2fde38b1461082e578063f3af7c3b1461084e578063f92d343314610856578063fc7e286d1461086b57600080fd5b8063a20baee614610511578063a3f4df7e14610750578063a4e59ac814610796578063ae918754146107b6578063ba9c7485146107d657600080fd5b806386da08241161010857806386da08241461063d578063887105d3146106bc5780638b8fbd92146106d15780638da5cb5b146106e75780638f32d59b1461070557806398d99ee61461073057600080fd5b806377e16f1e146105ac57806378c77a24146105cc578063794e5724146105ec578063795d26c3146106085780637f7dde4a1461061d57600080fd5b80634870dd9a116101dd5780635914d0c8116101a15780635914d0c8146104db5780635af658b6146104fb57806372fe25aa14610511578063741bef1a1461052d578063766718081461054d57806377553ad41461058c57600080fd5b80634870dd9a1461042d57806348d399e71461044257806350f592db146104625780635205a4791461049f5780635733d58f146104bf57600080fd5b806328a0a04d1161022f57806328a0a04d146103465780632e54bf951461037e578063307d3612146103a0578063335525ad146103c05780633cc74225146103e05780633d83908a1461040d57600080fd5b8062ba85b5146102b957806301081fda146102e25780631529a639146102f75780631bf435551461030c5780631fd6a4341461032957600080fd5b366102b457610277610898565b346009600082825461028991906124de565b90915550506009546040519081526000805160206128df8339815191529060200160405180910390a1005b600080fd5b3480156102c557600080fd5b506102cf60105481565b6040519081526020015b60405180910390f35b3480156102ee57600080fd5b50600a546102cf565b34801561030357600080fd5b506009546102cf565b34801561031857600080fd5b506102cf686194049f30f720000081565b34801561033557600080fd5b506102cf680ad78ebc5ac620000081565b34801561035257600080fd5b506102cf61036136600461250d565b600f60209081526000928352604080842090915290825290205481565b34801561038a57600080fd5b5061039e610399366004612540565b610909565b005b3480156103ac57600080fd5b506102cf6103bb36600461256e565b6109e6565b3480156103cc57600080fd5b5061039e6103db366004612592565b610a79565b3480156103ec57600080fd5b50600154610400906001600160a01b031681565b6040516102d991906125b4565b34801561041957600080fd5b50600654610400906001600160a01b031681565b34801561043957600080fd5b506102cf60c881565b34801561044e57600080fd5b50600454610400906001600160a01b031681565b34801561046e57600080fd5b5061039e61047d3660046125c8565b600e80546001600160801b0319166001600160801b0392909216919091179055565b3480156104ab57600080fd5b506102cf6104ba36600461256e565b610ac6565b3480156104cb57600080fd5b506102cf6714d1120d7b16000081565b3480156104e757600080fd5b5061039e6104f63660046125e3565b610b50565b34801561050757600080fd5b506102cf60115481565b34801561051d57600080fd5b506102cf670de0b6b3a764000081565b34801561053957600080fd5b50600254610400906001600160a01b031681565b34801561055957600080fd5b50600e5461057490600160801b90046001600160801b031681565b6040516001600160801b0390911681526020016102d9565b34801561059857600080fd5b50600554610400906001600160a01b031681565b3480156105b857600080fd5b50600754610400906001600160a01b031681565b3480156105d857600080fd5b5061039e6105e7366004612540565b610d61565b3480156105f857600080fd5b506102cf670f43fc2c04ee000081565b34801561061457600080fd5b506102cf610e18565b34801561062957600080fd5b50600054610400906001600160a01b031681565b34801561064957600080fd5b5061068d61065836600461256e565b600c602052600090815260409020805460018201546002909201549091906001600160801b0380821691600160801b90041684565b6040805194855260208501939093526001600160801b03918216928401929092521660608201526080016102d9565b3480156106c857600080fd5b506102cf610f14565b3480156106dd57600080fd5b506102cf600d5481565b3480156106f357600080fd5b506003546001600160a01b0316610400565b34801561071157600080fd5b506003546001600160a01b0316331460405190151581526020016102d9565b34801561073c57600080fd5b5061039e61074b366004612540565b610fd9565b34801561075c57600080fd5b506107896040518060400160405280600d81526020016c14dd18589a5b1a5d1e541bdbdb609a1b81525081565b6040516102d9919061261c565b3480156107a257600080fd5b50600e54610574906001600160801b031681565b3480156107c257600080fd5b50600854610400906001600160a01b031681565b3480156107e257600080fd5b5061039e6107f1366004612540565b600a55565b34801561080257600080fd5b506102cf633b9aca0081565b34801561081a57600080fd5b5061039e61082936600461266a565b61101f565b34801561083a57600080fd5b5061039e61084936600461256e565b61128f565b61039e61132a565b34801561086257600080fd5b506102cf611343565b34801561087757600080fd5b506102cf61088636600461256e565b600b6020526000908152604090205481565b6000546001600160a01b031633146109075760405162461bcd60e51b815260206004820152602760248201527f53746162696c697479506f6f6c3a2043616c6c6572206973206e6f74204163746044820152661a5d99541bdbdb60ca1b60648201526084015b60405180910390fd5b565b801561091757610917611365565b336000908152600b60205260409020546109308161155b565b600061093b336109e6565b9050600061094833610ac6565b9050600061095685836115c4565b905060006109648386612700565b905061097033836115de565b600061097c8385612700565b9050610988338261165d565b60405181815233906000805160206128bf8339815191529060200160405180910390a26040805186815260208101849052339160008051602061289f833981519152910160405180910390a26109dd85611794565b50505050505050565b6001600160a01b0381166000908152600b6020526040812054808203610a0f5750600092915050565b6001600160a01b0383166000908152600c60209081526040808320815160808101835281548152600182015493810193909352600201546001600160801b0380821692840192909252600160801b900416606082015290610a708383611828565b95945050505050565b610a8161190b565b600a54801580610a8f575082155b15610a9957505050565b600080610aa7848685611977565b91509150610ab58282611a4c565b610abf8486611d25565b5050505050565b6001600160a01b0381166000908152600b6020526040812054808203610aef5750600092915050565b6001600160a01b0383166000908152600c60209081526040808320815160808101835281548152600182015493810193909352600201546001600160801b0380821692840192909252600160801b900416606082015290610a708383611e4e565b336000908152600b6020526040902054610b698161155b565b610b7233611f3e565b610b7b3361203a565b6000610b86336109e6565b90506000610b9333610ac6565b90506000610ba18285612700565b9050610bad338361165d565b6040805184815260208101839052339160008051602061289f833981519152910160405180910390a260405182815233906000805160206128bf8339815191529060200160405180910390a28260096000828254610c0b9190612700565b90915550506009546040519081526000805160206128df8339815191529060200160405180910390a17f342693d2465f6f44931e41128424a0227e0cbc69d1c3917a839e6de71696d44c3384604051610c65929190612713565b60405180910390a16004546001600160a01b0316610ced5760055460405163abfad25d60e01b81526001600160a01b039091169063abfad25d908590610cb69033906000908c908c9060040161272c565b6000604051808303818588803b158015610ccf57600080fd5b505af1158015610ce3573d6000803e3d6000fd5b5050505050610d59565b60055460405163abfad25d60e01b81526001600160a01b039091169063abfad25d90600090610d2690339088908c908c9060040161272c565b6000604051808303818588803b158015610d3f57600080fd5b505af1158015610d53573d6000803e3d6000fd5b50505050505b505050505050565b610d6a816120b8565b336000818152600b602052604081205491610d84906109e6565b90506000610d9133610ac6565b90506000610d9f8285612700565b9050610dab3386612117565b6000610db786846124de565b9050610dc3338261165d565b60405181815233906000805160206128bf8339815191529060200160405180910390a26040805185815260208101849052339160008051602061289f833981519152910160405180910390a2610d5984611794565b600080546040805163f07424e960e01b8152905183926001600160a01b03169163f07424e99160048083019260209291908290030181865afa158015610e62573d6000803e3d6000fd5b505050506040513d601f19601f82011682018060405250810190610e869190612757565b90506000600160009054906101000a90046001600160a01b03166001600160a01b031663f07424e96040518163ffffffff1660e01b8152600401602060405180830381865afa158015610edd573d6000803e3d6000fd5b505050506040513d601f19601f82011682018060405250810190610f019190612757565b9050610f0d81836124de565b9250505090565b6000805460408051631529a63960e01b8152905183926001600160a01b031691631529a6399160048083019260209291908290030181865afa158015610f5e573d6000803e3d6000fd5b505050506040513d601f19601f82011682018060405250810190610f829190612757565b90506000600160009054906101000a90046001600160a01b03166001600160a01b0316631529a6396040518163ffffffff1660e01b8152600401602060405180830381865afa158015610edd573d6000803e3d6000fd5b610fe1610898565b8060096000828254610ff391906124de565b90915550506009546040519081526000805160206128df8339815191529060200160405180910390a150565b6003546001600160a01b031633146110495760405162461bcd60e51b81526004016108fe90612770565b611052876121cd565b61105b866121cd565b611064856121cd565b61106d846121cd565b611076836121cd565b61107f826121cd565b6001600160a01b0381161561109757611097816121cd565b600580546001600160a01b03199081166001600160a01b038a811691909117909255600680548216898416179055600080548216888416179055600780548216878416179055600880548216868416179055600280548216858416179055600480549091169183169190911790556040517f3ca631ffcd2a9b5d9ae18543fc82f58eb4ca33af9e6ab01b7a8e95331e6ed985906111359089906125b4565b60405180910390a17f143219c9e69b09e07e095fcc889b43d8f46ca892bba65f08dc3a0050869a56788660405161116c91906125b4565b60405180910390a17f78f058b189175430c48dc02699e3a0031ea4ff781536dc2fab847de4babdd882856040516111a391906125b4565b60405180910390a17fe1e858a66c0bbbcdfa22d58dde1e5d42370be20cdb176e560287f85412e546e0846040516111da91906125b4565b60405180910390a17f65f4cf077bc01e4742eb5ad98326f6e95b63548ea24b17f8d5e823111fe788008360405161121191906125b4565b60405180910390a17f8c537274438aa850a330284665d81a85dd38267d09e4050d416bfc94142db2648260405161124891906125b4565b60405180910390a17ffba7421f3d1a98e80d72491a6e0523133444a5842cc7310951d8b82d075a7dff8160405161127f91906125b4565b60405180910390a16109dd612272565b6003546001600160a01b031633146112b95760405162461bcd60e51b81526004016108fe90612770565b6001600160a01b03811661131e5760405162461bcd60e51b815260206004820152602660248201527f4f776e61626c653a206e6577206f776e657220697320746865207a65726f206160448201526564647265737360d01b60648201526084016108fe565b611327816122bc565b50565b346009600082825461133c91906124de565b9091555050565b6113576103e8670de0b6b3a76400006127a5565b6113629060056127c7565b81565b60025460408051630fdb11cf60e01b815290516000926001600160a01b031691630fdb11cf916004808301926020929190829003018187875af11580156113b0573d6000803e3d6000fd5b505050506040513d601f19601f820116820180604052508101906113d49190612757565b90506000600860009054906101000a90046001600160a01b03166001600160a01b0316634d6228316040518163ffffffff1660e01b8152600401602060405180830381865afa15801561142b573d6000803e3d6000fd5b505050506040513d601f19601f8201168201806040525081019061144f91906127de565b600654604051630d293c7160e41b81529192506000916001600160a01b039091169063d293c710906114879085908790600401612713565b602060405180830381865afa1580156114a4573d6000803e3d6000fd5b505050506040513d601f19601f820116820180604052508101906114c89190612757565b9050670f43fc2c04ee00008110156115565760405162461bcd60e51b8152602060048201526044602482018190527f53746162696c697479506f6f6c3a2043616e6e6f742077697468647261772077908201527f68696c65207468657265206172652074726f766573207769746820494352203c6064820152631026a1a960e11b608482015260a4016108fe565b505050565b600081116113275760405162461bcd60e51b815260206004820152603060248201527f53746162696c697479506f6f6c3a2055736572206d757374206861766520612060448201526f1b9bdb8b5e995c9bc819195c1bdcda5d60821b60648201526084016108fe565b60008183106115d357816115d5565b825b90505b92915050565b806000036115ea575050565b600754604051631062c15f60e11b81526001600160a01b03909116906320c582be9061161e903090869086906004016127fb565b600060405180830381600087803b15801561163857600080fd5b505af115801561164c573d6000803e3d6000fd5b505050506116598161230e565b5050565b6001600160a01b0382166000908152600b602052604081208290558190036116eb576001600160a01b0382166000818152600c602052604080822082815560018101839055600201829055517fc48943df4095f4f20d171fd2872eafdc0eed4d9014ac3672f3bde7fd425449d5916116df918190918252602082015260400190565b60405180910390a25050565b600e54600d546001600160801b03600160801b80840482166000818152600f6020908152604080832095909716808352948152868220546001600160a01b038a16808452600c8352928890206001810188905581815594840286176002909501949094558651868152908101849052939591949390917fc48943df4095f4f20d171fd2872eafdc0eed4d9014ac3672f3bde7fd425449d5910160405180910390a2505050505050565b8060000361179f5750565b6000816009546117af9190612700565b60098190556040518181529091506000805160206128df8339815191529060200160405180910390a17f342693d2465f6f44931e41128424a0227e0cbc69d1c3917a839e6de71696d44c3383604051611809929190612713565b60405180910390a1600454611659906001600160a01b0316338461235d565b606081015160408083015183516020808601516001600160801b038087166000908152600f8452868120918616815292529381205490949390859061186e908490612700565b6001600160801b0386166000908152600f6020526040812091925090633b9aca00908261189c88600161281f565b6001600160801b03166001600160801b03168152602001908152602001600020546118c791906127a5565b90506000670de0b6b3a7640000846118df84866124de565b6118e9908d6127c7565b6118f391906127a5565b6118fd91906127a5565b9a9950505050505050505050565b6006546001600160a01b031633146109075760405162461bcd60e51b815260206004820152602960248201527f53746162696c697479506f6f6c3a2043616c6c6572206973206e6f742054726f6044820152683b32a6b0b730b3b2b960b91b60648201526084016108fe565b6000806000601054670de0b6b3a76400008761199391906127c7565b61199d91906124de565b9050838511156119af576119af612846565b8385036119cb576000601155670de0b6b3a76400009150611a20565b6011546000906119e3670de0b6b3a7640000886127c7565b6119ed9190612700565b90506119f985826127a5565b611a049060016124de565b925080611a1186856127c7565b611a1b9190612700565b601155505b611a2a84826127a5565b9250611a3684846127c7565b611a409082612700565b60105550935093915050565b600d546000670de0b6b3a7640000831115611a6957611a69612846565b6000611a7d84670de0b6b3a7640000612700565b600e546001600160801b03600160801b820481166000818152600f60209081526040808320949095168083529390529283205493945090929091611ac1878a6127c7565b90506000611acf82846124de565b6001600160801b038581166000818152600f60209081526040808320948b16808452948252918290208590558151858152908101929092528101919091529091507fe12e2cd2c9afa8069203ca07e7eff1edce4a075686d0736a8e7e0d593597b2079060600160405180910390a185600003611bf957611b5084600161281f565b600e80546001600160801b03908116600160801b93821684021791829055604051929091041681527fb50f0f59e7cb5b421dc77581c3a9919e3806e076e5fa78a874c3f120cb7d874d9060200160405180910390a1600e80546001600160801b0319169055604051600081527f1f9dfc70cd666adb18a39d60a797518f7b4febf4b6e24ef37d44f6e1e7219fbe9060200160405180910390a1670de0b6b3a76400009650611cd1565b633b9aca00670de0b6b3a7640000611c11888b6127c7565b611c1b91906127a5565b1015611cb157670de0b6b3a7640000633b9aca00611c39888b6127c7565b611c4391906127c7565b611c4d91906127a5565b9650611c5a85600161281f565b600e80546001600160801b0319166001600160801b039290921691821790556040519081527f1f9dfc70cd666adb18a39d60a797518f7b4febf4b6e24ef37d44f6e1e7219fbe9060200160405180910390a1611cd1565b670de0b6b3a7640000611cc4878a6127c7565b611cce91906127a5565b96505b60008711611ce157611ce1612846565b600d8790556040518781527fc1a9618cb59ebca77cbdbc2949f126823c407ff13edb285fd0262519a9c18e8c9060200160405180910390a150505050505050505050565b600054604051637b7fc9eb60e11b8152600481018390526001600160a01b0390911690819063f6ff93d690602401600060405180830381600087803b158015611d6d57600080fd5b505af1158015611d81573d6000803e3d6000fd5b50505050611d8e8261230e565b600754604051632770a7eb60e21b81526001600160a01b0390911690639dc29fac90611dc09030908690600401612713565b600060405180830381600087803b158015611dda57600080fd5b505af1158015611dee573d6000803e3d6000fd5b5050604051636250216960e01b81526001600160a01b038416925063625021699150611e209030908790600401612713565b600060405180830381600087803b158015611e3a57600080fd5b505af11580156109dd573d6000803e3d6000fd5b602081015160408201516060830151600e546000939291906001600160801b03600160801b90910481169082161015611e8d57600093505050506115d8565b600e546000908190611ea99085906001600160801b031661285c565b9050806001600160801b0316600003611edc5784600d5489611ecb91906127c7565b611ed591906127a5565b9150611f10565b806001600160801b0316600103611f0b57633b9aca0085600d548a611f0191906127c7565b611ecb91906127a5565b600091505b611f1e633b9aca00896127a5565b821015611f33576000955050505050506115d8565b509695505050505050565b6006546040516321e3780160e01b81526001600160a01b03909116906321e3780190611f6e9084906004016125b4565b602060405180830381865afa158015611f8b573d6000803e3d6000fd5b505050506040513d601f19601f82011682018060405250810190611faf9190612757565b6001146113275760405162461bcd60e51b815260206004820152604d60248201527f53746162696c697479506f6f6c3a2063616c6c6572206d75737420686176652060448201527f616e206163746976652074726f766520746f20776974686472617720636f6c6160648201526c6c746572616c4761696e20746f60981b608482015260a4016108fe565b6000612045826109e6565b9050600081116116595760405162461bcd60e51b815260206004820152603860248201527f53746162696c697479506f6f6c3a2063616c6c6572206d7573742068617665206044820152773737b716bd32b9379031b7b63630ba32b930b61023b0b4b760411b60648201526084016108fe565b600081116113275760405162461bcd60e51b815260206004820152602660248201527f53746162696c697479506f6f6c3a20416d6f756e74206d757374206265206e6f6044820152656e2d7a65726f60d01b60648201526084016108fe565b600754604051632ee65eeb60e21b81526001600160a01b039091169063bb997bac9061214b908590309086906004016127fb565b600060405180830381600087803b15801561216557600080fd5b505af1158015612179573d6000803e3d6000fd5b50505050600081600a5461218d91906124de565b600a8190556040518181529091507fcacce180ae93727cdc9bb9c98e40c99de5dd6690f7b1fc58abfd51dc7d16469d9060200160405180910390a1505050565b6001600160a01b0381166122235760405162461bcd60e51b815260206004820152601e60248201527f4163636f756e742063616e6e6f74206265207a65726f2061646472657373000060448201526064016108fe565b803b806116595760405162461bcd60e51b815260206004820181905260248201527f4163636f756e7420636f64652073697a652063616e6e6f74206265207a65726f60448201526064016108fe565b6003546040516000916001600160a01b0316907f8be0079c531659141344cd1fd0a4f28419497f9722a3daafe3b4186f6b6457e0908390a3600380546001600160a01b0319169055565b600380546001600160a01b038381166001600160a01b0319831681179093556040519116919082907f8be0079c531659141344cd1fd0a4f28419497f9722a3daafe3b4186f6b6457e090600090a35050565b600081600a5461231e9190612700565b600a8190556040518181529091507fcacce180ae93727cdc9bb9c98e40c99de5dd6690f7b1fc58abfd51dc7d16469d9060200160405180910390a15050565b6001600160a01b038316612409576000826001600160a01b03168260405160006040518083038185875af1925050503d80600081146123b8576040519150601f19603f3d011682016040523d82523d6000602084013e6123bd565b606091505b50509050806124035760405162461bcd60e51b815260206004820152601260248201527114d95b991a5b99c81155120819985a5b195960721b60448201526064016108fe565b50505050565b60405163a9059cbb60e01b81526000906001600160a01b0385169063a9059cbb9061243a9086908690600401612713565b6020604051808303816000875af1158015612459573d6000803e3d6000fd5b505050506040513d601f19601f8201168201806040525081019061247d919061287c565b9050806124035760405162461bcd60e51b815260206004820152601960248201527814d95b991a5b99c818dbdb1b185d195c985b0819985a5b1959603a1b60448201526064016108fe565b634e487b7160e01b600052601160045260246000fd5b808201808211156115d8576115d86124c8565b80356001600160801b038116811461250857600080fd5b919050565b6000806040838503121561252057600080fd5b612529836124f1565b9150612537602084016124f1565b90509250929050565b60006020828403121561255257600080fd5b5035919050565b6001600160a01b038116811461132757600080fd5b60006020828403121561258057600080fd5b813561258b81612559565b9392505050565b600080604083850312156125a557600080fd5b50508035926020909101359150565b6001600160a01b0391909116815260200190565b6000602082840312156125da57600080fd5b6115d5826124f1565b600080604083850312156125f657600080fd5b823561260181612559565b9150602083013561261181612559565b809150509250929050565b600060208083528351808285015260005b818110156126495785810183015185820160400152820161262d565b506000604082860101526040601f19601f8301168501019250505092915050565b600080600080600080600060e0888a03121561268557600080fd5b873561269081612559565b965060208801356126a081612559565b955060408801356126b081612559565b945060608801356126c081612559565b935060808801356126d081612559565b925060a08801356126e081612559565b915060c08801356126f081612559565b8091505092959891949750929550565b818103818111156115d8576115d86124c8565b6001600160a01b03929092168252602082015260400190565b6001600160a01b03948516815260208101939093529083166040830152909116606082015260800190565b60006020828403121561276957600080fd5b5051919050565b6020808252818101527f4f776e61626c653a2063616c6c6572206973206e6f7420746865206f776e6572604082015260600190565b6000826127c257634e487b7160e01b600052601260045260246000fd5b500490565b80820281158282048414176115d8576115d86124c8565b6000602082840312156127f057600080fd5b815161258b81612559565b6001600160a01b039384168152919092166020820152604081019190915260600190565b6001600160801b0381811683821601908082111561283f5761283f6124c8565b5092915050565b634e487b7160e01b600052600160045260246000fd5b6001600160801b0382811682821603908082111561283f5761283f6124c8565b60006020828403121561288e57600080fd5b8151801515811461258b57600080fdfe47647c495a7db9471a1b024b3c6f7555a502a0de4b130d83a4d3c8f9cff25939bce78369dccab09eec1986f4d409ab09ffbb47d65423e5148fcf98411c5111c95745610f99463e502f9c3333585fe329b498e36b00b8c1bdfd8dc87dfe35b5eaa2646970667358221220dbb7d97013eb5aa114902fc8474df890243d8641346a1f0032521a3316a4b26464736f6c63430008110033",
  "linkReferences": {},
  "deployedLinkReferences": {}
}