{
  "_format": "hh-sol-artifact-1",
  "contractName": "StabilityPoolScript",
  "sourceName": "contracts/Proxy/StabilityPoolScript.sol",
  "abi": [
    {
      "inputs": [
        {
          "internalType": "contract IStabilityPool",
          "name": "_stabilityPool",
          "type": "address"
        }
      ],
      "stateMutability": "nonpayable",
      "type": "constructor"
    },
    {
      "inputs": [],
      "name": "NAME",
      "outputs": [
        {
          "internalType": "string",
          "name": "",
          "type": "string"
        }
      ],
      "stateMutability": "view",
      "type": "function"
    },
    {
      "inputs": [
        {
          "internalType": "uint256",
          "name": "_amount",
          "type": "uint256"
        }
      ],
      "name": "provideToSP",
      "outputs": [],
      "stateMutability": "nonpayable",
      "type": "function"
    },
    {
      "inputs": [
        {
          "internalType": "address",
          "name": "_upperHint",
          "type": "address"
        },
        {
          "internalType": "address",
          "name": "_lowerHint",
          "type": "address"
        }
      ],
      "name": "withdrawCollateralGainToTrove",
      "outputs": [],
      "stateMutability": "nonpayable",
      "type": "function"
    },
    {
      "inputs": [
        {
          "internalType": "uint256",
          "name": "_amount",
          "type": "uint256"
        }
      ],
      "name": "withdrawFromSP",
      "outputs": [],
      "stateMutability": "nonpayable",
      "type": "function"
    }
  ],
  "bytecode": "0x60a060405234801561001057600080fd5b5060405161046138038061046183398101604081905261002f916100f7565b61003881610049565b6001600160a01b0316608052610127565b6001600160a01b0381166100a45760405162461bcd60e51b815260206004820152601e60248201527f4163636f756e742063616e6e6f74206265207a65726f2061646472657373000060448201526064015b60405180910390fd5b803b806100f35760405162461bcd60e51b815260206004820181905260248201527f4163636f756e7420636f64652073697a652063616e6e6f74206265207a65726f604482015260640161009b565b5050565b60006020828403121561010957600080fd5b81516001600160a01b038116811461012057600080fd5b9392505050565b60805161031261014f6000396000818160ea0152818161017901526101ef01526103126000f3fe608060405234801561001057600080fd5b506004361061004c5760003560e01c80632e54bf95146100515780635914d0c81461006657806378c77a2414610079578063a3f4df7e1461008c575b600080fd5b61006461005f366004610226565b6100d4565b005b61006461007436600461025b565b610152565b610064610087366004610226565b6101d9565b6100be6040518060400160405280601381526020017214dd18589a5b1a5d1e541bdbdb14d8dc9a5c1d606a1b81525081565b6040516100cb919061028e565b60405180910390f35b604051632e54bf9560e01b8152600481018290527f00000000000000000000000000000000000000000000000000000000000000006001600160a01b031690632e54bf95906024015b600060405180830381600087803b15801561013757600080fd5b505af115801561014b573d6000803e3d6000fd5b5050505050565b604051630b229a1960e31b81526001600160a01b03838116600483015282811660248301527f00000000000000000000000000000000000000000000000000000000000000001690635914d0c890604401600060405180830381600087803b1580156101bd57600080fd5b505af11580156101d1573d6000803e3d6000fd5b505050505050565b604051631e31de8960e21b8152600481018290527f00000000000000000000000000000000000000000000000000000000000000006001600160a01b0316906378c77a249060240161011d565b60006020828403121561023857600080fd5b5035919050565b80356001600160a01b038116811461025657600080fd5b919050565b6000806040838503121561026e57600080fd5b6102778361023f565b91506102856020840161023f565b90509250929050565b600060208083528351808285015260005b818110156102bb5785810183015185820160400152820161029f565b506000604082860101526040601f19601f830116850101925050509291505056fea2646970667358221220f92a1ce782531dabf5260763090325ae3a29f37987a2de7a6ddf05d435c68de864736f6c63430008110033",
  "linkReferences": {},
  "deployedLinkReferences": {}
}