{
  "_format": "hh-sol-artifact-1",
  "contractName": "StabilityPool",
  "sourceName": "contracts/StabilityPool.sol",
  "abi": [
    {
      "anonymous": false,
      "inputs": [
        {
          "indexed": false,
          "internalType": "address",
          "name": "_newActivePoolAddress",
          "type": "address"
        }
      ],
      "name": "ActivePoolAddressChanged",
      "type": "event"
    },
    {
      "anonymous": false,
      "inputs": [
        {
          "indexed": false,
          "internalType": "address",
          "name": "_newBorrowerOperationsAddress",
          "type": "address"
        }
      ],
      "name": "BorrowerOperationsAddressChanged",
      "type": "event"
    },
    {
      "anonymous": false,
      "inputs": [
        {
          "indexed": false,
          "internalType": "address",
          "name": "_newCollateralAddress",
          "type": "address"
        }
      ],
      "name": "CollateralAddressChanged",
      "type": "event"
    },
    {
      "anonymous": false,
      "inputs": [
        {
          "indexed": true,
          "internalType": "address",
          "name": "_depositor",
          "type": "address"
        },
        {
          "indexed": false,
          "internalType": "uint256",
          "name": "_collateral",
          "type": "uint256"
        },
        {
          "indexed": false,
          "internalType": "uint256",
          "name": "_THUSDLoss",
          "type": "uint256"
        }
      ],
      "name": "CollateralGainWithdrawn",
      "type": "event"
    },
    {
      "anonymous": false,
      "inputs": [
        {
          "indexed": false,
          "internalType": "address",
          "name": "_to",
          "type": "address"
        },
        {
          "indexed": false,
          "internalType": "uint256",
          "name": "_amount",
          "type": "uint256"
        }
      ],
      "name": "CollateralSent",
      "type": "event"
    },
    {
      "anonymous": false,
      "inputs": [
        {
          "indexed": false,
          "internalType": "address",
          "name": "_newDefaultPoolAddress",
          "type": "address"
        }
      ],
      "name": "DefaultPoolAddressChanged",
      "type": "event"
    },
    {
      "anonymous": false,
      "inputs": [
        {
          "indexed": true,
          "internalType": "address",
          "name": "_depositor",
          "type": "address"
        },
        {
          "indexed": false,
          "internalType": "uint256",
          "name": "_P",
          "type": "uint256"
        },
        {
          "indexed": false,
          "internalType": "uint256",
          "name": "_S",
          "type": "uint256"
        }
      ],
      "name": "DepositSnapshotUpdated",
      "type": "event"
    },
    {
      "anonymous": false,
      "inputs": [
        {
          "indexed": false,
          "internalType": "uint128",
          "name": "_currentEpoch",
          "type": "uint128"
        }
      ],
      "name": "EpochUpdated",
      "type": "event"
    },
    {
      "anonymous": false,
      "inputs": [
        {
          "indexed": true,
          "internalType": "address",
          "name": "previousOwner",
          "type": "address"
        },
        {
          "indexed": true,
          "internalType": "address",
          "name": "newOwner",
          "type": "address"
        }
      ],
      "name": "OwnershipTransferred",
      "type": "event"
    },
    {
      "anonymous": false,
      "inputs": [
        {
          "indexed": false,
          "internalType": "uint256",
          "name": "_P",
          "type": "uint256"
        }
      ],
      "name": "P_Updated",
      "type": "event"
    },
    {
      "anonymous": false,
      "inputs": [
        {
          "indexed": false,
          "internalType": "address",
          "name": "_newPriceFeedAddress",
          "type": "address"
        }
      ],
      "name": "PriceFeedAddressChanged",
      "type": "event"
    },
    {
      "anonymous": false,
      "inputs": [
        {
          "indexed": false,
          "internalType": "uint256",
          "name": "_S",
          "type": "uint256"
        },
        {
          "indexed": false,
          "internalType": "uint128",
          "name": "_epoch",
          "type": "uint128"
        },
        {
          "indexed": false,
          "internalType": "uint128",
          "name": "_scale",
          "type": "uint128"
        }
      ],
      "name": "S_Updated",
      "type": "event"
    },
    {
      "anonymous": false,
      "inputs": [
        {
          "indexed": false,
          "internalType": "uint128",
          "name": "_currentScale",
          "type": "uint128"
        }
      ],
      "name": "ScaleUpdated",
      "type": "event"
    },
    {
      "anonymous": false,
      "inputs": [
        {
          "indexed": false,
          "internalType": "address",
          "name": "_newSortedTrovesAddress",
          "type": "address"
        }
      ],
      "name": "SortedTrovesAddressChanged",
      "type": "event"
    },
    {
      "anonymous": false,
      "inputs": [
        {
          "indexed": false,
          "internalType": "uint256",
          "name": "_newBalance",
          "type": "uint256"
        }
      ],
      "name": "StabilityPoolCollateralBalanceUpdated",
      "type": "event"
    },
    {
      "anonymous": false,
      "inputs": [
        {
          "indexed": false,
          "internalType": "uint256",
          "name": "_newBalance",
          "type": "uint256"
        }
      ],
      "name": "StabilityPoolTHUSDBalanceUpdated",
      "type": "event"
    },
    {
      "anonymous": false,
      "inputs": [
        {
          "indexed": false,
          "internalType": "address",
          "name": "_newTHUSDTokenAddress",
          "type": "address"
        }
      ],
      "name": "THUSDTokenAddressChanged",
      "type": "event"
    },
    {
      "anonymous": false,
      "inputs": [
        {
          "indexed": false,
          "internalType": "address",
          "name": "_newTroveManagerAddress",
          "type": "address"
        }
      ],
      "name": "TroveManagerAddressChanged",
      "type": "event"
    },
    {
      "anonymous": false,
      "inputs": [
        {
          "indexed": true,
          "internalType": "address",
          "name": "_depositor",
          "type": "address"
        },
        {
          "indexed": false,
          "internalType": "uint256",
          "name": "_newDeposit",
          "type": "uint256"
        }
      ],
      "name": "UserDepositChanged",
      "type": "event"
    },
    {
      "inputs": [],
      "name": "BORROWING_FEE_FLOOR",
      "outputs": [
        {
          "internalType": "uint256",
          "name": "",
          "type": "uint256"
        }
      ],
      "stateMutability": "view",
      "type": "function"
    },
    {
      "inputs": [],
      "name": "CCR",
      "outputs": [
        {
          "internalType": "uint256",
          "name": "",
          "type": "uint256"
        }
      ],
      "stateMutability": "view",
      "type": "function"
    },
    {
      "inputs": [],
      "name": "DECIMAL_PRECISION",
      "outputs": [
        {
          "internalType": "uint256",
          "name": "",
          "type": "uint256"
        }
      ],
      "stateMutability": "view",
      "type": "function"
    },
    {
      "inputs": [],
      "name": "MCR",
      "outputs": [
        {
          "internalType": "uint256",
          "name": "",
          "type": "uint256"
        }
      ],
      "stateMutability": "view",
      "type": "function"
    },
    {
      "inputs": [],
      "name": "MIN_NET_DEBT",
      "outputs": [
        {
          "internalType": "uint256",
          "name": "",
          "type": "uint256"
        }
      ],
      "stateMutability": "view",
      "type": "function"
    },
    {
      "inputs": [],
      "name": "NAME",
      "outputs": [
        {
          "internalType": "string",
          "name": "",
          "type": "string"
        }
      ],
      "stateMutability": "view",
      "type": "function"
    },
    {
      "inputs": [],
      "name": "P",
      "outputs": [
        {
          "internalType": "uint256",
          "name": "",
          "type": "uint256"
        }
      ],
      "stateMutability": "view",
      "type": "function"
    },
    {
      "inputs": [],
      "name": "PERCENT_DIVISOR",
      "outputs": [
        {
          "internalType": "uint256",
          "name": "",
          "type": "uint256"
        }
      ],
      "stateMutability": "view",
      "type": "function"
    },
    {
      "inputs": [],
      "name": "SCALE_FACTOR",
      "outputs": [
        {
          "internalType": "uint256",
          "name": "",
          "type": "uint256"
        }
      ],
      "stateMutability": "view",
      "type": "function"
    },
    {
      "inputs": [],
      "name": "THUSD_GAS_COMPENSATION",
      "outputs": [
        {
          "internalType": "uint256",
          "name": "",
          "type": "uint256"
        }
      ],
      "stateMutability": "view",
      "type": "function"
    },
    {
      "inputs": [],
      "name": "_100pct",
      "outputs": [
        {
          "internalType": "uint256",
          "name": "",
          "type": "uint256"
        }
      ],
      "stateMutability": "view",
      "type": "function"
    },
    {
      "inputs": [],
      "name": "activePool",
      "outputs": [
        {
          "internalType": "contract IActivePool",
          "name": "",
          "type": "address"
        }
      ],
      "stateMutability": "view",
      "type": "function"
    },
    {
      "inputs": [],
      "name": "borrowerOperations",
      "outputs": [
        {
          "internalType": "contract IBorrowerOperations",
          "name": "",
          "type": "address"
        }
      ],
      "stateMutability": "view",
      "type": "function"
    },
    {
      "inputs": [],
      "name": "collateralAddress",
      "outputs": [
        {
          "internalType": "address",
          "name": "",
          "type": "address"
        }
      ],
      "stateMutability": "view",
      "type": "function"
    },
    {
      "inputs": [],
      "name": "currentEpoch",
      "outputs": [
        {
          "internalType": "uint128",
          "name": "",
          "type": "uint128"
        }
      ],
      "stateMutability": "view",
      "type": "function"
    },
    {
      "inputs": [],
      "name": "currentScale",
      "outputs": [
        {
          "internalType": "uint128",
          "name": "",
          "type": "uint128"
        }
      ],
      "stateMutability": "view",
      "type": "function"
    },
    {
      "inputs": [],
      "name": "defaultPool",
      "outputs": [
        {
          "internalType": "contract IDefaultPool",
          "name": "",
          "type": "address"
        }
      ],
      "stateMutability": "view",
      "type": "function"
    },
    {
      "inputs": [
        {
          "internalType": "address",
          "name": "",
          "type": "address"
        }
      ],
      "name": "depositSnapshots",
      "outputs": [
        {
          "internalType": "uint256",
          "name": "S",
          "type": "uint256"
        },
        {
          "internalType": "uint256",
          "name": "P",
          "type": "uint256"
        },
        {
          "internalType": "uint128",
          "name": "scale",
          "type": "uint128"
        },
        {
          "internalType": "uint128",
          "name": "epoch",
          "type": "uint128"
        }
      ],
      "stateMutability": "view",
      "type": "function"
    },
    {
      "inputs": [
        {
          "internalType": "address",
          "name": "",
          "type": "address"
        }
      ],
      "name": "deposits",
      "outputs": [
        {
          "internalType": "uint256",
          "name": "initialValue",
          "type": "uint256"
        }
      ],
      "stateMutability": "view",
      "type": "function"
    },
    {
      "inputs": [
        {
          "internalType": "uint128",
          "name": "",
          "type": "uint128"
        },
        {
          "internalType": "uint128",
          "name": "",
          "type": "uint128"
        }
      ],
      "name": "epochToScaleToSum",
      "outputs": [
        {
          "internalType": "uint256",
          "name": "",
          "type": "uint256"
        }
      ],
      "stateMutability": "view",
      "type": "function"
    },
    {
      "inputs": [],
      "name": "getCollateralBalance",
      "outputs": [
        {
          "internalType": "uint256",
          "name": "",
          "type": "uint256"
        }
      ],
      "stateMutability": "view",
      "type": "function"
    },
    {
      "inputs": [
        {
          "internalType": "address",
          "name": "_depositor",
          "type": "address"
        }
      ],
      "name": "getCompoundedTHUSDDeposit",
      "outputs": [
        {
          "internalType": "uint256",
          "name": "",
          "type": "uint256"
        }
      ],
      "stateMutability": "view",
      "type": "function"
    },
    {
      "inputs": [
        {
          "internalType": "address",
          "name": "_depositor",
          "type": "address"
        }
      ],
      "name": "getDepositorCollateralGain",
      "outputs": [
        {
          "internalType": "uint256",
          "name": "",
          "type": "uint256"
        }
      ],
      "stateMutability": "view",
      "type": "function"
    },
    {
      "inputs": [],
      "name": "getEntireSystemColl",
      "outputs": [
        {
          "internalType": "uint256",
          "name": "entireSystemColl",
          "type": "uint256"
        }
      ],
      "stateMutability": "view",
      "type": "function"
    },
    {
      "inputs": [],
      "name": "getEntireSystemDebt",
      "outputs": [
        {
          "internalType": "uint256",
          "name": "entireSystemDebt",
          "type": "uint256"
        }
      ],
      "stateMutability": "view",
      "type": "function"
    },
    {
      "inputs": [],
      "name": "getTotalTHUSDDeposits",
      "outputs": [
        {
          "internalType": "uint256",
          "name": "",
          "type": "uint256"
        }
      ],
      "stateMutability": "view",
      "type": "function"
    },
    {
      "inputs": [],
      "name": "isOwner",
      "outputs": [
        {
          "internalType": "bool",
          "name": "",
          "type": "bool"
        }
      ],
      "stateMutability": "view",
      "type": "function"
    },
    {
      "inputs": [],
      "name": "lastCollateralError_Offset",
      "outputs": [
        {
          "internalType": "uint256",
          "name": "",
          "type": "uint256"
        }
      ],
      "stateMutability": "view",
      "type": "function"
    },
    {
      "inputs": [],
      "name": "lastTHUSDLossError_Offset",
      "outputs": [
        {
          "internalType": "uint256",
          "name": "",
          "type": "uint256"
        }
      ],
      "stateMutability": "view",
      "type": "function"
    },
    {
      "inputs": [
        {
          "internalType": "uint256",
          "name": "_debtToOffset",
          "type": "uint256"
        },
        {
          "internalType": "uint256",
          "name": "_collToAdd",
          "type": "uint256"
        }
      ],
      "name": "offset",
      "outputs": [],
      "stateMutability": "nonpayable",
      "type": "function"
    },
    {
      "inputs": [],
      "name": "owner",
      "outputs": [
        {
          "internalType": "address",
          "name": "",
          "type": "address"
        }
      ],
      "stateMutability": "view",
      "type": "function"
    },
    {
      "inputs": [],
      "name": "priceFeed",
      "outputs": [
        {
          "internalType": "contract IPriceFeed",
          "name": "",
          "type": "address"
        }
      ],
      "stateMutability": "view",
      "type": "function"
    },
    {
      "inputs": [
        {
          "internalType": "uint256",
          "name": "_amount",
          "type": "uint256"
        }
      ],
      "name": "provideToSP",
      "outputs": [],
      "stateMutability": "nonpayable",
      "type": "function"
    },
    {
      "inputs": [
        {
          "internalType": "address",
          "name": "_borrowerOperationsAddress",
          "type": "address"
        },
        {
          "internalType": "address",
          "name": "_troveManagerAddress",
          "type": "address"
        },
        {
          "internalType": "address",
          "name": "_activePoolAddress",
          "type": "address"
        },
        {
          "internalType": "address",
          "name": "_thusdTokenAddress",
          "type": "address"
        },
        {
          "internalType": "address",
          "name": "_sortedTrovesAddress",
          "type": "address"
        },
        {
          "internalType": "address",
          "name": "_priceFeedAddress",
          "type": "address"
        },
        {
          "internalType": "address",
          "name": "_collateralAddress",
          "type": "address"
        }
      ],
      "name": "setAddresses",
      "outputs": [],
      "stateMutability": "nonpayable",
      "type": "function"
    },
    {
      "inputs": [],
      "name": "sortedTroves",
      "outputs": [
        {
          "internalType": "contract ISortedTroves",
          "name": "",
          "type": "address"
        }
      ],
      "stateMutability": "view",
      "type": "function"
    },
    {
      "inputs": [],
      "name": "thusdToken",
      "outputs": [
        {
          "internalType": "contract ITHUSDToken",
          "name": "",
          "type": "address"
        }
      ],
      "stateMutability": "view",
      "type": "function"
    },
    {
      "inputs": [
        {
          "internalType": "address",
          "name": "newOwner",
          "type": "address"
        }
      ],
      "name": "transferOwnership",
      "outputs": [],
      "stateMutability": "nonpayable",
      "type": "function"
    },
    {
      "inputs": [],
      "name": "troveManager",
      "outputs": [
        {
          "internalType": "contract ITroveManager",
          "name": "",
          "type": "address"
        }
      ],
      "stateMutability": "view",
      "type": "function"
    },
    {
      "inputs": [
        {
          "internalType": "uint256",
          "name": "_amount",
          "type": "uint256"
        }
      ],
      "name": "updateCollateralBalance",
      "outputs": [],
      "stateMutability": "nonpayable",
      "type": "function"
    },
    {
      "inputs": [
        {
          "internalType": "address",
          "name": "_upperHint",
          "type": "address"
        },
        {
          "internalType": "address",
          "name": "_lowerHint",
          "type": "address"
        }
      ],
      "name": "withdrawCollateralGainToTrove",
      "outputs": [],
      "stateMutability": "nonpayable",
      "type": "function"
    },
    {
      "inputs": [
        {
          "internalType": "uint256",
          "name": "_amount",
          "type": "uint256"
        }
      ],
      "name": "withdrawFromSP",
      "outputs": [],
      "stateMutability": "nonpayable",
      "type": "function"
    },
    {
      "stateMutability": "payable",
      "type": "receive"
    }
  ],
  "bytecode": "0x6080604052670de0b6b3a7640000600d5534801561001c57600080fd5b50600380546001600160a01b031916339081179091556040516000907f8be0079c531659141344cd1fd0a4f28419497f9722a3daafe3b4186f6b6457e0908290a361287a8061006c6000396000f3fe6080604052600436106102495760003560e01c806377553ad4116101395780638f32d59b116100b6578063ae9187541161007a578063ae91875414610758578063ce4b5bbe14610778578063eaa8ba7f14610790578063f2fde38b146107b0578063f92d3433146107d0578063fc7e286d146107e557600080fd5b80638f32d59b146106a757806398d99ee6146106d2578063a20baee6146104b3578063a3f4df7e146106f2578063a4e59ac81461073857600080fd5b80637f7dde4a116100fd5780637f7dde4a146105bf57806386da0824146105df578063887105d31461065e5780638b8fbd92146106735780638da5cb5b1461068957600080fd5b806377553ad41461052e57806377e16f1e1461054e57806378c77a241461056e578063794e57241461058e578063795d26c3146105aa57600080fd5b80633d83908a116101c75780635914d0c81161018b5780635914d0c81461047d5780635af658b61461049d57806372fe25aa146104b3578063741bef1a146104cf57806376671808146104ef57600080fd5b80633d83908a146103ec5780634870dd9a1461040c57806348d399e7146104215780635205a479146104415780635733d58f1461046157600080fd5b806328a0a04d1161020e57806328a0a04d146103255780632e54bf951461035d578063307d36121461037f578063335525ad1461039f5780633cc74225146103bf57600080fd5b8062ba85b51461029857806301081fda146102c15780631529a639146102d65780631bf43555146102eb5780631fd6a4341461030857600080fd5b3661029357610256610812565b3460096000828254610268919061243f565b90915550506009546040519081526000805160206128258339815191529060200160405180910390a1005b600080fd5b3480156102a457600080fd5b506102ae60105481565b6040519081526020015b60405180910390f35b3480156102cd57600080fd5b50600a546102ae565b3480156102e257600080fd5b506009546102ae565b3480156102f757600080fd5b506102ae686194049f30f720000081565b34801561031457600080fd5b506102ae680ad78ebc5ac620000081565b34801561033157600080fd5b506102ae61034036600461246e565b600f60209081526000928352604080842090915290825290205481565b34801561036957600080fd5b5061037d6103783660046124a1565b610883565b005b34801561038b57600080fd5b506102ae61039a3660046124cf565b610960565b3480156103ab57600080fd5b5061037d6103ba3660046124f3565b6109f3565b3480156103cb57600080fd5b506001546103df906001600160a01b031681565b6040516102b89190612515565b3480156103f857600080fd5b506006546103df906001600160a01b031681565b34801561041857600080fd5b506102ae60c881565b34801561042d57600080fd5b506004546103df906001600160a01b031681565b34801561044d57600080fd5b506102ae61045c3660046124cf565b610a40565b34801561046d57600080fd5b506102ae6714d1120d7b16000081565b34801561048957600080fd5b5061037d610498366004612529565b610aca565b3480156104a957600080fd5b506102ae60115481565b3480156104bf57600080fd5b506102ae670de0b6b3a764000081565b3480156104db57600080fd5b506002546103df906001600160a01b031681565b3480156104fb57600080fd5b50600e5461051690600160801b90046001600160801b031681565b6040516001600160801b0390911681526020016102b8565b34801561053a57600080fd5b506005546103df906001600160a01b031681565b34801561055a57600080fd5b506007546103df906001600160a01b031681565b34801561057a57600080fd5b5061037d6105893660046124a1565b610cdb565b34801561059a57600080fd5b506102ae670f43fc2c04ee000081565b3480156105b657600080fd5b506102ae610d92565b3480156105cb57600080fd5b506000546103df906001600160a01b031681565b3480156105eb57600080fd5b5061062f6105fa3660046124cf565b600c602052600090815260409020805460018201546002909201549091906001600160801b0380821691600160801b90041684565b6040805194855260208501939093526001600160801b03918216928401929092521660608201526080016102b8565b34801561066a57600080fd5b506102ae610e8e565b34801561067f57600080fd5b506102ae600d5481565b34801561069557600080fd5b506003546001600160a01b03166103df565b3480156106b357600080fd5b506003546001600160a01b0316331460405190151581526020016102b8565b3480156106de57600080fd5b5061037d6106ed3660046124a1565b610f53565b3480156106fe57600080fd5b5061072b6040518060400160405280600d81526020016c14dd18589a5b1a5d1e541bdbdb609a1b81525081565b6040516102b89190612562565b34801561074457600080fd5b50600e54610516906001600160801b031681565b34801561076457600080fd5b506008546103df906001600160a01b031681565b34801561078457600080fd5b506102ae633b9aca0081565b34801561079c57600080fd5b5061037d6107ab3660046125b0565b610f99565b3480156107bc57600080fd5b5061037d6107cb3660046124cf565b611209565b3480156107dc57600080fd5b506102ae6112a4565b3480156107f157600080fd5b506102ae6108003660046124cf565b600b6020526000908152604090205481565b6000546001600160a01b031633146108815760405162461bcd60e51b815260206004820152602760248201527f53746162696c697479506f6f6c3a2043616c6c6572206973206e6f74204163746044820152661a5d99541bdbdb60ca1b60648201526084015b60405180910390fd5b565b8015610891576108916112c6565b336000908152600b60205260409020546108aa816114bc565b60006108b533610960565b905060006108c233610a40565b905060006108d08583611525565b905060006108de8386612646565b90506108ea338361153f565b60006108f68385612646565b905061090233826115be565b60405181815233906000805160206128058339815191529060200160405180910390a2604080518681526020810184905233916000805160206127e5833981519152910160405180910390a2610957856116f5565b50505050505050565b6001600160a01b0381166000908152600b60205260408120548082036109895750600092915050565b6001600160a01b0383166000908152600c60209081526040808320815160808101835281548152600182015493810193909352600201546001600160801b0380821692840192909252600160801b9004166060820152906109ea8383611789565b95945050505050565b6109fb61186c565b600a54801580610a09575082155b15610a1357505050565b600080610a218486856118d8565b91509150610a2f82826119ad565b610a398486611c86565b5050505050565b6001600160a01b0381166000908152600b6020526040812054808203610a695750600092915050565b6001600160a01b0383166000908152600c60209081526040808320815160808101835281548152600182015493810193909352600201546001600160801b0380821692840192909252600160801b9004166060820152906109ea8383611daf565b336000908152600b6020526040902054610ae3816114bc565b610aec33611e9f565b610af533611f9b565b6000610b0033610960565b90506000610b0d33610a40565b90506000610b1b8285612646565b9050610b2733836115be565b604080518481526020810183905233916000805160206127e5833981519152910160405180910390a260405182815233906000805160206128058339815191529060200160405180910390a28260096000828254610b859190612646565b90915550506009546040519081526000805160206128258339815191529060200160405180910390a17f342693d2465f6f44931e41128424a0227e0cbc69d1c3917a839e6de71696d44c3384604051610bdf929190612659565b60405180910390a16004546001600160a01b0316610c675760055460405163abfad25d60e01b81526001600160a01b039091169063abfad25d908590610c309033906000908c908c90600401612672565b6000604051808303818588803b158015610c4957600080fd5b505af1158015610c5d573d6000803e3d6000fd5b5050505050610cd3565b60055460405163abfad25d60e01b81526001600160a01b039091169063abfad25d90600090610ca090339088908c908c90600401612672565b6000604051808303818588803b158015610cb957600080fd5b505af1158015610ccd573d6000803e3d6000fd5b50505050505b505050505050565b610ce481612019565b336000818152600b602052604081205491610cfe90610960565b90506000610d0b33610a40565b90506000610d198285612646565b9050610d253386612078565b6000610d31868461243f565b9050610d3d33826115be565b60405181815233906000805160206128058339815191529060200160405180910390a2604080518581526020810184905233916000805160206127e5833981519152910160405180910390a2610cd3846116f5565b600080546040805163f07424e960e01b8152905183926001600160a01b03169163f07424e99160048083019260209291908290030181865afa158015610ddc573d6000803e3d6000fd5b505050506040513d601f19601f82011682018060405250810190610e00919061269d565b90506000600160009054906101000a90046001600160a01b03166001600160a01b031663f07424e96040518163ffffffff1660e01b8152600401602060405180830381865afa158015610e57573d6000803e3d6000fd5b505050506040513d601f19601f82011682018060405250810190610e7b919061269d565b9050610e87818361243f565b9250505090565b6000805460408051631529a63960e01b8152905183926001600160a01b031691631529a6399160048083019260209291908290030181865afa158015610ed8573d6000803e3d6000fd5b505050506040513d601f19601f82011682018060405250810190610efc919061269d565b90506000600160009054906101000a90046001600160a01b03166001600160a01b0316631529a6396040518163ffffffff1660e01b8152600401602060405180830381865afa158015610e57573d6000803e3d6000fd5b610f5b610812565b8060096000828254610f6d919061243f565b90915550506009546040519081526000805160206128258339815191529060200160405180910390a150565b6003546001600160a01b03163314610fc35760405162461bcd60e51b8152600401610878906126b6565b610fcc8761212e565b610fd58661212e565b610fde8561212e565b610fe78461212e565b610ff08361212e565b610ff98261212e565b6001600160a01b03811615611011576110118161212e565b600580546001600160a01b03199081166001600160a01b038a811691909117909255600680548216898416179055600080548216888416179055600780548216878416179055600880548216868416179055600280548216858416179055600480549091169183169190911790556040517f3ca631ffcd2a9b5d9ae18543fc82f58eb4ca33af9e6ab01b7a8e95331e6ed985906110af908990612515565b60405180910390a17f143219c9e69b09e07e095fcc889b43d8f46ca892bba65f08dc3a0050869a5678866040516110e69190612515565b60405180910390a17f78f058b189175430c48dc02699e3a0031ea4ff781536dc2fab847de4babdd8828560405161111d9190612515565b60405180910390a17fe1e858a66c0bbbcdfa22d58dde1e5d42370be20cdb176e560287f85412e546e0846040516111549190612515565b60405180910390a17f65f4cf077bc01e4742eb5ad98326f6e95b63548ea24b17f8d5e823111fe788008360405161118b9190612515565b60405180910390a17f8c537274438aa850a330284665d81a85dd38267d09e4050d416bfc94142db264826040516111c29190612515565b60405180910390a17ffba7421f3d1a98e80d72491a6e0523133444a5842cc7310951d8b82d075a7dff816040516111f99190612515565b60405180910390a16109576121d3565b6003546001600160a01b031633146112335760405162461bcd60e51b8152600401610878906126b6565b6001600160a01b0381166112985760405162461bcd60e51b815260206004820152602660248201527f4f776e61626c653a206e6577206f776e657220697320746865207a65726f206160448201526564647265737360d01b6064820152608401610878565b6112a18161221d565b50565b6112b86103e8670de0b6b3a76400006126eb565b6112c390600561270d565b81565b60025460408051630fdb11cf60e01b815290516000926001600160a01b031691630fdb11cf916004808301926020929190829003018187875af1158015611311573d6000803e3d6000fd5b505050506040513d601f19601f82011682018060405250810190611335919061269d565b90506000600860009054906101000a90046001600160a01b03166001600160a01b0316634d6228316040518163ffffffff1660e01b8152600401602060405180830381865afa15801561138c573d6000803e3d6000fd5b505050506040513d601f19601f820116820180604052508101906113b09190612724565b600654604051630d293c7160e41b81529192506000916001600160a01b039091169063d293c710906113e89085908790600401612659565b602060405180830381865afa158015611405573d6000803e3d6000fd5b505050506040513d601f19601f82011682018060405250810190611429919061269d565b9050670f43fc2c04ee00008110156114b75760405162461bcd60e51b8152602060048201526044602482018190527f53746162696c697479506f6f6c3a2043616e6e6f742077697468647261772077908201527f68696c65207468657265206172652074726f766573207769746820494352203c6064820152631026a1a960e11b608482015260a401610878565b505050565b600081116112a15760405162461bcd60e51b815260206004820152603060248201527f53746162696c697479506f6f6c3a2055736572206d757374206861766520612060448201526f1b9bdb8b5e995c9bc819195c1bdcda5d60821b6064820152608401610878565b60008183106115345781611536565b825b90505b92915050565b8060000361154b575050565b600754604051631062c15f60e11b81526001600160a01b03909116906320c582be9061157f90309086908690600401612741565b600060405180830381600087803b15801561159957600080fd5b505af11580156115ad573d6000803e3d6000fd5b505050506115ba8161226f565b5050565b6001600160a01b0382166000908152600b6020526040812082905581900361164c576001600160a01b0382166000818152600c602052604080822082815560018101839055600201829055517fc48943df4095f4f20d171fd2872eafdc0eed4d9014ac3672f3bde7fd425449d591611640918190918252602082015260400190565b60405180910390a25050565b600e54600d546001600160801b03600160801b80840482166000818152600f6020908152604080832095909716808352948152868220546001600160a01b038a16808452600c8352928890206001810188905581815594840286176002909501949094558651868152908101849052939591949390917fc48943df4095f4f20d171fd2872eafdc0eed4d9014ac3672f3bde7fd425449d5910160405180910390a2505050505050565b806000036117005750565b6000816009546117109190612646565b60098190556040518181529091506000805160206128258339815191529060200160405180910390a17f342693d2465f6f44931e41128424a0227e0cbc69d1c3917a839e6de71696d44c338360405161176a929190612659565b60405180910390a16004546115ba906001600160a01b031633846122be565b606081015160408083015183516020808601516001600160801b038087166000908152600f845286812091861681529252938120549094939085906117cf908490612646565b6001600160801b0386166000908152600f6020526040812091925090633b9aca0090826117fd886001612765565b6001600160801b03166001600160801b031681526020019081526020016000205461182891906126eb565b90506000670de0b6b3a764000084611840848661243f565b61184a908d61270d565b61185491906126eb565b61185e91906126eb565b9a9950505050505050505050565b6006546001600160a01b031633146108815760405162461bcd60e51b815260206004820152602960248201527f53746162696c697479506f6f6c3a2043616c6c6572206973206e6f742054726f6044820152683b32a6b0b730b3b2b960b91b6064820152608401610878565b6000806000601054670de0b6b3a7640000876118f4919061270d565b6118fe919061243f565b9050838511156119105761191061278c565b83850361192c576000601155670de0b6b3a76400009150611981565b601154600090611944670de0b6b3a76400008861270d565b61194e9190612646565b905061195a85826126eb565b61196590600161243f565b925080611972868561270d565b61197c9190612646565b601155505b61198b84826126eb565b9250611997848461270d565b6119a19082612646565b60105550935093915050565b600d546000670de0b6b3a76400008311156119ca576119ca61278c565b60006119de84670de0b6b3a7640000612646565b600e546001600160801b03600160801b820481166000818152600f60209081526040808320949095168083529390529283205493945090929091611a22878a61270d565b90506000611a30828461243f565b6001600160801b038581166000818152600f60209081526040808320948b16808452948252918290208590558151858152908101929092528101919091529091507fe12e2cd2c9afa8069203ca07e7eff1edce4a075686d0736a8e7e0d593597b2079060600160405180910390a185600003611b5a57611ab1846001612765565b600e80546001600160801b03908116600160801b93821684021791829055604051929091041681527fb50f0f59e7cb5b421dc77581c3a9919e3806e076e5fa78a874c3f120cb7d874d9060200160405180910390a1600e80546001600160801b0319169055604051600081527f1f9dfc70cd666adb18a39d60a797518f7b4febf4b6e24ef37d44f6e1e7219fbe9060200160405180910390a1670de0b6b3a76400009650611c32565b633b9aca00670de0b6b3a7640000611b72888b61270d565b611b7c91906126eb565b1015611c1257670de0b6b3a7640000633b9aca00611b9a888b61270d565b611ba4919061270d565b611bae91906126eb565b9650611bbb856001612765565b600e80546001600160801b0319166001600160801b039290921691821790556040519081527f1f9dfc70cd666adb18a39d60a797518f7b4febf4b6e24ef37d44f6e1e7219fbe9060200160405180910390a1611c32565b670de0b6b3a7640000611c25878a61270d565b611c2f91906126eb565b96505b60008711611c4257611c4261278c565b600d8790556040518781527fc1a9618cb59ebca77cbdbc2949f126823c407ff13edb285fd0262519a9c18e8c9060200160405180910390a150505050505050505050565b600054604051637b7fc9eb60e11b8152600481018390526001600160a01b0390911690819063f6ff93d690602401600060405180830381600087803b158015611cce57600080fd5b505af1158015611ce2573d6000803e3d6000fd5b50505050611cef8261226f565b600754604051632770a7eb60e21b81526001600160a01b0390911690639dc29fac90611d219030908690600401612659565b600060405180830381600087803b158015611d3b57600080fd5b505af1158015611d4f573d6000803e3d6000fd5b5050604051636250216960e01b81526001600160a01b038416925063625021699150611d819030908790600401612659565b600060405180830381600087803b158015611d9b57600080fd5b505af1158015610957573d6000803e3d6000fd5b602081015160408201516060830151600e546000939291906001600160801b03600160801b90910481169082161015611dee5760009350505050611539565b600e546000908190611e0a9085906001600160801b03166127a2565b9050806001600160801b0316600003611e3d5784600d5489611e2c919061270d565b611e3691906126eb565b9150611e71565b806001600160801b0316600103611e6c57633b9aca0085600d548a611e62919061270d565b611e2c91906126eb565b600091505b611e7f633b9aca00896126eb565b821015611e9457600095505050505050611539565b509695505050505050565b6006546040516321e3780160e01b81526001600160a01b03909116906321e3780190611ecf908490600401612515565b602060405180830381865afa158015611eec573d6000803e3d6000fd5b505050506040513d601f19601f82011682018060405250810190611f10919061269d565b6001146112a15760405162461bcd60e51b815260206004820152604d60248201527f53746162696c697479506f6f6c3a2063616c6c6572206d75737420686176652060448201527f616e206163746976652074726f766520746f20776974686472617720636f6c6160648201526c6c746572616c4761696e20746f60981b608482015260a401610878565b6000611fa682610960565b9050600081116115ba5760405162461bcd60e51b815260206004820152603860248201527f53746162696c697479506f6f6c3a2063616c6c6572206d7573742068617665206044820152773737b716bd32b9379031b7b63630ba32b930b61023b0b4b760411b6064820152608401610878565b600081116112a15760405162461bcd60e51b815260206004820152602660248201527f53746162696c697479506f6f6c3a20416d6f756e74206d757374206265206e6f6044820152656e2d7a65726f60d01b6064820152608401610878565b600754604051632ee65eeb60e21b81526001600160a01b039091169063bb997bac906120ac90859030908690600401612741565b600060405180830381600087803b1580156120c657600080fd5b505af11580156120da573d6000803e3d6000fd5b50505050600081600a546120ee919061243f565b600a8190556040518181529091507fcacce180ae93727cdc9bb9c98e40c99de5dd6690f7b1fc58abfd51dc7d16469d9060200160405180910390a1505050565b6001600160a01b0381166121845760405162461bcd60e51b815260206004820152601e60248201527f4163636f756e742063616e6e6f74206265207a65726f206164647265737300006044820152606401610878565b803b806115ba5760405162461bcd60e51b815260206004820181905260248201527f4163636f756e7420636f64652073697a652063616e6e6f74206265207a65726f6044820152606401610878565b6003546040516000916001600160a01b0316907f8be0079c531659141344cd1fd0a4f28419497f9722a3daafe3b4186f6b6457e0908390a3600380546001600160a01b0319169055565b600380546001600160a01b038381166001600160a01b0319831681179093556040519116919082907f8be0079c531659141344cd1fd0a4f28419497f9722a3daafe3b4186f6b6457e090600090a35050565b600081600a5461227f9190612646565b600a8190556040518181529091507fcacce180ae93727cdc9bb9c98e40c99de5dd6690f7b1fc58abfd51dc7d16469d9060200160405180910390a15050565b6001600160a01b03831661236a576000826001600160a01b03168260405160006040518083038185875af1925050503d8060008114612319576040519150601f19603f3d011682016040523d82523d6000602084013e61231e565b606091505b50509050806123645760405162461bcd60e51b815260206004820152601260248201527114d95b991a5b99c81155120819985a5b195960721b6044820152606401610878565b50505050565b60405163a9059cbb60e01b81526000906001600160a01b0385169063a9059cbb9061239b9086908690600401612659565b6020604051808303816000875af11580156123ba573d6000803e3d6000fd5b505050506040513d601f19601f820116820180604052508101906123de91906127c2565b9050806123645760405162461bcd60e51b815260206004820152601960248201527814d95b991a5b99c818dbdb1b185d195c985b0819985a5b1959603a1b6044820152606401610878565b634e487b7160e01b600052601160045260246000fd5b8082018082111561153957611539612429565b80356001600160801b038116811461246957600080fd5b919050565b6000806040838503121561248157600080fd5b61248a83612452565b915061249860208401612452565b90509250929050565b6000602082840312156124b357600080fd5b5035919050565b6001600160a01b03811681146112a157600080fd5b6000602082840312156124e157600080fd5b81356124ec816124ba565b9392505050565b6000806040838503121561250657600080fd5b50508035926020909101359150565b6001600160a01b0391909116815260200190565b6000806040838503121561253c57600080fd5b8235612547816124ba565b91506020830135612557816124ba565b809150509250929050565b600060208083528351808285015260005b8181101561258f57858101830151858201604001528201612573565b506000604082860101526040601f19601f8301168501019250505092915050565b600080600080600080600060e0888a0312156125cb57600080fd5b87356125d6816124ba565b965060208801356125e6816124ba565b955060408801356125f6816124ba565b94506060880135612606816124ba565b93506080880135612616816124ba565b925060a0880135612626816124ba565b915060c0880135612636816124ba565b8091505092959891949750929550565b8181038181111561153957611539612429565b6001600160a01b03929092168252602082015260400190565b6001600160a01b03948516815260208101939093529083166040830152909116606082015260800190565b6000602082840312156126af57600080fd5b5051919050565b6020808252818101527f4f776e61626c653a2063616c6c6572206973206e6f7420746865206f776e6572604082015260600190565b60008261270857634e487b7160e01b600052601260045260246000fd5b500490565b808202811582820484141761153957611539612429565b60006020828403121561273657600080fd5b81516124ec816124ba565b6001600160a01b039384168152919092166020820152604081019190915260600190565b6001600160801b0381811683821601908082111561278557612785612429565b5092915050565b634e487b7160e01b600052600160045260246000fd5b6001600160801b0382811682821603908082111561278557612785612429565b6000602082840312156127d457600080fd5b815180151581146124ec57600080fdfe47647c495a7db9471a1b024b3c6f7555a502a0de4b130d83a4d3c8f9cff25939bce78369dccab09eec1986f4d409ab09ffbb47d65423e5148fcf98411c5111c95745610f99463e502f9c3333585fe329b498e36b00b8c1bdfd8dc87dfe35b5eaa26469706673582212205d843b2a32429a72bc3bffc2602a46cf038091c4ef89555fe015a07f9f3a3ea464736f6c63430008110033",
  "linkReferences": {},
  "deployedLinkReferences": {}
}