{
  "_format": "hh-sol-artifact-1",
  "contractName": "TellorCaller",
  "sourceName": "contracts/Dependencies/TellorCaller.sol",
  "abi": [
    {
      "inputs": [
        {
          "internalType": "address",
          "name": "_tellorMasterAddress",
          "type": "address"
        },
        {
          "internalType": "bytes32",
          "name": "_queryId",
          "type": "bytes32"
        }
      ],
      "stateMutability": "nonpayable",
      "type": "constructor"
    },
    {
      "inputs": [],
      "name": "getTellorCurrentValue",
      "outputs": [
        {
          "internalType": "bool",
          "name": "ifRetrieve",
          "type": "bool"
        },
        {
          "internalType": "uint256",
          "name": "value",
          "type": "uint256"
        },
        {
          "internalType": "uint256",
          "name": "_timestampRetrieved",
          "type": "uint256"
        }
      ],
      "stateMutability": "view",
      "type": "function"
    },
    {
      "inputs": [],
      "name": "queryId",
      "outputs": [
        {
          "internalType": "bytes32",
          "name": "",
          "type": "bytes32"
        }
      ],
      "stateMutability": "view",
      "type": "function"
    },
    {
      "inputs": [],
      "name": "tellor",
      "outputs": [
        {
          "internalType": "contract ITellor",
          "name": "",
          "type": "address"
        }
      ],
      "stateMutability": "view",
      "type": "function"
    }
  ],
  "bytecode": "0x60c060405234801561001057600080fd5b506040516104bb3803806104bb83398101604081905261002f91610045565b6001600160a01b0390911660805260a05261007f565b6000806040838503121561005857600080fd5b82516001600160a01b038116811461006f57600080fd5b6020939093015192949293505050565b60805160a05161040c6100af60003960008181608f015261011b015260008181604b015260f4015261040c6000f3fe608060405234801561001057600080fd5b50600436106100415760003560e01c80631959ad5b146100465780633f1be4d41461008a57806399433828146100bf575b600080fd5b61006d7f000000000000000000000000000000000000000000000000000000000000000081565b6040516001600160a01b0390911681526020015b60405180910390f35b6100b17f000000000000000000000000000000000000000000000000000000000000000081565b604051908152602001610081565b6100c76100e4565b604080519315158452602084019290925290820152606001610081565b6000808080806001600160a01b037f00000000000000000000000000000000000000000000000000000000000000001663a792765f7f000000000000000000000000000000000000000000000000000000000000000061014661038442610262565b6040516001600160e01b031960e085901b16815260048101929092526024820152604401600060405180830381865afa158015610187573d6000803e3d6000fd5b505050506040513d6000823e601f3d908101601f191682016040526101af9190810190610291565b90935091505080156101e757620151806101c98242610262565b10156101e75760016101da836101f5565b9096909550909350915050565b600095869550909350915050565b6000805b8251811015610246578281815181106102145761021461037d565b016020015160f81c61022883610100610393565b61023291906103aa565b91508061023e816103bd565b9150506101f9565b50919050565b634e487b7160e01b600052601160045260246000fd5b818103818111156102755761027561024c565b92915050565b634e487b7160e01b600052604160045260246000fd5b6000806000606084860312156102a657600080fd5b835180151581146102b657600080fd5b8093505060208085015167ffffffffffffffff808211156102d657600080fd5b818701915087601f8301126102ea57600080fd5b8151818111156102fc576102fc61027b565b604051601f8201601f19908116603f011681019083821181831017156103245761032461027b565b816040528281528a8684870101111561033c57600080fd5b600093505b8284101561035e5784840186015181850187015292850192610341565b6000868483010152809750505050505050604084015190509250925092565b634e487b7160e01b600052603260045260246000fd5b80820281158282048414176102755761027561024c565b808201808211156102755761027561024c565b6000600182016103cf576103cf61024c565b506001019056fea264697066735822122069cd7204a113c4a852259bbe6fff5cd76d722d5234a86772ed210c47cce689a264736f6c63430008110033",
  "linkReferences": {},
  "deployedLinkReferences": {}
}