{
  "_format": "hh-sol-artifact-1",
  "contractName": "THUSDTokenTester",
  "sourceName": "contracts/TestContracts/THUSDTokenTester.sol",
  "abi": [
    {
      "inputs": [
        {
          "internalType": "address",
          "name": "_troveManagerAddress",
          "type": "address"
        },
        {
          "internalType": "address",
          "name": "_stabilityPoolAddress",
          "type": "address"
        },
        {
          "internalType": "address",
          "name": "_borrowerOperationsAddress",
          "type": "address"
        },
        {
          "internalType": "uint256",
          "name": "_governanceTimeDelay",
          "type": "uint256"
        }
      ],
      "stateMutability": "nonpayable",
      "type": "constructor"
    },
    {
      "anonymous": false,
      "inputs": [
        {
          "indexed": true,
          "internalType": "address",
          "name": "owner",
          "type": "address"
        },
        {
          "indexed": true,
          "internalType": "address",
          "name": "spender",
          "type": "address"
        },
        {
          "indexed": false,
          "internalType": "uint256",
          "name": "value",
          "type": "uint256"
        }
      ],
      "name": "Approval",
      "type": "event"
    },
    {
      "anonymous": false,
      "inputs": [
        {
          "indexed": false,
          "internalType": "address",
          "name": "_newBorrowerOperationsAddress",
          "type": "address"
        }
      ],
      "name": "BorrowerOperationsAddressAdded",
      "type": "event"
    },
    {
      "anonymous": false,
      "inputs": [
        {
          "indexed": true,
          "internalType": "address",
          "name": "previousOwner",
          "type": "address"
        },
        {
          "indexed": true,
          "internalType": "address",
          "name": "newOwner",
          "type": "address"
        }
      ],
      "name": "OwnershipTransferred",
      "type": "event"
    },
    {
      "anonymous": false,
      "inputs": [
        {
          "indexed": false,
          "internalType": "address",
          "name": "_newStabilityPoolAddress",
          "type": "address"
        }
      ],
      "name": "StabilityPoolAddressAdded",
      "type": "event"
    },
    {
      "anonymous": false,
      "inputs": [
        {
          "indexed": false,
          "internalType": "address",
          "name": "_user",
          "type": "address"
        },
        {
          "indexed": false,
          "internalType": "uint256",
          "name": "_amount",
          "type": "uint256"
        }
      ],
      "name": "THUSDTokenBalanceUpdated",
      "type": "event"
    },
    {
      "anonymous": false,
      "inputs": [
        {
          "indexed": true,
          "internalType": "address",
          "name": "from",
          "type": "address"
        },
        {
          "indexed": true,
          "internalType": "address",
          "name": "to",
          "type": "address"
        },
        {
          "indexed": false,
          "internalType": "uint256",
          "name": "value",
          "type": "uint256"
        }
      ],
      "name": "Transfer",
      "type": "event"
    },
    {
      "anonymous": false,
      "inputs": [
        {
          "indexed": false,
          "internalType": "address",
          "name": "_troveManagerAddress",
          "type": "address"
        }
      ],
      "name": "TroveManagerAddressAdded",
      "type": "event"
    },
    {
      "inputs": [],
      "name": "addContractsInitiated",
      "outputs": [
        {
          "internalType": "uint256",
          "name": "",
          "type": "uint256"
        }
      ],
      "stateMutability": "view",
      "type": "function"
    },
    {
      "inputs": [],
      "name": "addMintListInitiated",
      "outputs": [
        {
          "internalType": "uint256",
          "name": "",
          "type": "uint256"
        }
      ],
      "stateMutability": "view",
      "type": "function"
    },
    {
      "inputs": [
        {
          "internalType": "address",
          "name": "owner",
          "type": "address"
        },
        {
          "internalType": "address",
          "name": "spender",
          "type": "address"
        }
      ],
      "name": "allowance",
      "outputs": [
        {
          "internalType": "uint256",
          "name": "",
          "type": "uint256"
        }
      ],
      "stateMutability": "view",
      "type": "function"
    },
    {
      "inputs": [
        {
          "internalType": "address",
          "name": "spender",
          "type": "address"
        },
        {
          "internalType": "uint256",
          "name": "amount",
          "type": "uint256"
        }
      ],
      "name": "approve",
      "outputs": [
        {
          "internalType": "bool",
          "name": "",
          "type": "bool"
        }
      ],
      "stateMutability": "nonpayable",
      "type": "function"
    },
    {
      "inputs": [
        {
          "internalType": "address",
          "name": "account",
          "type": "address"
        }
      ],
      "name": "balanceOf",
      "outputs": [
        {
          "internalType": "uint256",
          "name": "",
          "type": "uint256"
        }
      ],
      "stateMutability": "view",
      "type": "function"
    },
    {
      "inputs": [
        {
          "internalType": "address",
          "name": "_account",
          "type": "address"
        },
        {
          "internalType": "uint256",
          "name": "_amount",
          "type": "uint256"
        }
      ],
      "name": "burn",
      "outputs": [],
      "stateMutability": "nonpayable",
      "type": "function"
    },
    {
      "inputs": [
        {
          "internalType": "address",
          "name": "owner",
          "type": "address"
        },
        {
          "internalType": "address",
          "name": "spender",
          "type": "address"
        },
        {
          "internalType": "uint256",
          "name": "amount",
          "type": "uint256"
        }
      ],
      "name": "callInternalApprove",
      "outputs": [],
      "stateMutability": "nonpayable",
      "type": "function"
    },
    {
      "inputs": [],
      "name": "cancelAddContracts",
      "outputs": [],
      "stateMutability": "nonpayable",
      "type": "function"
    },
    {
      "inputs": [],
      "name": "cancelAddMintList",
      "outputs": [],
      "stateMutability": "nonpayable",
      "type": "function"
    },
    {
      "inputs": [],
      "name": "cancelRevokeMintList",
      "outputs": [],
      "stateMutability": "nonpayable",
      "type": "function"
    },
    {
      "inputs": [],
      "name": "decimals",
      "outputs": [
        {
          "internalType": "uint8",
          "name": "",
          "type": "uint8"
        }
      ],
      "stateMutability": "pure",
      "type": "function"
    },
    {
      "inputs": [
        {
          "internalType": "address",
          "name": "spender",
          "type": "address"
        },
        {
          "internalType": "uint256",
          "name": "subtractedValue",
          "type": "uint256"
        }
      ],
      "name": "decreaseAllowance",
      "outputs": [
        {
          "internalType": "bool",
          "name": "",
          "type": "bool"
        }
      ],
      "stateMutability": "nonpayable",
      "type": "function"
    },
    {
      "inputs": [],
      "name": "domainSeparator",
      "outputs": [
        {
          "internalType": "bytes32",
          "name": "",
          "type": "bytes32"
        }
      ],
      "stateMutability": "view",
      "type": "function"
    },
    {
      "inputs": [],
      "name": "finalizeAddContracts",
      "outputs": [],
      "stateMutability": "nonpayable",
      "type": "function"
    },
    {
      "inputs": [],
      "name": "finalizeAddMintList",
      "outputs": [],
      "stateMutability": "nonpayable",
      "type": "function"
    },
    {
      "inputs": [],
      "name": "finalizeRevokeMintList",
      "outputs": [],
      "stateMutability": "nonpayable",
      "type": "function"
    },
    {
      "inputs": [],
      "name": "getChainId",
      "outputs": [
        {
          "internalType": "uint256",
          "name": "chainID",
          "type": "uint256"
        }
      ],
      "stateMutability": "view",
      "type": "function"
    },
    {
      "inputs": [
        {
          "internalType": "address",
          "name": "owner",
          "type": "address"
        },
        {
          "internalType": "address",
          "name": "spender",
          "type": "address"
        },
        {
          "internalType": "uint256",
          "name": "amount",
          "type": "uint256"
        },
        {
          "internalType": "uint256",
          "name": "nonce",
          "type": "uint256"
        },
        {
          "internalType": "uint256",
          "name": "deadline",
          "type": "uint256"
        }
      ],
      "name": "getDigest",
      "outputs": [
        {
          "internalType": "bytes32",
          "name": "",
          "type": "bytes32"
        }
      ],
      "stateMutability": "view",
      "type": "function"
    },
    {
      "inputs": [],
      "name": "governanceTimeDelay",
      "outputs": [
        {
          "internalType": "uint256",
          "name": "",
          "type": "uint256"
        }
      ],
      "stateMutability": "view",
      "type": "function"
    },
    {
      "inputs": [
        {
          "internalType": "address",
          "name": "spender",
          "type": "address"
        },
        {
          "internalType": "uint256",
          "name": "addedValue",
          "type": "uint256"
        }
      ],
      "name": "increaseAllowance",
      "outputs": [
        {
          "internalType": "bool",
          "name": "",
          "type": "bool"
        }
      ],
      "stateMutability": "nonpayable",
      "type": "function"
    },
    {
      "inputs": [
        {
          "internalType": "address",
          "name": "",
          "type": "address"
        }
      ],
      "name": "isBorrowerOperations",
      "outputs": [
        {
          "internalType": "bool",
          "name": "",
          "type": "bool"
        }
      ],
      "stateMutability": "view",
      "type": "function"
    },
    {
      "inputs": [],
      "name": "isOwner",
      "outputs": [
        {
          "internalType": "bool",
          "name": "",
          "type": "bool"
        }
      ],
      "stateMutability": "view",
      "type": "function"
    },
    {
      "inputs": [
        {
          "internalType": "address",
          "name": "",
          "type": "address"
        }
      ],
      "name": "isStabilityPools",
      "outputs": [
        {
          "internalType": "bool",
          "name": "",
          "type": "bool"
        }
      ],
      "stateMutability": "view",
      "type": "function"
    },
    {
      "inputs": [
        {
          "internalType": "address",
          "name": "",
          "type": "address"
        }
      ],
      "name": "isTroveManager",
      "outputs": [
        {
          "internalType": "bool",
          "name": "",
          "type": "bool"
        }
      ],
      "stateMutability": "view",
      "type": "function"
    },
    {
      "inputs": [
        {
          "internalType": "address",
          "name": "_account",
          "type": "address"
        },
        {
          "internalType": "uint256",
          "name": "_amount",
          "type": "uint256"
        }
      ],
      "name": "mint",
      "outputs": [],
      "stateMutability": "nonpayable",
      "type": "function"
    },
    {
      "inputs": [
        {
          "internalType": "address",
          "name": "",
          "type": "address"
        }
      ],
      "name": "mintList",
      "outputs": [
        {
          "internalType": "bool",
          "name": "",
          "type": "bool"
        }
      ],
      "stateMutability": "view",
      "type": "function"
    },
    {
      "inputs": [],
      "name": "name",
      "outputs": [
        {
          "internalType": "string",
          "name": "",
          "type": "string"
        }
      ],
      "stateMutability": "pure",
      "type": "function"
    },
    {
      "inputs": [
        {
          "internalType": "address",
          "name": "owner",
          "type": "address"
        }
      ],
      "name": "nonces",
      "outputs": [
        {
          "internalType": "uint256",
          "name": "",
          "type": "uint256"
        }
      ],
      "stateMutability": "view",
      "type": "function"
    },
    {
      "inputs": [],
      "name": "owner",
      "outputs": [
        {
          "internalType": "address",
          "name": "",
          "type": "address"
        }
      ],
      "stateMutability": "view",
      "type": "function"
    },
    {
      "inputs": [],
      "name": "pendingAddedMintAddress",
      "outputs": [
        {
          "internalType": "address",
          "name": "",
          "type": "address"
        }
      ],
      "stateMutability": "view",
      "type": "function"
    },
    {
      "inputs": [],
      "name": "pendingBorrowerOperations",
      "outputs": [
        {
          "internalType": "address",
          "name": "",
          "type": "address"
        }
      ],
      "stateMutability": "view",
      "type": "function"
    },
    {
      "inputs": [],
      "name": "pendingRevokedMintAddress",
      "outputs": [
        {
          "internalType": "address",
          "name": "",
          "type": "address"
        }
      ],
      "stateMutability": "view",
      "type": "function"
    },
    {
      "inputs": [],
      "name": "pendingStabilityPool",
      "outputs": [
        {
          "internalType": "address",
          "name": "",
          "type": "address"
        }
      ],
      "stateMutability": "view",
      "type": "function"
    },
    {
      "inputs": [],
      "name": "pendingTroveManager",
      "outputs": [
        {
          "internalType": "address",
          "name": "",
          "type": "address"
        }
      ],
      "stateMutability": "view",
      "type": "function"
    },
    {
      "inputs": [
        {
          "internalType": "address",
          "name": "owner",
          "type": "address"
        },
        {
          "internalType": "address",
          "name": "spender",
          "type": "address"
        },
        {
          "internalType": "uint256",
          "name": "amount",
          "type": "uint256"
        },
        {
          "internalType": "uint256",
          "name": "deadline",
          "type": "uint256"
        },
        {
          "internalType": "uint8",
          "name": "v",
          "type": "uint8"
        },
        {
          "internalType": "bytes32",
          "name": "r",
          "type": "bytes32"
        },
        {
          "internalType": "bytes32",
          "name": "s",
          "type": "bytes32"
        }
      ],
      "name": "permit",
      "outputs": [],
      "stateMutability": "nonpayable",
      "type": "function"
    },
    {
      "inputs": [],
      "name": "permitTypeHash",
      "outputs": [
        {
          "internalType": "bytes32",
          "name": "",
          "type": "bytes32"
        }
      ],
      "stateMutability": "pure",
      "type": "function"
    },
    {
      "inputs": [
        {
          "internalType": "bytes32",
          "name": "digest",
          "type": "bytes32"
        },
        {
          "internalType": "uint8",
          "name": "v",
          "type": "uint8"
        },
        {
          "internalType": "bytes32",
          "name": "r",
          "type": "bytes32"
        },
        {
          "internalType": "bytes32",
          "name": "s",
          "type": "bytes32"
        }
      ],
      "name": "recoverAddress",
      "outputs": [
        {
          "internalType": "address",
          "name": "",
          "type": "address"
        }
      ],
      "stateMutability": "pure",
      "type": "function"
    },
    {
      "inputs": [
        {
          "internalType": "address",
          "name": "_poolAddress",
          "type": "address"
        },
        {
          "internalType": "address",
          "name": "_receiver",
          "type": "address"
        },
        {
          "internalType": "uint256",
          "name": "_amount",
          "type": "uint256"
        }
      ],
      "name": "returnFromPool",
      "outputs": [],
      "stateMutability": "nonpayable",
      "type": "function"
    },
    {
      "inputs": [],
      "name": "revokeMintListInitiated",
      "outputs": [
        {
          "internalType": "uint256",
          "name": "",
          "type": "uint256"
        }
      ],
      "stateMutability": "view",
      "type": "function"
    },
    {
      "inputs": [
        {
          "internalType": "address",
          "name": "_sender",
          "type": "address"
        },
        {
          "internalType": "address",
          "name": "_poolAddress",
          "type": "address"
        },
        {
          "internalType": "uint256",
          "name": "_amount",
          "type": "uint256"
        }
      ],
      "name": "sendToPool",
      "outputs": [],
      "stateMutability": "nonpayable",
      "type": "function"
    },
    {
      "inputs": [
        {
          "internalType": "address",
          "name": "_troveManagerAddress",
          "type": "address"
        },
        {
          "internalType": "address",
          "name": "_stabilityPoolAddress",
          "type": "address"
        },
        {
          "internalType": "address",
          "name": "_borrowerOperationsAddress",
          "type": "address"
        }
      ],
      "name": "startAddContracts",
      "outputs": [],
      "stateMutability": "nonpayable",
      "type": "function"
    },
    {
      "inputs": [
        {
          "internalType": "address",
          "name": "_account",
          "type": "address"
        }
      ],
      "name": "startAddMintList",
      "outputs": [],
      "stateMutability": "nonpayable",
      "type": "function"
    },
    {
      "inputs": [
        {
          "internalType": "address",
          "name": "_account",
          "type": "address"
        }
      ],
      "name": "startRevokeMintList",
      "outputs": [],
      "stateMutability": "nonpayable",
      "type": "function"
    },
    {
      "inputs": [],
      "name": "symbol",
      "outputs": [
        {
          "internalType": "string",
          "name": "",
          "type": "string"
        }
      ],
      "stateMutability": "pure",
      "type": "function"
    },
    {
      "inputs": [],
      "name": "totalSupply",
      "outputs": [
        {
          "internalType": "uint256",
          "name": "",
          "type": "uint256"
        }
      ],
      "stateMutability": "view",
      "type": "function"
    },
    {
      "inputs": [
        {
          "internalType": "address",
          "name": "recipient",
          "type": "address"
        },
        {
          "internalType": "uint256",
          "name": "amount",
          "type": "uint256"
        }
      ],
      "name": "transfer",
      "outputs": [
        {
          "internalType": "bool",
          "name": "",
          "type": "bool"
        }
      ],
      "stateMutability": "nonpayable",
      "type": "function"
    },
    {
      "inputs": [
        {
          "internalType": "address",
          "name": "sender",
          "type": "address"
        },
        {
          "internalType": "address",
          "name": "recipient",
          "type": "address"
        },
        {
          "internalType": "uint256",
          "name": "amount",
          "type": "uint256"
        }
      ],
      "name": "transferFrom",
      "outputs": [
        {
          "internalType": "bool",
          "name": "",
          "type": "bool"
        }
      ],
      "stateMutability": "nonpayable",
      "type": "function"
    },
    {
      "inputs": [
        {
          "internalType": "address",
          "name": "newOwner",
          "type": "address"
        }
      ],
      "name": "transferOwnership",
      "outputs": [],
      "stateMutability": "nonpayable",
      "type": "function"
    },
    {
      "inputs": [
        {
          "internalType": "address",
          "name": "_account",
          "type": "address"
        },
        {
          "internalType": "uint256",
          "name": "_amount",
          "type": "uint256"
        }
      ],
      "name": "unprotectedBurn",
      "outputs": [],
      "stateMutability": "nonpayable",
      "type": "function"
    },
    {
      "inputs": [
        {
          "internalType": "address",
          "name": "_account",
          "type": "address"
        },
        {
          "internalType": "uint256",
          "name": "_amount",
          "type": "uint256"
        }
      ],
      "name": "unprotectedMint",
      "outputs": [],
      "stateMutability": "nonpayable",
      "type": "function"
    },
    {
      "inputs": [
        {
          "internalType": "address",
          "name": "_poolAddress",
          "type": "address"
        },
        {
          "internalType": "address",
          "name": "_receiver",
          "type": "address"
        },
        {
          "internalType": "uint256",
          "name": "_amount",
          "type": "uint256"
        }
      ],
      "name": "unprotectedReturnFromPool",
      "outputs": [],
      "stateMutability": "nonpayable",
      "type": "function"
    },
    {
      "inputs": [
        {
          "internalType": "address",
          "name": "_sender",
          "type": "address"
        },
        {
          "internalType": "address",
          "name": "_poolAddress",
          "type": "address"
        },
        {
          "internalType": "uint256",
          "name": "_amount",
          "type": "uint256"
        }
      ],
      "name": "unprotectedSendToPool",
      "outputs": [],
      "stateMutability": "nonpayable",
      "type": "function"
    },
    {
      "inputs": [],
      "name": "version",
      "outputs": [
        {
          "internalType": "string",
          "name": "",
          "type": "string"
        }
      ],
      "stateMutability": "pure",
      "type": "function"
    }
  ],
  "bytecode": "0x6101406040527f6e71edae12b1b97f4d1f60370fef10105fa2faae0126114a169c64845d6126c9610120523480156200003757600080fd5b506040516200250a3803806200250a8339810160408190526200005a91620003c5565b600080546001600160a01b0319163390811782556040518692869286928692907f8be0079c531659141344cd1fd0a4f28419497f9722a3daafe3b4186f6b6457e0908290a3620000ac848484620001ab565b604080518082018252601081526f3a342aa9a21029ba30b13632b1b7b4b760811b6020918201528151808301835260018152603160f81b908201527fb420e63a52018fe4b3b72ffe648949904454feec27ee6f33df1275269fdce54460c08181527fc89efdaa54c0f20c7adf612882df0950f5a951637e0307cdcb4c672f298b8bc660e08190524660a081815286517f8b73c3c69bb8fe3d512ecc4cf759cc79239f7b179b0ffacaa9a75d522b39400f8188015280880186905260608101849052608081019290925230828201528651808303909101815292019094528051920191909120909190608052505061010052506200041795505050505050565b620001b683620002f7565b620001c182620002f7565b620001cc81620002f7565b6001600160a01b038316600081815260056020908152604091829020805460ff1916600117905590519182527f552e6c3035c33f04f1890bc312cbff2a7785b2e14ba719e635c5a8a754705647910160405180910390a16001600160a01b038216600081815260066020908152604091829020805460ff1916600117905590519182527fd5aac92b48f52fdc22e5b14b07e3cbbd61e939d86cec15efe7db4fd82a8d1911910160405180910390a16001600160a01b038116600081815260076020908152604091829020805460ff1916600117905590519182527f5f1db3103369b41aebc8a140eb5553e5a21d3df288ff446278b59eb15d59e2a4910160405180910390a16001600160a01b03166000908152600860205260409020805460ff191660011790555050565b6001600160a01b038116620003535760405162461bcd60e51b815260206004820152601e60248201527f4163636f756e742063616e6e6f74206265207a65726f2061646472657373000060448201526064015b60405180910390fd5b803b80620003a45760405162461bcd60e51b815260206004820181905260248201527f4163636f756e7420636f64652073697a652063616e6e6f74206265207a65726f60448201526064016200034a565b5050565b80516001600160a01b0381168114620003c057600080fd5b919050565b60008060008060808587031215620003dc57600080fd5b620003e785620003a8565b9350620003f760208601620003a8565b92506200040760408601620003a8565b6060959095015193969295505050565b60805160a05160c05160e051610100516101205161208e6200047c6000396000610b1b0152600081816105d70152818161079e01528181610c0901526113b8015260006115ee015260006115c90152600061154e01526000611576015261208e6000f3fe608060405234801561001057600080fd5b50600436106102d75760003560e01c80638961cb2411610188578063b427cd4e116100e4578063d5414ba211610092578063d5414ba2146106a4578063dd62ed3e146106b7578063e228406e146106f0578063eecb7cc1146106f8578063f0e5370b1461070b578063f2fde38b1461072e578063f698da251461074157600080fd5b8063b427cd4e1461061c578063b655c276146103f3578063bb997bac1461062f578063bef432c614610642578063c441b24514610665578063cd33973a14610688578063d505accf1461069157600080fd5b8063a457c2d711610141578063a457c2d714610589578063a79364371461059c578063a866eaf7146105a4578063a9059cbb146105ac578063af301923146105bf578063afe5bf93146105d2578063b3406ce3146105f957600080fd5b80638961cb24146105205780638da5cb5b146105335780638f32d59b1461054457806395d89b411461054c5780639ce922ff1461056d5780639dc29fac1461057657600080fd5b806340c10f191161023757806358f2f1cf116101f057806358f2f1cf14610478578063660edfd8146104985780636720c945146104a05780636d3aa16a146104b357806370a08231146104bb5780637ecebe00146104e45780638428cf831461050d57600080fd5b806340c10f1914610406578063441633f21461041957806348581f391461042c5780635099f99f14610435578063519e2cee1461044857806354fd4d501461045b57600080fd5b806320c582be1161029457806320c582be1461039257806323b872dd146103a5578063313ce567146103b85780633408e470146103c757806339509351146103cd5780633ab60582146103e05780633dc2ea6d146103f357600080fd5b806301110479146102dc57806303d99946146102e657806306fdde03146102f9578063095ea7b31461033757806310ce43bd1461035a57806318160ddd1461038a575b600080fd5b6102e4610749565b005b6102e46102f4366004611c9e565b61081c565b60408051808201909152601081526f3a342aa9a21029ba30b13632b1b7b4b760811b60208201525b60405161032e9190611cda565b60405180910390f35b61034a610345366004611d28565b61082c565b604051901515815260200161032e565b7f6e71edae12b1b97f4d1f60370fef10105fa2faae0126114a169c64845d6126c95b60405190815260200161032e565b60015461037c565b6102e46103a0366004611c9e565b610843565b61034a6103b3366004611c9e565b6108e7565b6040516012815260200161032e565b4661037c565b61034a6103db366004611d28565b6109a1565b6102e46103ee366004611d28565b6109d8565b6102e4610401366004611c9e565b6108dc565b6102e4610414366004611d28565b6109e6565b6102e4610427366004611d52565b610a5e565b61037c600e5481565b6102e4610443366004611d28565b610a54565b61037c610456366004611d74565b610b0c565b6040805180820190915260018152603160f81b6020820152610321565b600c5461048b906001600160a01b031681565b60405161032e9190611dc1565b6102e4610bbd565b600b5461048b906001600160a01b031681565b6102e4610c9b565b61037c6104c9366004611d52565b6001600160a01b031660009081526003602052604090205490565b61037c6104f2366004611d52565b6001600160a01b031660009081526002602052604090205490565b61048b61051b366004611de6565b610d3c565b6102e461052e366004611d52565b610da4565b6000546001600160a01b031661048b565b61034a610e56565b6040805180820190915260058152641d1a1554d160da1b6020820152610321565b61037c600f5481565b6102e4610584366004611d28565b610e67565b61034a610597366004611d28565b610f37565b6102e4610fd2565b6102e461106e565b61034a6105ba366004611d28565b611106565b600a5461048b906001600160a01b031681565b61037c7f000000000000000000000000000000000000000000000000000000000000000081565b61034a610607366004611d52565b60076020526000908152604090205460ff1681565b60095461048b906001600160a01b031681565b6102e461063d366004611c9e565b61111c565b61034a610650366004611d52565b60086020526000908152604090205460ff1681565b61034a610673366004611d52565b60066020526000908152604090205460ff1681565b61037c60105481565b6102e461069f366004611e21565b61118a565b600d5461048b906001600160a01b031681565b61037c6106c5366004611e8b565b6001600160a01b03918216600090815260046020908152604080832093909416825291909152205490565b6102e461136c565b6102e4610706366004611ebe565b611433565b61034a610719366004611d52565b60056020526000908152604090205460ff1681565b6102e461073c366004611d52565b6114b5565b61037c61154a565b610751610e56565b6107765760405162461bcd60e51b815260040161076d90611f01565b60405180910390fd5b601054600081116107995760405162461bcd60e51b815260040161076d90611f36565b6107c37f000000000000000000000000000000000000000000000000000000000000000082611f7a565b4210156107e25760405162461bcd60e51b815260040161076d90611f8d565b50600d80546001600160a01b03166000908152600860205260408120805460ff1916600117905560105580546001600160a01b0319169055565b61082783838361163c565b505050565b600061083933848461163c565b5060015b92915050565b3360009081526005602052604090205460ff168061087057503360009081526006602052604090205460ff165b6108dc5760405162461bcd60e51b815260206004820152603760248201527f54485553443a2043616c6c6572206973206e6569746865722054726f76654d616044820152761b9859d95c881b9bdc8814dd18589a5b1a5d1e541bdbdb604a1b606482015260840161076d565b6108278383836116ca565b60006108f2836117fc565b6108fd8484846116ca565b6001600160a01b0384166000908152600460209081526040808320338452909152902054828110156109825760405162461bcd60e51b815260206004820152602860248201527f45524332303a207472616e7366657220616d6f756e74206578636565647320616044820152676c6c6f77616e636560c01b606482015260840161076d565b61099685336109918685611fc2565b61163c565b506001949350505050565b3360008181526004602090815260408083206001600160a01b03871684529091528120549091610839918590610991908690611f7a565b6109e282826118ae565b5050565b3360009081526008602052604090205460ff16610a545760405162461bcd60e51b815260206004820152602660248201527f5448555344546f6b656e3a2043616c6c6572206e6f7420616c6c6f77656420746044820152651bc81b5a5b9d60d21b606482015260840161076d565b6109e282826119b1565b610a66610e56565b610a825760405162461bcd60e51b815260040161076d90611f01565b6001600160a01b03811660009081526008602052604090205460ff1615610ae65760405162461bcd60e51b8152602060048201526018602482015277125b98dbdc9c9958dd081859191c995cdcc81d1bc818591960421b604482015260640161076d565b42601055600d80546001600160a01b0319166001600160a01b0392909216919091179055565b6000611901610b1961154a565b7f00000000000000000000000000000000000000000000000000000000000000008888888888604051602001610b5496959493929190611fd5565b60405160208183030381529060405280519060200120604051602001610b9c9392919060f09390931b6001600160f01b03191683526002830191909152602282015260420190565b60405160208183030381529060405280519060200120905095945050505050565b610bc5610e56565b610be15760405162461bcd60e51b815260040161076d90611f01565b600f5460008111610c045760405162461bcd60e51b815260040161076d90611f36565b610c2e7f000000000000000000000000000000000000000000000000000000000000000082611f7a565b421015610c4d5760405162461bcd60e51b815260040161076d90611f8d565b600954600a54600b54610c6f926001600160a01b039081169281169116611a3b565b506000600f55600980546001600160a01b0319908116909155600a805482169055600b80549091169055565b610ca3610e56565b610cbf5760405162461bcd60e51b815260040161076d90611f01565b600f54600003610d115760405162461bcd60e51b815260206004820152601f60248201527f416464696e6720636f6e747261637473206973206e6f74207374617274656400604482015260640161076d565b6000600f55600980546001600160a01b0319908116909155600a805482169055600b80549091169055565b6040805160008082526020820180845287905260ff861692820192909252606081018490526080810183905260019060a0016020604051602081039080840390855afa158015610d90573d6000803e3d6000fd5b5050604051601f1901519695505050505050565b610dac610e56565b610dc85760405162461bcd60e51b815260040161076d90611f01565b6001600160a01b03811660009081526008602052604090205460ff16610e305760405162461bcd60e51b815260206004820152601b60248201527f496e636f7272656374206164647265737320746f207265766f6b650000000000604482015260640161076d565b42600e55600c80546001600160a01b0319166001600160a01b0392909216919091179055565b6000546001600160a01b0316331490565b3360009081526007602052604090205460ff1680610e9457503360009081526005602052604090205460ff165b80610eae57503360009081526006602052604090205460ff165b6109d85760405162461bcd60e51b815260206004820152604e60248201527f54485553443a2043616c6c6572206973206e65697468657220426f72726f776560448201527f724f7065726174696f6e73206e6f722054726f76654d616e61676572206e6f7260648201526d0814dd18589a5b1a5d1e541bdbdb60921b608482015260a40161076d565b3360009081526004602090815260408083206001600160a01b038616845290915281205482811015610fb95760405162461bcd60e51b815260206004820152602560248201527f45524332303a2064656372656173656420616c6c6f77616e63652062656c6f77604482015264207a65726f60d81b606482015260840161076d565b610fc833856109918685611fc2565b5060019392505050565b610fda610e56565b610ff65760405162461bcd60e51b815260040161076d90611f01565b600e546000036110575760405162461bcd60e51b815260206004820152602660248201527f5265766f6b696e672066726f6d206d696e74206c697374206973206e6f7420736044820152651d185c9d195960d21b606482015260840161076d565b6000600e55600c80546001600160a01b0319169055565b611076610e56565b6110925760405162461bcd60e51b815260040161076d90611f01565b6010546000036110ef5760405162461bcd60e51b815260206004820152602260248201527f416464696e6720746f206d696e74206c697374206973206e6f74207374617274604482015261195960f21b606482015260840161076d565b6000601055600d80546001600160a01b0319169055565b6000611111836117fc565b6108393384846116ca565b3360009081526006602052604090205460ff166108dc5760405162461bcd60e51b815260206004820152602660248201527f54485553443a2043616c6c6572206973206e6f74207468652053746162696c696044820152651d1e541bdbdb60d21b606482015260840161076d565b428410156111d45760405162461bcd60e51b815260206004820152601760248201527654485553443a206578706972656420646561646c696e6560481b604482015260640161076d565b60006111de61154a565b6001600160a01b038916600090815260026020526040812080547f6e71edae12b1b97f4d1f60370fef10105fa2faae0126114a169c64845d6126c9928c928c928c9290919061122c83612009565b919050558a60405160200161124696959493929190611fd5565b6040516020818303038152906040528051906020012060405160200161128392919061190160f01b81526002810192909252602282015260420190565b60408051601f198184030181528282528051602091820120600080855291840180845281905260ff88169284019290925260608301869052608083018590529092509060019060a0016020604051602081039080840390855afa1580156112ee573d6000803e3d6000fd5b505050602060405103519050886001600160a01b0316816001600160a01b0316146113565760405162461bcd60e51b815260206004820152601860248201527754485553443a20696e76616c6964207369676e617475726560401b604482015260640161076d565b61136189898961163c565b505050505050505050565b611374610e56565b6113905760405162461bcd60e51b815260040161076d90611f01565b600e54600081116113b35760405162461bcd60e51b815260040161076d90611f36565b6113dd7f000000000000000000000000000000000000000000000000000000000000000082611f7a565b4210156113fc5760405162461bcd60e51b815260040161076d90611f8d565b50600c80546001600160a01b03166000908152600860205260408120805460ff19169055600e5580546001600160a01b0319169055565b61143b610e56565b6114575760405162461bcd60e51b815260040161076d90611f01565b61146083611b8d565b61146982611b8d565b61147281611b8d565b600980546001600160a01b039485166001600160a01b031991821617909155600a805493851693821693909317909255600b805491909316911617905542600f55565b6114bd610e56565b6114d95760405162461bcd60e51b815260040161076d90611f01565b6001600160a01b03811661153e5760405162461bcd60e51b815260206004820152602660248201527f4f776e61626c653a206e6577206f776e657220697320746865207a65726f206160448201526564647265737360d01b606482015260840161076d565b61154781611c32565b50565b60007f0000000000000000000000000000000000000000000000000000000000000000460361159857507f000000000000000000000000000000000000000000000000000000000000000090565b50604080517f8b73c3c69bb8fe3d512ecc4cf759cc79239f7b179b0ffacaa9a75d522b39400f6020808301919091527f0000000000000000000000000000000000000000000000000000000000000000828401527f000000000000000000000000000000000000000000000000000000000000000060608301524660808301523060a0808401919091528351808403909101815260c0909201909252805191012090565b6001600160a01b03831661165257611652612022565b6001600160a01b03821661166857611668612022565b6001600160a01b0383811660008181526004602090815260408083209487168084529482529182902085905590518481527f8c5be1e5ebec7d5bd14f71427d1e84f3dd0314c0f7b2291e5b200ac8c7c3b92591015b60405180910390a3505050565b6001600160a01b0383166116e0576116e0612022565b6001600160a01b0382166116f6576116f6612022565b6001600160a01b03831660009081526003602052604090205481111561176d5760405162461bcd60e51b815260206004820152602660248201527f45524332303a207472616e7366657220616d6f756e7420657863656564732062604482015265616c616e636560d01b606482015260840161076d565b6001600160a01b03831660009081526003602052604081208054839290611795908490611fc2565b90915550506001600160a01b038216600090815260036020526040812080548392906117c2908490611f7a565b92505081905550816001600160a01b0316836001600160a01b0316600080516020612039833981519152836040516116bd91815260200190565b6001600160a01b0381161580159061181d57506001600160a01b0381163014155b6115475760405162461bcd60e51b815260206004820152605660248201527f54485553443a2043616e6e6f74207472616e7366657220746f6b656e7320646960448201527f726563746c7920746f2074686520544855534420746f6b656e20636f6e7472616064820152756374206f7220746865207a65726f206164647265737360501b608482015260a40161076d565b6001600160a01b0382166118c4576118c4612022565b6001600160a01b0382166000908152600360205260409020548111156119375760405162461bcd60e51b815260206004820152602260248201527f45524332303a206275726e20616d6f756e7420657863656564732062616c616e604482015261636560f01b606482015260840161076d565b6001600160a01b0382166000908152600360205260408120805483929061195f908490611fc2565b9250508190555080600160008282546119789190611fc2565b90915550506040518181526000906001600160a01b03841690600080516020612039833981519152906020015b60405180910390a35050565b6001600160a01b0382166119c7576119c7612022565b806001546119d59190611f7a565b6001556001600160a01b0382166000908152600360205260409020546119fc908290611f7a565b6001600160a01b038316600081815260036020526040808220939093559151909190600080516020612039833981519152906119a59085815260200190565b611a4483611b8d565b611a4d82611b8d565b611a5681611b8d565b6001600160a01b03831660009081526005602052604090819020805460ff19166001179055517f552e6c3035c33f04f1890bc312cbff2a7785b2e14ba719e635c5a8a75470564790611aa9908590611dc1565b60405180910390a16001600160a01b03821660009081526006602052604090819020805460ff19166001179055517fd5aac92b48f52fdc22e5b14b07e3cbbd61e939d86cec15efe7db4fd82a8d191190611b04908490611dc1565b60405180910390a16001600160a01b03811660009081526007602052604090819020805460ff19166001179055517f5f1db3103369b41aebc8a140eb5553e5a21d3df288ff446278b59eb15d59e2a490611b5f908390611dc1565b60405180910390a16001600160a01b03166000908152600860205260409020805460ff191660011790555050565b6001600160a01b038116611be35760405162461bcd60e51b815260206004820152601e60248201527f4163636f756e742063616e6e6f74206265207a65726f20616464726573730000604482015260640161076d565b803b806109e25760405162461bcd60e51b815260206004820181905260248201527f4163636f756e7420636f64652073697a652063616e6e6f74206265207a65726f604482015260640161076d565b600080546001600160a01b038381166001600160a01b0319831681178455604051919092169283917f8be0079c531659141344cd1fd0a4f28419497f9722a3daafe3b4186f6b6457e09190a35050565b80356001600160a01b0381168114611c9957600080fd5b919050565b600080600060608486031215611cb357600080fd5b611cbc84611c82565b9250611cca60208501611c82565b9150604084013590509250925092565b600060208083528351808285015260005b81811015611d0757858101830151858201604001528201611ceb565b506000604082860101526040601f19601f8301168501019250505092915050565b60008060408385031215611d3b57600080fd5b611d4483611c82565b946020939093013593505050565b600060208284031215611d6457600080fd5b611d6d82611c82565b9392505050565b600080600080600060a08688031215611d8c57600080fd5b611d9586611c82565b9450611da360208701611c82565b94979496505050506040830135926060810135926080909101359150565b6001600160a01b0391909116815260200190565b803560ff81168114611c9957600080fd5b60008060008060808587031215611dfc57600080fd5b84359350611e0c60208601611dd5565b93969395505050506040820135916060013590565b600080600080600080600060e0888a031215611e3c57600080fd5b611e4588611c82565b9650611e5360208901611c82565b95506040880135945060608801359350611e6f60808901611dd5565b925060a0880135915060c0880135905092959891949750929550565b60008060408385031215611e9e57600080fd5b611ea783611c82565b9150611eb560208401611c82565b90509250929050565b600080600060608486031215611ed357600080fd5b611edc84611c82565b9250611eea60208501611c82565b9150611ef860408501611c82565b90509250925092565b6020808252818101527f4f776e61626c653a2063616c6c6572206973206e6f7420746865206f776e6572604082015260600190565b60208082526014908201527310da185b99d9481b9bdd081a5b9a5d1a585d195960621b604082015260600190565b634e487b7160e01b600052601160045260246000fd5b8082018082111561083d5761083d611f64565b6020808252818101527f476f7665726e616e63652064656c617920686173206e6f7420656c6170736564604082015260600190565b8181038181111561083d5761083d611f64565b9586526001600160a01b0394851660208701529290931660408501526060840152608083019190915260a082015260c00190565b60006001820161201b5761201b611f64565b5060010190565b634e487b7160e01b600052600160045260246000fdfeddf252ad1be2c89b69c2b068fc378daa952ba7f163c4a11628f55a4df523b3efa2646970667358221220ec5f49590bb5d136c344a910b49c42627c46e7111054daec7cd46556762abc8164736f6c63430008110033",
  "linkReferences": {},
  "deployedLinkReferences": {}
}