{
  "_format": "hh-sol-artifact-1",
  "contractName": "THUSDToken",
  "sourceName": "contracts/THUSDToken.sol",
  "abi": [
    {
      "inputs": [
        {
          "internalType": "address",
          "name": "_troveManagerAddress",
          "type": "address"
        },
        {
          "internalType": "address",
          "name": "_stabilityPoolAddress",
          "type": "address"
        },
        {
          "internalType": "address",
          "name": "_borrowerOperationsAddress",
          "type": "address"
        },
        {
          "internalType": "uint256",
          "name": "_governanceTimeDelay",
          "type": "uint256"
        }
      ],
      "stateMutability": "nonpayable",
      "type": "constructor"
    },
    {
      "anonymous": false,
      "inputs": [
        {
          "indexed": true,
          "internalType": "address",
          "name": "owner",
          "type": "address"
        },
        {
          "indexed": true,
          "internalType": "address",
          "name": "spender",
          "type": "address"
        },
        {
          "indexed": false,
          "internalType": "uint256",
          "name": "value",
          "type": "uint256"
        }
      ],
      "name": "Approval",
      "type": "event"
    },
    {
      "anonymous": false,
      "inputs": [
        {
          "indexed": false,
          "internalType": "address",
          "name": "_newBorrowerOperationsAddress",
          "type": "address"
        }
      ],
      "name": "BorrowerOperationsAddressAdded",
      "type": "event"
    },
    {
      "anonymous": false,
      "inputs": [
        {
          "indexed": true,
          "internalType": "address",
          "name": "previousOwner",
          "type": "address"
        },
        {
          "indexed": true,
          "internalType": "address",
          "name": "newOwner",
          "type": "address"
        }
      ],
      "name": "OwnershipTransferred",
      "type": "event"
    },
    {
      "anonymous": false,
      "inputs": [
        {
          "indexed": false,
          "internalType": "address",
          "name": "_newStabilityPoolAddress",
          "type": "address"
        }
      ],
      "name": "StabilityPoolAddressAdded",
      "type": "event"
    },
    {
      "anonymous": false,
      "inputs": [
        {
          "indexed": false,
          "internalType": "address",
          "name": "_user",
          "type": "address"
        },
        {
          "indexed": false,
          "internalType": "uint256",
          "name": "_amount",
          "type": "uint256"
        }
      ],
      "name": "THUSDTokenBalanceUpdated",
      "type": "event"
    },
    {
      "anonymous": false,
      "inputs": [
        {
          "indexed": true,
          "internalType": "address",
          "name": "from",
          "type": "address"
        },
        {
          "indexed": true,
          "internalType": "address",
          "name": "to",
          "type": "address"
        },
        {
          "indexed": false,
          "internalType": "uint256",
          "name": "value",
          "type": "uint256"
        }
      ],
      "name": "Transfer",
      "type": "event"
    },
    {
      "anonymous": false,
      "inputs": [
        {
          "indexed": false,
          "internalType": "address",
          "name": "_troveManagerAddress",
          "type": "address"
        }
      ],
      "name": "TroveManagerAddressAdded",
      "type": "event"
    },
    {
      "inputs": [],
      "name": "addContractsInitiated",
      "outputs": [
        {
          "internalType": "uint256",
          "name": "",
          "type": "uint256"
        }
      ],
      "stateMutability": "view",
      "type": "function"
    },
    {
      "inputs": [],
      "name": "addMintListInitiated",
      "outputs": [
        {
          "internalType": "uint256",
          "name": "",
          "type": "uint256"
        }
      ],
      "stateMutability": "view",
      "type": "function"
    },
    {
      "inputs": [
        {
          "internalType": "address",
          "name": "owner",
          "type": "address"
        },
        {
          "internalType": "address",
          "name": "spender",
          "type": "address"
        }
      ],
      "name": "allowance",
      "outputs": [
        {
          "internalType": "uint256",
          "name": "",
          "type": "uint256"
        }
      ],
      "stateMutability": "view",
      "type": "function"
    },
    {
      "inputs": [
        {
          "internalType": "address",
          "name": "spender",
          "type": "address"
        },
        {
          "internalType": "uint256",
          "name": "amount",
          "type": "uint256"
        }
      ],
      "name": "approve",
      "outputs": [
        {
          "internalType": "bool",
          "name": "",
          "type": "bool"
        }
      ],
      "stateMutability": "nonpayable",
      "type": "function"
    },
    {
      "inputs": [
        {
          "internalType": "address",
          "name": "account",
          "type": "address"
        }
      ],
      "name": "balanceOf",
      "outputs": [
        {
          "internalType": "uint256",
          "name": "",
          "type": "uint256"
        }
      ],
      "stateMutability": "view",
      "type": "function"
    },
    {
      "inputs": [
        {
          "internalType": "address",
          "name": "_account",
          "type": "address"
        },
        {
          "internalType": "uint256",
          "name": "_amount",
          "type": "uint256"
        }
      ],
      "name": "burn",
      "outputs": [],
      "stateMutability": "nonpayable",
      "type": "function"
    },
    {
      "inputs": [],
      "name": "cancelAddContracts",
      "outputs": [],
      "stateMutability": "nonpayable",
      "type": "function"
    },
    {
      "inputs": [],
      "name": "cancelAddMintList",
      "outputs": [],
      "stateMutability": "nonpayable",
      "type": "function"
    },
    {
      "inputs": [],
      "name": "cancelRevokeMintList",
      "outputs": [],
      "stateMutability": "nonpayable",
      "type": "function"
    },
    {
      "inputs": [],
      "name": "decimals",
      "outputs": [
        {
          "internalType": "uint8",
          "name": "",
          "type": "uint8"
        }
      ],
      "stateMutability": "pure",
      "type": "function"
    },
    {
      "inputs": [
        {
          "internalType": "address",
          "name": "spender",
          "type": "address"
        },
        {
          "internalType": "uint256",
          "name": "subtractedValue",
          "type": "uint256"
        }
      ],
      "name": "decreaseAllowance",
      "outputs": [
        {
          "internalType": "bool",
          "name": "",
          "type": "bool"
        }
      ],
      "stateMutability": "nonpayable",
      "type": "function"
    },
    {
      "inputs": [],
      "name": "domainSeparator",
      "outputs": [
        {
          "internalType": "bytes32",
          "name": "",
          "type": "bytes32"
        }
      ],
      "stateMutability": "view",
      "type": "function"
    },
    {
      "inputs": [],
      "name": "finalizeAddContracts",
      "outputs": [],
      "stateMutability": "nonpayable",
      "type": "function"
    },
    {
      "inputs": [],
      "name": "finalizeAddMintList",
      "outputs": [],
      "stateMutability": "nonpayable",
      "type": "function"
    },
    {
      "inputs": [],
      "name": "finalizeRevokeMintList",
      "outputs": [],
      "stateMutability": "nonpayable",
      "type": "function"
    },
    {
      "inputs": [],
      "name": "governanceTimeDelay",
      "outputs": [
        {
          "internalType": "uint256",
          "name": "",
          "type": "uint256"
        }
      ],
      "stateMutability": "view",
      "type": "function"
    },
    {
      "inputs": [
        {
          "internalType": "address",
          "name": "spender",
          "type": "address"
        },
        {
          "internalType": "uint256",
          "name": "addedValue",
          "type": "uint256"
        }
      ],
      "name": "increaseAllowance",
      "outputs": [
        {
          "internalType": "bool",
          "name": "",
          "type": "bool"
        }
      ],
      "stateMutability": "nonpayable",
      "type": "function"
    },
    {
      "inputs": [
        {
          "internalType": "address",
          "name": "",
          "type": "address"
        }
      ],
      "name": "isBorrowerOperations",
      "outputs": [
        {
          "internalType": "bool",
          "name": "",
          "type": "bool"
        }
      ],
      "stateMutability": "view",
      "type": "function"
    },
    {
      "inputs": [],
      "name": "isOwner",
      "outputs": [
        {
          "internalType": "bool",
          "name": "",
          "type": "bool"
        }
      ],
      "stateMutability": "view",
      "type": "function"
    },
    {
      "inputs": [
        {
          "internalType": "address",
          "name": "",
          "type": "address"
        }
      ],
      "name": "isStabilityPools",
      "outputs": [
        {
          "internalType": "bool",
          "name": "",
          "type": "bool"
        }
      ],
      "stateMutability": "view",
      "type": "function"
    },
    {
      "inputs": [
        {
          "internalType": "address",
          "name": "",
          "type": "address"
        }
      ],
      "name": "isTroveManager",
      "outputs": [
        {
          "internalType": "bool",
          "name": "",
          "type": "bool"
        }
      ],
      "stateMutability": "view",
      "type": "function"
    },
    {
      "inputs": [
        {
          "internalType": "address",
          "name": "_account",
          "type": "address"
        },
        {
          "internalType": "uint256",
          "name": "_amount",
          "type": "uint256"
        }
      ],
      "name": "mint",
      "outputs": [],
      "stateMutability": "nonpayable",
      "type": "function"
    },
    {
      "inputs": [
        {
          "internalType": "address",
          "name": "",
          "type": "address"
        }
      ],
      "name": "mintList",
      "outputs": [
        {
          "internalType": "bool",
          "name": "",
          "type": "bool"
        }
      ],
      "stateMutability": "view",
      "type": "function"
    },
    {
      "inputs": [],
      "name": "name",
      "outputs": [
        {
          "internalType": "string",
          "name": "",
          "type": "string"
        }
      ],
      "stateMutability": "pure",
      "type": "function"
    },
    {
      "inputs": [
        {
          "internalType": "address",
          "name": "owner",
          "type": "address"
        }
      ],
      "name": "nonces",
      "outputs": [
        {
          "internalType": "uint256",
          "name": "",
          "type": "uint256"
        }
      ],
      "stateMutability": "view",
      "type": "function"
    },
    {
      "inputs": [],
      "name": "owner",
      "outputs": [
        {
          "internalType": "address",
          "name": "",
          "type": "address"
        }
      ],
      "stateMutability": "view",
      "type": "function"
    },
    {
      "inputs": [],
      "name": "pendingAddedMintAddress",
      "outputs": [
        {
          "internalType": "address",
          "name": "",
          "type": "address"
        }
      ],
      "stateMutability": "view",
      "type": "function"
    },
    {
      "inputs": [],
      "name": "pendingBorrowerOperations",
      "outputs": [
        {
          "internalType": "address",
          "name": "",
          "type": "address"
        }
      ],
      "stateMutability": "view",
      "type": "function"
    },
    {
      "inputs": [],
      "name": "pendingRevokedMintAddress",
      "outputs": [
        {
          "internalType": "address",
          "name": "",
          "type": "address"
        }
      ],
      "stateMutability": "view",
      "type": "function"
    },
    {
      "inputs": [],
      "name": "pendingStabilityPool",
      "outputs": [
        {
          "internalType": "address",
          "name": "",
          "type": "address"
        }
      ],
      "stateMutability": "view",
      "type": "function"
    },
    {
      "inputs": [],
      "name": "pendingTroveManager",
      "outputs": [
        {
          "internalType": "address",
          "name": "",
          "type": "address"
        }
      ],
      "stateMutability": "view",
      "type": "function"
    },
    {
      "inputs": [
        {
          "internalType": "address",
          "name": "owner",
          "type": "address"
        },
        {
          "internalType": "address",
          "name": "spender",
          "type": "address"
        },
        {
          "internalType": "uint256",
          "name": "amount",
          "type": "uint256"
        },
        {
          "internalType": "uint256",
          "name": "deadline",
          "type": "uint256"
        },
        {
          "internalType": "uint8",
          "name": "v",
          "type": "uint8"
        },
        {
          "internalType": "bytes32",
          "name": "r",
          "type": "bytes32"
        },
        {
          "internalType": "bytes32",
          "name": "s",
          "type": "bytes32"
        }
      ],
      "name": "permit",
      "outputs": [],
      "stateMutability": "nonpayable",
      "type": "function"
    },
    {
      "inputs": [],
      "name": "permitTypeHash",
      "outputs": [
        {
          "internalType": "bytes32",
          "name": "",
          "type": "bytes32"
        }
      ],
      "stateMutability": "pure",
      "type": "function"
    },
    {
      "inputs": [
        {
          "internalType": "address",
          "name": "_poolAddress",
          "type": "address"
        },
        {
          "internalType": "address",
          "name": "_receiver",
          "type": "address"
        },
        {
          "internalType": "uint256",
          "name": "_amount",
          "type": "uint256"
        }
      ],
      "name": "returnFromPool",
      "outputs": [],
      "stateMutability": "nonpayable",
      "type": "function"
    },
    {
      "inputs": [],
      "name": "revokeMintListInitiated",
      "outputs": [
        {
          "internalType": "uint256",
          "name": "",
          "type": "uint256"
        }
      ],
      "stateMutability": "view",
      "type": "function"
    },
    {
      "inputs": [
        {
          "internalType": "address",
          "name": "_sender",
          "type": "address"
        },
        {
          "internalType": "address",
          "name": "_poolAddress",
          "type": "address"
        },
        {
          "internalType": "uint256",
          "name": "_amount",
          "type": "uint256"
        }
      ],
      "name": "sendToPool",
      "outputs": [],
      "stateMutability": "nonpayable",
      "type": "function"
    },
    {
      "inputs": [
        {
          "internalType": "address",
          "name": "_troveManagerAddress",
          "type": "address"
        },
        {
          "internalType": "address",
          "name": "_stabilityPoolAddress",
          "type": "address"
        },
        {
          "internalType": "address",
          "name": "_borrowerOperationsAddress",
          "type": "address"
        }
      ],
      "name": "startAddContracts",
      "outputs": [],
      "stateMutability": "nonpayable",
      "type": "function"
    },
    {
      "inputs": [
        {
          "internalType": "address",
          "name": "_account",
          "type": "address"
        }
      ],
      "name": "startAddMintList",
      "outputs": [],
      "stateMutability": "nonpayable",
      "type": "function"
    },
    {
      "inputs": [
        {
          "internalType": "address",
          "name": "_account",
          "type": "address"
        }
      ],
      "name": "startRevokeMintList",
      "outputs": [],
      "stateMutability": "nonpayable",
      "type": "function"
    },
    {
      "inputs": [],
      "name": "symbol",
      "outputs": [
        {
          "internalType": "string",
          "name": "",
          "type": "string"
        }
      ],
      "stateMutability": "pure",
      "type": "function"
    },
    {
      "inputs": [],
      "name": "totalSupply",
      "outputs": [
        {
          "internalType": "uint256",
          "name": "",
          "type": "uint256"
        }
      ],
      "stateMutability": "view",
      "type": "function"
    },
    {
      "inputs": [
        {
          "internalType": "address",
          "name": "recipient",
          "type": "address"
        },
        {
          "internalType": "uint256",
          "name": "amount",
          "type": "uint256"
        }
      ],
      "name": "transfer",
      "outputs": [
        {
          "internalType": "bool",
          "name": "",
          "type": "bool"
        }
      ],
      "stateMutability": "nonpayable",
      "type": "function"
    },
    {
      "inputs": [
        {
          "internalType": "address",
          "name": "sender",
          "type": "address"
        },
        {
          "internalType": "address",
          "name": "recipient",
          "type": "address"
        },
        {
          "internalType": "uint256",
          "name": "amount",
          "type": "uint256"
        }
      ],
      "name": "transferFrom",
      "outputs": [
        {
          "internalType": "bool",
          "name": "",
          "type": "bool"
        }
      ],
      "stateMutability": "nonpayable",
      "type": "function"
    },
    {
      "inputs": [
        {
          "internalType": "address",
          "name": "newOwner",
          "type": "address"
        }
      ],
      "name": "transferOwnership",
      "outputs": [],
      "stateMutability": "nonpayable",
      "type": "function"
    },
    {
      "inputs": [],
      "name": "version",
      "outputs": [
        {
          "internalType": "string",
          "name": "",
          "type": "string"
        }
      ],
      "stateMutability": "pure",
      "type": "function"
    }
  ],
  "bytecode": "0x6101206040523480156200001257600080fd5b506040516200223e3803806200223e833981016040819052620000359162000396565b600080546001600160a01b0319163390811782556040519091907f8be0079c531659141344cd1fd0a4f28419497f9722a3daafe3b4186f6b6457e0908290a3620000818484846200017c565b604080518082018252601081526f3a342aa9a21029ba30b13632b1b7b4b760811b6020918201528151808301835260018152603160f81b908201527fb420e63a52018fe4b3b72ffe648949904454feec27ee6f33df1275269fdce54460c08181527fc89efdaa54c0f20c7adf612882df0950f5a951637e0307cdcb4c672f298b8bc660e08190524660a081815286517f8b73c3c69bb8fe3d512ecc4cf759cc79239f7b179b0ffacaa9a75d522b39400f818801528088018690526060810184905260808101929092523082820152865180830390910181529201909452805192019190912090919060805250506101005250620003e8915050565b6200018783620002c8565b6200019282620002c8565b6200019d81620002c8565b6001600160a01b038316600081815260056020908152604091829020805460ff1916600117905590519182527f552e6c3035c33f04f1890bc312cbff2a7785b2e14ba719e635c5a8a754705647910160405180910390a16001600160a01b038216600081815260066020908152604091829020805460ff1916600117905590519182527fd5aac92b48f52fdc22e5b14b07e3cbbd61e939d86cec15efe7db4fd82a8d1911910160405180910390a16001600160a01b038116600081815260076020908152604091829020805460ff1916600117905590519182527f5f1db3103369b41aebc8a140eb5553e5a21d3df288ff446278b59eb15d59e2a4910160405180910390a16001600160a01b03166000908152600860205260409020805460ff191660011790555050565b6001600160a01b038116620003245760405162461bcd60e51b815260206004820152601e60248201527f4163636f756e742063616e6e6f74206265207a65726f2061646472657373000060448201526064015b60405180910390fd5b803b80620003755760405162461bcd60e51b815260206004820181905260248201527f4163636f756e7420636f64652073697a652063616e6e6f74206265207a65726f60448201526064016200031b565b5050565b80516001600160a01b03811681146200039157600080fd5b919050565b60008060008060808587031215620003ad57600080fd5b620003b88562000379565b9350620003c86020860162000379565b9250620003d86040860162000379565b6060959095015193969295505050565b60805160a05160c05160e05161010051611dfc6200044260003960008181610507015281816106ce01528181610a7301526111e60152600061141c015260006113f70152600061137c015260006113a40152611dfc6000f3fe608060405234801561001057600080fd5b506004361061027f5760003560e01c806395d89b411161015c578063bb997bac116100ce578063dd62ed3e11610087578063dd62ed3e146105e7578063e228406e14610620578063eecb7cc114610628578063f0e5370b1461063b578063f2fde38b1461065e578063f698da251461067157600080fd5b8063bb997bac1461055f578063bef432c614610572578063c441b24514610595578063cd33973a146105b8578063d505accf146105c1578063d5414ba2146105d457600080fd5b8063a866eaf711610120578063a866eaf7146104d4578063a9059cbb146104dc578063af301923146104ef578063afe5bf9314610502578063b3406ce314610529578063b427cd4e1461054c57600080fd5b806395d89b411461047c5780639ce922ff1461049d5780639dc29fac146104a6578063a457c2d7146104b9578063a7936437146104cc57600080fd5b806348581f39116101f55780636d3aa16a116101b95780636d3aa16a146103f657806370a08231146103fe5780637ecebe00146104275780638961cb24146104505780638da5cb5b146104635780638f32d59b1461047457600080fd5b806348581f391461039557806354fd4d501461039e57806358f2f1cf146103bb578063660edfd8146103db5780636720c945146103e357600080fd5b806320c582be1161024757806320c582be1461032757806323b872dd1461033a578063313ce5671461034d578063395093511461035c57806340c10f191461036f578063441633f21461038257600080fd5b8063011104791461028457806306fdde031461028e578063095ea7b3146102cc57806310ce43bd146102ef57806318160ddd1461031f575b600080fd5b61028c610679565b005b60408051808201909152601081526f3a342aa9a21029ba30b13632b1b7b4b760811b60208201525b6040516102c39190611ab4565b60405180910390f35b6102df6102da366004611b1e565b61074c565b60405190151581526020016102c3565b7f6e71edae12b1b97f4d1f60370fef10105fa2faae0126114a169c64845d6126c95b6040519081526020016102c3565b600154610311565b61028c610335366004611b48565b610763565b6102df610348366004611b48565b61080c565b604051601281526020016102c3565b6102df61036a366004611b1e565b6108c6565b61028c61037d366004611b1e565b6108fd565b61028c610390366004611b84565b610979565b610311600e5481565b6040805180820190915260018152603160f81b60208201526102b6565b600c546103ce906001600160a01b031681565b6040516102c39190611ba6565b61028c610a27565b600b546103ce906001600160a01b031681565b61028c610b05565b61031161040c366004611b84565b6001600160a01b031660009081526003602052604090205490565b610311610435366004611b84565b6001600160a01b031660009081526002602052604090205490565b61028c61045e366004611b84565b610ba6565b6000546001600160a01b03166103ce565b6102df610c58565b6040805180820190915260058152641d1a1554d160da1b60208201526102b6565b610311600f5481565b61028c6104b4366004611b1e565b610c69565b6102df6104c7366004611b1e565b610d43565b61028c610dde565b61028c610e7a565b6102df6104ea366004611b1e565b610f12565b600a546103ce906001600160a01b031681565b6103117f000000000000000000000000000000000000000000000000000000000000000081565b6102df610537366004611b84565b60076020526000908152604090205460ff1681565b6009546103ce906001600160a01b031681565b61028c61056d366004611b48565b610f28565b6102df610580366004611b84565b60086020526000908152604090205460ff1681565b6102df6105a3366004611b84565b60066020526000908152604090205460ff1681565b61031160105481565b61028c6105cf366004611bba565b610f96565b600d546103ce906001600160a01b031681565b6103116105f5366004611c2d565b6001600160a01b03918216600090815260046020908152604080832093909416825291909152205490565b61028c61119a565b61028c610636366004611c60565b611261565b6102df610649366004611b84565b60056020526000908152604090205460ff1681565b61028c61066c366004611b84565b6112e3565b610311611378565b610681610c58565b6106a65760405162461bcd60e51b815260040161069d90611ca3565b60405180910390fd5b601054600081116106c95760405162461bcd60e51b815260040161069d90611cd8565b6106f37f000000000000000000000000000000000000000000000000000000000000000082611d1c565b4210156107125760405162461bcd60e51b815260040161069d90611d2f565b50600d80546001600160a01b03166000908152600860205260408120805460ff1916600117905560105580546001600160a01b0319169055565b600061075933848461146a565b5060015b92915050565b3360009081526005602052604090205460ff168061079057503360009081526006602052604090205460ff165b6107fc5760405162461bcd60e51b815260206004820152603760248201527f54485553443a2043616c6c6572206973206e6569746865722054726f76654d616044820152761b9859d95c881b9bdc8814dd18589a5b1a5d1e541bdbdb604a1b606482015260840161069d565b6108078383836114f8565b505050565b60006108178361162a565b6108228484846114f8565b6001600160a01b0384166000908152600460209081526040808320338452909152902054828110156108a75760405162461bcd60e51b815260206004820152602860248201527f45524332303a207472616e7366657220616d6f756e74206578636565647320616044820152676c6c6f77616e636560c01b606482015260840161069d565b6108bb85336108b68685611d64565b61146a565b506001949350505050565b3360008181526004602090815260408083206001600160a01b038716845290915281205490916107599185906108b6908690611d1c565b3360009081526008602052604090205460ff1661096b5760405162461bcd60e51b815260206004820152602660248201527f5448555344546f6b656e3a2043616c6c6572206e6f7420616c6c6f77656420746044820152651bc81b5a5b9d60d21b606482015260840161069d565b61097582826116dc565b5050565b610981610c58565b61099d5760405162461bcd60e51b815260040161069d90611ca3565b6001600160a01b03811660009081526008602052604090205460ff1615610a015760405162461bcd60e51b8152602060048201526018602482015277125b98dbdc9c9958dd081859191c995cdcc81d1bc818591960421b604482015260640161069d565b42601055600d80546001600160a01b0319166001600160a01b0392909216919091179055565b610a2f610c58565b610a4b5760405162461bcd60e51b815260040161069d90611ca3565b600f5460008111610a6e5760405162461bcd60e51b815260040161069d90611cd8565b610a987f000000000000000000000000000000000000000000000000000000000000000082611d1c565b421015610ab75760405162461bcd60e51b815260040161069d90611d2f565b600954600a54600b54610ad9926001600160a01b039081169281169116611772565b506000600f55600980546001600160a01b0319908116909155600a805482169055600b80549091169055565b610b0d610c58565b610b295760405162461bcd60e51b815260040161069d90611ca3565b600f54600003610b7b5760405162461bcd60e51b815260206004820152601f60248201527f416464696e6720636f6e747261637473206973206e6f74207374617274656400604482015260640161069d565b6000600f55600980546001600160a01b0319908116909155600a805482169055600b80549091169055565b610bae610c58565b610bca5760405162461bcd60e51b815260040161069d90611ca3565b6001600160a01b03811660009081526008602052604090205460ff16610c325760405162461bcd60e51b815260206004820152601b60248201527f496e636f7272656374206164647265737320746f207265766f6b650000000000604482015260640161069d565b42600e55600c80546001600160a01b0319166001600160a01b0392909216919091179055565b6000546001600160a01b0316331490565b3360009081526007602052604090205460ff1680610c9657503360009081526005602052604090205460ff165b80610cb057503360009081526006602052604090205460ff165b610d395760405162461bcd60e51b815260206004820152604e60248201527f54485553443a2043616c6c6572206973206e65697468657220426f72726f776560448201527f724f7065726174696f6e73206e6f722054726f76654d616e61676572206e6f7260648201526d0814dd18589a5b1a5d1e541bdbdb60921b608482015260a40161069d565b61097582826118c4565b3360009081526004602090815260408083206001600160a01b038616845290915281205482811015610dc55760405162461bcd60e51b815260206004820152602560248201527f45524332303a2064656372656173656420616c6c6f77616e63652062656c6f77604482015264207a65726f60d81b606482015260840161069d565b610dd433856108b68685611d64565b5060019392505050565b610de6610c58565b610e025760405162461bcd60e51b815260040161069d90611ca3565b600e54600003610e635760405162461bcd60e51b815260206004820152602660248201527f5265766f6b696e672066726f6d206d696e74206c697374206973206e6f7420736044820152651d185c9d195960d21b606482015260840161069d565b6000600e55600c80546001600160a01b0319169055565b610e82610c58565b610e9e5760405162461bcd60e51b815260040161069d90611ca3565b601054600003610efb5760405162461bcd60e51b815260206004820152602260248201527f416464696e6720746f206d696e74206c697374206973206e6f74207374617274604482015261195960f21b606482015260840161069d565b6000601055600d80546001600160a01b0319169055565b6000610f1d8361162a565b6107593384846114f8565b3360009081526006602052604090205460ff166107fc5760405162461bcd60e51b815260206004820152602660248201527f54485553443a2043616c6c6572206973206e6f74207468652053746162696c696044820152651d1e541bdbdb60d21b606482015260840161069d565b42841015610fe05760405162461bcd60e51b815260206004820152601760248201527654485553443a206578706972656420646561646c696e6560481b604482015260640161069d565b6000610fea611378565b6001600160a01b038916600090815260026020526040812080547f6e71edae12b1b97f4d1f60370fef10105fa2faae0126114a169c64845d6126c9928c928c928c9290919061103883611d77565b909155506040805160208101969096526001600160a01b0394851690860152929091166060840152608083015260a082015260c0810187905260e001604051602081830303815290604052805190602001206040516020016110b192919061190160f01b81526002810192909252602282015260420190565b60408051601f198184030181528282528051602091820120600080855291840180845281905260ff88169284019290925260608301869052608083018590529092509060019060a0016020604051602081039080840390855afa15801561111c573d6000803e3d6000fd5b505050602060405103519050886001600160a01b0316816001600160a01b0316146111845760405162461bcd60e51b815260206004820152601860248201527754485553443a20696e76616c6964207369676e617475726560401b604482015260640161069d565b61118f89898961146a565b505050505050505050565b6111a2610c58565b6111be5760405162461bcd60e51b815260040161069d90611ca3565b600e54600081116111e15760405162461bcd60e51b815260040161069d90611cd8565b61120b7f000000000000000000000000000000000000000000000000000000000000000082611d1c565b42101561122a5760405162461bcd60e51b815260040161069d90611d2f565b50600c80546001600160a01b03166000908152600860205260408120805460ff19169055600e5580546001600160a01b0319169055565b611269610c58565b6112855760405162461bcd60e51b815260040161069d90611ca3565b61128e836119bf565b611297826119bf565b6112a0816119bf565b600980546001600160a01b039485166001600160a01b031991821617909155600a805493851693821693909317909255600b805491909316911617905542600f55565b6112eb610c58565b6113075760405162461bcd60e51b815260040161069d90611ca3565b6001600160a01b03811661136c5760405162461bcd60e51b815260206004820152602660248201527f4f776e61626c653a206e6577206f776e657220697320746865207a65726f206160448201526564647265737360d01b606482015260840161069d565b61137581611a64565b50565b60007f000000000000000000000000000000000000000000000000000000000000000046036113c657507f000000000000000000000000000000000000000000000000000000000000000090565b50604080517f8b73c3c69bb8fe3d512ecc4cf759cc79239f7b179b0ffacaa9a75d522b39400f6020808301919091527f0000000000000000000000000000000000000000000000000000000000000000828401527f000000000000000000000000000000000000000000000000000000000000000060608301524660808301523060a0808401919091528351808403909101815260c0909201909252805191012090565b6001600160a01b03831661148057611480611d90565b6001600160a01b03821661149657611496611d90565b6001600160a01b0383811660008181526004602090815260408083209487168084529482529182902085905590518481527f8c5be1e5ebec7d5bd14f71427d1e84f3dd0314c0f7b2291e5b200ac8c7c3b92591015b60405180910390a3505050565b6001600160a01b03831661150e5761150e611d90565b6001600160a01b03821661152457611524611d90565b6001600160a01b03831660009081526003602052604090205481111561159b5760405162461bcd60e51b815260206004820152602660248201527f45524332303a207472616e7366657220616d6f756e7420657863656564732062604482015265616c616e636560d01b606482015260840161069d565b6001600160a01b038316600090815260036020526040812080548392906115c3908490611d64565b90915550506001600160a01b038216600090815260036020526040812080548392906115f0908490611d1c565b92505081905550816001600160a01b0316836001600160a01b0316600080516020611da7833981519152836040516114eb91815260200190565b6001600160a01b0381161580159061164b57506001600160a01b0381163014155b6113755760405162461bcd60e51b815260206004820152605660248201527f54485553443a2043616e6e6f74207472616e7366657220746f6b656e7320646960448201527f726563746c7920746f2074686520544855534420746f6b656e20636f6e7472616064820152756374206f7220746865207a65726f206164647265737360501b608482015260a40161069d565b6001600160a01b0382166116f2576116f2611d90565b806001546117009190611d1c565b6001556001600160a01b038216600090815260036020526040902054611727908290611d1c565b6001600160a01b038316600081815260036020526040808220939093559151909190600080516020611da7833981519152906117669085815260200190565b60405180910390a35050565b61177b836119bf565b611784826119bf565b61178d816119bf565b6001600160a01b03831660009081526005602052604090819020805460ff19166001179055517f552e6c3035c33f04f1890bc312cbff2a7785b2e14ba719e635c5a8a754705647906117e0908590611ba6565b60405180910390a16001600160a01b03821660009081526006602052604090819020805460ff19166001179055517fd5aac92b48f52fdc22e5b14b07e3cbbd61e939d86cec15efe7db4fd82a8d19119061183b908490611ba6565b60405180910390a16001600160a01b03811660009081526007602052604090819020805460ff19166001179055517f5f1db3103369b41aebc8a140eb5553e5a21d3df288ff446278b59eb15d59e2a490611896908390611ba6565b60405180910390a16001600160a01b03166000908152600860205260409020805460ff191660011790555050565b6001600160a01b0382166118da576118da611d90565b6001600160a01b03821660009081526003602052604090205481111561194d5760405162461bcd60e51b815260206004820152602260248201527f45524332303a206275726e20616d6f756e7420657863656564732062616c616e604482015261636560f01b606482015260840161069d565b6001600160a01b03821660009081526003602052604081208054839290611975908490611d64565b92505081905550806001600082825461198e9190611d64565b90915550506040518181526000906001600160a01b03841690600080516020611da783398151915290602001611766565b6001600160a01b038116611a155760405162461bcd60e51b815260206004820152601e60248201527f4163636f756e742063616e6e6f74206265207a65726f20616464726573730000604482015260640161069d565b803b806109755760405162461bcd60e51b815260206004820181905260248201527f4163636f756e7420636f64652073697a652063616e6e6f74206265207a65726f604482015260640161069d565b600080546001600160a01b038381166001600160a01b0319831681178455604051919092169283917f8be0079c531659141344cd1fd0a4f28419497f9722a3daafe3b4186f6b6457e09190a35050565b600060208083528351808285015260005b81811015611ae157858101830151858201604001528201611ac5565b506000604082860101526040601f19601f8301168501019250505092915050565b80356001600160a01b0381168114611b1957600080fd5b919050565b60008060408385031215611b3157600080fd5b611b3a83611b02565b946020939093013593505050565b600080600060608486031215611b5d57600080fd5b611b6684611b02565b9250611b7460208501611b02565b9150604084013590509250925092565b600060208284031215611b9657600080fd5b611b9f82611b02565b9392505050565b6001600160a01b0391909116815260200190565b600080600080600080600060e0888a031215611bd557600080fd5b611bde88611b02565b9650611bec60208901611b02565b95506040880135945060608801359350608088013560ff81168114611c1057600080fd5b9699959850939692959460a0840135945060c09093013592915050565b60008060408385031215611c4057600080fd5b611c4983611b02565b9150611c5760208401611b02565b90509250929050565b600080600060608486031215611c7557600080fd5b611c7e84611b02565b9250611c8c60208501611b02565b9150611c9a60408501611b02565b90509250925092565b6020808252818101527f4f776e61626c653a2063616c6c6572206973206e6f7420746865206f776e6572604082015260600190565b60208082526014908201527310da185b99d9481b9bdd081a5b9a5d1a585d195960621b604082015260600190565b634e487b7160e01b600052601160045260246000fd5b8082018082111561075d5761075d611d06565b6020808252818101527f476f7665726e616e63652064656c617920686173206e6f7420656c6170736564604082015260600190565b8181038181111561075d5761075d611d06565b600060018201611d8957611d89611d06565b5060010190565b634e487b7160e01b600052600160045260246000fdfeddf252ad1be2c89b69c2b068fc378daa952ba7f163c4a11628f55a4df523b3efa26469706673582212207e7794aa3a6f485cb8df891c12ba17f4414d5cc7880472d3e70f422559aaed4964736f6c63430008110033",
  "linkReferences": {},
  "deployedLinkReferences": {}
}