{
  "_format": "hh-sol-artifact-1",
  "contractName": "THUSDTokenCaller",
  "sourceName": "contracts/TestContracts/THUSDTokenCaller.sol",
  "abi": [
    {
      "inputs": [
        {
          "internalType": "contract ITHUSDToken",
          "name": "_THUSD",
          "type": "address"
        }
      ],
      "name": "setTHUSD",
      "outputs": [],
      "stateMutability": "nonpayable",
      "type": "function"
    },
    {
      "inputs": [
        {
          "internalType": "address",
          "name": "_account",
          "type": "address"
        },
        {
          "internalType": "uint256",
          "name": "_amount",
          "type": "uint256"
        }
      ],
      "name": "thusdBurn",
      "outputs": [],
      "stateMutability": "nonpayable",
      "type": "function"
    },
    {
      "inputs": [
        {
          "internalType": "address",
          "name": "_account",
          "type": "address"
        },
        {
          "internalType": "uint256",
          "name": "_amount",
          "type": "uint256"
        }
      ],
      "name": "thusdMint",
      "outputs": [],
      "stateMutability": "nonpayable",
      "type": "function"
    },
    {
      "inputs": [
        {
          "internalType": "address",
          "name": "_poolAddress",
          "type": "address"
        },
        {
          "internalType": "address",
          "name": "_receiver",
          "type": "address"
        },
        {
          "internalType": "uint256",
          "name": "_amount",
          "type": "uint256"
        }
      ],
      "name": "thusdReturnFromPool",
      "outputs": [],
      "stateMutability": "nonpayable",
      "type": "function"
    },
    {
      "inputs": [
        {
          "internalType": "address",
          "name": "_sender",
          "type": "address"
        },
        {
          "internalType": "address",
          "name": "_poolAddress",
          "type": "address"
        },
        {
          "internalType": "uint256",
          "name": "_amount",
          "type": "uint256"
        }
      ],
      "name": "thusdSendToPool",
      "outputs": [],
      "stateMutability": "nonpayable",
      "type": "function"
    }
  ],
  "bytecode": "0x608060405234801561001057600080fd5b50610320806100206000396000f3fe608060405234801561001057600080fd5b50600436106100575760003560e01c80631809ce331461005c57806346e4c3aa146100715780636a0761b914610084578063809a92df14610097578063e2857c47146100aa575b600080fd5b61006f61006a366004610235565b6100da565b005b61006f61007f366004610235565b610145565b61006f610092366004610261565b61017e565b61006f6100a5366004610261565b6101e9565b61006f6100b83660046102a2565b600080546001600160a01b0319166001600160a01b0392909216919091179055565b6000546040516340c10f1960e01b81526001600160a01b03848116600483015260248201849052909116906340c10f19906044015b600060405180830381600087803b15801561012957600080fd5b505af115801561013d573d6000803e3d6000fd5b505050505050565b600054604051632770a7eb60e21b81526001600160a01b0384811660048301526024820184905290911690639dc29fac9060440161010f565b600054604051632ee65eeb60e21b81526001600160a01b039091169063bb997bac906101b2908690869086906004016102c6565b600060405180830381600087803b1580156101cc57600080fd5b505af11580156101e0573d6000803e3d6000fd5b50505050505050565b600054604051631062c15f60e11b81526001600160a01b03909116906320c582be906101b2908690869086906004016102c6565b6001600160a01b038116811461023257600080fd5b50565b6000806040838503121561024857600080fd5b82356102538161021d565b946020939093013593505050565b60008060006060848603121561027657600080fd5b83356102818161021d565b925060208401356102918161021d565b929592945050506040919091013590565b6000602082840312156102b457600080fd5b81356102bf8161021d565b9392505050565b6001600160a01b03938416815291909216602082015260408101919091526060019056fea2646970667358221220fdec377650d447a3afe3f2154f57f2c824f4f1bc236fe267e44a6bbb3e09461664736f6c63430008110033",
  "linkReferences": {},
  "deployedLinkReferences": {}
}