{
  "_format": "hh-sol-artifact-1",
  "contractName": "TokenScript",
  "sourceName": "contracts/Proxy/TokenScript.sol",
  "abi": [
    {
      "inputs": [
        {
          "internalType": "address",
          "name": "_tokenAddress",
          "type": "address"
        }
      ],
      "stateMutability": "nonpayable",
      "type": "constructor"
    },
    {
      "inputs": [],
      "name": "NAME",
      "outputs": [
        {
          "internalType": "string",
          "name": "",
          "type": "string"
        }
      ],
      "stateMutability": "view",
      "type": "function"
    },
    {
      "inputs": [
        {
          "internalType": "address",
          "name": "owner",
          "type": "address"
        },
        {
          "internalType": "address",
          "name": "spender",
          "type": "address"
        }
      ],
      "name": "allowance",
      "outputs": [
        {
          "internalType": "uint256",
          "name": "",
          "type": "uint256"
        }
      ],
      "stateMutability": "view",
      "type": "function"
    },
    {
      "inputs": [
        {
          "internalType": "address",
          "name": "spender",
          "type": "address"
        },
        {
          "internalType": "uint256",
          "name": "amount",
          "type": "uint256"
        }
      ],
      "name": "approve",
      "outputs": [
        {
          "internalType": "bool",
          "name": "",
          "type": "bool"
        }
      ],
      "stateMutability": "nonpayable",
      "type": "function"
    },
    {
      "inputs": [
        {
          "internalType": "address",
          "name": "spender",
          "type": "address"
        },
        {
          "internalType": "uint256",
          "name": "subtractedValue",
          "type": "uint256"
        }
      ],
      "name": "decreaseAllowance",
      "outputs": [
        {
          "internalType": "bool",
          "name": "",
          "type": "bool"
        }
      ],
      "stateMutability": "nonpayable",
      "type": "function"
    },
    {
      "inputs": [
        {
          "internalType": "address",
          "name": "spender",
          "type": "address"
        },
        {
          "internalType": "uint256",
          "name": "addedValue",
          "type": "uint256"
        }
      ],
      "name": "increaseAllowance",
      "outputs": [
        {
          "internalType": "bool",
          "name": "",
          "type": "bool"
        }
      ],
      "stateMutability": "nonpayable",
      "type": "function"
    },
    {
      "inputs": [
        {
          "internalType": "address",
          "name": "recipient",
          "type": "address"
        },
        {
          "internalType": "uint256",
          "name": "amount",
          "type": "uint256"
        }
      ],
      "name": "transfer",
      "outputs": [
        {
          "internalType": "bool",
          "name": "",
          "type": "bool"
        }
      ],
      "stateMutability": "nonpayable",
      "type": "function"
    },
    {
      "inputs": [
        {
          "internalType": "address",
          "name": "sender",
          "type": "address"
        },
        {
          "internalType": "address",
          "name": "recipient",
          "type": "address"
        },
        {
          "internalType": "uint256",
          "name": "amount",
          "type": "uint256"
        }
      ],
      "name": "transferFrom",
      "outputs": [
        {
          "internalType": "bool",
          "name": "",
          "type": "bool"
        }
      ],
      "stateMutability": "nonpayable",
      "type": "function"
    }
  ],
  "bytecode": "0x60a060405234801561001057600080fd5b506040516106fd3803806106fd83398101604081905261002f916100f7565b61003881610049565b6001600160a01b0316608052610127565b6001600160a01b0381166100a45760405162461bcd60e51b815260206004820152601e60248201527f4163636f756e742063616e6e6f74206265207a65726f2061646472657373000060448201526064015b60405180910390fd5b803b806100f35760405162461bcd60e51b815260206004820181905260248201527f4163636f756e7420636f64652073697a652063616e6e6f74206265207a65726f604482015260640161009b565b5050565b60006020828403121561010957600080fd5b81516001600160a01b038116811461012057600080fd5b9392505050565b608051610598610165600039600081816101580152818161020a0152818161029b015281816102ec0152818161033d015261039e01526105986000f3fe608060405234801561001057600080fd5b506004361061006d5760003560e01c8063095ea7b31461007257806323b872dd1461009a57806339509351146100ad578063a3f4df7e146100c0578063a457c2d7146100f7578063a9059cbb1461010a578063dd62ed3e1461011d575b600080fd5b610085610080366004610427565b61013e565b60405190151581526020015b60405180910390f35b6100856100a8366004610451565b6101d9565b6100856100bb366004610427565b610281565b6100ea6040518060400160405280600b81526020016a151bdad95b94d8dc9a5c1d60aa1b81525081565b604051610091919061048d565b610085610105366004610427565b6102d2565b610085610118366004610427565b610323565b61013061012b3660046104db565b610374565b604051908152602001610091565b60405163095ea7b360e01b81526000906001600160a01b037f0000000000000000000000000000000000000000000000000000000000000000169063095ea7b39061018f908690869060040161050e565b6020604051808303816000875af11580156101ae573d6000803e3d6000fd5b505050506040513d601f19601f820116820180604052508101906101d29190610527565b9392505050565b6040516323b872dd60e01b81526001600160a01b0384811660048301528381166024830152604482018390526000917f0000000000000000000000000000000000000000000000000000000000000000909116906323b872dd906064016020604051808303816000875af1158015610255573d6000803e3d6000fd5b505050506040513d601f19601f820116820180604052508101906102799190610527565b949350505050565b604051633950935160e01b81526000906001600160a01b037f0000000000000000000000000000000000000000000000000000000000000000169063395093519061018f908690869060040161050e565b60405163a457c2d760e01b81526000906001600160a01b037f0000000000000000000000000000000000000000000000000000000000000000169063a457c2d79061018f908690869060040161050e565b60405163a9059cbb60e01b81526000906001600160a01b037f0000000000000000000000000000000000000000000000000000000000000000169063a9059cbb9061018f908690869060040161050e565b604051636eb1769f60e11b81526001600160a01b03838116600483015282811660248301526000917f00000000000000000000000000000000000000000000000000000000000000009091169063dd62ed3e90604401602060405180830381865afa1580156103e7573d6000803e3d6000fd5b505050506040513d601f19601f820116820180604052508101906101d29190610549565b80356001600160a01b038116811461042257600080fd5b919050565b6000806040838503121561043a57600080fd5b6104438361040b565b946020939093013593505050565b60008060006060848603121561046657600080fd5b61046f8461040b565b925061047d6020850161040b565b9150604084013590509250925092565b600060208083528351808285015260005b818110156104ba5785810183015185820160400152820161049e565b506000604082860101526040601f19601f8301168501019250505092915050565b600080604083850312156104ee57600080fd5b6104f78361040b565b91506105056020840161040b565b90509250929050565b6001600160a01b03929092168252602082015260400190565b60006020828403121561053957600080fd5b815180151581146101d257600080fd5b60006020828403121561055b57600080fd5b505191905056fea2646970667358221220a282557913545f6c53a13041a9f94db59c7ac6dc35a2f47c7be35540bf13334d64736f6c63430008110033",
  "linkReferences": {},
  "deployedLinkReferences": {}
}