{
  "_format": "hh-sol-artifact-1",
  "contractName": "TroveManagerTester",
  "sourceName": "contracts/TestContracts/CDPManagerTester.sol",
  "abi": [
    {
      "anonymous": false,
      "inputs": [
        {
          "indexed": false,
          "internalType": "address",
          "name": "_activePoolAddress",
          "type": "address"
        }
      ],
      "name": "ActivePoolAddressChanged",
      "type": "event"
    },
    {
      "anonymous": false,
      "inputs": [
        {
          "indexed": false,
          "internalType": "uint256",
          "name": "_baseRate",
          "type": "uint256"
        }
      ],
      "name": "BaseRateUpdated",
      "type": "event"
    },
    {
      "anonymous": false,
      "inputs": [
        {
          "indexed": false,
          "internalType": "address",
          "name": "_newBorrowerOperationsAddress",
          "type": "address"
        }
      ],
      "name": "BorrowerOperationsAddressChanged",
      "type": "event"
    },
    {
      "anonymous": false,
      "inputs": [
        {
          "indexed": false,
          "internalType": "address",
          "name": "_collSurplusPoolAddress",
          "type": "address"
        }
      ],
      "name": "CollSurplusPoolAddressChanged",
      "type": "event"
    },
    {
      "anonymous": false,
      "inputs": [
        {
          "indexed": false,
          "internalType": "address",
          "name": "_defaultPoolAddress",
          "type": "address"
        }
      ],
      "name": "DefaultPoolAddressChanged",
      "type": "event"
    },
    {
      "anonymous": false,
      "inputs": [
        {
          "indexed": false,
          "internalType": "address",
          "name": "_gasPoolAddress",
          "type": "address"
        }
      ],
      "name": "GasPoolAddressChanged",
      "type": "event"
    },
    {
      "anonymous": false,
      "inputs": [
        {
          "indexed": false,
          "internalType": "uint256",
          "name": "_L_Collateral",
          "type": "uint256"
        },
        {
          "indexed": false,
          "internalType": "uint256",
          "name": "_L_THUSDDebt",
          "type": "uint256"
        }
      ],
      "name": "LTermsUpdated",
      "type": "event"
    },
    {
      "anonymous": false,
      "inputs": [
        {
          "indexed": false,
          "internalType": "uint256",
          "name": "_lastFeeOpTime",
          "type": "uint256"
        }
      ],
      "name": "LastFeeOpTimeUpdated",
      "type": "event"
    },
    {
      "anonymous": false,
      "inputs": [
        {
          "indexed": false,
          "internalType": "uint256",
          "name": "_liquidatedDebt",
          "type": "uint256"
        },
        {
          "indexed": false,
          "internalType": "uint256",
          "name": "_liquidatedColl",
          "type": "uint256"
        },
        {
          "indexed": false,
          "internalType": "uint256",
          "name": "_collGasCompensation",
          "type": "uint256"
        },
        {
          "indexed": false,
          "internalType": "uint256",
          "name": "_THUSDGasCompensation",
          "type": "uint256"
        }
      ],
      "name": "Liquidation",
      "type": "event"
    },
    {
      "anonymous": false,
      "inputs": [
        {
          "indexed": true,
          "internalType": "address",
          "name": "previousOwner",
          "type": "address"
        },
        {
          "indexed": true,
          "internalType": "address",
          "name": "newOwner",
          "type": "address"
        }
      ],
      "name": "OwnershipTransferred",
      "type": "event"
    },
    {
      "anonymous": false,
      "inputs": [
        {
          "indexed": false,
          "internalType": "address",
          "name": "_pcvAddress",
          "type": "address"
        }
      ],
      "name": "PCVAddressChanged",
      "type": "event"
    },
    {
      "anonymous": false,
      "inputs": [
        {
          "indexed": false,
          "internalType": "address",
          "name": "_newPriceFeedAddress",
          "type": "address"
        }
      ],
      "name": "PriceFeedAddressChanged",
      "type": "event"
    },
    {
      "anonymous": false,
      "inputs": [
        {
          "indexed": false,
          "internalType": "uint256",
          "name": "_attemptedTHUSDAmount",
          "type": "uint256"
        },
        {
          "indexed": false,
          "internalType": "uint256",
          "name": "_actualTHUSDAmount",
          "type": "uint256"
        },
        {
          "indexed": false,
          "internalType": "uint256",
          "name": "_collateralSent",
          "type": "uint256"
        },
        {
          "indexed": false,
          "internalType": "uint256",
          "name": "_collateralFee",
          "type": "uint256"
        }
      ],
      "name": "Redemption",
      "type": "event"
    },
    {
      "anonymous": false,
      "inputs": [
        {
          "indexed": false,
          "internalType": "address",
          "name": "_sortedTrovesAddress",
          "type": "address"
        }
      ],
      "name": "SortedTrovesAddressChanged",
      "type": "event"
    },
    {
      "anonymous": false,
      "inputs": [
        {
          "indexed": false,
          "internalType": "address",
          "name": "_stabilityPoolAddress",
          "type": "address"
        }
      ],
      "name": "StabilityPoolAddressChanged",
      "type": "event"
    },
    {
      "anonymous": false,
      "inputs": [
        {
          "indexed": false,
          "internalType": "uint256",
          "name": "_totalStakesSnapshot",
          "type": "uint256"
        },
        {
          "indexed": false,
          "internalType": "uint256",
          "name": "_totalCollateralSnapshot",
          "type": "uint256"
        }
      ],
      "name": "SystemSnapshotsUpdated",
      "type": "event"
    },
    {
      "anonymous": false,
      "inputs": [
        {
          "indexed": false,
          "internalType": "address",
          "name": "_newTHUSDTokenAddress",
          "type": "address"
        }
      ],
      "name": "THUSDTokenAddressChanged",
      "type": "event"
    },
    {
      "anonymous": false,
      "inputs": [
        {
          "indexed": false,
          "internalType": "uint256",
          "name": "_newTotalStakes",
          "type": "uint256"
        }
      ],
      "name": "TotalStakesUpdated",
      "type": "event"
    },
    {
      "anonymous": false,
      "inputs": [
        {
          "indexed": false,
          "internalType": "address",
          "name": "_borrower",
          "type": "address"
        },
        {
          "indexed": false,
          "internalType": "uint256",
          "name": "_newIndex",
          "type": "uint256"
        }
      ],
      "name": "TroveIndexUpdated",
      "type": "event"
    },
    {
      "anonymous": false,
      "inputs": [
        {
          "indexed": true,
          "internalType": "address",
          "name": "_borrower",
          "type": "address"
        },
        {
          "indexed": false,
          "internalType": "uint256",
          "name": "_debt",
          "type": "uint256"
        },
        {
          "indexed": false,
          "internalType": "uint256",
          "name": "_coll",
          "type": "uint256"
        },
        {
          "indexed": false,
          "internalType": "enum TroveManager.TroveManagerOperation",
          "name": "_operation",
          "type": "uint8"
        }
      ],
      "name": "TroveLiquidated",
      "type": "event"
    },
    {
      "anonymous": false,
      "inputs": [
        {
          "indexed": false,
          "internalType": "uint256",
          "name": "_L_Collateral",
          "type": "uint256"
        },
        {
          "indexed": false,
          "internalType": "uint256",
          "name": "_L_THUSDDebt",
          "type": "uint256"
        }
      ],
      "name": "TroveSnapshotsUpdated",
      "type": "event"
    },
    {
      "anonymous": false,
      "inputs": [
        {
          "indexed": true,
          "internalType": "address",
          "name": "_borrower",
          "type": "address"
        },
        {
          "indexed": false,
          "internalType": "uint256",
          "name": "_debt",
          "type": "uint256"
        },
        {
          "indexed": false,
          "internalType": "uint256",
          "name": "_coll",
          "type": "uint256"
        },
        {
          "indexed": false,
          "internalType": "uint256",
          "name": "_stake",
          "type": "uint256"
        },
        {
          "indexed": false,
          "internalType": "enum TroveManager.TroveManagerOperation",
          "name": "_operation",
          "type": "uint8"
        }
      ],
      "name": "TroveUpdated",
      "type": "event"
    },
    {
      "inputs": [],
      "name": "BETA",
      "outputs": [
        {
          "internalType": "uint256",
          "name": "",
          "type": "uint256"
        }
      ],
      "stateMutability": "view",
      "type": "function"
    },
    {
      "inputs": [],
      "name": "BORROWING_FEE_FLOOR",
      "outputs": [
        {
          "internalType": "uint256",
          "name": "",
          "type": "uint256"
        }
      ],
      "stateMutability": "view",
      "type": "function"
    },
    {
      "inputs": [],
      "name": "CCR",
      "outputs": [
        {
          "internalType": "uint256",
          "name": "",
          "type": "uint256"
        }
      ],
      "stateMutability": "view",
      "type": "function"
    },
    {
      "inputs": [],
      "name": "DECIMAL_PRECISION",
      "outputs": [
        {
          "internalType": "uint256",
          "name": "",
          "type": "uint256"
        }
      ],
      "stateMutability": "view",
      "type": "function"
    },
    {
      "inputs": [],
      "name": "L_Collateral",
      "outputs": [
        {
          "internalType": "uint256",
          "name": "",
          "type": "uint256"
        }
      ],
      "stateMutability": "view",
      "type": "function"
    },
    {
      "inputs": [],
      "name": "L_THUSDDebt",
      "outputs": [
        {
          "internalType": "uint256",
          "name": "",
          "type": "uint256"
        }
      ],
      "stateMutability": "view",
      "type": "function"
    },
    {
      "inputs": [],
      "name": "MAX_BORROWING_FEE",
      "outputs": [
        {
          "internalType": "uint256",
          "name": "",
          "type": "uint256"
        }
      ],
      "stateMutability": "view",
      "type": "function"
    },
    {
      "inputs": [],
      "name": "MCR",
      "outputs": [
        {
          "internalType": "uint256",
          "name": "",
          "type": "uint256"
        }
      ],
      "stateMutability": "view",
      "type": "function"
    },
    {
      "inputs": [],
      "name": "MINUTE_DECAY_FACTOR",
      "outputs": [
        {
          "internalType": "uint256",
          "name": "",
          "type": "uint256"
        }
      ],
      "stateMutability": "view",
      "type": "function"
    },
    {
      "inputs": [],
      "name": "MIN_NET_DEBT",
      "outputs": [
        {
          "internalType": "uint256",
          "name": "",
          "type": "uint256"
        }
      ],
      "stateMutability": "view",
      "type": "function"
    },
    {
      "inputs": [],
      "name": "NAME",
      "outputs": [
        {
          "internalType": "string",
          "name": "",
          "type": "string"
        }
      ],
      "stateMutability": "view",
      "type": "function"
    },
    {
      "inputs": [],
      "name": "PERCENT_DIVISOR",
      "outputs": [
        {
          "internalType": "uint256",
          "name": "",
          "type": "uint256"
        }
      ],
      "stateMutability": "view",
      "type": "function"
    },
    {
      "inputs": [],
      "name": "REDEMPTION_FEE_FLOOR",
      "outputs": [
        {
          "internalType": "uint256",
          "name": "",
          "type": "uint256"
        }
      ],
      "stateMutability": "view",
      "type": "function"
    },
    {
      "inputs": [],
      "name": "SECONDS_IN_ONE_MINUTE",
      "outputs": [
        {
          "internalType": "uint256",
          "name": "",
          "type": "uint256"
        }
      ],
      "stateMutability": "view",
      "type": "function"
    },
    {
      "inputs": [],
      "name": "THUSD_GAS_COMPENSATION",
      "outputs": [
        {
          "internalType": "uint256",
          "name": "",
          "type": "uint256"
        }
      ],
      "stateMutability": "view",
      "type": "function"
    },
    {
      "inputs": [
        {
          "internalType": "uint256",
          "name": "",
          "type": "uint256"
        }
      ],
      "name": "TroveOwners",
      "outputs": [
        {
          "internalType": "address",
          "name": "",
          "type": "address"
        }
      ],
      "stateMutability": "view",
      "type": "function"
    },
    {
      "inputs": [
        {
          "internalType": "address",
          "name": "",
          "type": "address"
        }
      ],
      "name": "Troves",
      "outputs": [
        {
          "internalType": "uint256",
          "name": "debt",
          "type": "uint256"
        },
        {
          "internalType": "uint256",
          "name": "coll",
          "type": "uint256"
        },
        {
          "internalType": "uint256",
          "name": "stake",
          "type": "uint256"
        },
        {
          "internalType": "enum TroveManager.Status",
          "name": "status",
          "type": "uint8"
        },
        {
          "internalType": "uint128",
          "name": "arrayIndex",
          "type": "uint128"
        }
      ],
      "stateMutability": "view",
      "type": "function"
    },
    {
      "inputs": [],
      "name": "_100pct",
      "outputs": [
        {
          "internalType": "uint256",
          "name": "",
          "type": "uint256"
        }
      ],
      "stateMutability": "view",
      "type": "function"
    },
    {
      "inputs": [],
      "name": "activePool",
      "outputs": [
        {
          "internalType": "contract IActivePool",
          "name": "",
          "type": "address"
        }
      ],
      "stateMutability": "view",
      "type": "function"
    },
    {
      "inputs": [
        {
          "internalType": "address",
          "name": "_borrower",
          "type": "address"
        }
      ],
      "name": "addTroveOwnerToArray",
      "outputs": [
        {
          "internalType": "uint256",
          "name": "index",
          "type": "uint256"
        }
      ],
      "stateMutability": "nonpayable",
      "type": "function"
    },
    {
      "inputs": [
        {
          "internalType": "address",
          "name": "_borrower",
          "type": "address"
        }
      ],
      "name": "applyPendingRewards",
      "outputs": [],
      "stateMutability": "nonpayable",
      "type": "function"
    },
    {
      "inputs": [],
      "name": "baseRate",
      "outputs": [
        {
          "internalType": "uint256",
          "name": "",
          "type": "uint256"
        }
      ],
      "stateMutability": "view",
      "type": "function"
    },
    {
      "inputs": [
        {
          "internalType": "address[]",
          "name": "_troveArray",
          "type": "address[]"
        }
      ],
      "name": "batchLiquidateTroves",
      "outputs": [],
      "stateMutability": "nonpayable",
      "type": "function"
    },
    {
      "inputs": [],
      "name": "borrowerOperationsAddress",
      "outputs": [
        {
          "internalType": "address",
          "name": "",
          "type": "address"
        }
      ],
      "stateMutability": "view",
      "type": "function"
    },
    {
      "inputs": [
        {
          "internalType": "uint256",
          "name": "_collateralDrawn",
          "type": "uint256"
        }
      ],
      "name": "callGetRedemptionFee",
      "outputs": [
        {
          "internalType": "uint256",
          "name": "",
          "type": "uint256"
        }
      ],
      "stateMutability": "view",
      "type": "function"
    },
    {
      "inputs": [
        {
          "internalType": "address",
          "name": "_troveOwner",
          "type": "address"
        }
      ],
      "name": "callInternalRemoveTroveOwner",
      "outputs": [],
      "stateMutability": "nonpayable",
      "type": "function"
    },
    {
      "inputs": [
        {
          "internalType": "uint256",
          "name": "_price",
          "type": "uint256"
        }
      ],
      "name": "checkRecoveryMode",
      "outputs": [
        {
          "internalType": "bool",
          "name": "",
          "type": "bool"
        }
      ],
      "stateMutability": "view",
      "type": "function"
    },
    {
      "inputs": [
        {
          "internalType": "address",
          "name": "_borrower",
          "type": "address"
        }
      ],
      "name": "closeTrove",
      "outputs": [],
      "stateMutability": "nonpayable",
      "type": "function"
    },
    {
      "inputs": [
        {
          "internalType": "uint256",
          "name": "_coll",
          "type": "uint256"
        },
        {
          "internalType": "uint256",
          "name": "_debt",
          "type": "uint256"
        },
        {
          "internalType": "uint256",
          "name": "_price",
          "type": "uint256"
        }
      ],
      "name": "computeICR",
      "outputs": [
        {
          "internalType": "uint256",
          "name": "",
          "type": "uint256"
        }
      ],
      "stateMutability": "pure",
      "type": "function"
    },
    {
      "inputs": [],
      "name": "decayBaseRateFromBorrowing",
      "outputs": [],
      "stateMutability": "nonpayable",
      "type": "function"
    },
    {
      "inputs": [
        {
          "internalType": "address",
          "name": "_borrower",
          "type": "address"
        },
        {
          "internalType": "uint256",
          "name": "_collDecrease",
          "type": "uint256"
        }
      ],
      "name": "decreaseTroveColl",
      "outputs": [
        {
          "internalType": "uint256",
          "name": "",
          "type": "uint256"
        }
      ],
      "stateMutability": "nonpayable",
      "type": "function"
    },
    {
      "inputs": [
        {
          "internalType": "address",
          "name": "_borrower",
          "type": "address"
        },
        {
          "internalType": "uint256",
          "name": "_debtDecrease",
          "type": "uint256"
        }
      ],
      "name": "decreaseTroveDebt",
      "outputs": [
        {
          "internalType": "uint256",
          "name": "",
          "type": "uint256"
        }
      ],
      "stateMutability": "nonpayable",
      "type": "function"
    },
    {
      "inputs": [],
      "name": "defaultPool",
      "outputs": [
        {
          "internalType": "contract IDefaultPool",
          "name": "",
          "type": "address"
        }
      ],
      "stateMutability": "view",
      "type": "function"
    },
    {
      "inputs": [
        {
          "internalType": "uint256",
          "name": "_debtVal",
          "type": "uint256"
        }
      ],
      "name": "getActualDebtFromComposite",
      "outputs": [
        {
          "internalType": "uint256",
          "name": "",
          "type": "uint256"
        }
      ],
      "stateMutability": "pure",
      "type": "function"
    },
    {
      "inputs": [
        {
          "internalType": "uint256",
          "name": "_THUSDDebt",
          "type": "uint256"
        }
      ],
      "name": "getBorrowingFee",
      "outputs": [
        {
          "internalType": "uint256",
          "name": "",
          "type": "uint256"
        }
      ],
      "stateMutability": "view",
      "type": "function"
    },
    {
      "inputs": [
        {
          "internalType": "uint256",
          "name": "_THUSDDebt",
          "type": "uint256"
        }
      ],
      "name": "getBorrowingFeeWithDecay",
      "outputs": [
        {
          "internalType": "uint256",
          "name": "",
          "type": "uint256"
        }
      ],
      "stateMutability": "view",
      "type": "function"
    },
    {
      "inputs": [],
      "name": "getBorrowingRate",
      "outputs": [
        {
          "internalType": "uint256",
          "name": "",
          "type": "uint256"
        }
      ],
      "stateMutability": "view",
      "type": "function"
    },
    {
      "inputs": [],
      "name": "getBorrowingRateWithDecay",
      "outputs": [
        {
          "internalType": "uint256",
          "name": "",
          "type": "uint256"
        }
      ],
      "stateMutability": "view",
      "type": "function"
    },
    {
      "inputs": [
        {
          "internalType": "uint256",
          "name": "_coll",
          "type": "uint256"
        }
      ],
      "name": "getCollGasCompensation",
      "outputs": [
        {
          "internalType": "uint256",
          "name": "",
          "type": "uint256"
        }
      ],
      "stateMutability": "pure",
      "type": "function"
    },
    {
      "inputs": [
        {
          "internalType": "uint256",
          "name": "_debt",
          "type": "uint256"
        }
      ],
      "name": "getCompositeDebt",
      "outputs": [
        {
          "internalType": "uint256",
          "name": "",
          "type": "uint256"
        }
      ],
      "stateMutability": "pure",
      "type": "function"
    },
    {
      "inputs": [
        {
          "internalType": "address",
          "name": "_borrower",
          "type": "address"
        },
        {
          "internalType": "uint256",
          "name": "_price",
          "type": "uint256"
        }
      ],
      "name": "getCurrentICR",
      "outputs": [
        {
          "internalType": "uint256",
          "name": "",
          "type": "uint256"
        }
      ],
      "stateMutability": "view",
      "type": "function"
    },
    {
      "inputs": [
        {
          "internalType": "address",
          "name": "_borrower",
          "type": "address"
        }
      ],
      "name": "getEntireDebtAndColl",
      "outputs": [
        {
          "internalType": "uint256",
          "name": "debt",
          "type": "uint256"
        },
        {
          "internalType": "uint256",
          "name": "coll",
          "type": "uint256"
        },
        {
          "internalType": "uint256",
          "name": "pendingTHUSDDebtReward",
          "type": "uint256"
        },
        {
          "internalType": "uint256",
          "name": "pendingCollateralReward",
          "type": "uint256"
        }
      ],
      "stateMutability": "view",
      "type": "function"
    },
    {
      "inputs": [],
      "name": "getEntireSystemColl",
      "outputs": [
        {
          "internalType": "uint256",
          "name": "entireSystemColl",
          "type": "uint256"
        }
      ],
      "stateMutability": "view",
      "type": "function"
    },
    {
      "inputs": [],
      "name": "getEntireSystemDebt",
      "outputs": [
        {
          "internalType": "uint256",
          "name": "entireSystemDebt",
          "type": "uint256"
        }
      ],
      "stateMutability": "view",
      "type": "function"
    },
    {
      "inputs": [
        {
          "internalType": "address",
          "name": "_borrower",
          "type": "address"
        }
      ],
      "name": "getNominalICR",
      "outputs": [
        {
          "internalType": "uint256",
          "name": "",
          "type": "uint256"
        }
      ],
      "stateMutability": "view",
      "type": "function"
    },
    {
      "inputs": [
        {
          "internalType": "address",
          "name": "_borrower",
          "type": "address"
        }
      ],
      "name": "getPendingCollateralReward",
      "outputs": [
        {
          "internalType": "uint256",
          "name": "",
          "type": "uint256"
        }
      ],
      "stateMutability": "view",
      "type": "function"
    },
    {
      "inputs": [
        {
          "internalType": "address",
          "name": "_borrower",
          "type": "address"
        }
      ],
      "name": "getPendingTHUSDDebtReward",
      "outputs": [
        {
          "internalType": "uint256",
          "name": "",
          "type": "uint256"
        }
      ],
      "stateMutability": "view",
      "type": "function"
    },
    {
      "inputs": [
        {
          "internalType": "uint256",
          "name": "_collateralDrawn",
          "type": "uint256"
        }
      ],
      "name": "getRedemptionFeeWithDecay",
      "outputs": [
        {
          "internalType": "uint256",
          "name": "",
          "type": "uint256"
        }
      ],
      "stateMutability": "view",
      "type": "function"
    },
    {
      "inputs": [],
      "name": "getRedemptionRate",
      "outputs": [
        {
          "internalType": "uint256",
          "name": "",
          "type": "uint256"
        }
      ],
      "stateMutability": "view",
      "type": "function"
    },
    {
      "inputs": [],
      "name": "getRedemptionRateWithDecay",
      "outputs": [
        {
          "internalType": "uint256",
          "name": "",
          "type": "uint256"
        }
      ],
      "stateMutability": "view",
      "type": "function"
    },
    {
      "inputs": [
        {
          "internalType": "uint256",
          "name": "_price",
          "type": "uint256"
        }
      ],
      "name": "getTCR",
      "outputs": [
        {
          "internalType": "uint256",
          "name": "",
          "type": "uint256"
        }
      ],
      "stateMutability": "view",
      "type": "function"
    },
    {
      "inputs": [],
      "name": "getTHUSDGasCompensation",
      "outputs": [
        {
          "internalType": "uint256",
          "name": "",
          "type": "uint256"
        }
      ],
      "stateMutability": "pure",
      "type": "function"
    },
    {
      "inputs": [
        {
          "internalType": "address",
          "name": "_borrower",
          "type": "address"
        }
      ],
      "name": "getTroveColl",
      "outputs": [
        {
          "internalType": "uint256",
          "name": "",
          "type": "uint256"
        }
      ],
      "stateMutability": "view",
      "type": "function"
    },
    {
      "inputs": [
        {
          "internalType": "address",
          "name": "_borrower",
          "type": "address"
        }
      ],
      "name": "getTroveDebt",
      "outputs": [
        {
          "internalType": "uint256",
          "name": "",
          "type": "uint256"
        }
      ],
      "stateMutability": "view",
      "type": "function"
    },
    {
      "inputs": [
        {
          "internalType": "uint256",
          "name": "_index",
          "type": "uint256"
        }
      ],
      "name": "getTroveFromTroveOwnersArray",
      "outputs": [
        {
          "internalType": "address",
          "name": "",
          "type": "address"
        }
      ],
      "stateMutability": "view",
      "type": "function"
    },
    {
      "inputs": [],
      "name": "getTroveOwnersCount",
      "outputs": [
        {
          "internalType": "uint256",
          "name": "",
          "type": "uint256"
        }
      ],
      "stateMutability": "view",
      "type": "function"
    },
    {
      "inputs": [
        {
          "internalType": "address",
          "name": "_borrower",
          "type": "address"
        }
      ],
      "name": "getTroveStake",
      "outputs": [
        {
          "internalType": "uint256",
          "name": "",
          "type": "uint256"
        }
      ],
      "stateMutability": "view",
      "type": "function"
    },
    {
      "inputs": [
        {
          "internalType": "address",
          "name": "_borrower",
          "type": "address"
        }
      ],
      "name": "getTroveStatus",
      "outputs": [
        {
          "internalType": "uint256",
          "name": "",
          "type": "uint256"
        }
      ],
      "stateMutability": "view",
      "type": "function"
    },
    {
      "inputs": [
        {
          "internalType": "address",
          "name": "_borrower",
          "type": "address"
        }
      ],
      "name": "hasPendingRewards",
      "outputs": [
        {
          "internalType": "bool",
          "name": "",
          "type": "bool"
        }
      ],
      "stateMutability": "view",
      "type": "function"
    },
    {
      "inputs": [
        {
          "internalType": "address",
          "name": "_borrower",
          "type": "address"
        },
        {
          "internalType": "uint256",
          "name": "_collIncrease",
          "type": "uint256"
        }
      ],
      "name": "increaseTroveColl",
      "outputs": [
        {
          "internalType": "uint256",
          "name": "",
          "type": "uint256"
        }
      ],
      "stateMutability": "nonpayable",
      "type": "function"
    },
    {
      "inputs": [
        {
          "internalType": "address",
          "name": "_borrower",
          "type": "address"
        },
        {
          "internalType": "uint256",
          "name": "_debtIncrease",
          "type": "uint256"
        }
      ],
      "name": "increaseTroveDebt",
      "outputs": [
        {
          "internalType": "uint256",
          "name": "",
          "type": "uint256"
        }
      ],
      "stateMutability": "nonpayable",
      "type": "function"
    },
    {
      "inputs": [],
      "name": "isOwner",
      "outputs": [
        {
          "internalType": "bool",
          "name": "",
          "type": "bool"
        }
      ],
      "stateMutability": "view",
      "type": "function"
    },
    {
      "inputs": [],
      "name": "lastCollateralError_Redistribution",
      "outputs": [
        {
          "internalType": "uint256",
          "name": "",
          "type": "uint256"
        }
      ],
      "stateMutability": "view",
      "type": "function"
    },
    {
      "inputs": [],
      "name": "lastFeeOperationTime",
      "outputs": [
        {
          "internalType": "uint256",
          "name": "",
          "type": "uint256"
        }
      ],
      "stateMutability": "view",
      "type": "function"
    },
    {
      "inputs": [],
      "name": "lastTHUSDDebtError_Redistribution",
      "outputs": [
        {
          "internalType": "uint256",
          "name": "",
          "type": "uint256"
        }
      ],
      "stateMutability": "view",
      "type": "function"
    },
    {
      "inputs": [
        {
          "internalType": "address",
          "name": "_borrower",
          "type": "address"
        }
      ],
      "name": "liquidate",
      "outputs": [],
      "stateMutability": "nonpayable",
      "type": "function"
    },
    {
      "inputs": [
        {
          "internalType": "uint256",
          "name": "_n",
          "type": "uint256"
        }
      ],
      "name": "liquidateTroves",
      "outputs": [],
      "stateMutability": "nonpayable",
      "type": "function"
    },
    {
      "inputs": [],
      "name": "minutesPassedSinceLastFeeOp",
      "outputs": [
        {
          "internalType": "uint256",
          "name": "",
          "type": "uint256"
        }
      ],
      "stateMutability": "view",
      "type": "function"
    },
    {
      "inputs": [],
      "name": "owner",
      "outputs": [
        {
          "internalType": "address",
          "name": "",
          "type": "address"
        }
      ],
      "stateMutability": "view",
      "type": "function"
    },
    {
      "inputs": [],
      "name": "pcv",
      "outputs": [
        {
          "internalType": "contract IPCV",
          "name": "",
          "type": "address"
        }
      ],
      "stateMutability": "view",
      "type": "function"
    },
    {
      "inputs": [],
      "name": "priceFeed",
      "outputs": [
        {
          "internalType": "contract IPriceFeed",
          "name": "",
          "type": "address"
        }
      ],
      "stateMutability": "view",
      "type": "function"
    },
    {
      "inputs": [
        {
          "internalType": "uint256",
          "name": "_THUSDamount",
          "type": "uint256"
        },
        {
          "internalType": "address",
          "name": "_firstRedemptionHint",
          "type": "address"
        },
        {
          "internalType": "address",
          "name": "_upperPartialRedemptionHint",
          "type": "address"
        },
        {
          "internalType": "address",
          "name": "_lowerPartialRedemptionHint",
          "type": "address"
        },
        {
          "internalType": "uint256",
          "name": "_partialRedemptionHintNICR",
          "type": "uint256"
        },
        {
          "internalType": "uint256",
          "name": "_maxIterations",
          "type": "uint256"
        },
        {
          "internalType": "uint256",
          "name": "_maxFeePercentage",
          "type": "uint256"
        }
      ],
      "name": "redeemCollateral",
      "outputs": [],
      "stateMutability": "nonpayable",
      "type": "function"
    },
    {
      "inputs": [
        {
          "internalType": "address",
          "name": "_borrower",
          "type": "address"
        }
      ],
      "name": "removeStake",
      "outputs": [],
      "stateMutability": "nonpayable",
      "type": "function"
    },
    {
      "inputs": [
        {
          "internalType": "address",
          "name": "",
          "type": "address"
        }
      ],
      "name": "rewardSnapshots",
      "outputs": [
        {
          "internalType": "uint256",
          "name": "collateral",
          "type": "uint256"
        },
        {
          "internalType": "uint256",
          "name": "THUSDDebt",
          "type": "uint256"
        }
      ],
      "stateMutability": "view",
      "type": "function"
    },
    {
      "inputs": [
        {
          "internalType": "address",
          "name": "_borrowerOperationsAddress",
          "type": "address"
        },
        {
          "internalType": "address",
          "name": "_activePoolAddress",
          "type": "address"
        },
        {
          "internalType": "address",
          "name": "_defaultPoolAddress",
          "type": "address"
        },
        {
          "internalType": "address",
          "name": "_stabilityPoolAddress",
          "type": "address"
        },
        {
          "internalType": "address",
          "name": "_gasPoolAddress",
          "type": "address"
        },
        {
          "internalType": "address",
          "name": "_collSurplusPoolAddress",
          "type": "address"
        },
        {
          "internalType": "address",
          "name": "_priceFeedAddress",
          "type": "address"
        },
        {
          "internalType": "address",
          "name": "_thusdTokenAddress",
          "type": "address"
        },
        {
          "internalType": "address",
          "name": "_sortedTrovesAddress",
          "type": "address"
        },
        {
          "internalType": "address",
          "name": "_pcvAddress",
          "type": "address"
        }
      ],
      "name": "setAddresses",
      "outputs": [],
      "stateMutability": "nonpayable",
      "type": "function"
    },
    {
      "inputs": [
        {
          "internalType": "uint256",
          "name": "_baseRate",
          "type": "uint256"
        }
      ],
      "name": "setBaseRate",
      "outputs": [],
      "stateMutability": "nonpayable",
      "type": "function"
    },
    {
      "inputs": [],
      "name": "setLastFeeOpTimeToNow",
      "outputs": [],
      "stateMutability": "nonpayable",
      "type": "function"
    },
    {
      "inputs": [
        {
          "internalType": "address",
          "name": "_borrower",
          "type": "address"
        },
        {
          "internalType": "uint256",
          "name": "_num",
          "type": "uint256"
        }
      ],
      "name": "setTroveStatus",
      "outputs": [],
      "stateMutability": "nonpayable",
      "type": "function"
    },
    {
      "inputs": [],
      "name": "sortedTroves",
      "outputs": [
        {
          "internalType": "contract ISortedTroves",
          "name": "",
          "type": "address"
        }
      ],
      "stateMutability": "view",
      "type": "function"
    },
    {
      "inputs": [],
      "name": "stabilityPool",
      "outputs": [
        {
          "internalType": "contract IStabilityPool",
          "name": "",
          "type": "address"
        }
      ],
      "stateMutability": "view",
      "type": "function"
    },
    {
      "inputs": [],
      "name": "thusdToken",
      "outputs": [
        {
          "internalType": "contract ITHUSDToken",
          "name": "",
          "type": "address"
        }
      ],
      "stateMutability": "view",
      "type": "function"
    },
    {
      "inputs": [],
      "name": "totalCollateralSnapshot",
      "outputs": [
        {
          "internalType": "uint256",
          "name": "",
          "type": "uint256"
        }
      ],
      "stateMutability": "view",
      "type": "function"
    },
    {
      "inputs": [],
      "name": "totalStakes",
      "outputs": [
        {
          "internalType": "uint256",
          "name": "",
          "type": "uint256"
        }
      ],
      "stateMutability": "view",
      "type": "function"
    },
    {
      "inputs": [],
      "name": "totalStakesSnapshot",
      "outputs": [
        {
          "internalType": "uint256",
          "name": "",
          "type": "uint256"
        }
      ],
      "stateMutability": "view",
      "type": "function"
    },
    {
      "inputs": [
        {
          "internalType": "address",
          "name": "newOwner",
          "type": "address"
        }
      ],
      "name": "transferOwnership",
      "outputs": [],
      "stateMutability": "nonpayable",
      "type": "function"
    },
    {
      "inputs": [],
      "name": "unprotectedDecayBaseRateFromBorrowing",
      "outputs": [
        {
          "internalType": "uint256",
          "name": "",
          "type": "uint256"
        }
      ],
      "stateMutability": "nonpayable",
      "type": "function"
    },
    {
      "inputs": [
        {
          "internalType": "address",
          "name": "_borrower",
          "type": "address"
        }
      ],
      "name": "updateStakeAndTotalStakes",
      "outputs": [
        {
          "internalType": "uint256",
          "name": "",
          "type": "uint256"
        }
      ],
      "stateMutability": "nonpayable",
      "type": "function"
    },
    {
      "inputs": [
        {
          "internalType": "address",
          "name": "_borrower",
          "type": "address"
        }
      ],
      "name": "updateTroveRewardSnapshots",
      "outputs": [],
      "stateMutability": "nonpayable",
      "type": "function"
    }
  ],
  "bytecode": "0x608060405234801561001057600080fd5b50600380546001600160a01b031916339081179091556040516000907f8be0079c531659141344cd1fd0a4f28419497f9722a3daafe3b4186f6b6457e0908290a361571b80620000616000396000f3fe608060405234801561001057600080fd5b50600436106104d85760003560e01c8063794e572411610283578063bcd375261161015c578063d9a72444116100ce578063ee266b8711610092578063ee266b8714610b02578063f2fde38b14610b0b578063f36b242514610b1e578063f92d343314610621578063fe2ba84814610b26578063febb33de14610b3957600080fd5b8063d9a7244414610ab8578063da303f1414610acb578063dc62a70214610ad3578063e2ac77b014610ae6578063e6a91f1614610af957600080fd5b8063d293c71011610120578063d293c71014610a44578063d380a37c14610a57578063d38b055814610a60578063d3d6f84314610a69578063d5b3563514610a7c578063d66a255314610a8f57600080fd5b8063bcd37526146109fe578063bf9befb114610a11578063c52861f214610a1a578063c7b5548114610a22578063cbd138ae14610a3157600080fd5b80639ba7a408116101f5578063ae918754116101b9578063ae91875414610970578063b0d8e18114610983578063b687242414610996578063b7f8cf9b146109a5578063b82f263d146109b8578063b91af97c146109cb57600080fd5b80639ba7a40814610909578063a20baee614610820578063a3f4df7e1461091c578063a537896f14610954578063a68b663e1461096757600080fd5b806382fe3eb91161024757806382fe3eb9146108ae578063887105d3146108c15780638da5cb5b146108c95780638f32d59b146108da57806396d711ff146108ed5780639976cf45146108f657600080fd5b8063794e572414610868578063795d26c3146108775780637f7dde4a1461087f578063807d138d14610892578063814a0a451461089b57600080fd5b8063480cd578116103b5578063631203b0116103275780636ef64338116102eb5780636ef64338146107b457806372423c171461080d57806372fe25aa14610820578063741bef1a1461082f578063756b253e1461084257806377e16f1e1461085557600080fd5b8063631203b01461074757806364cee2601461075a578063653d46e71461078657806366ca4a21146107995780636c37a4af146107a157600080fd5b80634ff81443116103795780634ff81443146106ef57806354062a45146107025780635733d58f146107155780635d6b480f146107245780635dba4c4a1461073757806361ec893d1461073f57600080fd5b8063480cd5781461067d5780634870dd9a146106a957806349eefeee146106b15780634a3c95c4146106b95780634e443d9e146106cc57600080fd5b80631e8b1c2b1161044e57806328d28b5b1161041257806328d28b5b146106215780632b11551a146106295780632f865568146106315780633cc74225146106445780634597f6ed14610657578063477d66cf1461066a57600080fd5b80631e8b1c2b146105da5780631f68f20a146105ed5780631fd6a434146105f657806321e3780114610606578063240926691461061957600080fd5b806312610e92116104a057806312610e921461054257806315d549f1146105555780631673c79a1461056857806318f2817a146105a45780631bf43555146105b75780631d08837b146105c757600080fd5b8063043782fb146104dd578063048c661d146104e8578063071a7541146105115780630b07655714610527578063105bb15c1461053a575b600080fd5b6104e642600c55565b005b6005546104fb906001600160a01b031681565b60405161050891906150e3565b60405180910390f35b610519600281565b604051908152602001610508565b6104e661053536600461511c565b610b4c565b610519610b74565b610519610550366004615139565b610b83565b61051961056336600461511c565b610bd6565b61058f61057636600461511c565b6013602052600090815260409020805460019091015482565b60408051928352602083019190915201610508565b6105196105b236600461511c565b610bf8565b610519686194049f30f720000081565b6104e66105d5366004615165565b600b55565b6104e66105e8366004615194565b610c0b565b610519600b5481565b610519680ad78ebc5ac620000081565b61051961061436600461511c565b610fac565b610519610fdc565b610519610ffd565b610519611011565b6104e661063f36600461511c565b61101e565b6001546104fb906001600160a01b031681565b6009546104fb906001600160a01b031681565b610519610678366004615165565b61108a565b61051961068b36600461511c565b6001600160a01b03166000908152600d602052604090206001015490565b61051960c881565b601454610519565b6105196106c736600461511c565b61109d565b6106df6106da366004615165565b611158565b6040519015158152602001610508565b6105196106fd366004615165565b611163565b610519610710366004615165565b61116e565b6105196714d1120d7b16000081565b6104e6610732366004615139565b611179565b6104e66111d1565b610519603c81565b610519610755366004615165565b61123d565b61051961076836600461511c565b6001600160a01b03166000908152600d602052604090206002015490565b6104e6610794366004615165565b61124a565b6105196115c0565b6104e66107af366004615259565b6115d2565b6107fc6107c236600461511c565b600d6020526000908152604090208054600182015460028301546003909301549192909160ff81169061010090046001600160801b031685565b60405161050895949392919061533b565b61051961081b366004615139565b611932565b610519670de0b6b3a764000081565b6002546104fb906001600160a01b031681565b6104fb610850366004615165565b61198a565b6008546104fb906001600160a01b031681565b610519670f43fc2c04ee000081565b6105196119b4565b6000546104fb906001600160a01b031681565b610519600f5481565b6105196108a9366004615381565b611ab0565b6104e66108bc36600461511c565b611ac7565b610519611ad8565b6003546001600160a01b03166104fb565b6003546001600160a01b031633146106df565b61051960105481565b610519610904366004615139565b611b9d565b61051961091736600461511c565b611bcb565b6109476040518060400160405280600c81526020016b2a3937bb32a6b0b730b3b2b960a11b81525081565b60405161050891906153ad565b610519610962366004615165565b611bf7565b61051960125481565b600a546104fb906001600160a01b031681565b61051961099136600461511c565b611c02565b680ad78ebc5ac6200000610519565b6004546104fb906001600160a01b031681565b6105196109c6366004615165565b611c29565b6109de6109d936600461511c565b611c34565b604080519485526020850193909352918301526060820152608001610508565b6104e6610a0c3660046153fb565b611c8c565b610519600e5481565b6105196123c0565b610519670ddd4b8c6c7d70d881565b6104e6610a3f36600461511c565b6123d2565b610519610a52366004615139565b6123e5565b610519600c5481565b61051960155481565b610519610a77366004615139565b612404565b610519610a8a366004615165565b612435565b610519610a9d36600461511c565b6001600160a01b03166000908152600d602052604090205490565b6104fb610ac6366004615165565b612448565b610519612478565b6104e6610ae136600461511c565b6124ae565b6106df610af436600461511c565b6124bb565b61051960165481565b61051960115481565b6104e6610b1936600461511c565b61251e565b6105196125b6565b6104e6610b3436600461511c565b6125c3565b610519610b47366004615165565b6125d4565b610b546125df565b600054600154610b71916001600160a01b03908116911683612661565b50565b6000610b7e61275d565b905090565b6000610b8d6125df565b6001600160a01b0383166000908152600d6020526040812054610bb190849061547f565b6001600160a01b0385166000908152600d602052604090208190559150505b92915050565b6000610be06125df565b610be982612779565b6001600160801b031692915050565b6000610c026125df565b610bd082612812565b8051600003610c805760405162461bcd60e51b815260206004820152603660248201527f54726f76654d616e616765723a2043616c6c646174612061646472657373206160448201527572726179206d757374206e6f7420626520656d70747960501b60648201526084015b60405180910390fd5b6000546001546005546001600160a01b03928316929182169116610ca261501e565b610caa61504f565b600260009054906101000a90046001600160a01b03166001600160a01b0316630fdb11cf6040518163ffffffff1660e01b81526004016020604051808303816000875af1158015610cff573d6000803e3d6000fd5b505050506040513d601f19601f82011682018060405250810190610d239190615492565b826000018181525050826001600160a01b03166301081fda6040518163ffffffff1660e01b8152600401602060405180830381865afa158015610d6a573d6000803e3d6000fd5b505050506040513d601f19601f82011682018060405250810190610d8e9190615492565b60208301528151610d9e906128b7565b1580156040840152610dc657610dbf8585846000015185602001518a6128d4565b9050610dde565b610ddb8585846000015185602001518a612b09565b90505b6000816020015111610e025760405162461bcd60e51b8152600401610c77906154ab565b608081015160a082015160405163335525ad60e01b81526001600160a01b0386169263335525ad92610e3f92600401918252602082015260400190565b600060405180830381600087803b158015610e5957600080fd5b505af1158015610e6d573d6000803e3d6000fd5b50505050610e8585858360c001518460e00151612bde565b61010081015115610efc57600754610100820151604051636250216960e01b81526001600160a01b0388811693636250216993610ec99392909116916004016154ed565b600060405180830381600087803b158015610ee357600080fd5b505af1158015610ef7573d6000803e3d6000fd5b505050505b610f0a858260400151612e1d565b6020810151606083015261010081015160408201518251610f2b919061547f565b610f35919061547f565b6080838101829052606080850151604085810151868401518251938452602084019690965290820152908101929092527f4152c73dd2614c4f9fc35e8c9cf16013cd588c75b49a4c1673ecffdcbcda9403910160405180910390a1610fa4853383606001518460400151612f68565b505050505050565b6001600160a01b0381166000908152600d602052604081206003015460ff166004811115610bd057610bd0615325565b610fef6064670de0b6b3a764000061551c565b610ffa906005615530565b81565b610fef6103e8670de0b6b3a764000061551c565b6000610b7e600b5461304b565b61102781613088565b60408051600180825281830190925260009160208083019080368337019050509050818160008151811061105d5761105d615547565b60200260200101906001600160a01b031690816001600160a01b03168152505061108681610c0b565b5050565b6000610bd06110976115c0565b8361311f565b6001600160a01b03811660009081526013602052604081205460115482906110c690839061547f565b9050801580611105575060016001600160a01b0385166000908152600d602052604090206003015460ff16600481111561110257611102615325565b14155b15611114575060009392505050565b6001600160a01b0384166000908152600d602052604081206002015490670de0b6b3a76400006111448484615530565b61114e919061551c565b9695505050505050565b6000610bd0826128b7565b6000610bd08261313e565b6000610bd082613153565b6111816125df565b80600481111561119357611193615325565b6001600160a01b0383166000908152600d60205260409020600301805460ff191660018360048111156111c8576111c8615325565b02179055505050565b6111d96125df565b60006111e3613168565b9050670de0b6b3a76400008111156111fd576111fd61555d565b600b8190556040518181527fc454ee9b76c52f782a256af821b857ca6e125d1e3333bcede402fec2bed9600c9060200160405180910390a1610b716131ac565b6000610bd06110976125b6565b6040805160e081018252600080546001600160a01b0390811683526001548116602084015292820181905260608201819052600a548316608083015260a0820181905260c08201526005549091166112a061501e565b6112a861504f565b600260009054906101000a90046001600160a01b03166001600160a01b0316630fdb11cf6040518163ffffffff1660e01b81526004016020604051808303816000875af11580156112fd573d6000803e3d6000fd5b505050506040513d601f19601f820116820180604052508101906113219190615492565b826000018181525050826001600160a01b03166301081fda6040518163ffffffff1660e01b8152600401602060405180830381865afa158015611368573d6000803e3d6000fd5b505050506040513d601f19601f8201168201806040525081019061138c9190615492565b6020830152815161139c906128b7565b15801560408401526113c3576113bc848360000151846020015188613203565b90506113e3565b6113e084600001518560200151846000015185602001518961358f565b90505b60008160200151116114075760405162461bcd60e51b8152600401610c77906154ab565b608081015160a082015160405163335525ad60e01b81526001600160a01b0386169263335525ad9261144492600401918252602082015260400190565b600060405180830381600087803b15801561145e57600080fd5b505af1158015611472573d6000803e3d6000fd5b50505050611492846000015185602001518360c001518460e00151612bde565b61010081015115611509578351600754610100830151604051636250216960e01b81526001600160a01b03938416936362502169936114d6939116916004016154ed565b600060405180830381600087803b1580156114f057600080fd5b505af1158015611504573d6000803e3d6000fd5b505050505b61151b84600001518260400151612e1d565b602081015160608301526101008101516040820151825161153c919061547f565b611546919061547f565b6080838101829052606080850151604085810151868401518251938452602084019690965290820152908101929092527f4152c73dd2614c4f9fc35e8c9cf16013cd588c75b49a4c1673ecffdcbcda9403910160405180910390a16115b984600001513383606001518460400151612f68565b5050505050565b6000610b7e6115cd613168565b6136c5565b6003546001600160a01b031633146115fc5760405162461bcd60e51b8152600401610c7790615573565b6116058a613717565b61160e89613717565b61161788613717565b61162087613717565b61162986613717565b61163285613717565b61163b84613717565b61164483613717565b61164d82613717565b6001600160a01b038116156116655761166581613717565b600480546001600160a01b03199081166001600160a01b038d8116919091179092556000805482168c84161790556001805482168b84161790556005805482168a8416179055600680548216898416179055600780548216888416179055600280548216878416179055600880548216868416179055600a80548216858416179055600980549091169183169190911790556040517f3ca631ffcd2a9b5d9ae18543fc82f58eb4ca33af9e6ab01b7a8e95331e6ed98590611727908c906150e3565b60405180910390a17f78f058b189175430c48dc02699e3a0031ea4ff781536dc2fab847de4babdd8828960405161175e91906150e3565b60405180910390a17f5ee0cae2f063ed938bb55046f6a932fb6ae792bf43624806bb90abe68a50be9b8860405161179591906150e3565b60405180910390a17f82966d27eea39b038ee0fa30cd16532bb24f6e65d31cb58fb227aa5766cdcc7f876040516117cc91906150e3565b60405180910390a17fcfb07d791fcafc032b35837b50eb84b74df518cf4cc287e8084f47630fa70fa08660405161180391906150e3565b60405180910390a17fe67f36a6e961157d6eff83b91f3af5a62131ceb6f04954ef74f51c1c05e7f88d8560405161183a91906150e3565b60405180910390a17f8c537274438aa850a330284665d81a85dd38267d09e4050d416bfc94142db2648460405161187191906150e3565b60405180910390a17fe1e858a66c0bbbcdfa22d58dde1e5d42370be20cdb176e560287f85412e546e0836040516118a891906150e3565b60405180910390a17f65f4cf077bc01e4742eb5ad98326f6e95b63548ea24b17f8d5e823111fe78800826040516118df91906150e3565b60405180910390a17f38335c64466e2376ab931166337e19127650d842036ebe01da1ba3e5c1255ebb8160405161191691906150e3565b60405180910390a16119266137bc565b50505050505050505050565b600061193c6125df565b6001600160a01b0383166000908152600d60205260408120600101546119639084906155a8565b6001600160a01b0385166000908152600d6020526040902060010181905591505092915050565b6014818154811061199a57600080fd5b6000918252602090912001546001600160a01b0316905081565b600080546040805163f07424e960e01b8152905183926001600160a01b03169163f07424e99160048083019260209291908290030181865afa1580156119fe573d6000803e3d6000fd5b505050506040513d601f19601f82011682018060405250810190611a229190615492565b90506000600160009054906101000a90046001600160a01b03166001600160a01b031663f07424e96040518163ffffffff1660e01b8152600401602060405180830381865afa158015611a79573d6000803e3d6000fd5b505050506040513d601f19601f82011682018060405250810190611a9d9190615492565b9050611aa981836155a8565b9250505090565b6000611abd848484613806565b90505b9392505050565b611acf6125df565b610b7181613837565b6000805460408051631529a63960e01b8152905183926001600160a01b031691631529a6399160048083019260209291908290030181865afa158015611b22573d6000803e3d6000fd5b505050506040513d601f19601f82011682018060405250810190611b469190615492565b90506000600160009054906101000a90046001600160a01b03166001600160a01b0316631529a6396040518163ffffffff1660e01b8152600401602060405180830381865afa158015611a79573d6000803e3d6000fd5b6000611ba76125df565b6001600160a01b0383166000908152600d6020526040812054610bb19084906155a8565b6001600160a01b03811660009081526013602052604081206001015460125482906110c690839061547f565b6000610bd08261389b565b6000806000611c10846138a8565b915091506000611c208383613924565b95945050505050565b6000610bd08261395a565b6001600160a01b0381166000908152600d602052604081208054600190910154909180611c6085611bcb565b9150611c6b8561109d565b9050611c7782856155a8565b9350611c8381846155a8565b92509193509193565b6040805160e08082018352600080546001600160a01b03908116845260015481166020808601919091526008548216858701526009548216606080870191909152600a548316608080880191909152600754841660a08089019190915260065490941660c080890191909152885161010081018a5286815293840186905297830185905290820184905281018390529081018290529384018190529083015290611d3583613986565b600260009054906101000a90046001600160a01b03166001600160a01b0316630fdb11cf6040518163ffffffff1660e01b81526004016020604051808303816000875af1158015611d8a573d6000803e3d6000fd5b505050506040513d601f19601f82011682018060405250810190611dae9190615492565b60c08201819052611dbe90613a21565b611dc789613a94565b611dd68260400151338b613afb565b611dde6119b4565b60e0820181905260408084015190516370a0823160e01b81526001600160a01b03909116906370a0823190611e179033906004016150e3565b602060405180830381865afa158015611e34573d6000803e3d6000fd5b505050506040513d601f19601f82011682018060405250810190611e589190615492565b1115611e6657611e6661555d565b888152608082015160c0820151600091611e81918b90613bf6565b15611e8d575087611f9f565b82608001516001600160a01b0316634d6228316040518163ffffffff1660e01b8152600401602060405180830381865afa158015611ecf573d6000803e3d6000fd5b505050506040513d601f19601f82011682018060405250810190611ef391906155bb565b90505b6001600160a01b03811615801590611f225750670f43fc2c04ee0000611f20828460c001516123e5565b105b15611f9f5782608001516001600160a01b031663b72703ac826040518263ffffffff1660e01b8152600401611f5791906150e3565b602060405180830381865afa158015611f74573d6000803e3d6000fd5b505050506040513d601f19601f82011682018060405250810190611f9891906155bb565b9050611ef6565b84600003611fad5760001994505b6001600160a01b03811615801590611fc55750815115155b8015611fd15750600085115b156120e45784611fe0816155d8565b955050600083608001516001600160a01b031663b72703ac836040518263ffffffff1660e01b815260040161201591906150e3565b602060405180830381865afa158015612032573d6000803e3d6000fd5b505050506040513d601f19601f8201168201806040525081019061205691906155bb565b905061206b8460000151856020015184612661565b6000612084858486600001518760c001518e8e8e613d40565b90508060400151156120975750506120e4565b80516020850180516120aa9083906155a8565b90525060208101516040850180516120c39083906155a8565b9052508051845185906120d790839061547f565b905250909150611fad9050565b600082604001511161214a5760405162461bcd60e51b815260206004820152602960248201527f54726f76654d616e616765723a20556e61626c6520746f2072656465656d20616044820152681b9e48185b5bdd5b9d60ba1b6064820152608401610c77565b61216182604001518360c001518460e00151613fce565b5061216f8260400151614071565b60608301819052604083015161218691908661407e565b60608301516001600160a01b03161561220557825160608085015190840151604051636250216960e01b81526001600160a01b03909316926362502169926121d29290916004016154ed565b600060405180830381600087803b1580156121ec57600080fd5b505af1158015612200573d6000803e3d6000fd5b505050505b81606001518260400151612219919061547f565b60808301526020820151604080840151606085015191517f43a3f4082a4dbc33d78e317d2497d3a730bc7fc3574159dcea1056e62e5d9ad893612275938f93919293845260208401929092526040830152606082015260800190565b60405180910390a182604001516001600160a01b0316639dc29fac3384602001516040518363ffffffff1660e01b81526004016122b39291906154ed565b600060405180830381600087803b1580156122cd57600080fd5b505af11580156122e1573d6000803e3d6000fd5b505084516020850151604051637b7fc9eb60e11b81526001600160a01b03909216935063f6ff93d6925061231b9160040190815260200190565b600060405180830381600087803b15801561233557600080fd5b505af1158015612349573d6000803e3d6000fd5b505084516080850151604051636250216960e01b81526001600160a01b03909216935063625021699250612382913391906004016154ed565b600060405180830381600087803b15801561239c57600080fd5b505af11580156123b0573d6000803e3d6000fd5b5050505050505050505050505050565b6000610b7e6123cd613168565b61304b565b6123da6125df565b610b718160026140ef565b60008060006123f3856138a8565b91509150600061114e838387613806565b600061240e6125df565b6001600160a01b0383166000908152600d602052604081206001015461196390849061547f565b6000610bd06124426123c0565b83614296565b60006014828154811061245d5761245d615547565b6000918252602090912001546001600160a01b031692915050565b6000612482613168565b600b55670de0b6b3a7640000600b54111561249f5761249f61555d565b6124a76131ac565b50600b5490565b6014546110868282614326565b600060016001600160a01b0383166000908152600d602052604090206003015460ff1660048111156124ef576124ef615325565b146124fc57506000919050565b506011546001600160a01b039091166000908152601360205260409020541090565b6003546001600160a01b031633146125485760405162461bcd60e51b8152600401610c7790615573565b6001600160a01b0381166125ad5760405162461bcd60e51b815260206004820152602660248201527f4f776e61626c653a206e6577206f776e657220697320746865207a65726f206160448201526564647265737360d01b6064820152608401610c77565b610b71816144f6565b6000610b7e600b546136c5565b6125cb6125df565b610b7181614548565b6000610bd082614071565b6004546001600160a01b0316331461265f5760405162461bcd60e51b815260206004820152603b60248201527f54726f76654d616e616765723a2043616c6c6572206973206e6f74207468652060448201527f426f72726f7765724f7065726174696f6e7320636f6e747261637400000000006064820152608401610c77565b565b61266a816124bb565b156127585761267881613088565b60006126838261109d565b9050600061269083611bcb565b6001600160a01b0384166000908152600d60205260408120600101805492935084929091906126c09084906155a8565b90915550506001600160a01b0383166000908152600d6020526040812080548392906126ed9084906155a8565b909155506126fc905083613837565b6127088585838561459a565b6001600160a01b0383166000818152600d60205260408082208054600182015460029092015492516000805160206156c68339815191529461274d9492939291615603565b60405180910390a250505b505050565b6000603c600c544261276f919061547f565b610b7e919061551c565b601480546001808201835560008381527fce6d7b5282bd9a3661ae061feed1dbda4e52ab073b1f9285be6e155d9c38d4ec90920180546001600160a01b0319166001600160a01b038616179055915490916127d39161547f565b6001600160a01b03929092166000908152600d602052604090206003018054610100600160881b0319166101006001600160801b038516021790555090565b6001600160a01b0381166000908152600d602052604081206001015481906128399061467b565b6001600160a01b0384166000908152600d60205260409020600201805490829055600e5491925090829061286e90839061547f565b61287891906155a8565b600e8190556040519081527f6bac5e0eb3c44eb03a60ab11ec3a2c051771616aecadbcfff2630aabae5203829060200160405180910390a15092915050565b6000806128c38361395a565b6714d1120d7b160000119392505050565b6128dc61504f565b6128e461509b565b6128ec61504f565b848252600060808301526128fe6119b4565b60a083015261290b611ad8565b60c0830152600060208301525b835182602001511015612afe578382602001518151811061293b5761293b615547565b6020908102919091018101516001600160a01b0316606084018190526000908152600d909152604090206003015460019060ff16600481111561298057612980615325565b03612ae6576129938260600151876123e5565b60408301526080820151612a8957670f43fc2c04ee00008260400151101580156129bc57508151155b612ae65760006129d58360c001518460a0015189613806565b90506129f28989856060015186604001518760000151868d6146b1565b9150816080015183600001818151612a0a919061547f565b905250608082015160a084018051612a2390839061547f565b905250610100820151604083015160a0840151612a4091906155a8565b612a4a91906155a8565b8360c001818151612a5b919061547f565b905250612a6884836149ac565b9350612a7d8360c001518460a0015189614a96565b15608084015250612ae6565b81608001518015612aa55750670f43fc2c04ee00008260400151105b15612ae657612abe888884606001518560000151614ab7565b9050806080015182600001818151612ad6919061547f565b905250612ae383826149ac565b92505b60208201805190612af682615625565b905250612918565b505095945050505050565b612b1161504f565b612b1961509b565b612b2161504f565b848252600060208301525b835182602001511015612afe5783826020015181518110612b4f57612b4f615547565b60209081029190910101516001600160a01b031660608301819052612b7490876123e5565b60408301819052670f43fc2c04ee00001115612bc657612b9e888884606001518560000151614ab7565b9050806080015182600001818151612bb6919061547f565b905250612bc383826149ac565b92505b60208201805190612bd682615625565b905250612b2c565b8115612e1757601554600090612bfc670de0b6b3a764000084615530565b612c0691906155a8565b90506000601654670de0b6b3a764000085612c219190615530565b612c2b91906155a8565b90506000600e5483612c3d919061551c565b90506000600e5483612c4f919061551c565b9050600e5482612c5f9190615530565b612c69908561547f565b601555600e54612c799082615530565b612c83908461547f565b6016819055508160116000828254612c9b91906155a8565b925050819055508060126000828254612cb491906155a8565b90915550506011546012546040517f9f8bc8ab0daf5bceef75ecfd2085d1fcc6548c657ea970d9a23a60610d0737e392612cf692908252602082015260400190565b60405180910390a1604051637b7fc9eb60e11b8152600481018790526001600160a01b0389169063f6ff93d690602401600060405180830381600087803b158015612d4057600080fd5b505af1158015612d54573d6000803e3d6000fd5b50506040516342c31a2360e01b8152600481018990526001600160a01b038a1692506342c31a239150602401600060405180830381600087803b158015612d9a57600080fd5b505af1158015612dae573d6000803e3d6000fd5b5050604051636250216960e01b81526001600160a01b038b16925063625021699150612de0908a9089906004016154ed565b600060405180830381600087803b158015612dfa57600080fd5b505af1158015612e0e573d6000803e3d6000fd5b50505050505050505b50505050565b600e54600f819055506000826001600160a01b0316631529a6396040518163ffffffff1660e01b8152600401602060405180830381865afa158015612e66573d6000803e3d6000fd5b505050506040513d601f19601f82011682018060405250810190612e8a9190615492565b90506000600160009054906101000a90046001600160a01b03166001600160a01b0316631529a6396040518163ffffffff1660e01b8152600401602060405180830381865afa158015612ee1573d6000803e3d6000fd5b505050506040513d601f19601f82011682018060405250810190612f059190615492565b905080612f12848461547f565b612f1c91906155a8565b6010819055600f546040517f51bf4c63ec3cba9d03d43238abbdd979dd91bd16d9895c74ceea9118c7baaf6092612f5a928252602082015260400190565b60405180910390a150505050565b8115612fdf57600854600654604051631062c15f60e11b81526001600160a01b0391821660048201528582166024820152604481018590529116906320c582be90606401600060405180830381600087803b158015612fc657600080fd5b505af1158015612fda573d6000803e3d6000fd5b505050505b8015612e1757604051636250216960e01b81526001600160a01b0385169063625021699061301390869085906004016154ed565b600060405180830381600087803b15801561302d57600080fd5b505af1158015613041573d6000803e3d6000fd5b5050505050505050565b6000610bd0826130656103e8670de0b6b3a764000061551c565b613070906005615530565b61307a91906155a8565b670de0b6b3a7640000614bfe565b60016001600160a01b0382166000908152600d602052604090206003015460ff1660048111156130ba576130ba615325565b14610b715760405162461bcd60e51b815260206004820152602f60248201527f54726f76654d616e616765723a2054726f766520646f6573206e6f742065786960448201526e1cdd081bdc881a5cc818db1bdcd959608a1b6064820152608401610c77565b6000670de0b6b3a76400006131348385615530565b611ac0919061551c565b6000610bd0680ad78ebc5ac6200000836155a8565b6000610bd0680ad78ebc5ac62000008361547f565b60008061317361275d565b90506000613189670ddd4b8c6c7d70d883614c14565b9050670de0b6b3a764000081600b546131a29190615530565b611aa9919061551c565b6000600c54426131bc919061547f565b9050603c8110610b715742600c8190556040519081527f860f8d2f0c74dd487e89e2883e3b25b8159ce1e1b3433a291cba7b82c508f3bc906020015b60405180910390a150565b61320b61504f565b61321361509b565b61321b61504f565b8482526000608083015261322d6119b4565b60a083015261323a611ad8565b8260c001818152505086608001516001600160a01b0316634d6228316040518163ffffffff1660e01b8152600401602060405180830381865afa158015613285573d6000803e3d6000fd5b505050506040513d601f19601f820116820180604052508101906132a991906155bb565b82606001906001600160a01b031690816001600160a01b031681525050600087608001516001600160a01b0316631e2231436040518163ffffffff1660e01b8152600401602060405180830381865afa15801561330a573d6000803e3d6000fd5b505050506040513d601f19601f8201168201806040525081019061332e91906155bb565b6000602085015290505b8483602001511080156133615750806001600160a01b031683606001516001600160a01b031614155b156135845760808801516060840151604051632dc9c0eb60e21b81526000926001600160a01b03169163b72703ac9161339d91906004016150e3565b602060405180830381865afa1580156133ba573d6000803e3d6000fd5b505050506040513d601f19601f820116820180604052508101906133de91906155bb565b90506133ee8460600151896123e5565b604085015260808401516134ef57670f43fc2c04ee000084604001511015801561341757508351155b156134225750613584565b60006134378560c001518660a001518b613806565b8a5160208c015160608801516040890151895194955061345894868f6146b1565b9350836080015185600001818151613470919061547f565b905250608084015160a08601805161348990839061547f565b905250610100840151604085015160a08601516134a691906155a8565b6134b091906155a8565b8560c0018181516134c1919061547f565b9052506134ce86856149ac565b95506134e38560c001518660a001518b614a96565b1560808601525061355e565b8360800151801561350b5750670f43fc2c04ee00008460400151105b156135585761352c89600001518a6020015186606001518760000151614ab7565b9250826080015184600001818151613544919061547f565b90525061355185846149ac565b945061355e565b50613584565b6001600160a01b031660608401526020830180519061357c82615625565b905250613338565b505050949350505050565b61359761504f565b61359f61509b565b6135a761504f565b600a54858352600060208401526001600160a01b03165b84836020015110156136b957806001600160a01b0316634d6228316040518163ffffffff1660e01b8152600401602060405180830381865afa158015613608573d6000803e3d6000fd5b505050506040513d601f19601f8201168201806040525081019061362c91906155bb565b6001600160a01b03166060840181905261364690886123e5565b60408401819052670f43fc2c04ee0000111561369c57613670898985606001518660000151614ab7565b9150816080015183600001818151613688919061547f565b90525061369584836149ac565b93506136a1565b6136b9565b602083018051906136b182615625565b9052506135be565b50505095945050505050565b6000610bd0826136df6103e8670de0b6b3a764000061551c565b6136ea906005615530565b6136f491906155a8565b6137076064670de0b6b3a764000061551c565b613712906005615530565b614bfe565b6001600160a01b03811661376d5760405162461bcd60e51b815260206004820152601e60248201527f4163636f756e742063616e6e6f74206265207a65726f206164647265737300006044820152606401610c77565b803b806110865760405162461bcd60e51b815260206004820181905260248201527f4163636f756e7420636f64652073697a652063616e6e6f74206265207a65726f6044820152606401610c77565b6003546040516000916001600160a01b0316907f8be0079c531659141344cd1fd0a4f28419497f9722a3daafe3b4186f6b6457e0908390a3600380546001600160a01b0319169055565b6000821561382e5760008361381b8487615530565b613825919061551c565b9150611ac09050565b50600019611ac0565b601180546001600160a01b038316600090815260136020526040908190209182556012546001909201829055915491517fc437f324d85e369394148dd9d62f98f534b382e01ed3dd2eb98138fb6d3ab49a926131f892908252602082015260400190565b6000610bd060c88361551c565b60008060006138b68461109d565b905060006138c385611bcb565b6001600160a01b0386166000908152600d6020526040812060010154919250906138ee9084906155a8565b6001600160a01b0387166000908152600d6020526040812054919250906139169084906155a8565b919791965090945050505050565b60008115613951578161394068056bc75e2d6310000085615530565b61394a919061551c565b9050610bd0565b50600019610bd0565b600080613965611ad8565b905060006139716119b4565b905061397e828286613806565b949350505050565b61399a6103e8670de0b6b3a764000061551c565b6139a5906005615530565b81101580156139bc5750670de0b6b3a76400008111155b610b715760405162461bcd60e51b815260206004820152603060248201527f4d6178206665652070657263656e74616765206d75737420626520626574776560448201526f656e20302e352520616e64203130302560801b6064820152608401610c77565b670f43fc2c04ee0000613a338261395a565b1015610b715760405162461bcd60e51b815260206004820152602a60248201527f54726f76654d616e616765723a2043616e6e6f742072656465656d207768656e604482015269102a21a9101e1026a1a960b11b6064820152608401610c77565b60008111610b715760405162461bcd60e51b815260206004820152602e60248201527f54726f76654d616e616765723a20416d6f756e74206d7573742062652067726560448201526d61746572207468616e207a65726f60901b6064820152608401610c77565b6040516370a0823160e01b815281906001600160a01b038516906370a0823190613b299086906004016150e3565b602060405180830381865afa158015613b46573d6000803e3d6000fd5b505050506040513d601f19601f82011682018060405250810190613b6a9190615492565b10156127585760405162461bcd60e51b815260206004820152604f60248201527f54726f76654d616e616765723a2052657175657374656420726564656d70746960448201527f6f6e20616d6f756e74206d757374206265203c3d20757365722773205448555360648201526e4420746f6b656e2062616c616e636560881b608482015260a401610c77565b60006001600160a01b0383161580613c785750604051630bb7c8fd60e31b81526001600160a01b03851690635dbe47e890613c359086906004016150e3565b602060405180830381865afa158015613c52573d6000803e3d6000fd5b505050506040513d601f19601f82011682018060405250810190613c76919061563e565b155b80613c935750670f43fc2c04ee0000613c9184846123e5565b105b15613ca057506000611ac0565b60405163765e015960e01b81526000906001600160a01b0386169063765e015990613ccf9087906004016150e3565b602060405180830381865afa158015613cec573d6000803e3d6000fd5b505050506040513d601f19601f82011682018060405250810190613d1091906155bb565b90506001600160a01b0381161580611c205750670f43fc2c04ee0000613d3682856123e5565b1095945050505050565b613d66604051806060016040528060008152602001600081526020016000151581525090565b6001600160a01b0387166000908152600d6020526040902054613d9990879061371290680ad78ebc5ac62000009061547f565b8082528590613db190670de0b6b3a764000090615530565b613dbb919061551c565b60208083019190915281516001600160a01b0389166000908152600d9092526040822054613de9919061547f565b6020808401516001600160a01b038b166000908152600d90925260408220600101549293509091613e1a919061547f565b9050680ad78ebc5ac62000008203613e9257613e3589614548565b613e408960046140ef565b613e558a8a680ad78ebc5ac620000084614cbf565b886001600160a01b03166000805160206156c683398151915260008060006003604051613e859493929190615603565b60405180910390a2613fc0565b6000613e9e8284613924565b90508481141580613ebf5750686194049f30f7200000613ebd84613153565b105b15613ed35750506001604083015250613fc3565b60808b015160405163015f109360e51b81526001600160a01b038c81166004830152602482018490528981166044830152888116606483015290911690632be2126090608401600060405180830381600087803b158015613f3357600080fd5b505af1158015613f47573d6000803e3d6000fd5b5050506001600160a01b038b166000908152600d6020526040902084815560010183905550613f758a612812565b506001600160a01b038a166000818152600d6020526040908190206002015490516000805160206156c683398151915291613fb69187918791600390615603565b60405180910390a2505b50505b979650505050505050565b600080613fd9613168565b9050600083613fe88688615530565b613ff2919061551c565b9050600061400160028361551c565b61400b90846155a8565b905061401f81670de0b6b3a7640000614bfe565b9050600081116140315761403161555d565b600b8190556040518181527fc454ee9b76c52f782a256af821b857ca6e125d1e3333bcede402fec2bed9600c9060200160405180910390a161114e6131ac565b6000610bd0612442611011565b600082614093670de0b6b3a764000086615530565b61409d919061551c565b905081811115612e175760405162461bcd60e51b815260206004820152601d60248201527f4665652065786365656465642070726f7669646564206d6178696d756d0000006044820152606401610c77565b600081600481111561410357614103615325565b141580156141235750600181600481111561412057614120615325565b14155b61412f5761412f61555d565b60145460085460048054604051635f7a196360e11b81526001600160a01b039384169363bef432c6936141669390911691016150e3565b602060405180830381865afa158015614183573d6000803e3d6000fd5b505050506040513d601f19601f820116820180604052508101906141a7919061563e565b156141b5576141b581614e1e565b6001600160a01b0383166000908152600d60205260409020600301805483919060ff191660018360048111156141ed576141ed615325565b02179055506001600160a01b0383166000908152600d6020908152604080832060018082018590559084905560139092528220828155015561422f8382614326565b600a54604051631484968760e11b81526001600160a01b03909116906329092d0e9061425f9086906004016150e3565b600060405180830381600087803b15801561427957600080fd5b505af115801561428d573d6000803e3d6000fd5b50505050505050565b600080670de0b6b3a76400006142ac8486615530565b6142b6919061551c565b9050828110611ac05760405162461bcd60e51b815260206004820152603660248201527f54726f76654d616e616765723a2046656520776f756c642065617420757020616044820152751b1b081c995d1d5c9b99590818dbdb1b185d195c985b60521b6064820152608401610c77565b6001600160a01b0382166000908152600d602052604081206003015460ff169081600481111561435857614358615325565b141580156143785750600181600481111561437557614375615325565b14155b6143845761438461555d565b6001600160a01b0383166000908152600d602052604081206003015461010090046001600160801b03169083906143bc60018361547f565b905080836001600160801b031611156143d7576143d761555d565b6000601482815481106143ec576143ec615547565b600091825260209091200154601480546001600160a01b03909216925082916001600160801b03871690811061442457614424615547565b600091825260208083209190910180546001600160a01b0319166001600160a01b03948516179055918316808252600d83526040918290206003018054610100600160881b0319166101006001600160801b038a16908102919091179091558251918252928101929092527f02b04ae5f7be9ca7c103293a2aa15f3c339d15d6eda53b721fef7b0e609c831a910160405180910390a160148054806144cb576144cb615660565b600082815260209020810160001990810180546001600160a01b031916905501905550505050505050565b600380546001600160a01b038381166001600160a01b0319831681179093556040519116919082907f8be0079c531659141344cd1fd0a4f28419497f9722a3daafe3b4186f6b6457e090600090a35050565b6001600160a01b0381166000908152600d6020526040812060020154600e80549192839261457790849061547f565b9091555050506001600160a01b03166000908152600d6020526040812060020155565b604051637b7fc9eb60e11b8152600481018390526001600160a01b0384169063f6ff93d690602401600060405180830381600087803b1580156145dc57600080fd5b505af11580156145f0573d6000803e3d6000fd5b50506040516342c31a2360e01b8152600481018590526001600160a01b03871692506342c31a239150602401600060405180830381600087803b15801561463657600080fd5b505af115801561464a573d6000803e3d6000fd5b5050604051633ef8ba8160e11b8152600481018490526001600160a01b0386169250637df175029150602401613013565b60008060105460000361468f575081610bd0565b6000600f54116146a1576146a161555d565b601054600f546131349085615530565b6146b961504f565b6146dd60405180606001604052806000815260200160008152602001600081525090565b6014546001106146ed5750613fc3565b6146f687611c34565b604085015260208481019190915284018190529083526147159061389b565b60408301819052680ad78ebc5ac62000006060840152602083015161473a919061547f565b8152670de0b6b3a764000086116148055761475f89898360200151846040015161459a565b61476887614548565b60006080830181905260a0830152815160c0830152805160e083015261478f8760036140ef565b815160208301516040516001600160a01b038a16926000805160206156a6833981519152926147c092600290615676565b60405180910390a2866001600160a01b03166000805160206156c6833981519152600080600060026040516147f89493929190615603565b60405180910390a26149a0565b670de0b6b3a7640000861180156148235750670f43fc2c04ee000086105b156148735761483c89898360200151846040015161459a565b61484587614548565b81518151614854919087614ef8565b60e086015260c085015260a0840152608083015261478f8760036140ef565b670f43fc2c04ee0000861015801561488a57508386105b8015614897575081518510155b1561498f576148b089898360200151846040015161459a565b846000036148c0576148c061555d565b6148c987614548565b6148dc8260000151836020015185614f59565b91506148e98760036140ef565b6101008201511561495e57600754610100830151604051633f10abab60e01b81526001600160a01b0390921691633f10abab9161492b918b91906004016154ed565b600060405180830381600087803b15801561494557600080fd5b505af1158015614959573d6000803e3d6000fd5b505050505b815160a08301516040516001600160a01b038a16926000805160206156a6833981519152926147c092600290615676565b61499761504f565b9150613fc39050565b50979650505050505050565b6149b461504f565b816040015183604001516149c891906155a8565b6040820152606080830151908401516149e191906155a8565b6060820152815160208401516149f791906155a8565b6020808301919091528201518351614a0f91906155a8565b815260808083015190840151614a2591906155a8565b608082015260a08083015190840151614a3e91906155a8565b60a082015260c08083015190840151614a5791906155a8565b60c082015260e08083015190840151614a7091906155a8565b60e08201526101008083015190840151614a8a91906155a8565b61010082015292915050565b600080614aa4858585613806565b6714d1120d7b1600001195945050505050565b614abf61504f565b614ae360405180606001604052806000815260200160008152602001600081525090565b614aec84611c34565b60408501908152602085810192835286019290925291845290519051614b1691889188919061459a565b614b1f84614548565b614b2c826020015161389b565b60408301819052680ad78ebc5ac620000060608401526020830151600091614b539161547f565b9050614b6483600001518286614ef8565b60e087015260c086015260a08501526080840152614b838560036140ef565b825160208401516040516001600160a01b038816926000805160206156a683398151915292614bb492600190615676565b60405180910390a2846001600160a01b03166000805160206156c683398151915260008060006001604051614bec9493929190615603565b60405180910390a25050949350505050565b6000818310614c0d5781611ac0565b5090919050565b6000631f540500821115614c2a57631f54050091505b81600003614c415750670de0b6b3a7640000610bd0565b670de0b6b3a764000083835b6001811115614cb557614c61600282615691565b600003614c8657614c728283614fe7565b9150614c7f60028261551c565b9050614c4d565b614c908284614fe7565b9250614c9c8283614fe7565b91506002614cab60018361547f565b614c7f919061551c565b61114e8284614fe7565b6040808501516006549151632770a7eb60e21b81526001600160a01b0391821692639dc29fac92614cf79291169086906004016154ed565b600060405180830381600087803b158015614d1157600080fd5b505af1158015614d25573d6000803e3d6000fd5b50508551604051637b7fc9eb60e11b8152600481018690526001600160a01b03909116925063f6ff93d69150602401600060405180830381600087803b158015614d6e57600080fd5b505af1158015614d82573d6000803e3d6000fd5b505050508360a001516001600160a01b0316633f10abab84836040518363ffffffff1660e01b8152600401614db89291906154ed565b600060405180830381600087803b158015614dd257600080fd5b505af1158015614de6573d6000803e3d6000fd5b5050855160a0870151604051636250216960e01b81526001600160a01b039092169350636250216992506130139185906004016154ed565b600181118015614e995750600a546040805163de8fa43160e01b815290516001926001600160a01b03169163de8fa4319160048083019260209291908290030181865afa158015614e73573d6000803e3d6000fd5b505050506040513d601f19601f82011682018060405250810190614e979190615492565b115b610b715760405162461bcd60e51b815260206004820152602a60248201527f54726f76654d616e616765723a204f6e6c79206f6e652074726f766520696e206044820152697468652073797374656d60b01b6064820152608401610c77565b60008080808415614f4357614f0d8786614bfe565b935086614f1a8588615530565b614f24919061551c565b9250614f30848861547f565b9150614f3c838761547f565b9050614f50565b5060009250829150859050845b93509350935093565b614f6161504f565b83815260208101839052600082614f80670f43fc2c04ee000087615530565b614f8a919061551c565b9050614f958161389b565b60408301819052680ad78ebc5ac6200000606084015260808301869052614fbc908261547f565b60a0830152614fcb818561547f565b61010083015250600060c0820181905260e08201529392505050565b600080614ff48385615530565b9050670de0b6b3a764000061500a60028261551c565b61501490836155a8565b61397e919061551c565b6040518060a00160405280600081526020016000815260200160001515815260200160008152602001600081525090565b6040518061012001604052806000815260200160008152602001600081526020016000815260200160008152602001600081526020016000815260200160008152602001600081525090565b6040518060e0016040528060008152602001600081526020016000815260200160006001600160a01b0316815260200160001515815260200160008152602001600081525090565b6001600160a01b0391909116815260200190565b6001600160a01b0381168114610b7157600080fd5b8035615117816150f7565b919050565b60006020828403121561512e57600080fd5b8135611ac0816150f7565b6000806040838503121561514c57600080fd5b8235615157816150f7565b946020939093013593505050565b60006020828403121561517757600080fd5b5035919050565b634e487b7160e01b600052604160045260246000fd5b600060208083850312156151a757600080fd5b823567ffffffffffffffff808211156151bf57600080fd5b818501915085601f8301126151d357600080fd5b8135818111156151e5576151e561517e565b8060051b604051601f19603f8301168101818110858211171561520a5761520a61517e565b60405291825284820192508381018501918883111561522857600080fd5b938501935b8285101561524d5761523e8561510c565b8452938501939285019261522d565b98975050505050505050565b6000806000806000806000806000806101408b8d03121561527957600080fd5b8a35615284816150f7565b995060208b0135615294816150f7565b985060408b01356152a4816150f7565b975060608b01356152b4816150f7565b965060808b01356152c4816150f7565b955060a08b01356152d4816150f7565b945060c08b01356152e4816150f7565b935060e08b01356152f4816150f7565b92506101008b0135615305816150f7565b91506153146101208c0161510c565b90509295989b9194979a5092959850565b634e487b7160e01b600052602160045260246000fd5b858152602081018590526040810184905260a081016005841061536057615360615325565b60608201939093526001600160801b03919091166080909101529392505050565b60008060006060848603121561539657600080fd5b505081359360208301359350604090920135919050565b600060208083528351808285015260005b818110156153da578581018301518582016040015282016153be565b506000604082860101526040601f19601f8301168501019250505092915050565b600080600080600080600060e0888a03121561541657600080fd5b873596506020880135615428816150f7565b95506040880135615438816150f7565b94506060880135615448816150f7565b9699959850939660808101359560a0820135955060c0909101359350915050565b634e487b7160e01b600052601160045260246000fd5b81810381811115610bd057610bd0615469565b6000602082840312156154a457600080fd5b5051919050565b60208082526022908201527f54726f76654d616e616765723a206e6f7468696e6720746f206c697175696461604082015261746560f01b606082015260800190565b6001600160a01b03929092168252602082015260400190565b634e487b7160e01b600052601260045260246000fd5b60008261552b5761552b615506565b500490565b8082028115828204841417610bd057610bd0615469565b634e487b7160e01b600052603260045260246000fd5b634e487b7160e01b600052600160045260246000fd5b6020808252818101527f4f776e61626c653a2063616c6c6572206973206e6f7420746865206f776e6572604082015260600190565b80820180821115610bd057610bd0615469565b6000602082840312156155cd57600080fd5b8151611ac0816150f7565b6000816155e7576155e7615469565b506000190190565b600481106155ff576155ff615325565b9052565b848152602081018490526040810183905260808101611c2060608301846155ef565b60006001820161563757615637615469565b5060010190565b60006020828403121561565057600080fd5b81518015158114611ac057600080fd5b634e487b7160e01b600052603160045260246000fd5b838152602081018390526060810161397e60408301846155ef565b6000826156a0576156a0615506565b50069056feea67486ed7ebe3eea8ab3390efd4a3c8aae48be5bea27df104a8af786c408434c3770d654ed33aeea6bf11ac8ef05d02a6a04ed4686dd2f624d853bbec43cc8ba2646970667358221220d0470e9b95959ef34aa33bbc6b8bfdb6990d660b50f4eb42385471613d857d2164736f6c63430008110033",
  "linkReferences": {},
  "deployedLinkReferences": {}
}