{
  "_format": "hh-sol-artifact-1",
  "contractName": "TroveManagerScript",
  "sourceName": "contracts/Proxy/TroveManagerScript.sol",
  "abi": [
    {
      "inputs": [
        {
          "internalType": "contract ITroveManager",
          "name": "_troveManager",
          "type": "address"
        }
      ],
      "stateMutability": "nonpayable",
      "type": "constructor"
    },
    {
      "inputs": [],
      "name": "NAME",
      "outputs": [
        {
          "internalType": "string",
          "name": "",
          "type": "string"
        }
      ],
      "stateMutability": "view",
      "type": "function"
    },
    {
      "inputs": [
        {
          "internalType": "uint256",
          "name": "_THUSDAmount",
          "type": "uint256"
        },
        {
          "internalType": "address",
          "name": "_firstRedemptionHint",
          "type": "address"
        },
        {
          "internalType": "address",
          "name": "_upperPartialRedemptionHint",
          "type": "address"
        },
        {
          "internalType": "address",
          "name": "_lowerPartialRedemptionHint",
          "type": "address"
        },
        {
          "internalType": "uint256",
          "name": "_partialRedemptionHintNICR",
          "type": "uint256"
        },
        {
          "internalType": "uint256",
          "name": "_maxIterations",
          "type": "uint256"
        },
        {
          "internalType": "uint256",
          "name": "_maxFee",
          "type": "uint256"
        }
      ],
      "name": "redeemCollateral",
      "outputs": [],
      "stateMutability": "nonpayable",
      "type": "function"
    }
  ],
  "bytecode": "0x60a060405234801561001057600080fd5b5060405161039038038061039083398101604081905261002f916100f7565b61003881610049565b6001600160a01b0316608052610127565b6001600160a01b0381166100a45760405162461bcd60e51b815260206004820152601e60248201527f4163636f756e742063616e6e6f74206265207a65726f2061646472657373000060448201526064015b60405180910390fd5b803b806100f35760405162461bcd60e51b815260206004820181905260248201527f4163636f756e7420636f64652073697a652063616e6e6f74206265207a65726f604482015260640161009b565b5050565b60006020828403121561010957600080fd5b81516001600160a01b038116811461012057600080fd5b9392505050565b60805161024f610141600039600060e2015261024f6000f3fe608060405234801561001057600080fd5b50600436106100365760003560e01c8063a3f4df7e1461003b578063bcd3752614610082575b600080fd5b61006c60405180604001604052806012815260200171151c9bdd9953585b9859d95c94d8dc9a5c1d60721b81525081565b6040516100799190610147565b60405180910390f35b6100956100903660046101b1565b610097565b005b604051635e69ba9360e11b8152600481018890526001600160a01b038781166024830152868116604483015285811660648301526084820185905260a4820184905260c482018390527f0000000000000000000000000000000000000000000000000000000000000000169063bcd375269060e401600060405180830381600087803b15801561012657600080fd5b505af115801561013a573d6000803e3d6000fd5b5050505050505050505050565b600060208083528351808285015260005b8181101561017457858101830151858201604001528201610158565b506000604082860101526040601f19601f8301168501019250505092915050565b80356001600160a01b03811681146101ac57600080fd5b919050565b600080600080600080600060e0888a0312156101cc57600080fd5b873596506101dc60208901610195565b95506101ea60408901610195565b94506101f860608901610195565b9699959850939660808101359560a0820135955060c090910135935091505056fea2646970667358221220aa90a8c5b56956b906d4e09c8709f2a1fa36bc39b27a7c0d750732823321129964736f6c63430008110033",
  "linkReferences": {},
  "deployedLinkReferences": {}
}