{
  "_format": "hh-sol-artifact-1",
  "contractName": "TroveManager",
  "sourceName": "contracts/TroveManager.sol",
  "abi": [
    {
      "anonymous": false,
      "inputs": [
        {
          "indexed": false,
          "internalType": "address",
          "name": "_activePoolAddress",
          "type": "address"
        }
      ],
      "name": "ActivePoolAddressChanged",
      "type": "event"
    },
    {
      "anonymous": false,
      "inputs": [
        {
          "indexed": false,
          "internalType": "uint256",
          "name": "_baseRate",
          "type": "uint256"
        }
      ],
      "name": "BaseRateUpdated",
      "type": "event"
    },
    {
      "anonymous": false,
      "inputs": [
        {
          "indexed": false,
          "internalType": "address",
          "name": "_newBorrowerOperationsAddress",
          "type": "address"
        }
      ],
      "name": "BorrowerOperationsAddressChanged",
      "type": "event"
    },
    {
      "anonymous": false,
      "inputs": [
        {
          "indexed": false,
          "internalType": "address",
          "name": "_collSurplusPoolAddress",
          "type": "address"
        }
      ],
      "name": "CollSurplusPoolAddressChanged",
      "type": "event"
    },
    {
      "anonymous": false,
      "inputs": [
        {
          "indexed": false,
          "internalType": "address",
          "name": "_defaultPoolAddress",
          "type": "address"
        }
      ],
      "name": "DefaultPoolAddressChanged",
      "type": "event"
    },
    {
      "anonymous": false,
      "inputs": [
        {
          "indexed": false,
          "internalType": "address",
          "name": "_gasPoolAddress",
          "type": "address"
        }
      ],
      "name": "GasPoolAddressChanged",
      "type": "event"
    },
    {
      "anonymous": false,
      "inputs": [
        {
          "indexed": false,
          "internalType": "uint256",
          "name": "_L_Collateral",
          "type": "uint256"
        },
        {
          "indexed": false,
          "internalType": "uint256",
          "name": "_L_THUSDDebt",
          "type": "uint256"
        }
      ],
      "name": "LTermsUpdated",
      "type": "event"
    },
    {
      "anonymous": false,
      "inputs": [
        {
          "indexed": false,
          "internalType": "uint256",
          "name": "_lastFeeOpTime",
          "type": "uint256"
        }
      ],
      "name": "LastFeeOpTimeUpdated",
      "type": "event"
    },
    {
      "anonymous": false,
      "inputs": [
        {
          "indexed": false,
          "internalType": "uint256",
          "name": "_liquidatedDebt",
          "type": "uint256"
        },
        {
          "indexed": false,
          "internalType": "uint256",
          "name": "_liquidatedColl",
          "type": "uint256"
        },
        {
          "indexed": false,
          "internalType": "uint256",
          "name": "_collGasCompensation",
          "type": "uint256"
        },
        {
          "indexed": false,
          "internalType": "uint256",
          "name": "_THUSDGasCompensation",
          "type": "uint256"
        }
      ],
      "name": "Liquidation",
      "type": "event"
    },
    {
      "anonymous": false,
      "inputs": [
        {
          "indexed": true,
          "internalType": "address",
          "name": "previousOwner",
          "type": "address"
        },
        {
          "indexed": true,
          "internalType": "address",
          "name": "newOwner",
          "type": "address"
        }
      ],
      "name": "OwnershipTransferred",
      "type": "event"
    },
    {
      "anonymous": false,
      "inputs": [
        {
          "indexed": false,
          "internalType": "address",
          "name": "_pcvAddress",
          "type": "address"
        }
      ],
      "name": "PCVAddressChanged",
      "type": "event"
    },
    {
      "anonymous": false,
      "inputs": [
        {
          "indexed": false,
          "internalType": "address",
          "name": "_newPriceFeedAddress",
          "type": "address"
        }
      ],
      "name": "PriceFeedAddressChanged",
      "type": "event"
    },
    {
      "anonymous": false,
      "inputs": [
        {
          "indexed": false,
          "internalType": "uint256",
          "name": "_attemptedTHUSDAmount",
          "type": "uint256"
        },
        {
          "indexed": false,
          "internalType": "uint256",
          "name": "_actualTHUSDAmount",
          "type": "uint256"
        },
        {
          "indexed": false,
          "internalType": "uint256",
          "name": "_collateralSent",
          "type": "uint256"
        },
        {
          "indexed": false,
          "internalType": "uint256",
          "name": "_collateralFee",
          "type": "uint256"
        }
      ],
      "name": "Redemption",
      "type": "event"
    },
    {
      "anonymous": false,
      "inputs": [
        {
          "indexed": false,
          "internalType": "address",
          "name": "_sortedTrovesAddress",
          "type": "address"
        }
      ],
      "name": "SortedTrovesAddressChanged",
      "type": "event"
    },
    {
      "anonymous": false,
      "inputs": [
        {
          "indexed": false,
          "internalType": "address",
          "name": "_stabilityPoolAddress",
          "type": "address"
        }
      ],
      "name": "StabilityPoolAddressChanged",
      "type": "event"
    },
    {
      "anonymous": false,
      "inputs": [
        {
          "indexed": false,
          "internalType": "uint256",
          "name": "_totalStakesSnapshot",
          "type": "uint256"
        },
        {
          "indexed": false,
          "internalType": "uint256",
          "name": "_totalCollateralSnapshot",
          "type": "uint256"
        }
      ],
      "name": "SystemSnapshotsUpdated",
      "type": "event"
    },
    {
      "anonymous": false,
      "inputs": [
        {
          "indexed": false,
          "internalType": "address",
          "name": "_newTHUSDTokenAddress",
          "type": "address"
        }
      ],
      "name": "THUSDTokenAddressChanged",
      "type": "event"
    },
    {
      "anonymous": false,
      "inputs": [
        {
          "indexed": false,
          "internalType": "uint256",
          "name": "_newTotalStakes",
          "type": "uint256"
        }
      ],
      "name": "TotalStakesUpdated",
      "type": "event"
    },
    {
      "anonymous": false,
      "inputs": [
        {
          "indexed": false,
          "internalType": "address",
          "name": "_borrower",
          "type": "address"
        },
        {
          "indexed": false,
          "internalType": "uint256",
          "name": "_newIndex",
          "type": "uint256"
        }
      ],
      "name": "TroveIndexUpdated",
      "type": "event"
    },
    {
      "anonymous": false,
      "inputs": [
        {
          "indexed": true,
          "internalType": "address",
          "name": "_borrower",
          "type": "address"
        },
        {
          "indexed": false,
          "internalType": "uint256",
          "name": "_debt",
          "type": "uint256"
        },
        {
          "indexed": false,
          "internalType": "uint256",
          "name": "_coll",
          "type": "uint256"
        },
        {
          "indexed": false,
          "internalType": "enum TroveManager.TroveManagerOperation",
          "name": "_operation",
          "type": "uint8"
        }
      ],
      "name": "TroveLiquidated",
      "type": "event"
    },
    {
      "anonymous": false,
      "inputs": [
        {
          "indexed": false,
          "internalType": "uint256",
          "name": "_L_Collateral",
          "type": "uint256"
        },
        {
          "indexed": false,
          "internalType": "uint256",
          "name": "_L_THUSDDebt",
          "type": "uint256"
        }
      ],
      "name": "TroveSnapshotsUpdated",
      "type": "event"
    },
    {
      "anonymous": false,
      "inputs": [
        {
          "indexed": true,
          "internalType": "address",
          "name": "_borrower",
          "type": "address"
        },
        {
          "indexed": false,
          "internalType": "uint256",
          "name": "_debt",
          "type": "uint256"
        },
        {
          "indexed": false,
          "internalType": "uint256",
          "name": "_coll",
          "type": "uint256"
        },
        {
          "indexed": false,
          "internalType": "uint256",
          "name": "_stake",
          "type": "uint256"
        },
        {
          "indexed": false,
          "internalType": "enum TroveManager.TroveManagerOperation",
          "name": "_operation",
          "type": "uint8"
        }
      ],
      "name": "TroveUpdated",
      "type": "event"
    },
    {
      "inputs": [],
      "name": "BETA",
      "outputs": [
        {
          "internalType": "uint256",
          "name": "",
          "type": "uint256"
        }
      ],
      "stateMutability": "view",
      "type": "function"
    },
    {
      "inputs": [],
      "name": "BORROWING_FEE_FLOOR",
      "outputs": [
        {
          "internalType": "uint256",
          "name": "",
          "type": "uint256"
        }
      ],
      "stateMutability": "view",
      "type": "function"
    },
    {
      "inputs": [],
      "name": "CCR",
      "outputs": [
        {
          "internalType": "uint256",
          "name": "",
          "type": "uint256"
        }
      ],
      "stateMutability": "view",
      "type": "function"
    },
    {
      "inputs": [],
      "name": "DECIMAL_PRECISION",
      "outputs": [
        {
          "internalType": "uint256",
          "name": "",
          "type": "uint256"
        }
      ],
      "stateMutability": "view",
      "type": "function"
    },
    {
      "inputs": [],
      "name": "L_Collateral",
      "outputs": [
        {
          "internalType": "uint256",
          "name": "",
          "type": "uint256"
        }
      ],
      "stateMutability": "view",
      "type": "function"
    },
    {
      "inputs": [],
      "name": "L_THUSDDebt",
      "outputs": [
        {
          "internalType": "uint256",
          "name": "",
          "type": "uint256"
        }
      ],
      "stateMutability": "view",
      "type": "function"
    },
    {
      "inputs": [],
      "name": "MAX_BORROWING_FEE",
      "outputs": [
        {
          "internalType": "uint256",
          "name": "",
          "type": "uint256"
        }
      ],
      "stateMutability": "view",
      "type": "function"
    },
    {
      "inputs": [],
      "name": "MCR",
      "outputs": [
        {
          "internalType": "uint256",
          "name": "",
          "type": "uint256"
        }
      ],
      "stateMutability": "view",
      "type": "function"
    },
    {
      "inputs": [],
      "name": "MINUTE_DECAY_FACTOR",
      "outputs": [
        {
          "internalType": "uint256",
          "name": "",
          "type": "uint256"
        }
      ],
      "stateMutability": "view",
      "type": "function"
    },
    {
      "inputs": [],
      "name": "MIN_NET_DEBT",
      "outputs": [
        {
          "internalType": "uint256",
          "name": "",
          "type": "uint256"
        }
      ],
      "stateMutability": "view",
      "type": "function"
    },
    {
      "inputs": [],
      "name": "NAME",
      "outputs": [
        {
          "internalType": "string",
          "name": "",
          "type": "string"
        }
      ],
      "stateMutability": "view",
      "type": "function"
    },
    {
      "inputs": [],
      "name": "PERCENT_DIVISOR",
      "outputs": [
        {
          "internalType": "uint256",
          "name": "",
          "type": "uint256"
        }
      ],
      "stateMutability": "view",
      "type": "function"
    },
    {
      "inputs": [],
      "name": "REDEMPTION_FEE_FLOOR",
      "outputs": [
        {
          "internalType": "uint256",
          "name": "",
          "type": "uint256"
        }
      ],
      "stateMutability": "view",
      "type": "function"
    },
    {
      "inputs": [],
      "name": "SECONDS_IN_ONE_MINUTE",
      "outputs": [
        {
          "internalType": "uint256",
          "name": "",
          "type": "uint256"
        }
      ],
      "stateMutability": "view",
      "type": "function"
    },
    {
      "inputs": [],
      "name": "THUSD_GAS_COMPENSATION",
      "outputs": [
        {
          "internalType": "uint256",
          "name": "",
          "type": "uint256"
        }
      ],
      "stateMutability": "view",
      "type": "function"
    },
    {
      "inputs": [
        {
          "internalType": "uint256",
          "name": "",
          "type": "uint256"
        }
      ],
      "name": "TroveOwners",
      "outputs": [
        {
          "internalType": "address",
          "name": "",
          "type": "address"
        }
      ],
      "stateMutability": "view",
      "type": "function"
    },
    {
      "inputs": [
        {
          "internalType": "address",
          "name": "",
          "type": "address"
        }
      ],
      "name": "Troves",
      "outputs": [
        {
          "internalType": "uint256",
          "name": "debt",
          "type": "uint256"
        },
        {
          "internalType": "uint256",
          "name": "coll",
          "type": "uint256"
        },
        {
          "internalType": "uint256",
          "name": "stake",
          "type": "uint256"
        },
        {
          "internalType": "enum TroveManager.Status",
          "name": "status",
          "type": "uint8"
        },
        {
          "internalType": "uint128",
          "name": "arrayIndex",
          "type": "uint128"
        }
      ],
      "stateMutability": "view",
      "type": "function"
    },
    {
      "inputs": [],
      "name": "_100pct",
      "outputs": [
        {
          "internalType": "uint256",
          "name": "",
          "type": "uint256"
        }
      ],
      "stateMutability": "view",
      "type": "function"
    },
    {
      "inputs": [],
      "name": "activePool",
      "outputs": [
        {
          "internalType": "contract IActivePool",
          "name": "",
          "type": "address"
        }
      ],
      "stateMutability": "view",
      "type": "function"
    },
    {
      "inputs": [
        {
          "internalType": "address",
          "name": "_borrower",
          "type": "address"
        }
      ],
      "name": "addTroveOwnerToArray",
      "outputs": [
        {
          "internalType": "uint256",
          "name": "index",
          "type": "uint256"
        }
      ],
      "stateMutability": "nonpayable",
      "type": "function"
    },
    {
      "inputs": [
        {
          "internalType": "address",
          "name": "_borrower",
          "type": "address"
        }
      ],
      "name": "applyPendingRewards",
      "outputs": [],
      "stateMutability": "nonpayable",
      "type": "function"
    },
    {
      "inputs": [],
      "name": "baseRate",
      "outputs": [
        {
          "internalType": "uint256",
          "name": "",
          "type": "uint256"
        }
      ],
      "stateMutability": "view",
      "type": "function"
    },
    {
      "inputs": [
        {
          "internalType": "address[]",
          "name": "_troveArray",
          "type": "address[]"
        }
      ],
      "name": "batchLiquidateTroves",
      "outputs": [],
      "stateMutability": "nonpayable",
      "type": "function"
    },
    {
      "inputs": [],
      "name": "borrowerOperationsAddress",
      "outputs": [
        {
          "internalType": "address",
          "name": "",
          "type": "address"
        }
      ],
      "stateMutability": "view",
      "type": "function"
    },
    {
      "inputs": [
        {
          "internalType": "uint256",
          "name": "_price",
          "type": "uint256"
        }
      ],
      "name": "checkRecoveryMode",
      "outputs": [
        {
          "internalType": "bool",
          "name": "",
          "type": "bool"
        }
      ],
      "stateMutability": "view",
      "type": "function"
    },
    {
      "inputs": [
        {
          "internalType": "address",
          "name": "_borrower",
          "type": "address"
        }
      ],
      "name": "closeTrove",
      "outputs": [],
      "stateMutability": "nonpayable",
      "type": "function"
    },
    {
      "inputs": [],
      "name": "decayBaseRateFromBorrowing",
      "outputs": [],
      "stateMutability": "nonpayable",
      "type": "function"
    },
    {
      "inputs": [
        {
          "internalType": "address",
          "name": "_borrower",
          "type": "address"
        },
        {
          "internalType": "uint256",
          "name": "_collDecrease",
          "type": "uint256"
        }
      ],
      "name": "decreaseTroveColl",
      "outputs": [
        {
          "internalType": "uint256",
          "name": "",
          "type": "uint256"
        }
      ],
      "stateMutability": "nonpayable",
      "type": "function"
    },
    {
      "inputs": [
        {
          "internalType": "address",
          "name": "_borrower",
          "type": "address"
        },
        {
          "internalType": "uint256",
          "name": "_debtDecrease",
          "type": "uint256"
        }
      ],
      "name": "decreaseTroveDebt",
      "outputs": [
        {
          "internalType": "uint256",
          "name": "",
          "type": "uint256"
        }
      ],
      "stateMutability": "nonpayable",
      "type": "function"
    },
    {
      "inputs": [],
      "name": "defaultPool",
      "outputs": [
        {
          "internalType": "contract IDefaultPool",
          "name": "",
          "type": "address"
        }
      ],
      "stateMutability": "view",
      "type": "function"
    },
    {
      "inputs": [
        {
          "internalType": "uint256",
          "name": "_THUSDDebt",
          "type": "uint256"
        }
      ],
      "name": "getBorrowingFee",
      "outputs": [
        {
          "internalType": "uint256",
          "name": "",
          "type": "uint256"
        }
      ],
      "stateMutability": "view",
      "type": "function"
    },
    {
      "inputs": [
        {
          "internalType": "uint256",
          "name": "_THUSDDebt",
          "type": "uint256"
        }
      ],
      "name": "getBorrowingFeeWithDecay",
      "outputs": [
        {
          "internalType": "uint256",
          "name": "",
          "type": "uint256"
        }
      ],
      "stateMutability": "view",
      "type": "function"
    },
    {
      "inputs": [],
      "name": "getBorrowingRate",
      "outputs": [
        {
          "internalType": "uint256",
          "name": "",
          "type": "uint256"
        }
      ],
      "stateMutability": "view",
      "type": "function"
    },
    {
      "inputs": [],
      "name": "getBorrowingRateWithDecay",
      "outputs": [
        {
          "internalType": "uint256",
          "name": "",
          "type": "uint256"
        }
      ],
      "stateMutability": "view",
      "type": "function"
    },
    {
      "inputs": [
        {
          "internalType": "address",
          "name": "_borrower",
          "type": "address"
        },
        {
          "internalType": "uint256",
          "name": "_price",
          "type": "uint256"
        }
      ],
      "name": "getCurrentICR",
      "outputs": [
        {
          "internalType": "uint256",
          "name": "",
          "type": "uint256"
        }
      ],
      "stateMutability": "view",
      "type": "function"
    },
    {
      "inputs": [
        {
          "internalType": "address",
          "name": "_borrower",
          "type": "address"
        }
      ],
      "name": "getEntireDebtAndColl",
      "outputs": [
        {
          "internalType": "uint256",
          "name": "debt",
          "type": "uint256"
        },
        {
          "internalType": "uint256",
          "name": "coll",
          "type": "uint256"
        },
        {
          "internalType": "uint256",
          "name": "pendingTHUSDDebtReward",
          "type": "uint256"
        },
        {
          "internalType": "uint256",
          "name": "pendingCollateralReward",
          "type": "uint256"
        }
      ],
      "stateMutability": "view",
      "type": "function"
    },
    {
      "inputs": [],
      "name": "getEntireSystemColl",
      "outputs": [
        {
          "internalType": "uint256",
          "name": "entireSystemColl",
          "type": "uint256"
        }
      ],
      "stateMutability": "view",
      "type": "function"
    },
    {
      "inputs": [],
      "name": "getEntireSystemDebt",
      "outputs": [
        {
          "internalType": "uint256",
          "name": "entireSystemDebt",
          "type": "uint256"
        }
      ],
      "stateMutability": "view",
      "type": "function"
    },
    {
      "inputs": [
        {
          "internalType": "address",
          "name": "_borrower",
          "type": "address"
        }
      ],
      "name": "getNominalICR",
      "outputs": [
        {
          "internalType": "uint256",
          "name": "",
          "type": "uint256"
        }
      ],
      "stateMutability": "view",
      "type": "function"
    },
    {
      "inputs": [
        {
          "internalType": "address",
          "name": "_borrower",
          "type": "address"
        }
      ],
      "name": "getPendingCollateralReward",
      "outputs": [
        {
          "internalType": "uint256",
          "name": "",
          "type": "uint256"
        }
      ],
      "stateMutability": "view",
      "type": "function"
    },
    {
      "inputs": [
        {
          "internalType": "address",
          "name": "_borrower",
          "type": "address"
        }
      ],
      "name": "getPendingTHUSDDebtReward",
      "outputs": [
        {
          "internalType": "uint256",
          "name": "",
          "type": "uint256"
        }
      ],
      "stateMutability": "view",
      "type": "function"
    },
    {
      "inputs": [
        {
          "internalType": "uint256",
          "name": "_collateralDrawn",
          "type": "uint256"
        }
      ],
      "name": "getRedemptionFeeWithDecay",
      "outputs": [
        {
          "internalType": "uint256",
          "name": "",
          "type": "uint256"
        }
      ],
      "stateMutability": "view",
      "type": "function"
    },
    {
      "inputs": [],
      "name": "getRedemptionRate",
      "outputs": [
        {
          "internalType": "uint256",
          "name": "",
          "type": "uint256"
        }
      ],
      "stateMutability": "view",
      "type": "function"
    },
    {
      "inputs": [],
      "name": "getRedemptionRateWithDecay",
      "outputs": [
        {
          "internalType": "uint256",
          "name": "",
          "type": "uint256"
        }
      ],
      "stateMutability": "view",
      "type": "function"
    },
    {
      "inputs": [
        {
          "internalType": "uint256",
          "name": "_price",
          "type": "uint256"
        }
      ],
      "name": "getTCR",
      "outputs": [
        {
          "internalType": "uint256",
          "name": "",
          "type": "uint256"
        }
      ],
      "stateMutability": "view",
      "type": "function"
    },
    {
      "inputs": [
        {
          "internalType": "address",
          "name": "_borrower",
          "type": "address"
        }
      ],
      "name": "getTroveColl",
      "outputs": [
        {
          "internalType": "uint256",
          "name": "",
          "type": "uint256"
        }
      ],
      "stateMutability": "view",
      "type": "function"
    },
    {
      "inputs": [
        {
          "internalType": "address",
          "name": "_borrower",
          "type": "address"
        }
      ],
      "name": "getTroveDebt",
      "outputs": [
        {
          "internalType": "uint256",
          "name": "",
          "type": "uint256"
        }
      ],
      "stateMutability": "view",
      "type": "function"
    },
    {
      "inputs": [
        {
          "internalType": "uint256",
          "name": "_index",
          "type": "uint256"
        }
      ],
      "name": "getTroveFromTroveOwnersArray",
      "outputs": [
        {
          "internalType": "address",
          "name": "",
          "type": "address"
        }
      ],
      "stateMutability": "view",
      "type": "function"
    },
    {
      "inputs": [],
      "name": "getTroveOwnersCount",
      "outputs": [
        {
          "internalType": "uint256",
          "name": "",
          "type": "uint256"
        }
      ],
      "stateMutability": "view",
      "type": "function"
    },
    {
      "inputs": [
        {
          "internalType": "address",
          "name": "_borrower",
          "type": "address"
        }
      ],
      "name": "getTroveStake",
      "outputs": [
        {
          "internalType": "uint256",
          "name": "",
          "type": "uint256"
        }
      ],
      "stateMutability": "view",
      "type": "function"
    },
    {
      "inputs": [
        {
          "internalType": "address",
          "name": "_borrower",
          "type": "address"
        }
      ],
      "name": "getTroveStatus",
      "outputs": [
        {
          "internalType": "uint256",
          "name": "",
          "type": "uint256"
        }
      ],
      "stateMutability": "view",
      "type": "function"
    },
    {
      "inputs": [
        {
          "internalType": "address",
          "name": "_borrower",
          "type": "address"
        }
      ],
      "name": "hasPendingRewards",
      "outputs": [
        {
          "internalType": "bool",
          "name": "",
          "type": "bool"
        }
      ],
      "stateMutability": "view",
      "type": "function"
    },
    {
      "inputs": [
        {
          "internalType": "address",
          "name": "_borrower",
          "type": "address"
        },
        {
          "internalType": "uint256",
          "name": "_collIncrease",
          "type": "uint256"
        }
      ],
      "name": "increaseTroveColl",
      "outputs": [
        {
          "internalType": "uint256",
          "name": "",
          "type": "uint256"
        }
      ],
      "stateMutability": "nonpayable",
      "type": "function"
    },
    {
      "inputs": [
        {
          "internalType": "address",
          "name": "_borrower",
          "type": "address"
        },
        {
          "internalType": "uint256",
          "name": "_debtIncrease",
          "type": "uint256"
        }
      ],
      "name": "increaseTroveDebt",
      "outputs": [
        {
          "internalType": "uint256",
          "name": "",
          "type": "uint256"
        }
      ],
      "stateMutability": "nonpayable",
      "type": "function"
    },
    {
      "inputs": [],
      "name": "isOwner",
      "outputs": [
        {
          "internalType": "bool",
          "name": "",
          "type": "bool"
        }
      ],
      "stateMutability": "view",
      "type": "function"
    },
    {
      "inputs": [],
      "name": "lastCollateralError_Redistribution",
      "outputs": [
        {
          "internalType": "uint256",
          "name": "",
          "type": "uint256"
        }
      ],
      "stateMutability": "view",
      "type": "function"
    },
    {
      "inputs": [],
      "name": "lastFeeOperationTime",
      "outputs": [
        {
          "internalType": "uint256",
          "name": "",
          "type": "uint256"
        }
      ],
      "stateMutability": "view",
      "type": "function"
    },
    {
      "inputs": [],
      "name": "lastTHUSDDebtError_Redistribution",
      "outputs": [
        {
          "internalType": "uint256",
          "name": "",
          "type": "uint256"
        }
      ],
      "stateMutability": "view",
      "type": "function"
    },
    {
      "inputs": [
        {
          "internalType": "address",
          "name": "_borrower",
          "type": "address"
        }
      ],
      "name": "liquidate",
      "outputs": [],
      "stateMutability": "nonpayable",
      "type": "function"
    },
    {
      "inputs": [
        {
          "internalType": "uint256",
          "name": "_n",
          "type": "uint256"
        }
      ],
      "name": "liquidateTroves",
      "outputs": [],
      "stateMutability": "nonpayable",
      "type": "function"
    },
    {
      "inputs": [],
      "name": "owner",
      "outputs": [
        {
          "internalType": "address",
          "name": "",
          "type": "address"
        }
      ],
      "stateMutability": "view",
      "type": "function"
    },
    {
      "inputs": [],
      "name": "pcv",
      "outputs": [
        {
          "internalType": "contract IPCV",
          "name": "",
          "type": "address"
        }
      ],
      "stateMutability": "view",
      "type": "function"
    },
    {
      "inputs": [],
      "name": "priceFeed",
      "outputs": [
        {
          "internalType": "contract IPriceFeed",
          "name": "",
          "type": "address"
        }
      ],
      "stateMutability": "view",
      "type": "function"
    },
    {
      "inputs": [
        {
          "internalType": "uint256",
          "name": "_THUSDamount",
          "type": "uint256"
        },
        {
          "internalType": "address",
          "name": "_firstRedemptionHint",
          "type": "address"
        },
        {
          "internalType": "address",
          "name": "_upperPartialRedemptionHint",
          "type": "address"
        },
        {
          "internalType": "address",
          "name": "_lowerPartialRedemptionHint",
          "type": "address"
        },
        {
          "internalType": "uint256",
          "name": "_partialRedemptionHintNICR",
          "type": "uint256"
        },
        {
          "internalType": "uint256",
          "name": "_maxIterations",
          "type": "uint256"
        },
        {
          "internalType": "uint256",
          "name": "_maxFeePercentage",
          "type": "uint256"
        }
      ],
      "name": "redeemCollateral",
      "outputs": [],
      "stateMutability": "nonpayable",
      "type": "function"
    },
    {
      "inputs": [
        {
          "internalType": "address",
          "name": "_borrower",
          "type": "address"
        }
      ],
      "name": "removeStake",
      "outputs": [],
      "stateMutability": "nonpayable",
      "type": "function"
    },
    {
      "inputs": [
        {
          "internalType": "address",
          "name": "",
          "type": "address"
        }
      ],
      "name": "rewardSnapshots",
      "outputs": [
        {
          "internalType": "uint256",
          "name": "collateral",
          "type": "uint256"
        },
        {
          "internalType": "uint256",
          "name": "THUSDDebt",
          "type": "uint256"
        }
      ],
      "stateMutability": "view",
      "type": "function"
    },
    {
      "inputs": [
        {
          "internalType": "address",
          "name": "_borrowerOperationsAddress",
          "type": "address"
        },
        {
          "internalType": "address",
          "name": "_activePoolAddress",
          "type": "address"
        },
        {
          "internalType": "address",
          "name": "_defaultPoolAddress",
          "type": "address"
        },
        {
          "internalType": "address",
          "name": "_stabilityPoolAddress",
          "type": "address"
        },
        {
          "internalType": "address",
          "name": "_gasPoolAddress",
          "type": "address"
        },
        {
          "internalType": "address",
          "name": "_collSurplusPoolAddress",
          "type": "address"
        },
        {
          "internalType": "address",
          "name": "_priceFeedAddress",
          "type": "address"
        },
        {
          "internalType": "address",
          "name": "_thusdTokenAddress",
          "type": "address"
        },
        {
          "internalType": "address",
          "name": "_sortedTrovesAddress",
          "type": "address"
        },
        {
          "internalType": "address",
          "name": "_pcvAddress",
          "type": "address"
        }
      ],
      "name": "setAddresses",
      "outputs": [],
      "stateMutability": "nonpayable",
      "type": "function"
    },
    {
      "inputs": [
        {
          "internalType": "address",
          "name": "_borrower",
          "type": "address"
        },
        {
          "internalType": "uint256",
          "name": "_num",
          "type": "uint256"
        }
      ],
      "name": "setTroveStatus",
      "outputs": [],
      "stateMutability": "nonpayable",
      "type": "function"
    },
    {
      "inputs": [],
      "name": "sortedTroves",
      "outputs": [
        {
          "internalType": "contract ISortedTroves",
          "name": "",
          "type": "address"
        }
      ],
      "stateMutability": "view",
      "type": "function"
    },
    {
      "inputs": [],
      "name": "stabilityPool",
      "outputs": [
        {
          "internalType": "contract IStabilityPool",
          "name": "",
          "type": "address"
        }
      ],
      "stateMutability": "view",
      "type": "function"
    },
    {
      "inputs": [],
      "name": "thusdToken",
      "outputs": [
        {
          "internalType": "contract ITHUSDToken",
          "name": "",
          "type": "address"
        }
      ],
      "stateMutability": "view",
      "type": "function"
    },
    {
      "inputs": [],
      "name": "totalCollateralSnapshot",
      "outputs": [
        {
          "internalType": "uint256",
          "name": "",
          "type": "uint256"
        }
      ],
      "stateMutability": "view",
      "type": "function"
    },
    {
      "inputs": [],
      "name": "totalStakes",
      "outputs": [
        {
          "internalType": "uint256",
          "name": "",
          "type": "uint256"
        }
      ],
      "stateMutability": "view",
      "type": "function"
    },
    {
      "inputs": [],
      "name": "totalStakesSnapshot",
      "outputs": [
        {
          "internalType": "uint256",
          "name": "",
          "type": "uint256"
        }
      ],
      "stateMutability": "view",
      "type": "function"
    },
    {
      "inputs": [
        {
          "internalType": "address",
          "name": "newOwner",
          "type": "address"
        }
      ],
      "name": "transferOwnership",
      "outputs": [],
      "stateMutability": "nonpayable",
      "type": "function"
    },
    {
      "inputs": [
        {
          "internalType": "address",
          "name": "_borrower",
          "type": "address"
        }
      ],
      "name": "updateStakeAndTotalStakes",
      "outputs": [
        {
          "internalType": "uint256",
          "name": "",
          "type": "uint256"
        }
      ],
      "stateMutability": "nonpayable",
      "type": "function"
    },
    {
      "inputs": [
        {
          "internalType": "address",
          "name": "_borrower",
          "type": "address"
        }
      ],
      "name": "updateTroveRewardSnapshots",
      "outputs": [],
      "stateMutability": "nonpayable",
      "type": "function"
    }
  ],
  "bytecode": "0x608060405234801561001057600080fd5b50600380546001600160a01b031916339081179091556040516000907f8be0079c531659141344cd1fd0a4f28419497f9722a3daafe3b4186f6b6457e0908290a36154fb806100606000396000f3fe608060405234801561001057600080fd5b506004361061042f5760003560e01c806377e16f1e1161023c578063b91af97c11610146578063d5b35635116100c3578063ee266b8711610087578063ee266b87146109bf578063f2fde38b146109c8578063f36b2425146109db578063f92d343314610554578063fe2ba848146109e357600080fd5b8063d5b3563514610954578063d66a255314610967578063d9a7244414610990578063e2ac77b0146109a3578063e6a91f16146109b657600080fd5b8063cbd138ae1161010a578063cbd138ae14610909578063d293c7101461091c578063d380a37c1461092f578063d38b055814610938578063d3d6f8431461094157600080fd5b8063b91af97c146108a3578063bcd37526146108d6578063bf9befb1146108e9578063c52861f2146108f2578063c7b55481146108fa57600080fd5b806396d711ff116101d4578063a68b663e11610198578063a68b663e1461084e578063ae91875414610857578063b0d8e1811461086a578063b7f8cf9b1461087d578063b82f263d1461089057600080fd5b806396d711ff146107e75780639976cf45146107f05780639ba7a40814610803578063a20baee61461072d578063a3f4df7e1461081657600080fd5b806377e16f1e14610762578063794e572414610775578063795d26c3146107845780637f7dde4a1461078c578063807d138d1461079f57806382fe3eb9146107a8578063887105d3146107bb5780638da5cb5b146107c35780638f32d59b146107d457600080fd5b8063480cd5781161033d578063631203b0116102d55780636ef64338116102995780636ef64338146106c157806372423c171461071a57806372fe25aa1461072d578063741bef1a1461073c578063756b253e1461074f57600080fd5b8063631203b01461065457806364cee26014610667578063653d46e71461069357806366ca4a21146106a65780636c37a4af146106ae57600080fd5b8063480cd578146105b05780634870dd9a146105dc57806349eefeee146105e45780634a3c95c4146105ec5780634e443d9e146105ff5780635733d58f146106225780635d6b480f146106315780635dba4c4a1461064457806361ec893d1461064c57600080fd5b80631f68f20a116103cb5780632b11551a1161038f5780632b11551a1461055c5780632f865568146105645780633cc74225146105775780634597f6ed1461058a578063477d66cf1461059d57600080fd5b80631f68f20a146105205780631fd6a4341461052957806321e3780114610539578063240926691461054c57806328d28b5b1461055457600080fd5b8063048c661d14610434578063071a75411461045d5780630b0765571461047357806312610e921461048857806315d549f11461049b5780631673c79a146104ae57806318f2817a146104ea5780631bf43555146104fd5780631e8b1c2b1461050d575b600080fd5b600554610447906001600160a01b031681565b6040516104549190614eef565b60405180910390f35b610465600281565b604051908152602001610454565b610486610481366004614f28565b6109f6565b005b610465610496366004614f45565b610a1e565b6104656104a9366004614f28565b610a71565b6104d56104bc366004614f28565b6013602052600090815260409020805460019091015482565b60408051928352602083019190915201610454565b6104656104f8366004614f28565b610a93565b610465686194049f30f720000081565b61048661051b366004614f87565b610aa6565b610465600b5481565b610465680ad78ebc5ac620000081565b610465610547366004614f28565b610e47565b610465610e77565b610465610e98565b610465610eac565b610486610572366004614f28565b610ebe565b600154610447906001600160a01b031681565b600954610447906001600160a01b031681565b6104656105ab36600461504c565b610f2a565b6104656105be366004614f28565b6001600160a01b03166000908152600d602052604090206001015490565b61046560c881565b601454610465565b6104656105fa366004614f28565b610f3d565b61061261060d36600461504c565b610ff8565b6040519015158152602001610454565b6104656714d1120d7b16000081565b61048661063f366004614f45565b611003565b61048661105b565b610465603c81565b61046561066236600461504c565b6110c7565b610465610675366004614f28565b6001600160a01b03166000908152600d602052604090206002015490565b6104866106a136600461504c565b6110d4565b61046561144a565b6104866106bc366004615065565b61145c565b6107096106cf366004614f28565b600d6020526000908152604090208054600182015460028301546003909301549192909160ff81169061010090046001600160801b031685565b604051610454959493929190615147565b610465610728366004614f45565b6117bc565b610465670de0b6b3a764000081565b600254610447906001600160a01b031681565b61044761075d36600461504c565b611814565b600854610447906001600160a01b031681565b610465670f43fc2c04ee000081565b61046561183e565b600054610447906001600160a01b031681565b610465600f5481565b6104866107b6366004614f28565b61193a565b61046561194b565b6003546001600160a01b0316610447565b6003546001600160a01b03163314610612565b61046560105481565b6104656107fe366004614f45565b611a10565b610465610811366004614f28565b611a3e565b6108416040518060400160405280600c81526020016b2a3937bb32a6b0b730b3b2b960a11b81525081565b604051610454919061518d565b61046560125481565b600a54610447906001600160a01b031681565b610465610878366004614f28565b611a6a565b600454610447906001600160a01b031681565b61046561089e36600461504c565b611a91565b6108b66108b1366004614f28565b611a9c565b604080519485526020850193909352918301526060820152608001610454565b6104866108e43660046151db565b611af4565b610465600e5481565b610465612228565b610465670ddd4b8c6c7d70d881565b610486610917366004614f28565b61223a565b61046561092a366004614f45565b61224d565b610465600c5481565b61046560155481565b61046561094f366004614f45565b61226c565b61046561096236600461504c565b61229d565b610465610975366004614f28565b6001600160a01b03166000908152600d602052604090205490565b61044761099e36600461504c565b6122b0565b6106126109b1366004614f28565b6122e0565b61046560165481565b61046560115481565b6104866109d6366004614f28565b612343565b6104656123db565b6104866109f1366004614f28565b6123e8565b6109fe6123f9565b600054600154610a1b916001600160a01b0390811691168361247b565b50565b6000610a286123f9565b6001600160a01b0383166000908152600d6020526040812054610a4c90849061525f565b6001600160a01b0385166000908152600d602052604090208190559150505b92915050565b6000610a7b6123f9565b610a8482612577565b6001600160801b031692915050565b6000610a9d6123f9565b610a6b82612610565b8051600003610b1b5760405162461bcd60e51b815260206004820152603660248201527f54726f76654d616e616765723a2043616c6c646174612061646472657373206160448201527572726179206d757374206e6f7420626520656d70747960501b60648201526084015b60405180910390fd5b6000546001546005546001600160a01b03928316929182169116610b3d614e2a565b610b45614e5b565b600260009054906101000a90046001600160a01b03166001600160a01b0316630fdb11cf6040518163ffffffff1660e01b81526004016020604051808303816000875af1158015610b9a573d6000803e3d6000fd5b505050506040513d601f19601f82011682018060405250810190610bbe9190615272565b826000018181525050826001600160a01b03166301081fda6040518163ffffffff1660e01b8152600401602060405180830381865afa158015610c05573d6000803e3d6000fd5b505050506040513d601f19601f82011682018060405250810190610c299190615272565b60208301528151610c39906126b5565b1580156040840152610c6157610c5a8585846000015185602001518a6126d2565b9050610c79565b610c768585846000015185602001518a612907565b90505b6000816020015111610c9d5760405162461bcd60e51b8152600401610b129061528b565b608081015160a082015160405163335525ad60e01b81526001600160a01b0386169263335525ad92610cda92600401918252602082015260400190565b600060405180830381600087803b158015610cf457600080fd5b505af1158015610d08573d6000803e3d6000fd5b50505050610d2085858360c001518460e001516129dc565b61010081015115610d9757600754610100820151604051636250216960e01b81526001600160a01b0388811693636250216993610d649392909116916004016152cd565b600060405180830381600087803b158015610d7e57600080fd5b505af1158015610d92573d6000803e3d6000fd5b505050505b610da5858260400151612c1b565b6020810151606083015261010081015160408201518251610dc6919061525f565b610dd0919061525f565b6080838101829052606080850151604085810151868401518251938452602084019690965290820152908101929092527f4152c73dd2614c4f9fc35e8c9cf16013cd588c75b49a4c1673ecffdcbcda9403910160405180910390a1610e3f853383606001518460400151612d66565b505050505050565b6001600160a01b0381166000908152600d602052604081206003015460ff166004811115610a6b57610a6b615131565b610e8a6064670de0b6b3a76400006152fc565b610e95906005615310565b81565b610e8a6103e8670de0b6b3a76400006152fc565b6000610eb9600b54612e49565b905090565b610ec781612e86565b604080516001808252818301909252600091602080830190803683370190505090508181600081518110610efd57610efd615327565b60200260200101906001600160a01b031690816001600160a01b031681525050610f2681610aa6565b5050565b6000610a6b610f3761144a565b83612f1d565b6001600160a01b0381166000908152601360205260408120546011548290610f6690839061525f565b9050801580610fa5575060016001600160a01b0385166000908152600d602052604090206003015460ff166004811115610fa257610fa2615131565b14155b15610fb4575060009392505050565b6001600160a01b0384166000908152600d602052604081206002015490670de0b6b3a7640000610fe48484615310565b610fee91906152fc565b9695505050505050565b6000610a6b826126b5565b61100b6123f9565b80600481111561101d5761101d615131565b6001600160a01b0383166000908152600d60205260409020600301805460ff1916600183600481111561105257611052615131565b02179055505050565b6110636123f9565b600061106d612f43565b9050670de0b6b3a76400008111156110875761108761533d565b600b8190556040518181527fc454ee9b76c52f782a256af821b857ca6e125d1e3333bcede402fec2bed9600c9060200160405180910390a1610a1b612f87565b6000610a6b610f376123db565b6040805160e081018252600080546001600160a01b0390811683526001548116602084015292820181905260608201819052600a548316608083015260a0820181905260c082015260055490911661112a614e2a565b611132614e5b565b600260009054906101000a90046001600160a01b03166001600160a01b0316630fdb11cf6040518163ffffffff1660e01b81526004016020604051808303816000875af1158015611187573d6000803e3d6000fd5b505050506040513d601f19601f820116820180604052508101906111ab9190615272565b826000018181525050826001600160a01b03166301081fda6040518163ffffffff1660e01b8152600401602060405180830381865afa1580156111f2573d6000803e3d6000fd5b505050506040513d601f19601f820116820180604052508101906112169190615272565b60208301528151611226906126b5565b158015604084015261124d57611246848360000151846020015188612fde565b905061126d565b61126a84600001518560200151846000015185602001518961336a565b90505b60008160200151116112915760405162461bcd60e51b8152600401610b129061528b565b608081015160a082015160405163335525ad60e01b81526001600160a01b0386169263335525ad926112ce92600401918252602082015260400190565b600060405180830381600087803b1580156112e857600080fd5b505af11580156112fc573d6000803e3d6000fd5b5050505061131c846000015185602001518360c001518460e001516129dc565b61010081015115611393578351600754610100830151604051636250216960e01b81526001600160a01b0393841693636250216993611360939116916004016152cd565b600060405180830381600087803b15801561137a57600080fd5b505af115801561138e573d6000803e3d6000fd5b505050505b6113a584600001518260400151612c1b565b60208101516060830152610100810151604082015182516113c6919061525f565b6113d0919061525f565b6080838101829052606080850151604085810151868401518251938452602084019690965290820152908101929092527f4152c73dd2614c4f9fc35e8c9cf16013cd588c75b49a4c1673ecffdcbcda9403910160405180910390a161144384600001513383606001518460400151612d66565b5050505050565b6000610eb9611457612f43565b6134a0565b6003546001600160a01b031633146114865760405162461bcd60e51b8152600401610b1290615353565b61148f8a6134f2565b611498896134f2565b6114a1886134f2565b6114aa876134f2565b6114b3866134f2565b6114bc856134f2565b6114c5846134f2565b6114ce836134f2565b6114d7826134f2565b6001600160a01b038116156114ef576114ef816134f2565b600480546001600160a01b03199081166001600160a01b038d8116919091179092556000805482168c84161790556001805482168b84161790556005805482168a8416179055600680548216898416179055600780548216888416179055600280548216878416179055600880548216868416179055600a80548216858416179055600980549091169183169190911790556040517f3ca631ffcd2a9b5d9ae18543fc82f58eb4ca33af9e6ab01b7a8e95331e6ed985906115b1908c90614eef565b60405180910390a17f78f058b189175430c48dc02699e3a0031ea4ff781536dc2fab847de4babdd882896040516115e89190614eef565b60405180910390a17f5ee0cae2f063ed938bb55046f6a932fb6ae792bf43624806bb90abe68a50be9b8860405161161f9190614eef565b60405180910390a17f82966d27eea39b038ee0fa30cd16532bb24f6e65d31cb58fb227aa5766cdcc7f876040516116569190614eef565b60405180910390a17fcfb07d791fcafc032b35837b50eb84b74df518cf4cc287e8084f47630fa70fa08660405161168d9190614eef565b60405180910390a17fe67f36a6e961157d6eff83b91f3af5a62131ceb6f04954ef74f51c1c05e7f88d856040516116c49190614eef565b60405180910390a17f8c537274438aa850a330284665d81a85dd38267d09e4050d416bfc94142db264846040516116fb9190614eef565b60405180910390a17fe1e858a66c0bbbcdfa22d58dde1e5d42370be20cdb176e560287f85412e546e0836040516117329190614eef565b60405180910390a17f65f4cf077bc01e4742eb5ad98326f6e95b63548ea24b17f8d5e823111fe78800826040516117699190614eef565b60405180910390a17f38335c64466e2376ab931166337e19127650d842036ebe01da1ba3e5c1255ebb816040516117a09190614eef565b60405180910390a16117b0613597565b50505050505050505050565b60006117c66123f9565b6001600160a01b0383166000908152600d60205260408120600101546117ed908490615388565b6001600160a01b0385166000908152600d6020526040902060010181905591505092915050565b6014818154811061182457600080fd5b6000918252602090912001546001600160a01b0316905081565b600080546040805163f07424e960e01b8152905183926001600160a01b03169163f07424e99160048083019260209291908290030181865afa158015611888573d6000803e3d6000fd5b505050506040513d601f19601f820116820180604052508101906118ac9190615272565b90506000600160009054906101000a90046001600160a01b03166001600160a01b031663f07424e96040518163ffffffff1660e01b8152600401602060405180830381865afa158015611903573d6000803e3d6000fd5b505050506040513d601f19601f820116820180604052508101906119279190615272565b90506119338183615388565b9250505090565b6119426123f9565b610a1b816135e1565b6000805460408051631529a63960e01b8152905183926001600160a01b031691631529a6399160048083019260209291908290030181865afa158015611995573d6000803e3d6000fd5b505050506040513d601f19601f820116820180604052508101906119b99190615272565b90506000600160009054906101000a90046001600160a01b03166001600160a01b0316631529a6396040518163ffffffff1660e01b8152600401602060405180830381865afa158015611903573d6000803e3d6000fd5b6000611a1a6123f9565b6001600160a01b0383166000908152600d6020526040812054610a4c908490615388565b6001600160a01b0381166000908152601360205260408120600101546012548290610f6690839061525f565b6000806000611a7884613645565b915091506000611a8883836136c1565b95945050505050565b6000610a6b826136f7565b6001600160a01b0381166000908152600d602052604081208054600190910154909180611ac885611a3e565b9150611ad385610f3d565b9050611adf8285615388565b9350611aeb8184615388565b92509193509193565b6040805160e08082018352600080546001600160a01b03908116845260015481166020808601919091526008548216858701526009548216606080870191909152600a548316608080880191909152600754841660a08089019190915260065490941660c080890191909152885161010081018a5286815293840186905297830185905290820184905281018390529081018290529384018190529083015290611b9d83613723565b600260009054906101000a90046001600160a01b03166001600160a01b0316630fdb11cf6040518163ffffffff1660e01b81526004016020604051808303816000875af1158015611bf2573d6000803e3d6000fd5b505050506040513d601f19601f82011682018060405250810190611c169190615272565b60c08201819052611c26906137be565b611c2f89613831565b611c3e8260400151338b613898565b611c4661183e565b60e0820181905260408084015190516370a0823160e01b81526001600160a01b03909116906370a0823190611c7f903390600401614eef565b602060405180830381865afa158015611c9c573d6000803e3d6000fd5b505050506040513d601f19601f82011682018060405250810190611cc09190615272565b1115611cce57611cce61533d565b888152608082015160c0820151600091611ce9918b90613993565b15611cf5575087611e07565b82608001516001600160a01b0316634d6228316040518163ffffffff1660e01b8152600401602060405180830381865afa158015611d37573d6000803e3d6000fd5b505050506040513d601f19601f82011682018060405250810190611d5b919061539b565b90505b6001600160a01b03811615801590611d8a5750670f43fc2c04ee0000611d88828460c0015161224d565b105b15611e075782608001516001600160a01b031663b72703ac826040518263ffffffff1660e01b8152600401611dbf9190614eef565b602060405180830381865afa158015611ddc573d6000803e3d6000fd5b505050506040513d601f19601f82011682018060405250810190611e00919061539b565b9050611d5e565b84600003611e155760001994505b6001600160a01b03811615801590611e2d5750815115155b8015611e395750600085115b15611f4c5784611e48816153b8565b955050600083608001516001600160a01b031663b72703ac836040518263ffffffff1660e01b8152600401611e7d9190614eef565b602060405180830381865afa158015611e9a573d6000803e3d6000fd5b505050506040513d601f19601f82011682018060405250810190611ebe919061539b565b9050611ed3846000015185602001518461247b565b6000611eec858486600001518760c001518e8e8e613add565b9050806040015115611eff575050611f4c565b8051602085018051611f12908390615388565b9052506020810151604085018051611f2b908390615388565b905250805184518590611f3f90839061525f565b905250909150611e159050565b6000826040015111611fb25760405162461bcd60e51b815260206004820152602960248201527f54726f76654d616e616765723a20556e61626c6520746f2072656465656d20616044820152681b9e48185b5bdd5b9d60ba1b6064820152608401610b12565b611fc982604001518360c001518460e00151613d6b565b50611fd78260400151613e0e565b606083018190526040830151611fee919086613e1b565b60608301516001600160a01b03161561206d57825160608085015190840151604051636250216960e01b81526001600160a01b039093169263625021699261203a9290916004016152cd565b600060405180830381600087803b15801561205457600080fd5b505af1158015612068573d6000803e3d6000fd5b505050505b81606001518260400151612081919061525f565b60808301526020820151604080840151606085015191517f43a3f4082a4dbc33d78e317d2497d3a730bc7fc3574159dcea1056e62e5d9ad8936120dd938f93919293845260208401929092526040830152606082015260800190565b60405180910390a182604001516001600160a01b0316639dc29fac3384602001516040518363ffffffff1660e01b815260040161211b9291906152cd565b600060405180830381600087803b15801561213557600080fd5b505af1158015612149573d6000803e3d6000fd5b505084516020850151604051637b7fc9eb60e11b81526001600160a01b03909216935063f6ff93d692506121839160040190815260200190565b600060405180830381600087803b15801561219d57600080fd5b505af11580156121b1573d6000803e3d6000fd5b505084516080850151604051636250216960e01b81526001600160a01b039092169350636250216992506121ea913391906004016152cd565b600060405180830381600087803b15801561220457600080fd5b505af1158015612218573d6000803e3d6000fd5b5050505050505050505050505050565b6000610eb9612235612f43565b612e49565b6122426123f9565b610a1b816002613e8c565b600080600061225b85613645565b915091506000610fee838387614033565b60006122766123f9565b6001600160a01b0383166000908152600d60205260408120600101546117ed90849061525f565b6000610a6b6122aa612228565b83614064565b6000601482815481106122c5576122c5615327565b6000918252602090912001546001600160a01b031692915050565b600060016001600160a01b0383166000908152600d602052604090206003015460ff16600481111561231457612314615131565b1461232157506000919050565b506011546001600160a01b039091166000908152601360205260409020541090565b6003546001600160a01b0316331461236d5760405162461bcd60e51b8152600401610b1290615353565b6001600160a01b0381166123d25760405162461bcd60e51b815260206004820152602660248201527f4f776e61626c653a206e6577206f776e657220697320746865207a65726f206160448201526564647265737360d01b6064820152608401610b12565b610a1b816140f4565b6000610eb9600b546134a0565b6123f06123f9565b610a1b81614146565b6004546001600160a01b031633146124795760405162461bcd60e51b815260206004820152603b60248201527f54726f76654d616e616765723a2043616c6c6572206973206e6f74207468652060448201527f426f72726f7765724f7065726174696f6e7320636f6e747261637400000000006064820152608401610b12565b565b612484816122e0565b156125725761249281612e86565b600061249d82610f3d565b905060006124aa83611a3e565b6001600160a01b0384166000908152600d60205260408120600101805492935084929091906124da908490615388565b90915550506001600160a01b0383166000908152600d602052604081208054839290612507908490615388565b909155506125169050836135e1565b61252285858385614198565b6001600160a01b0383166000818152600d60205260408082208054600182015460029092015492516000805160206154a68339815191529461256794929392916153e3565b60405180910390a250505b505050565b601480546001808201835560008381527fce6d7b5282bd9a3661ae061feed1dbda4e52ab073b1f9285be6e155d9c38d4ec90920180546001600160a01b0319166001600160a01b038616179055915490916125d19161525f565b6001600160a01b03929092166000908152600d602052604090206003018054610100600160881b0319166101006001600160801b038516021790555090565b6001600160a01b0381166000908152600d6020526040812060010154819061263790614279565b6001600160a01b0384166000908152600d60205260409020600201805490829055600e5491925090829061266c90839061525f565b6126769190615388565b600e8190556040519081527f6bac5e0eb3c44eb03a60ab11ec3a2c051771616aecadbcfff2630aabae5203829060200160405180910390a15092915050565b6000806126c1836136f7565b6714d1120d7b160000119392505050565b6126da614e5b565b6126e2614ea7565b6126ea614e5b565b848252600060808301526126fc61183e565b60a083015261270961194b565b60c0830152600060208301525b8351826020015110156128fc578382602001518151811061273957612739615327565b6020908102919091018101516001600160a01b0316606084018190526000908152600d909152604090206003015460019060ff16600481111561277e5761277e615131565b036128e45761279182606001518761224d565b6040830152608082015161288757670f43fc2c04ee00008260400151101580156127ba57508151155b6128e45760006127d38360c001518460a0015189614033565b90506127f08989856060015186604001518760000151868d6142af565b9150816080015183600001818151612808919061525f565b905250608082015160a08401805161282190839061525f565b905250610100820151604083015160a084015161283e9190615388565b6128489190615388565b8360c001818151612859919061525f565b90525061286684836145aa565b935061287b8360c001518460a0015189614694565b156080840152506128e4565b816080015180156128a35750670f43fc2c04ee00008260400151105b156128e4576128bc8888846060015185600001516146b5565b90508060800151826000018181516128d4919061525f565b9052506128e183826145aa565b92505b602082018051906128f482615405565b905250612716565b505095945050505050565b61290f614e5b565b612917614ea7565b61291f614e5b565b848252600060208301525b8351826020015110156128fc578382602001518151811061294d5761294d615327565b60209081029190910101516001600160a01b031660608301819052612972908761224d565b60408301819052670f43fc2c04ee000011156129c45761299c8888846060015185600001516146b5565b90508060800151826000018181516129b4919061525f565b9052506129c183826145aa565b92505b602082018051906129d482615405565b90525061292a565b8115612c15576015546000906129fa670de0b6b3a764000084615310565b612a049190615388565b90506000601654670de0b6b3a764000085612a1f9190615310565b612a299190615388565b90506000600e5483612a3b91906152fc565b90506000600e5483612a4d91906152fc565b9050600e5482612a5d9190615310565b612a67908561525f565b601555600e54612a779082615310565b612a81908461525f565b6016819055508160116000828254612a999190615388565b925050819055508060126000828254612ab29190615388565b90915550506011546012546040517f9f8bc8ab0daf5bceef75ecfd2085d1fcc6548c657ea970d9a23a60610d0737e392612af492908252602082015260400190565b60405180910390a1604051637b7fc9eb60e11b8152600481018790526001600160a01b0389169063f6ff93d690602401600060405180830381600087803b158015612b3e57600080fd5b505af1158015612b52573d6000803e3d6000fd5b50506040516342c31a2360e01b8152600481018990526001600160a01b038a1692506342c31a239150602401600060405180830381600087803b158015612b9857600080fd5b505af1158015612bac573d6000803e3d6000fd5b5050604051636250216960e01b81526001600160a01b038b16925063625021699150612bde908a9089906004016152cd565b600060405180830381600087803b158015612bf857600080fd5b505af1158015612c0c573d6000803e3d6000fd5b50505050505050505b50505050565b600e54600f819055506000826001600160a01b0316631529a6396040518163ffffffff1660e01b8152600401602060405180830381865afa158015612c64573d6000803e3d6000fd5b505050506040513d601f19601f82011682018060405250810190612c889190615272565b90506000600160009054906101000a90046001600160a01b03166001600160a01b0316631529a6396040518163ffffffff1660e01b8152600401602060405180830381865afa158015612cdf573d6000803e3d6000fd5b505050506040513d601f19601f82011682018060405250810190612d039190615272565b905080612d10848461525f565b612d1a9190615388565b6010819055600f546040517f51bf4c63ec3cba9d03d43238abbdd979dd91bd16d9895c74ceea9118c7baaf6092612d58928252602082015260400190565b60405180910390a150505050565b8115612ddd57600854600654604051631062c15f60e11b81526001600160a01b0391821660048201528582166024820152604481018590529116906320c582be90606401600060405180830381600087803b158015612dc457600080fd5b505af1158015612dd8573d6000803e3d6000fd5b505050505b8015612c1557604051636250216960e01b81526001600160a01b03851690636250216990612e1190869085906004016152cd565b600060405180830381600087803b158015612e2b57600080fd5b505af1158015612e3f573d6000803e3d6000fd5b5050505050505050565b6000610a6b82612e636103e8670de0b6b3a76400006152fc565b612e6e906005615310565b612e789190615388565b670de0b6b3a76400006147fc565b60016001600160a01b0382166000908152600d602052604090206003015460ff166004811115612eb857612eb8615131565b14610a1b5760405162461bcd60e51b815260206004820152602f60248201527f54726f76654d616e616765723a2054726f766520646f6573206e6f742065786960448201526e1cdd081bdc881a5cc818db1bdcd959608a1b6064820152608401610b12565b6000670de0b6b3a7640000612f328385615310565b612f3c91906152fc565b9392505050565b600080612f4e614812565b90506000612f64670ddd4b8c6c7d70d88361482e565b9050670de0b6b3a764000081600b54612f7d9190615310565b61193391906152fc565b6000600c5442612f97919061525f565b9050603c8110610a1b5742600c8190556040519081527f860f8d2f0c74dd487e89e2883e3b25b8159ce1e1b3433a291cba7b82c508f3bc906020015b60405180910390a150565b612fe6614e5b565b612fee614ea7565b612ff6614e5b565b8482526000608083015261300861183e565b60a083015261301561194b565b8260c001818152505086608001516001600160a01b0316634d6228316040518163ffffffff1660e01b8152600401602060405180830381865afa158015613060573d6000803e3d6000fd5b505050506040513d601f19601f82011682018060405250810190613084919061539b565b82606001906001600160a01b031690816001600160a01b031681525050600087608001516001600160a01b0316631e2231436040518163ffffffff1660e01b8152600401602060405180830381865afa1580156130e5573d6000803e3d6000fd5b505050506040513d601f19601f82011682018060405250810190613109919061539b565b6000602085015290505b84836020015110801561313c5750806001600160a01b031683606001516001600160a01b031614155b1561335f5760808801516060840151604051632dc9c0eb60e21b81526000926001600160a01b03169163b72703ac916131789190600401614eef565b602060405180830381865afa158015613195573d6000803e3d6000fd5b505050506040513d601f19601f820116820180604052508101906131b9919061539b565b90506131c984606001518961224d565b604085015260808401516132ca57670f43fc2c04ee00008460400151101580156131f257508351155b156131fd575061335f565b60006132128560c001518660a001518b614033565b8a5160208c015160608801516040890151895194955061323394868f6142af565b935083608001518560000181815161324b919061525f565b905250608084015160a08601805161326490839061525f565b905250610100840151604085015160a08601516132819190615388565b61328b9190615388565b8560c00181815161329c919061525f565b9052506132a986856145aa565b95506132be8560c001518660a001518b614694565b15608086015250613339565b836080015180156132e65750670f43fc2c04ee00008460400151105b156133335761330789600001518a60200151866060015187600001516146b5565b925082608001518460000181815161331f919061525f565b90525061332c85846145aa565b9450613339565b5061335f565b6001600160a01b031660608401526020830180519061335782615405565b905250613113565b505050949350505050565b613372614e5b565b61337a614ea7565b613382614e5b565b600a54858352600060208401526001600160a01b03165b848360200151101561349457806001600160a01b0316634d6228316040518163ffffffff1660e01b8152600401602060405180830381865afa1580156133e3573d6000803e3d6000fd5b505050506040513d601f19601f82011682018060405250810190613407919061539b565b6001600160a01b031660608401819052613421908861224d565b60408401819052670f43fc2c04ee000011156134775761344b8989856060015186600001516146b5565b9150816080015183600001818151613463919061525f565b90525061347084836145aa565b935061347c565b613494565b6020830180519061348c82615405565b905250613399565b50505095945050505050565b6000610a6b826134ba6103e8670de0b6b3a76400006152fc565b6134c5906005615310565b6134cf9190615388565b6134e26064670de0b6b3a76400006152fc565b6134ed906005615310565b6147fc565b6001600160a01b0381166135485760405162461bcd60e51b815260206004820152601e60248201527f4163636f756e742063616e6e6f74206265207a65726f206164647265737300006044820152606401610b12565b803b80610f265760405162461bcd60e51b815260206004820181905260248201527f4163636f756e7420636f64652073697a652063616e6e6f74206265207a65726f6044820152606401610b12565b6003546040516000916001600160a01b0316907f8be0079c531659141344cd1fd0a4f28419497f9722a3daafe3b4186f6b6457e0908390a3600380546001600160a01b0319169055565b601180546001600160a01b038316600090815260136020526040908190209182556012546001909201829055915491517fc437f324d85e369394148dd9d62f98f534b382e01ed3dd2eb98138fb6d3ab49a92612fd392908252602082015260400190565b600080600061365384610f3d565b9050600061366085611a3e565b6001600160a01b0386166000908152600d60205260408120600101549192509061368b908490615388565b6001600160a01b0387166000908152600d6020526040812054919250906136b3908490615388565b919791965090945050505050565b600081156136ee57816136dd68056bc75e2d6310000085615310565b6136e791906152fc565b9050610a6b565b50600019610a6b565b60008061370261194b565b9050600061370e61183e565b905061371b828286614033565b949350505050565b6137376103e8670de0b6b3a76400006152fc565b613742906005615310565b81101580156137595750670de0b6b3a76400008111155b610a1b5760405162461bcd60e51b815260206004820152603060248201527f4d6178206665652070657263656e74616765206d75737420626520626574776560448201526f656e20302e352520616e64203130302560801b6064820152608401610b12565b670f43fc2c04ee00006137d0826136f7565b1015610a1b5760405162461bcd60e51b815260206004820152602a60248201527f54726f76654d616e616765723a2043616e6e6f742072656465656d207768656e604482015269102a21a9101e1026a1a960b11b6064820152608401610b12565b60008111610a1b5760405162461bcd60e51b815260206004820152602e60248201527f54726f76654d616e616765723a20416d6f756e74206d7573742062652067726560448201526d61746572207468616e207a65726f60901b6064820152608401610b12565b6040516370a0823160e01b815281906001600160a01b038516906370a08231906138c6908690600401614eef565b602060405180830381865afa1580156138e3573d6000803e3d6000fd5b505050506040513d601f19601f820116820180604052508101906139079190615272565b10156125725760405162461bcd60e51b815260206004820152604f60248201527f54726f76654d616e616765723a2052657175657374656420726564656d70746960448201527f6f6e20616d6f756e74206d757374206265203c3d20757365722773205448555360648201526e4420746f6b656e2062616c616e636560881b608482015260a401610b12565b60006001600160a01b0383161580613a155750604051630bb7c8fd60e31b81526001600160a01b03851690635dbe47e8906139d2908690600401614eef565b602060405180830381865afa1580156139ef573d6000803e3d6000fd5b505050506040513d601f19601f82011682018060405250810190613a13919061541e565b155b80613a305750670f43fc2c04ee0000613a2e848461224d565b105b15613a3d57506000612f3c565b60405163765e015960e01b81526000906001600160a01b0386169063765e015990613a6c908790600401614eef565b602060405180830381865afa158015613a89573d6000803e3d6000fd5b505050506040513d601f19601f82011682018060405250810190613aad919061539b565b90506001600160a01b0381161580611a885750670f43fc2c04ee0000613ad3828561224d565b1095945050505050565b613b03604051806060016040528060008152602001600081526020016000151581525090565b6001600160a01b0387166000908152600d6020526040902054613b369087906134ed90680ad78ebc5ac62000009061525f565b8082528590613b4e90670de0b6b3a764000090615310565b613b5891906152fc565b60208083019190915281516001600160a01b0389166000908152600d9092526040822054613b86919061525f565b6020808401516001600160a01b038b166000908152600d90925260408220600101549293509091613bb7919061525f565b9050680ad78ebc5ac62000008203613c2f57613bd289614146565b613bdd896004613e8c565b613bf28a8a680ad78ebc5ac6200000846148d9565b886001600160a01b03166000805160206154a683398151915260008060006003604051613c2294939291906153e3565b60405180910390a2613d5d565b6000613c3b82846136c1565b90508481141580613c5c5750686194049f30f7200000613c5a84614a38565b105b15613c705750506001604083015250613d60565b60808b015160405163015f109360e51b81526001600160a01b038c81166004830152602482018490528981166044830152888116606483015290911690632be2126090608401600060405180830381600087803b158015613cd057600080fd5b505af1158015613ce4573d6000803e3d6000fd5b5050506001600160a01b038b166000908152600d6020526040902084815560010183905550613d128a612610565b506001600160a01b038a166000818152600d6020526040908190206002015490516000805160206154a683398151915291613d5391879187916003906153e3565b60405180910390a2505b50505b979650505050505050565b600080613d76612f43565b9050600083613d858688615310565b613d8f91906152fc565b90506000613d9e6002836152fc565b613da89084615388565b9050613dbc81670de0b6b3a76400006147fc565b905060008111613dce57613dce61533d565b600b8190556040518181527fc454ee9b76c52f782a256af821b857ca6e125d1e3333bcede402fec2bed9600c9060200160405180910390a1610fee612f87565b6000610a6b6122aa610eac565b600082613e30670de0b6b3a764000086615310565b613e3a91906152fc565b905081811115612c155760405162461bcd60e51b815260206004820152601d60248201527f4665652065786365656465642070726f7669646564206d6178696d756d0000006044820152606401610b12565b6000816004811115613ea057613ea0615131565b14158015613ec057506001816004811115613ebd57613ebd615131565b14155b613ecc57613ecc61533d565b60145460085460048054604051635f7a196360e11b81526001600160a01b039384169363bef432c693613f03939091169101614eef565b602060405180830381865afa158015613f20573d6000803e3d6000fd5b505050506040513d601f19601f82011682018060405250810190613f44919061541e565b15613f5257613f5281614a4d565b6001600160a01b0383166000908152600d60205260409020600301805483919060ff19166001836004811115613f8a57613f8a615131565b02179055506001600160a01b0383166000908152600d60209081526040808320600180820185905590849055601390925282208281550155613fcc8382614b27565b600a54604051631484968760e11b81526001600160a01b03909116906329092d0e90613ffc908690600401614eef565b600060405180830381600087803b15801561401657600080fd5b505af115801561402a573d6000803e3d6000fd5b50505050505050565b6000821561405b576000836140488487615310565b61405291906152fc565b9150612f3c9050565b50600019612f3c565b600080670de0b6b3a764000061407a8486615310565b61408491906152fc565b9050828110612f3c5760405162461bcd60e51b815260206004820152603660248201527f54726f76654d616e616765723a2046656520776f756c642065617420757020616044820152751b1b081c995d1d5c9b99590818dbdb1b185d195c985b60521b6064820152608401610b12565b600380546001600160a01b038381166001600160a01b0319831681179093556040519116919082907f8be0079c531659141344cd1fd0a4f28419497f9722a3daafe3b4186f6b6457e090600090a35050565b6001600160a01b0381166000908152600d6020526040812060020154600e80549192839261417590849061525f565b9091555050506001600160a01b03166000908152600d6020526040812060020155565b604051637b7fc9eb60e11b8152600481018390526001600160a01b0384169063f6ff93d690602401600060405180830381600087803b1580156141da57600080fd5b505af11580156141ee573d6000803e3d6000fd5b50506040516342c31a2360e01b8152600481018590526001600160a01b03871692506342c31a239150602401600060405180830381600087803b15801561423457600080fd5b505af1158015614248573d6000803e3d6000fd5b5050604051633ef8ba8160e11b8152600481018490526001600160a01b0386169250637df175029150602401612e11565b60008060105460000361428d575081610a6b565b6000600f541161429f5761429f61533d565b601054600f54612f329085615310565b6142b7614e5b565b6142db60405180606001604052806000815260200160008152602001600081525090565b6014546001106142eb5750613d60565b6142f487611a9c565b6040850152602084810191909152840181905290835261431390614cf7565b60408301819052680ad78ebc5ac620000060608401526020830151614338919061525f565b8152670de0b6b3a764000086116144035761435d898983602001518460400151614198565b61436687614146565b60006080830181905260a0830152815160c0830152805160e083015261438d876003613e8c565b815160208301516040516001600160a01b038a1692600080516020615486833981519152926143be92600290615440565b60405180910390a2866001600160a01b03166000805160206154a6833981519152600080600060026040516143f694939291906153e3565b60405180910390a261459e565b670de0b6b3a7640000861180156144215750670f43fc2c04ee000086105b156144715761443a898983602001518460400151614198565b61444387614146565b81518151614452919087614d04565b60e086015260c085015260a0840152608083015261438d876003613e8c565b670f43fc2c04ee0000861015801561448857508386105b8015614495575081518510155b1561458d576144ae898983602001518460400151614198565b846000036144be576144be61533d565b6144c787614146565b6144da8260000151836020015185614d65565b91506144e7876003613e8c565b6101008201511561455c57600754610100830151604051633f10abab60e01b81526001600160a01b0390921691633f10abab91614529918b91906004016152cd565b600060405180830381600087803b15801561454357600080fd5b505af1158015614557573d6000803e3d6000fd5b505050505b815160a08301516040516001600160a01b038a1692600080516020615486833981519152926143be92600290615440565b614595614e5b565b9150613d609050565b50979650505050505050565b6145b2614e5b565b816040015183604001516145c69190615388565b6040820152606080830151908401516145df9190615388565b6060820152815160208401516145f59190615388565b602080830191909152820151835161460d9190615388565b8152608080830151908401516146239190615388565b608082015260a0808301519084015161463c9190615388565b60a082015260c080830151908401516146559190615388565b60c082015260e0808301519084015161466e9190615388565b60e082015261010080830151908401516146889190615388565b61010082015292915050565b6000806146a2858585614033565b6714d1120d7b1600001195945050505050565b6146bd614e5b565b6146e160405180606001604052806000815260200160008152602001600081525090565b6146ea84611a9c565b60408501908152602085810192835286019290925291845290519051614714918891889190614198565b61471d84614146565b61472a8260200151614cf7565b60408301819052680ad78ebc5ac6200000606084015260208301516000916147519161525f565b905061476283600001518286614d04565b60e087015260c086015260a08501526080840152614781856003613e8c565b825160208401516040516001600160a01b03881692600080516020615486833981519152926147b292600190615440565b60405180910390a2846001600160a01b03166000805160206154a6833981519152600080600060016040516147ea94939291906153e3565b60405180910390a25050949350505050565b600081831061480b5781612f3c565b5090919050565b6000603c600c5442614824919061525f565b610eb991906152fc565b6000631f54050082111561484457631f54050091505b8160000361485b5750670de0b6b3a7640000610a6b565b670de0b6b3a764000083835b60018111156148cf5761487b60028261545b565b6000036148a05761488c8283614df3565b91506148996002826152fc565b9050614867565b6148aa8284614df3565b92506148b68283614df3565b915060026148c560018361525f565b61489991906152fc565b610fee8284614df3565b6040808501516006549151632770a7eb60e21b81526001600160a01b0391821692639dc29fac926149119291169086906004016152cd565b600060405180830381600087803b15801561492b57600080fd5b505af115801561493f573d6000803e3d6000fd5b50508551604051637b7fc9eb60e11b8152600481018690526001600160a01b03909116925063f6ff93d69150602401600060405180830381600087803b15801561498857600080fd5b505af115801561499c573d6000803e3d6000fd5b505050508360a001516001600160a01b0316633f10abab84836040518363ffffffff1660e01b81526004016149d29291906152cd565b600060405180830381600087803b1580156149ec57600080fd5b505af1158015614a00573d6000803e3d6000fd5b5050855160a0870151604051636250216960e01b81526001600160a01b03909216935063625021699250612e119185906004016152cd565b6000610a6b680ad78ebc5ac62000008361525f565b600181118015614ac85750600a546040805163de8fa43160e01b815290516001926001600160a01b03169163de8fa4319160048083019260209291908290030181865afa158015614aa2573d6000803e3d6000fd5b505050506040513d601f19601f82011682018060405250810190614ac69190615272565b115b610a1b5760405162461bcd60e51b815260206004820152602a60248201527f54726f76654d616e616765723a204f6e6c79206f6e652074726f766520696e206044820152697468652073797374656d60b01b6064820152608401610b12565b6001600160a01b0382166000908152600d602052604081206003015460ff1690816004811115614b5957614b59615131565b14158015614b7957506001816004811115614b7657614b76615131565b14155b614b8557614b8561533d565b6001600160a01b0383166000908152600d602052604081206003015461010090046001600160801b0316908390614bbd60018361525f565b905080836001600160801b03161115614bd857614bd861533d565b600060148281548110614bed57614bed615327565b600091825260209091200154601480546001600160a01b03909216925082916001600160801b038716908110614c2557614c25615327565b600091825260208083209190910180546001600160a01b0319166001600160a01b03948516179055918316808252600d83526040918290206003018054610100600160881b0319166101006001600160801b038a16908102919091179091558251918252928101929092527f02b04ae5f7be9ca7c103293a2aa15f3c339d15d6eda53b721fef7b0e609c831a910160405180910390a16014805480614ccc57614ccc61546f565b600082815260209020810160001990810180546001600160a01b031916905501905550505050505050565b6000610a6b60c8836152fc565b60008080808415614d4f57614d1987866147fc565b935086614d268588615310565b614d3091906152fc565b9250614d3c848861525f565b9150614d48838761525f565b9050614d5c565b5060009250829150859050845b93509350935093565b614d6d614e5b565b83815260208101839052600082614d8c670f43fc2c04ee000087615310565b614d9691906152fc565b9050614da181614cf7565b60408301819052680ad78ebc5ac6200000606084015260808301869052614dc8908261525f565b60a0830152614dd7818561525f565b61010083015250600060c0820181905260e08201529392505050565b600080614e008385615310565b9050670de0b6b3a7640000614e166002826152fc565b614e209083615388565b61371b91906152fc565b6040518060a00160405280600081526020016000815260200160001515815260200160008152602001600081525090565b6040518061012001604052806000815260200160008152602001600081526020016000815260200160008152602001600081526020016000815260200160008152602001600081525090565b6040518060e0016040528060008152602001600081526020016000815260200160006001600160a01b0316815260200160001515815260200160008152602001600081525090565b6001600160a01b0391909116815260200190565b6001600160a01b0381168114610a1b57600080fd5b8035614f2381614f03565b919050565b600060208284031215614f3a57600080fd5b8135612f3c81614f03565b60008060408385031215614f5857600080fd5b8235614f6381614f03565b946020939093013593505050565b634e487b7160e01b600052604160045260246000fd5b60006020808385031215614f9a57600080fd5b823567ffffffffffffffff80821115614fb257600080fd5b818501915085601f830112614fc657600080fd5b813581811115614fd857614fd8614f71565b8060051b604051601f19603f83011681018181108582111715614ffd57614ffd614f71565b60405291825284820192508381018501918883111561501b57600080fd5b938501935b828510156150405761503185614f18565b84529385019392850192615020565b98975050505050505050565b60006020828403121561505e57600080fd5b5035919050565b6000806000806000806000806000806101408b8d03121561508557600080fd5b8a3561509081614f03565b995060208b01356150a081614f03565b985060408b01356150b081614f03565b975060608b01356150c081614f03565b965060808b01356150d081614f03565b955060a08b01356150e081614f03565b945060c08b01356150f081614f03565b935060e08b013561510081614f03565b92506101008b013561511181614f03565b91506151206101208c01614f18565b90509295989b9194979a5092959850565b634e487b7160e01b600052602160045260246000fd5b858152602081018590526040810184905260a081016005841061516c5761516c615131565b60608201939093526001600160801b03919091166080909101529392505050565b600060208083528351808285015260005b818110156151ba5785810183015185820160400152820161519e565b506000604082860101526040601f19601f8301168501019250505092915050565b600080600080600080600060e0888a0312156151f657600080fd5b87359650602088013561520881614f03565b9550604088013561521881614f03565b9450606088013561522881614f03565b9699959850939660808101359560a0820135955060c0909101359350915050565b634e487b7160e01b600052601160045260246000fd5b81810381811115610a6b57610a6b615249565b60006020828403121561528457600080fd5b5051919050565b60208082526022908201527f54726f76654d616e616765723a206e6f7468696e6720746f206c697175696461604082015261746560f01b606082015260800190565b6001600160a01b03929092168252602082015260400190565b634e487b7160e01b600052601260045260246000fd5b60008261530b5761530b6152e6565b500490565b8082028115828204841417610a6b57610a6b615249565b634e487b7160e01b600052603260045260246000fd5b634e487b7160e01b600052600160045260246000fd5b6020808252818101527f4f776e61626c653a2063616c6c6572206973206e6f7420746865206f776e6572604082015260600190565b80820180821115610a6b57610a6b615249565b6000602082840312156153ad57600080fd5b8151612f3c81614f03565b6000816153c7576153c7615249565b506000190190565b600481106153df576153df615131565b9052565b848152602081018490526040810183905260808101611a8860608301846153cf565b60006001820161541757615417615249565b5060010190565b60006020828403121561543057600080fd5b81518015158114612f3c57600080fd5b838152602081018390526060810161371b60408301846153cf565b60008261546a5761546a6152e6565b500690565b634e487b7160e01b600052603160045260246000fdfeea67486ed7ebe3eea8ab3390efd4a3c8aae48be5bea27df104a8af786c408434c3770d654ed33aeea6bf11ac8ef05d02a6a04ed4686dd2f624d853bbec43cc8ba26469706673582212207a22d0716d904ff05896d80b8161f0abbc236d77ab022397a76f942f6d61894d64736f6c63430008110033",
  "linkReferences": {},
  "deployedLinkReferences": {}
}